
LabWork6.elf:     file format elf32-littlearm

Sections:
Idx Name          Size      VMA       LMA       File off  Algn
  0 .isr_vector   00000188  08000000  08000000  00010000  2**0
                  CONTENTS, ALLOC, LOAD, READONLY, DATA
  1 .text         00004754  08000188  08000188  00010188  2**2
                  CONTENTS, ALLOC, LOAD, READONLY, CODE
  2 .rodata       00000018  080048dc  080048dc  000148dc  2**2
                  CONTENTS, ALLOC, LOAD, READONLY, DATA
  3 .ARM.extab    00000000  080048f4  080048f4  00020010  2**0
                  CONTENTS
  4 .ARM          00000008  080048f4  080048f4  000148f4  2**2
                  CONTENTS, ALLOC, LOAD, READONLY, DATA
  5 .preinit_array 00000000  080048fc  080048fc  00020010  2**0
                  CONTENTS, ALLOC, LOAD, DATA
  6 .init_array   00000004  080048fc  080048fc  000148fc  2**2
                  CONTENTS, ALLOC, LOAD, DATA
  7 .fini_array   00000004  08004900  08004900  00014900  2**2
                  CONTENTS, ALLOC, LOAD, DATA
  8 .data         00000010  20000000  08004904  00020000  2**2
                  CONTENTS, ALLOC, LOAD, DATA
  9 .ccmram       00000000  10000000  10000000  00020010  2**0
                  CONTENTS
 10 .bss          00000114  20000010  20000010  00020010  2**2
                  ALLOC
 11 ._user_heap_stack 00000604  20000124  20000124  00020010  2**0
                  ALLOC
 12 .ARM.attributes 00000030  00000000  00000000  00020010  2**0
                  CONTENTS, READONLY
 13 .debug_info   0000d117  00000000  00000000  00020040  2**0
                  CONTENTS, READONLY, DEBUGGING, OCTETS
 14 .debug_abbrev 00001a59  00000000  00000000  0002d157  2**0
                  CONTENTS, READONLY, DEBUGGING, OCTETS
 15 .debug_aranges 00000cc8  00000000  00000000  0002ebb0  2**3
                  CONTENTS, READONLY, DEBUGGING, OCTETS
 16 .debug_ranges 00000c28  00000000  00000000  0002f878  2**3
                  CONTENTS, READONLY, DEBUGGING, OCTETS
 17 .debug_macro  0002021a  00000000  00000000  000304a0  2**0
                  CONTENTS, READONLY, DEBUGGING, OCTETS
 18 .debug_line   0000e82c  00000000  00000000  000506ba  2**0
                  CONTENTS, READONLY, DEBUGGING, OCTETS
 19 .debug_str    000c6eb6  00000000  00000000  0005eee6  2**0
                  CONTENTS, READONLY, DEBUGGING, OCTETS
 20 .comment      00000053  00000000  00000000  00125d9c  2**0
                  CONTENTS, READONLY
 21 .debug_frame  00003670  00000000  00000000  00125df0  2**2
                  CONTENTS, READONLY, DEBUGGING, OCTETS

Disassembly of section .text:

08000188 <__do_global_dtors_aux>:
 8000188:	b510      	push	{r4, lr}
 800018a:	4c05      	ldr	r4, [pc, #20]	; (80001a0 <__do_global_dtors_aux+0x18>)
 800018c:	7823      	ldrb	r3, [r4, #0]
 800018e:	b933      	cbnz	r3, 800019e <__do_global_dtors_aux+0x16>
 8000190:	4b04      	ldr	r3, [pc, #16]	; (80001a4 <__do_global_dtors_aux+0x1c>)
 8000192:	b113      	cbz	r3, 800019a <__do_global_dtors_aux+0x12>
 8000194:	4804      	ldr	r0, [pc, #16]	; (80001a8 <__do_global_dtors_aux+0x20>)
 8000196:	f3af 8000 	nop.w
 800019a:	2301      	movs	r3, #1
 800019c:	7023      	strb	r3, [r4, #0]
 800019e:	bd10      	pop	{r4, pc}
 80001a0:	20000010 	.word	0x20000010
 80001a4:	00000000 	.word	0x00000000
 80001a8:	080048c4 	.word	0x080048c4

080001ac <frame_dummy>:
 80001ac:	b508      	push	{r3, lr}
 80001ae:	4b03      	ldr	r3, [pc, #12]	; (80001bc <frame_dummy+0x10>)
 80001b0:	b11b      	cbz	r3, 80001ba <frame_dummy+0xe>
 80001b2:	4903      	ldr	r1, [pc, #12]	; (80001c0 <frame_dummy+0x14>)
 80001b4:	4803      	ldr	r0, [pc, #12]	; (80001c4 <frame_dummy+0x18>)
 80001b6:	f3af 8000 	nop.w
 80001ba:	bd08      	pop	{r3, pc}
 80001bc:	00000000 	.word	0x00000000
 80001c0:	20000014 	.word	0x20000014
 80001c4:	080048c4 	.word	0x080048c4

080001c8 <__aeabi_uldivmod>:
 80001c8:	b953      	cbnz	r3, 80001e0 <__aeabi_uldivmod+0x18>
 80001ca:	b94a      	cbnz	r2, 80001e0 <__aeabi_uldivmod+0x18>
 80001cc:	2900      	cmp	r1, #0
 80001ce:	bf08      	it	eq
 80001d0:	2800      	cmpeq	r0, #0
 80001d2:	bf1c      	itt	ne
 80001d4:	f04f 31ff 	movne.w	r1, #4294967295
 80001d8:	f04f 30ff 	movne.w	r0, #4294967295
 80001dc:	f000 b96e 	b.w	80004bc <__aeabi_idiv0>
 80001e0:	f1ad 0c08 	sub.w	ip, sp, #8
 80001e4:	e96d ce04 	strd	ip, lr, [sp, #-16]!
 80001e8:	f000 f806 	bl	80001f8 <__udivmoddi4>
 80001ec:	f8dd e004 	ldr.w	lr, [sp, #4]
 80001f0:	e9dd 2302 	ldrd	r2, r3, [sp, #8]
 80001f4:	b004      	add	sp, #16
 80001f6:	4770      	bx	lr

080001f8 <__udivmoddi4>:
 80001f8:	e92d 47f0 	stmdb	sp!, {r4, r5, r6, r7, r8, r9, sl, lr}
 80001fc:	9d08      	ldr	r5, [sp, #32]
 80001fe:	4604      	mov	r4, r0
 8000200:	468c      	mov	ip, r1
 8000202:	2b00      	cmp	r3, #0
 8000204:	f040 8083 	bne.w	800030e <__udivmoddi4+0x116>
 8000208:	428a      	cmp	r2, r1
 800020a:	4617      	mov	r7, r2
 800020c:	d947      	bls.n	800029e <__udivmoddi4+0xa6>
 800020e:	fab2 f282 	clz	r2, r2
 8000212:	b142      	cbz	r2, 8000226 <__udivmoddi4+0x2e>
 8000214:	f1c2 0020 	rsb	r0, r2, #32
 8000218:	fa24 f000 	lsr.w	r0, r4, r0
 800021c:	4091      	lsls	r1, r2
 800021e:	4097      	lsls	r7, r2
 8000220:	ea40 0c01 	orr.w	ip, r0, r1
 8000224:	4094      	lsls	r4, r2
 8000226:	ea4f 4817 	mov.w	r8, r7, lsr #16
 800022a:	0c23      	lsrs	r3, r4, #16
 800022c:	fbbc f6f8 	udiv	r6, ip, r8
 8000230:	fa1f fe87 	uxth.w	lr, r7
 8000234:	fb08 c116 	mls	r1, r8, r6, ip
 8000238:	ea43 4301 	orr.w	r3, r3, r1, lsl #16
 800023c:	fb06 f10e 	mul.w	r1, r6, lr
 8000240:	4299      	cmp	r1, r3
 8000242:	d909      	bls.n	8000258 <__udivmoddi4+0x60>
 8000244:	18fb      	adds	r3, r7, r3
 8000246:	f106 30ff 	add.w	r0, r6, #4294967295
 800024a:	f080 8119 	bcs.w	8000480 <__udivmoddi4+0x288>
 800024e:	4299      	cmp	r1, r3
 8000250:	f240 8116 	bls.w	8000480 <__udivmoddi4+0x288>
 8000254:	3e02      	subs	r6, #2
 8000256:	443b      	add	r3, r7
 8000258:	1a5b      	subs	r3, r3, r1
 800025a:	b2a4      	uxth	r4, r4
 800025c:	fbb3 f0f8 	udiv	r0, r3, r8
 8000260:	fb08 3310 	mls	r3, r8, r0, r3
 8000264:	ea44 4403 	orr.w	r4, r4, r3, lsl #16
 8000268:	fb00 fe0e 	mul.w	lr, r0, lr
 800026c:	45a6      	cmp	lr, r4
 800026e:	d909      	bls.n	8000284 <__udivmoddi4+0x8c>
 8000270:	193c      	adds	r4, r7, r4
 8000272:	f100 33ff 	add.w	r3, r0, #4294967295
 8000276:	f080 8105 	bcs.w	8000484 <__udivmoddi4+0x28c>
 800027a:	45a6      	cmp	lr, r4
 800027c:	f240 8102 	bls.w	8000484 <__udivmoddi4+0x28c>
 8000280:	3802      	subs	r0, #2
 8000282:	443c      	add	r4, r7
 8000284:	ea40 4006 	orr.w	r0, r0, r6, lsl #16
 8000288:	eba4 040e 	sub.w	r4, r4, lr
 800028c:	2600      	movs	r6, #0
 800028e:	b11d      	cbz	r5, 8000298 <__udivmoddi4+0xa0>
 8000290:	40d4      	lsrs	r4, r2
 8000292:	2300      	movs	r3, #0
 8000294:	e9c5 4300 	strd	r4, r3, [r5]
 8000298:	4631      	mov	r1, r6
 800029a:	e8bd 87f0 	ldmia.w	sp!, {r4, r5, r6, r7, r8, r9, sl, pc}
 800029e:	b902      	cbnz	r2, 80002a2 <__udivmoddi4+0xaa>
 80002a0:	deff      	udf	#255	; 0xff
 80002a2:	fab2 f282 	clz	r2, r2
 80002a6:	2a00      	cmp	r2, #0
 80002a8:	d150      	bne.n	800034c <__udivmoddi4+0x154>
 80002aa:	1bcb      	subs	r3, r1, r7
 80002ac:	ea4f 4e17 	mov.w	lr, r7, lsr #16
 80002b0:	fa1f f887 	uxth.w	r8, r7
 80002b4:	2601      	movs	r6, #1
 80002b6:	fbb3 fcfe 	udiv	ip, r3, lr
 80002ba:	0c21      	lsrs	r1, r4, #16
 80002bc:	fb0e 331c 	mls	r3, lr, ip, r3
 80002c0:	ea41 4103 	orr.w	r1, r1, r3, lsl #16
 80002c4:	fb08 f30c 	mul.w	r3, r8, ip
 80002c8:	428b      	cmp	r3, r1
 80002ca:	d907      	bls.n	80002dc <__udivmoddi4+0xe4>
 80002cc:	1879      	adds	r1, r7, r1
 80002ce:	f10c 30ff 	add.w	r0, ip, #4294967295
 80002d2:	d202      	bcs.n	80002da <__udivmoddi4+0xe2>
 80002d4:	428b      	cmp	r3, r1
 80002d6:	f200 80e9 	bhi.w	80004ac <__udivmoddi4+0x2b4>
 80002da:	4684      	mov	ip, r0
 80002dc:	1ac9      	subs	r1, r1, r3
 80002de:	b2a3      	uxth	r3, r4
 80002e0:	fbb1 f0fe 	udiv	r0, r1, lr
 80002e4:	fb0e 1110 	mls	r1, lr, r0, r1
 80002e8:	ea43 4401 	orr.w	r4, r3, r1, lsl #16
 80002ec:	fb08 f800 	mul.w	r8, r8, r0
 80002f0:	45a0      	cmp	r8, r4
 80002f2:	d907      	bls.n	8000304 <__udivmoddi4+0x10c>
 80002f4:	193c      	adds	r4, r7, r4
 80002f6:	f100 33ff 	add.w	r3, r0, #4294967295
 80002fa:	d202      	bcs.n	8000302 <__udivmoddi4+0x10a>
 80002fc:	45a0      	cmp	r8, r4
 80002fe:	f200 80d9 	bhi.w	80004b4 <__udivmoddi4+0x2bc>
 8000302:	4618      	mov	r0, r3
 8000304:	eba4 0408 	sub.w	r4, r4, r8
 8000308:	ea40 400c 	orr.w	r0, r0, ip, lsl #16
 800030c:	e7bf      	b.n	800028e <__udivmoddi4+0x96>
 800030e:	428b      	cmp	r3, r1
 8000310:	d909      	bls.n	8000326 <__udivmoddi4+0x12e>
 8000312:	2d00      	cmp	r5, #0
 8000314:	f000 80b1 	beq.w	800047a <__udivmoddi4+0x282>
 8000318:	2600      	movs	r6, #0
 800031a:	e9c5 0100 	strd	r0, r1, [r5]
 800031e:	4630      	mov	r0, r6
 8000320:	4631      	mov	r1, r6
 8000322:	e8bd 87f0 	ldmia.w	sp!, {r4, r5, r6, r7, r8, r9, sl, pc}
 8000326:	fab3 f683 	clz	r6, r3
 800032a:	2e00      	cmp	r6, #0
 800032c:	d14a      	bne.n	80003c4 <__udivmoddi4+0x1cc>
 800032e:	428b      	cmp	r3, r1
 8000330:	d302      	bcc.n	8000338 <__udivmoddi4+0x140>
 8000332:	4282      	cmp	r2, r0
 8000334:	f200 80b8 	bhi.w	80004a8 <__udivmoddi4+0x2b0>
 8000338:	1a84      	subs	r4, r0, r2
 800033a:	eb61 0103 	sbc.w	r1, r1, r3
 800033e:	2001      	movs	r0, #1
 8000340:	468c      	mov	ip, r1
 8000342:	2d00      	cmp	r5, #0
 8000344:	d0a8      	beq.n	8000298 <__udivmoddi4+0xa0>
 8000346:	e9c5 4c00 	strd	r4, ip, [r5]
 800034a:	e7a5      	b.n	8000298 <__udivmoddi4+0xa0>
 800034c:	f1c2 0320 	rsb	r3, r2, #32
 8000350:	fa20 f603 	lsr.w	r6, r0, r3
 8000354:	4097      	lsls	r7, r2
 8000356:	fa01 f002 	lsl.w	r0, r1, r2
 800035a:	ea4f 4e17 	mov.w	lr, r7, lsr #16
 800035e:	40d9      	lsrs	r1, r3
 8000360:	4330      	orrs	r0, r6
 8000362:	0c03      	lsrs	r3, r0, #16
 8000364:	fbb1 f6fe 	udiv	r6, r1, lr
 8000368:	fa1f f887 	uxth.w	r8, r7
 800036c:	fb0e 1116 	mls	r1, lr, r6, r1
 8000370:	ea43 4301 	orr.w	r3, r3, r1, lsl #16
 8000374:	fb06 f108 	mul.w	r1, r6, r8
 8000378:	4299      	cmp	r1, r3
 800037a:	fa04 f402 	lsl.w	r4, r4, r2
 800037e:	d909      	bls.n	8000394 <__udivmoddi4+0x19c>
 8000380:	18fb      	adds	r3, r7, r3
 8000382:	f106 3cff 	add.w	ip, r6, #4294967295
 8000386:	f080 808d 	bcs.w	80004a4 <__udivmoddi4+0x2ac>
 800038a:	4299      	cmp	r1, r3
 800038c:	f240 808a 	bls.w	80004a4 <__udivmoddi4+0x2ac>
 8000390:	3e02      	subs	r6, #2
 8000392:	443b      	add	r3, r7
 8000394:	1a5b      	subs	r3, r3, r1
 8000396:	b281      	uxth	r1, r0
 8000398:	fbb3 f0fe 	udiv	r0, r3, lr
 800039c:	fb0e 3310 	mls	r3, lr, r0, r3
 80003a0:	ea41 4103 	orr.w	r1, r1, r3, lsl #16
 80003a4:	fb00 f308 	mul.w	r3, r0, r8
 80003a8:	428b      	cmp	r3, r1
 80003aa:	d907      	bls.n	80003bc <__udivmoddi4+0x1c4>
 80003ac:	1879      	adds	r1, r7, r1
 80003ae:	f100 3cff 	add.w	ip, r0, #4294967295
 80003b2:	d273      	bcs.n	800049c <__udivmoddi4+0x2a4>
 80003b4:	428b      	cmp	r3, r1
 80003b6:	d971      	bls.n	800049c <__udivmoddi4+0x2a4>
 80003b8:	3802      	subs	r0, #2
 80003ba:	4439      	add	r1, r7
 80003bc:	1acb      	subs	r3, r1, r3
 80003be:	ea40 4606 	orr.w	r6, r0, r6, lsl #16
 80003c2:	e778      	b.n	80002b6 <__udivmoddi4+0xbe>
 80003c4:	f1c6 0c20 	rsb	ip, r6, #32
 80003c8:	fa03 f406 	lsl.w	r4, r3, r6
 80003cc:	fa22 f30c 	lsr.w	r3, r2, ip
 80003d0:	431c      	orrs	r4, r3
 80003d2:	fa20 f70c 	lsr.w	r7, r0, ip
 80003d6:	fa01 f306 	lsl.w	r3, r1, r6
 80003da:	ea4f 4e14 	mov.w	lr, r4, lsr #16
 80003de:	fa21 f10c 	lsr.w	r1, r1, ip
 80003e2:	431f      	orrs	r7, r3
 80003e4:	0c3b      	lsrs	r3, r7, #16
 80003e6:	fbb1 f9fe 	udiv	r9, r1, lr
 80003ea:	fa1f f884 	uxth.w	r8, r4
 80003ee:	fb0e 1119 	mls	r1, lr, r9, r1
 80003f2:	ea43 4101 	orr.w	r1, r3, r1, lsl #16
 80003f6:	fb09 fa08 	mul.w	sl, r9, r8
 80003fa:	458a      	cmp	sl, r1
 80003fc:	fa02 f206 	lsl.w	r2, r2, r6
 8000400:	fa00 f306 	lsl.w	r3, r0, r6
 8000404:	d908      	bls.n	8000418 <__udivmoddi4+0x220>
 8000406:	1861      	adds	r1, r4, r1
 8000408:	f109 30ff 	add.w	r0, r9, #4294967295
 800040c:	d248      	bcs.n	80004a0 <__udivmoddi4+0x2a8>
 800040e:	458a      	cmp	sl, r1
 8000410:	d946      	bls.n	80004a0 <__udivmoddi4+0x2a8>
 8000412:	f1a9 0902 	sub.w	r9, r9, #2
 8000416:	4421      	add	r1, r4
 8000418:	eba1 010a 	sub.w	r1, r1, sl
 800041c:	b2bf      	uxth	r7, r7
 800041e:	fbb1 f0fe 	udiv	r0, r1, lr
 8000422:	fb0e 1110 	mls	r1, lr, r0, r1
 8000426:	ea47 4701 	orr.w	r7, r7, r1, lsl #16
 800042a:	fb00 f808 	mul.w	r8, r0, r8
 800042e:	45b8      	cmp	r8, r7
 8000430:	d907      	bls.n	8000442 <__udivmoddi4+0x24a>
 8000432:	19e7      	adds	r7, r4, r7
 8000434:	f100 31ff 	add.w	r1, r0, #4294967295
 8000438:	d22e      	bcs.n	8000498 <__udivmoddi4+0x2a0>
 800043a:	45b8      	cmp	r8, r7
 800043c:	d92c      	bls.n	8000498 <__udivmoddi4+0x2a0>
 800043e:	3802      	subs	r0, #2
 8000440:	4427      	add	r7, r4
 8000442:	ea40 4009 	orr.w	r0, r0, r9, lsl #16
 8000446:	eba7 0708 	sub.w	r7, r7, r8
 800044a:	fba0 8902 	umull	r8, r9, r0, r2
 800044e:	454f      	cmp	r7, r9
 8000450:	46c6      	mov	lr, r8
 8000452:	4649      	mov	r1, r9
 8000454:	d31a      	bcc.n	800048c <__udivmoddi4+0x294>
 8000456:	d017      	beq.n	8000488 <__udivmoddi4+0x290>
 8000458:	b15d      	cbz	r5, 8000472 <__udivmoddi4+0x27a>
 800045a:	ebb3 020e 	subs.w	r2, r3, lr
 800045e:	eb67 0701 	sbc.w	r7, r7, r1
 8000462:	fa07 fc0c 	lsl.w	ip, r7, ip
 8000466:	40f2      	lsrs	r2, r6
 8000468:	ea4c 0202 	orr.w	r2, ip, r2
 800046c:	40f7      	lsrs	r7, r6
 800046e:	e9c5 2700 	strd	r2, r7, [r5]
 8000472:	2600      	movs	r6, #0
 8000474:	4631      	mov	r1, r6
 8000476:	e8bd 87f0 	ldmia.w	sp!, {r4, r5, r6, r7, r8, r9, sl, pc}
 800047a:	462e      	mov	r6, r5
 800047c:	4628      	mov	r0, r5
 800047e:	e70b      	b.n	8000298 <__udivmoddi4+0xa0>
 8000480:	4606      	mov	r6, r0
 8000482:	e6e9      	b.n	8000258 <__udivmoddi4+0x60>
 8000484:	4618      	mov	r0, r3
 8000486:	e6fd      	b.n	8000284 <__udivmoddi4+0x8c>
 8000488:	4543      	cmp	r3, r8
 800048a:	d2e5      	bcs.n	8000458 <__udivmoddi4+0x260>
 800048c:	ebb8 0e02 	subs.w	lr, r8, r2
 8000490:	eb69 0104 	sbc.w	r1, r9, r4
 8000494:	3801      	subs	r0, #1
 8000496:	e7df      	b.n	8000458 <__udivmoddi4+0x260>
 8000498:	4608      	mov	r0, r1
 800049a:	e7d2      	b.n	8000442 <__udivmoddi4+0x24a>
 800049c:	4660      	mov	r0, ip
 800049e:	e78d      	b.n	80003bc <__udivmoddi4+0x1c4>
 80004a0:	4681      	mov	r9, r0
 80004a2:	e7b9      	b.n	8000418 <__udivmoddi4+0x220>
 80004a4:	4666      	mov	r6, ip
 80004a6:	e775      	b.n	8000394 <__udivmoddi4+0x19c>
 80004a8:	4630      	mov	r0, r6
 80004aa:	e74a      	b.n	8000342 <__udivmoddi4+0x14a>
 80004ac:	f1ac 0c02 	sub.w	ip, ip, #2
 80004b0:	4439      	add	r1, r7
 80004b2:	e713      	b.n	80002dc <__udivmoddi4+0xe4>
 80004b4:	3802      	subs	r0, #2
 80004b6:	443c      	add	r4, r7
 80004b8:	e724      	b.n	8000304 <__udivmoddi4+0x10c>
 80004ba:	bf00      	nop

080004bc <__aeabi_idiv0>:
 80004bc:	4770      	bx	lr
 80004be:	bf00      	nop

080004c0 <main>:
/**
  * @brief  The application entry point.
  * @retval int
  */
int main(void)
{
 80004c0:	b580      	push	{r7, lr}
 80004c2:	b082      	sub	sp, #8
 80004c4:	af02      	add	r7, sp, #8
  /* USER CODE END 1 */

  /* MCU Configuration--------------------------------------------------------*/

  /* Reset of all peripherals, Initializes the Flash interface and the Systick. */
  HAL_Init();
 80004c6:	f000 fb5b 	bl	8000b80 <HAL_Init>
  /* USER CODE BEGIN Init */

  /* USER CODE END Init */

  /* Configure the system clock */
  SystemClock_Config();
 80004ca:	f000 f845 	bl	8000558 <SystemClock_Config>
  /* USER CODE BEGIN SysInit */

  /* USER CODE END SysInit */

  /* Initialize all configured peripherals */
  MX_GPIO_Init();
 80004ce:	f000 f98b 	bl	80007e8 <MX_GPIO_Init>
  MX_I2C1_Init();
 80004d2:	f000 f8df 	bl	8000694 <MX_I2C1_Init>
  MX_TIM2_Init();
 80004d6:	f000 f939 	bl	800074c <MX_TIM2_Init>
  MX_I2C2_Init();
 80004da:	f000 f909 	bl	80006f0 <MX_I2C2_Init>

  /* Initialize interrupts */
  MX_NVIC_Init();
 80004de:	f000 f8a5 	bl	800062c <MX_NVIC_Init>

  /* Infinite loop */
  /* USER CODE BEGIN WHILE */
  while (1)
  {
	  if(HAL_I2C_IsDeviceReady(&hi2c1, I2C_ADDRESS,1,10)==HAL_OK){
 80004e2:	230a      	movs	r3, #10
 80004e4:	2201      	movs	r2, #1
 80004e6:	21fa      	movs	r1, #250	; 0xfa
 80004e8:	4817      	ldr	r0, [pc, #92]	; (8000548 <main+0x88>)
 80004ea:	f001 f93d 	bl	8001768 <HAL_I2C_IsDeviceReady>
 80004ee:	4603      	mov	r3, r0
 80004f0:	2b00      	cmp	r3, #0
 80004f2:	d111      	bne.n	8000518 <main+0x58>

	  		  HAL_GPIO_WritePin(GPIOD, GPIO_PIN_15, GPIO_PIN_SET);
 80004f4:	2201      	movs	r2, #1
 80004f6:	f44f 4100 	mov.w	r1, #32768	; 0x8000
 80004fa:	4814      	ldr	r0, [pc, #80]	; (800054c <main+0x8c>)
 80004fc:	f000 feb4 	bl	8001268 <HAL_GPIO_WritePin>
	  		  HAL_I2C_Master_Transmit(&hi2c1, I2C_ADDRESS, &aTxBuffer[i], 1, 10);
 8000500:	4b13      	ldr	r3, [pc, #76]	; (8000550 <main+0x90>)
 8000502:	681b      	ldr	r3, [r3, #0]
 8000504:	4a13      	ldr	r2, [pc, #76]	; (8000554 <main+0x94>)
 8000506:	441a      	add	r2, r3
 8000508:	230a      	movs	r3, #10
 800050a:	9300      	str	r3, [sp, #0]
 800050c:	2301      	movs	r3, #1
 800050e:	21fa      	movs	r1, #250	; 0xfa
 8000510:	480d      	ldr	r0, [pc, #52]	; (8000548 <main+0x88>)
 8000512:	f001 f82b 	bl	800156c <HAL_I2C_Master_Transmit>
 8000516:	e005      	b.n	8000524 <main+0x64>
	  }
	  else{
		  HAL_GPIO_WritePin(GPIOD, GPIO_PIN_13, GPIO_PIN_SET);
 8000518:	2201      	movs	r2, #1
 800051a:	f44f 5100 	mov.w	r1, #8192	; 0x2000
 800051e:	480b      	ldr	r0, [pc, #44]	; (800054c <main+0x8c>)
 8000520:	f000 fea2 	bl	8001268 <HAL_GPIO_WritePin>

	  }
	  if(i<2){
 8000524:	4b0a      	ldr	r3, [pc, #40]	; (8000550 <main+0x90>)
 8000526:	681b      	ldr	r3, [r3, #0]
 8000528:	2b01      	cmp	r3, #1
 800052a:	dc05      	bgt.n	8000538 <main+0x78>
		  i=i+1;
 800052c:	4b08      	ldr	r3, [pc, #32]	; (8000550 <main+0x90>)
 800052e:	681b      	ldr	r3, [r3, #0]
 8000530:	3301      	adds	r3, #1
 8000532:	4a07      	ldr	r2, [pc, #28]	; (8000550 <main+0x90>)
 8000534:	6013      	str	r3, [r2, #0]
 8000536:	e002      	b.n	800053e <main+0x7e>
	  }
	  else{
		  i=0;
 8000538:	4b05      	ldr	r3, [pc, #20]	; (8000550 <main+0x90>)
 800053a:	2200      	movs	r2, #0
 800053c:	601a      	str	r2, [r3, #0]
	  }
	  HAL_Delay(1000);
 800053e:	f44f 707a 	mov.w	r0, #1000	; 0x3e8
 8000542:	f000 fb8f 	bl	8000c64 <HAL_Delay>
	  if(HAL_I2C_IsDeviceReady(&hi2c1, I2C_ADDRESS,1,10)==HAL_OK){
 8000546:	e7cc      	b.n	80004e2 <main+0x22>
 8000548:	20000030 	.word	0x20000030
 800054c:	40020c00 	.word	0x40020c00
 8000550:	2000002c 	.word	0x2000002c
 8000554:	20000000 	.word	0x20000000

08000558 <SystemClock_Config>:
/**
  * @brief System Clock Configuration
  * @retval None
  */
void SystemClock_Config(void)
{
 8000558:	b580      	push	{r7, lr}
 800055a:	b094      	sub	sp, #80	; 0x50
 800055c:	af00      	add	r7, sp, #0
  RCC_OscInitTypeDef RCC_OscInitStruct = {0};
 800055e:	f107 0320 	add.w	r3, r7, #32
 8000562:	2230      	movs	r2, #48	; 0x30
 8000564:	2100      	movs	r1, #0
 8000566:	4618      	mov	r0, r3
 8000568:	f004 f9a4 	bl	80048b4 <memset>
  RCC_ClkInitTypeDef RCC_ClkInitStruct = {0};
 800056c:	f107 030c 	add.w	r3, r7, #12
 8000570:	2200      	movs	r2, #0
 8000572:	601a      	str	r2, [r3, #0]
 8000574:	605a      	str	r2, [r3, #4]
 8000576:	609a      	str	r2, [r3, #8]
 8000578:	60da      	str	r2, [r3, #12]
 800057a:	611a      	str	r2, [r3, #16]

  /** Configure the main internal regulator output voltage
  */
  __HAL_RCC_PWR_CLK_ENABLE();
 800057c:	2300      	movs	r3, #0
 800057e:	60bb      	str	r3, [r7, #8]
 8000580:	4b28      	ldr	r3, [pc, #160]	; (8000624 <SystemClock_Config+0xcc>)
 8000582:	6c1b      	ldr	r3, [r3, #64]	; 0x40
 8000584:	4a27      	ldr	r2, [pc, #156]	; (8000624 <SystemClock_Config+0xcc>)
 8000586:	f043 5380 	orr.w	r3, r3, #268435456	; 0x10000000
 800058a:	6413      	str	r3, [r2, #64]	; 0x40
 800058c:	4b25      	ldr	r3, [pc, #148]	; (8000624 <SystemClock_Config+0xcc>)
 800058e:	6c1b      	ldr	r3, [r3, #64]	; 0x40
 8000590:	f003 5380 	and.w	r3, r3, #268435456	; 0x10000000
 8000594:	60bb      	str	r3, [r7, #8]
 8000596:	68bb      	ldr	r3, [r7, #8]
  __HAL_PWR_VOLTAGESCALING_CONFIG(PWR_REGULATOR_VOLTAGE_SCALE1);
 8000598:	2300      	movs	r3, #0
 800059a:	607b      	str	r3, [r7, #4]
 800059c:	4b22      	ldr	r3, [pc, #136]	; (8000628 <SystemClock_Config+0xd0>)
 800059e:	681b      	ldr	r3, [r3, #0]
 80005a0:	4a21      	ldr	r2, [pc, #132]	; (8000628 <SystemClock_Config+0xd0>)
 80005a2:	f443 4380 	orr.w	r3, r3, #16384	; 0x4000
 80005a6:	6013      	str	r3, [r2, #0]
 80005a8:	4b1f      	ldr	r3, [pc, #124]	; (8000628 <SystemClock_Config+0xd0>)
 80005aa:	681b      	ldr	r3, [r3, #0]
 80005ac:	f403 4380 	and.w	r3, r3, #16384	; 0x4000
 80005b0:	607b      	str	r3, [r7, #4]
 80005b2:	687b      	ldr	r3, [r7, #4]
  /** Initializes the RCC Oscillators according to the specified parameters
  * in the RCC_OscInitTypeDef structure.
  */
  RCC_OscInitStruct.OscillatorType = RCC_OSCILLATORTYPE_HSI;
 80005b4:	2302      	movs	r3, #2
 80005b6:	623b      	str	r3, [r7, #32]
  RCC_OscInitStruct.HSIState = RCC_HSI_ON;
 80005b8:	2301      	movs	r3, #1
 80005ba:	62fb      	str	r3, [r7, #44]	; 0x2c
  RCC_OscInitStruct.HSICalibrationValue = RCC_HSICALIBRATION_DEFAULT;
 80005bc:	2310      	movs	r3, #16
 80005be:	633b      	str	r3, [r7, #48]	; 0x30
  RCC_OscInitStruct.PLL.PLLState = RCC_PLL_ON;
 80005c0:	2302      	movs	r3, #2
 80005c2:	63bb      	str	r3, [r7, #56]	; 0x38
  RCC_OscInitStruct.PLL.PLLSource = RCC_PLLSOURCE_HSI;
 80005c4:	2300      	movs	r3, #0
 80005c6:	63fb      	str	r3, [r7, #60]	; 0x3c
  RCC_OscInitStruct.PLL.PLLM = 8;
 80005c8:	2308      	movs	r3, #8
 80005ca:	643b      	str	r3, [r7, #64]	; 0x40
  RCC_OscInitStruct.PLL.PLLN = 72;
 80005cc:	2348      	movs	r3, #72	; 0x48
 80005ce:	647b      	str	r3, [r7, #68]	; 0x44
  RCC_OscInitStruct.PLL.PLLP = RCC_PLLP_DIV2;
 80005d0:	2302      	movs	r3, #2
 80005d2:	64bb      	str	r3, [r7, #72]	; 0x48
  RCC_OscInitStruct.PLL.PLLQ = 7;
 80005d4:	2307      	movs	r3, #7
 80005d6:	64fb      	str	r3, [r7, #76]	; 0x4c
  if (HAL_RCC_OscConfig(&RCC_OscInitStruct) != HAL_OK)
 80005d8:	f107 0320 	add.w	r3, r7, #32
 80005dc:	4618      	mov	r0, r3
 80005de:	f003 f8cb 	bl	8003778 <HAL_RCC_OscConfig>
 80005e2:	4603      	mov	r3, r0
 80005e4:	2b00      	cmp	r3, #0
 80005e6:	d001      	beq.n	80005ec <SystemClock_Config+0x94>
  {
    Error_Handler();
 80005e8:	f000 f960 	bl	80008ac <Error_Handler>
  }
  /** Initializes the CPU, AHB and APB buses clocks
  */
  RCC_ClkInitStruct.ClockType = RCC_CLOCKTYPE_HCLK|RCC_CLOCKTYPE_SYSCLK
 80005ec:	230f      	movs	r3, #15
 80005ee:	60fb      	str	r3, [r7, #12]
                              |RCC_CLOCKTYPE_PCLK1|RCC_CLOCKTYPE_PCLK2;
  RCC_ClkInitStruct.SYSCLKSource = RCC_SYSCLKSOURCE_PLLCLK;
 80005f0:	2302      	movs	r3, #2
 80005f2:	613b      	str	r3, [r7, #16]
  RCC_ClkInitStruct.AHBCLKDivider = RCC_SYSCLK_DIV1;
 80005f4:	2300      	movs	r3, #0
 80005f6:	617b      	str	r3, [r7, #20]
  RCC_ClkInitStruct.APB1CLKDivider = RCC_HCLK_DIV2;
 80005f8:	f44f 5380 	mov.w	r3, #4096	; 0x1000
 80005fc:	61bb      	str	r3, [r7, #24]
  RCC_ClkInitStruct.APB2CLKDivider = RCC_HCLK_DIV2;
 80005fe:	f44f 5380 	mov.w	r3, #4096	; 0x1000
 8000602:	61fb      	str	r3, [r7, #28]

  if (HAL_RCC_ClockConfig(&RCC_ClkInitStruct, FLASH_LATENCY_2) != HAL_OK)
 8000604:	f107 030c 	add.w	r3, r7, #12
 8000608:	2102      	movs	r1, #2
 800060a:	4618      	mov	r0, r3
 800060c:	f003 fb2c 	bl	8003c68 <HAL_RCC_ClockConfig>
 8000610:	4603      	mov	r3, r0
 8000612:	2b00      	cmp	r3, #0
 8000614:	d001      	beq.n	800061a <SystemClock_Config+0xc2>
  {
    Error_Handler();
 8000616:	f000 f949 	bl	80008ac <Error_Handler>
  }
}
 800061a:	bf00      	nop
 800061c:	3750      	adds	r7, #80	; 0x50
 800061e:	46bd      	mov	sp, r7
 8000620:	bd80      	pop	{r7, pc}
 8000622:	bf00      	nop
 8000624:	40023800 	.word	0x40023800
 8000628:	40007000 	.word	0x40007000

0800062c <MX_NVIC_Init>:
/**
  * @brief NVIC Configuration.
  * @retval None
  */
static void MX_NVIC_Init(void)
{
 800062c:	b580      	push	{r7, lr}
 800062e:	af00      	add	r7, sp, #0
  /* EXTI0_IRQn interrupt configuration */
  HAL_NVIC_SetPriority(EXTI0_IRQn, 1, 1);
 8000630:	2201      	movs	r2, #1
 8000632:	2101      	movs	r1, #1
 8000634:	2006      	movs	r0, #6
 8000636:	f000 fc14 	bl	8000e62 <HAL_NVIC_SetPriority>
  HAL_NVIC_EnableIRQ(EXTI0_IRQn);
 800063a:	2006      	movs	r0, #6
 800063c:	f000 fc2d 	bl	8000e9a <HAL_NVIC_EnableIRQ>
  /* TIM2_IRQn interrupt configuration */
  HAL_NVIC_SetPriority(TIM2_IRQn, 0, 0);
 8000640:	2200      	movs	r2, #0
 8000642:	2100      	movs	r1, #0
 8000644:	201c      	movs	r0, #28
 8000646:	f000 fc0c 	bl	8000e62 <HAL_NVIC_SetPriority>
  HAL_NVIC_EnableIRQ(TIM2_IRQn);
 800064a:	201c      	movs	r0, #28
 800064c:	f000 fc25 	bl	8000e9a <HAL_NVIC_EnableIRQ>
  /* I2C1_EV_IRQn interrupt configuration */
  HAL_NVIC_SetPriority(I2C1_EV_IRQn, 0, 0);
 8000650:	2200      	movs	r2, #0
 8000652:	2100      	movs	r1, #0
 8000654:	201f      	movs	r0, #31
 8000656:	f000 fc04 	bl	8000e62 <HAL_NVIC_SetPriority>
  HAL_NVIC_EnableIRQ(I2C1_EV_IRQn);
 800065a:	201f      	movs	r0, #31
 800065c:	f000 fc1d 	bl	8000e9a <HAL_NVIC_EnableIRQ>
  /* I2C1_ER_IRQn interrupt configuration */
  HAL_NVIC_SetPriority(I2C1_ER_IRQn, 0, 0);
 8000660:	2200      	movs	r2, #0
 8000662:	2100      	movs	r1, #0
 8000664:	2020      	movs	r0, #32
 8000666:	f000 fbfc 	bl	8000e62 <HAL_NVIC_SetPriority>
  HAL_NVIC_EnableIRQ(I2C1_ER_IRQn);
 800066a:	2020      	movs	r0, #32
 800066c:	f000 fc15 	bl	8000e9a <HAL_NVIC_EnableIRQ>
  /* I2C2_EV_IRQn interrupt configuration */
  HAL_NVIC_SetPriority(I2C2_EV_IRQn, 0, 0);
 8000670:	2200      	movs	r2, #0
 8000672:	2100      	movs	r1, #0
 8000674:	2021      	movs	r0, #33	; 0x21
 8000676:	f000 fbf4 	bl	8000e62 <HAL_NVIC_SetPriority>
  HAL_NVIC_EnableIRQ(I2C2_EV_IRQn);
 800067a:	2021      	movs	r0, #33	; 0x21
 800067c:	f000 fc0d 	bl	8000e9a <HAL_NVIC_EnableIRQ>
  /* I2C2_ER_IRQn interrupt configuration */
  HAL_NVIC_SetPriority(I2C2_ER_IRQn, 0, 0);
 8000680:	2200      	movs	r2, #0
 8000682:	2100      	movs	r1, #0
 8000684:	2022      	movs	r0, #34	; 0x22
 8000686:	f000 fbec 	bl	8000e62 <HAL_NVIC_SetPriority>
  HAL_NVIC_EnableIRQ(I2C2_ER_IRQn);
 800068a:	2022      	movs	r0, #34	; 0x22
 800068c:	f000 fc05 	bl	8000e9a <HAL_NVIC_EnableIRQ>
}
 8000690:	bf00      	nop
 8000692:	bd80      	pop	{r7, pc}

08000694 <MX_I2C1_Init>:
  * @brief I2C1 Initialization Function
  * @param None
  * @retval None
  */
static void MX_I2C1_Init(void)
{
 8000694:	b580      	push	{r7, lr}
 8000696:	af00      	add	r7, sp, #0
  /* USER CODE END I2C1_Init 0 */

  /* USER CODE BEGIN I2C1_Init 1 */

  /* USER CODE END I2C1_Init 1 */
  hi2c1.Instance = I2C1;
 8000698:	4b12      	ldr	r3, [pc, #72]	; (80006e4 <MX_I2C1_Init+0x50>)
 800069a:	4a13      	ldr	r2, [pc, #76]	; (80006e8 <MX_I2C1_Init+0x54>)
 800069c:	601a      	str	r2, [r3, #0]
  hi2c1.Init.ClockSpeed = 100000;
 800069e:	4b11      	ldr	r3, [pc, #68]	; (80006e4 <MX_I2C1_Init+0x50>)
 80006a0:	4a12      	ldr	r2, [pc, #72]	; (80006ec <MX_I2C1_Init+0x58>)
 80006a2:	605a      	str	r2, [r3, #4]
  hi2c1.Init.DutyCycle = I2C_DUTYCYCLE_2;
 80006a4:	4b0f      	ldr	r3, [pc, #60]	; (80006e4 <MX_I2C1_Init+0x50>)
 80006a6:	2200      	movs	r2, #0
 80006a8:	609a      	str	r2, [r3, #8]
  hi2c1.Init.OwnAddress1 = 0;
 80006aa:	4b0e      	ldr	r3, [pc, #56]	; (80006e4 <MX_I2C1_Init+0x50>)
 80006ac:	2200      	movs	r2, #0
 80006ae:	60da      	str	r2, [r3, #12]
  hi2c1.Init.AddressingMode = I2C_ADDRESSINGMODE_7BIT;
 80006b0:	4b0c      	ldr	r3, [pc, #48]	; (80006e4 <MX_I2C1_Init+0x50>)
 80006b2:	f44f 4280 	mov.w	r2, #16384	; 0x4000
 80006b6:	611a      	str	r2, [r3, #16]
  hi2c1.Init.DualAddressMode = I2C_DUALADDRESS_DISABLE;
 80006b8:	4b0a      	ldr	r3, [pc, #40]	; (80006e4 <MX_I2C1_Init+0x50>)
 80006ba:	2200      	movs	r2, #0
 80006bc:	615a      	str	r2, [r3, #20]
  hi2c1.Init.OwnAddress2 = 0;
 80006be:	4b09      	ldr	r3, [pc, #36]	; (80006e4 <MX_I2C1_Init+0x50>)
 80006c0:	2200      	movs	r2, #0
 80006c2:	619a      	str	r2, [r3, #24]
  hi2c1.Init.GeneralCallMode = I2C_GENERALCALL_DISABLE;
 80006c4:	4b07      	ldr	r3, [pc, #28]	; (80006e4 <MX_I2C1_Init+0x50>)
 80006c6:	2200      	movs	r2, #0
 80006c8:	61da      	str	r2, [r3, #28]
  hi2c1.Init.NoStretchMode = I2C_NOSTRETCH_DISABLE;
 80006ca:	4b06      	ldr	r3, [pc, #24]	; (80006e4 <MX_I2C1_Init+0x50>)
 80006cc:	2200      	movs	r2, #0
 80006ce:	621a      	str	r2, [r3, #32]
  if (HAL_I2C_Init(&hi2c1) != HAL_OK)
 80006d0:	4804      	ldr	r0, [pc, #16]	; (80006e4 <MX_I2C1_Init+0x50>)
 80006d2:	f000 fe07 	bl	80012e4 <HAL_I2C_Init>
 80006d6:	4603      	mov	r3, r0
 80006d8:	2b00      	cmp	r3, #0
 80006da:	d001      	beq.n	80006e0 <MX_I2C1_Init+0x4c>
  {
    Error_Handler();
 80006dc:	f000 f8e6 	bl	80008ac <Error_Handler>
  }
  /* USER CODE BEGIN I2C1_Init 2 */

  /* USER CODE END I2C1_Init 2 */

}
 80006e0:	bf00      	nop
 80006e2:	bd80      	pop	{r7, pc}
 80006e4:	20000030 	.word	0x20000030
 80006e8:	40005400 	.word	0x40005400
 80006ec:	000186a0 	.word	0x000186a0

080006f0 <MX_I2C2_Init>:
  * @brief I2C2 Initialization Function
  * @param None
  * @retval None
  */
static void MX_I2C2_Init(void)
{
 80006f0:	b580      	push	{r7, lr}
 80006f2:	af00      	add	r7, sp, #0
  /* USER CODE END I2C2_Init 0 */

  /* USER CODE BEGIN I2C2_Init 1 */

  /* USER CODE END I2C2_Init 1 */
  hi2c2.Instance = I2C2;
 80006f4:	4b12      	ldr	r3, [pc, #72]	; (8000740 <MX_I2C2_Init+0x50>)
 80006f6:	4a13      	ldr	r2, [pc, #76]	; (8000744 <MX_I2C2_Init+0x54>)
 80006f8:	601a      	str	r2, [r3, #0]
  hi2c2.Init.ClockSpeed = 100000;
 80006fa:	4b11      	ldr	r3, [pc, #68]	; (8000740 <MX_I2C2_Init+0x50>)
 80006fc:	4a12      	ldr	r2, [pc, #72]	; (8000748 <MX_I2C2_Init+0x58>)
 80006fe:	605a      	str	r2, [r3, #4]
  hi2c2.Init.DutyCycle = I2C_DUTYCYCLE_2;
 8000700:	4b0f      	ldr	r3, [pc, #60]	; (8000740 <MX_I2C2_Init+0x50>)
 8000702:	2200      	movs	r2, #0
 8000704:	609a      	str	r2, [r3, #8]
  hi2c2.Init.OwnAddress1 = 0;
 8000706:	4b0e      	ldr	r3, [pc, #56]	; (8000740 <MX_I2C2_Init+0x50>)
 8000708:	2200      	movs	r2, #0
 800070a:	60da      	str	r2, [r3, #12]
  hi2c2.Init.AddressingMode = I2C_ADDRESSINGMODE_7BIT;
 800070c:	4b0c      	ldr	r3, [pc, #48]	; (8000740 <MX_I2C2_Init+0x50>)
 800070e:	f44f 4280 	mov.w	r2, #16384	; 0x4000
 8000712:	611a      	str	r2, [r3, #16]
  hi2c2.Init.DualAddressMode = I2C_DUALADDRESS_DISABLE;
 8000714:	4b0a      	ldr	r3, [pc, #40]	; (8000740 <MX_I2C2_Init+0x50>)
 8000716:	2200      	movs	r2, #0
 8000718:	615a      	str	r2, [r3, #20]
  hi2c2.Init.OwnAddress2 = 0;
 800071a:	4b09      	ldr	r3, [pc, #36]	; (8000740 <MX_I2C2_Init+0x50>)
 800071c:	2200      	movs	r2, #0
 800071e:	619a      	str	r2, [r3, #24]
  hi2c2.Init.GeneralCallMode = I2C_GENERALCALL_DISABLE;
 8000720:	4b07      	ldr	r3, [pc, #28]	; (8000740 <MX_I2C2_Init+0x50>)
 8000722:	2200      	movs	r2, #0
 8000724:	61da      	str	r2, [r3, #28]
  hi2c2.Init.NoStretchMode = I2C_NOSTRETCH_DISABLE;
 8000726:	4b06      	ldr	r3, [pc, #24]	; (8000740 <MX_I2C2_Init+0x50>)
 8000728:	2200      	movs	r2, #0
 800072a:	621a      	str	r2, [r3, #32]
  if (HAL_I2C_Init(&hi2c2) != HAL_OK)
 800072c:	4804      	ldr	r0, [pc, #16]	; (8000740 <MX_I2C2_Init+0x50>)
 800072e:	f000 fdd9 	bl	80012e4 <HAL_I2C_Init>
 8000732:	4603      	mov	r3, r0
 8000734:	2b00      	cmp	r3, #0
 8000736:	d001      	beq.n	800073c <MX_I2C2_Init+0x4c>
  {
    Error_Handler();
 8000738:	f000 f8b8 	bl	80008ac <Error_Handler>
  }
  /* USER CODE BEGIN I2C2_Init 2 */

  /* USER CODE END I2C2_Init 2 */

}
 800073c:	bf00      	nop
 800073e:	bd80      	pop	{r7, pc}
 8000740:	20000084 	.word	0x20000084
 8000744:	40005800 	.word	0x40005800
 8000748:	000186a0 	.word	0x000186a0

0800074c <MX_TIM2_Init>:
  * @brief TIM2 Initialization Function
  * @param None
  * @retval None
  */
static void MX_TIM2_Init(void)
{
 800074c:	b580      	push	{r7, lr}
 800074e:	b086      	sub	sp, #24
 8000750:	af00      	add	r7, sp, #0

  /* USER CODE BEGIN TIM2_Init 0 */

  /* USER CODE END TIM2_Init 0 */

  TIM_ClockConfigTypeDef sClockSourceConfig = {0};
 8000752:	f107 0308 	add.w	r3, r7, #8
 8000756:	2200      	movs	r2, #0
 8000758:	601a      	str	r2, [r3, #0]
 800075a:	605a      	str	r2, [r3, #4]
 800075c:	609a      	str	r2, [r3, #8]
 800075e:	60da      	str	r2, [r3, #12]
  TIM_MasterConfigTypeDef sMasterConfig = {0};
 8000760:	463b      	mov	r3, r7
 8000762:	2200      	movs	r2, #0
 8000764:	601a      	str	r2, [r3, #0]
 8000766:	605a      	str	r2, [r3, #4]

  /* USER CODE BEGIN TIM2_Init 1 */

  /* USER CODE END TIM2_Init 1 */
  htim2.Instance = TIM2;
 8000768:	4b1e      	ldr	r3, [pc, #120]	; (80007e4 <MX_TIM2_Init+0x98>)
 800076a:	f04f 4280 	mov.w	r2, #1073741824	; 0x40000000
 800076e:	601a      	str	r2, [r3, #0]
  htim2.Init.Prescaler = 36000-1;
 8000770:	4b1c      	ldr	r3, [pc, #112]	; (80007e4 <MX_TIM2_Init+0x98>)
 8000772:	f648 429f 	movw	r2, #35999	; 0x8c9f
 8000776:	605a      	str	r2, [r3, #4]
  htim2.Init.CounterMode = TIM_COUNTERMODE_UP;
 8000778:	4b1a      	ldr	r3, [pc, #104]	; (80007e4 <MX_TIM2_Init+0x98>)
 800077a:	2200      	movs	r2, #0
 800077c:	609a      	str	r2, [r3, #8]
  htim2.Init.Period = 4294967295;
 800077e:	4b19      	ldr	r3, [pc, #100]	; (80007e4 <MX_TIM2_Init+0x98>)
 8000780:	f04f 32ff 	mov.w	r2, #4294967295
 8000784:	60da      	str	r2, [r3, #12]
  htim2.Init.ClockDivision = TIM_CLOCKDIVISION_DIV1;
 8000786:	4b17      	ldr	r3, [pc, #92]	; (80007e4 <MX_TIM2_Init+0x98>)
 8000788:	2200      	movs	r2, #0
 800078a:	611a      	str	r2, [r3, #16]
  htim2.Init.AutoReloadPreload = TIM_AUTORELOAD_PRELOAD_DISABLE;
 800078c:	4b15      	ldr	r3, [pc, #84]	; (80007e4 <MX_TIM2_Init+0x98>)
 800078e:	2200      	movs	r2, #0
 8000790:	619a      	str	r2, [r3, #24]
  if (HAL_TIM_Base_Init(&htim2) != HAL_OK)
 8000792:	4814      	ldr	r0, [pc, #80]	; (80007e4 <MX_TIM2_Init+0x98>)
 8000794:	f003 fc50 	bl	8004038 <HAL_TIM_Base_Init>
 8000798:	4603      	mov	r3, r0
 800079a:	2b00      	cmp	r3, #0
 800079c:	d001      	beq.n	80007a2 <MX_TIM2_Init+0x56>
  {
    Error_Handler();
 800079e:	f000 f885 	bl	80008ac <Error_Handler>
  }
  sClockSourceConfig.ClockSource = TIM_CLOCKSOURCE_INTERNAL;
 80007a2:	f44f 5380 	mov.w	r3, #4096	; 0x1000
 80007a6:	60bb      	str	r3, [r7, #8]
  if (HAL_TIM_ConfigClockSource(&htim2, &sClockSourceConfig) != HAL_OK)
 80007a8:	f107 0308 	add.w	r3, r7, #8
 80007ac:	4619      	mov	r1, r3
 80007ae:	480d      	ldr	r0, [pc, #52]	; (80007e4 <MX_TIM2_Init+0x98>)
 80007b0:	f003 fd99 	bl	80042e6 <HAL_TIM_ConfigClockSource>
 80007b4:	4603      	mov	r3, r0
 80007b6:	2b00      	cmp	r3, #0
 80007b8:	d001      	beq.n	80007be <MX_TIM2_Init+0x72>
  {
    Error_Handler();
 80007ba:	f000 f877 	bl	80008ac <Error_Handler>
  }
  sMasterConfig.MasterOutputTrigger = TIM_TRGO_RESET;
 80007be:	2300      	movs	r3, #0
 80007c0:	603b      	str	r3, [r7, #0]
  sMasterConfig.MasterSlaveMode = TIM_MASTERSLAVEMODE_DISABLE;
 80007c2:	2300      	movs	r3, #0
 80007c4:	607b      	str	r3, [r7, #4]
  if (HAL_TIMEx_MasterConfigSynchronization(&htim2, &sMasterConfig) != HAL_OK)
 80007c6:	463b      	mov	r3, r7
 80007c8:	4619      	mov	r1, r3
 80007ca:	4806      	ldr	r0, [pc, #24]	; (80007e4 <MX_TIM2_Init+0x98>)
 80007cc:	f003 ffbe 	bl	800474c <HAL_TIMEx_MasterConfigSynchronization>
 80007d0:	4603      	mov	r3, r0
 80007d2:	2b00      	cmp	r3, #0
 80007d4:	d001      	beq.n	80007da <MX_TIM2_Init+0x8e>
  {
    Error_Handler();
 80007d6:	f000 f869 	bl	80008ac <Error_Handler>
  }
  /* USER CODE BEGIN TIM2_Init 2 */

  /* USER CODE END TIM2_Init 2 */

}
 80007da:	bf00      	nop
 80007dc:	3718      	adds	r7, #24
 80007de:	46bd      	mov	sp, r7
 80007e0:	bd80      	pop	{r7, pc}
 80007e2:	bf00      	nop
 80007e4:	200000d8 	.word	0x200000d8

080007e8 <MX_GPIO_Init>:
  * @brief GPIO Initialization Function
  * @param None
  * @retval None
  */
static void MX_GPIO_Init(void)
{
 80007e8:	b580      	push	{r7, lr}
 80007ea:	b088      	sub	sp, #32
 80007ec:	af00      	add	r7, sp, #0
  GPIO_InitTypeDef GPIO_InitStruct = {0};
 80007ee:	f107 030c 	add.w	r3, r7, #12
 80007f2:	2200      	movs	r2, #0
 80007f4:	601a      	str	r2, [r3, #0]
 80007f6:	605a      	str	r2, [r3, #4]
 80007f8:	609a      	str	r2, [r3, #8]
 80007fa:	60da      	str	r2, [r3, #12]
 80007fc:	611a      	str	r2, [r3, #16]

  /* GPIO Ports Clock Enable */
  __HAL_RCC_GPIOA_CLK_ENABLE();
 80007fe:	2300      	movs	r3, #0
 8000800:	60bb      	str	r3, [r7, #8]
 8000802:	4b27      	ldr	r3, [pc, #156]	; (80008a0 <MX_GPIO_Init+0xb8>)
 8000804:	6b1b      	ldr	r3, [r3, #48]	; 0x30
 8000806:	4a26      	ldr	r2, [pc, #152]	; (80008a0 <MX_GPIO_Init+0xb8>)
 8000808:	f043 0301 	orr.w	r3, r3, #1
 800080c:	6313      	str	r3, [r2, #48]	; 0x30
 800080e:	4b24      	ldr	r3, [pc, #144]	; (80008a0 <MX_GPIO_Init+0xb8>)
 8000810:	6b1b      	ldr	r3, [r3, #48]	; 0x30
 8000812:	f003 0301 	and.w	r3, r3, #1
 8000816:	60bb      	str	r3, [r7, #8]
 8000818:	68bb      	ldr	r3, [r7, #8]
  __HAL_RCC_GPIOB_CLK_ENABLE();
 800081a:	2300      	movs	r3, #0
 800081c:	607b      	str	r3, [r7, #4]
 800081e:	4b20      	ldr	r3, [pc, #128]	; (80008a0 <MX_GPIO_Init+0xb8>)
 8000820:	6b1b      	ldr	r3, [r3, #48]	; 0x30
 8000822:	4a1f      	ldr	r2, [pc, #124]	; (80008a0 <MX_GPIO_Init+0xb8>)
 8000824:	f043 0302 	orr.w	r3, r3, #2
 8000828:	6313      	str	r3, [r2, #48]	; 0x30
 800082a:	4b1d      	ldr	r3, [pc, #116]	; (80008a0 <MX_GPIO_Init+0xb8>)
 800082c:	6b1b      	ldr	r3, [r3, #48]	; 0x30
 800082e:	f003 0302 	and.w	r3, r3, #2
 8000832:	607b      	str	r3, [r7, #4]
 8000834:	687b      	ldr	r3, [r7, #4]
  __HAL_RCC_GPIOD_CLK_ENABLE();
 8000836:	2300      	movs	r3, #0
 8000838:	603b      	str	r3, [r7, #0]
 800083a:	4b19      	ldr	r3, [pc, #100]	; (80008a0 <MX_GPIO_Init+0xb8>)
 800083c:	6b1b      	ldr	r3, [r3, #48]	; 0x30
 800083e:	4a18      	ldr	r2, [pc, #96]	; (80008a0 <MX_GPIO_Init+0xb8>)
 8000840:	f043 0308 	orr.w	r3, r3, #8
 8000844:	6313      	str	r3, [r2, #48]	; 0x30
 8000846:	4b16      	ldr	r3, [pc, #88]	; (80008a0 <MX_GPIO_Init+0xb8>)
 8000848:	6b1b      	ldr	r3, [r3, #48]	; 0x30
 800084a:	f003 0308 	and.w	r3, r3, #8
 800084e:	603b      	str	r3, [r7, #0]
 8000850:	683b      	ldr	r3, [r7, #0]

  /*Configure GPIO pin Output Level */
  HAL_GPIO_WritePin(GPIOD, GPIO_PIN_12|GPIO_PIN_13|GPIO_PIN_14|GPIO_PIN_15, GPIO_PIN_RESET);
 8000852:	2200      	movs	r2, #0
 8000854:	f44f 4170 	mov.w	r1, #61440	; 0xf000
 8000858:	4812      	ldr	r0, [pc, #72]	; (80008a4 <MX_GPIO_Init+0xbc>)
 800085a:	f000 fd05 	bl	8001268 <HAL_GPIO_WritePin>

  /*Configure GPIO pin : PA0 */
  GPIO_InitStruct.Pin = GPIO_PIN_0;
 800085e:	2301      	movs	r3, #1
 8000860:	60fb      	str	r3, [r7, #12]
  GPIO_InitStruct.Mode = GPIO_MODE_IT_RISING;
 8000862:	f44f 1388 	mov.w	r3, #1114112	; 0x110000
 8000866:	613b      	str	r3, [r7, #16]
  GPIO_InitStruct.Pull = GPIO_NOPULL;
 8000868:	2300      	movs	r3, #0
 800086a:	617b      	str	r3, [r7, #20]
  HAL_GPIO_Init(GPIOA, &GPIO_InitStruct);
 800086c:	f107 030c 	add.w	r3, r7, #12
 8000870:	4619      	mov	r1, r3
 8000872:	480d      	ldr	r0, [pc, #52]	; (80008a8 <MX_GPIO_Init+0xc0>)
 8000874:	f000 fb5c 	bl	8000f30 <HAL_GPIO_Init>

  /*Configure GPIO pins : PD12 PD13 PD14 PD15 */
  GPIO_InitStruct.Pin = GPIO_PIN_12|GPIO_PIN_13|GPIO_PIN_14|GPIO_PIN_15;
 8000878:	f44f 4370 	mov.w	r3, #61440	; 0xf000
 800087c:	60fb      	str	r3, [r7, #12]
  GPIO_InitStruct.Mode = GPIO_MODE_OUTPUT_PP;
 800087e:	2301      	movs	r3, #1
 8000880:	613b      	str	r3, [r7, #16]
  GPIO_InitStruct.Pull = GPIO_NOPULL;
 8000882:	2300      	movs	r3, #0
 8000884:	617b      	str	r3, [r7, #20]
  GPIO_InitStruct.Speed = GPIO_SPEED_FREQ_LOW;
 8000886:	2300      	movs	r3, #0
 8000888:	61bb      	str	r3, [r7, #24]
  HAL_GPIO_Init(GPIOD, &GPIO_InitStruct);
 800088a:	f107 030c 	add.w	r3, r7, #12
 800088e:	4619      	mov	r1, r3
 8000890:	4804      	ldr	r0, [pc, #16]	; (80008a4 <MX_GPIO_Init+0xbc>)
 8000892:	f000 fb4d 	bl	8000f30 <HAL_GPIO_Init>

}
 8000896:	bf00      	nop
 8000898:	3720      	adds	r7, #32
 800089a:	46bd      	mov	sp, r7
 800089c:	bd80      	pop	{r7, pc}
 800089e:	bf00      	nop
 80008a0:	40023800 	.word	0x40023800
 80008a4:	40020c00 	.word	0x40020c00
 80008a8:	40020000 	.word	0x40020000

080008ac <Error_Handler>:
/**
  * @brief  This function is executed in case of error occurrence.
  * @retval None
  */
void Error_Handler(void)
{
 80008ac:	b480      	push	{r7}
 80008ae:	af00      	add	r7, sp, #0
  \details Disables IRQ interrupts by setting the I-bit in the CPSR.
           Can only be executed in Privileged modes.
 */
__STATIC_FORCEINLINE void __disable_irq(void)
{
  __ASM volatile ("cpsid i" : : : "memory");
 80008b0:	b672      	cpsid	i
}
 80008b2:	bf00      	nop
  /* USER CODE BEGIN Error_Handler_Debug */
  /* User can add his own implementation to report the HAL error return state */
  __disable_irq();
  while (1)
 80008b4:	e7fe      	b.n	80008b4 <Error_Handler+0x8>
	...

080008b8 <HAL_MspInit>:
/* USER CODE END 0 */
/**
  * Initializes the Global MSP.
  */
void HAL_MspInit(void)
{
 80008b8:	b580      	push	{r7, lr}
 80008ba:	b082      	sub	sp, #8
 80008bc:	af00      	add	r7, sp, #0
  /* USER CODE BEGIN MspInit 0 */

  /* USER CODE END MspInit 0 */

  __HAL_RCC_SYSCFG_CLK_ENABLE();
 80008be:	2300      	movs	r3, #0
 80008c0:	607b      	str	r3, [r7, #4]
 80008c2:	4b10      	ldr	r3, [pc, #64]	; (8000904 <HAL_MspInit+0x4c>)
 80008c4:	6c5b      	ldr	r3, [r3, #68]	; 0x44
 80008c6:	4a0f      	ldr	r2, [pc, #60]	; (8000904 <HAL_MspInit+0x4c>)
 80008c8:	f443 4380 	orr.w	r3, r3, #16384	; 0x4000
 80008cc:	6453      	str	r3, [r2, #68]	; 0x44
 80008ce:	4b0d      	ldr	r3, [pc, #52]	; (8000904 <HAL_MspInit+0x4c>)
 80008d0:	6c5b      	ldr	r3, [r3, #68]	; 0x44
 80008d2:	f403 4380 	and.w	r3, r3, #16384	; 0x4000
 80008d6:	607b      	str	r3, [r7, #4]
 80008d8:	687b      	ldr	r3, [r7, #4]
  __HAL_RCC_PWR_CLK_ENABLE();
 80008da:	2300      	movs	r3, #0
 80008dc:	603b      	str	r3, [r7, #0]
 80008de:	4b09      	ldr	r3, [pc, #36]	; (8000904 <HAL_MspInit+0x4c>)
 80008e0:	6c1b      	ldr	r3, [r3, #64]	; 0x40
 80008e2:	4a08      	ldr	r2, [pc, #32]	; (8000904 <HAL_MspInit+0x4c>)
 80008e4:	f043 5380 	orr.w	r3, r3, #268435456	; 0x10000000
 80008e8:	6413      	str	r3, [r2, #64]	; 0x40
 80008ea:	4b06      	ldr	r3, [pc, #24]	; (8000904 <HAL_MspInit+0x4c>)
 80008ec:	6c1b      	ldr	r3, [r3, #64]	; 0x40
 80008ee:	f003 5380 	and.w	r3, r3, #268435456	; 0x10000000
 80008f2:	603b      	str	r3, [r7, #0]
 80008f4:	683b      	ldr	r3, [r7, #0]

  HAL_NVIC_SetPriorityGrouping(NVIC_PRIORITYGROUP_1);
 80008f6:	2006      	movs	r0, #6
 80008f8:	f000 faa8 	bl	8000e4c <HAL_NVIC_SetPriorityGrouping>
  /* System interrupt init*/

  /* USER CODE BEGIN MspInit 1 */

  /* USER CODE END MspInit 1 */
}
 80008fc:	bf00      	nop
 80008fe:	3708      	adds	r7, #8
 8000900:	46bd      	mov	sp, r7
 8000902:	bd80      	pop	{r7, pc}
 8000904:	40023800 	.word	0x40023800

08000908 <HAL_I2C_MspInit>:
* This function configures the hardware resources used in this example
* @param hi2c: I2C handle pointer
* @retval None
*/
void HAL_I2C_MspInit(I2C_HandleTypeDef* hi2c)
{
 8000908:	b580      	push	{r7, lr}
 800090a:	b08c      	sub	sp, #48	; 0x30
 800090c:	af00      	add	r7, sp, #0
 800090e:	6078      	str	r0, [r7, #4]
  GPIO_InitTypeDef GPIO_InitStruct = {0};
 8000910:	f107 031c 	add.w	r3, r7, #28
 8000914:	2200      	movs	r2, #0
 8000916:	601a      	str	r2, [r3, #0]
 8000918:	605a      	str	r2, [r3, #4]
 800091a:	609a      	str	r2, [r3, #8]
 800091c:	60da      	str	r2, [r3, #12]
 800091e:	611a      	str	r2, [r3, #16]
  if(hi2c->Instance==I2C1)
 8000920:	687b      	ldr	r3, [r7, #4]
 8000922:	681b      	ldr	r3, [r3, #0]
 8000924:	4a32      	ldr	r2, [pc, #200]	; (80009f0 <HAL_I2C_MspInit+0xe8>)
 8000926:	4293      	cmp	r3, r2
 8000928:	d12c      	bne.n	8000984 <HAL_I2C_MspInit+0x7c>
  {
  /* USER CODE BEGIN I2C1_MspInit 0 */

  /* USER CODE END I2C1_MspInit 0 */

    __HAL_RCC_GPIOB_CLK_ENABLE();
 800092a:	2300      	movs	r3, #0
 800092c:	61bb      	str	r3, [r7, #24]
 800092e:	4b31      	ldr	r3, [pc, #196]	; (80009f4 <HAL_I2C_MspInit+0xec>)
 8000930:	6b1b      	ldr	r3, [r3, #48]	; 0x30
 8000932:	4a30      	ldr	r2, [pc, #192]	; (80009f4 <HAL_I2C_MspInit+0xec>)
 8000934:	f043 0302 	orr.w	r3, r3, #2
 8000938:	6313      	str	r3, [r2, #48]	; 0x30
 800093a:	4b2e      	ldr	r3, [pc, #184]	; (80009f4 <HAL_I2C_MspInit+0xec>)
 800093c:	6b1b      	ldr	r3, [r3, #48]	; 0x30
 800093e:	f003 0302 	and.w	r3, r3, #2
 8000942:	61bb      	str	r3, [r7, #24]
 8000944:	69bb      	ldr	r3, [r7, #24]
    /**I2C1 GPIO Configuration
    PB6     ------> I2C1_SCL
    PB7     ------> I2C1_SDA
    */
    GPIO_InitStruct.Pin = GPIO_PIN_6|GPIO_PIN_7;
 8000946:	23c0      	movs	r3, #192	; 0xc0
 8000948:	61fb      	str	r3, [r7, #28]
    GPIO_InitStruct.Mode = GPIO_MODE_AF_OD;
 800094a:	2312      	movs	r3, #18
 800094c:	623b      	str	r3, [r7, #32]
    GPIO_InitStruct.Pull = GPIO_PULLUP;
 800094e:	2301      	movs	r3, #1
 8000950:	627b      	str	r3, [r7, #36]	; 0x24
    GPIO_InitStruct.Speed = GPIO_SPEED_FREQ_VERY_HIGH;
 8000952:	2303      	movs	r3, #3
 8000954:	62bb      	str	r3, [r7, #40]	; 0x28
    GPIO_InitStruct.Alternate = GPIO_AF4_I2C1;
 8000956:	2304      	movs	r3, #4
 8000958:	62fb      	str	r3, [r7, #44]	; 0x2c
    HAL_GPIO_Init(GPIOB, &GPIO_InitStruct);
 800095a:	f107 031c 	add.w	r3, r7, #28
 800095e:	4619      	mov	r1, r3
 8000960:	4825      	ldr	r0, [pc, #148]	; (80009f8 <HAL_I2C_MspInit+0xf0>)
 8000962:	f000 fae5 	bl	8000f30 <HAL_GPIO_Init>

    /* Peripheral clock enable */
    __HAL_RCC_I2C1_CLK_ENABLE();
 8000966:	2300      	movs	r3, #0
 8000968:	617b      	str	r3, [r7, #20]
 800096a:	4b22      	ldr	r3, [pc, #136]	; (80009f4 <HAL_I2C_MspInit+0xec>)
 800096c:	6c1b      	ldr	r3, [r3, #64]	; 0x40
 800096e:	4a21      	ldr	r2, [pc, #132]	; (80009f4 <HAL_I2C_MspInit+0xec>)
 8000970:	f443 1300 	orr.w	r3, r3, #2097152	; 0x200000
 8000974:	6413      	str	r3, [r2, #64]	; 0x40
 8000976:	4b1f      	ldr	r3, [pc, #124]	; (80009f4 <HAL_I2C_MspInit+0xec>)
 8000978:	6c1b      	ldr	r3, [r3, #64]	; 0x40
 800097a:	f403 1300 	and.w	r3, r3, #2097152	; 0x200000
 800097e:	617b      	str	r3, [r7, #20]
 8000980:	697b      	ldr	r3, [r7, #20]
  /* USER CODE BEGIN I2C2_MspInit 1 */

  /* USER CODE END I2C2_MspInit 1 */
  }

}
 8000982:	e031      	b.n	80009e8 <HAL_I2C_MspInit+0xe0>
  else if(hi2c->Instance==I2C2)
 8000984:	687b      	ldr	r3, [r7, #4]
 8000986:	681b      	ldr	r3, [r3, #0]
 8000988:	4a1c      	ldr	r2, [pc, #112]	; (80009fc <HAL_I2C_MspInit+0xf4>)
 800098a:	4293      	cmp	r3, r2
 800098c:	d12c      	bne.n	80009e8 <HAL_I2C_MspInit+0xe0>
    __HAL_RCC_GPIOB_CLK_ENABLE();
 800098e:	2300      	movs	r3, #0
 8000990:	613b      	str	r3, [r7, #16]
 8000992:	4b18      	ldr	r3, [pc, #96]	; (80009f4 <HAL_I2C_MspInit+0xec>)
 8000994:	6b1b      	ldr	r3, [r3, #48]	; 0x30
 8000996:	4a17      	ldr	r2, [pc, #92]	; (80009f4 <HAL_I2C_MspInit+0xec>)
 8000998:	f043 0302 	orr.w	r3, r3, #2
 800099c:	6313      	str	r3, [r2, #48]	; 0x30
 800099e:	4b15      	ldr	r3, [pc, #84]	; (80009f4 <HAL_I2C_MspInit+0xec>)
 80009a0:	6b1b      	ldr	r3, [r3, #48]	; 0x30
 80009a2:	f003 0302 	and.w	r3, r3, #2
 80009a6:	613b      	str	r3, [r7, #16]
 80009a8:	693b      	ldr	r3, [r7, #16]
    GPIO_InitStruct.Pin = GPIO_PIN_10|GPIO_PIN_11;
 80009aa:	f44f 6340 	mov.w	r3, #3072	; 0xc00
 80009ae:	61fb      	str	r3, [r7, #28]
    GPIO_InitStruct.Mode = GPIO_MODE_AF_OD;
 80009b0:	2312      	movs	r3, #18
 80009b2:	623b      	str	r3, [r7, #32]
    GPIO_InitStruct.Pull = GPIO_PULLUP;
 80009b4:	2301      	movs	r3, #1
 80009b6:	627b      	str	r3, [r7, #36]	; 0x24
    GPIO_InitStruct.Speed = GPIO_SPEED_FREQ_VERY_HIGH;
 80009b8:	2303      	movs	r3, #3
 80009ba:	62bb      	str	r3, [r7, #40]	; 0x28
    GPIO_InitStruct.Alternate = GPIO_AF4_I2C2;
 80009bc:	2304      	movs	r3, #4
 80009be:	62fb      	str	r3, [r7, #44]	; 0x2c
    HAL_GPIO_Init(GPIOB, &GPIO_InitStruct);
 80009c0:	f107 031c 	add.w	r3, r7, #28
 80009c4:	4619      	mov	r1, r3
 80009c6:	480c      	ldr	r0, [pc, #48]	; (80009f8 <HAL_I2C_MspInit+0xf0>)
 80009c8:	f000 fab2 	bl	8000f30 <HAL_GPIO_Init>
    __HAL_RCC_I2C2_CLK_ENABLE();
 80009cc:	2300      	movs	r3, #0
 80009ce:	60fb      	str	r3, [r7, #12]
 80009d0:	4b08      	ldr	r3, [pc, #32]	; (80009f4 <HAL_I2C_MspInit+0xec>)
 80009d2:	6c1b      	ldr	r3, [r3, #64]	; 0x40
 80009d4:	4a07      	ldr	r2, [pc, #28]	; (80009f4 <HAL_I2C_MspInit+0xec>)
 80009d6:	f443 0380 	orr.w	r3, r3, #4194304	; 0x400000
 80009da:	6413      	str	r3, [r2, #64]	; 0x40
 80009dc:	4b05      	ldr	r3, [pc, #20]	; (80009f4 <HAL_I2C_MspInit+0xec>)
 80009de:	6c1b      	ldr	r3, [r3, #64]	; 0x40
 80009e0:	f403 0380 	and.w	r3, r3, #4194304	; 0x400000
 80009e4:	60fb      	str	r3, [r7, #12]
 80009e6:	68fb      	ldr	r3, [r7, #12]
}
 80009e8:	bf00      	nop
 80009ea:	3730      	adds	r7, #48	; 0x30
 80009ec:	46bd      	mov	sp, r7
 80009ee:	bd80      	pop	{r7, pc}
 80009f0:	40005400 	.word	0x40005400
 80009f4:	40023800 	.word	0x40023800
 80009f8:	40020400 	.word	0x40020400
 80009fc:	40005800 	.word	0x40005800

08000a00 <HAL_TIM_Base_MspInit>:
* This function configures the hardware resources used in this example
* @param htim_base: TIM_Base handle pointer
* @retval None
*/
void HAL_TIM_Base_MspInit(TIM_HandleTypeDef* htim_base)
{
 8000a00:	b480      	push	{r7}
 8000a02:	b085      	sub	sp, #20
 8000a04:	af00      	add	r7, sp, #0
 8000a06:	6078      	str	r0, [r7, #4]
  if(htim_base->Instance==TIM2)
 8000a08:	687b      	ldr	r3, [r7, #4]
 8000a0a:	681b      	ldr	r3, [r3, #0]
 8000a0c:	f1b3 4f80 	cmp.w	r3, #1073741824	; 0x40000000
 8000a10:	d10d      	bne.n	8000a2e <HAL_TIM_Base_MspInit+0x2e>
  {
  /* USER CODE BEGIN TIM2_MspInit 0 */

  /* USER CODE END TIM2_MspInit 0 */
    /* Peripheral clock enable */
    __HAL_RCC_TIM2_CLK_ENABLE();
 8000a12:	2300      	movs	r3, #0
 8000a14:	60fb      	str	r3, [r7, #12]
 8000a16:	4b09      	ldr	r3, [pc, #36]	; (8000a3c <HAL_TIM_Base_MspInit+0x3c>)
 8000a18:	6c1b      	ldr	r3, [r3, #64]	; 0x40
 8000a1a:	4a08      	ldr	r2, [pc, #32]	; (8000a3c <HAL_TIM_Base_MspInit+0x3c>)
 8000a1c:	f043 0301 	orr.w	r3, r3, #1
 8000a20:	6413      	str	r3, [r2, #64]	; 0x40
 8000a22:	4b06      	ldr	r3, [pc, #24]	; (8000a3c <HAL_TIM_Base_MspInit+0x3c>)
 8000a24:	6c1b      	ldr	r3, [r3, #64]	; 0x40
 8000a26:	f003 0301 	and.w	r3, r3, #1
 8000a2a:	60fb      	str	r3, [r7, #12]
 8000a2c:	68fb      	ldr	r3, [r7, #12]
  /* USER CODE BEGIN TIM2_MspInit 1 */

  /* USER CODE END TIM2_MspInit 1 */
  }

}
 8000a2e:	bf00      	nop
 8000a30:	3714      	adds	r7, #20
 8000a32:	46bd      	mov	sp, r7
 8000a34:	f85d 7b04 	ldr.w	r7, [sp], #4
 8000a38:	4770      	bx	lr
 8000a3a:	bf00      	nop
 8000a3c:	40023800 	.word	0x40023800

08000a40 <NMI_Handler>:
/******************************************************************************/
/**
  * @brief This function handles Non maskable interrupt.
  */
void NMI_Handler(void)
{
 8000a40:	b480      	push	{r7}
 8000a42:	af00      	add	r7, sp, #0
  /* USER CODE BEGIN NonMaskableInt_IRQn 0 */

  /* USER CODE END NonMaskableInt_IRQn 0 */
  /* USER CODE BEGIN NonMaskableInt_IRQn 1 */
  while (1)
 8000a44:	e7fe      	b.n	8000a44 <NMI_Handler+0x4>

08000a46 <HardFault_Handler>:

/**
  * @brief This function handles Hard fault interrupt.
  */
void HardFault_Handler(void)
{
 8000a46:	b480      	push	{r7}
 8000a48:	af00      	add	r7, sp, #0
  /* USER CODE BEGIN HardFault_IRQn 0 */

  /* USER CODE END HardFault_IRQn 0 */
  while (1)
 8000a4a:	e7fe      	b.n	8000a4a <HardFault_Handler+0x4>

08000a4c <MemManage_Handler>:

/**
  * @brief This function handles Memory management fault.
  */
void MemManage_Handler(void)
{
 8000a4c:	b480      	push	{r7}
 8000a4e:	af00      	add	r7, sp, #0
  /* USER CODE BEGIN MemoryManagement_IRQn 0 */

  /* USER CODE END MemoryManagement_IRQn 0 */
  while (1)
 8000a50:	e7fe      	b.n	8000a50 <MemManage_Handler+0x4>

08000a52 <BusFault_Handler>:

/**
  * @brief This function handles Pre-fetch fault, memory access fault.
  */
void BusFault_Handler(void)
{
 8000a52:	b480      	push	{r7}
 8000a54:	af00      	add	r7, sp, #0
  /* USER CODE BEGIN BusFault_IRQn 0 */

  /* USER CODE END BusFault_IRQn 0 */
  while (1)
 8000a56:	e7fe      	b.n	8000a56 <BusFault_Handler+0x4>

08000a58 <UsageFault_Handler>:

/**
  * @brief This function handles Undefined instruction or illegal state.
  */
void UsageFault_Handler(void)
{
 8000a58:	b480      	push	{r7}
 8000a5a:	af00      	add	r7, sp, #0
  /* USER CODE BEGIN UsageFault_IRQn 0 */

  /* USER CODE END UsageFault_IRQn 0 */
  while (1)
 8000a5c:	e7fe      	b.n	8000a5c <UsageFault_Handler+0x4>

08000a5e <SVC_Handler>:

/**
  * @brief This function handles System service call via SWI instruction.
  */
void SVC_Handler(void)
{
 8000a5e:	b480      	push	{r7}
 8000a60:	af00      	add	r7, sp, #0

  /* USER CODE END SVCall_IRQn 0 */
  /* USER CODE BEGIN SVCall_IRQn 1 */

  /* USER CODE END SVCall_IRQn 1 */
}
 8000a62:	bf00      	nop
 8000a64:	46bd      	mov	sp, r7
 8000a66:	f85d 7b04 	ldr.w	r7, [sp], #4
 8000a6a:	4770      	bx	lr

08000a6c <DebugMon_Handler>:

/**
  * @brief This function handles Debug monitor.
  */
void DebugMon_Handler(void)
{
 8000a6c:	b480      	push	{r7}
 8000a6e:	af00      	add	r7, sp, #0

  /* USER CODE END DebugMonitor_IRQn 0 */
  /* USER CODE BEGIN DebugMonitor_IRQn 1 */

  /* USER CODE END DebugMonitor_IRQn 1 */
}
 8000a70:	bf00      	nop
 8000a72:	46bd      	mov	sp, r7
 8000a74:	f85d 7b04 	ldr.w	r7, [sp], #4
 8000a78:	4770      	bx	lr

08000a7a <PendSV_Handler>:

/**
  * @brief This function handles Pendable request for system service.
  */
void PendSV_Handler(void)
{
 8000a7a:	b480      	push	{r7}
 8000a7c:	af00      	add	r7, sp, #0

  /* USER CODE END PendSV_IRQn 0 */
  /* USER CODE BEGIN PendSV_IRQn 1 */

  /* USER CODE END PendSV_IRQn 1 */
}
 8000a7e:	bf00      	nop
 8000a80:	46bd      	mov	sp, r7
 8000a82:	f85d 7b04 	ldr.w	r7, [sp], #4
 8000a86:	4770      	bx	lr

08000a88 <SysTick_Handler>:

/**
  * @brief This function handles System tick timer.
  */
void SysTick_Handler(void)
{
 8000a88:	b580      	push	{r7, lr}
 8000a8a:	af00      	add	r7, sp, #0
  /* USER CODE BEGIN SysTick_IRQn 0 */

  /* USER CODE END SysTick_IRQn 0 */
  HAL_IncTick();
 8000a8c:	f000 f8ca 	bl	8000c24 <HAL_IncTick>
  /* USER CODE BEGIN SysTick_IRQn 1 */

  /* USER CODE END SysTick_IRQn 1 */
}
 8000a90:	bf00      	nop
 8000a92:	bd80      	pop	{r7, pc}

08000a94 <EXTI0_IRQHandler>:

/**
  * @brief This function handles EXTI line0 interrupt.
  */
void EXTI0_IRQHandler(void)
{
 8000a94:	b580      	push	{r7, lr}
 8000a96:	af00      	add	r7, sp, #0
  /* USER CODE BEGIN EXTI0_IRQn 0 */

  /* USER CODE END EXTI0_IRQn 0 */
  HAL_GPIO_EXTI_IRQHandler(GPIO_PIN_0);
 8000a98:	2001      	movs	r0, #1
 8000a9a:	f000 fbff 	bl	800129c <HAL_GPIO_EXTI_IRQHandler>
  /* USER CODE BEGIN EXTI0_IRQn 1 */

  /* USER CODE END EXTI0_IRQn 1 */
}
 8000a9e:	bf00      	nop
 8000aa0:	bd80      	pop	{r7, pc}
	...

08000aa4 <TIM2_IRQHandler>:

/**
  * @brief This function handles TIM2 global interrupt.
  */
void TIM2_IRQHandler(void)
{
 8000aa4:	b580      	push	{r7, lr}
 8000aa6:	af00      	add	r7, sp, #0
  /* USER CODE BEGIN TIM2_IRQn 0 */

  /* USER CODE END TIM2_IRQn 0 */
  HAL_TIM_IRQHandler(&htim2);
 8000aa8:	4802      	ldr	r0, [pc, #8]	; (8000ab4 <TIM2_IRQHandler+0x10>)
 8000aaa:	f003 fb14 	bl	80040d6 <HAL_TIM_IRQHandler>
  /* USER CODE BEGIN TIM2_IRQn 1 */

  /* USER CODE END TIM2_IRQn 1 */
}
 8000aae:	bf00      	nop
 8000ab0:	bd80      	pop	{r7, pc}
 8000ab2:	bf00      	nop
 8000ab4:	200000d8 	.word	0x200000d8

08000ab8 <I2C1_EV_IRQHandler>:

/**
  * @brief This function handles I2C1 event interrupt.
  */
void I2C1_EV_IRQHandler(void)
{
 8000ab8:	b580      	push	{r7, lr}
 8000aba:	af00      	add	r7, sp, #0
  /* USER CODE BEGIN I2C1_EV_IRQn 0 */

  /* USER CODE END I2C1_EV_IRQn 0 */
  HAL_I2C_EV_IRQHandler(&hi2c1);
 8000abc:	4802      	ldr	r0, [pc, #8]	; (8000ac8 <I2C1_EV_IRQHandler+0x10>)
 8000abe:	f000 ff81 	bl	80019c4 <HAL_I2C_EV_IRQHandler>
  /* USER CODE BEGIN I2C1_EV_IRQn 1 */

  /* USER CODE END I2C1_EV_IRQn 1 */
}
 8000ac2:	bf00      	nop
 8000ac4:	bd80      	pop	{r7, pc}
 8000ac6:	bf00      	nop
 8000ac8:	20000030 	.word	0x20000030

08000acc <I2C1_ER_IRQHandler>:

/**
  * @brief This function handles I2C1 error interrupt.
  */
void I2C1_ER_IRQHandler(void)
{
 8000acc:	b580      	push	{r7, lr}
 8000ace:	af00      	add	r7, sp, #0
  /* USER CODE BEGIN I2C1_ER_IRQn 0 */

  /* USER CODE END I2C1_ER_IRQn 0 */
  HAL_I2C_ER_IRQHandler(&hi2c1);
 8000ad0:	4802      	ldr	r0, [pc, #8]	; (8000adc <I2C1_ER_IRQHandler+0x10>)
 8000ad2:	f001 f8e8 	bl	8001ca6 <HAL_I2C_ER_IRQHandler>
  /* USER CODE BEGIN I2C1_ER_IRQn 1 */

  /* USER CODE END I2C1_ER_IRQn 1 */
}
 8000ad6:	bf00      	nop
 8000ad8:	bd80      	pop	{r7, pc}
 8000ada:	bf00      	nop
 8000adc:	20000030 	.word	0x20000030

08000ae0 <I2C2_EV_IRQHandler>:

/**
  * @brief This function handles I2C2 event interrupt.
  */
void I2C2_EV_IRQHandler(void)
{
 8000ae0:	b580      	push	{r7, lr}
 8000ae2:	af00      	add	r7, sp, #0
  /* USER CODE BEGIN I2C2_EV_IRQn 0 */

  /* USER CODE END I2C2_EV_IRQn 0 */
  HAL_I2C_EV_IRQHandler(&hi2c2);
 8000ae4:	4802      	ldr	r0, [pc, #8]	; (8000af0 <I2C2_EV_IRQHandler+0x10>)
 8000ae6:	f000 ff6d 	bl	80019c4 <HAL_I2C_EV_IRQHandler>
  /* USER CODE BEGIN I2C2_EV_IRQn 1 */

  /* USER CODE END I2C2_EV_IRQn 1 */
}
 8000aea:	bf00      	nop
 8000aec:	bd80      	pop	{r7, pc}
 8000aee:	bf00      	nop
 8000af0:	20000084 	.word	0x20000084

08000af4 <I2C2_ER_IRQHandler>:

/**
  * @brief This function handles I2C2 error interrupt.
  */
void I2C2_ER_IRQHandler(void)
{
 8000af4:	b580      	push	{r7, lr}
 8000af6:	af00      	add	r7, sp, #0
  /* USER CODE BEGIN I2C2_ER_IRQn 0 */

  /* USER CODE END I2C2_ER_IRQn 0 */
  HAL_I2C_ER_IRQHandler(&hi2c2);
 8000af8:	4802      	ldr	r0, [pc, #8]	; (8000b04 <I2C2_ER_IRQHandler+0x10>)
 8000afa:	f001 f8d4 	bl	8001ca6 <HAL_I2C_ER_IRQHandler>
  /* USER CODE BEGIN I2C2_ER_IRQn 1 */

  /* USER CODE END I2C2_ER_IRQn 1 */
}
 8000afe:	bf00      	nop
 8000b00:	bd80      	pop	{r7, pc}
 8000b02:	bf00      	nop
 8000b04:	20000084 	.word	0x20000084

08000b08 <SystemInit>:
  *         configuration.
  * @param  None
  * @retval None
  */
void SystemInit(void)
{
 8000b08:	b480      	push	{r7}
 8000b0a:	af00      	add	r7, sp, #0
  /* FPU settings ------------------------------------------------------------*/
  #if (__FPU_PRESENT == 1) && (__FPU_USED == 1)
    SCB->CPACR |= ((3UL << 10*2)|(3UL << 11*2));  /* set CP10 and CP11 Full Access */
 8000b0c:	4b06      	ldr	r3, [pc, #24]	; (8000b28 <SystemInit+0x20>)
 8000b0e:	f8d3 3088 	ldr.w	r3, [r3, #136]	; 0x88
 8000b12:	4a05      	ldr	r2, [pc, #20]	; (8000b28 <SystemInit+0x20>)
 8000b14:	f443 0370 	orr.w	r3, r3, #15728640	; 0xf00000
 8000b18:	f8c2 3088 	str.w	r3, [r2, #136]	; 0x88

  /* Configure the Vector Table location -------------------------------------*/
#if defined(USER_VECT_TAB_ADDRESS)
  SCB->VTOR = VECT_TAB_BASE_ADDRESS | VECT_TAB_OFFSET; /* Vector Table Relocation in Internal SRAM */
#endif /* USER_VECT_TAB_ADDRESS */
}
 8000b1c:	bf00      	nop
 8000b1e:	46bd      	mov	sp, r7
 8000b20:	f85d 7b04 	ldr.w	r7, [sp], #4
 8000b24:	4770      	bx	lr
 8000b26:	bf00      	nop
 8000b28:	e000ed00 	.word	0xe000ed00

08000b2c <Reset_Handler>:

    .section  .text.Reset_Handler
  .weak  Reset_Handler
  .type  Reset_Handler, %function
Reset_Handler:  
  ldr   sp, =_estack     /* set stack pointer */
 8000b2c:	f8df d034 	ldr.w	sp, [pc, #52]	; 8000b64 <LoopFillZerobss+0x12>

/* Copy the data segment initializers from flash to SRAM */  
  ldr r0, =_sdata
 8000b30:	480d      	ldr	r0, [pc, #52]	; (8000b68 <LoopFillZerobss+0x16>)
  ldr r1, =_edata
 8000b32:	490e      	ldr	r1, [pc, #56]	; (8000b6c <LoopFillZerobss+0x1a>)
  ldr r2, =_sidata
 8000b34:	4a0e      	ldr	r2, [pc, #56]	; (8000b70 <LoopFillZerobss+0x1e>)
  movs r3, #0
 8000b36:	2300      	movs	r3, #0
  b LoopCopyDataInit
 8000b38:	e002      	b.n	8000b40 <LoopCopyDataInit>

08000b3a <CopyDataInit>:

CopyDataInit:
  ldr r4, [r2, r3]
 8000b3a:	58d4      	ldr	r4, [r2, r3]
  str r4, [r0, r3]
 8000b3c:	50c4      	str	r4, [r0, r3]
  adds r3, r3, #4
 8000b3e:	3304      	adds	r3, #4

08000b40 <LoopCopyDataInit>:

LoopCopyDataInit:
  adds r4, r0, r3
 8000b40:	18c4      	adds	r4, r0, r3
  cmp r4, r1
 8000b42:	428c      	cmp	r4, r1
  bcc CopyDataInit
 8000b44:	d3f9      	bcc.n	8000b3a <CopyDataInit>
  
/* Zero fill the bss segment. */
  ldr r2, =_sbss
 8000b46:	4a0b      	ldr	r2, [pc, #44]	; (8000b74 <LoopFillZerobss+0x22>)
  ldr r4, =_ebss
 8000b48:	4c0b      	ldr	r4, [pc, #44]	; (8000b78 <LoopFillZerobss+0x26>)
  movs r3, #0
 8000b4a:	2300      	movs	r3, #0
  b LoopFillZerobss
 8000b4c:	e001      	b.n	8000b52 <LoopFillZerobss>

08000b4e <FillZerobss>:

FillZerobss:
  str  r3, [r2]
 8000b4e:	6013      	str	r3, [r2, #0]
  adds r2, r2, #4
 8000b50:	3204      	adds	r2, #4

08000b52 <LoopFillZerobss>:

LoopFillZerobss:
  cmp r2, r4
 8000b52:	42a2      	cmp	r2, r4
  bcc FillZerobss
 8000b54:	d3fb      	bcc.n	8000b4e <FillZerobss>

/* Call the clock system intitialization function.*/
  bl  SystemInit   
 8000b56:	f7ff ffd7 	bl	8000b08 <SystemInit>
/* Call static constructors */
    bl __libc_init_array
 8000b5a:	f003 fe87 	bl	800486c <__libc_init_array>
/* Call the application's entry point.*/
  bl  main
 8000b5e:	f7ff fcaf 	bl	80004c0 <main>
  bx  lr    
 8000b62:	4770      	bx	lr
  ldr   sp, =_estack     /* set stack pointer */
 8000b64:	20020000 	.word	0x20020000
  ldr r0, =_sdata
 8000b68:	20000000 	.word	0x20000000
  ldr r1, =_edata
 8000b6c:	20000010 	.word	0x20000010
  ldr r2, =_sidata
 8000b70:	08004904 	.word	0x08004904
  ldr r2, =_sbss
 8000b74:	20000010 	.word	0x20000010
  ldr r4, =_ebss
 8000b78:	20000124 	.word	0x20000124

08000b7c <ADC_IRQHandler>:
 * @retval None       
*/
    .section  .text.Default_Handler,"ax",%progbits
Default_Handler:
Infinite_Loop:
  b  Infinite_Loop
 8000b7c:	e7fe      	b.n	8000b7c <ADC_IRQHandler>
	...

08000b80 <HAL_Init>:
  *         need to ensure that the SysTick time base is always set to 1 millisecond
  *         to have correct HAL operation.
  * @retval HAL status
  */
HAL_StatusTypeDef HAL_Init(void)
{
 8000b80:	b580      	push	{r7, lr}
 8000b82:	af00      	add	r7, sp, #0
  /* Configure Flash prefetch, Instruction cache, Data cache */ 
#if (INSTRUCTION_CACHE_ENABLE != 0U)
  __HAL_FLASH_INSTRUCTION_CACHE_ENABLE();
 8000b84:	4b0e      	ldr	r3, [pc, #56]	; (8000bc0 <HAL_Init+0x40>)
 8000b86:	681b      	ldr	r3, [r3, #0]
 8000b88:	4a0d      	ldr	r2, [pc, #52]	; (8000bc0 <HAL_Init+0x40>)
 8000b8a:	f443 7300 	orr.w	r3, r3, #512	; 0x200
 8000b8e:	6013      	str	r3, [r2, #0]
#endif /* INSTRUCTION_CACHE_ENABLE */

#if (DATA_CACHE_ENABLE != 0U)
  __HAL_FLASH_DATA_CACHE_ENABLE();
 8000b90:	4b0b      	ldr	r3, [pc, #44]	; (8000bc0 <HAL_Init+0x40>)
 8000b92:	681b      	ldr	r3, [r3, #0]
 8000b94:	4a0a      	ldr	r2, [pc, #40]	; (8000bc0 <HAL_Init+0x40>)
 8000b96:	f443 6380 	orr.w	r3, r3, #1024	; 0x400
 8000b9a:	6013      	str	r3, [r2, #0]
#endif /* DATA_CACHE_ENABLE */

#if (PREFETCH_ENABLE != 0U)
  __HAL_FLASH_PREFETCH_BUFFER_ENABLE();
 8000b9c:	4b08      	ldr	r3, [pc, #32]	; (8000bc0 <HAL_Init+0x40>)
 8000b9e:	681b      	ldr	r3, [r3, #0]
 8000ba0:	4a07      	ldr	r2, [pc, #28]	; (8000bc0 <HAL_Init+0x40>)
 8000ba2:	f443 7380 	orr.w	r3, r3, #256	; 0x100
 8000ba6:	6013      	str	r3, [r2, #0]
#endif /* PREFETCH_ENABLE */

  /* Set Interrupt Group Priority */
  HAL_NVIC_SetPriorityGrouping(NVIC_PRIORITYGROUP_4);
 8000ba8:	2003      	movs	r0, #3
 8000baa:	f000 f94f 	bl	8000e4c <HAL_NVIC_SetPriorityGrouping>

  /* Use systick as time base source and configure 1ms tick (default clock after Reset is HSI) */
  HAL_InitTick(TICK_INT_PRIORITY);
 8000bae:	2000      	movs	r0, #0
 8000bb0:	f000 f808 	bl	8000bc4 <HAL_InitTick>

  /* Init the low level hardware */
  HAL_MspInit();
 8000bb4:	f7ff fe80 	bl	80008b8 <HAL_MspInit>

  /* Return function status */
  return HAL_OK;
 8000bb8:	2300      	movs	r3, #0
}
 8000bba:	4618      	mov	r0, r3
 8000bbc:	bd80      	pop	{r7, pc}
 8000bbe:	bf00      	nop
 8000bc0:	40023c00 	.word	0x40023c00

08000bc4 <HAL_InitTick>:
  *       implementation  in user file.
  * @param TickPriority Tick interrupt priority.
  * @retval HAL status
  */
__weak HAL_StatusTypeDef HAL_InitTick(uint32_t TickPriority)
{
 8000bc4:	b580      	push	{r7, lr}
 8000bc6:	b082      	sub	sp, #8
 8000bc8:	af00      	add	r7, sp, #0
 8000bca:	6078      	str	r0, [r7, #4]
  /* Configure the SysTick to have interrupt in 1ms time basis*/
  if (HAL_SYSTICK_Config(SystemCoreClock / (1000U / uwTickFreq)) > 0U)
 8000bcc:	4b12      	ldr	r3, [pc, #72]	; (8000c18 <HAL_InitTick+0x54>)
 8000bce:	681a      	ldr	r2, [r3, #0]
 8000bd0:	4b12      	ldr	r3, [pc, #72]	; (8000c1c <HAL_InitTick+0x58>)
 8000bd2:	781b      	ldrb	r3, [r3, #0]
 8000bd4:	4619      	mov	r1, r3
 8000bd6:	f44f 737a 	mov.w	r3, #1000	; 0x3e8
 8000bda:	fbb3 f3f1 	udiv	r3, r3, r1
 8000bde:	fbb2 f3f3 	udiv	r3, r2, r3
 8000be2:	4618      	mov	r0, r3
 8000be4:	f000 f967 	bl	8000eb6 <HAL_SYSTICK_Config>
 8000be8:	4603      	mov	r3, r0
 8000bea:	2b00      	cmp	r3, #0
 8000bec:	d001      	beq.n	8000bf2 <HAL_InitTick+0x2e>
  {
    return HAL_ERROR;
 8000bee:	2301      	movs	r3, #1
 8000bf0:	e00e      	b.n	8000c10 <HAL_InitTick+0x4c>
  }

  /* Configure the SysTick IRQ priority */
  if (TickPriority < (1UL << __NVIC_PRIO_BITS))
 8000bf2:	687b      	ldr	r3, [r7, #4]
 8000bf4:	2b0f      	cmp	r3, #15
 8000bf6:	d80a      	bhi.n	8000c0e <HAL_InitTick+0x4a>
  {
    HAL_NVIC_SetPriority(SysTick_IRQn, TickPriority, 0U);
 8000bf8:	2200      	movs	r2, #0
 8000bfa:	6879      	ldr	r1, [r7, #4]
 8000bfc:	f04f 30ff 	mov.w	r0, #4294967295
 8000c00:	f000 f92f 	bl	8000e62 <HAL_NVIC_SetPriority>
    uwTickPrio = TickPriority;
 8000c04:	4a06      	ldr	r2, [pc, #24]	; (8000c20 <HAL_InitTick+0x5c>)
 8000c06:	687b      	ldr	r3, [r7, #4]
 8000c08:	6013      	str	r3, [r2, #0]
  {
    return HAL_ERROR;
  }

  /* Return function status */
  return HAL_OK;
 8000c0a:	2300      	movs	r3, #0
 8000c0c:	e000      	b.n	8000c10 <HAL_InitTick+0x4c>
    return HAL_ERROR;
 8000c0e:	2301      	movs	r3, #1
}
 8000c10:	4618      	mov	r0, r3
 8000c12:	3708      	adds	r7, #8
 8000c14:	46bd      	mov	sp, r7
 8000c16:	bd80      	pop	{r7, pc}
 8000c18:	20000004 	.word	0x20000004
 8000c1c:	2000000c 	.word	0x2000000c
 8000c20:	20000008 	.word	0x20000008

08000c24 <HAL_IncTick>:
 * @note This function is declared as __weak to be overwritten in case of other 
  *      implementations in user file.
  * @retval None
  */
__weak void HAL_IncTick(void)
{
 8000c24:	b480      	push	{r7}
 8000c26:	af00      	add	r7, sp, #0
  uwTick += uwTickFreq;
 8000c28:	4b06      	ldr	r3, [pc, #24]	; (8000c44 <HAL_IncTick+0x20>)
 8000c2a:	781b      	ldrb	r3, [r3, #0]
 8000c2c:	461a      	mov	r2, r3
 8000c2e:	4b06      	ldr	r3, [pc, #24]	; (8000c48 <HAL_IncTick+0x24>)
 8000c30:	681b      	ldr	r3, [r3, #0]
 8000c32:	4413      	add	r3, r2
 8000c34:	4a04      	ldr	r2, [pc, #16]	; (8000c48 <HAL_IncTick+0x24>)
 8000c36:	6013      	str	r3, [r2, #0]
}
 8000c38:	bf00      	nop
 8000c3a:	46bd      	mov	sp, r7
 8000c3c:	f85d 7b04 	ldr.w	r7, [sp], #4
 8000c40:	4770      	bx	lr
 8000c42:	bf00      	nop
 8000c44:	2000000c 	.word	0x2000000c
 8000c48:	20000120 	.word	0x20000120

08000c4c <HAL_GetTick>:
  * @note This function is declared as __weak to be overwritten in case of other 
  *       implementations in user file.
  * @retval tick value
  */
__weak uint32_t HAL_GetTick(void)
{
 8000c4c:	b480      	push	{r7}
 8000c4e:	af00      	add	r7, sp, #0
  return uwTick;
 8000c50:	4b03      	ldr	r3, [pc, #12]	; (8000c60 <HAL_GetTick+0x14>)
 8000c52:	681b      	ldr	r3, [r3, #0]
}
 8000c54:	4618      	mov	r0, r3
 8000c56:	46bd      	mov	sp, r7
 8000c58:	f85d 7b04 	ldr.w	r7, [sp], #4
 8000c5c:	4770      	bx	lr
 8000c5e:	bf00      	nop
 8000c60:	20000120 	.word	0x20000120

08000c64 <HAL_Delay>:
  *       implementations in user file.
  * @param Delay specifies the delay time length, in milliseconds.
  * @retval None
  */
__weak void HAL_Delay(uint32_t Delay)
{
 8000c64:	b580      	push	{r7, lr}
 8000c66:	b084      	sub	sp, #16
 8000c68:	af00      	add	r7, sp, #0
 8000c6a:	6078      	str	r0, [r7, #4]
  uint32_t tickstart = HAL_GetTick();
 8000c6c:	f7ff ffee 	bl	8000c4c <HAL_GetTick>
 8000c70:	60b8      	str	r0, [r7, #8]
  uint32_t wait = Delay;
 8000c72:	687b      	ldr	r3, [r7, #4]
 8000c74:	60fb      	str	r3, [r7, #12]

  /* Add a freq to guarantee minimum wait */
  if (wait < HAL_MAX_DELAY)
 8000c76:	68fb      	ldr	r3, [r7, #12]
 8000c78:	f1b3 3fff 	cmp.w	r3, #4294967295
 8000c7c:	d005      	beq.n	8000c8a <HAL_Delay+0x26>
  {
    wait += (uint32_t)(uwTickFreq);
 8000c7e:	4b0a      	ldr	r3, [pc, #40]	; (8000ca8 <HAL_Delay+0x44>)
 8000c80:	781b      	ldrb	r3, [r3, #0]
 8000c82:	461a      	mov	r2, r3
 8000c84:	68fb      	ldr	r3, [r7, #12]
 8000c86:	4413      	add	r3, r2
 8000c88:	60fb      	str	r3, [r7, #12]
  }

  while((HAL_GetTick() - tickstart) < wait)
 8000c8a:	bf00      	nop
 8000c8c:	f7ff ffde 	bl	8000c4c <HAL_GetTick>
 8000c90:	4602      	mov	r2, r0
 8000c92:	68bb      	ldr	r3, [r7, #8]
 8000c94:	1ad3      	subs	r3, r2, r3
 8000c96:	68fa      	ldr	r2, [r7, #12]
 8000c98:	429a      	cmp	r2, r3
 8000c9a:	d8f7      	bhi.n	8000c8c <HAL_Delay+0x28>
  {
  }
}
 8000c9c:	bf00      	nop
 8000c9e:	bf00      	nop
 8000ca0:	3710      	adds	r7, #16
 8000ca2:	46bd      	mov	sp, r7
 8000ca4:	bd80      	pop	{r7, pc}
 8000ca6:	bf00      	nop
 8000ca8:	2000000c 	.word	0x2000000c

08000cac <__NVIC_SetPriorityGrouping>:
           In case of a conflict between priority grouping and available
           priority bits (__NVIC_PRIO_BITS), the smallest possible priority group is set.
  \param [in]      PriorityGroup  Priority grouping field.
 */
__STATIC_INLINE void __NVIC_SetPriorityGrouping(uint32_t PriorityGroup)
{
 8000cac:	b480      	push	{r7}
 8000cae:	b085      	sub	sp, #20
 8000cb0:	af00      	add	r7, sp, #0
 8000cb2:	6078      	str	r0, [r7, #4]
  uint32_t reg_value;
  uint32_t PriorityGroupTmp = (PriorityGroup & (uint32_t)0x07UL);             /* only values 0..7 are used          */
 8000cb4:	687b      	ldr	r3, [r7, #4]
 8000cb6:	f003 0307 	and.w	r3, r3, #7
 8000cba:	60fb      	str	r3, [r7, #12]

  reg_value  =  SCB->AIRCR;                                                   /* read old register configuration    */
 8000cbc:	4b0c      	ldr	r3, [pc, #48]	; (8000cf0 <__NVIC_SetPriorityGrouping+0x44>)
 8000cbe:	68db      	ldr	r3, [r3, #12]
 8000cc0:	60bb      	str	r3, [r7, #8]
  reg_value &= ~((uint32_t)(SCB_AIRCR_VECTKEY_Msk | SCB_AIRCR_PRIGROUP_Msk)); /* clear bits to change               */
 8000cc2:	68ba      	ldr	r2, [r7, #8]
 8000cc4:	f64f 03ff 	movw	r3, #63743	; 0xf8ff
 8000cc8:	4013      	ands	r3, r2
 8000cca:	60bb      	str	r3, [r7, #8]
  reg_value  =  (reg_value                                   |
                ((uint32_t)0x5FAUL << SCB_AIRCR_VECTKEY_Pos) |
                (PriorityGroupTmp << SCB_AIRCR_PRIGROUP_Pos)  );              /* Insert write key and priority group */
 8000ccc:	68fb      	ldr	r3, [r7, #12]
 8000cce:	021a      	lsls	r2, r3, #8
                ((uint32_t)0x5FAUL << SCB_AIRCR_VECTKEY_Pos) |
 8000cd0:	68bb      	ldr	r3, [r7, #8]
 8000cd2:	4313      	orrs	r3, r2
  reg_value  =  (reg_value                                   |
 8000cd4:	f043 63bf 	orr.w	r3, r3, #100139008	; 0x5f80000
 8000cd8:	f443 3300 	orr.w	r3, r3, #131072	; 0x20000
 8000cdc:	60bb      	str	r3, [r7, #8]
  SCB->AIRCR =  reg_value;
 8000cde:	4a04      	ldr	r2, [pc, #16]	; (8000cf0 <__NVIC_SetPriorityGrouping+0x44>)
 8000ce0:	68bb      	ldr	r3, [r7, #8]
 8000ce2:	60d3      	str	r3, [r2, #12]
}
 8000ce4:	bf00      	nop
 8000ce6:	3714      	adds	r7, #20
 8000ce8:	46bd      	mov	sp, r7
 8000cea:	f85d 7b04 	ldr.w	r7, [sp], #4
 8000cee:	4770      	bx	lr
 8000cf0:	e000ed00 	.word	0xe000ed00

08000cf4 <__NVIC_GetPriorityGrouping>:
  \brief   Get Priority Grouping
  \details Reads the priority grouping field from the NVIC Interrupt Controller.
  \return                Priority grouping field (SCB->AIRCR [10:8] PRIGROUP field).
 */
__STATIC_INLINE uint32_t __NVIC_GetPriorityGrouping(void)
{
 8000cf4:	b480      	push	{r7}
 8000cf6:	af00      	add	r7, sp, #0
  return ((uint32_t)((SCB->AIRCR & SCB_AIRCR_PRIGROUP_Msk) >> SCB_AIRCR_PRIGROUP_Pos));
 8000cf8:	4b04      	ldr	r3, [pc, #16]	; (8000d0c <__NVIC_GetPriorityGrouping+0x18>)
 8000cfa:	68db      	ldr	r3, [r3, #12]
 8000cfc:	0a1b      	lsrs	r3, r3, #8
 8000cfe:	f003 0307 	and.w	r3, r3, #7
}
 8000d02:	4618      	mov	r0, r3
 8000d04:	46bd      	mov	sp, r7
 8000d06:	f85d 7b04 	ldr.w	r7, [sp], #4
 8000d0a:	4770      	bx	lr
 8000d0c:	e000ed00 	.word	0xe000ed00

08000d10 <__NVIC_EnableIRQ>:
  \details Enables a device specific interrupt in the NVIC interrupt controller.
  \param [in]      IRQn  Device specific interrupt number.
  \note    IRQn must not be negative.
 */
__STATIC_INLINE void __NVIC_EnableIRQ(IRQn_Type IRQn)
{
 8000d10:	b480      	push	{r7}
 8000d12:	b083      	sub	sp, #12
 8000d14:	af00      	add	r7, sp, #0
 8000d16:	4603      	mov	r3, r0
 8000d18:	71fb      	strb	r3, [r7, #7]
  if ((int32_t)(IRQn) >= 0)
 8000d1a:	f997 3007 	ldrsb.w	r3, [r7, #7]
 8000d1e:	2b00      	cmp	r3, #0
 8000d20:	db0b      	blt.n	8000d3a <__NVIC_EnableIRQ+0x2a>
  {
    NVIC->ISER[(((uint32_t)IRQn) >> 5UL)] = (uint32_t)(1UL << (((uint32_t)IRQn) & 0x1FUL));
 8000d22:	79fb      	ldrb	r3, [r7, #7]
 8000d24:	f003 021f 	and.w	r2, r3, #31
 8000d28:	4907      	ldr	r1, [pc, #28]	; (8000d48 <__NVIC_EnableIRQ+0x38>)
 8000d2a:	f997 3007 	ldrsb.w	r3, [r7, #7]
 8000d2e:	095b      	lsrs	r3, r3, #5
 8000d30:	2001      	movs	r0, #1
 8000d32:	fa00 f202 	lsl.w	r2, r0, r2
 8000d36:	f841 2023 	str.w	r2, [r1, r3, lsl #2]
  }
}
 8000d3a:	bf00      	nop
 8000d3c:	370c      	adds	r7, #12
 8000d3e:	46bd      	mov	sp, r7
 8000d40:	f85d 7b04 	ldr.w	r7, [sp], #4
 8000d44:	4770      	bx	lr
 8000d46:	bf00      	nop
 8000d48:	e000e100 	.word	0xe000e100

08000d4c <__NVIC_SetPriority>:
  \param [in]      IRQn  Interrupt number.
  \param [in]  priority  Priority to set.
  \note    The priority cannot be set for every processor exception.
 */
__STATIC_INLINE void __NVIC_SetPriority(IRQn_Type IRQn, uint32_t priority)
{
 8000d4c:	b480      	push	{r7}
 8000d4e:	b083      	sub	sp, #12
 8000d50:	af00      	add	r7, sp, #0
 8000d52:	4603      	mov	r3, r0
 8000d54:	6039      	str	r1, [r7, #0]
 8000d56:	71fb      	strb	r3, [r7, #7]
  if ((int32_t)(IRQn) >= 0)
 8000d58:	f997 3007 	ldrsb.w	r3, [r7, #7]
 8000d5c:	2b00      	cmp	r3, #0
 8000d5e:	db0a      	blt.n	8000d76 <__NVIC_SetPriority+0x2a>
  {
    NVIC->IP[((uint32_t)IRQn)]               = (uint8_t)((priority << (8U - __NVIC_PRIO_BITS)) & (uint32_t)0xFFUL);
 8000d60:	683b      	ldr	r3, [r7, #0]
 8000d62:	b2da      	uxtb	r2, r3
 8000d64:	490c      	ldr	r1, [pc, #48]	; (8000d98 <__NVIC_SetPriority+0x4c>)
 8000d66:	f997 3007 	ldrsb.w	r3, [r7, #7]
 8000d6a:	0112      	lsls	r2, r2, #4
 8000d6c:	b2d2      	uxtb	r2, r2
 8000d6e:	440b      	add	r3, r1
 8000d70:	f883 2300 	strb.w	r2, [r3, #768]	; 0x300
  }
  else
  {
    SCB->SHP[(((uint32_t)IRQn) & 0xFUL)-4UL] = (uint8_t)((priority << (8U - __NVIC_PRIO_BITS)) & (uint32_t)0xFFUL);
  }
}
 8000d74:	e00a      	b.n	8000d8c <__NVIC_SetPriority+0x40>
    SCB->SHP[(((uint32_t)IRQn) & 0xFUL)-4UL] = (uint8_t)((priority << (8U - __NVIC_PRIO_BITS)) & (uint32_t)0xFFUL);
 8000d76:	683b      	ldr	r3, [r7, #0]
 8000d78:	b2da      	uxtb	r2, r3
 8000d7a:	4908      	ldr	r1, [pc, #32]	; (8000d9c <__NVIC_SetPriority+0x50>)
 8000d7c:	79fb      	ldrb	r3, [r7, #7]
 8000d7e:	f003 030f 	and.w	r3, r3, #15
 8000d82:	3b04      	subs	r3, #4
 8000d84:	0112      	lsls	r2, r2, #4
 8000d86:	b2d2      	uxtb	r2, r2
 8000d88:	440b      	add	r3, r1
 8000d8a:	761a      	strb	r2, [r3, #24]
}
 8000d8c:	bf00      	nop
 8000d8e:	370c      	adds	r7, #12
 8000d90:	46bd      	mov	sp, r7
 8000d92:	f85d 7b04 	ldr.w	r7, [sp], #4
 8000d96:	4770      	bx	lr
 8000d98:	e000e100 	.word	0xe000e100
 8000d9c:	e000ed00 	.word	0xe000ed00

08000da0 <NVIC_EncodePriority>:
  \param [in]   PreemptPriority  Preemptive priority value (starting from 0).
  \param [in]       SubPriority  Subpriority value (starting from 0).
  \return                        Encoded priority. Value can be used in the function \ref NVIC_SetPriority().
 */
__STATIC_INLINE uint32_t NVIC_EncodePriority (uint32_t PriorityGroup, uint32_t PreemptPriority, uint32_t SubPriority)
{
 8000da0:	b480      	push	{r7}
 8000da2:	b089      	sub	sp, #36	; 0x24
 8000da4:	af00      	add	r7, sp, #0
 8000da6:	60f8      	str	r0, [r7, #12]
 8000da8:	60b9      	str	r1, [r7, #8]
 8000daa:	607a      	str	r2, [r7, #4]
  uint32_t PriorityGroupTmp = (PriorityGroup & (uint32_t)0x07UL);   /* only values 0..7 are used          */
 8000dac:	68fb      	ldr	r3, [r7, #12]
 8000dae:	f003 0307 	and.w	r3, r3, #7
 8000db2:	61fb      	str	r3, [r7, #28]
  uint32_t PreemptPriorityBits;
  uint32_t SubPriorityBits;

  PreemptPriorityBits = ((7UL - PriorityGroupTmp) > (uint32_t)(__NVIC_PRIO_BITS)) ? (uint32_t)(__NVIC_PRIO_BITS) : (uint32_t)(7UL - PriorityGroupTmp);
 8000db4:	69fb      	ldr	r3, [r7, #28]
 8000db6:	f1c3 0307 	rsb	r3, r3, #7
 8000dba:	2b04      	cmp	r3, #4
 8000dbc:	bf28      	it	cs
 8000dbe:	2304      	movcs	r3, #4
 8000dc0:	61bb      	str	r3, [r7, #24]
  SubPriorityBits     = ((PriorityGroupTmp + (uint32_t)(__NVIC_PRIO_BITS)) < (uint32_t)7UL) ? (uint32_t)0UL : (uint32_t)((PriorityGroupTmp - 7UL) + (uint32_t)(__NVIC_PRIO_BITS));
 8000dc2:	69fb      	ldr	r3, [r7, #28]
 8000dc4:	3304      	adds	r3, #4
 8000dc6:	2b06      	cmp	r3, #6
 8000dc8:	d902      	bls.n	8000dd0 <NVIC_EncodePriority+0x30>
 8000dca:	69fb      	ldr	r3, [r7, #28]
 8000dcc:	3b03      	subs	r3, #3
 8000dce:	e000      	b.n	8000dd2 <NVIC_EncodePriority+0x32>
 8000dd0:	2300      	movs	r3, #0
 8000dd2:	617b      	str	r3, [r7, #20]

  return (
           ((PreemptPriority & (uint32_t)((1UL << (PreemptPriorityBits)) - 1UL)) << SubPriorityBits) |
 8000dd4:	f04f 32ff 	mov.w	r2, #4294967295
 8000dd8:	69bb      	ldr	r3, [r7, #24]
 8000dda:	fa02 f303 	lsl.w	r3, r2, r3
 8000dde:	43da      	mvns	r2, r3
 8000de0:	68bb      	ldr	r3, [r7, #8]
 8000de2:	401a      	ands	r2, r3
 8000de4:	697b      	ldr	r3, [r7, #20]
 8000de6:	409a      	lsls	r2, r3
           ((SubPriority     & (uint32_t)((1UL << (SubPriorityBits    )) - 1UL)))
 8000de8:	f04f 31ff 	mov.w	r1, #4294967295
 8000dec:	697b      	ldr	r3, [r7, #20]
 8000dee:	fa01 f303 	lsl.w	r3, r1, r3
 8000df2:	43d9      	mvns	r1, r3
 8000df4:	687b      	ldr	r3, [r7, #4]
 8000df6:	400b      	ands	r3, r1
           ((PreemptPriority & (uint32_t)((1UL << (PreemptPriorityBits)) - 1UL)) << SubPriorityBits) |
 8000df8:	4313      	orrs	r3, r2
         );
}
 8000dfa:	4618      	mov	r0, r3
 8000dfc:	3724      	adds	r7, #36	; 0x24
 8000dfe:	46bd      	mov	sp, r7
 8000e00:	f85d 7b04 	ldr.w	r7, [sp], #4
 8000e04:	4770      	bx	lr
	...

08000e08 <SysTick_Config>:
  \note    When the variable <b>__Vendor_SysTickConfig</b> is set to 1, then the
           function <b>SysTick_Config</b> is not included. In this case, the file <b><i>device</i>.h</b>
           must contain a vendor-specific implementation of this function.
 */
__STATIC_INLINE uint32_t SysTick_Config(uint32_t ticks)
{
 8000e08:	b580      	push	{r7, lr}
 8000e0a:	b082      	sub	sp, #8
 8000e0c:	af00      	add	r7, sp, #0
 8000e0e:	6078      	str	r0, [r7, #4]
  if ((ticks - 1UL) > SysTick_LOAD_RELOAD_Msk)
 8000e10:	687b      	ldr	r3, [r7, #4]
 8000e12:	3b01      	subs	r3, #1
 8000e14:	f1b3 7f80 	cmp.w	r3, #16777216	; 0x1000000
 8000e18:	d301      	bcc.n	8000e1e <SysTick_Config+0x16>
  {
    return (1UL);                                                   /* Reload value impossible */
 8000e1a:	2301      	movs	r3, #1
 8000e1c:	e00f      	b.n	8000e3e <SysTick_Config+0x36>
  }

  SysTick->LOAD  = (uint32_t)(ticks - 1UL);                         /* set reload register */
 8000e1e:	4a0a      	ldr	r2, [pc, #40]	; (8000e48 <SysTick_Config+0x40>)
 8000e20:	687b      	ldr	r3, [r7, #4]
 8000e22:	3b01      	subs	r3, #1
 8000e24:	6053      	str	r3, [r2, #4]
  NVIC_SetPriority (SysTick_IRQn, (1UL << __NVIC_PRIO_BITS) - 1UL); /* set Priority for Systick Interrupt */
 8000e26:	210f      	movs	r1, #15
 8000e28:	f04f 30ff 	mov.w	r0, #4294967295
 8000e2c:	f7ff ff8e 	bl	8000d4c <__NVIC_SetPriority>
  SysTick->VAL   = 0UL;                                             /* Load the SysTick Counter Value */
 8000e30:	4b05      	ldr	r3, [pc, #20]	; (8000e48 <SysTick_Config+0x40>)
 8000e32:	2200      	movs	r2, #0
 8000e34:	609a      	str	r2, [r3, #8]
  SysTick->CTRL  = SysTick_CTRL_CLKSOURCE_Msk |
 8000e36:	4b04      	ldr	r3, [pc, #16]	; (8000e48 <SysTick_Config+0x40>)
 8000e38:	2207      	movs	r2, #7
 8000e3a:	601a      	str	r2, [r3, #0]
                   SysTick_CTRL_TICKINT_Msk   |
                   SysTick_CTRL_ENABLE_Msk;                         /* Enable SysTick IRQ and SysTick Timer */
  return (0UL);                                                     /* Function successful */
 8000e3c:	2300      	movs	r3, #0
}
 8000e3e:	4618      	mov	r0, r3
 8000e40:	3708      	adds	r7, #8
 8000e42:	46bd      	mov	sp, r7
 8000e44:	bd80      	pop	{r7, pc}
 8000e46:	bf00      	nop
 8000e48:	e000e010 	.word	0xe000e010

08000e4c <HAL_NVIC_SetPriorityGrouping>:
  * @note   When the NVIC_PriorityGroup_0 is selected, IRQ preemption is no more possible. 
  *         The pending IRQ priority will be managed only by the subpriority. 
  * @retval None
  */
void HAL_NVIC_SetPriorityGrouping(uint32_t PriorityGroup)
{
 8000e4c:	b580      	push	{r7, lr}
 8000e4e:	b082      	sub	sp, #8
 8000e50:	af00      	add	r7, sp, #0
 8000e52:	6078      	str	r0, [r7, #4]
  /* Check the parameters */
  assert_param(IS_NVIC_PRIORITY_GROUP(PriorityGroup));
  
  /* Set the PRIGROUP[10:8] bits according to the PriorityGroup parameter value */
  NVIC_SetPriorityGrouping(PriorityGroup);
 8000e54:	6878      	ldr	r0, [r7, #4]
 8000e56:	f7ff ff29 	bl	8000cac <__NVIC_SetPriorityGrouping>
}
 8000e5a:	bf00      	nop
 8000e5c:	3708      	adds	r7, #8
 8000e5e:	46bd      	mov	sp, r7
 8000e60:	bd80      	pop	{r7, pc}

08000e62 <HAL_NVIC_SetPriority>:
  *         This parameter can be a value between 0 and 15
  *         A lower priority value indicates a higher priority.          
  * @retval None
  */
void HAL_NVIC_SetPriority(IRQn_Type IRQn, uint32_t PreemptPriority, uint32_t SubPriority)
{ 
 8000e62:	b580      	push	{r7, lr}
 8000e64:	b086      	sub	sp, #24
 8000e66:	af00      	add	r7, sp, #0
 8000e68:	4603      	mov	r3, r0
 8000e6a:	60b9      	str	r1, [r7, #8]
 8000e6c:	607a      	str	r2, [r7, #4]
 8000e6e:	73fb      	strb	r3, [r7, #15]
  uint32_t prioritygroup = 0x00U;
 8000e70:	2300      	movs	r3, #0
 8000e72:	617b      	str	r3, [r7, #20]
  
  /* Check the parameters */
  assert_param(IS_NVIC_SUB_PRIORITY(SubPriority));
  assert_param(IS_NVIC_PREEMPTION_PRIORITY(PreemptPriority));
  
  prioritygroup = NVIC_GetPriorityGrouping();
 8000e74:	f7ff ff3e 	bl	8000cf4 <__NVIC_GetPriorityGrouping>
 8000e78:	6178      	str	r0, [r7, #20]
  
  NVIC_SetPriority(IRQn, NVIC_EncodePriority(prioritygroup, PreemptPriority, SubPriority));
 8000e7a:	687a      	ldr	r2, [r7, #4]
 8000e7c:	68b9      	ldr	r1, [r7, #8]
 8000e7e:	6978      	ldr	r0, [r7, #20]
 8000e80:	f7ff ff8e 	bl	8000da0 <NVIC_EncodePriority>
 8000e84:	4602      	mov	r2, r0
 8000e86:	f997 300f 	ldrsb.w	r3, [r7, #15]
 8000e8a:	4611      	mov	r1, r2
 8000e8c:	4618      	mov	r0, r3
 8000e8e:	f7ff ff5d 	bl	8000d4c <__NVIC_SetPriority>
}
 8000e92:	bf00      	nop
 8000e94:	3718      	adds	r7, #24
 8000e96:	46bd      	mov	sp, r7
 8000e98:	bd80      	pop	{r7, pc}

08000e9a <HAL_NVIC_EnableIRQ>:
  *         This parameter can be an enumerator of IRQn_Type enumeration
  *         (For the complete STM32 Devices IRQ Channels list, please refer to the appropriate CMSIS device file (stm32f4xxxx.h))
  * @retval None
  */
void HAL_NVIC_EnableIRQ(IRQn_Type IRQn)
{
 8000e9a:	b580      	push	{r7, lr}
 8000e9c:	b082      	sub	sp, #8
 8000e9e:	af00      	add	r7, sp, #0
 8000ea0:	4603      	mov	r3, r0
 8000ea2:	71fb      	strb	r3, [r7, #7]
  /* Check the parameters */
  assert_param(IS_NVIC_DEVICE_IRQ(IRQn));
  
  /* Enable interrupt */
  NVIC_EnableIRQ(IRQn);
 8000ea4:	f997 3007 	ldrsb.w	r3, [r7, #7]
 8000ea8:	4618      	mov	r0, r3
 8000eaa:	f7ff ff31 	bl	8000d10 <__NVIC_EnableIRQ>
}
 8000eae:	bf00      	nop
 8000eb0:	3708      	adds	r7, #8
 8000eb2:	46bd      	mov	sp, r7
 8000eb4:	bd80      	pop	{r7, pc}

08000eb6 <HAL_SYSTICK_Config>:
  * @param  TicksNumb Specifies the ticks Number of ticks between two interrupts.
  * @retval status:  - 0  Function succeeded.
  *                  - 1  Function failed.
  */
uint32_t HAL_SYSTICK_Config(uint32_t TicksNumb)
{
 8000eb6:	b580      	push	{r7, lr}
 8000eb8:	b082      	sub	sp, #8
 8000eba:	af00      	add	r7, sp, #0
 8000ebc:	6078      	str	r0, [r7, #4]
   return SysTick_Config(TicksNumb);
 8000ebe:	6878      	ldr	r0, [r7, #4]
 8000ec0:	f7ff ffa2 	bl	8000e08 <SysTick_Config>
 8000ec4:	4603      	mov	r3, r0
}
 8000ec6:	4618      	mov	r0, r3
 8000ec8:	3708      	adds	r7, #8
 8000eca:	46bd      	mov	sp, r7
 8000ecc:	bd80      	pop	{r7, pc}

08000ece <HAL_DMA_Abort_IT>:
  * @param  hdma   pointer to a DMA_HandleTypeDef structure that contains
  *                 the configuration information for the specified DMA Stream.
  * @retval HAL status
  */
HAL_StatusTypeDef HAL_DMA_Abort_IT(DMA_HandleTypeDef *hdma)
{
 8000ece:	b480      	push	{r7}
 8000ed0:	b083      	sub	sp, #12
 8000ed2:	af00      	add	r7, sp, #0
 8000ed4:	6078      	str	r0, [r7, #4]
  if(hdma->State != HAL_DMA_STATE_BUSY)
 8000ed6:	687b      	ldr	r3, [r7, #4]
 8000ed8:	f893 3035 	ldrb.w	r3, [r3, #53]	; 0x35
 8000edc:	b2db      	uxtb	r3, r3
 8000ede:	2b02      	cmp	r3, #2
 8000ee0:	d004      	beq.n	8000eec <HAL_DMA_Abort_IT+0x1e>
  {
    hdma->ErrorCode = HAL_DMA_ERROR_NO_XFER;
 8000ee2:	687b      	ldr	r3, [r7, #4]
 8000ee4:	2280      	movs	r2, #128	; 0x80
 8000ee6:	655a      	str	r2, [r3, #84]	; 0x54
    return HAL_ERROR;
 8000ee8:	2301      	movs	r3, #1
 8000eea:	e00c      	b.n	8000f06 <HAL_DMA_Abort_IT+0x38>
  }
  else
  {
    /* Set Abort State  */
    hdma->State = HAL_DMA_STATE_ABORT;
 8000eec:	687b      	ldr	r3, [r7, #4]
 8000eee:	2205      	movs	r2, #5
 8000ef0:	f883 2035 	strb.w	r2, [r3, #53]	; 0x35
    
    /* Disable the stream */
    __HAL_DMA_DISABLE(hdma);
 8000ef4:	687b      	ldr	r3, [r7, #4]
 8000ef6:	681b      	ldr	r3, [r3, #0]
 8000ef8:	681a      	ldr	r2, [r3, #0]
 8000efa:	687b      	ldr	r3, [r7, #4]
 8000efc:	681b      	ldr	r3, [r3, #0]
 8000efe:	f022 0201 	bic.w	r2, r2, #1
 8000f02:	601a      	str	r2, [r3, #0]
  }

  return HAL_OK;
 8000f04:	2300      	movs	r3, #0
}
 8000f06:	4618      	mov	r0, r3
 8000f08:	370c      	adds	r7, #12
 8000f0a:	46bd      	mov	sp, r7
 8000f0c:	f85d 7b04 	ldr.w	r7, [sp], #4
 8000f10:	4770      	bx	lr

08000f12 <HAL_DMA_GetState>:
  * @param  hdma pointer to a DMA_HandleTypeDef structure that contains
  *               the configuration information for the specified DMA Stream.
  * @retval HAL state
  */
HAL_DMA_StateTypeDef HAL_DMA_GetState(DMA_HandleTypeDef *hdma)
{
 8000f12:	b480      	push	{r7}
 8000f14:	b083      	sub	sp, #12
 8000f16:	af00      	add	r7, sp, #0
 8000f18:	6078      	str	r0, [r7, #4]
  return hdma->State;
 8000f1a:	687b      	ldr	r3, [r7, #4]
 8000f1c:	f893 3035 	ldrb.w	r3, [r3, #53]	; 0x35
 8000f20:	b2db      	uxtb	r3, r3
}
 8000f22:	4618      	mov	r0, r3
 8000f24:	370c      	adds	r7, #12
 8000f26:	46bd      	mov	sp, r7
 8000f28:	f85d 7b04 	ldr.w	r7, [sp], #4
 8000f2c:	4770      	bx	lr
	...

08000f30 <HAL_GPIO_Init>:
  * @param  GPIO_Init pointer to a GPIO_InitTypeDef structure that contains
  *         the configuration information for the specified GPIO peripheral.
  * @retval None
  */
void HAL_GPIO_Init(GPIO_TypeDef  *GPIOx, GPIO_InitTypeDef *GPIO_Init)
{
 8000f30:	b480      	push	{r7}
 8000f32:	b089      	sub	sp, #36	; 0x24
 8000f34:	af00      	add	r7, sp, #0
 8000f36:	6078      	str	r0, [r7, #4]
 8000f38:	6039      	str	r1, [r7, #0]
  uint32_t position;
  uint32_t ioposition = 0x00U;
 8000f3a:	2300      	movs	r3, #0
 8000f3c:	617b      	str	r3, [r7, #20]
  uint32_t iocurrent = 0x00U;
 8000f3e:	2300      	movs	r3, #0
 8000f40:	613b      	str	r3, [r7, #16]
  uint32_t temp = 0x00U;
 8000f42:	2300      	movs	r3, #0
 8000f44:	61bb      	str	r3, [r7, #24]
  assert_param(IS_GPIO_ALL_INSTANCE(GPIOx));
  assert_param(IS_GPIO_PIN(GPIO_Init->Pin));
  assert_param(IS_GPIO_MODE(GPIO_Init->Mode));

  /* Configure the port pins */
  for(position = 0U; position < GPIO_NUMBER; position++)
 8000f46:	2300      	movs	r3, #0
 8000f48:	61fb      	str	r3, [r7, #28]
 8000f4a:	e16b      	b.n	8001224 <HAL_GPIO_Init+0x2f4>
  {
    /* Get the IO position */
    ioposition = 0x01U << position;
 8000f4c:	2201      	movs	r2, #1
 8000f4e:	69fb      	ldr	r3, [r7, #28]
 8000f50:	fa02 f303 	lsl.w	r3, r2, r3
 8000f54:	617b      	str	r3, [r7, #20]
    /* Get the current IO position */
    iocurrent = (uint32_t)(GPIO_Init->Pin) & ioposition;
 8000f56:	683b      	ldr	r3, [r7, #0]
 8000f58:	681b      	ldr	r3, [r3, #0]
 8000f5a:	697a      	ldr	r2, [r7, #20]
 8000f5c:	4013      	ands	r3, r2
 8000f5e:	613b      	str	r3, [r7, #16]

    if(iocurrent == ioposition)
 8000f60:	693a      	ldr	r2, [r7, #16]
 8000f62:	697b      	ldr	r3, [r7, #20]
 8000f64:	429a      	cmp	r2, r3
 8000f66:	f040 815a 	bne.w	800121e <HAL_GPIO_Init+0x2ee>
    {
      /*--------------------- GPIO Mode Configuration ------------------------*/
      /* In case of Output or Alternate function mode selection */
      if(((GPIO_Init->Mode & GPIO_MODE) == MODE_OUTPUT) || \
 8000f6a:	683b      	ldr	r3, [r7, #0]
 8000f6c:	685b      	ldr	r3, [r3, #4]
 8000f6e:	f003 0303 	and.w	r3, r3, #3
 8000f72:	2b01      	cmp	r3, #1
 8000f74:	d005      	beq.n	8000f82 <HAL_GPIO_Init+0x52>
          (GPIO_Init->Mode & GPIO_MODE) == MODE_AF)
 8000f76:	683b      	ldr	r3, [r7, #0]
 8000f78:	685b      	ldr	r3, [r3, #4]
 8000f7a:	f003 0303 	and.w	r3, r3, #3
      if(((GPIO_Init->Mode & GPIO_MODE) == MODE_OUTPUT) || \
 8000f7e:	2b02      	cmp	r3, #2
 8000f80:	d130      	bne.n	8000fe4 <HAL_GPIO_Init+0xb4>
      {
        /* Check the Speed parameter */
        assert_param(IS_GPIO_SPEED(GPIO_Init->Speed));
        /* Configure the IO Speed */
        temp = GPIOx->OSPEEDR; 
 8000f82:	687b      	ldr	r3, [r7, #4]
 8000f84:	689b      	ldr	r3, [r3, #8]
 8000f86:	61bb      	str	r3, [r7, #24]
        temp &= ~(GPIO_OSPEEDER_OSPEEDR0 << (position * 2U));
 8000f88:	69fb      	ldr	r3, [r7, #28]
 8000f8a:	005b      	lsls	r3, r3, #1
 8000f8c:	2203      	movs	r2, #3
 8000f8e:	fa02 f303 	lsl.w	r3, r2, r3
 8000f92:	43db      	mvns	r3, r3
 8000f94:	69ba      	ldr	r2, [r7, #24]
 8000f96:	4013      	ands	r3, r2
 8000f98:	61bb      	str	r3, [r7, #24]
        temp |= (GPIO_Init->Speed << (position * 2U));
 8000f9a:	683b      	ldr	r3, [r7, #0]
 8000f9c:	68da      	ldr	r2, [r3, #12]
 8000f9e:	69fb      	ldr	r3, [r7, #28]
 8000fa0:	005b      	lsls	r3, r3, #1
 8000fa2:	fa02 f303 	lsl.w	r3, r2, r3
 8000fa6:	69ba      	ldr	r2, [r7, #24]
 8000fa8:	4313      	orrs	r3, r2
 8000faa:	61bb      	str	r3, [r7, #24]
        GPIOx->OSPEEDR = temp;
 8000fac:	687b      	ldr	r3, [r7, #4]
 8000fae:	69ba      	ldr	r2, [r7, #24]
 8000fb0:	609a      	str	r2, [r3, #8]

        /* Configure the IO Output Type */
        temp = GPIOx->OTYPER;
 8000fb2:	687b      	ldr	r3, [r7, #4]
 8000fb4:	685b      	ldr	r3, [r3, #4]
 8000fb6:	61bb      	str	r3, [r7, #24]
        temp &= ~(GPIO_OTYPER_OT_0 << position) ;
 8000fb8:	2201      	movs	r2, #1
 8000fba:	69fb      	ldr	r3, [r7, #28]
 8000fbc:	fa02 f303 	lsl.w	r3, r2, r3
 8000fc0:	43db      	mvns	r3, r3
 8000fc2:	69ba      	ldr	r2, [r7, #24]
 8000fc4:	4013      	ands	r3, r2
 8000fc6:	61bb      	str	r3, [r7, #24]
        temp |= (((GPIO_Init->Mode & OUTPUT_TYPE) >> OUTPUT_TYPE_Pos) << position);
 8000fc8:	683b      	ldr	r3, [r7, #0]
 8000fca:	685b      	ldr	r3, [r3, #4]
 8000fcc:	091b      	lsrs	r3, r3, #4
 8000fce:	f003 0201 	and.w	r2, r3, #1
 8000fd2:	69fb      	ldr	r3, [r7, #28]
 8000fd4:	fa02 f303 	lsl.w	r3, r2, r3
 8000fd8:	69ba      	ldr	r2, [r7, #24]
 8000fda:	4313      	orrs	r3, r2
 8000fdc:	61bb      	str	r3, [r7, #24]
        GPIOx->OTYPER = temp;
 8000fde:	687b      	ldr	r3, [r7, #4]
 8000fe0:	69ba      	ldr	r2, [r7, #24]
 8000fe2:	605a      	str	r2, [r3, #4]
       }

      if((GPIO_Init->Mode & GPIO_MODE) != MODE_ANALOG)
 8000fe4:	683b      	ldr	r3, [r7, #0]
 8000fe6:	685b      	ldr	r3, [r3, #4]
 8000fe8:	f003 0303 	and.w	r3, r3, #3
 8000fec:	2b03      	cmp	r3, #3
 8000fee:	d017      	beq.n	8001020 <HAL_GPIO_Init+0xf0>
      {
        /* Check the parameters */
        assert_param(IS_GPIO_PULL(GPIO_Init->Pull));
        
        /* Activate the Pull-up or Pull down resistor for the current IO */
        temp = GPIOx->PUPDR;
 8000ff0:	687b      	ldr	r3, [r7, #4]
 8000ff2:	68db      	ldr	r3, [r3, #12]
 8000ff4:	61bb      	str	r3, [r7, #24]
        temp &= ~(GPIO_PUPDR_PUPDR0 << (position * 2U));
 8000ff6:	69fb      	ldr	r3, [r7, #28]
 8000ff8:	005b      	lsls	r3, r3, #1
 8000ffa:	2203      	movs	r2, #3
 8000ffc:	fa02 f303 	lsl.w	r3, r2, r3
 8001000:	43db      	mvns	r3, r3
 8001002:	69ba      	ldr	r2, [r7, #24]
 8001004:	4013      	ands	r3, r2
 8001006:	61bb      	str	r3, [r7, #24]
        temp |= ((GPIO_Init->Pull) << (position * 2U));
 8001008:	683b      	ldr	r3, [r7, #0]
 800100a:	689a      	ldr	r2, [r3, #8]
 800100c:	69fb      	ldr	r3, [r7, #28]
 800100e:	005b      	lsls	r3, r3, #1
 8001010:	fa02 f303 	lsl.w	r3, r2, r3
 8001014:	69ba      	ldr	r2, [r7, #24]
 8001016:	4313      	orrs	r3, r2
 8001018:	61bb      	str	r3, [r7, #24]
        GPIOx->PUPDR = temp;
 800101a:	687b      	ldr	r3, [r7, #4]
 800101c:	69ba      	ldr	r2, [r7, #24]
 800101e:	60da      	str	r2, [r3, #12]
      }

      /* In case of Alternate function mode selection */
      if((GPIO_Init->Mode & GPIO_MODE) == MODE_AF)
 8001020:	683b      	ldr	r3, [r7, #0]
 8001022:	685b      	ldr	r3, [r3, #4]
 8001024:	f003 0303 	and.w	r3, r3, #3
 8001028:	2b02      	cmp	r3, #2
 800102a:	d123      	bne.n	8001074 <HAL_GPIO_Init+0x144>
      {
        /* Check the Alternate function parameter */
        assert_param(IS_GPIO_AF(GPIO_Init->Alternate));
        /* Configure Alternate function mapped with the current IO */
        temp = GPIOx->AFR[position >> 3U];
 800102c:	69fb      	ldr	r3, [r7, #28]
 800102e:	08da      	lsrs	r2, r3, #3
 8001030:	687b      	ldr	r3, [r7, #4]
 8001032:	3208      	adds	r2, #8
 8001034:	f853 3022 	ldr.w	r3, [r3, r2, lsl #2]
 8001038:	61bb      	str	r3, [r7, #24]
        temp &= ~(0xFU << ((uint32_t)(position & 0x07U) * 4U)) ;
 800103a:	69fb      	ldr	r3, [r7, #28]
 800103c:	f003 0307 	and.w	r3, r3, #7
 8001040:	009b      	lsls	r3, r3, #2
 8001042:	220f      	movs	r2, #15
 8001044:	fa02 f303 	lsl.w	r3, r2, r3
 8001048:	43db      	mvns	r3, r3
 800104a:	69ba      	ldr	r2, [r7, #24]
 800104c:	4013      	ands	r3, r2
 800104e:	61bb      	str	r3, [r7, #24]
        temp |= ((uint32_t)(GPIO_Init->Alternate) << (((uint32_t)position & 0x07U) * 4U));
 8001050:	683b      	ldr	r3, [r7, #0]
 8001052:	691a      	ldr	r2, [r3, #16]
 8001054:	69fb      	ldr	r3, [r7, #28]
 8001056:	f003 0307 	and.w	r3, r3, #7
 800105a:	009b      	lsls	r3, r3, #2
 800105c:	fa02 f303 	lsl.w	r3, r2, r3
 8001060:	69ba      	ldr	r2, [r7, #24]
 8001062:	4313      	orrs	r3, r2
 8001064:	61bb      	str	r3, [r7, #24]
        GPIOx->AFR[position >> 3U] = temp;
 8001066:	69fb      	ldr	r3, [r7, #28]
 8001068:	08da      	lsrs	r2, r3, #3
 800106a:	687b      	ldr	r3, [r7, #4]
 800106c:	3208      	adds	r2, #8
 800106e:	69b9      	ldr	r1, [r7, #24]
 8001070:	f843 1022 	str.w	r1, [r3, r2, lsl #2]
      }

      /* Configure IO Direction mode (Input, Output, Alternate or Analog) */
      temp = GPIOx->MODER;
 8001074:	687b      	ldr	r3, [r7, #4]
 8001076:	681b      	ldr	r3, [r3, #0]
 8001078:	61bb      	str	r3, [r7, #24]
      temp &= ~(GPIO_MODER_MODER0 << (position * 2U));
 800107a:	69fb      	ldr	r3, [r7, #28]
 800107c:	005b      	lsls	r3, r3, #1
 800107e:	2203      	movs	r2, #3
 8001080:	fa02 f303 	lsl.w	r3, r2, r3
 8001084:	43db      	mvns	r3, r3
 8001086:	69ba      	ldr	r2, [r7, #24]
 8001088:	4013      	ands	r3, r2
 800108a:	61bb      	str	r3, [r7, #24]
      temp |= ((GPIO_Init->Mode & GPIO_MODE) << (position * 2U));
 800108c:	683b      	ldr	r3, [r7, #0]
 800108e:	685b      	ldr	r3, [r3, #4]
 8001090:	f003 0203 	and.w	r2, r3, #3
 8001094:	69fb      	ldr	r3, [r7, #28]
 8001096:	005b      	lsls	r3, r3, #1
 8001098:	fa02 f303 	lsl.w	r3, r2, r3
 800109c:	69ba      	ldr	r2, [r7, #24]
 800109e:	4313      	orrs	r3, r2
 80010a0:	61bb      	str	r3, [r7, #24]
      GPIOx->MODER = temp;
 80010a2:	687b      	ldr	r3, [r7, #4]
 80010a4:	69ba      	ldr	r2, [r7, #24]
 80010a6:	601a      	str	r2, [r3, #0]

      /*--------------------- EXTI Mode Configuration ------------------------*/
      /* Configure the External Interrupt or event for the current IO */
      if((GPIO_Init->Mode & EXTI_MODE) != 0x00U)
 80010a8:	683b      	ldr	r3, [r7, #0]
 80010aa:	685b      	ldr	r3, [r3, #4]
 80010ac:	f403 3340 	and.w	r3, r3, #196608	; 0x30000
 80010b0:	2b00      	cmp	r3, #0
 80010b2:	f000 80b4 	beq.w	800121e <HAL_GPIO_Init+0x2ee>
      {
        /* Enable SYSCFG Clock */
        __HAL_RCC_SYSCFG_CLK_ENABLE();
 80010b6:	2300      	movs	r3, #0
 80010b8:	60fb      	str	r3, [r7, #12]
 80010ba:	4b60      	ldr	r3, [pc, #384]	; (800123c <HAL_GPIO_Init+0x30c>)
 80010bc:	6c5b      	ldr	r3, [r3, #68]	; 0x44
 80010be:	4a5f      	ldr	r2, [pc, #380]	; (800123c <HAL_GPIO_Init+0x30c>)
 80010c0:	f443 4380 	orr.w	r3, r3, #16384	; 0x4000
 80010c4:	6453      	str	r3, [r2, #68]	; 0x44
 80010c6:	4b5d      	ldr	r3, [pc, #372]	; (800123c <HAL_GPIO_Init+0x30c>)
 80010c8:	6c5b      	ldr	r3, [r3, #68]	; 0x44
 80010ca:	f403 4380 	and.w	r3, r3, #16384	; 0x4000
 80010ce:	60fb      	str	r3, [r7, #12]
 80010d0:	68fb      	ldr	r3, [r7, #12]

        temp = SYSCFG->EXTICR[position >> 2U];
 80010d2:	4a5b      	ldr	r2, [pc, #364]	; (8001240 <HAL_GPIO_Init+0x310>)
 80010d4:	69fb      	ldr	r3, [r7, #28]
 80010d6:	089b      	lsrs	r3, r3, #2
 80010d8:	3302      	adds	r3, #2
 80010da:	f852 3023 	ldr.w	r3, [r2, r3, lsl #2]
 80010de:	61bb      	str	r3, [r7, #24]
        temp &= ~(0x0FU << (4U * (position & 0x03U)));
 80010e0:	69fb      	ldr	r3, [r7, #28]
 80010e2:	f003 0303 	and.w	r3, r3, #3
 80010e6:	009b      	lsls	r3, r3, #2
 80010e8:	220f      	movs	r2, #15
 80010ea:	fa02 f303 	lsl.w	r3, r2, r3
 80010ee:	43db      	mvns	r3, r3
 80010f0:	69ba      	ldr	r2, [r7, #24]
 80010f2:	4013      	ands	r3, r2
 80010f4:	61bb      	str	r3, [r7, #24]
        temp |= ((uint32_t)(GPIO_GET_INDEX(GPIOx)) << (4U * (position & 0x03U)));
 80010f6:	687b      	ldr	r3, [r7, #4]
 80010f8:	4a52      	ldr	r2, [pc, #328]	; (8001244 <HAL_GPIO_Init+0x314>)
 80010fa:	4293      	cmp	r3, r2
 80010fc:	d02b      	beq.n	8001156 <HAL_GPIO_Init+0x226>
 80010fe:	687b      	ldr	r3, [r7, #4]
 8001100:	4a51      	ldr	r2, [pc, #324]	; (8001248 <HAL_GPIO_Init+0x318>)
 8001102:	4293      	cmp	r3, r2
 8001104:	d025      	beq.n	8001152 <HAL_GPIO_Init+0x222>
 8001106:	687b      	ldr	r3, [r7, #4]
 8001108:	4a50      	ldr	r2, [pc, #320]	; (800124c <HAL_GPIO_Init+0x31c>)
 800110a:	4293      	cmp	r3, r2
 800110c:	d01f      	beq.n	800114e <HAL_GPIO_Init+0x21e>
 800110e:	687b      	ldr	r3, [r7, #4]
 8001110:	4a4f      	ldr	r2, [pc, #316]	; (8001250 <HAL_GPIO_Init+0x320>)
 8001112:	4293      	cmp	r3, r2
 8001114:	d019      	beq.n	800114a <HAL_GPIO_Init+0x21a>
 8001116:	687b      	ldr	r3, [r7, #4]
 8001118:	4a4e      	ldr	r2, [pc, #312]	; (8001254 <HAL_GPIO_Init+0x324>)
 800111a:	4293      	cmp	r3, r2
 800111c:	d013      	beq.n	8001146 <HAL_GPIO_Init+0x216>
 800111e:	687b      	ldr	r3, [r7, #4]
 8001120:	4a4d      	ldr	r2, [pc, #308]	; (8001258 <HAL_GPIO_Init+0x328>)
 8001122:	4293      	cmp	r3, r2
 8001124:	d00d      	beq.n	8001142 <HAL_GPIO_Init+0x212>
 8001126:	687b      	ldr	r3, [r7, #4]
 8001128:	4a4c      	ldr	r2, [pc, #304]	; (800125c <HAL_GPIO_Init+0x32c>)
 800112a:	4293      	cmp	r3, r2
 800112c:	d007      	beq.n	800113e <HAL_GPIO_Init+0x20e>
 800112e:	687b      	ldr	r3, [r7, #4]
 8001130:	4a4b      	ldr	r2, [pc, #300]	; (8001260 <HAL_GPIO_Init+0x330>)
 8001132:	4293      	cmp	r3, r2
 8001134:	d101      	bne.n	800113a <HAL_GPIO_Init+0x20a>
 8001136:	2307      	movs	r3, #7
 8001138:	e00e      	b.n	8001158 <HAL_GPIO_Init+0x228>
 800113a:	2308      	movs	r3, #8
 800113c:	e00c      	b.n	8001158 <HAL_GPIO_Init+0x228>
 800113e:	2306      	movs	r3, #6
 8001140:	e00a      	b.n	8001158 <HAL_GPIO_Init+0x228>
 8001142:	2305      	movs	r3, #5
 8001144:	e008      	b.n	8001158 <HAL_GPIO_Init+0x228>
 8001146:	2304      	movs	r3, #4
 8001148:	e006      	b.n	8001158 <HAL_GPIO_Init+0x228>
 800114a:	2303      	movs	r3, #3
 800114c:	e004      	b.n	8001158 <HAL_GPIO_Init+0x228>
 800114e:	2302      	movs	r3, #2
 8001150:	e002      	b.n	8001158 <HAL_GPIO_Init+0x228>
 8001152:	2301      	movs	r3, #1
 8001154:	e000      	b.n	8001158 <HAL_GPIO_Init+0x228>
 8001156:	2300      	movs	r3, #0
 8001158:	69fa      	ldr	r2, [r7, #28]
 800115a:	f002 0203 	and.w	r2, r2, #3
 800115e:	0092      	lsls	r2, r2, #2
 8001160:	4093      	lsls	r3, r2
 8001162:	69ba      	ldr	r2, [r7, #24]
 8001164:	4313      	orrs	r3, r2
 8001166:	61bb      	str	r3, [r7, #24]
        SYSCFG->EXTICR[position >> 2U] = temp;
 8001168:	4935      	ldr	r1, [pc, #212]	; (8001240 <HAL_GPIO_Init+0x310>)
 800116a:	69fb      	ldr	r3, [r7, #28]
 800116c:	089b      	lsrs	r3, r3, #2
 800116e:	3302      	adds	r3, #2
 8001170:	69ba      	ldr	r2, [r7, #24]
 8001172:	f841 2023 	str.w	r2, [r1, r3, lsl #2]

        /* Clear EXTI line configuration */
        temp = EXTI->IMR;
 8001176:	4b3b      	ldr	r3, [pc, #236]	; (8001264 <HAL_GPIO_Init+0x334>)
 8001178:	681b      	ldr	r3, [r3, #0]
 800117a:	61bb      	str	r3, [r7, #24]
        temp &= ~((uint32_t)iocurrent);
 800117c:	693b      	ldr	r3, [r7, #16]
 800117e:	43db      	mvns	r3, r3
 8001180:	69ba      	ldr	r2, [r7, #24]
 8001182:	4013      	ands	r3, r2
 8001184:	61bb      	str	r3, [r7, #24]
        if((GPIO_Init->Mode & EXTI_IT) != 0x00U)
 8001186:	683b      	ldr	r3, [r7, #0]
 8001188:	685b      	ldr	r3, [r3, #4]
 800118a:	f403 3380 	and.w	r3, r3, #65536	; 0x10000
 800118e:	2b00      	cmp	r3, #0
 8001190:	d003      	beq.n	800119a <HAL_GPIO_Init+0x26a>
        {
          temp |= iocurrent;
 8001192:	69ba      	ldr	r2, [r7, #24]
 8001194:	693b      	ldr	r3, [r7, #16]
 8001196:	4313      	orrs	r3, r2
 8001198:	61bb      	str	r3, [r7, #24]
        }
        EXTI->IMR = temp;
 800119a:	4a32      	ldr	r2, [pc, #200]	; (8001264 <HAL_GPIO_Init+0x334>)
 800119c:	69bb      	ldr	r3, [r7, #24]
 800119e:	6013      	str	r3, [r2, #0]

        temp = EXTI->EMR;
 80011a0:	4b30      	ldr	r3, [pc, #192]	; (8001264 <HAL_GPIO_Init+0x334>)
 80011a2:	685b      	ldr	r3, [r3, #4]
 80011a4:	61bb      	str	r3, [r7, #24]
        temp &= ~((uint32_t)iocurrent);
 80011a6:	693b      	ldr	r3, [r7, #16]
 80011a8:	43db      	mvns	r3, r3
 80011aa:	69ba      	ldr	r2, [r7, #24]
 80011ac:	4013      	ands	r3, r2
 80011ae:	61bb      	str	r3, [r7, #24]
        if((GPIO_Init->Mode & EXTI_EVT) != 0x00U)
 80011b0:	683b      	ldr	r3, [r7, #0]
 80011b2:	685b      	ldr	r3, [r3, #4]
 80011b4:	f403 3300 	and.w	r3, r3, #131072	; 0x20000
 80011b8:	2b00      	cmp	r3, #0
 80011ba:	d003      	beq.n	80011c4 <HAL_GPIO_Init+0x294>
        {
          temp |= iocurrent;
 80011bc:	69ba      	ldr	r2, [r7, #24]
 80011be:	693b      	ldr	r3, [r7, #16]
 80011c0:	4313      	orrs	r3, r2
 80011c2:	61bb      	str	r3, [r7, #24]
        }
        EXTI->EMR = temp;
 80011c4:	4a27      	ldr	r2, [pc, #156]	; (8001264 <HAL_GPIO_Init+0x334>)
 80011c6:	69bb      	ldr	r3, [r7, #24]
 80011c8:	6053      	str	r3, [r2, #4]

        /* Clear Rising Falling edge configuration */
        temp = EXTI->RTSR;
 80011ca:	4b26      	ldr	r3, [pc, #152]	; (8001264 <HAL_GPIO_Init+0x334>)
 80011cc:	689b      	ldr	r3, [r3, #8]
 80011ce:	61bb      	str	r3, [r7, #24]
        temp &= ~((uint32_t)iocurrent);
 80011d0:	693b      	ldr	r3, [r7, #16]
 80011d2:	43db      	mvns	r3, r3
 80011d4:	69ba      	ldr	r2, [r7, #24]
 80011d6:	4013      	ands	r3, r2
 80011d8:	61bb      	str	r3, [r7, #24]
        if((GPIO_Init->Mode & TRIGGER_RISING) != 0x00U)
 80011da:	683b      	ldr	r3, [r7, #0]
 80011dc:	685b      	ldr	r3, [r3, #4]
 80011de:	f403 1380 	and.w	r3, r3, #1048576	; 0x100000
 80011e2:	2b00      	cmp	r3, #0
 80011e4:	d003      	beq.n	80011ee <HAL_GPIO_Init+0x2be>
        {
          temp |= iocurrent;
 80011e6:	69ba      	ldr	r2, [r7, #24]
 80011e8:	693b      	ldr	r3, [r7, #16]
 80011ea:	4313      	orrs	r3, r2
 80011ec:	61bb      	str	r3, [r7, #24]
        }
        EXTI->RTSR = temp;
 80011ee:	4a1d      	ldr	r2, [pc, #116]	; (8001264 <HAL_GPIO_Init+0x334>)
 80011f0:	69bb      	ldr	r3, [r7, #24]
 80011f2:	6093      	str	r3, [r2, #8]

        temp = EXTI->FTSR;
 80011f4:	4b1b      	ldr	r3, [pc, #108]	; (8001264 <HAL_GPIO_Init+0x334>)
 80011f6:	68db      	ldr	r3, [r3, #12]
 80011f8:	61bb      	str	r3, [r7, #24]
        temp &= ~((uint32_t)iocurrent);
 80011fa:	693b      	ldr	r3, [r7, #16]
 80011fc:	43db      	mvns	r3, r3
 80011fe:	69ba      	ldr	r2, [r7, #24]
 8001200:	4013      	ands	r3, r2
 8001202:	61bb      	str	r3, [r7, #24]
        if((GPIO_Init->Mode & TRIGGER_FALLING) != 0x00U)
 8001204:	683b      	ldr	r3, [r7, #0]
 8001206:	685b      	ldr	r3, [r3, #4]
 8001208:	f403 1300 	and.w	r3, r3, #2097152	; 0x200000
 800120c:	2b00      	cmp	r3, #0
 800120e:	d003      	beq.n	8001218 <HAL_GPIO_Init+0x2e8>
        {
          temp |= iocurrent;
 8001210:	69ba      	ldr	r2, [r7, #24]
 8001212:	693b      	ldr	r3, [r7, #16]
 8001214:	4313      	orrs	r3, r2
 8001216:	61bb      	str	r3, [r7, #24]
        }
        EXTI->FTSR = temp;
 8001218:	4a12      	ldr	r2, [pc, #72]	; (8001264 <HAL_GPIO_Init+0x334>)
 800121a:	69bb      	ldr	r3, [r7, #24]
 800121c:	60d3      	str	r3, [r2, #12]
  for(position = 0U; position < GPIO_NUMBER; position++)
 800121e:	69fb      	ldr	r3, [r7, #28]
 8001220:	3301      	adds	r3, #1
 8001222:	61fb      	str	r3, [r7, #28]
 8001224:	69fb      	ldr	r3, [r7, #28]
 8001226:	2b0f      	cmp	r3, #15
 8001228:	f67f ae90 	bls.w	8000f4c <HAL_GPIO_Init+0x1c>
      }
    }
  }
}
 800122c:	bf00      	nop
 800122e:	bf00      	nop
 8001230:	3724      	adds	r7, #36	; 0x24
 8001232:	46bd      	mov	sp, r7
 8001234:	f85d 7b04 	ldr.w	r7, [sp], #4
 8001238:	4770      	bx	lr
 800123a:	bf00      	nop
 800123c:	40023800 	.word	0x40023800
 8001240:	40013800 	.word	0x40013800
 8001244:	40020000 	.word	0x40020000
 8001248:	40020400 	.word	0x40020400
 800124c:	40020800 	.word	0x40020800
 8001250:	40020c00 	.word	0x40020c00
 8001254:	40021000 	.word	0x40021000
 8001258:	40021400 	.word	0x40021400
 800125c:	40021800 	.word	0x40021800
 8001260:	40021c00 	.word	0x40021c00
 8001264:	40013c00 	.word	0x40013c00

08001268 <HAL_GPIO_WritePin>:
  *            @arg GPIO_PIN_RESET: to clear the port pin
  *            @arg GPIO_PIN_SET: to set the port pin
  * @retval None
  */
void HAL_GPIO_WritePin(GPIO_TypeDef* GPIOx, uint16_t GPIO_Pin, GPIO_PinState PinState)
{
 8001268:	b480      	push	{r7}
 800126a:	b083      	sub	sp, #12
 800126c:	af00      	add	r7, sp, #0
 800126e:	6078      	str	r0, [r7, #4]
 8001270:	460b      	mov	r3, r1
 8001272:	807b      	strh	r3, [r7, #2]
 8001274:	4613      	mov	r3, r2
 8001276:	707b      	strb	r3, [r7, #1]
  /* Check the parameters */
  assert_param(IS_GPIO_PIN(GPIO_Pin));
  assert_param(IS_GPIO_PIN_ACTION(PinState));

  if(PinState != GPIO_PIN_RESET)
 8001278:	787b      	ldrb	r3, [r7, #1]
 800127a:	2b00      	cmp	r3, #0
 800127c:	d003      	beq.n	8001286 <HAL_GPIO_WritePin+0x1e>
  {
    GPIOx->BSRR = GPIO_Pin;
 800127e:	887a      	ldrh	r2, [r7, #2]
 8001280:	687b      	ldr	r3, [r7, #4]
 8001282:	619a      	str	r2, [r3, #24]
  }
  else
  {
    GPIOx->BSRR = (uint32_t)GPIO_Pin << 16U;
  }
}
 8001284:	e003      	b.n	800128e <HAL_GPIO_WritePin+0x26>
    GPIOx->BSRR = (uint32_t)GPIO_Pin << 16U;
 8001286:	887b      	ldrh	r3, [r7, #2]
 8001288:	041a      	lsls	r2, r3, #16
 800128a:	687b      	ldr	r3, [r7, #4]
 800128c:	619a      	str	r2, [r3, #24]
}
 800128e:	bf00      	nop
 8001290:	370c      	adds	r7, #12
 8001292:	46bd      	mov	sp, r7
 8001294:	f85d 7b04 	ldr.w	r7, [sp], #4
 8001298:	4770      	bx	lr
	...

0800129c <HAL_GPIO_EXTI_IRQHandler>:
  * @brief  This function handles EXTI interrupt request.
  * @param  GPIO_Pin Specifies the pins connected EXTI line
  * @retval None
  */
void HAL_GPIO_EXTI_IRQHandler(uint16_t GPIO_Pin)
{
 800129c:	b580      	push	{r7, lr}
 800129e:	b082      	sub	sp, #8
 80012a0:	af00      	add	r7, sp, #0
 80012a2:	4603      	mov	r3, r0
 80012a4:	80fb      	strh	r3, [r7, #6]
  /* EXTI line interrupt detected */
  if(__HAL_GPIO_EXTI_GET_IT(GPIO_Pin) != RESET)
 80012a6:	4b08      	ldr	r3, [pc, #32]	; (80012c8 <HAL_GPIO_EXTI_IRQHandler+0x2c>)
 80012a8:	695a      	ldr	r2, [r3, #20]
 80012aa:	88fb      	ldrh	r3, [r7, #6]
 80012ac:	4013      	ands	r3, r2
 80012ae:	2b00      	cmp	r3, #0
 80012b0:	d006      	beq.n	80012c0 <HAL_GPIO_EXTI_IRQHandler+0x24>
  {
    __HAL_GPIO_EXTI_CLEAR_IT(GPIO_Pin);
 80012b2:	4a05      	ldr	r2, [pc, #20]	; (80012c8 <HAL_GPIO_EXTI_IRQHandler+0x2c>)
 80012b4:	88fb      	ldrh	r3, [r7, #6]
 80012b6:	6153      	str	r3, [r2, #20]
    HAL_GPIO_EXTI_Callback(GPIO_Pin);
 80012b8:	88fb      	ldrh	r3, [r7, #6]
 80012ba:	4618      	mov	r0, r3
 80012bc:	f000 f806 	bl	80012cc <HAL_GPIO_EXTI_Callback>
  }
}
 80012c0:	bf00      	nop
 80012c2:	3708      	adds	r7, #8
 80012c4:	46bd      	mov	sp, r7
 80012c6:	bd80      	pop	{r7, pc}
 80012c8:	40013c00 	.word	0x40013c00

080012cc <HAL_GPIO_EXTI_Callback>:
  * @brief  EXTI line detection callbacks.
  * @param  GPIO_Pin Specifies the pins connected EXTI line
  * @retval None
  */
__weak void HAL_GPIO_EXTI_Callback(uint16_t GPIO_Pin)
{
 80012cc:	b480      	push	{r7}
 80012ce:	b083      	sub	sp, #12
 80012d0:	af00      	add	r7, sp, #0
 80012d2:	4603      	mov	r3, r0
 80012d4:	80fb      	strh	r3, [r7, #6]
  /* Prevent unused argument(s) compilation warning */
  UNUSED(GPIO_Pin);
  /* NOTE: This function Should not be modified, when the callback is needed,
           the HAL_GPIO_EXTI_Callback could be implemented in the user file
   */
}
 80012d6:	bf00      	nop
 80012d8:	370c      	adds	r7, #12
 80012da:	46bd      	mov	sp, r7
 80012dc:	f85d 7b04 	ldr.w	r7, [sp], #4
 80012e0:	4770      	bx	lr
	...

080012e4 <HAL_I2C_Init>:
  * @param  hi2c Pointer to a I2C_HandleTypeDef structure that contains
  *                the configuration information for the specified I2C.
  * @retval HAL status
  */
HAL_StatusTypeDef HAL_I2C_Init(I2C_HandleTypeDef *hi2c)
{
 80012e4:	b580      	push	{r7, lr}
 80012e6:	b084      	sub	sp, #16
 80012e8:	af00      	add	r7, sp, #0
 80012ea:	6078      	str	r0, [r7, #4]
  uint32_t freqrange;
  uint32_t pclk1;

  /* Check the I2C handle allocation */
  if (hi2c == NULL)
 80012ec:	687b      	ldr	r3, [r7, #4]
 80012ee:	2b00      	cmp	r3, #0
 80012f0:	d101      	bne.n	80012f6 <HAL_I2C_Init+0x12>
  {
    return HAL_ERROR;
 80012f2:	2301      	movs	r3, #1
 80012f4:	e12b      	b.n	800154e <HAL_I2C_Init+0x26a>
  assert_param(IS_I2C_DUAL_ADDRESS(hi2c->Init.DualAddressMode));
  assert_param(IS_I2C_OWN_ADDRESS2(hi2c->Init.OwnAddress2));
  assert_param(IS_I2C_GENERAL_CALL(hi2c->Init.GeneralCallMode));
  assert_param(IS_I2C_NO_STRETCH(hi2c->Init.NoStretchMode));

  if (hi2c->State == HAL_I2C_STATE_RESET)
 80012f6:	687b      	ldr	r3, [r7, #4]
 80012f8:	f893 303d 	ldrb.w	r3, [r3, #61]	; 0x3d
 80012fc:	b2db      	uxtb	r3, r3
 80012fe:	2b00      	cmp	r3, #0
 8001300:	d106      	bne.n	8001310 <HAL_I2C_Init+0x2c>
  {
    /* Allocate lock resource and initialize it */
    hi2c->Lock = HAL_UNLOCKED;
 8001302:	687b      	ldr	r3, [r7, #4]
 8001304:	2200      	movs	r2, #0
 8001306:	f883 203c 	strb.w	r2, [r3, #60]	; 0x3c

    /* Init the low level hardware : GPIO, CLOCK, NVIC */
    hi2c->MspInitCallback(hi2c);
#else
    /* Init the low level hardware : GPIO, CLOCK, NVIC */
    HAL_I2C_MspInit(hi2c);
 800130a:	6878      	ldr	r0, [r7, #4]
 800130c:	f7ff fafc 	bl	8000908 <HAL_I2C_MspInit>
#endif /* USE_HAL_I2C_REGISTER_CALLBACKS */
  }

  hi2c->State = HAL_I2C_STATE_BUSY;
 8001310:	687b      	ldr	r3, [r7, #4]
 8001312:	2224      	movs	r2, #36	; 0x24
 8001314:	f883 203d 	strb.w	r2, [r3, #61]	; 0x3d

  /* Disable the selected I2C peripheral */
  __HAL_I2C_DISABLE(hi2c);
 8001318:	687b      	ldr	r3, [r7, #4]
 800131a:	681b      	ldr	r3, [r3, #0]
 800131c:	681a      	ldr	r2, [r3, #0]
 800131e:	687b      	ldr	r3, [r7, #4]
 8001320:	681b      	ldr	r3, [r3, #0]
 8001322:	f022 0201 	bic.w	r2, r2, #1
 8001326:	601a      	str	r2, [r3, #0]

  /*Reset I2C*/
  hi2c->Instance->CR1 |= I2C_CR1_SWRST;
 8001328:	687b      	ldr	r3, [r7, #4]
 800132a:	681b      	ldr	r3, [r3, #0]
 800132c:	681a      	ldr	r2, [r3, #0]
 800132e:	687b      	ldr	r3, [r7, #4]
 8001330:	681b      	ldr	r3, [r3, #0]
 8001332:	f442 4200 	orr.w	r2, r2, #32768	; 0x8000
 8001336:	601a      	str	r2, [r3, #0]
  hi2c->Instance->CR1 &= ~I2C_CR1_SWRST;
 8001338:	687b      	ldr	r3, [r7, #4]
 800133a:	681b      	ldr	r3, [r3, #0]
 800133c:	681a      	ldr	r2, [r3, #0]
 800133e:	687b      	ldr	r3, [r7, #4]
 8001340:	681b      	ldr	r3, [r3, #0]
 8001342:	f422 4200 	bic.w	r2, r2, #32768	; 0x8000
 8001346:	601a      	str	r2, [r3, #0]

  /* Get PCLK1 frequency */
  pclk1 = HAL_RCC_GetPCLK1Freq();
 8001348:	f002 fe62 	bl	8004010 <HAL_RCC_GetPCLK1Freq>
 800134c:	60f8      	str	r0, [r7, #12]

  /* Check the minimum allowed PCLK1 frequency */
  if (I2C_MIN_PCLK_FREQ(pclk1, hi2c->Init.ClockSpeed) == 1U)
 800134e:	687b      	ldr	r3, [r7, #4]
 8001350:	685b      	ldr	r3, [r3, #4]
 8001352:	4a81      	ldr	r2, [pc, #516]	; (8001558 <HAL_I2C_Init+0x274>)
 8001354:	4293      	cmp	r3, r2
 8001356:	d807      	bhi.n	8001368 <HAL_I2C_Init+0x84>
 8001358:	68fb      	ldr	r3, [r7, #12]
 800135a:	4a80      	ldr	r2, [pc, #512]	; (800155c <HAL_I2C_Init+0x278>)
 800135c:	4293      	cmp	r3, r2
 800135e:	bf94      	ite	ls
 8001360:	2301      	movls	r3, #1
 8001362:	2300      	movhi	r3, #0
 8001364:	b2db      	uxtb	r3, r3
 8001366:	e006      	b.n	8001376 <HAL_I2C_Init+0x92>
 8001368:	68fb      	ldr	r3, [r7, #12]
 800136a:	4a7d      	ldr	r2, [pc, #500]	; (8001560 <HAL_I2C_Init+0x27c>)
 800136c:	4293      	cmp	r3, r2
 800136e:	bf94      	ite	ls
 8001370:	2301      	movls	r3, #1
 8001372:	2300      	movhi	r3, #0
 8001374:	b2db      	uxtb	r3, r3
 8001376:	2b00      	cmp	r3, #0
 8001378:	d001      	beq.n	800137e <HAL_I2C_Init+0x9a>
  {
    return HAL_ERROR;
 800137a:	2301      	movs	r3, #1
 800137c:	e0e7      	b.n	800154e <HAL_I2C_Init+0x26a>
  }

  /* Calculate frequency range */
  freqrange = I2C_FREQRANGE(pclk1);
 800137e:	68fb      	ldr	r3, [r7, #12]
 8001380:	4a78      	ldr	r2, [pc, #480]	; (8001564 <HAL_I2C_Init+0x280>)
 8001382:	fba2 2303 	umull	r2, r3, r2, r3
 8001386:	0c9b      	lsrs	r3, r3, #18
 8001388:	60bb      	str	r3, [r7, #8]

  /*---------------------------- I2Cx CR2 Configuration ----------------------*/
  /* Configure I2Cx: Frequency range */
  MODIFY_REG(hi2c->Instance->CR2, I2C_CR2_FREQ, freqrange);
 800138a:	687b      	ldr	r3, [r7, #4]
 800138c:	681b      	ldr	r3, [r3, #0]
 800138e:	685b      	ldr	r3, [r3, #4]
 8001390:	f023 013f 	bic.w	r1, r3, #63	; 0x3f
 8001394:	687b      	ldr	r3, [r7, #4]
 8001396:	681b      	ldr	r3, [r3, #0]
 8001398:	68ba      	ldr	r2, [r7, #8]
 800139a:	430a      	orrs	r2, r1
 800139c:	605a      	str	r2, [r3, #4]

  /*---------------------------- I2Cx TRISE Configuration --------------------*/
  /* Configure I2Cx: Rise Time */
  MODIFY_REG(hi2c->Instance->TRISE, I2C_TRISE_TRISE, I2C_RISE_TIME(freqrange, hi2c->Init.ClockSpeed));
 800139e:	687b      	ldr	r3, [r7, #4]
 80013a0:	681b      	ldr	r3, [r3, #0]
 80013a2:	6a1b      	ldr	r3, [r3, #32]
 80013a4:	f023 013f 	bic.w	r1, r3, #63	; 0x3f
 80013a8:	687b      	ldr	r3, [r7, #4]
 80013aa:	685b      	ldr	r3, [r3, #4]
 80013ac:	4a6a      	ldr	r2, [pc, #424]	; (8001558 <HAL_I2C_Init+0x274>)
 80013ae:	4293      	cmp	r3, r2
 80013b0:	d802      	bhi.n	80013b8 <HAL_I2C_Init+0xd4>
 80013b2:	68bb      	ldr	r3, [r7, #8]
 80013b4:	3301      	adds	r3, #1
 80013b6:	e009      	b.n	80013cc <HAL_I2C_Init+0xe8>
 80013b8:	68bb      	ldr	r3, [r7, #8]
 80013ba:	f44f 7296 	mov.w	r2, #300	; 0x12c
 80013be:	fb02 f303 	mul.w	r3, r2, r3
 80013c2:	4a69      	ldr	r2, [pc, #420]	; (8001568 <HAL_I2C_Init+0x284>)
 80013c4:	fba2 2303 	umull	r2, r3, r2, r3
 80013c8:	099b      	lsrs	r3, r3, #6
 80013ca:	3301      	adds	r3, #1
 80013cc:	687a      	ldr	r2, [r7, #4]
 80013ce:	6812      	ldr	r2, [r2, #0]
 80013d0:	430b      	orrs	r3, r1
 80013d2:	6213      	str	r3, [r2, #32]

  /*---------------------------- I2Cx CCR Configuration ----------------------*/
  /* Configure I2Cx: Speed */
  MODIFY_REG(hi2c->Instance->CCR, (I2C_CCR_FS | I2C_CCR_DUTY | I2C_CCR_CCR), I2C_SPEED(pclk1, hi2c->Init.ClockSpeed, hi2c->Init.DutyCycle));
 80013d4:	687b      	ldr	r3, [r7, #4]
 80013d6:	681b      	ldr	r3, [r3, #0]
 80013d8:	69db      	ldr	r3, [r3, #28]
 80013da:	f423 424f 	bic.w	r2, r3, #52992	; 0xcf00
 80013de:	f022 02ff 	bic.w	r2, r2, #255	; 0xff
 80013e2:	687b      	ldr	r3, [r7, #4]
 80013e4:	685b      	ldr	r3, [r3, #4]
 80013e6:	495c      	ldr	r1, [pc, #368]	; (8001558 <HAL_I2C_Init+0x274>)
 80013e8:	428b      	cmp	r3, r1
 80013ea:	d819      	bhi.n	8001420 <HAL_I2C_Init+0x13c>
 80013ec:	68fb      	ldr	r3, [r7, #12]
 80013ee:	1e59      	subs	r1, r3, #1
 80013f0:	687b      	ldr	r3, [r7, #4]
 80013f2:	685b      	ldr	r3, [r3, #4]
 80013f4:	005b      	lsls	r3, r3, #1
 80013f6:	fbb1 f3f3 	udiv	r3, r1, r3
 80013fa:	1c59      	adds	r1, r3, #1
 80013fc:	f640 73fc 	movw	r3, #4092	; 0xffc
 8001400:	400b      	ands	r3, r1
 8001402:	2b00      	cmp	r3, #0
 8001404:	d00a      	beq.n	800141c <HAL_I2C_Init+0x138>
 8001406:	68fb      	ldr	r3, [r7, #12]
 8001408:	1e59      	subs	r1, r3, #1
 800140a:	687b      	ldr	r3, [r7, #4]
 800140c:	685b      	ldr	r3, [r3, #4]
 800140e:	005b      	lsls	r3, r3, #1
 8001410:	fbb1 f3f3 	udiv	r3, r1, r3
 8001414:	3301      	adds	r3, #1
 8001416:	f3c3 030b 	ubfx	r3, r3, #0, #12
 800141a:	e051      	b.n	80014c0 <HAL_I2C_Init+0x1dc>
 800141c:	2304      	movs	r3, #4
 800141e:	e04f      	b.n	80014c0 <HAL_I2C_Init+0x1dc>
 8001420:	687b      	ldr	r3, [r7, #4]
 8001422:	689b      	ldr	r3, [r3, #8]
 8001424:	2b00      	cmp	r3, #0
 8001426:	d111      	bne.n	800144c <HAL_I2C_Init+0x168>
 8001428:	68fb      	ldr	r3, [r7, #12]
 800142a:	1e58      	subs	r0, r3, #1
 800142c:	687b      	ldr	r3, [r7, #4]
 800142e:	6859      	ldr	r1, [r3, #4]
 8001430:	460b      	mov	r3, r1
 8001432:	005b      	lsls	r3, r3, #1
 8001434:	440b      	add	r3, r1
 8001436:	fbb0 f3f3 	udiv	r3, r0, r3
 800143a:	3301      	adds	r3, #1
 800143c:	f3c3 030b 	ubfx	r3, r3, #0, #12
 8001440:	2b00      	cmp	r3, #0
 8001442:	bf0c      	ite	eq
 8001444:	2301      	moveq	r3, #1
 8001446:	2300      	movne	r3, #0
 8001448:	b2db      	uxtb	r3, r3
 800144a:	e012      	b.n	8001472 <HAL_I2C_Init+0x18e>
 800144c:	68fb      	ldr	r3, [r7, #12]
 800144e:	1e58      	subs	r0, r3, #1
 8001450:	687b      	ldr	r3, [r7, #4]
 8001452:	6859      	ldr	r1, [r3, #4]
 8001454:	460b      	mov	r3, r1
 8001456:	009b      	lsls	r3, r3, #2
 8001458:	440b      	add	r3, r1
 800145a:	0099      	lsls	r1, r3, #2
 800145c:	440b      	add	r3, r1
 800145e:	fbb0 f3f3 	udiv	r3, r0, r3
 8001462:	3301      	adds	r3, #1
 8001464:	f3c3 030b 	ubfx	r3, r3, #0, #12
 8001468:	2b00      	cmp	r3, #0
 800146a:	bf0c      	ite	eq
 800146c:	2301      	moveq	r3, #1
 800146e:	2300      	movne	r3, #0
 8001470:	b2db      	uxtb	r3, r3
 8001472:	2b00      	cmp	r3, #0
 8001474:	d001      	beq.n	800147a <HAL_I2C_Init+0x196>
 8001476:	2301      	movs	r3, #1
 8001478:	e022      	b.n	80014c0 <HAL_I2C_Init+0x1dc>
 800147a:	687b      	ldr	r3, [r7, #4]
 800147c:	689b      	ldr	r3, [r3, #8]
 800147e:	2b00      	cmp	r3, #0
 8001480:	d10e      	bne.n	80014a0 <HAL_I2C_Init+0x1bc>
 8001482:	68fb      	ldr	r3, [r7, #12]
 8001484:	1e58      	subs	r0, r3, #1
 8001486:	687b      	ldr	r3, [r7, #4]
 8001488:	6859      	ldr	r1, [r3, #4]
 800148a:	460b      	mov	r3, r1
 800148c:	005b      	lsls	r3, r3, #1
 800148e:	440b      	add	r3, r1
 8001490:	fbb0 f3f3 	udiv	r3, r0, r3
 8001494:	3301      	adds	r3, #1
 8001496:	f3c3 030b 	ubfx	r3, r3, #0, #12
 800149a:	f443 4300 	orr.w	r3, r3, #32768	; 0x8000
 800149e:	e00f      	b.n	80014c0 <HAL_I2C_Init+0x1dc>
 80014a0:	68fb      	ldr	r3, [r7, #12]
 80014a2:	1e58      	subs	r0, r3, #1
 80014a4:	687b      	ldr	r3, [r7, #4]
 80014a6:	6859      	ldr	r1, [r3, #4]
 80014a8:	460b      	mov	r3, r1
 80014aa:	009b      	lsls	r3, r3, #2
 80014ac:	440b      	add	r3, r1
 80014ae:	0099      	lsls	r1, r3, #2
 80014b0:	440b      	add	r3, r1
 80014b2:	fbb0 f3f3 	udiv	r3, r0, r3
 80014b6:	3301      	adds	r3, #1
 80014b8:	f3c3 030b 	ubfx	r3, r3, #0, #12
 80014bc:	f443 4340 	orr.w	r3, r3, #49152	; 0xc000
 80014c0:	6879      	ldr	r1, [r7, #4]
 80014c2:	6809      	ldr	r1, [r1, #0]
 80014c4:	4313      	orrs	r3, r2
 80014c6:	61cb      	str	r3, [r1, #28]

  /*---------------------------- I2Cx CR1 Configuration ----------------------*/
  /* Configure I2Cx: Generalcall and NoStretch mode */
  MODIFY_REG(hi2c->Instance->CR1, (I2C_CR1_ENGC | I2C_CR1_NOSTRETCH), (hi2c->Init.GeneralCallMode | hi2c->Init.NoStretchMode));
 80014c8:	687b      	ldr	r3, [r7, #4]
 80014ca:	681b      	ldr	r3, [r3, #0]
 80014cc:	681b      	ldr	r3, [r3, #0]
 80014ce:	f023 01c0 	bic.w	r1, r3, #192	; 0xc0
 80014d2:	687b      	ldr	r3, [r7, #4]
 80014d4:	69da      	ldr	r2, [r3, #28]
 80014d6:	687b      	ldr	r3, [r7, #4]
 80014d8:	6a1b      	ldr	r3, [r3, #32]
 80014da:	431a      	orrs	r2, r3
 80014dc:	687b      	ldr	r3, [r7, #4]
 80014de:	681b      	ldr	r3, [r3, #0]
 80014e0:	430a      	orrs	r2, r1
 80014e2:	601a      	str	r2, [r3, #0]

  /*---------------------------- I2Cx OAR1 Configuration ---------------------*/
  /* Configure I2Cx: Own Address1 and addressing mode */
  MODIFY_REG(hi2c->Instance->OAR1, (I2C_OAR1_ADDMODE | I2C_OAR1_ADD8_9 | I2C_OAR1_ADD1_7 | I2C_OAR1_ADD0), (hi2c->Init.AddressingMode | hi2c->Init.OwnAddress1));
 80014e4:	687b      	ldr	r3, [r7, #4]
 80014e6:	681b      	ldr	r3, [r3, #0]
 80014e8:	689b      	ldr	r3, [r3, #8]
 80014ea:	f423 4303 	bic.w	r3, r3, #33536	; 0x8300
 80014ee:	f023 03ff 	bic.w	r3, r3, #255	; 0xff
 80014f2:	687a      	ldr	r2, [r7, #4]
 80014f4:	6911      	ldr	r1, [r2, #16]
 80014f6:	687a      	ldr	r2, [r7, #4]
 80014f8:	68d2      	ldr	r2, [r2, #12]
 80014fa:	4311      	orrs	r1, r2
 80014fc:	687a      	ldr	r2, [r7, #4]
 80014fe:	6812      	ldr	r2, [r2, #0]
 8001500:	430b      	orrs	r3, r1
 8001502:	6093      	str	r3, [r2, #8]

  /*---------------------------- I2Cx OAR2 Configuration ---------------------*/
  /* Configure I2Cx: Dual mode and Own Address2 */
  MODIFY_REG(hi2c->Instance->OAR2, (I2C_OAR2_ENDUAL | I2C_OAR2_ADD2), (hi2c->Init.DualAddressMode | hi2c->Init.OwnAddress2));
 8001504:	687b      	ldr	r3, [r7, #4]
 8001506:	681b      	ldr	r3, [r3, #0]
 8001508:	68db      	ldr	r3, [r3, #12]
 800150a:	f023 01ff 	bic.w	r1, r3, #255	; 0xff
 800150e:	687b      	ldr	r3, [r7, #4]
 8001510:	695a      	ldr	r2, [r3, #20]
 8001512:	687b      	ldr	r3, [r7, #4]
 8001514:	699b      	ldr	r3, [r3, #24]
 8001516:	431a      	orrs	r2, r3
 8001518:	687b      	ldr	r3, [r7, #4]
 800151a:	681b      	ldr	r3, [r3, #0]
 800151c:	430a      	orrs	r2, r1
 800151e:	60da      	str	r2, [r3, #12]

  /* Enable the selected I2C peripheral */
  __HAL_I2C_ENABLE(hi2c);
 8001520:	687b      	ldr	r3, [r7, #4]
 8001522:	681b      	ldr	r3, [r3, #0]
 8001524:	681a      	ldr	r2, [r3, #0]
 8001526:	687b      	ldr	r3, [r7, #4]
 8001528:	681b      	ldr	r3, [r3, #0]
 800152a:	f042 0201 	orr.w	r2, r2, #1
 800152e:	601a      	str	r2, [r3, #0]

  hi2c->ErrorCode = HAL_I2C_ERROR_NONE;
 8001530:	687b      	ldr	r3, [r7, #4]
 8001532:	2200      	movs	r2, #0
 8001534:	641a      	str	r2, [r3, #64]	; 0x40
  hi2c->State = HAL_I2C_STATE_READY;
 8001536:	687b      	ldr	r3, [r7, #4]
 8001538:	2220      	movs	r2, #32
 800153a:	f883 203d 	strb.w	r2, [r3, #61]	; 0x3d
  hi2c->PreviousState = I2C_STATE_NONE;
 800153e:	687b      	ldr	r3, [r7, #4]
 8001540:	2200      	movs	r2, #0
 8001542:	631a      	str	r2, [r3, #48]	; 0x30
  hi2c->Mode = HAL_I2C_MODE_NONE;
 8001544:	687b      	ldr	r3, [r7, #4]
 8001546:	2200      	movs	r2, #0
 8001548:	f883 203e 	strb.w	r2, [r3, #62]	; 0x3e

  return HAL_OK;
 800154c:	2300      	movs	r3, #0
}
 800154e:	4618      	mov	r0, r3
 8001550:	3710      	adds	r7, #16
 8001552:	46bd      	mov	sp, r7
 8001554:	bd80      	pop	{r7, pc}
 8001556:	bf00      	nop
 8001558:	000186a0 	.word	0x000186a0
 800155c:	001e847f 	.word	0x001e847f
 8001560:	003d08ff 	.word	0x003d08ff
 8001564:	431bde83 	.word	0x431bde83
 8001568:	10624dd3 	.word	0x10624dd3

0800156c <HAL_I2C_Master_Transmit>:
  * @param  Size Amount of data to be sent
  * @param  Timeout Timeout duration
  * @retval HAL status
  */
HAL_StatusTypeDef HAL_I2C_Master_Transmit(I2C_HandleTypeDef *hi2c, uint16_t DevAddress, uint8_t *pData, uint16_t Size, uint32_t Timeout)
{
 800156c:	b580      	push	{r7, lr}
 800156e:	b088      	sub	sp, #32
 8001570:	af02      	add	r7, sp, #8
 8001572:	60f8      	str	r0, [r7, #12]
 8001574:	607a      	str	r2, [r7, #4]
 8001576:	461a      	mov	r2, r3
 8001578:	460b      	mov	r3, r1
 800157a:	817b      	strh	r3, [r7, #10]
 800157c:	4613      	mov	r3, r2
 800157e:	813b      	strh	r3, [r7, #8]
  /* Init tickstart for timeout management*/
  uint32_t tickstart = HAL_GetTick();
 8001580:	f7ff fb64 	bl	8000c4c <HAL_GetTick>
 8001584:	6178      	str	r0, [r7, #20]

  if (hi2c->State == HAL_I2C_STATE_READY)
 8001586:	68fb      	ldr	r3, [r7, #12]
 8001588:	f893 303d 	ldrb.w	r3, [r3, #61]	; 0x3d
 800158c:	b2db      	uxtb	r3, r3
 800158e:	2b20      	cmp	r3, #32
 8001590:	f040 80e0 	bne.w	8001754 <HAL_I2C_Master_Transmit+0x1e8>
  {
    /* Wait until BUSY flag is reset */
    if (I2C_WaitOnFlagUntilTimeout(hi2c, I2C_FLAG_BUSY, SET, I2C_TIMEOUT_BUSY_FLAG, tickstart) != HAL_OK)
 8001594:	697b      	ldr	r3, [r7, #20]
 8001596:	9300      	str	r3, [sp, #0]
 8001598:	2319      	movs	r3, #25
 800159a:	2201      	movs	r2, #1
 800159c:	4970      	ldr	r1, [pc, #448]	; (8001760 <HAL_I2C_Master_Transmit+0x1f4>)
 800159e:	68f8      	ldr	r0, [r7, #12]
 80015a0:	f001 ff16 	bl	80033d0 <I2C_WaitOnFlagUntilTimeout>
 80015a4:	4603      	mov	r3, r0
 80015a6:	2b00      	cmp	r3, #0
 80015a8:	d001      	beq.n	80015ae <HAL_I2C_Master_Transmit+0x42>
    {
      return HAL_BUSY;
 80015aa:	2302      	movs	r3, #2
 80015ac:	e0d3      	b.n	8001756 <HAL_I2C_Master_Transmit+0x1ea>
    }

    /* Process Locked */
    __HAL_LOCK(hi2c);
 80015ae:	68fb      	ldr	r3, [r7, #12]
 80015b0:	f893 303c 	ldrb.w	r3, [r3, #60]	; 0x3c
 80015b4:	2b01      	cmp	r3, #1
 80015b6:	d101      	bne.n	80015bc <HAL_I2C_Master_Transmit+0x50>
 80015b8:	2302      	movs	r3, #2
 80015ba:	e0cc      	b.n	8001756 <HAL_I2C_Master_Transmit+0x1ea>
 80015bc:	68fb      	ldr	r3, [r7, #12]
 80015be:	2201      	movs	r2, #1
 80015c0:	f883 203c 	strb.w	r2, [r3, #60]	; 0x3c

    /* Check if the I2C is already enabled */
    if ((hi2c->Instance->CR1 & I2C_CR1_PE) != I2C_CR1_PE)
 80015c4:	68fb      	ldr	r3, [r7, #12]
 80015c6:	681b      	ldr	r3, [r3, #0]
 80015c8:	681b      	ldr	r3, [r3, #0]
 80015ca:	f003 0301 	and.w	r3, r3, #1
 80015ce:	2b01      	cmp	r3, #1
 80015d0:	d007      	beq.n	80015e2 <HAL_I2C_Master_Transmit+0x76>
    {
      /* Enable I2C peripheral */
      __HAL_I2C_ENABLE(hi2c);
 80015d2:	68fb      	ldr	r3, [r7, #12]
 80015d4:	681b      	ldr	r3, [r3, #0]
 80015d6:	681a      	ldr	r2, [r3, #0]
 80015d8:	68fb      	ldr	r3, [r7, #12]
 80015da:	681b      	ldr	r3, [r3, #0]
 80015dc:	f042 0201 	orr.w	r2, r2, #1
 80015e0:	601a      	str	r2, [r3, #0]
    }

    /* Disable Pos */
    CLEAR_BIT(hi2c->Instance->CR1, I2C_CR1_POS);
 80015e2:	68fb      	ldr	r3, [r7, #12]
 80015e4:	681b      	ldr	r3, [r3, #0]
 80015e6:	681a      	ldr	r2, [r3, #0]
 80015e8:	68fb      	ldr	r3, [r7, #12]
 80015ea:	681b      	ldr	r3, [r3, #0]
 80015ec:	f422 6200 	bic.w	r2, r2, #2048	; 0x800
 80015f0:	601a      	str	r2, [r3, #0]

    hi2c->State       = HAL_I2C_STATE_BUSY_TX;
 80015f2:	68fb      	ldr	r3, [r7, #12]
 80015f4:	2221      	movs	r2, #33	; 0x21
 80015f6:	f883 203d 	strb.w	r2, [r3, #61]	; 0x3d
    hi2c->Mode        = HAL_I2C_MODE_MASTER;
 80015fa:	68fb      	ldr	r3, [r7, #12]
 80015fc:	2210      	movs	r2, #16
 80015fe:	f883 203e 	strb.w	r2, [r3, #62]	; 0x3e
    hi2c->ErrorCode   = HAL_I2C_ERROR_NONE;
 8001602:	68fb      	ldr	r3, [r7, #12]
 8001604:	2200      	movs	r2, #0
 8001606:	641a      	str	r2, [r3, #64]	; 0x40

    /* Prepare transfer parameters */
    hi2c->pBuffPtr    = pData;
 8001608:	68fb      	ldr	r3, [r7, #12]
 800160a:	687a      	ldr	r2, [r7, #4]
 800160c:	625a      	str	r2, [r3, #36]	; 0x24
    hi2c->XferCount   = Size;
 800160e:	68fb      	ldr	r3, [r7, #12]
 8001610:	893a      	ldrh	r2, [r7, #8]
 8001612:	855a      	strh	r2, [r3, #42]	; 0x2a
    hi2c->XferSize    = hi2c->XferCount;
 8001614:	68fb      	ldr	r3, [r7, #12]
 8001616:	8d5b      	ldrh	r3, [r3, #42]	; 0x2a
 8001618:	b29a      	uxth	r2, r3
 800161a:	68fb      	ldr	r3, [r7, #12]
 800161c:	851a      	strh	r2, [r3, #40]	; 0x28
    hi2c->XferOptions = I2C_NO_OPTION_FRAME;
 800161e:	68fb      	ldr	r3, [r7, #12]
 8001620:	4a50      	ldr	r2, [pc, #320]	; (8001764 <HAL_I2C_Master_Transmit+0x1f8>)
 8001622:	62da      	str	r2, [r3, #44]	; 0x2c

    /* Send Slave Address */
    if (I2C_MasterRequestWrite(hi2c, DevAddress, Timeout, tickstart) != HAL_OK)
 8001624:	8979      	ldrh	r1, [r7, #10]
 8001626:	697b      	ldr	r3, [r7, #20]
 8001628:	6a3a      	ldr	r2, [r7, #32]
 800162a:	68f8      	ldr	r0, [r7, #12]
 800162c:	f001 fda6 	bl	800317c <I2C_MasterRequestWrite>
 8001630:	4603      	mov	r3, r0
 8001632:	2b00      	cmp	r3, #0
 8001634:	d001      	beq.n	800163a <HAL_I2C_Master_Transmit+0xce>
    {
      return HAL_ERROR;
 8001636:	2301      	movs	r3, #1
 8001638:	e08d      	b.n	8001756 <HAL_I2C_Master_Transmit+0x1ea>
    }

    /* Clear ADDR flag */
    __HAL_I2C_CLEAR_ADDRFLAG(hi2c);
 800163a:	2300      	movs	r3, #0
 800163c:	613b      	str	r3, [r7, #16]
 800163e:	68fb      	ldr	r3, [r7, #12]
 8001640:	681b      	ldr	r3, [r3, #0]
 8001642:	695b      	ldr	r3, [r3, #20]
 8001644:	613b      	str	r3, [r7, #16]
 8001646:	68fb      	ldr	r3, [r7, #12]
 8001648:	681b      	ldr	r3, [r3, #0]
 800164a:	699b      	ldr	r3, [r3, #24]
 800164c:	613b      	str	r3, [r7, #16]
 800164e:	693b      	ldr	r3, [r7, #16]

    while (hi2c->XferSize > 0U)
 8001650:	e066      	b.n	8001720 <HAL_I2C_Master_Transmit+0x1b4>
    {
      /* Wait until TXE flag is set */
      if (I2C_WaitOnTXEFlagUntilTimeout(hi2c, Timeout, tickstart) != HAL_OK)
 8001652:	697a      	ldr	r2, [r7, #20]
 8001654:	6a39      	ldr	r1, [r7, #32]
 8001656:	68f8      	ldr	r0, [r7, #12]
 8001658:	f001 ff90 	bl	800357c <I2C_WaitOnTXEFlagUntilTimeout>
 800165c:	4603      	mov	r3, r0
 800165e:	2b00      	cmp	r3, #0
 8001660:	d00d      	beq.n	800167e <HAL_I2C_Master_Transmit+0x112>
      {
        if (hi2c->ErrorCode == HAL_I2C_ERROR_AF)
 8001662:	68fb      	ldr	r3, [r7, #12]
 8001664:	6c1b      	ldr	r3, [r3, #64]	; 0x40
 8001666:	2b04      	cmp	r3, #4
 8001668:	d107      	bne.n	800167a <HAL_I2C_Master_Transmit+0x10e>
        {
          /* Generate Stop */
          SET_BIT(hi2c->Instance->CR1, I2C_CR1_STOP);
 800166a:	68fb      	ldr	r3, [r7, #12]
 800166c:	681b      	ldr	r3, [r3, #0]
 800166e:	681a      	ldr	r2, [r3, #0]
 8001670:	68fb      	ldr	r3, [r7, #12]
 8001672:	681b      	ldr	r3, [r3, #0]
 8001674:	f442 7200 	orr.w	r2, r2, #512	; 0x200
 8001678:	601a      	str	r2, [r3, #0]
        }
        return HAL_ERROR;
 800167a:	2301      	movs	r3, #1
 800167c:	e06b      	b.n	8001756 <HAL_I2C_Master_Transmit+0x1ea>
      }

      /* Write data to DR */
      hi2c->Instance->DR = *hi2c->pBuffPtr;
 800167e:	68fb      	ldr	r3, [r7, #12]
 8001680:	6a5b      	ldr	r3, [r3, #36]	; 0x24
 8001682:	781a      	ldrb	r2, [r3, #0]
 8001684:	68fb      	ldr	r3, [r7, #12]
 8001686:	681b      	ldr	r3, [r3, #0]
 8001688:	611a      	str	r2, [r3, #16]

      /* Increment Buffer pointer */
      hi2c->pBuffPtr++;
 800168a:	68fb      	ldr	r3, [r7, #12]
 800168c:	6a5b      	ldr	r3, [r3, #36]	; 0x24
 800168e:	1c5a      	adds	r2, r3, #1
 8001690:	68fb      	ldr	r3, [r7, #12]
 8001692:	625a      	str	r2, [r3, #36]	; 0x24

      /* Update counter */
      hi2c->XferCount--;
 8001694:	68fb      	ldr	r3, [r7, #12]
 8001696:	8d5b      	ldrh	r3, [r3, #42]	; 0x2a
 8001698:	b29b      	uxth	r3, r3
 800169a:	3b01      	subs	r3, #1
 800169c:	b29a      	uxth	r2, r3
 800169e:	68fb      	ldr	r3, [r7, #12]
 80016a0:	855a      	strh	r2, [r3, #42]	; 0x2a
      hi2c->XferSize--;
 80016a2:	68fb      	ldr	r3, [r7, #12]
 80016a4:	8d1b      	ldrh	r3, [r3, #40]	; 0x28
 80016a6:	3b01      	subs	r3, #1
 80016a8:	b29a      	uxth	r2, r3
 80016aa:	68fb      	ldr	r3, [r7, #12]
 80016ac:	851a      	strh	r2, [r3, #40]	; 0x28

      if ((__HAL_I2C_GET_FLAG(hi2c, I2C_FLAG_BTF) == SET) && (hi2c->XferSize != 0U))
 80016ae:	68fb      	ldr	r3, [r7, #12]
 80016b0:	681b      	ldr	r3, [r3, #0]
 80016b2:	695b      	ldr	r3, [r3, #20]
 80016b4:	f003 0304 	and.w	r3, r3, #4
 80016b8:	2b04      	cmp	r3, #4
 80016ba:	d11b      	bne.n	80016f4 <HAL_I2C_Master_Transmit+0x188>
 80016bc:	68fb      	ldr	r3, [r7, #12]
 80016be:	8d1b      	ldrh	r3, [r3, #40]	; 0x28
 80016c0:	2b00      	cmp	r3, #0
 80016c2:	d017      	beq.n	80016f4 <HAL_I2C_Master_Transmit+0x188>
      {
        /* Write data to DR */
        hi2c->Instance->DR = *hi2c->pBuffPtr;
 80016c4:	68fb      	ldr	r3, [r7, #12]
 80016c6:	6a5b      	ldr	r3, [r3, #36]	; 0x24
 80016c8:	781a      	ldrb	r2, [r3, #0]
 80016ca:	68fb      	ldr	r3, [r7, #12]
 80016cc:	681b      	ldr	r3, [r3, #0]
 80016ce:	611a      	str	r2, [r3, #16]

        /* Increment Buffer pointer */
        hi2c->pBuffPtr++;
 80016d0:	68fb      	ldr	r3, [r7, #12]
 80016d2:	6a5b      	ldr	r3, [r3, #36]	; 0x24
 80016d4:	1c5a      	adds	r2, r3, #1
 80016d6:	68fb      	ldr	r3, [r7, #12]
 80016d8:	625a      	str	r2, [r3, #36]	; 0x24

        /* Update counter */
        hi2c->XferCount--;
 80016da:	68fb      	ldr	r3, [r7, #12]
 80016dc:	8d5b      	ldrh	r3, [r3, #42]	; 0x2a
 80016de:	b29b      	uxth	r3, r3
 80016e0:	3b01      	subs	r3, #1
 80016e2:	b29a      	uxth	r2, r3
 80016e4:	68fb      	ldr	r3, [r7, #12]
 80016e6:	855a      	strh	r2, [r3, #42]	; 0x2a
        hi2c->XferSize--;
 80016e8:	68fb      	ldr	r3, [r7, #12]
 80016ea:	8d1b      	ldrh	r3, [r3, #40]	; 0x28
 80016ec:	3b01      	subs	r3, #1
 80016ee:	b29a      	uxth	r2, r3
 80016f0:	68fb      	ldr	r3, [r7, #12]
 80016f2:	851a      	strh	r2, [r3, #40]	; 0x28
      }

      /* Wait until BTF flag is set */
      if (I2C_WaitOnBTFFlagUntilTimeout(hi2c, Timeout, tickstart) != HAL_OK)
 80016f4:	697a      	ldr	r2, [r7, #20]
 80016f6:	6a39      	ldr	r1, [r7, #32]
 80016f8:	68f8      	ldr	r0, [r7, #12]
 80016fa:	f001 ff80 	bl	80035fe <I2C_WaitOnBTFFlagUntilTimeout>
 80016fe:	4603      	mov	r3, r0
 8001700:	2b00      	cmp	r3, #0
 8001702:	d00d      	beq.n	8001720 <HAL_I2C_Master_Transmit+0x1b4>
      {
        if (hi2c->ErrorCode == HAL_I2C_ERROR_AF)
 8001704:	68fb      	ldr	r3, [r7, #12]
 8001706:	6c1b      	ldr	r3, [r3, #64]	; 0x40
 8001708:	2b04      	cmp	r3, #4
 800170a:	d107      	bne.n	800171c <HAL_I2C_Master_Transmit+0x1b0>
        {
          /* Generate Stop */
          SET_BIT(hi2c->Instance->CR1, I2C_CR1_STOP);
 800170c:	68fb      	ldr	r3, [r7, #12]
 800170e:	681b      	ldr	r3, [r3, #0]
 8001710:	681a      	ldr	r2, [r3, #0]
 8001712:	68fb      	ldr	r3, [r7, #12]
 8001714:	681b      	ldr	r3, [r3, #0]
 8001716:	f442 7200 	orr.w	r2, r2, #512	; 0x200
 800171a:	601a      	str	r2, [r3, #0]
        }
        return HAL_ERROR;
 800171c:	2301      	movs	r3, #1
 800171e:	e01a      	b.n	8001756 <HAL_I2C_Master_Transmit+0x1ea>
    while (hi2c->XferSize > 0U)
 8001720:	68fb      	ldr	r3, [r7, #12]
 8001722:	8d1b      	ldrh	r3, [r3, #40]	; 0x28
 8001724:	2b00      	cmp	r3, #0
 8001726:	d194      	bne.n	8001652 <HAL_I2C_Master_Transmit+0xe6>
      }
    }

    /* Generate Stop */
    SET_BIT(hi2c->Instance->CR1, I2C_CR1_STOP);
 8001728:	68fb      	ldr	r3, [r7, #12]
 800172a:	681b      	ldr	r3, [r3, #0]
 800172c:	681a      	ldr	r2, [r3, #0]
 800172e:	68fb      	ldr	r3, [r7, #12]
 8001730:	681b      	ldr	r3, [r3, #0]
 8001732:	f442 7200 	orr.w	r2, r2, #512	; 0x200
 8001736:	601a      	str	r2, [r3, #0]

    hi2c->State = HAL_I2C_STATE_READY;
 8001738:	68fb      	ldr	r3, [r7, #12]
 800173a:	2220      	movs	r2, #32
 800173c:	f883 203d 	strb.w	r2, [r3, #61]	; 0x3d
    hi2c->Mode = HAL_I2C_MODE_NONE;
 8001740:	68fb      	ldr	r3, [r7, #12]
 8001742:	2200      	movs	r2, #0
 8001744:	f883 203e 	strb.w	r2, [r3, #62]	; 0x3e

    /* Process Unlocked */
    __HAL_UNLOCK(hi2c);
 8001748:	68fb      	ldr	r3, [r7, #12]
 800174a:	2200      	movs	r2, #0
 800174c:	f883 203c 	strb.w	r2, [r3, #60]	; 0x3c

    return HAL_OK;
 8001750:	2300      	movs	r3, #0
 8001752:	e000      	b.n	8001756 <HAL_I2C_Master_Transmit+0x1ea>
  }
  else
  {
    return HAL_BUSY;
 8001754:	2302      	movs	r3, #2
  }
}
 8001756:	4618      	mov	r0, r3
 8001758:	3718      	adds	r7, #24
 800175a:	46bd      	mov	sp, r7
 800175c:	bd80      	pop	{r7, pc}
 800175e:	bf00      	nop
 8001760:	00100002 	.word	0x00100002
 8001764:	ffff0000 	.word	0xffff0000

08001768 <HAL_I2C_IsDeviceReady>:
  * @param  Trials Number of trials
  * @param  Timeout Timeout duration
  * @retval HAL status
  */
HAL_StatusTypeDef HAL_I2C_IsDeviceReady(I2C_HandleTypeDef *hi2c, uint16_t DevAddress, uint32_t Trials, uint32_t Timeout)
{
 8001768:	b580      	push	{r7, lr}
 800176a:	b08a      	sub	sp, #40	; 0x28
 800176c:	af02      	add	r7, sp, #8
 800176e:	60f8      	str	r0, [r7, #12]
 8001770:	607a      	str	r2, [r7, #4]
 8001772:	603b      	str	r3, [r7, #0]
 8001774:	460b      	mov	r3, r1
 8001776:	817b      	strh	r3, [r7, #10]
  /* Get tick */
  uint32_t tickstart = HAL_GetTick();
 8001778:	f7ff fa68 	bl	8000c4c <HAL_GetTick>
 800177c:	61f8      	str	r0, [r7, #28]
  uint32_t I2C_Trials = 1U;
 800177e:	2301      	movs	r3, #1
 8001780:	61bb      	str	r3, [r7, #24]
  FlagStatus tmp1;
  FlagStatus tmp2;

  if (hi2c->State == HAL_I2C_STATE_READY)
 8001782:	68fb      	ldr	r3, [r7, #12]
 8001784:	f893 303d 	ldrb.w	r3, [r3, #61]	; 0x3d
 8001788:	b2db      	uxtb	r3, r3
 800178a:	2b20      	cmp	r3, #32
 800178c:	f040 8111 	bne.w	80019b2 <HAL_I2C_IsDeviceReady+0x24a>
  {
    /* Wait until BUSY flag is reset */
    if (I2C_WaitOnFlagUntilTimeout(hi2c, I2C_FLAG_BUSY, SET, I2C_TIMEOUT_BUSY_FLAG, tickstart) != HAL_OK)
 8001790:	69fb      	ldr	r3, [r7, #28]
 8001792:	9300      	str	r3, [sp, #0]
 8001794:	2319      	movs	r3, #25
 8001796:	2201      	movs	r2, #1
 8001798:	4988      	ldr	r1, [pc, #544]	; (80019bc <HAL_I2C_IsDeviceReady+0x254>)
 800179a:	68f8      	ldr	r0, [r7, #12]
 800179c:	f001 fe18 	bl	80033d0 <I2C_WaitOnFlagUntilTimeout>
 80017a0:	4603      	mov	r3, r0
 80017a2:	2b00      	cmp	r3, #0
 80017a4:	d001      	beq.n	80017aa <HAL_I2C_IsDeviceReady+0x42>
    {
      return HAL_BUSY;
 80017a6:	2302      	movs	r3, #2
 80017a8:	e104      	b.n	80019b4 <HAL_I2C_IsDeviceReady+0x24c>
    }

    /* Process Locked */
    __HAL_LOCK(hi2c);
 80017aa:	68fb      	ldr	r3, [r7, #12]
 80017ac:	f893 303c 	ldrb.w	r3, [r3, #60]	; 0x3c
 80017b0:	2b01      	cmp	r3, #1
 80017b2:	d101      	bne.n	80017b8 <HAL_I2C_IsDeviceReady+0x50>
 80017b4:	2302      	movs	r3, #2
 80017b6:	e0fd      	b.n	80019b4 <HAL_I2C_IsDeviceReady+0x24c>
 80017b8:	68fb      	ldr	r3, [r7, #12]
 80017ba:	2201      	movs	r2, #1
 80017bc:	f883 203c 	strb.w	r2, [r3, #60]	; 0x3c

    /* Check if the I2C is already enabled */
    if ((hi2c->Instance->CR1 & I2C_CR1_PE) != I2C_CR1_PE)
 80017c0:	68fb      	ldr	r3, [r7, #12]
 80017c2:	681b      	ldr	r3, [r3, #0]
 80017c4:	681b      	ldr	r3, [r3, #0]
 80017c6:	f003 0301 	and.w	r3, r3, #1
 80017ca:	2b01      	cmp	r3, #1
 80017cc:	d007      	beq.n	80017de <HAL_I2C_IsDeviceReady+0x76>
    {
      /* Enable I2C peripheral */
      __HAL_I2C_ENABLE(hi2c);
 80017ce:	68fb      	ldr	r3, [r7, #12]
 80017d0:	681b      	ldr	r3, [r3, #0]
 80017d2:	681a      	ldr	r2, [r3, #0]
 80017d4:	68fb      	ldr	r3, [r7, #12]
 80017d6:	681b      	ldr	r3, [r3, #0]
 80017d8:	f042 0201 	orr.w	r2, r2, #1
 80017dc:	601a      	str	r2, [r3, #0]
    }

    /* Disable Pos */
    CLEAR_BIT(hi2c->Instance->CR1, I2C_CR1_POS);
 80017de:	68fb      	ldr	r3, [r7, #12]
 80017e0:	681b      	ldr	r3, [r3, #0]
 80017e2:	681a      	ldr	r2, [r3, #0]
 80017e4:	68fb      	ldr	r3, [r7, #12]
 80017e6:	681b      	ldr	r3, [r3, #0]
 80017e8:	f422 6200 	bic.w	r2, r2, #2048	; 0x800
 80017ec:	601a      	str	r2, [r3, #0]

    hi2c->State = HAL_I2C_STATE_BUSY;
 80017ee:	68fb      	ldr	r3, [r7, #12]
 80017f0:	2224      	movs	r2, #36	; 0x24
 80017f2:	f883 203d 	strb.w	r2, [r3, #61]	; 0x3d
    hi2c->ErrorCode = HAL_I2C_ERROR_NONE;
 80017f6:	68fb      	ldr	r3, [r7, #12]
 80017f8:	2200      	movs	r2, #0
 80017fa:	641a      	str	r2, [r3, #64]	; 0x40
    hi2c->XferOptions = I2C_NO_OPTION_FRAME;
 80017fc:	68fb      	ldr	r3, [r7, #12]
 80017fe:	4a70      	ldr	r2, [pc, #448]	; (80019c0 <HAL_I2C_IsDeviceReady+0x258>)
 8001800:	62da      	str	r2, [r3, #44]	; 0x2c

    do
    {
      /* Generate Start */
      SET_BIT(hi2c->Instance->CR1, I2C_CR1_START);
 8001802:	68fb      	ldr	r3, [r7, #12]
 8001804:	681b      	ldr	r3, [r3, #0]
 8001806:	681a      	ldr	r2, [r3, #0]
 8001808:	68fb      	ldr	r3, [r7, #12]
 800180a:	681b      	ldr	r3, [r3, #0]
 800180c:	f442 7280 	orr.w	r2, r2, #256	; 0x100
 8001810:	601a      	str	r2, [r3, #0]

      /* Wait until SB flag is set */
      if (I2C_WaitOnFlagUntilTimeout(hi2c, I2C_FLAG_SB, RESET, Timeout, tickstart) != HAL_OK)
 8001812:	69fb      	ldr	r3, [r7, #28]
 8001814:	9300      	str	r3, [sp, #0]
 8001816:	683b      	ldr	r3, [r7, #0]
 8001818:	2200      	movs	r2, #0
 800181a:	f04f 1101 	mov.w	r1, #65537	; 0x10001
 800181e:	68f8      	ldr	r0, [r7, #12]
 8001820:	f001 fdd6 	bl	80033d0 <I2C_WaitOnFlagUntilTimeout>
 8001824:	4603      	mov	r3, r0
 8001826:	2b00      	cmp	r3, #0
 8001828:	d00d      	beq.n	8001846 <HAL_I2C_IsDeviceReady+0xde>
      {
        if (READ_BIT(hi2c->Instance->CR1, I2C_CR1_START) == I2C_CR1_START)
 800182a:	68fb      	ldr	r3, [r7, #12]
 800182c:	681b      	ldr	r3, [r3, #0]
 800182e:	681b      	ldr	r3, [r3, #0]
 8001830:	f403 7380 	and.w	r3, r3, #256	; 0x100
 8001834:	f5b3 7f80 	cmp.w	r3, #256	; 0x100
 8001838:	d103      	bne.n	8001842 <HAL_I2C_IsDeviceReady+0xda>
        {
          hi2c->ErrorCode = HAL_I2C_WRONG_START;
 800183a:	68fb      	ldr	r3, [r7, #12]
 800183c:	f44f 7200 	mov.w	r2, #512	; 0x200
 8001840:	641a      	str	r2, [r3, #64]	; 0x40
        }
        return HAL_TIMEOUT;
 8001842:	2303      	movs	r3, #3
 8001844:	e0b6      	b.n	80019b4 <HAL_I2C_IsDeviceReady+0x24c>
      }

      /* Send slave address */
      hi2c->Instance->DR = I2C_7BIT_ADD_WRITE(DevAddress);
 8001846:	897b      	ldrh	r3, [r7, #10]
 8001848:	b2db      	uxtb	r3, r3
 800184a:	461a      	mov	r2, r3
 800184c:	68fb      	ldr	r3, [r7, #12]
 800184e:	681b      	ldr	r3, [r3, #0]
 8001850:	f002 02fe 	and.w	r2, r2, #254	; 0xfe
 8001854:	611a      	str	r2, [r3, #16]

      /* Wait until ADDR or AF flag are set */
      /* Get tick */
      tickstart = HAL_GetTick();
 8001856:	f7ff f9f9 	bl	8000c4c <HAL_GetTick>
 800185a:	61f8      	str	r0, [r7, #28]

      tmp1 = __HAL_I2C_GET_FLAG(hi2c, I2C_FLAG_ADDR);
 800185c:	68fb      	ldr	r3, [r7, #12]
 800185e:	681b      	ldr	r3, [r3, #0]
 8001860:	695b      	ldr	r3, [r3, #20]
 8001862:	f003 0302 	and.w	r3, r3, #2
 8001866:	2b02      	cmp	r3, #2
 8001868:	bf0c      	ite	eq
 800186a:	2301      	moveq	r3, #1
 800186c:	2300      	movne	r3, #0
 800186e:	b2db      	uxtb	r3, r3
 8001870:	75fb      	strb	r3, [r7, #23]
      tmp2 = __HAL_I2C_GET_FLAG(hi2c, I2C_FLAG_AF);
 8001872:	68fb      	ldr	r3, [r7, #12]
 8001874:	681b      	ldr	r3, [r3, #0]
 8001876:	695b      	ldr	r3, [r3, #20]
 8001878:	f403 6380 	and.w	r3, r3, #1024	; 0x400
 800187c:	f5b3 6f80 	cmp.w	r3, #1024	; 0x400
 8001880:	bf0c      	ite	eq
 8001882:	2301      	moveq	r3, #1
 8001884:	2300      	movne	r3, #0
 8001886:	b2db      	uxtb	r3, r3
 8001888:	75bb      	strb	r3, [r7, #22]
      while ((hi2c->State != HAL_I2C_STATE_TIMEOUT) && (tmp1 == RESET) && (tmp2 == RESET))
 800188a:	e025      	b.n	80018d8 <HAL_I2C_IsDeviceReady+0x170>
      {
        if (((HAL_GetTick() - tickstart) > Timeout) || (Timeout == 0U))
 800188c:	f7ff f9de 	bl	8000c4c <HAL_GetTick>
 8001890:	4602      	mov	r2, r0
 8001892:	69fb      	ldr	r3, [r7, #28]
 8001894:	1ad3      	subs	r3, r2, r3
 8001896:	683a      	ldr	r2, [r7, #0]
 8001898:	429a      	cmp	r2, r3
 800189a:	d302      	bcc.n	80018a2 <HAL_I2C_IsDeviceReady+0x13a>
 800189c:	683b      	ldr	r3, [r7, #0]
 800189e:	2b00      	cmp	r3, #0
 80018a0:	d103      	bne.n	80018aa <HAL_I2C_IsDeviceReady+0x142>
        {
          hi2c->State = HAL_I2C_STATE_TIMEOUT;
 80018a2:	68fb      	ldr	r3, [r7, #12]
 80018a4:	22a0      	movs	r2, #160	; 0xa0
 80018a6:	f883 203d 	strb.w	r2, [r3, #61]	; 0x3d
        }
        tmp1 = __HAL_I2C_GET_FLAG(hi2c, I2C_FLAG_ADDR);
 80018aa:	68fb      	ldr	r3, [r7, #12]
 80018ac:	681b      	ldr	r3, [r3, #0]
 80018ae:	695b      	ldr	r3, [r3, #20]
 80018b0:	f003 0302 	and.w	r3, r3, #2
 80018b4:	2b02      	cmp	r3, #2
 80018b6:	bf0c      	ite	eq
 80018b8:	2301      	moveq	r3, #1
 80018ba:	2300      	movne	r3, #0
 80018bc:	b2db      	uxtb	r3, r3
 80018be:	75fb      	strb	r3, [r7, #23]
        tmp2 = __HAL_I2C_GET_FLAG(hi2c, I2C_FLAG_AF);
 80018c0:	68fb      	ldr	r3, [r7, #12]
 80018c2:	681b      	ldr	r3, [r3, #0]
 80018c4:	695b      	ldr	r3, [r3, #20]
 80018c6:	f403 6380 	and.w	r3, r3, #1024	; 0x400
 80018ca:	f5b3 6f80 	cmp.w	r3, #1024	; 0x400
 80018ce:	bf0c      	ite	eq
 80018d0:	2301      	moveq	r3, #1
 80018d2:	2300      	movne	r3, #0
 80018d4:	b2db      	uxtb	r3, r3
 80018d6:	75bb      	strb	r3, [r7, #22]
      while ((hi2c->State != HAL_I2C_STATE_TIMEOUT) && (tmp1 == RESET) && (tmp2 == RESET))
 80018d8:	68fb      	ldr	r3, [r7, #12]
 80018da:	f893 303d 	ldrb.w	r3, [r3, #61]	; 0x3d
 80018de:	b2db      	uxtb	r3, r3
 80018e0:	2ba0      	cmp	r3, #160	; 0xa0
 80018e2:	d005      	beq.n	80018f0 <HAL_I2C_IsDeviceReady+0x188>
 80018e4:	7dfb      	ldrb	r3, [r7, #23]
 80018e6:	2b00      	cmp	r3, #0
 80018e8:	d102      	bne.n	80018f0 <HAL_I2C_IsDeviceReady+0x188>
 80018ea:	7dbb      	ldrb	r3, [r7, #22]
 80018ec:	2b00      	cmp	r3, #0
 80018ee:	d0cd      	beq.n	800188c <HAL_I2C_IsDeviceReady+0x124>
      }

      hi2c->State = HAL_I2C_STATE_READY;
 80018f0:	68fb      	ldr	r3, [r7, #12]
 80018f2:	2220      	movs	r2, #32
 80018f4:	f883 203d 	strb.w	r2, [r3, #61]	; 0x3d

      /* Check if the ADDR flag has been set */
      if (__HAL_I2C_GET_FLAG(hi2c, I2C_FLAG_ADDR) == SET)
 80018f8:	68fb      	ldr	r3, [r7, #12]
 80018fa:	681b      	ldr	r3, [r3, #0]
 80018fc:	695b      	ldr	r3, [r3, #20]
 80018fe:	f003 0302 	and.w	r3, r3, #2
 8001902:	2b02      	cmp	r3, #2
 8001904:	d129      	bne.n	800195a <HAL_I2C_IsDeviceReady+0x1f2>
      {
        /* Generate Stop */
        SET_BIT(hi2c->Instance->CR1, I2C_CR1_STOP);
 8001906:	68fb      	ldr	r3, [r7, #12]
 8001908:	681b      	ldr	r3, [r3, #0]
 800190a:	681a      	ldr	r2, [r3, #0]
 800190c:	68fb      	ldr	r3, [r7, #12]
 800190e:	681b      	ldr	r3, [r3, #0]
 8001910:	f442 7200 	orr.w	r2, r2, #512	; 0x200
 8001914:	601a      	str	r2, [r3, #0]

        /* Clear ADDR Flag */
        __HAL_I2C_CLEAR_ADDRFLAG(hi2c);
 8001916:	2300      	movs	r3, #0
 8001918:	613b      	str	r3, [r7, #16]
 800191a:	68fb      	ldr	r3, [r7, #12]
 800191c:	681b      	ldr	r3, [r3, #0]
 800191e:	695b      	ldr	r3, [r3, #20]
 8001920:	613b      	str	r3, [r7, #16]
 8001922:	68fb      	ldr	r3, [r7, #12]
 8001924:	681b      	ldr	r3, [r3, #0]
 8001926:	699b      	ldr	r3, [r3, #24]
 8001928:	613b      	str	r3, [r7, #16]
 800192a:	693b      	ldr	r3, [r7, #16]

        /* Wait until BUSY flag is reset */
        if (I2C_WaitOnFlagUntilTimeout(hi2c, I2C_FLAG_BUSY, SET, I2C_TIMEOUT_BUSY_FLAG, tickstart) != HAL_OK)
 800192c:	69fb      	ldr	r3, [r7, #28]
 800192e:	9300      	str	r3, [sp, #0]
 8001930:	2319      	movs	r3, #25
 8001932:	2201      	movs	r2, #1
 8001934:	4921      	ldr	r1, [pc, #132]	; (80019bc <HAL_I2C_IsDeviceReady+0x254>)
 8001936:	68f8      	ldr	r0, [r7, #12]
 8001938:	f001 fd4a 	bl	80033d0 <I2C_WaitOnFlagUntilTimeout>
 800193c:	4603      	mov	r3, r0
 800193e:	2b00      	cmp	r3, #0
 8001940:	d001      	beq.n	8001946 <HAL_I2C_IsDeviceReady+0x1de>
        {
          return HAL_ERROR;
 8001942:	2301      	movs	r3, #1
 8001944:	e036      	b.n	80019b4 <HAL_I2C_IsDeviceReady+0x24c>
        }

        hi2c->State = HAL_I2C_STATE_READY;
 8001946:	68fb      	ldr	r3, [r7, #12]
 8001948:	2220      	movs	r2, #32
 800194a:	f883 203d 	strb.w	r2, [r3, #61]	; 0x3d

        /* Process Unlocked */
        __HAL_UNLOCK(hi2c);
 800194e:	68fb      	ldr	r3, [r7, #12]
 8001950:	2200      	movs	r2, #0
 8001952:	f883 203c 	strb.w	r2, [r3, #60]	; 0x3c

        return HAL_OK;
 8001956:	2300      	movs	r3, #0
 8001958:	e02c      	b.n	80019b4 <HAL_I2C_IsDeviceReady+0x24c>
      }
      else
      {
        /* Generate Stop */
        SET_BIT(hi2c->Instance->CR1, I2C_CR1_STOP);
 800195a:	68fb      	ldr	r3, [r7, #12]
 800195c:	681b      	ldr	r3, [r3, #0]
 800195e:	681a      	ldr	r2, [r3, #0]
 8001960:	68fb      	ldr	r3, [r7, #12]
 8001962:	681b      	ldr	r3, [r3, #0]
 8001964:	f442 7200 	orr.w	r2, r2, #512	; 0x200
 8001968:	601a      	str	r2, [r3, #0]

        /* Clear AF Flag */
        __HAL_I2C_CLEAR_FLAG(hi2c, I2C_FLAG_AF);
 800196a:	68fb      	ldr	r3, [r7, #12]
 800196c:	681b      	ldr	r3, [r3, #0]
 800196e:	f46f 6280 	mvn.w	r2, #1024	; 0x400
 8001972:	615a      	str	r2, [r3, #20]

        /* Wait until BUSY flag is reset */
        if (I2C_WaitOnFlagUntilTimeout(hi2c, I2C_FLAG_BUSY, SET, I2C_TIMEOUT_BUSY_FLAG, tickstart) != HAL_OK)
 8001974:	69fb      	ldr	r3, [r7, #28]
 8001976:	9300      	str	r3, [sp, #0]
 8001978:	2319      	movs	r3, #25
 800197a:	2201      	movs	r2, #1
 800197c:	490f      	ldr	r1, [pc, #60]	; (80019bc <HAL_I2C_IsDeviceReady+0x254>)
 800197e:	68f8      	ldr	r0, [r7, #12]
 8001980:	f001 fd26 	bl	80033d0 <I2C_WaitOnFlagUntilTimeout>
 8001984:	4603      	mov	r3, r0
 8001986:	2b00      	cmp	r3, #0
 8001988:	d001      	beq.n	800198e <HAL_I2C_IsDeviceReady+0x226>
        {
          return HAL_ERROR;
 800198a:	2301      	movs	r3, #1
 800198c:	e012      	b.n	80019b4 <HAL_I2C_IsDeviceReady+0x24c>
        }
      }

      /* Increment Trials */
      I2C_Trials++;
 800198e:	69bb      	ldr	r3, [r7, #24]
 8001990:	3301      	adds	r3, #1
 8001992:	61bb      	str	r3, [r7, #24]
    }
    while (I2C_Trials < Trials);
 8001994:	69ba      	ldr	r2, [r7, #24]
 8001996:	687b      	ldr	r3, [r7, #4]
 8001998:	429a      	cmp	r2, r3
 800199a:	f4ff af32 	bcc.w	8001802 <HAL_I2C_IsDeviceReady+0x9a>

    hi2c->State = HAL_I2C_STATE_READY;
 800199e:	68fb      	ldr	r3, [r7, #12]
 80019a0:	2220      	movs	r2, #32
 80019a2:	f883 203d 	strb.w	r2, [r3, #61]	; 0x3d

    /* Process Unlocked */
    __HAL_UNLOCK(hi2c);
 80019a6:	68fb      	ldr	r3, [r7, #12]
 80019a8:	2200      	movs	r2, #0
 80019aa:	f883 203c 	strb.w	r2, [r3, #60]	; 0x3c

    return HAL_ERROR;
 80019ae:	2301      	movs	r3, #1
 80019b0:	e000      	b.n	80019b4 <HAL_I2C_IsDeviceReady+0x24c>
  }
  else
  {
    return HAL_BUSY;
 80019b2:	2302      	movs	r3, #2
  }
}
 80019b4:	4618      	mov	r0, r3
 80019b6:	3720      	adds	r7, #32
 80019b8:	46bd      	mov	sp, r7
 80019ba:	bd80      	pop	{r7, pc}
 80019bc:	00100002 	.word	0x00100002
 80019c0:	ffff0000 	.word	0xffff0000

080019c4 <HAL_I2C_EV_IRQHandler>:
  * @param  hi2c Pointer to a I2C_HandleTypeDef structure that contains
  *                the configuration information for the specified I2C.
  * @retval None
  */
void HAL_I2C_EV_IRQHandler(I2C_HandleTypeDef *hi2c)
{
 80019c4:	b580      	push	{r7, lr}
 80019c6:	b088      	sub	sp, #32
 80019c8:	af00      	add	r7, sp, #0
 80019ca:	6078      	str	r0, [r7, #4]
  uint32_t sr1itflags;
  uint32_t sr2itflags               = 0U;
 80019cc:	2300      	movs	r3, #0
 80019ce:	61bb      	str	r3, [r7, #24]
  uint32_t itsources                = READ_REG(hi2c->Instance->CR2);
 80019d0:	687b      	ldr	r3, [r7, #4]
 80019d2:	681b      	ldr	r3, [r3, #0]
 80019d4:	685b      	ldr	r3, [r3, #4]
 80019d6:	617b      	str	r3, [r7, #20]
  uint32_t CurrentXferOptions       = hi2c->XferOptions;
 80019d8:	687b      	ldr	r3, [r7, #4]
 80019da:	6adb      	ldr	r3, [r3, #44]	; 0x2c
 80019dc:	613b      	str	r3, [r7, #16]
  HAL_I2C_ModeTypeDef CurrentMode   = hi2c->Mode;
 80019de:	687b      	ldr	r3, [r7, #4]
 80019e0:	f893 303e 	ldrb.w	r3, [r3, #62]	; 0x3e
 80019e4:	73fb      	strb	r3, [r7, #15]
  HAL_I2C_StateTypeDef CurrentState = hi2c->State;
 80019e6:	687b      	ldr	r3, [r7, #4]
 80019e8:	f893 303d 	ldrb.w	r3, [r3, #61]	; 0x3d
 80019ec:	73bb      	strb	r3, [r7, #14]

  /* Master or Memory mode selected */
  if ((CurrentMode == HAL_I2C_MODE_MASTER) || (CurrentMode == HAL_I2C_MODE_MEM))
 80019ee:	7bfb      	ldrb	r3, [r7, #15]
 80019f0:	2b10      	cmp	r3, #16
 80019f2:	d003      	beq.n	80019fc <HAL_I2C_EV_IRQHandler+0x38>
 80019f4:	7bfb      	ldrb	r3, [r7, #15]
 80019f6:	2b40      	cmp	r3, #64	; 0x40
 80019f8:	f040 80c1 	bne.w	8001b7e <HAL_I2C_EV_IRQHandler+0x1ba>
  {
    sr2itflags   = READ_REG(hi2c->Instance->SR2);
 80019fc:	687b      	ldr	r3, [r7, #4]
 80019fe:	681b      	ldr	r3, [r3, #0]
 8001a00:	699b      	ldr	r3, [r3, #24]
 8001a02:	61bb      	str	r3, [r7, #24]
    sr1itflags   = READ_REG(hi2c->Instance->SR1);
 8001a04:	687b      	ldr	r3, [r7, #4]
 8001a06:	681b      	ldr	r3, [r3, #0]
 8001a08:	695b      	ldr	r3, [r3, #20]
 8001a0a:	61fb      	str	r3, [r7, #28]

    /* Exit IRQ event until Start Bit detected in case of Other frame requested */
    if ((I2C_CHECK_FLAG(sr1itflags, I2C_FLAG_SB) == RESET) && (IS_I2C_TRANSFER_OTHER_OPTIONS_REQUEST(CurrentXferOptions) == 1U))
 8001a0c:	69fb      	ldr	r3, [r7, #28]
 8001a0e:	f003 0301 	and.w	r3, r3, #1
 8001a12:	2b00      	cmp	r3, #0
 8001a14:	d10d      	bne.n	8001a32 <HAL_I2C_EV_IRQHandler+0x6e>
 8001a16:	693b      	ldr	r3, [r7, #16]
 8001a18:	f5b3 0f2a 	cmp.w	r3, #11141120	; 0xaa0000
 8001a1c:	d003      	beq.n	8001a26 <HAL_I2C_EV_IRQHandler+0x62>
 8001a1e:	693b      	ldr	r3, [r7, #16]
 8001a20:	f1b3 4f2a 	cmp.w	r3, #2852126720	; 0xaa000000
 8001a24:	d101      	bne.n	8001a2a <HAL_I2C_EV_IRQHandler+0x66>
 8001a26:	2301      	movs	r3, #1
 8001a28:	e000      	b.n	8001a2c <HAL_I2C_EV_IRQHandler+0x68>
 8001a2a:	2300      	movs	r3, #0
 8001a2c:	2b01      	cmp	r3, #1
 8001a2e:	f000 8132 	beq.w	8001c96 <HAL_I2C_EV_IRQHandler+0x2d2>
    {
      return;
    }

    /* SB Set ----------------------------------------------------------------*/
    if ((I2C_CHECK_FLAG(sr1itflags, I2C_FLAG_SB) != RESET) && (I2C_CHECK_IT_SOURCE(itsources, I2C_IT_EVT) != RESET))
 8001a32:	69fb      	ldr	r3, [r7, #28]
 8001a34:	f003 0301 	and.w	r3, r3, #1
 8001a38:	2b00      	cmp	r3, #0
 8001a3a:	d00c      	beq.n	8001a56 <HAL_I2C_EV_IRQHandler+0x92>
 8001a3c:	697b      	ldr	r3, [r7, #20]
 8001a3e:	0a5b      	lsrs	r3, r3, #9
 8001a40:	f003 0301 	and.w	r3, r3, #1
 8001a44:	2b00      	cmp	r3, #0
 8001a46:	d006      	beq.n	8001a56 <HAL_I2C_EV_IRQHandler+0x92>
    {
      /* Convert OTHER_xxx XferOptions if any */
      I2C_ConvertOtherXferOptions(hi2c);
 8001a48:	6878      	ldr	r0, [r7, #4]
 8001a4a:	f001 fe7a 	bl	8003742 <I2C_ConvertOtherXferOptions>

      I2C_Master_SB(hi2c);
 8001a4e:	6878      	ldr	r0, [r7, #4]
 8001a50:	f000 fd79 	bl	8002546 <I2C_Master_SB>
 8001a54:	e092      	b.n	8001b7c <HAL_I2C_EV_IRQHandler+0x1b8>
    }
    /* ADD10 Set -------------------------------------------------------------*/
    else if ((I2C_CHECK_FLAG(sr1itflags, I2C_FLAG_ADD10) != RESET) && (I2C_CHECK_IT_SOURCE(itsources, I2C_IT_EVT) != RESET))
 8001a56:	69fb      	ldr	r3, [r7, #28]
 8001a58:	08db      	lsrs	r3, r3, #3
 8001a5a:	f003 0301 	and.w	r3, r3, #1
 8001a5e:	2b00      	cmp	r3, #0
 8001a60:	d009      	beq.n	8001a76 <HAL_I2C_EV_IRQHandler+0xb2>
 8001a62:	697b      	ldr	r3, [r7, #20]
 8001a64:	0a5b      	lsrs	r3, r3, #9
 8001a66:	f003 0301 	and.w	r3, r3, #1
 8001a6a:	2b00      	cmp	r3, #0
 8001a6c:	d003      	beq.n	8001a76 <HAL_I2C_EV_IRQHandler+0xb2>
    {
      I2C_Master_ADD10(hi2c);
 8001a6e:	6878      	ldr	r0, [r7, #4]
 8001a70:	f000 fdef 	bl	8002652 <I2C_Master_ADD10>
 8001a74:	e082      	b.n	8001b7c <HAL_I2C_EV_IRQHandler+0x1b8>
    }
    /* ADDR Set --------------------------------------------------------------*/
    else if ((I2C_CHECK_FLAG(sr1itflags, I2C_FLAG_ADDR) != RESET) && (I2C_CHECK_IT_SOURCE(itsources, I2C_IT_EVT) != RESET))
 8001a76:	69fb      	ldr	r3, [r7, #28]
 8001a78:	085b      	lsrs	r3, r3, #1
 8001a7a:	f003 0301 	and.w	r3, r3, #1
 8001a7e:	2b00      	cmp	r3, #0
 8001a80:	d009      	beq.n	8001a96 <HAL_I2C_EV_IRQHandler+0xd2>
 8001a82:	697b      	ldr	r3, [r7, #20]
 8001a84:	0a5b      	lsrs	r3, r3, #9
 8001a86:	f003 0301 	and.w	r3, r3, #1
 8001a8a:	2b00      	cmp	r3, #0
 8001a8c:	d003      	beq.n	8001a96 <HAL_I2C_EV_IRQHandler+0xd2>
    {
      I2C_Master_ADDR(hi2c);
 8001a8e:	6878      	ldr	r0, [r7, #4]
 8001a90:	f000 fe09 	bl	80026a6 <I2C_Master_ADDR>
 8001a94:	e072      	b.n	8001b7c <HAL_I2C_EV_IRQHandler+0x1b8>
    }
    /* I2C in mode Transmitter -----------------------------------------------*/
    else if (I2C_CHECK_FLAG(sr2itflags, I2C_FLAG_TRA) != RESET)
 8001a96:	69bb      	ldr	r3, [r7, #24]
 8001a98:	089b      	lsrs	r3, r3, #2
 8001a9a:	f003 0301 	and.w	r3, r3, #1
 8001a9e:	2b00      	cmp	r3, #0
 8001aa0:	d03b      	beq.n	8001b1a <HAL_I2C_EV_IRQHandler+0x156>
    {
      /* Do not check buffer and BTF flag if a Xfer DMA is on going */
      if (READ_BIT(hi2c->Instance->CR2, I2C_CR2_DMAEN) != I2C_CR2_DMAEN)
 8001aa2:	687b      	ldr	r3, [r7, #4]
 8001aa4:	681b      	ldr	r3, [r3, #0]
 8001aa6:	685b      	ldr	r3, [r3, #4]
 8001aa8:	f403 6300 	and.w	r3, r3, #2048	; 0x800
 8001aac:	f5b3 6f00 	cmp.w	r3, #2048	; 0x800
 8001ab0:	f000 80f3 	beq.w	8001c9a <HAL_I2C_EV_IRQHandler+0x2d6>
      {
        /* TXE set and BTF reset -----------------------------------------------*/
        if ((I2C_CHECK_FLAG(sr1itflags, I2C_FLAG_TXE) != RESET) && (I2C_CHECK_IT_SOURCE(itsources, I2C_IT_BUF) != RESET) && (I2C_CHECK_FLAG(sr1itflags, I2C_FLAG_BTF) == RESET))
 8001ab4:	69fb      	ldr	r3, [r7, #28]
 8001ab6:	09db      	lsrs	r3, r3, #7
 8001ab8:	f003 0301 	and.w	r3, r3, #1
 8001abc:	2b00      	cmp	r3, #0
 8001abe:	d00f      	beq.n	8001ae0 <HAL_I2C_EV_IRQHandler+0x11c>
 8001ac0:	697b      	ldr	r3, [r7, #20]
 8001ac2:	0a9b      	lsrs	r3, r3, #10
 8001ac4:	f003 0301 	and.w	r3, r3, #1
 8001ac8:	2b00      	cmp	r3, #0
 8001aca:	d009      	beq.n	8001ae0 <HAL_I2C_EV_IRQHandler+0x11c>
 8001acc:	69fb      	ldr	r3, [r7, #28]
 8001ace:	089b      	lsrs	r3, r3, #2
 8001ad0:	f003 0301 	and.w	r3, r3, #1
 8001ad4:	2b00      	cmp	r3, #0
 8001ad6:	d103      	bne.n	8001ae0 <HAL_I2C_EV_IRQHandler+0x11c>
        {
          I2C_MasterTransmit_TXE(hi2c);
 8001ad8:	6878      	ldr	r0, [r7, #4]
 8001ada:	f000 f9f3 	bl	8001ec4 <I2C_MasterTransmit_TXE>
 8001ade:	e04d      	b.n	8001b7c <HAL_I2C_EV_IRQHandler+0x1b8>
        }
        /* BTF set -------------------------------------------------------------*/
        else if ((I2C_CHECK_FLAG(sr1itflags, I2C_FLAG_BTF) != RESET) && (I2C_CHECK_IT_SOURCE(itsources, I2C_IT_EVT) != RESET))
 8001ae0:	69fb      	ldr	r3, [r7, #28]
 8001ae2:	089b      	lsrs	r3, r3, #2
 8001ae4:	f003 0301 	and.w	r3, r3, #1
 8001ae8:	2b00      	cmp	r3, #0
 8001aea:	f000 80d6 	beq.w	8001c9a <HAL_I2C_EV_IRQHandler+0x2d6>
 8001aee:	697b      	ldr	r3, [r7, #20]
 8001af0:	0a5b      	lsrs	r3, r3, #9
 8001af2:	f003 0301 	and.w	r3, r3, #1
 8001af6:	2b00      	cmp	r3, #0
 8001af8:	f000 80cf 	beq.w	8001c9a <HAL_I2C_EV_IRQHandler+0x2d6>
        {
          if (CurrentState == HAL_I2C_STATE_BUSY_TX)
 8001afc:	7bbb      	ldrb	r3, [r7, #14]
 8001afe:	2b21      	cmp	r3, #33	; 0x21
 8001b00:	d103      	bne.n	8001b0a <HAL_I2C_EV_IRQHandler+0x146>
          {
            I2C_MasterTransmit_BTF(hi2c);
 8001b02:	6878      	ldr	r0, [r7, #4]
 8001b04:	f000 fa7a 	bl	8001ffc <I2C_MasterTransmit_BTF>
    if ((I2C_CHECK_FLAG(sr1itflags, I2C_FLAG_SB) != RESET) && (I2C_CHECK_IT_SOURCE(itsources, I2C_IT_EVT) != RESET))
 8001b08:	e0c7      	b.n	8001c9a <HAL_I2C_EV_IRQHandler+0x2d6>
          }
          else /* HAL_I2C_MODE_MEM */
          {
            if (CurrentMode == HAL_I2C_MODE_MEM)
 8001b0a:	7bfb      	ldrb	r3, [r7, #15]
 8001b0c:	2b40      	cmp	r3, #64	; 0x40
 8001b0e:	f040 80c4 	bne.w	8001c9a <HAL_I2C_EV_IRQHandler+0x2d6>
            {
              I2C_MemoryTransmit_TXE_BTF(hi2c);
 8001b12:	6878      	ldr	r0, [r7, #4]
 8001b14:	f000 fae8 	bl	80020e8 <I2C_MemoryTransmit_TXE_BTF>
    if ((I2C_CHECK_FLAG(sr1itflags, I2C_FLAG_SB) != RESET) && (I2C_CHECK_IT_SOURCE(itsources, I2C_IT_EVT) != RESET))
 8001b18:	e0bf      	b.n	8001c9a <HAL_I2C_EV_IRQHandler+0x2d6>
    }
    /* I2C in mode Receiver --------------------------------------------------*/
    else
    {
      /* Do not check buffer and BTF flag if a Xfer DMA is on going */
      if (READ_BIT(hi2c->Instance->CR2, I2C_CR2_DMAEN) != I2C_CR2_DMAEN)
 8001b1a:	687b      	ldr	r3, [r7, #4]
 8001b1c:	681b      	ldr	r3, [r3, #0]
 8001b1e:	685b      	ldr	r3, [r3, #4]
 8001b20:	f403 6300 	and.w	r3, r3, #2048	; 0x800
 8001b24:	f5b3 6f00 	cmp.w	r3, #2048	; 0x800
 8001b28:	f000 80b7 	beq.w	8001c9a <HAL_I2C_EV_IRQHandler+0x2d6>
      {
        /* RXNE set and BTF reset -----------------------------------------------*/
        if ((I2C_CHECK_FLAG(sr1itflags, I2C_FLAG_RXNE) != RESET) && (I2C_CHECK_IT_SOURCE(itsources, I2C_IT_BUF) != RESET) && (I2C_CHECK_FLAG(sr1itflags, I2C_FLAG_BTF) == RESET))
 8001b2c:	69fb      	ldr	r3, [r7, #28]
 8001b2e:	099b      	lsrs	r3, r3, #6
 8001b30:	f003 0301 	and.w	r3, r3, #1
 8001b34:	2b00      	cmp	r3, #0
 8001b36:	d00f      	beq.n	8001b58 <HAL_I2C_EV_IRQHandler+0x194>
 8001b38:	697b      	ldr	r3, [r7, #20]
 8001b3a:	0a9b      	lsrs	r3, r3, #10
 8001b3c:	f003 0301 	and.w	r3, r3, #1
 8001b40:	2b00      	cmp	r3, #0
 8001b42:	d009      	beq.n	8001b58 <HAL_I2C_EV_IRQHandler+0x194>
 8001b44:	69fb      	ldr	r3, [r7, #28]
 8001b46:	089b      	lsrs	r3, r3, #2
 8001b48:	f003 0301 	and.w	r3, r3, #1
 8001b4c:	2b00      	cmp	r3, #0
 8001b4e:	d103      	bne.n	8001b58 <HAL_I2C_EV_IRQHandler+0x194>
        {
          I2C_MasterReceive_RXNE(hi2c);
 8001b50:	6878      	ldr	r0, [r7, #4]
 8001b52:	f000 fb5d 	bl	8002210 <I2C_MasterReceive_RXNE>
 8001b56:	e011      	b.n	8001b7c <HAL_I2C_EV_IRQHandler+0x1b8>
        }
        /* BTF set -------------------------------------------------------------*/
        else if ((I2C_CHECK_FLAG(sr1itflags, I2C_FLAG_BTF) != RESET) && (I2C_CHECK_IT_SOURCE(itsources, I2C_IT_EVT) != RESET))
 8001b58:	69fb      	ldr	r3, [r7, #28]
 8001b5a:	089b      	lsrs	r3, r3, #2
 8001b5c:	f003 0301 	and.w	r3, r3, #1
 8001b60:	2b00      	cmp	r3, #0
 8001b62:	f000 809a 	beq.w	8001c9a <HAL_I2C_EV_IRQHandler+0x2d6>
 8001b66:	697b      	ldr	r3, [r7, #20]
 8001b68:	0a5b      	lsrs	r3, r3, #9
 8001b6a:	f003 0301 	and.w	r3, r3, #1
 8001b6e:	2b00      	cmp	r3, #0
 8001b70:	f000 8093 	beq.w	8001c9a <HAL_I2C_EV_IRQHandler+0x2d6>
        {
          I2C_MasterReceive_BTF(hi2c);
 8001b74:	6878      	ldr	r0, [r7, #4]
 8001b76:	f000 fbfc 	bl	8002372 <I2C_MasterReceive_BTF>
    if ((I2C_CHECK_FLAG(sr1itflags, I2C_FLAG_SB) != RESET) && (I2C_CHECK_IT_SOURCE(itsources, I2C_IT_EVT) != RESET))
 8001b7a:	e08e      	b.n	8001c9a <HAL_I2C_EV_IRQHandler+0x2d6>
 8001b7c:	e08d      	b.n	8001c9a <HAL_I2C_EV_IRQHandler+0x2d6>
  /* Slave mode selected */
  else
  {
    /* If an error is detected, read only SR1 register to prevent */
    /* a clear of ADDR flags by reading SR2 after reading SR1 in Error treatment */
    if (hi2c->ErrorCode != HAL_I2C_ERROR_NONE)
 8001b7e:	687b      	ldr	r3, [r7, #4]
 8001b80:	6c1b      	ldr	r3, [r3, #64]	; 0x40
 8001b82:	2b00      	cmp	r3, #0
 8001b84:	d004      	beq.n	8001b90 <HAL_I2C_EV_IRQHandler+0x1cc>
    {
      sr1itflags   = READ_REG(hi2c->Instance->SR1);
 8001b86:	687b      	ldr	r3, [r7, #4]
 8001b88:	681b      	ldr	r3, [r3, #0]
 8001b8a:	695b      	ldr	r3, [r3, #20]
 8001b8c:	61fb      	str	r3, [r7, #28]
 8001b8e:	e007      	b.n	8001ba0 <HAL_I2C_EV_IRQHandler+0x1dc>
    }
    else
    {
      sr2itflags   = READ_REG(hi2c->Instance->SR2);
 8001b90:	687b      	ldr	r3, [r7, #4]
 8001b92:	681b      	ldr	r3, [r3, #0]
 8001b94:	699b      	ldr	r3, [r3, #24]
 8001b96:	61bb      	str	r3, [r7, #24]
      sr1itflags   = READ_REG(hi2c->Instance->SR1);
 8001b98:	687b      	ldr	r3, [r7, #4]
 8001b9a:	681b      	ldr	r3, [r3, #0]
 8001b9c:	695b      	ldr	r3, [r3, #20]
 8001b9e:	61fb      	str	r3, [r7, #28]
    }

    /* ADDR set --------------------------------------------------------------*/
    if ((I2C_CHECK_FLAG(sr1itflags, I2C_FLAG_ADDR) != RESET) && (I2C_CHECK_IT_SOURCE(itsources, I2C_IT_EVT) != RESET))
 8001ba0:	69fb      	ldr	r3, [r7, #28]
 8001ba2:	085b      	lsrs	r3, r3, #1
 8001ba4:	f003 0301 	and.w	r3, r3, #1
 8001ba8:	2b00      	cmp	r3, #0
 8001baa:	d012      	beq.n	8001bd2 <HAL_I2C_EV_IRQHandler+0x20e>
 8001bac:	697b      	ldr	r3, [r7, #20]
 8001bae:	0a5b      	lsrs	r3, r3, #9
 8001bb0:	f003 0301 	and.w	r3, r3, #1
 8001bb4:	2b00      	cmp	r3, #0
 8001bb6:	d00c      	beq.n	8001bd2 <HAL_I2C_EV_IRQHandler+0x20e>
    {
      /* Now time to read SR2, this will clear ADDR flag automatically */
      if (hi2c->ErrorCode != HAL_I2C_ERROR_NONE)
 8001bb8:	687b      	ldr	r3, [r7, #4]
 8001bba:	6c1b      	ldr	r3, [r3, #64]	; 0x40
 8001bbc:	2b00      	cmp	r3, #0
 8001bbe:	d003      	beq.n	8001bc8 <HAL_I2C_EV_IRQHandler+0x204>
      {
        sr2itflags   = READ_REG(hi2c->Instance->SR2);
 8001bc0:	687b      	ldr	r3, [r7, #4]
 8001bc2:	681b      	ldr	r3, [r3, #0]
 8001bc4:	699b      	ldr	r3, [r3, #24]
 8001bc6:	61bb      	str	r3, [r7, #24]
      }
      I2C_Slave_ADDR(hi2c, sr2itflags);
 8001bc8:	69b9      	ldr	r1, [r7, #24]
 8001bca:	6878      	ldr	r0, [r7, #4]
 8001bcc:	f000 ffba 	bl	8002b44 <I2C_Slave_ADDR>
 8001bd0:	e066      	b.n	8001ca0 <HAL_I2C_EV_IRQHandler+0x2dc>
    }
    /* STOPF set --------------------------------------------------------------*/
    else if ((I2C_CHECK_FLAG(sr1itflags, I2C_FLAG_STOPF) != RESET) && (I2C_CHECK_IT_SOURCE(itsources, I2C_IT_EVT) != RESET))
 8001bd2:	69fb      	ldr	r3, [r7, #28]
 8001bd4:	091b      	lsrs	r3, r3, #4
 8001bd6:	f003 0301 	and.w	r3, r3, #1
 8001bda:	2b00      	cmp	r3, #0
 8001bdc:	d009      	beq.n	8001bf2 <HAL_I2C_EV_IRQHandler+0x22e>
 8001bde:	697b      	ldr	r3, [r7, #20]
 8001be0:	0a5b      	lsrs	r3, r3, #9
 8001be2:	f003 0301 	and.w	r3, r3, #1
 8001be6:	2b00      	cmp	r3, #0
 8001be8:	d003      	beq.n	8001bf2 <HAL_I2C_EV_IRQHandler+0x22e>
    {
      I2C_Slave_STOPF(hi2c);
 8001bea:	6878      	ldr	r0, [r7, #4]
 8001bec:	f000 fff4 	bl	8002bd8 <I2C_Slave_STOPF>
 8001bf0:	e056      	b.n	8001ca0 <HAL_I2C_EV_IRQHandler+0x2dc>
    }
    /* I2C in mode Transmitter -----------------------------------------------*/
    else if ((CurrentState == HAL_I2C_STATE_BUSY_TX) || (CurrentState == HAL_I2C_STATE_BUSY_TX_LISTEN))
 8001bf2:	7bbb      	ldrb	r3, [r7, #14]
 8001bf4:	2b21      	cmp	r3, #33	; 0x21
 8001bf6:	d002      	beq.n	8001bfe <HAL_I2C_EV_IRQHandler+0x23a>
 8001bf8:	7bbb      	ldrb	r3, [r7, #14]
 8001bfa:	2b29      	cmp	r3, #41	; 0x29
 8001bfc:	d125      	bne.n	8001c4a <HAL_I2C_EV_IRQHandler+0x286>
    {
      /* TXE set and BTF reset -----------------------------------------------*/
      if ((I2C_CHECK_FLAG(sr1itflags, I2C_FLAG_TXE) != RESET) && (I2C_CHECK_IT_SOURCE(itsources, I2C_IT_BUF) != RESET) && (I2C_CHECK_FLAG(sr1itflags, I2C_FLAG_BTF) == RESET))
 8001bfe:	69fb      	ldr	r3, [r7, #28]
 8001c00:	09db      	lsrs	r3, r3, #7
 8001c02:	f003 0301 	and.w	r3, r3, #1
 8001c06:	2b00      	cmp	r3, #0
 8001c08:	d00f      	beq.n	8001c2a <HAL_I2C_EV_IRQHandler+0x266>
 8001c0a:	697b      	ldr	r3, [r7, #20]
 8001c0c:	0a9b      	lsrs	r3, r3, #10
 8001c0e:	f003 0301 	and.w	r3, r3, #1
 8001c12:	2b00      	cmp	r3, #0
 8001c14:	d009      	beq.n	8001c2a <HAL_I2C_EV_IRQHandler+0x266>
 8001c16:	69fb      	ldr	r3, [r7, #28]
 8001c18:	089b      	lsrs	r3, r3, #2
 8001c1a:	f003 0301 	and.w	r3, r3, #1
 8001c1e:	2b00      	cmp	r3, #0
 8001c20:	d103      	bne.n	8001c2a <HAL_I2C_EV_IRQHandler+0x266>
      {
        I2C_SlaveTransmit_TXE(hi2c);
 8001c22:	6878      	ldr	r0, [r7, #4]
 8001c24:	f000 fed0 	bl	80029c8 <I2C_SlaveTransmit_TXE>
      if ((I2C_CHECK_FLAG(sr1itflags, I2C_FLAG_TXE) != RESET) && (I2C_CHECK_IT_SOURCE(itsources, I2C_IT_BUF) != RESET) && (I2C_CHECK_FLAG(sr1itflags, I2C_FLAG_BTF) == RESET))
 8001c28:	e039      	b.n	8001c9e <HAL_I2C_EV_IRQHandler+0x2da>
      }
      /* BTF set -------------------------------------------------------------*/
      else if ((I2C_CHECK_FLAG(sr1itflags, I2C_FLAG_BTF) != RESET) && (I2C_CHECK_IT_SOURCE(itsources, I2C_IT_EVT) != RESET))
 8001c2a:	69fb      	ldr	r3, [r7, #28]
 8001c2c:	089b      	lsrs	r3, r3, #2
 8001c2e:	f003 0301 	and.w	r3, r3, #1
 8001c32:	2b00      	cmp	r3, #0
 8001c34:	d033      	beq.n	8001c9e <HAL_I2C_EV_IRQHandler+0x2da>
 8001c36:	697b      	ldr	r3, [r7, #20]
 8001c38:	0a5b      	lsrs	r3, r3, #9
 8001c3a:	f003 0301 	and.w	r3, r3, #1
 8001c3e:	2b00      	cmp	r3, #0
 8001c40:	d02d      	beq.n	8001c9e <HAL_I2C_EV_IRQHandler+0x2da>
      {
        I2C_SlaveTransmit_BTF(hi2c);
 8001c42:	6878      	ldr	r0, [r7, #4]
 8001c44:	f000 fefd 	bl	8002a42 <I2C_SlaveTransmit_BTF>
      if ((I2C_CHECK_FLAG(sr1itflags, I2C_FLAG_TXE) != RESET) && (I2C_CHECK_IT_SOURCE(itsources, I2C_IT_BUF) != RESET) && (I2C_CHECK_FLAG(sr1itflags, I2C_FLAG_BTF) == RESET))
 8001c48:	e029      	b.n	8001c9e <HAL_I2C_EV_IRQHandler+0x2da>
    }
    /* I2C in mode Receiver --------------------------------------------------*/
    else
    {
      /* RXNE set and BTF reset ----------------------------------------------*/
      if ((I2C_CHECK_FLAG(sr1itflags, I2C_FLAG_RXNE) != RESET) && (I2C_CHECK_IT_SOURCE(itsources, I2C_IT_BUF) != RESET) && (I2C_CHECK_FLAG(sr1itflags, I2C_FLAG_BTF) == RESET))
 8001c4a:	69fb      	ldr	r3, [r7, #28]
 8001c4c:	099b      	lsrs	r3, r3, #6
 8001c4e:	f003 0301 	and.w	r3, r3, #1
 8001c52:	2b00      	cmp	r3, #0
 8001c54:	d00f      	beq.n	8001c76 <HAL_I2C_EV_IRQHandler+0x2b2>
 8001c56:	697b      	ldr	r3, [r7, #20]
 8001c58:	0a9b      	lsrs	r3, r3, #10
 8001c5a:	f003 0301 	and.w	r3, r3, #1
 8001c5e:	2b00      	cmp	r3, #0
 8001c60:	d009      	beq.n	8001c76 <HAL_I2C_EV_IRQHandler+0x2b2>
 8001c62:	69fb      	ldr	r3, [r7, #28]
 8001c64:	089b      	lsrs	r3, r3, #2
 8001c66:	f003 0301 	and.w	r3, r3, #1
 8001c6a:	2b00      	cmp	r3, #0
 8001c6c:	d103      	bne.n	8001c76 <HAL_I2C_EV_IRQHandler+0x2b2>
      {
        I2C_SlaveReceive_RXNE(hi2c);
 8001c6e:	6878      	ldr	r0, [r7, #4]
 8001c70:	f000 ff08 	bl	8002a84 <I2C_SlaveReceive_RXNE>
 8001c74:	e014      	b.n	8001ca0 <HAL_I2C_EV_IRQHandler+0x2dc>
      }
      /* BTF set -------------------------------------------------------------*/
      else if ((I2C_CHECK_FLAG(sr1itflags, I2C_FLAG_BTF) != RESET) && (I2C_CHECK_IT_SOURCE(itsources, I2C_IT_EVT) != RESET))
 8001c76:	69fb      	ldr	r3, [r7, #28]
 8001c78:	089b      	lsrs	r3, r3, #2
 8001c7a:	f003 0301 	and.w	r3, r3, #1
 8001c7e:	2b00      	cmp	r3, #0
 8001c80:	d00e      	beq.n	8001ca0 <HAL_I2C_EV_IRQHandler+0x2dc>
 8001c82:	697b      	ldr	r3, [r7, #20]
 8001c84:	0a5b      	lsrs	r3, r3, #9
 8001c86:	f003 0301 	and.w	r3, r3, #1
 8001c8a:	2b00      	cmp	r3, #0
 8001c8c:	d008      	beq.n	8001ca0 <HAL_I2C_EV_IRQHandler+0x2dc>
      {
        I2C_SlaveReceive_BTF(hi2c);
 8001c8e:	6878      	ldr	r0, [r7, #4]
 8001c90:	f000 ff36 	bl	8002b00 <I2C_SlaveReceive_BTF>
 8001c94:	e004      	b.n	8001ca0 <HAL_I2C_EV_IRQHandler+0x2dc>
      return;
 8001c96:	bf00      	nop
 8001c98:	e002      	b.n	8001ca0 <HAL_I2C_EV_IRQHandler+0x2dc>
    if ((I2C_CHECK_FLAG(sr1itflags, I2C_FLAG_SB) != RESET) && (I2C_CHECK_IT_SOURCE(itsources, I2C_IT_EVT) != RESET))
 8001c9a:	bf00      	nop
 8001c9c:	e000      	b.n	8001ca0 <HAL_I2C_EV_IRQHandler+0x2dc>
      if ((I2C_CHECK_FLAG(sr1itflags, I2C_FLAG_TXE) != RESET) && (I2C_CHECK_IT_SOURCE(itsources, I2C_IT_BUF) != RESET) && (I2C_CHECK_FLAG(sr1itflags, I2C_FLAG_BTF) == RESET))
 8001c9e:	bf00      	nop
      {
        /* Do nothing */
      }
    }
  }
}
 8001ca0:	3720      	adds	r7, #32
 8001ca2:	46bd      	mov	sp, r7
 8001ca4:	bd80      	pop	{r7, pc}

08001ca6 <HAL_I2C_ER_IRQHandler>:
  * @param  hi2c Pointer to a I2C_HandleTypeDef structure that contains
  *                the configuration information for the specified I2C.
  * @retval None
  */
void HAL_I2C_ER_IRQHandler(I2C_HandleTypeDef *hi2c)
{
 8001ca6:	b580      	push	{r7, lr}
 8001ca8:	b08a      	sub	sp, #40	; 0x28
 8001caa:	af00      	add	r7, sp, #0
 8001cac:	6078      	str	r0, [r7, #4]
  HAL_I2C_ModeTypeDef tmp1;
  uint32_t tmp2;
  HAL_I2C_StateTypeDef tmp3;
  uint32_t tmp4;
  uint32_t sr1itflags = READ_REG(hi2c->Instance->SR1);
 8001cae:	687b      	ldr	r3, [r7, #4]
 8001cb0:	681b      	ldr	r3, [r3, #0]
 8001cb2:	695b      	ldr	r3, [r3, #20]
 8001cb4:	623b      	str	r3, [r7, #32]
  uint32_t itsources  = READ_REG(hi2c->Instance->CR2);
 8001cb6:	687b      	ldr	r3, [r7, #4]
 8001cb8:	681b      	ldr	r3, [r3, #0]
 8001cba:	685b      	ldr	r3, [r3, #4]
 8001cbc:	61fb      	str	r3, [r7, #28]
  uint32_t error      = HAL_I2C_ERROR_NONE;
 8001cbe:	2300      	movs	r3, #0
 8001cc0:	627b      	str	r3, [r7, #36]	; 0x24
  HAL_I2C_ModeTypeDef CurrentMode   = hi2c->Mode;
 8001cc2:	687b      	ldr	r3, [r7, #4]
 8001cc4:	f893 303e 	ldrb.w	r3, [r3, #62]	; 0x3e
 8001cc8:	76fb      	strb	r3, [r7, #27]

  /* I2C Bus error interrupt occurred ----------------------------------------*/
  if ((I2C_CHECK_FLAG(sr1itflags, I2C_FLAG_BERR) != RESET) && (I2C_CHECK_IT_SOURCE(itsources, I2C_IT_ERR) != RESET))
 8001cca:	6a3b      	ldr	r3, [r7, #32]
 8001ccc:	0a1b      	lsrs	r3, r3, #8
 8001cce:	f003 0301 	and.w	r3, r3, #1
 8001cd2:	2b00      	cmp	r3, #0
 8001cd4:	d00e      	beq.n	8001cf4 <HAL_I2C_ER_IRQHandler+0x4e>
 8001cd6:	69fb      	ldr	r3, [r7, #28]
 8001cd8:	0a1b      	lsrs	r3, r3, #8
 8001cda:	f003 0301 	and.w	r3, r3, #1
 8001cde:	2b00      	cmp	r3, #0
 8001ce0:	d008      	beq.n	8001cf4 <HAL_I2C_ER_IRQHandler+0x4e>
  {
    error |= HAL_I2C_ERROR_BERR;
 8001ce2:	6a7b      	ldr	r3, [r7, #36]	; 0x24
 8001ce4:	f043 0301 	orr.w	r3, r3, #1
 8001ce8:	627b      	str	r3, [r7, #36]	; 0x24

    /* Clear BERR flag */
    __HAL_I2C_CLEAR_FLAG(hi2c, I2C_FLAG_BERR);
 8001cea:	687b      	ldr	r3, [r7, #4]
 8001cec:	681b      	ldr	r3, [r3, #0]
 8001cee:	f46f 7280 	mvn.w	r2, #256	; 0x100
 8001cf2:	615a      	str	r2, [r3, #20]
  }

  /* I2C Arbitration Lost error interrupt occurred ---------------------------*/
  if ((I2C_CHECK_FLAG(sr1itflags, I2C_FLAG_ARLO) != RESET) && (I2C_CHECK_IT_SOURCE(itsources, I2C_IT_ERR) != RESET))
 8001cf4:	6a3b      	ldr	r3, [r7, #32]
 8001cf6:	0a5b      	lsrs	r3, r3, #9
 8001cf8:	f003 0301 	and.w	r3, r3, #1
 8001cfc:	2b00      	cmp	r3, #0
 8001cfe:	d00e      	beq.n	8001d1e <HAL_I2C_ER_IRQHandler+0x78>
 8001d00:	69fb      	ldr	r3, [r7, #28]
 8001d02:	0a1b      	lsrs	r3, r3, #8
 8001d04:	f003 0301 	and.w	r3, r3, #1
 8001d08:	2b00      	cmp	r3, #0
 8001d0a:	d008      	beq.n	8001d1e <HAL_I2C_ER_IRQHandler+0x78>
  {
    error |= HAL_I2C_ERROR_ARLO;
 8001d0c:	6a7b      	ldr	r3, [r7, #36]	; 0x24
 8001d0e:	f043 0302 	orr.w	r3, r3, #2
 8001d12:	627b      	str	r3, [r7, #36]	; 0x24

    /* Clear ARLO flag */
    __HAL_I2C_CLEAR_FLAG(hi2c, I2C_FLAG_ARLO);
 8001d14:	687b      	ldr	r3, [r7, #4]
 8001d16:	681b      	ldr	r3, [r3, #0]
 8001d18:	f46f 7200 	mvn.w	r2, #512	; 0x200
 8001d1c:	615a      	str	r2, [r3, #20]
  }

  /* I2C Acknowledge failure error interrupt occurred ------------------------*/
  if ((I2C_CHECK_FLAG(sr1itflags, I2C_FLAG_AF) != RESET) && (I2C_CHECK_IT_SOURCE(itsources, I2C_IT_ERR) != RESET))
 8001d1e:	6a3b      	ldr	r3, [r7, #32]
 8001d20:	0a9b      	lsrs	r3, r3, #10
 8001d22:	f003 0301 	and.w	r3, r3, #1
 8001d26:	2b00      	cmp	r3, #0
 8001d28:	d03f      	beq.n	8001daa <HAL_I2C_ER_IRQHandler+0x104>
 8001d2a:	69fb      	ldr	r3, [r7, #28]
 8001d2c:	0a1b      	lsrs	r3, r3, #8
 8001d2e:	f003 0301 	and.w	r3, r3, #1
 8001d32:	2b00      	cmp	r3, #0
 8001d34:	d039      	beq.n	8001daa <HAL_I2C_ER_IRQHandler+0x104>
  {
    tmp1 = CurrentMode;
 8001d36:	7efb      	ldrb	r3, [r7, #27]
 8001d38:	76bb      	strb	r3, [r7, #26]
    tmp2 = hi2c->XferCount;
 8001d3a:	687b      	ldr	r3, [r7, #4]
 8001d3c:	8d5b      	ldrh	r3, [r3, #42]	; 0x2a
 8001d3e:	b29b      	uxth	r3, r3
 8001d40:	617b      	str	r3, [r7, #20]
    tmp3 = hi2c->State;
 8001d42:	687b      	ldr	r3, [r7, #4]
 8001d44:	f893 303d 	ldrb.w	r3, [r3, #61]	; 0x3d
 8001d48:	74fb      	strb	r3, [r7, #19]
    tmp4 = hi2c->PreviousState;
 8001d4a:	687b      	ldr	r3, [r7, #4]
 8001d4c:	6b1b      	ldr	r3, [r3, #48]	; 0x30
 8001d4e:	60fb      	str	r3, [r7, #12]
    if ((tmp1 == HAL_I2C_MODE_SLAVE) && (tmp2 == 0U) && \
 8001d50:	7ebb      	ldrb	r3, [r7, #26]
 8001d52:	2b20      	cmp	r3, #32
 8001d54:	d112      	bne.n	8001d7c <HAL_I2C_ER_IRQHandler+0xd6>
 8001d56:	697b      	ldr	r3, [r7, #20]
 8001d58:	2b00      	cmp	r3, #0
 8001d5a:	d10f      	bne.n	8001d7c <HAL_I2C_ER_IRQHandler+0xd6>
 8001d5c:	7cfb      	ldrb	r3, [r7, #19]
 8001d5e:	2b21      	cmp	r3, #33	; 0x21
 8001d60:	d008      	beq.n	8001d74 <HAL_I2C_ER_IRQHandler+0xce>
        ((tmp3 == HAL_I2C_STATE_BUSY_TX) || (tmp3 == HAL_I2C_STATE_BUSY_TX_LISTEN) || \
 8001d62:	7cfb      	ldrb	r3, [r7, #19]
 8001d64:	2b29      	cmp	r3, #41	; 0x29
 8001d66:	d005      	beq.n	8001d74 <HAL_I2C_ER_IRQHandler+0xce>
 8001d68:	7cfb      	ldrb	r3, [r7, #19]
 8001d6a:	2b28      	cmp	r3, #40	; 0x28
 8001d6c:	d106      	bne.n	8001d7c <HAL_I2C_ER_IRQHandler+0xd6>
         ((tmp3 == HAL_I2C_STATE_LISTEN) && (tmp4 == I2C_STATE_SLAVE_BUSY_TX))))
 8001d6e:	68fb      	ldr	r3, [r7, #12]
 8001d70:	2b21      	cmp	r3, #33	; 0x21
 8001d72:	d103      	bne.n	8001d7c <HAL_I2C_ER_IRQHandler+0xd6>
    {
      I2C_Slave_AF(hi2c);
 8001d74:	6878      	ldr	r0, [r7, #4]
 8001d76:	f001 f85f 	bl	8002e38 <I2C_Slave_AF>
 8001d7a:	e016      	b.n	8001daa <HAL_I2C_ER_IRQHandler+0x104>
    }
    else
    {
      /* Clear AF flag */
      __HAL_I2C_CLEAR_FLAG(hi2c, I2C_FLAG_AF);
 8001d7c:	687b      	ldr	r3, [r7, #4]
 8001d7e:	681b      	ldr	r3, [r3, #0]
 8001d80:	f46f 6280 	mvn.w	r2, #1024	; 0x400
 8001d84:	615a      	str	r2, [r3, #20]

      error |= HAL_I2C_ERROR_AF;
 8001d86:	6a7b      	ldr	r3, [r7, #36]	; 0x24
 8001d88:	f043 0304 	orr.w	r3, r3, #4
 8001d8c:	627b      	str	r3, [r7, #36]	; 0x24

      /* Do not generate a STOP in case of Slave receive non acknowledge during transfer (mean not at the end of transfer) */
      if ((CurrentMode == HAL_I2C_MODE_MASTER) || (CurrentMode == HAL_I2C_MODE_MEM))
 8001d8e:	7efb      	ldrb	r3, [r7, #27]
 8001d90:	2b10      	cmp	r3, #16
 8001d92:	d002      	beq.n	8001d9a <HAL_I2C_ER_IRQHandler+0xf4>
 8001d94:	7efb      	ldrb	r3, [r7, #27]
 8001d96:	2b40      	cmp	r3, #64	; 0x40
 8001d98:	d107      	bne.n	8001daa <HAL_I2C_ER_IRQHandler+0x104>
      {
        /* Generate Stop */
        SET_BIT(hi2c->Instance->CR1, I2C_CR1_STOP);
 8001d9a:	687b      	ldr	r3, [r7, #4]
 8001d9c:	681b      	ldr	r3, [r3, #0]
 8001d9e:	681a      	ldr	r2, [r3, #0]
 8001da0:	687b      	ldr	r3, [r7, #4]
 8001da2:	681b      	ldr	r3, [r3, #0]
 8001da4:	f442 7200 	orr.w	r2, r2, #512	; 0x200
 8001da8:	601a      	str	r2, [r3, #0]
      }
    }
  }

  /* I2C Over-Run/Under-Run interrupt occurred -------------------------------*/
  if ((I2C_CHECK_FLAG(sr1itflags, I2C_FLAG_OVR) != RESET) && (I2C_CHECK_IT_SOURCE(itsources, I2C_IT_ERR) != RESET))
 8001daa:	6a3b      	ldr	r3, [r7, #32]
 8001dac:	0adb      	lsrs	r3, r3, #11
 8001dae:	f003 0301 	and.w	r3, r3, #1
 8001db2:	2b00      	cmp	r3, #0
 8001db4:	d00e      	beq.n	8001dd4 <HAL_I2C_ER_IRQHandler+0x12e>
 8001db6:	69fb      	ldr	r3, [r7, #28]
 8001db8:	0a1b      	lsrs	r3, r3, #8
 8001dba:	f003 0301 	and.w	r3, r3, #1
 8001dbe:	2b00      	cmp	r3, #0
 8001dc0:	d008      	beq.n	8001dd4 <HAL_I2C_ER_IRQHandler+0x12e>
  {
    error |= HAL_I2C_ERROR_OVR;
 8001dc2:	6a7b      	ldr	r3, [r7, #36]	; 0x24
 8001dc4:	f043 0308 	orr.w	r3, r3, #8
 8001dc8:	627b      	str	r3, [r7, #36]	; 0x24
    /* Clear OVR flag */
    __HAL_I2C_CLEAR_FLAG(hi2c, I2C_FLAG_OVR);
 8001dca:	687b      	ldr	r3, [r7, #4]
 8001dcc:	681b      	ldr	r3, [r3, #0]
 8001dce:	f46f 6200 	mvn.w	r2, #2048	; 0x800
 8001dd2:	615a      	str	r2, [r3, #20]
  }

  /* Call the Error Callback in case of Error detected -----------------------*/
  if (error != HAL_I2C_ERROR_NONE)
 8001dd4:	6a7b      	ldr	r3, [r7, #36]	; 0x24
 8001dd6:	2b00      	cmp	r3, #0
 8001dd8:	d008      	beq.n	8001dec <HAL_I2C_ER_IRQHandler+0x146>
  {
    hi2c->ErrorCode |= error;
 8001dda:	687b      	ldr	r3, [r7, #4]
 8001ddc:	6c1a      	ldr	r2, [r3, #64]	; 0x40
 8001dde:	6a7b      	ldr	r3, [r7, #36]	; 0x24
 8001de0:	431a      	orrs	r2, r3
 8001de2:	687b      	ldr	r3, [r7, #4]
 8001de4:	641a      	str	r2, [r3, #64]	; 0x40
    I2C_ITError(hi2c);
 8001de6:	6878      	ldr	r0, [r7, #4]
 8001de8:	f001 f896 	bl	8002f18 <I2C_ITError>
  }
}
 8001dec:	bf00      	nop
 8001dee:	3728      	adds	r7, #40	; 0x28
 8001df0:	46bd      	mov	sp, r7
 8001df2:	bd80      	pop	{r7, pc}

08001df4 <HAL_I2C_MasterTxCpltCallback>:
  * @param  hi2c Pointer to a I2C_HandleTypeDef structure that contains
  *                the configuration information for the specified I2C.
  * @retval None
  */
__weak void HAL_I2C_MasterTxCpltCallback(I2C_HandleTypeDef *hi2c)
{
 8001df4:	b480      	push	{r7}
 8001df6:	b083      	sub	sp, #12
 8001df8:	af00      	add	r7, sp, #0
 8001dfa:	6078      	str	r0, [r7, #4]
  UNUSED(hi2c);

  /* NOTE : This function should not be modified, when the callback is needed,
            the HAL_I2C_MasterTxCpltCallback could be implemented in the user file
   */
}
 8001dfc:	bf00      	nop
 8001dfe:	370c      	adds	r7, #12
 8001e00:	46bd      	mov	sp, r7
 8001e02:	f85d 7b04 	ldr.w	r7, [sp], #4
 8001e06:	4770      	bx	lr

08001e08 <HAL_I2C_MasterRxCpltCallback>:
  * @param  hi2c Pointer to a I2C_HandleTypeDef structure that contains
  *                the configuration information for the specified I2C.
  * @retval None
  */
__weak void HAL_I2C_MasterRxCpltCallback(I2C_HandleTypeDef *hi2c)
{
 8001e08:	b480      	push	{r7}
 8001e0a:	b083      	sub	sp, #12
 8001e0c:	af00      	add	r7, sp, #0
 8001e0e:	6078      	str	r0, [r7, #4]
  UNUSED(hi2c);

  /* NOTE : This function should not be modified, when the callback is needed,
            the HAL_I2C_MasterRxCpltCallback could be implemented in the user file
   */
}
 8001e10:	bf00      	nop
 8001e12:	370c      	adds	r7, #12
 8001e14:	46bd      	mov	sp, r7
 8001e16:	f85d 7b04 	ldr.w	r7, [sp], #4
 8001e1a:	4770      	bx	lr

08001e1c <HAL_I2C_SlaveTxCpltCallback>:
  * @param  hi2c Pointer to a I2C_HandleTypeDef structure that contains
  *                the configuration information for the specified I2C.
  * @retval None
  */
__weak void HAL_I2C_SlaveTxCpltCallback(I2C_HandleTypeDef *hi2c)
{
 8001e1c:	b480      	push	{r7}
 8001e1e:	b083      	sub	sp, #12
 8001e20:	af00      	add	r7, sp, #0
 8001e22:	6078      	str	r0, [r7, #4]
  UNUSED(hi2c);

  /* NOTE : This function should not be modified, when the callback is needed,
            the HAL_I2C_SlaveTxCpltCallback could be implemented in the user file
   */
}
 8001e24:	bf00      	nop
 8001e26:	370c      	adds	r7, #12
 8001e28:	46bd      	mov	sp, r7
 8001e2a:	f85d 7b04 	ldr.w	r7, [sp], #4
 8001e2e:	4770      	bx	lr

08001e30 <HAL_I2C_SlaveRxCpltCallback>:
  * @param  hi2c Pointer to a I2C_HandleTypeDef structure that contains
  *                the configuration information for the specified I2C.
  * @retval None
  */
__weak void HAL_I2C_SlaveRxCpltCallback(I2C_HandleTypeDef *hi2c)
{
 8001e30:	b480      	push	{r7}
 8001e32:	b083      	sub	sp, #12
 8001e34:	af00      	add	r7, sp, #0
 8001e36:	6078      	str	r0, [r7, #4]
  UNUSED(hi2c);

  /* NOTE : This function should not be modified, when the callback is needed,
            the HAL_I2C_SlaveRxCpltCallback could be implemented in the user file
   */
}
 8001e38:	bf00      	nop
 8001e3a:	370c      	adds	r7, #12
 8001e3c:	46bd      	mov	sp, r7
 8001e3e:	f85d 7b04 	ldr.w	r7, [sp], #4
 8001e42:	4770      	bx	lr

08001e44 <HAL_I2C_AddrCallback>:
  * @param  TransferDirection Master request Transfer Direction (Write/Read), value of @ref I2C_XferDirection_definition
  * @param  AddrMatchCode Address Match Code
  * @retval None
  */
__weak void HAL_I2C_AddrCallback(I2C_HandleTypeDef *hi2c, uint8_t TransferDirection, uint16_t AddrMatchCode)
{
 8001e44:	b480      	push	{r7}
 8001e46:	b083      	sub	sp, #12
 8001e48:	af00      	add	r7, sp, #0
 8001e4a:	6078      	str	r0, [r7, #4]
 8001e4c:	460b      	mov	r3, r1
 8001e4e:	70fb      	strb	r3, [r7, #3]
 8001e50:	4613      	mov	r3, r2
 8001e52:	803b      	strh	r3, [r7, #0]
  UNUSED(AddrMatchCode);

  /* NOTE : This function should not be modified, when the callback is needed,
            the HAL_I2C_AddrCallback() could be implemented in the user file
   */
}
 8001e54:	bf00      	nop
 8001e56:	370c      	adds	r7, #12
 8001e58:	46bd      	mov	sp, r7
 8001e5a:	f85d 7b04 	ldr.w	r7, [sp], #4
 8001e5e:	4770      	bx	lr

08001e60 <HAL_I2C_ListenCpltCallback>:
  * @param  hi2c Pointer to a I2C_HandleTypeDef structure that contains
  *                the configuration information for the specified I2C.
  * @retval None
  */
__weak void HAL_I2C_ListenCpltCallback(I2C_HandleTypeDef *hi2c)
{
 8001e60:	b480      	push	{r7}
 8001e62:	b083      	sub	sp, #12
 8001e64:	af00      	add	r7, sp, #0
 8001e66:	6078      	str	r0, [r7, #4]
  UNUSED(hi2c);

  /* NOTE : This function should not be modified, when the callback is needed,
            the HAL_I2C_ListenCpltCallback() could be implemented in the user file
  */
}
 8001e68:	bf00      	nop
 8001e6a:	370c      	adds	r7, #12
 8001e6c:	46bd      	mov	sp, r7
 8001e6e:	f85d 7b04 	ldr.w	r7, [sp], #4
 8001e72:	4770      	bx	lr

08001e74 <HAL_I2C_MemTxCpltCallback>:
  * @param  hi2c Pointer to a I2C_HandleTypeDef structure that contains
  *                the configuration information for the specified I2C.
  * @retval None
  */
__weak void HAL_I2C_MemTxCpltCallback(I2C_HandleTypeDef *hi2c)
{
 8001e74:	b480      	push	{r7}
 8001e76:	b083      	sub	sp, #12
 8001e78:	af00      	add	r7, sp, #0
 8001e7a:	6078      	str	r0, [r7, #4]
  UNUSED(hi2c);

  /* NOTE : This function should not be modified, when the callback is needed,
            the HAL_I2C_MemTxCpltCallback could be implemented in the user file
   */
}
 8001e7c:	bf00      	nop
 8001e7e:	370c      	adds	r7, #12
 8001e80:	46bd      	mov	sp, r7
 8001e82:	f85d 7b04 	ldr.w	r7, [sp], #4
 8001e86:	4770      	bx	lr

08001e88 <HAL_I2C_MemRxCpltCallback>:
  * @param  hi2c Pointer to a I2C_HandleTypeDef structure that contains
  *                the configuration information for the specified I2C.
  * @retval None
  */
__weak void HAL_I2C_MemRxCpltCallback(I2C_HandleTypeDef *hi2c)
{
 8001e88:	b480      	push	{r7}
 8001e8a:	b083      	sub	sp, #12
 8001e8c:	af00      	add	r7, sp, #0
 8001e8e:	6078      	str	r0, [r7, #4]
  UNUSED(hi2c);

  /* NOTE : This function should not be modified, when the callback is needed,
            the HAL_I2C_MemRxCpltCallback could be implemented in the user file
   */
}
 8001e90:	bf00      	nop
 8001e92:	370c      	adds	r7, #12
 8001e94:	46bd      	mov	sp, r7
 8001e96:	f85d 7b04 	ldr.w	r7, [sp], #4
 8001e9a:	4770      	bx	lr

08001e9c <HAL_I2C_ErrorCallback>:
  * @param  hi2c Pointer to a I2C_HandleTypeDef structure that contains
  *                the configuration information for the specified I2C.
  * @retval None
  */
__weak void HAL_I2C_ErrorCallback(I2C_HandleTypeDef *hi2c)
{
 8001e9c:	b480      	push	{r7}
 8001e9e:	b083      	sub	sp, #12
 8001ea0:	af00      	add	r7, sp, #0
 8001ea2:	6078      	str	r0, [r7, #4]
  UNUSED(hi2c);

  /* NOTE : This function should not be modified, when the callback is needed,
            the HAL_I2C_ErrorCallback could be implemented in the user file
   */
}
 8001ea4:	bf00      	nop
 8001ea6:	370c      	adds	r7, #12
 8001ea8:	46bd      	mov	sp, r7
 8001eaa:	f85d 7b04 	ldr.w	r7, [sp], #4
 8001eae:	4770      	bx	lr

08001eb0 <HAL_I2C_AbortCpltCallback>:
  * @param  hi2c Pointer to a I2C_HandleTypeDef structure that contains
  *                the configuration information for the specified I2C.
  * @retval None
  */
__weak void HAL_I2C_AbortCpltCallback(I2C_HandleTypeDef *hi2c)
{
 8001eb0:	b480      	push	{r7}
 8001eb2:	b083      	sub	sp, #12
 8001eb4:	af00      	add	r7, sp, #0
 8001eb6:	6078      	str	r0, [r7, #4]
  UNUSED(hi2c);

  /* NOTE : This function should not be modified, when the callback is needed,
            the HAL_I2C_AbortCpltCallback could be implemented in the user file
   */
}
 8001eb8:	bf00      	nop
 8001eba:	370c      	adds	r7, #12
 8001ebc:	46bd      	mov	sp, r7
 8001ebe:	f85d 7b04 	ldr.w	r7, [sp], #4
 8001ec2:	4770      	bx	lr

08001ec4 <I2C_MasterTransmit_TXE>:
  * @param  hi2c Pointer to a I2C_HandleTypeDef structure that contains
  *         the configuration information for I2C module
  * @retval None
  */
static void I2C_MasterTransmit_TXE(I2C_HandleTypeDef *hi2c)
{
 8001ec4:	b580      	push	{r7, lr}
 8001ec6:	b084      	sub	sp, #16
 8001ec8:	af00      	add	r7, sp, #0
 8001eca:	6078      	str	r0, [r7, #4]
  /* Declaration of temporary variables to prevent undefined behavior of volatile usage */
  HAL_I2C_StateTypeDef CurrentState = hi2c->State;
 8001ecc:	687b      	ldr	r3, [r7, #4]
 8001ece:	f893 303d 	ldrb.w	r3, [r3, #61]	; 0x3d
 8001ed2:	73fb      	strb	r3, [r7, #15]
  HAL_I2C_ModeTypeDef CurrentMode   = hi2c->Mode;
 8001ed4:	687b      	ldr	r3, [r7, #4]
 8001ed6:	f893 303e 	ldrb.w	r3, [r3, #62]	; 0x3e
 8001eda:	73bb      	strb	r3, [r7, #14]
  uint32_t CurrentXferOptions       = hi2c->XferOptions;
 8001edc:	687b      	ldr	r3, [r7, #4]
 8001ede:	6adb      	ldr	r3, [r3, #44]	; 0x2c
 8001ee0:	60bb      	str	r3, [r7, #8]

  if ((hi2c->XferSize == 0U) && (CurrentState == HAL_I2C_STATE_BUSY_TX))
 8001ee2:	687b      	ldr	r3, [r7, #4]
 8001ee4:	8d1b      	ldrh	r3, [r3, #40]	; 0x28
 8001ee6:	2b00      	cmp	r3, #0
 8001ee8:	d150      	bne.n	8001f8c <I2C_MasterTransmit_TXE+0xc8>
 8001eea:	7bfb      	ldrb	r3, [r7, #15]
 8001eec:	2b21      	cmp	r3, #33	; 0x21
 8001eee:	d14d      	bne.n	8001f8c <I2C_MasterTransmit_TXE+0xc8>
  {
    /* Call TxCpltCallback() directly if no stop mode is set */
    if ((CurrentXferOptions != I2C_FIRST_AND_LAST_FRAME) && (CurrentXferOptions != I2C_LAST_FRAME) && (CurrentXferOptions != I2C_NO_OPTION_FRAME))
 8001ef0:	68bb      	ldr	r3, [r7, #8]
 8001ef2:	2b08      	cmp	r3, #8
 8001ef4:	d01d      	beq.n	8001f32 <I2C_MasterTransmit_TXE+0x6e>
 8001ef6:	68bb      	ldr	r3, [r7, #8]
 8001ef8:	2b20      	cmp	r3, #32
 8001efa:	d01a      	beq.n	8001f32 <I2C_MasterTransmit_TXE+0x6e>
 8001efc:	68bb      	ldr	r3, [r7, #8]
 8001efe:	f513 3f80 	cmn.w	r3, #65536	; 0x10000
 8001f02:	d016      	beq.n	8001f32 <I2C_MasterTransmit_TXE+0x6e>
    {
      __HAL_I2C_DISABLE_IT(hi2c, I2C_IT_EVT | I2C_IT_BUF | I2C_IT_ERR);
 8001f04:	687b      	ldr	r3, [r7, #4]
 8001f06:	681b      	ldr	r3, [r3, #0]
 8001f08:	685a      	ldr	r2, [r3, #4]
 8001f0a:	687b      	ldr	r3, [r7, #4]
 8001f0c:	681b      	ldr	r3, [r3, #0]
 8001f0e:	f422 62e0 	bic.w	r2, r2, #1792	; 0x700
 8001f12:	605a      	str	r2, [r3, #4]

      hi2c->PreviousState = I2C_STATE_MASTER_BUSY_TX;
 8001f14:	687b      	ldr	r3, [r7, #4]
 8001f16:	2211      	movs	r2, #17
 8001f18:	631a      	str	r2, [r3, #48]	; 0x30
      hi2c->Mode = HAL_I2C_MODE_NONE;
 8001f1a:	687b      	ldr	r3, [r7, #4]
 8001f1c:	2200      	movs	r2, #0
 8001f1e:	f883 203e 	strb.w	r2, [r3, #62]	; 0x3e
      hi2c->State = HAL_I2C_STATE_READY;
 8001f22:	687b      	ldr	r3, [r7, #4]
 8001f24:	2220      	movs	r2, #32
 8001f26:	f883 203d 	strb.w	r2, [r3, #61]	; 0x3d

#if (USE_HAL_I2C_REGISTER_CALLBACKS == 1)
      hi2c->MasterTxCpltCallback(hi2c);
#else
      HAL_I2C_MasterTxCpltCallback(hi2c);
 8001f2a:	6878      	ldr	r0, [r7, #4]
 8001f2c:	f7ff ff62 	bl	8001df4 <HAL_I2C_MasterTxCpltCallback>
    if ((CurrentXferOptions != I2C_FIRST_AND_LAST_FRAME) && (CurrentXferOptions != I2C_LAST_FRAME) && (CurrentXferOptions != I2C_NO_OPTION_FRAME))
 8001f30:	e060      	b.n	8001ff4 <I2C_MasterTransmit_TXE+0x130>
#endif /* USE_HAL_I2C_REGISTER_CALLBACKS */
    }
    else /* Generate Stop condition then Call TxCpltCallback() */
    {
      /* Disable EVT, BUF and ERR interrupt */
      __HAL_I2C_DISABLE_IT(hi2c, I2C_IT_EVT | I2C_IT_BUF | I2C_IT_ERR);
 8001f32:	687b      	ldr	r3, [r7, #4]
 8001f34:	681b      	ldr	r3, [r3, #0]
 8001f36:	685a      	ldr	r2, [r3, #4]
 8001f38:	687b      	ldr	r3, [r7, #4]
 8001f3a:	681b      	ldr	r3, [r3, #0]
 8001f3c:	f422 62e0 	bic.w	r2, r2, #1792	; 0x700
 8001f40:	605a      	str	r2, [r3, #4]

      /* Generate Stop */
      SET_BIT(hi2c->Instance->CR1, I2C_CR1_STOP);
 8001f42:	687b      	ldr	r3, [r7, #4]
 8001f44:	681b      	ldr	r3, [r3, #0]
 8001f46:	681a      	ldr	r2, [r3, #0]
 8001f48:	687b      	ldr	r3, [r7, #4]
 8001f4a:	681b      	ldr	r3, [r3, #0]
 8001f4c:	f442 7200 	orr.w	r2, r2, #512	; 0x200
 8001f50:	601a      	str	r2, [r3, #0]

      hi2c->PreviousState = I2C_STATE_NONE;
 8001f52:	687b      	ldr	r3, [r7, #4]
 8001f54:	2200      	movs	r2, #0
 8001f56:	631a      	str	r2, [r3, #48]	; 0x30
      hi2c->State = HAL_I2C_STATE_READY;
 8001f58:	687b      	ldr	r3, [r7, #4]
 8001f5a:	2220      	movs	r2, #32
 8001f5c:	f883 203d 	strb.w	r2, [r3, #61]	; 0x3d

      if (hi2c->Mode == HAL_I2C_MODE_MEM)
 8001f60:	687b      	ldr	r3, [r7, #4]
 8001f62:	f893 303e 	ldrb.w	r3, [r3, #62]	; 0x3e
 8001f66:	b2db      	uxtb	r3, r3
 8001f68:	2b40      	cmp	r3, #64	; 0x40
 8001f6a:	d107      	bne.n	8001f7c <I2C_MasterTransmit_TXE+0xb8>
      {
        hi2c->Mode = HAL_I2C_MODE_NONE;
 8001f6c:	687b      	ldr	r3, [r7, #4]
 8001f6e:	2200      	movs	r2, #0
 8001f70:	f883 203e 	strb.w	r2, [r3, #62]	; 0x3e
#if (USE_HAL_I2C_REGISTER_CALLBACKS == 1)
        hi2c->MemTxCpltCallback(hi2c);
#else
        HAL_I2C_MemTxCpltCallback(hi2c);
 8001f74:	6878      	ldr	r0, [r7, #4]
 8001f76:	f7ff ff7d 	bl	8001e74 <HAL_I2C_MemTxCpltCallback>
    if ((CurrentXferOptions != I2C_FIRST_AND_LAST_FRAME) && (CurrentXferOptions != I2C_LAST_FRAME) && (CurrentXferOptions != I2C_NO_OPTION_FRAME))
 8001f7a:	e03b      	b.n	8001ff4 <I2C_MasterTransmit_TXE+0x130>
#endif /* USE_HAL_I2C_REGISTER_CALLBACKS */
      }
      else
      {
        hi2c->Mode = HAL_I2C_MODE_NONE;
 8001f7c:	687b      	ldr	r3, [r7, #4]
 8001f7e:	2200      	movs	r2, #0
 8001f80:	f883 203e 	strb.w	r2, [r3, #62]	; 0x3e
#if (USE_HAL_I2C_REGISTER_CALLBACKS == 1)
        hi2c->MasterTxCpltCallback(hi2c);
#else
        HAL_I2C_MasterTxCpltCallback(hi2c);
 8001f84:	6878      	ldr	r0, [r7, #4]
 8001f86:	f7ff ff35 	bl	8001df4 <HAL_I2C_MasterTxCpltCallback>
    if ((CurrentXferOptions != I2C_FIRST_AND_LAST_FRAME) && (CurrentXferOptions != I2C_LAST_FRAME) && (CurrentXferOptions != I2C_NO_OPTION_FRAME))
 8001f8a:	e033      	b.n	8001ff4 <I2C_MasterTransmit_TXE+0x130>
#endif /* USE_HAL_I2C_REGISTER_CALLBACKS */
      }
    }
  }
  else if ((CurrentState == HAL_I2C_STATE_BUSY_TX) || \
 8001f8c:	7bfb      	ldrb	r3, [r7, #15]
 8001f8e:	2b21      	cmp	r3, #33	; 0x21
 8001f90:	d005      	beq.n	8001f9e <I2C_MasterTransmit_TXE+0xda>
 8001f92:	7bbb      	ldrb	r3, [r7, #14]
 8001f94:	2b40      	cmp	r3, #64	; 0x40
 8001f96:	d12d      	bne.n	8001ff4 <I2C_MasterTransmit_TXE+0x130>
           ((CurrentMode == HAL_I2C_MODE_MEM) && (CurrentState == HAL_I2C_STATE_BUSY_RX)))
 8001f98:	7bfb      	ldrb	r3, [r7, #15]
 8001f9a:	2b22      	cmp	r3, #34	; 0x22
 8001f9c:	d12a      	bne.n	8001ff4 <I2C_MasterTransmit_TXE+0x130>
  {
    if (hi2c->XferCount == 0U)
 8001f9e:	687b      	ldr	r3, [r7, #4]
 8001fa0:	8d5b      	ldrh	r3, [r3, #42]	; 0x2a
 8001fa2:	b29b      	uxth	r3, r3
 8001fa4:	2b00      	cmp	r3, #0
 8001fa6:	d108      	bne.n	8001fba <I2C_MasterTransmit_TXE+0xf6>
    {
      /* Disable BUF interrupt */
      __HAL_I2C_DISABLE_IT(hi2c, I2C_IT_BUF);
 8001fa8:	687b      	ldr	r3, [r7, #4]
 8001faa:	681b      	ldr	r3, [r3, #0]
 8001fac:	685a      	ldr	r2, [r3, #4]
 8001fae:	687b      	ldr	r3, [r7, #4]
 8001fb0:	681b      	ldr	r3, [r3, #0]
 8001fb2:	f422 6280 	bic.w	r2, r2, #1024	; 0x400
 8001fb6:	605a      	str	r2, [r3, #4]
  }
  else
  {
    /* Do nothing */
  }
}
 8001fb8:	e01c      	b.n	8001ff4 <I2C_MasterTransmit_TXE+0x130>
      if (hi2c->Mode == HAL_I2C_MODE_MEM)
 8001fba:	687b      	ldr	r3, [r7, #4]
 8001fbc:	f893 303e 	ldrb.w	r3, [r3, #62]	; 0x3e
 8001fc0:	b2db      	uxtb	r3, r3
 8001fc2:	2b40      	cmp	r3, #64	; 0x40
 8001fc4:	d103      	bne.n	8001fce <I2C_MasterTransmit_TXE+0x10a>
        I2C_MemoryTransmit_TXE_BTF(hi2c);
 8001fc6:	6878      	ldr	r0, [r7, #4]
 8001fc8:	f000 f88e 	bl	80020e8 <I2C_MemoryTransmit_TXE_BTF>
}
 8001fcc:	e012      	b.n	8001ff4 <I2C_MasterTransmit_TXE+0x130>
        hi2c->Instance->DR = *hi2c->pBuffPtr;
 8001fce:	687b      	ldr	r3, [r7, #4]
 8001fd0:	6a5b      	ldr	r3, [r3, #36]	; 0x24
 8001fd2:	781a      	ldrb	r2, [r3, #0]
 8001fd4:	687b      	ldr	r3, [r7, #4]
 8001fd6:	681b      	ldr	r3, [r3, #0]
 8001fd8:	611a      	str	r2, [r3, #16]
        hi2c->pBuffPtr++;
 8001fda:	687b      	ldr	r3, [r7, #4]
 8001fdc:	6a5b      	ldr	r3, [r3, #36]	; 0x24
 8001fde:	1c5a      	adds	r2, r3, #1
 8001fe0:	687b      	ldr	r3, [r7, #4]
 8001fe2:	625a      	str	r2, [r3, #36]	; 0x24
        hi2c->XferCount--;
 8001fe4:	687b      	ldr	r3, [r7, #4]
 8001fe6:	8d5b      	ldrh	r3, [r3, #42]	; 0x2a
 8001fe8:	b29b      	uxth	r3, r3
 8001fea:	3b01      	subs	r3, #1
 8001fec:	b29a      	uxth	r2, r3
 8001fee:	687b      	ldr	r3, [r7, #4]
 8001ff0:	855a      	strh	r2, [r3, #42]	; 0x2a
}
 8001ff2:	e7ff      	b.n	8001ff4 <I2C_MasterTransmit_TXE+0x130>
 8001ff4:	bf00      	nop
 8001ff6:	3710      	adds	r7, #16
 8001ff8:	46bd      	mov	sp, r7
 8001ffa:	bd80      	pop	{r7, pc}

08001ffc <I2C_MasterTransmit_BTF>:
  * @param  hi2c Pointer to a I2C_HandleTypeDef structure that contains
  *         the configuration information for I2C module
  * @retval None
  */
static void I2C_MasterTransmit_BTF(I2C_HandleTypeDef *hi2c)
{
 8001ffc:	b580      	push	{r7, lr}
 8001ffe:	b084      	sub	sp, #16
 8002000:	af00      	add	r7, sp, #0
 8002002:	6078      	str	r0, [r7, #4]
  /* Declaration of temporary variables to prevent undefined behavior of volatile usage */
  uint32_t CurrentXferOptions = hi2c->XferOptions;
 8002004:	687b      	ldr	r3, [r7, #4]
 8002006:	6adb      	ldr	r3, [r3, #44]	; 0x2c
 8002008:	60fb      	str	r3, [r7, #12]

  if (hi2c->State == HAL_I2C_STATE_BUSY_TX)
 800200a:	687b      	ldr	r3, [r7, #4]
 800200c:	f893 303d 	ldrb.w	r3, [r3, #61]	; 0x3d
 8002010:	b2db      	uxtb	r3, r3
 8002012:	2b21      	cmp	r3, #33	; 0x21
 8002014:	d164      	bne.n	80020e0 <I2C_MasterTransmit_BTF+0xe4>
  {
    if (hi2c->XferCount != 0U)
 8002016:	687b      	ldr	r3, [r7, #4]
 8002018:	8d5b      	ldrh	r3, [r3, #42]	; 0x2a
 800201a:	b29b      	uxth	r3, r3
 800201c:	2b00      	cmp	r3, #0
 800201e:	d012      	beq.n	8002046 <I2C_MasterTransmit_BTF+0x4a>
    {
      /* Write data to DR */
      hi2c->Instance->DR = *hi2c->pBuffPtr;
 8002020:	687b      	ldr	r3, [r7, #4]
 8002022:	6a5b      	ldr	r3, [r3, #36]	; 0x24
 8002024:	781a      	ldrb	r2, [r3, #0]
 8002026:	687b      	ldr	r3, [r7, #4]
 8002028:	681b      	ldr	r3, [r3, #0]
 800202a:	611a      	str	r2, [r3, #16]

      /* Increment Buffer pointer */
      hi2c->pBuffPtr++;
 800202c:	687b      	ldr	r3, [r7, #4]
 800202e:	6a5b      	ldr	r3, [r3, #36]	; 0x24
 8002030:	1c5a      	adds	r2, r3, #1
 8002032:	687b      	ldr	r3, [r7, #4]
 8002034:	625a      	str	r2, [r3, #36]	; 0x24

      /* Update counter */
      hi2c->XferCount--;
 8002036:	687b      	ldr	r3, [r7, #4]
 8002038:	8d5b      	ldrh	r3, [r3, #42]	; 0x2a
 800203a:	b29b      	uxth	r3, r3
 800203c:	3b01      	subs	r3, #1
 800203e:	b29a      	uxth	r2, r3
 8002040:	687b      	ldr	r3, [r7, #4]
 8002042:	855a      	strh	r2, [r3, #42]	; 0x2a
  }
  else
  {
    /* Do nothing */
  }
}
 8002044:	e04c      	b.n	80020e0 <I2C_MasterTransmit_BTF+0xe4>
      if ((CurrentXferOptions != I2C_FIRST_AND_LAST_FRAME) && (CurrentXferOptions != I2C_LAST_FRAME) && (CurrentXferOptions != I2C_NO_OPTION_FRAME))
 8002046:	68fb      	ldr	r3, [r7, #12]
 8002048:	2b08      	cmp	r3, #8
