
labWork42.elf:     file format elf32-littlearm

Sections:
Idx Name          Size      VMA       LMA       File off  Algn
  0 .isr_vector   00000188  08000000  08000000  00010000  2**0
                  CONTENTS, ALLOC, LOAD, READONLY, DATA
  1 .text         00002fd8  08000188  08000188  00010188  2**2
                  CONTENTS, ALLOC, LOAD, READONLY, CODE
  2 .rodata       00000018  08003160  08003160  00013160  2**2
                  CONTENTS, ALLOC, LOAD, READONLY, DATA
  3 .ARM.extab    00000000  08003178  08003178  0002000c  2**0
                  CONTENTS
  4 .ARM          00000008  08003178  08003178  00013178  2**2
                  CONTENTS, ALLOC, LOAD, READONLY, DATA
  5 .preinit_array 00000000  08003180  08003180  0002000c  2**0
                  CONTENTS, ALLOC, LOAD, DATA
  6 .init_array   00000004  08003180  08003180  00013180  2**2
                  CONTENTS, ALLOC, LOAD, DATA
  7 .fini_array   00000004  08003184  08003184  00013184  2**2
                  CONTENTS, ALLOC, LOAD, DATA
  8 .data         0000000c  20000000  08003188  00020000  2**2
                  CONTENTS, ALLOC, LOAD, DATA
  9 .ccmram       00000000  10000000  10000000  0002000c  2**0
                  CONTENTS
 10 .bss          000000fc  2000000c  2000000c  0002000c  2**2
                  ALLOC
 11 ._user_heap_stack 00000600  20000108  20000108  0002000c  2**0
                  ALLOC
 12 .ARM.attributes 00000030  00000000  00000000  0002000c  2**0
                  CONTENTS, READONLY
 13 .debug_info   0000a367  00000000  00000000  0002003c  2**0
                  CONTENTS, READONLY, DEBUGGING, OCTETS
 14 .debug_abbrev 00001723  00000000  00000000  0002a3a3  2**0
                  CONTENTS, READONLY, DEBUGGING, OCTETS
 15 .debug_aranges 000009a8  00000000  00000000  0002bac8  2**3
                  CONTENTS, READONLY, DEBUGGING, OCTETS
 16 .debug_ranges 000008f0  00000000  00000000  0002c470  2**3
                  CONTENTS, READONLY, DEBUGGING, OCTETS
 17 .debug_macro  0001fc3a  00000000  00000000  0002cd60  2**0
                  CONTENTS, READONLY, DEBUGGING, OCTETS
 18 .debug_line   0000a4a3  00000000  00000000  0004c99a  2**0
                  CONTENTS, READONLY, DEBUGGING, OCTETS
 19 .debug_str    000c4563  00000000  00000000  00056e3d  2**0
                  CONTENTS, READONLY, DEBUGGING, OCTETS
 20 .comment      00000053  00000000  00000000  0011b3a0  2**0
                  CONTENTS, READONLY
 21 .debug_frame  000027d4  00000000  00000000  0011b3f4  2**2
                  CONTENTS, READONLY, DEBUGGING, OCTETS

Disassembly of section .text:

08000188 <__do_global_dtors_aux>:
 8000188:	b510      	push	{r4, lr}
 800018a:	4c05      	ldr	r4, [pc, #20]	; (80001a0 <__do_global_dtors_aux+0x18>)
 800018c:	7823      	ldrb	r3, [r4, #0]
 800018e:	b933      	cbnz	r3, 800019e <__do_global_dtors_aux+0x16>
 8000190:	4b04      	ldr	r3, [pc, #16]	; (80001a4 <__do_global_dtors_aux+0x1c>)
 8000192:	b113      	cbz	r3, 800019a <__do_global_dtors_aux+0x12>
 8000194:	4804      	ldr	r0, [pc, #16]	; (80001a8 <__do_global_dtors_aux+0x20>)
 8000196:	f3af 8000 	nop.w
 800019a:	2301      	movs	r3, #1
 800019c:	7023      	strb	r3, [r4, #0]
 800019e:	bd10      	pop	{r4, pc}
 80001a0:	2000000c 	.word	0x2000000c
 80001a4:	00000000 	.word	0x00000000
 80001a8:	08003148 	.word	0x08003148

080001ac <frame_dummy>:
 80001ac:	b508      	push	{r3, lr}
 80001ae:	4b03      	ldr	r3, [pc, #12]	; (80001bc <frame_dummy+0x10>)
 80001b0:	b11b      	cbz	r3, 80001ba <frame_dummy+0xe>
 80001b2:	4903      	ldr	r1, [pc, #12]	; (80001c0 <frame_dummy+0x14>)
 80001b4:	4803      	ldr	r0, [pc, #12]	; (80001c4 <frame_dummy+0x18>)
 80001b6:	f3af 8000 	nop.w
 80001ba:	bd08      	pop	{r3, pc}
 80001bc:	00000000 	.word	0x00000000
 80001c0:	20000010 	.word	0x20000010
 80001c4:	08003148 	.word	0x08003148

080001c8 <__aeabi_uldivmod>:
 80001c8:	b953      	cbnz	r3, 80001e0 <__aeabi_uldivmod+0x18>
 80001ca:	b94a      	cbnz	r2, 80001e0 <__aeabi_uldivmod+0x18>
 80001cc:	2900      	cmp	r1, #0
 80001ce:	bf08      	it	eq
 80001d0:	2800      	cmpeq	r0, #0
 80001d2:	bf1c      	itt	ne
 80001d4:	f04f 31ff 	movne.w	r1, #4294967295
 80001d8:	f04f 30ff 	movne.w	r0, #4294967295
 80001dc:	f000 b96e 	b.w	80004bc <__aeabi_idiv0>
 80001e0:	f1ad 0c08 	sub.w	ip, sp, #8
 80001e4:	e96d ce04 	strd	ip, lr, [sp, #-16]!
 80001e8:	f000 f806 	bl	80001f8 <__udivmoddi4>
 80001ec:	f8dd e004 	ldr.w	lr, [sp, #4]
 80001f0:	e9dd 2302 	ldrd	r2, r3, [sp, #8]
 80001f4:	b004      	add	sp, #16
 80001f6:	4770      	bx	lr

080001f8 <__udivmoddi4>:
 80001f8:	e92d 47f0 	stmdb	sp!, {r4, r5, r6, r7, r8, r9, sl, lr}
 80001fc:	9d08      	ldr	r5, [sp, #32]
 80001fe:	4604      	mov	r4, r0
 8000200:	468c      	mov	ip, r1
 8000202:	2b00      	cmp	r3, #0
 8000204:	f040 8083 	bne.w	800030e <__udivmoddi4+0x116>
 8000208:	428a      	cmp	r2, r1
 800020a:	4617      	mov	r7, r2
 800020c:	d947      	bls.n	800029e <__udivmoddi4+0xa6>
 800020e:	fab2 f282 	clz	r2, r2
 8000212:	b142      	cbz	r2, 8000226 <__udivmoddi4+0x2e>
 8000214:	f1c2 0020 	rsb	r0, r2, #32
 8000218:	fa24 f000 	lsr.w	r0, r4, r0
 800021c:	4091      	lsls	r1, r2
 800021e:	4097      	lsls	r7, r2
 8000220:	ea40 0c01 	orr.w	ip, r0, r1
 8000224:	4094      	lsls	r4, r2
 8000226:	ea4f 4817 	mov.w	r8, r7, lsr #16
 800022a:	0c23      	lsrs	r3, r4, #16
 800022c:	fbbc f6f8 	udiv	r6, ip, r8
 8000230:	fa1f fe87 	uxth.w	lr, r7
 8000234:	fb08 c116 	mls	r1, r8, r6, ip
 8000238:	ea43 4301 	orr.w	r3, r3, r1, lsl #16
 800023c:	fb06 f10e 	mul.w	r1, r6, lr
 8000240:	4299      	cmp	r1, r3
 8000242:	d909      	bls.n	8000258 <__udivmoddi4+0x60>
 8000244:	18fb      	adds	r3, r7, r3
 8000246:	f106 30ff 	add.w	r0, r6, #4294967295
 800024a:	f080 8119 	bcs.w	8000480 <__udivmoddi4+0x288>
 800024e:	4299      	cmp	r1, r3
 8000250:	f240 8116 	bls.w	8000480 <__udivmoddi4+0x288>
 8000254:	3e02      	subs	r6, #2
 8000256:	443b      	add	r3, r7
 8000258:	1a5b      	subs	r3, r3, r1
 800025a:	b2a4      	uxth	r4, r4
 800025c:	fbb3 f0f8 	udiv	r0, r3, r8
 8000260:	fb08 3310 	mls	r3, r8, r0, r3
 8000264:	ea44 4403 	orr.w	r4, r4, r3, lsl #16
 8000268:	fb00 fe0e 	mul.w	lr, r0, lr
 800026c:	45a6      	cmp	lr, r4
 800026e:	d909      	bls.n	8000284 <__udivmoddi4+0x8c>
 8000270:	193c      	adds	r4, r7, r4
 8000272:	f100 33ff 	add.w	r3, r0, #4294967295
 8000276:	f080 8105 	bcs.w	8000484 <__udivmoddi4+0x28c>
 800027a:	45a6      	cmp	lr, r4
 800027c:	f240 8102 	bls.w	8000484 <__udivmoddi4+0x28c>
 8000280:	3802      	subs	r0, #2
 8000282:	443c      	add	r4, r7
 8000284:	ea40 4006 	orr.w	r0, r0, r6, lsl #16
 8000288:	eba4 040e 	sub.w	r4, r4, lr
 800028c:	2600      	movs	r6, #0
 800028e:	b11d      	cbz	r5, 8000298 <__udivmoddi4+0xa0>
 8000290:	40d4      	lsrs	r4, r2
 8000292:	2300      	movs	r3, #0
 8000294:	e9c5 4300 	strd	r4, r3, [r5]
 8000298:	4631      	mov	r1, r6
 800029a:	e8bd 87f0 	ldmia.w	sp!, {r4, r5, r6, r7, r8, r9, sl, pc}
 800029e:	b902      	cbnz	r2, 80002a2 <__udivmoddi4+0xaa>
 80002a0:	deff      	udf	#255	; 0xff
 80002a2:	fab2 f282 	clz	r2, r2
 80002a6:	2a00      	cmp	r2, #0
 80002a8:	d150      	bne.n	800034c <__udivmoddi4+0x154>
 80002aa:	1bcb      	subs	r3, r1, r7
 80002ac:	ea4f 4e17 	mov.w	lr, r7, lsr #16
 80002b0:	fa1f f887 	uxth.w	r8, r7
 80002b4:	2601      	movs	r6, #1
 80002b6:	fbb3 fcfe 	udiv	ip, r3, lr
 80002ba:	0c21      	lsrs	r1, r4, #16
 80002bc:	fb0e 331c 	mls	r3, lr, ip, r3
 80002c0:	ea41 4103 	orr.w	r1, r1, r3, lsl #16
 80002c4:	fb08 f30c 	mul.w	r3, r8, ip
 80002c8:	428b      	cmp	r3, r1
 80002ca:	d907      	bls.n	80002dc <__udivmoddi4+0xe4>
 80002cc:	1879      	adds	r1, r7, r1
 80002ce:	f10c 30ff 	add.w	r0, ip, #4294967295
 80002d2:	d202      	bcs.n	80002da <__udivmoddi4+0xe2>
 80002d4:	428b      	cmp	r3, r1
 80002d6:	f200 80e9 	bhi.w	80004ac <__udivmoddi4+0x2b4>
 80002da:	4684      	mov	ip, r0
 80002dc:	1ac9      	subs	r1, r1, r3
 80002de:	b2a3      	uxth	r3, r4
 80002e0:	fbb1 f0fe 	udiv	r0, r1, lr
 80002e4:	fb0e 1110 	mls	r1, lr, r0, r1
 80002e8:	ea43 4401 	orr.w	r4, r3, r1, lsl #16
 80002ec:	fb08 f800 	mul.w	r8, r8, r0
 80002f0:	45a0      	cmp	r8, r4
 80002f2:	d907      	bls.n	8000304 <__udivmoddi4+0x10c>
 80002f4:	193c      	adds	r4, r7, r4
 80002f6:	f100 33ff 	add.w	r3, r0, #4294967295
 80002fa:	d202      	bcs.n	8000302 <__udivmoddi4+0x10a>
 80002fc:	45a0      	cmp	r8, r4
 80002fe:	f200 80d9 	bhi.w	80004b4 <__udivmoddi4+0x2bc>
 8000302:	4618      	mov	r0, r3
 8000304:	eba4 0408 	sub.w	r4, r4, r8
 8000308:	ea40 400c 	orr.w	r0, r0, ip, lsl #16
 800030c:	e7bf      	b.n	800028e <__udivmoddi4+0x96>
 800030e:	428b      	cmp	r3, r1
 8000310:	d909      	bls.n	8000326 <__udivmoddi4+0x12e>
 8000312:	2d00      	cmp	r5, #0
 8000314:	f000 80b1 	beq.w	800047a <__udivmoddi4+0x282>
 8000318:	2600      	movs	r6, #0
 800031a:	e9c5 0100 	strd	r0, r1, [r5]
 800031e:	4630      	mov	r0, r6
 8000320:	4631      	mov	r1, r6
 8000322:	e8bd 87f0 	ldmia.w	sp!, {r4, r5, r6, r7, r8, r9, sl, pc}
 8000326:	fab3 f683 	clz	r6, r3
 800032a:	2e00      	cmp	r6, #0
 800032c:	d14a      	bne.n	80003c4 <__udivmoddi4+0x1cc>
 800032e:	428b      	cmp	r3, r1
 8000330:	d302      	bcc.n	8000338 <__udivmoddi4+0x140>
 8000332:	4282      	cmp	r2, r0
 8000334:	f200 80b8 	bhi.w	80004a8 <__udivmoddi4+0x2b0>
 8000338:	1a84      	subs	r4, r0, r2
 800033a:	eb61 0103 	sbc.w	r1, r1, r3
 800033e:	2001      	movs	r0, #1
 8000340:	468c      	mov	ip, r1
 8000342:	2d00      	cmp	r5, #0
 8000344:	d0a8      	beq.n	8000298 <__udivmoddi4+0xa0>
 8000346:	e9c5 4c00 	strd	r4, ip, [r5]
 800034a:	e7a5      	b.n	8000298 <__udivmoddi4+0xa0>
 800034c:	f1c2 0320 	rsb	r3, r2, #32
 8000350:	fa20 f603 	lsr.w	r6, r0, r3
 8000354:	4097      	lsls	r7, r2
 8000356:	fa01 f002 	lsl.w	r0, r1, r2
 800035a:	ea4f 4e17 	mov.w	lr, r7, lsr #16
 800035e:	40d9      	lsrs	r1, r3
 8000360:	4330      	orrs	r0, r6
 8000362:	0c03      	lsrs	r3, r0, #16
 8000364:	fbb1 f6fe 	udiv	r6, r1, lr
 8000368:	fa1f f887 	uxth.w	r8, r7
 800036c:	fb0e 1116 	mls	r1, lr, r6, r1
 8000370:	ea43 4301 	orr.w	r3, r3, r1, lsl #16
 8000374:	fb06 f108 	mul.w	r1, r6, r8
 8000378:	4299      	cmp	r1, r3
 800037a:	fa04 f402 	lsl.w	r4, r4, r2
 800037e:	d909      	bls.n	8000394 <__udivmoddi4+0x19c>
 8000380:	18fb      	adds	r3, r7, r3
 8000382:	f106 3cff 	add.w	ip, r6, #4294967295
 8000386:	f080 808d 	bcs.w	80004a4 <__udivmoddi4+0x2ac>
 800038a:	4299      	cmp	r1, r3
 800038c:	f240 808a 	bls.w	80004a4 <__udivmoddi4+0x2ac>
 8000390:	3e02      	subs	r6, #2
 8000392:	443b      	add	r3, r7
 8000394:	1a5b      	subs	r3, r3, r1
 8000396:	b281      	uxth	r1, r0
 8000398:	fbb3 f0fe 	udiv	r0, r3, lr
 800039c:	fb0e 3310 	mls	r3, lr, r0, r3
 80003a0:	ea41 4103 	orr.w	r1, r1, r3, lsl #16
 80003a4:	fb00 f308 	mul.w	r3, r0, r8
 80003a8:	428b      	cmp	r3, r1
 80003aa:	d907      	bls.n	80003bc <__udivmoddi4+0x1c4>
 80003ac:	1879      	adds	r1, r7, r1
 80003ae:	f100 3cff 	add.w	ip, r0, #4294967295
 80003b2:	d273      	bcs.n	800049c <__udivmoddi4+0x2a4>
 80003b4:	428b      	cmp	r3, r1
 80003b6:	d971      	bls.n	800049c <__udivmoddi4+0x2a4>
 80003b8:	3802      	subs	r0, #2
 80003ba:	4439      	add	r1, r7
 80003bc:	1acb      	subs	r3, r1, r3
 80003be:	ea40 4606 	orr.w	r6, r0, r6, lsl #16
 80003c2:	e778      	b.n	80002b6 <__udivmoddi4+0xbe>
 80003c4:	f1c6 0c20 	rsb	ip, r6, #32
 80003c8:	fa03 f406 	lsl.w	r4, r3, r6
 80003cc:	fa22 f30c 	lsr.w	r3, r2, ip
 80003d0:	431c      	orrs	r4, r3
 80003d2:	fa20 f70c 	lsr.w	r7, r0, ip
 80003d6:	fa01 f306 	lsl.w	r3, r1, r6
 80003da:	ea4f 4e14 	mov.w	lr, r4, lsr #16
 80003de:	fa21 f10c 	lsr.w	r1, r1, ip
 80003e2:	431f      	orrs	r7, r3
 80003e4:	0c3b      	lsrs	r3, r7, #16
 80003e6:	fbb1 f9fe 	udiv	r9, r1, lr
 80003ea:	fa1f f884 	uxth.w	r8, r4
 80003ee:	fb0e 1119 	mls	r1, lr, r9, r1
 80003f2:	ea43 4101 	orr.w	r1, r3, r1, lsl #16
 80003f6:	fb09 fa08 	mul.w	sl, r9, r8
 80003fa:	458a      	cmp	sl, r1
 80003fc:	fa02 f206 	lsl.w	r2, r2, r6
 8000400:	fa00 f306 	lsl.w	r3, r0, r6
 8000404:	d908      	bls.n	8000418 <__udivmoddi4+0x220>
 8000406:	1861      	adds	r1, r4, r1
 8000408:	f109 30ff 	add.w	r0, r9, #4294967295
 800040c:	d248      	bcs.n	80004a0 <__udivmoddi4+0x2a8>
 800040e:	458a      	cmp	sl, r1
 8000410:	d946      	bls.n	80004a0 <__udivmoddi4+0x2a8>
 8000412:	f1a9 0902 	sub.w	r9, r9, #2
 8000416:	4421      	add	r1, r4
 8000418:	eba1 010a 	sub.w	r1, r1, sl
 800041c:	b2bf      	uxth	r7, r7
 800041e:	fbb1 f0fe 	udiv	r0, r1, lr
 8000422:	fb0e 1110 	mls	r1, lr, r0, r1
 8000426:	ea47 4701 	orr.w	r7, r7, r1, lsl #16
 800042a:	fb00 f808 	mul.w	r8, r0, r8
 800042e:	45b8      	cmp	r8, r7
 8000430:	d907      	bls.n	8000442 <__udivmoddi4+0x24a>
 8000432:	19e7      	adds	r7, r4, r7
 8000434:	f100 31ff 	add.w	r1, r0, #4294967295
 8000438:	d22e      	bcs.n	8000498 <__udivmoddi4+0x2a0>
 800043a:	45b8      	cmp	r8, r7
 800043c:	d92c      	bls.n	8000498 <__udivmoddi4+0x2a0>
 800043e:	3802      	subs	r0, #2
 8000440:	4427      	add	r7, r4
 8000442:	ea40 4009 	orr.w	r0, r0, r9, lsl #16
 8000446:	eba7 0708 	sub.w	r7, r7, r8
 800044a:	fba0 8902 	umull	r8, r9, r0, r2
 800044e:	454f      	cmp	r7, r9
 8000450:	46c6      	mov	lr, r8
 8000452:	4649      	mov	r1, r9
 8000454:	d31a      	bcc.n	800048c <__udivmoddi4+0x294>
 8000456:	d017      	beq.n	8000488 <__udivmoddi4+0x290>
 8000458:	b15d      	cbz	r5, 8000472 <__udivmoddi4+0x27a>
 800045a:	ebb3 020e 	subs.w	r2, r3, lr
 800045e:	eb67 0701 	sbc.w	r7, r7, r1
 8000462:	fa07 fc0c 	lsl.w	ip, r7, ip
 8000466:	40f2      	lsrs	r2, r6
 8000468:	ea4c 0202 	orr.w	r2, ip, r2
 800046c:	40f7      	lsrs	r7, r6
 800046e:	e9c5 2700 	strd	r2, r7, [r5]
 8000472:	2600      	movs	r6, #0
 8000474:	4631      	mov	r1, r6
 8000476:	e8bd 87f0 	ldmia.w	sp!, {r4, r5, r6, r7, r8, r9, sl, pc}
 800047a:	462e      	mov	r6, r5
 800047c:	4628      	mov	r0, r5
 800047e:	e70b      	b.n	8000298 <__udivmoddi4+0xa0>
 8000480:	4606      	mov	r6, r0
 8000482:	e6e9      	b.n	8000258 <__udivmoddi4+0x60>
 8000484:	4618      	mov	r0, r3
 8000486:	e6fd      	b.n	8000284 <__udivmoddi4+0x8c>
 8000488:	4543      	cmp	r3, r8
 800048a:	d2e5      	bcs.n	8000458 <__udivmoddi4+0x260>
 800048c:	ebb8 0e02 	subs.w	lr, r8, r2
 8000490:	eb69 0104 	sbc.w	r1, r9, r4
 8000494:	3801      	subs	r0, #1
 8000496:	e7df      	b.n	8000458 <__udivmoddi4+0x260>
 8000498:	4608      	mov	r0, r1
 800049a:	e7d2      	b.n	8000442 <__udivmoddi4+0x24a>
 800049c:	4660      	mov	r0, ip
 800049e:	e78d      	b.n	80003bc <__udivmoddi4+0x1c4>
 80004a0:	4681      	mov	r9, r0
 80004a2:	e7b9      	b.n	8000418 <__udivmoddi4+0x220>
 80004a4:	4666      	mov	r6, ip
 80004a6:	e775      	b.n	8000394 <__udivmoddi4+0x19c>
 80004a8:	4630      	mov	r0, r6
 80004aa:	e74a      	b.n	8000342 <__udivmoddi4+0x14a>
 80004ac:	f1ac 0c02 	sub.w	ip, ip, #2
 80004b0:	4439      	add	r1, r7
 80004b2:	e713      	b.n	80002dc <__udivmoddi4+0xe4>
 80004b4:	3802      	subs	r0, #2
 80004b6:	443c      	add	r4, r7
 80004b8:	e724      	b.n	8000304 <__udivmoddi4+0x10c>
 80004ba:	bf00      	nop

080004bc <__aeabi_idiv0>:
 80004bc:	4770      	bx	lr
 80004be:	bf00      	nop

080004c0 <main>:
/**
  * @brief  The application entry point.
  * @retval int
  */
int main(void)
{
 80004c0:	b580      	push	{r7, lr}
 80004c2:	af00      	add	r7, sp, #0
  /* USER CODE END 1 */

  /* MCU Configuration--------------------------------------------------------*/

  /* Reset of all peripherals, Initializes the Flash interface and the Systick. */
  HAL_Init();
 80004c4:	f000 fbf8 	bl	8000cb8 <HAL_Init>
  /* USER CODE BEGIN Init */

  /* USER CODE END Init */

  /* Configure the system clock */
  SystemClock_Config();
 80004c8:	f000 f814 	bl	80004f4 <SystemClock_Config>
  /* USER CODE BEGIN SysInit */

  /* USER CODE END SysInit */

  /* Initialize all configured peripherals */
  MX_GPIO_Init();
 80004cc:	f000 f964 	bl	8000798 <MX_GPIO_Init>
  MX_TIM2_Init();
 80004d0:	f000 f87a 	bl	80005c8 <MX_TIM2_Init>
  MX_TIM4_Init();
 80004d4:	f000 f8e8 	bl	80006a8 <MX_TIM4_Init>
  /* USER CODE BEGIN 2 */
HAL_TIM_IC_Start_IT(&htim2, TIM_CHANNEL_1);
 80004d8:	2100      	movs	r1, #0
 80004da:	4804      	ldr	r0, [pc, #16]	; (80004ec <main+0x2c>)
 80004dc:	f001 fcca 	bl	8001e74 <HAL_TIM_IC_Start_IT>
HAL_TIM_IC_Start_IT(&htim4, TIM_CHANNEL_4);
 80004e0:	210c      	movs	r1, #12
 80004e2:	4803      	ldr	r0, [pc, #12]	; (80004f0 <main+0x30>)
 80004e4:	f001 fcc6 	bl	8001e74 <HAL_TIM_IC_Start_IT>
  /* USER CODE END 2 */

  /* Infinite loop */
  /* USER CODE BEGIN WHILE */
  while (1)
 80004e8:	e7fe      	b.n	80004e8 <main+0x28>
 80004ea:	bf00      	nop
 80004ec:	20000074 	.word	0x20000074
 80004f0:	20000028 	.word	0x20000028

080004f4 <SystemClock_Config>:
/**
  * @brief System Clock Configuration
  * @retval None
  */
void SystemClock_Config(void)
{
 80004f4:	b580      	push	{r7, lr}
 80004f6:	b094      	sub	sp, #80	; 0x50
 80004f8:	af00      	add	r7, sp, #0
  RCC_OscInitTypeDef RCC_OscInitStruct = {0};
 80004fa:	f107 0320 	add.w	r3, r7, #32
 80004fe:	2230      	movs	r2, #48	; 0x30
 8000500:	2100      	movs	r1, #0
 8000502:	4618      	mov	r0, r3
 8000504:	f002 fe18 	bl	8003138 <memset>
  RCC_ClkInitTypeDef RCC_ClkInitStruct = {0};
 8000508:	f107 030c 	add.w	r3, r7, #12
 800050c:	2200      	movs	r2, #0
 800050e:	601a      	str	r2, [r3, #0]
 8000510:	605a      	str	r2, [r3, #4]
 8000512:	609a      	str	r2, [r3, #8]
 8000514:	60da      	str	r2, [r3, #12]
 8000516:	611a      	str	r2, [r3, #16]

  /** Configure the main internal regulator output voltage
  */
  __HAL_RCC_PWR_CLK_ENABLE();
 8000518:	2300      	movs	r3, #0
 800051a:	60bb      	str	r3, [r7, #8]
 800051c:	4b28      	ldr	r3, [pc, #160]	; (80005c0 <SystemClock_Config+0xcc>)
 800051e:	6c1b      	ldr	r3, [r3, #64]	; 0x40
 8000520:	4a27      	ldr	r2, [pc, #156]	; (80005c0 <SystemClock_Config+0xcc>)
 8000522:	f043 5380 	orr.w	r3, r3, #268435456	; 0x10000000
 8000526:	6413      	str	r3, [r2, #64]	; 0x40
 8000528:	4b25      	ldr	r3, [pc, #148]	; (80005c0 <SystemClock_Config+0xcc>)
 800052a:	6c1b      	ldr	r3, [r3, #64]	; 0x40
 800052c:	f003 5380 	and.w	r3, r3, #268435456	; 0x10000000
 8000530:	60bb      	str	r3, [r7, #8]
 8000532:	68bb      	ldr	r3, [r7, #8]
  __HAL_PWR_VOLTAGESCALING_CONFIG(PWR_REGULATOR_VOLTAGE_SCALE1);
 8000534:	2300      	movs	r3, #0
 8000536:	607b      	str	r3, [r7, #4]
 8000538:	4b22      	ldr	r3, [pc, #136]	; (80005c4 <SystemClock_Config+0xd0>)
 800053a:	681b      	ldr	r3, [r3, #0]
 800053c:	4a21      	ldr	r2, [pc, #132]	; (80005c4 <SystemClock_Config+0xd0>)
 800053e:	f443 4380 	orr.w	r3, r3, #16384	; 0x4000
 8000542:	6013      	str	r3, [r2, #0]
 8000544:	4b1f      	ldr	r3, [pc, #124]	; (80005c4 <SystemClock_Config+0xd0>)
 8000546:	681b      	ldr	r3, [r3, #0]
 8000548:	f403 4380 	and.w	r3, r3, #16384	; 0x4000
 800054c:	607b      	str	r3, [r7, #4]
 800054e:	687b      	ldr	r3, [r7, #4]
  /** Initializes the RCC Oscillators according to the specified parameters
  * in the RCC_OscInitTypeDef structure.
  */
  RCC_OscInitStruct.OscillatorType = RCC_OSCILLATORTYPE_HSI;
 8000550:	2302      	movs	r3, #2
 8000552:	623b      	str	r3, [r7, #32]
  RCC_OscInitStruct.HSIState = RCC_HSI_ON;
 8000554:	2301      	movs	r3, #1
 8000556:	62fb      	str	r3, [r7, #44]	; 0x2c
  RCC_OscInitStruct.HSICalibrationValue = RCC_HSICALIBRATION_DEFAULT;
 8000558:	2310      	movs	r3, #16
 800055a:	633b      	str	r3, [r7, #48]	; 0x30
  RCC_OscInitStruct.PLL.PLLState = RCC_PLL_ON;
 800055c:	2302      	movs	r3, #2
 800055e:	63bb      	str	r3, [r7, #56]	; 0x38
  RCC_OscInitStruct.PLL.PLLSource = RCC_PLLSOURCE_HSI;
 8000560:	2300      	movs	r3, #0
 8000562:	63fb      	str	r3, [r7, #60]	; 0x3c
  RCC_OscInitStruct.PLL.PLLM = 8;
 8000564:	2308      	movs	r3, #8
 8000566:	643b      	str	r3, [r7, #64]	; 0x40
  RCC_OscInitStruct.PLL.PLLN = 64;
 8000568:	2340      	movs	r3, #64	; 0x40
 800056a:	647b      	str	r3, [r7, #68]	; 0x44
  RCC_OscInitStruct.PLL.PLLP = RCC_PLLP_DIV2;
 800056c:	2302      	movs	r3, #2
 800056e:	64bb      	str	r3, [r7, #72]	; 0x48
  RCC_OscInitStruct.PLL.PLLQ = 7;
 8000570:	2307      	movs	r3, #7
 8000572:	64fb      	str	r3, [r7, #76]	; 0x4c
  if (HAL_RCC_OscConfig(&RCC_OscInitStruct) != HAL_OK)
 8000574:	f107 0320 	add.w	r3, r7, #32
 8000578:	4618      	mov	r0, r3
 800057a:	f000 fe77 	bl	800126c <HAL_RCC_OscConfig>
 800057e:	4603      	mov	r3, r0
 8000580:	2b00      	cmp	r3, #0
 8000582:	d001      	beq.n	8000588 <SystemClock_Config+0x94>
  {
    Error_Handler();
 8000584:	f000 f9e4 	bl	8000950 <Error_Handler>
  }
  /** Initializes the CPU, AHB and APB buses clocks
  */
  RCC_ClkInitStruct.ClockType = RCC_CLOCKTYPE_HCLK|RCC_CLOCKTYPE_SYSCLK
 8000588:	230f      	movs	r3, #15
 800058a:	60fb      	str	r3, [r7, #12]
                              |RCC_CLOCKTYPE_PCLK1|RCC_CLOCKTYPE_PCLK2;
  RCC_ClkInitStruct.SYSCLKSource = RCC_SYSCLKSOURCE_PLLCLK;
 800058c:	2302      	movs	r3, #2
 800058e:	613b      	str	r3, [r7, #16]
  RCC_ClkInitStruct.AHBCLKDivider = RCC_SYSCLK_DIV1;
 8000590:	2300      	movs	r3, #0
 8000592:	617b      	str	r3, [r7, #20]
  RCC_ClkInitStruct.APB1CLKDivider = RCC_HCLK_DIV8;
 8000594:	f44f 53c0 	mov.w	r3, #6144	; 0x1800
 8000598:	61bb      	str	r3, [r7, #24]
  RCC_ClkInitStruct.APB2CLKDivider = RCC_HCLK_DIV2;
 800059a:	f44f 5380 	mov.w	r3, #4096	; 0x1000
 800059e:	61fb      	str	r3, [r7, #28]

  if (HAL_RCC_ClockConfig(&RCC_ClkInitStruct, FLASH_LATENCY_2) != HAL_OK)
 80005a0:	f107 030c 	add.w	r3, r7, #12
 80005a4:	2102      	movs	r1, #2
 80005a6:	4618      	mov	r0, r3
 80005a8:	f001 f8d8 	bl	800175c <HAL_RCC_ClockConfig>
 80005ac:	4603      	mov	r3, r0
 80005ae:	2b00      	cmp	r3, #0
 80005b0:	d001      	beq.n	80005b6 <SystemClock_Config+0xc2>
  {
    Error_Handler();
 80005b2:	f000 f9cd 	bl	8000950 <Error_Handler>
  }
}
 80005b6:	bf00      	nop
 80005b8:	3750      	adds	r7, #80	; 0x50
 80005ba:	46bd      	mov	sp, r7
 80005bc:	bd80      	pop	{r7, pc}
 80005be:	bf00      	nop
 80005c0:	40023800 	.word	0x40023800
 80005c4:	40007000 	.word	0x40007000

080005c8 <MX_TIM2_Init>:
  * @brief TIM2 Initialization Function
  * @param None
  * @retval None
  */
static void MX_TIM2_Init(void)
{
 80005c8:	b580      	push	{r7, lr}
 80005ca:	b08a      	sub	sp, #40	; 0x28
 80005cc:	af00      	add	r7, sp, #0

  /* USER CODE BEGIN TIM2_Init 0 */

  /* USER CODE END TIM2_Init 0 */

  TIM_ClockConfigTypeDef sClockSourceConfig = {0};
 80005ce:	f107 0318 	add.w	r3, r7, #24
 80005d2:	2200      	movs	r2, #0
 80005d4:	601a      	str	r2, [r3, #0]
 80005d6:	605a      	str	r2, [r3, #4]
 80005d8:	609a      	str	r2, [r3, #8]
 80005da:	60da      	str	r2, [r3, #12]
  TIM_MasterConfigTypeDef sMasterConfig = {0};
 80005dc:	f107 0310 	add.w	r3, r7, #16
 80005e0:	2200      	movs	r2, #0
 80005e2:	601a      	str	r2, [r3, #0]
 80005e4:	605a      	str	r2, [r3, #4]
  TIM_IC_InitTypeDef sConfigIC = {0};
 80005e6:	463b      	mov	r3, r7
 80005e8:	2200      	movs	r2, #0
 80005ea:	601a      	str	r2, [r3, #0]
 80005ec:	605a      	str	r2, [r3, #4]
 80005ee:	609a      	str	r2, [r3, #8]
 80005f0:	60da      	str	r2, [r3, #12]

  /* USER CODE BEGIN TIM2_Init 1 */

  /* USER CODE END TIM2_Init 1 */
  htim2.Instance = TIM2;
 80005f2:	4b2c      	ldr	r3, [pc, #176]	; (80006a4 <MX_TIM2_Init+0xdc>)
 80005f4:	f04f 4280 	mov.w	r2, #1073741824	; 0x40000000
 80005f8:	601a      	str	r2, [r3, #0]
  htim2.Init.Prescaler = 15999;
 80005fa:	4b2a      	ldr	r3, [pc, #168]	; (80006a4 <MX_TIM2_Init+0xdc>)
 80005fc:	f643 627f 	movw	r2, #15999	; 0x3e7f
 8000600:	605a      	str	r2, [r3, #4]
  htim2.Init.CounterMode = TIM_COUNTERMODE_UP;
 8000602:	4b28      	ldr	r3, [pc, #160]	; (80006a4 <MX_TIM2_Init+0xdc>)
 8000604:	2200      	movs	r2, #0
 8000606:	609a      	str	r2, [r3, #8]
  htim2.Init.Period = 4294967295;
 8000608:	4b26      	ldr	r3, [pc, #152]	; (80006a4 <MX_TIM2_Init+0xdc>)
 800060a:	f04f 32ff 	mov.w	r2, #4294967295
 800060e:	60da      	str	r2, [r3, #12]
  htim2.Init.ClockDivision = TIM_CLOCKDIVISION_DIV1;
 8000610:	4b24      	ldr	r3, [pc, #144]	; (80006a4 <MX_TIM2_Init+0xdc>)
 8000612:	2200      	movs	r2, #0
 8000614:	611a      	str	r2, [r3, #16]
  htim2.Init.AutoReloadPreload = TIM_AUTORELOAD_PRELOAD_DISABLE;
 8000616:	4b23      	ldr	r3, [pc, #140]	; (80006a4 <MX_TIM2_Init+0xdc>)
 8000618:	2200      	movs	r2, #0
 800061a:	619a      	str	r2, [r3, #24]
  if (HAL_TIM_Base_Init(&htim2) != HAL_OK)
 800061c:	4821      	ldr	r0, [pc, #132]	; (80006a4 <MX_TIM2_Init+0xdc>)
 800061e:	f001 fab7 	bl	8001b90 <HAL_TIM_Base_Init>
 8000622:	4603      	mov	r3, r0
 8000624:	2b00      	cmp	r3, #0
 8000626:	d001      	beq.n	800062c <MX_TIM2_Init+0x64>
  {
    Error_Handler();
 8000628:	f000 f992 	bl	8000950 <Error_Handler>
  }
  sClockSourceConfig.ClockSource = TIM_CLOCKSOURCE_INTERNAL;
 800062c:	f44f 5380 	mov.w	r3, #4096	; 0x1000
 8000630:	61bb      	str	r3, [r7, #24]
  if (HAL_TIM_ConfigClockSource(&htim2, &sClockSourceConfig) != HAL_OK)
 8000632:	f107 0318 	add.w	r3, r7, #24
 8000636:	4619      	mov	r1, r3
 8000638:	481a      	ldr	r0, [pc, #104]	; (80006a4 <MX_TIM2_Init+0xdc>)
 800063a:	f001 ffa9 	bl	8002590 <HAL_TIM_ConfigClockSource>
 800063e:	4603      	mov	r3, r0
 8000640:	2b00      	cmp	r3, #0
 8000642:	d001      	beq.n	8000648 <MX_TIM2_Init+0x80>
  {
    Error_Handler();
 8000644:	f000 f984 	bl	8000950 <Error_Handler>
  }
  if (HAL_TIM_IC_Init(&htim2) != HAL_OK)
 8000648:	4816      	ldr	r0, [pc, #88]	; (80006a4 <MX_TIM2_Init+0xdc>)
 800064a:	f001 fbba 	bl	8001dc2 <HAL_TIM_IC_Init>
 800064e:	4603      	mov	r3, r0
 8000650:	2b00      	cmp	r3, #0
 8000652:	d001      	beq.n	8000658 <MX_TIM2_Init+0x90>
  {
    Error_Handler();
 8000654:	f000 f97c 	bl	8000950 <Error_Handler>
  }
  sMasterConfig.MasterOutputTrigger = TIM_TRGO_RESET;
 8000658:	2300      	movs	r3, #0
 800065a:	613b      	str	r3, [r7, #16]
  sMasterConfig.MasterSlaveMode = TIM_MASTERSLAVEMODE_DISABLE;
 800065c:	2300      	movs	r3, #0
 800065e:	617b      	str	r3, [r7, #20]
  if (HAL_TIMEx_MasterConfigSynchronization(&htim2, &sMasterConfig) != HAL_OK)
 8000660:	f107 0310 	add.w	r3, r7, #16
 8000664:	4619      	mov	r1, r3
 8000666:	480f      	ldr	r0, [pc, #60]	; (80006a4 <MX_TIM2_Init+0xdc>)
 8000668:	f002 fcb2 	bl	8002fd0 <HAL_TIMEx_MasterConfigSynchronization>
 800066c:	4603      	mov	r3, r0
 800066e:	2b00      	cmp	r3, #0
 8000670:	d001      	beq.n	8000676 <MX_TIM2_Init+0xae>
  {
    Error_Handler();
 8000672:	f000 f96d 	bl	8000950 <Error_Handler>
  }
  sConfigIC.ICPolarity = TIM_INPUTCHANNELPOLARITY_FALLING;
 8000676:	2302      	movs	r3, #2
 8000678:	603b      	str	r3, [r7, #0]
  sConfigIC.ICSelection = TIM_ICSELECTION_DIRECTTI;
 800067a:	2301      	movs	r3, #1
 800067c:	607b      	str	r3, [r7, #4]
  sConfigIC.ICPrescaler = TIM_ICPSC_DIV1;
 800067e:	2300      	movs	r3, #0
 8000680:	60bb      	str	r3, [r7, #8]
  sConfigIC.ICFilter = 15;
 8000682:	230f      	movs	r3, #15
 8000684:	60fb      	str	r3, [r7, #12]
  if (HAL_TIM_IC_ConfigChannel(&htim2, &sConfigIC, TIM_CHANNEL_1) != HAL_OK)
 8000686:	463b      	mov	r3, r7
 8000688:	2200      	movs	r2, #0
 800068a:	4619      	mov	r1, r3
 800068c:	4805      	ldr	r0, [pc, #20]	; (80006a4 <MX_TIM2_Init+0xdc>)
 800068e:	f001 fe21 	bl	80022d4 <HAL_TIM_IC_ConfigChannel>
 8000692:	4603      	mov	r3, r0
 8000694:	2b00      	cmp	r3, #0
 8000696:	d001      	beq.n	800069c <MX_TIM2_Init+0xd4>
  {
    Error_Handler();
 8000698:	f000 f95a 	bl	8000950 <Error_Handler>
  }
  /* USER CODE BEGIN TIM2_Init 2 */

  /* USER CODE END TIM2_Init 2 */

}
 800069c:	bf00      	nop
 800069e:	3728      	adds	r7, #40	; 0x28
 80006a0:	46bd      	mov	sp, r7
 80006a2:	bd80      	pop	{r7, pc}
 80006a4:	20000074 	.word	0x20000074

080006a8 <MX_TIM4_Init>:
  * @brief TIM4 Initialization Function
  * @param None
  * @retval None
  */
static void MX_TIM4_Init(void)
{
 80006a8:	b580      	push	{r7, lr}
 80006aa:	b08e      	sub	sp, #56	; 0x38
 80006ac:	af00      	add	r7, sp, #0

  /* USER CODE BEGIN TIM4_Init 0 */

  /* USER CODE END TIM4_Init 0 */

  TIM_ClockConfigTypeDef sClockSourceConfig = {0};
 80006ae:	f107 0328 	add.w	r3, r7, #40	; 0x28
 80006b2:	2200      	movs	r2, #0
 80006b4:	601a      	str	r2, [r3, #0]
 80006b6:	605a      	str	r2, [r3, #4]
 80006b8:	609a      	str	r2, [r3, #8]
 80006ba:	60da      	str	r2, [r3, #12]
  TIM_MasterConfigTypeDef sMasterConfig = {0};
 80006bc:	f107 0320 	add.w	r3, r7, #32
 80006c0:	2200      	movs	r2, #0
 80006c2:	601a      	str	r2, [r3, #0]
 80006c4:	605a      	str	r2, [r3, #4]
  TIM_OC_InitTypeDef sConfigOC = {0};
 80006c6:	1d3b      	adds	r3, r7, #4
 80006c8:	2200      	movs	r2, #0
 80006ca:	601a      	str	r2, [r3, #0]
 80006cc:	605a      	str	r2, [r3, #4]
 80006ce:	609a      	str	r2, [r3, #8]
 80006d0:	60da      	str	r2, [r3, #12]
 80006d2:	611a      	str	r2, [r3, #16]
 80006d4:	615a      	str	r2, [r3, #20]
 80006d6:	619a      	str	r2, [r3, #24]

  /* USER CODE BEGIN TIM4_Init 1 */

  /* USER CODE END TIM4_Init 1 */
  htim4.Instance = TIM4;
 80006d8:	4b2d      	ldr	r3, [pc, #180]	; (8000790 <MX_TIM4_Init+0xe8>)
 80006da:	4a2e      	ldr	r2, [pc, #184]	; (8000794 <MX_TIM4_Init+0xec>)
 80006dc:	601a      	str	r2, [r3, #0]
  htim4.Init.Prescaler = 15999;
 80006de:	4b2c      	ldr	r3, [pc, #176]	; (8000790 <MX_TIM4_Init+0xe8>)
 80006e0:	f643 627f 	movw	r2, #15999	; 0x3e7f
 80006e4:	605a      	str	r2, [r3, #4]
  htim4.Init.CounterMode = TIM_COUNTERMODE_UP;
 80006e6:	4b2a      	ldr	r3, [pc, #168]	; (8000790 <MX_TIM4_Init+0xe8>)
 80006e8:	2200      	movs	r2, #0
 80006ea:	609a      	str	r2, [r3, #8]
  htim4.Init.Period = 2000-1;
 80006ec:	4b28      	ldr	r3, [pc, #160]	; (8000790 <MX_TIM4_Init+0xe8>)
 80006ee:	f240 72cf 	movw	r2, #1999	; 0x7cf
 80006f2:	60da      	str	r2, [r3, #12]
  htim4.Init.ClockDivision = TIM_CLOCKDIVISION_DIV1;
 80006f4:	4b26      	ldr	r3, [pc, #152]	; (8000790 <MX_TIM4_Init+0xe8>)
 80006f6:	2200      	movs	r2, #0
 80006f8:	611a      	str	r2, [r3, #16]
  htim4.Init.AutoReloadPreload = TIM_AUTORELOAD_PRELOAD_DISABLE;
 80006fa:	4b25      	ldr	r3, [pc, #148]	; (8000790 <MX_TIM4_Init+0xe8>)
 80006fc:	2200      	movs	r2, #0
 80006fe:	619a      	str	r2, [r3, #24]
  if (HAL_TIM_Base_Init(&htim4) != HAL_OK)
 8000700:	4823      	ldr	r0, [pc, #140]	; (8000790 <MX_TIM4_Init+0xe8>)
 8000702:	f001 fa45 	bl	8001b90 <HAL_TIM_Base_Init>
 8000706:	4603      	mov	r3, r0
 8000708:	2b00      	cmp	r3, #0
 800070a:	d001      	beq.n	8000710 <MX_TIM4_Init+0x68>
  {
    Error_Handler();
 800070c:	f000 f920 	bl	8000950 <Error_Handler>
  }
  sClockSourceConfig.ClockSource = TIM_CLOCKSOURCE_INTERNAL;
 8000710:	f44f 5380 	mov.w	r3, #4096	; 0x1000
 8000714:	62bb      	str	r3, [r7, #40]	; 0x28
  if (HAL_TIM_ConfigClockSource(&htim4, &sClockSourceConfig) != HAL_OK)
 8000716:	f107 0328 	add.w	r3, r7, #40	; 0x28
 800071a:	4619      	mov	r1, r3
 800071c:	481c      	ldr	r0, [pc, #112]	; (8000790 <MX_TIM4_Init+0xe8>)
 800071e:	f001 ff37 	bl	8002590 <HAL_TIM_ConfigClockSource>
 8000722:	4603      	mov	r3, r0
 8000724:	2b00      	cmp	r3, #0
 8000726:	d001      	beq.n	800072c <MX_TIM4_Init+0x84>
  {
    Error_Handler();
 8000728:	f000 f912 	bl	8000950 <Error_Handler>
  }
  if (HAL_TIM_PWM_Init(&htim4) != HAL_OK)
 800072c:	4818      	ldr	r0, [pc, #96]	; (8000790 <MX_TIM4_Init+0xe8>)
 800072e:	f001 faef 	bl	8001d10 <HAL_TIM_PWM_Init>
 8000732:	4603      	mov	r3, r0
 8000734:	2b00      	cmp	r3, #0
 8000736:	d001      	beq.n	800073c <MX_TIM4_Init+0x94>
  {
    Error_Handler();
 8000738:	f000 f90a 	bl	8000950 <Error_Handler>
  }
  sMasterConfig.MasterOutputTrigger = TIM_TRGO_RESET;
 800073c:	2300      	movs	r3, #0
 800073e:	623b      	str	r3, [r7, #32]
  sMasterConfig.MasterSlaveMode = TIM_MASTERSLAVEMODE_DISABLE;
 8000740:	2300      	movs	r3, #0
 8000742:	627b      	str	r3, [r7, #36]	; 0x24
  if (HAL_TIMEx_MasterConfigSynchronization(&htim4, &sMasterConfig) != HAL_OK)
 8000744:	f107 0320 	add.w	r3, r7, #32
 8000748:	4619      	mov	r1, r3
 800074a:	4811      	ldr	r0, [pc, #68]	; (8000790 <MX_TIM4_Init+0xe8>)
 800074c:	f002 fc40 	bl	8002fd0 <HAL_TIMEx_MasterConfigSynchronization>
 8000750:	4603      	mov	r3, r0
 8000752:	2b00      	cmp	r3, #0
 8000754:	d001      	beq.n	800075a <MX_TIM4_Init+0xb2>
  {
    Error_Handler();
 8000756:	f000 f8fb 	bl	8000950 <Error_Handler>
  }
  sConfigOC.OCMode = TIM_OCMODE_PWM1;
 800075a:	2360      	movs	r3, #96	; 0x60
 800075c:	607b      	str	r3, [r7, #4]
  sConfigOC.Pulse = 1000-1;
 800075e:	f240 33e7 	movw	r3, #999	; 0x3e7
 8000762:	60bb      	str	r3, [r7, #8]
  sConfigOC.OCPolarity = TIM_OCPOLARITY_HIGH;
 8000764:	2300      	movs	r3, #0
 8000766:	60fb      	str	r3, [r7, #12]
  sConfigOC.OCFastMode = TIM_OCFAST_DISABLE;
 8000768:	2300      	movs	r3, #0
 800076a:	617b      	str	r3, [r7, #20]
  if (HAL_TIM_PWM_ConfigChannel(&htim4, &sConfigOC, TIM_CHANNEL_4) != HAL_OK)
 800076c:	1d3b      	adds	r3, r7, #4
 800076e:	220c      	movs	r2, #12
 8000770:	4619      	mov	r1, r3
 8000772:	4807      	ldr	r0, [pc, #28]	; (8000790 <MX_TIM4_Init+0xe8>)
 8000774:	f001 fe4a 	bl	800240c <HAL_TIM_PWM_ConfigChannel>
 8000778:	4603      	mov	r3, r0
 800077a:	2b00      	cmp	r3, #0
 800077c:	d001      	beq.n	8000782 <MX_TIM4_Init+0xda>
  {
    Error_Handler();
 800077e:	f000 f8e7 	bl	8000950 <Error_Handler>
  }
  /* USER CODE BEGIN TIM4_Init 2 */

  /* USER CODE END TIM4_Init 2 */
  HAL_TIM_MspPostInit(&htim4);
 8000782:	4803      	ldr	r0, [pc, #12]	; (8000790 <MX_TIM4_Init+0xe8>)
 8000784:	f000 f97e 	bl	8000a84 <HAL_TIM_MspPostInit>

}
 8000788:	bf00      	nop
 800078a:	3738      	adds	r7, #56	; 0x38
 800078c:	46bd      	mov	sp, r7
 800078e:	bd80      	pop	{r7, pc}
 8000790:	20000028 	.word	0x20000028
 8000794:	40000800 	.word	0x40000800

08000798 <MX_GPIO_Init>:
  * @brief GPIO Initialization Function
  * @param None
  * @retval None
  */
static void MX_GPIO_Init(void)
{
 8000798:	b580      	push	{r7, lr}
 800079a:	b088      	sub	sp, #32
 800079c:	af00      	add	r7, sp, #0
  GPIO_InitTypeDef GPIO_InitStruct = {0};
 800079e:	f107 030c 	add.w	r3, r7, #12
 80007a2:	2200      	movs	r2, #0
 80007a4:	601a      	str	r2, [r3, #0]
 80007a6:	605a      	str	r2, [r3, #4]
 80007a8:	609a      	str	r2, [r3, #8]
 80007aa:	60da      	str	r2, [r3, #12]
 80007ac:	611a      	str	r2, [r3, #16]

  /* GPIO Ports Clock Enable */
  __HAL_RCC_GPIOA_CLK_ENABLE();
 80007ae:	2300      	movs	r3, #0
 80007b0:	60bb      	str	r3, [r7, #8]
 80007b2:	4b19      	ldr	r3, [pc, #100]	; (8000818 <MX_GPIO_Init+0x80>)
 80007b4:	6b1b      	ldr	r3, [r3, #48]	; 0x30
 80007b6:	4a18      	ldr	r2, [pc, #96]	; (8000818 <MX_GPIO_Init+0x80>)
 80007b8:	f043 0301 	orr.w	r3, r3, #1
 80007bc:	6313      	str	r3, [r2, #48]	; 0x30
 80007be:	4b16      	ldr	r3, [pc, #88]	; (8000818 <MX_GPIO_Init+0x80>)
 80007c0:	6b1b      	ldr	r3, [r3, #48]	; 0x30
 80007c2:	f003 0301 	and.w	r3, r3, #1
 80007c6:	60bb      	str	r3, [r7, #8]
 80007c8:	68bb      	ldr	r3, [r7, #8]
  __HAL_RCC_GPIOD_CLK_ENABLE();
 80007ca:	2300      	movs	r3, #0
 80007cc:	607b      	str	r3, [r7, #4]
 80007ce:	4b12      	ldr	r3, [pc, #72]	; (8000818 <MX_GPIO_Init+0x80>)
 80007d0:	6b1b      	ldr	r3, [r3, #48]	; 0x30
 80007d2:	4a11      	ldr	r2, [pc, #68]	; (8000818 <MX_GPIO_Init+0x80>)
 80007d4:	f043 0308 	orr.w	r3, r3, #8
 80007d8:	6313      	str	r3, [r2, #48]	; 0x30
 80007da:	4b0f      	ldr	r3, [pc, #60]	; (8000818 <MX_GPIO_Init+0x80>)
 80007dc:	6b1b      	ldr	r3, [r3, #48]	; 0x30
 80007de:	f003 0308 	and.w	r3, r3, #8
 80007e2:	607b      	str	r3, [r7, #4]
 80007e4:	687b      	ldr	r3, [r7, #4]

  /*Configure GPIO pin Output Level */
  HAL_GPIO_WritePin(GPIOD, GPIO_PIN_12|GPIO_PIN_13|GPIO_PIN_14, GPIO_PIN_RESET);
 80007e6:	2200      	movs	r2, #0
 80007e8:	f44f 41e0 	mov.w	r1, #28672	; 0x7000
 80007ec:	480b      	ldr	r0, [pc, #44]	; (800081c <MX_GPIO_Init+0x84>)
 80007ee:	f000 fd23 	bl	8001238 <HAL_GPIO_WritePin>

  /*Configure GPIO pins : PD12 PD13 PD14 */
  GPIO_InitStruct.Pin = GPIO_PIN_12|GPIO_PIN_13|GPIO_PIN_14;
 80007f2:	f44f 43e0 	mov.w	r3, #28672	; 0x7000
 80007f6:	60fb      	str	r3, [r7, #12]
  GPIO_InitStruct.Mode = GPIO_MODE_OUTPUT_PP;
 80007f8:	2301      	movs	r3, #1
 80007fa:	613b      	str	r3, [r7, #16]
  GPIO_InitStruct.Pull = GPIO_NOPULL;
 80007fc:	2300      	movs	r3, #0
 80007fe:	617b      	str	r3, [r7, #20]
  GPIO_InitStruct.Speed = GPIO_SPEED_FREQ_LOW;
 8000800:	2300      	movs	r3, #0
 8000802:	61bb      	str	r3, [r7, #24]
  HAL_GPIO_Init(GPIOD, &GPIO_InitStruct);
 8000804:	f107 030c 	add.w	r3, r7, #12
 8000808:	4619      	mov	r1, r3
 800080a:	4804      	ldr	r0, [pc, #16]	; (800081c <MX_GPIO_Init+0x84>)
 800080c:	f000 fb78 	bl	8000f00 <HAL_GPIO_Init>

}
 8000810:	bf00      	nop
 8000812:	3720      	adds	r7, #32
 8000814:	46bd      	mov	sp, r7
 8000816:	bd80      	pop	{r7, pc}
 8000818:	40023800 	.word	0x40023800
 800081c:	40020c00 	.word	0x40020c00

08000820 <HAL_TIM_IC_CaptureCallback>:

/* USER CODE BEGIN 4 */
void HAL_TIM_IC_CaptureCallback(TIM_HandleTypeDef  *htim){
 8000820:	b580      	push	{r7, lr}
 8000822:	b082      	sub	sp, #8
 8000824:	af00      	add	r7, sp, #0
 8000826:	6078      	str	r0, [r7, #4]
	UNUSED(htim);
	if(htim->Instance == TIM2){
 8000828:	687b      	ldr	r3, [r7, #4]
 800082a:	681b      	ldr	r3, [r3, #0]
 800082c:	f1b3 4f80 	cmp.w	r3, #1073741824	; 0x40000000
 8000830:	d174      	bne.n	800091c <HAL_TIM_IC_CaptureCallback+0xfc>
	inputCaptureVal = __HAL_TIM_GET_COUNTER(htim);
 8000832:	687b      	ldr	r3, [r7, #4]
 8000834:	681b      	ldr	r3, [r3, #0]
 8000836:	6a5b      	ldr	r3, [r3, #36]	; 0x24
 8000838:	461a      	mov	r2, r3
 800083a:	4b3a      	ldr	r3, [pc, #232]	; (8000924 <HAL_TIM_IC_CaptureCallback+0x104>)
 800083c:	601a      	str	r2, [r3, #0]


	__HAL_TIM_SetCounter(htim, 0);
 800083e:	687b      	ldr	r3, [r7, #4]
 8000840:	681b      	ldr	r3, [r3, #0]
 8000842:	2200      	movs	r2, #0
 8000844:	625a      	str	r2, [r3, #36]	; 0x24

		if(inputCaptureVal < 4000){
 8000846:	4b37      	ldr	r3, [pc, #220]	; (8000924 <HAL_TIM_IC_CaptureCallback+0x104>)
 8000848:	681b      	ldr	r3, [r3, #0]
 800084a:	f5b3 6f7a 	cmp.w	r3, #4000	; 0xfa0
 800084e:	da11      	bge.n	8000874 <HAL_TIM_IC_CaptureCallback+0x54>
		HAL_GPIO_WritePin(GPIOD, GPIO_PIN_12, SET);
 8000850:	2201      	movs	r2, #1
 8000852:	f44f 5180 	mov.w	r1, #4096	; 0x1000
 8000856:	4834      	ldr	r0, [pc, #208]	; (8000928 <HAL_TIM_IC_CaptureCallback+0x108>)
 8000858:	f000 fcee 	bl	8001238 <HAL_GPIO_WritePin>
		HAL_GPIO_WritePin(GPIOD, GPIO_PIN_13, RESET);
 800085c:	2200      	movs	r2, #0
 800085e:	f44f 5100 	mov.w	r1, #8192	; 0x2000
 8000862:	4831      	ldr	r0, [pc, #196]	; (8000928 <HAL_TIM_IC_CaptureCallback+0x108>)
 8000864:	f000 fce8 	bl	8001238 <HAL_GPIO_WritePin>
		HAL_GPIO_WritePin(GPIOD, GPIO_PIN_14, RESET);
 8000868:	2200      	movs	r2, #0
 800086a:	f44f 4180 	mov.w	r1, #16384	; 0x4000
 800086e:	482e      	ldr	r0, [pc, #184]	; (8000928 <HAL_TIM_IC_CaptureCallback+0x108>)
 8000870:	f000 fce2 	bl	8001238 <HAL_GPIO_WritePin>

		}
		if((inputCaptureVal >= 4000) && (inputCaptureVal <= 8000)){
 8000874:	4b2b      	ldr	r3, [pc, #172]	; (8000924 <HAL_TIM_IC_CaptureCallback+0x104>)
 8000876:	681b      	ldr	r3, [r3, #0]
 8000878:	f5b3 6f7a 	cmp.w	r3, #4000	; 0xfa0
 800087c:	db16      	blt.n	80008ac <HAL_TIM_IC_CaptureCallback+0x8c>
 800087e:	4b29      	ldr	r3, [pc, #164]	; (8000924 <HAL_TIM_IC_CaptureCallback+0x104>)
 8000880:	681b      	ldr	r3, [r3, #0]
 8000882:	f5b3 5ffa 	cmp.w	r3, #8000	; 0x1f40
 8000886:	dc11      	bgt.n	80008ac <HAL_TIM_IC_CaptureCallback+0x8c>
		HAL_GPIO_WritePin(GPIOD, GPIO_PIN_12, SET);
 8000888:	2201      	movs	r2, #1
 800088a:	f44f 5180 	mov.w	r1, #4096	; 0x1000
 800088e:	4826      	ldr	r0, [pc, #152]	; (8000928 <HAL_TIM_IC_CaptureCallback+0x108>)
 8000890:	f000 fcd2 	bl	8001238 <HAL_GPIO_WritePin>
		HAL_GPIO_WritePin(GPIOD, GPIO_PIN_13, SET);
 8000894:	2201      	movs	r2, #1
 8000896:	f44f 5100 	mov.w	r1, #8192	; 0x2000
 800089a:	4823      	ldr	r0, [pc, #140]	; (8000928 <HAL_TIM_IC_CaptureCallback+0x108>)
 800089c:	f000 fccc 	bl	8001238 <HAL_GPIO_WritePin>
		HAL_GPIO_WritePin(GPIOD, GPIO_PIN_14, RESET);
 80008a0:	2200      	movs	r2, #0
 80008a2:	f44f 4180 	mov.w	r1, #16384	; 0x4000
 80008a6:	4820      	ldr	r0, [pc, #128]	; (8000928 <HAL_TIM_IC_CaptureCallback+0x108>)
 80008a8:	f000 fcc6 	bl	8001238 <HAL_GPIO_WritePin>

		}
		if((inputCaptureVal >= 8000) && (inputCaptureVal <= 12000)){
 80008ac:	4b1d      	ldr	r3, [pc, #116]	; (8000924 <HAL_TIM_IC_CaptureCallback+0x104>)
 80008ae:	681b      	ldr	r3, [r3, #0]
 80008b0:	f5b3 5ffa 	cmp.w	r3, #8000	; 0x1f40
 80008b4:	db17      	blt.n	80008e6 <HAL_TIM_IC_CaptureCallback+0xc6>
 80008b6:	4b1b      	ldr	r3, [pc, #108]	; (8000924 <HAL_TIM_IC_CaptureCallback+0x104>)
 80008b8:	681b      	ldr	r3, [r3, #0]
 80008ba:	f642 62e0 	movw	r2, #12000	; 0x2ee0
 80008be:	4293      	cmp	r3, r2
 80008c0:	dc11      	bgt.n	80008e6 <HAL_TIM_IC_CaptureCallback+0xc6>
		HAL_GPIO_WritePin(GPIOD, GPIO_PIN_12, SET);
 80008c2:	2201      	movs	r2, #1
 80008c4:	f44f 5180 	mov.w	r1, #4096	; 0x1000
 80008c8:	4817      	ldr	r0, [pc, #92]	; (8000928 <HAL_TIM_IC_CaptureCallback+0x108>)
 80008ca:	f000 fcb5 	bl	8001238 <HAL_GPIO_WritePin>
		HAL_GPIO_WritePin(GPIOD, GPIO_PIN_13, SET);
 80008ce:	2201      	movs	r2, #1
 80008d0:	f44f 5100 	mov.w	r1, #8192	; 0x2000
 80008d4:	4814      	ldr	r0, [pc, #80]	; (8000928 <HAL_TIM_IC_CaptureCallback+0x108>)
 80008d6:	f000 fcaf 	bl	8001238 <HAL_GPIO_WritePin>
		HAL_GPIO_WritePin(GPIOD, GPIO_PIN_14, SET);
 80008da:	2201      	movs	r2, #1
 80008dc:	f44f 4180 	mov.w	r1, #16384	; 0x4000
 80008e0:	4811      	ldr	r0, [pc, #68]	; (8000928 <HAL_TIM_IC_CaptureCallback+0x108>)
 80008e2:	f000 fca9 	bl	8001238 <HAL_GPIO_WritePin>

		}
		if(inputCaptureVal >= 12000){
 80008e6:	4b0f      	ldr	r3, [pc, #60]	; (8000924 <HAL_TIM_IC_CaptureCallback+0x104>)
 80008e8:	681b      	ldr	r3, [r3, #0]
 80008ea:	f642 62df 	movw	r2, #11999	; 0x2edf
 80008ee:	4293      	cmp	r3, r2
 80008f0:	dd11      	ble.n	8000916 <HAL_TIM_IC_CaptureCallback+0xf6>
		HAL_GPIO_WritePin(GPIOD, GPIO_PIN_12, SET);
 80008f2:	2201      	movs	r2, #1
 80008f4:	f44f 5180 	mov.w	r1, #4096	; 0x1000
 80008f8:	480b      	ldr	r0, [pc, #44]	; (8000928 <HAL_TIM_IC_CaptureCallback+0x108>)
 80008fa:	f000 fc9d 	bl	8001238 <HAL_GPIO_WritePin>
		HAL_GPIO_WritePin(GPIOD, GPIO_PIN_13, SET);
 80008fe:	2201      	movs	r2, #1
 8000900:	f44f 5100 	mov.w	r1, #8192	; 0x2000
 8000904:	4808      	ldr	r0, [pc, #32]	; (8000928 <HAL_TIM_IC_CaptureCallback+0x108>)
 8000906:	f000 fc97 	bl	8001238 <HAL_GPIO_WritePin>
		HAL_GPIO_WritePin(GPIOD, GPIO_PIN_14, SET);
 800090a:	2201      	movs	r2, #1
 800090c:	f44f 4180 	mov.w	r1, #16384	; 0x4000
 8000910:	4805      	ldr	r0, [pc, #20]	; (8000928 <HAL_TIM_IC_CaptureCallback+0x108>)
 8000912:	f000 fc91 	bl	8001238 <HAL_GPIO_WritePin>

		}
		inputCaptureVal = 0;
 8000916:	4b03      	ldr	r3, [pc, #12]	; (8000924 <HAL_TIM_IC_CaptureCallback+0x104>)
 8000918:	2200      	movs	r2, #0
 800091a:	601a      	str	r2, [r3, #0]
	}
}
 800091c:	bf00      	nop
 800091e:	3708      	adds	r7, #8
 8000920:	46bd      	mov	sp, r7
 8000922:	bd80      	pop	{r7, pc}
 8000924:	20000070 	.word	0x20000070
 8000928:	40020c00 	.word	0x40020c00

0800092c <HAL_TIM_PeriodElapsedCallback>:
  * a global variable "uwTick" used as application time base.
  * @param  htim : TIM handle
  * @retval None
  */
void HAL_TIM_PeriodElapsedCallback(TIM_HandleTypeDef *htim)
{
 800092c:	b580      	push	{r7, lr}
 800092e:	b082      	sub	sp, #8
 8000930:	af00      	add	r7, sp, #0
 8000932:	6078      	str	r0, [r7, #4]
  /* USER CODE BEGIN Callback 0 */

  /* USER CODE END Callback 0 */
  if (htim->Instance == TIM1) {
 8000934:	687b      	ldr	r3, [r7, #4]
 8000936:	681b      	ldr	r3, [r3, #0]
 8000938:	4a04      	ldr	r2, [pc, #16]	; (800094c <HAL_TIM_PeriodElapsedCallback+0x20>)
 800093a:	4293      	cmp	r3, r2
 800093c:	d101      	bne.n	8000942 <HAL_TIM_PeriodElapsedCallback+0x16>
    HAL_IncTick();
 800093e:	f000 f9dd 	bl	8000cfc <HAL_IncTick>
  }
  /* USER CODE BEGIN Callback 1 */

  /* USER CODE END Callback 1 */
}
 8000942:	bf00      	nop
 8000944:	3708      	adds	r7, #8
 8000946:	46bd      	mov	sp, r7
 8000948:	bd80      	pop	{r7, pc}
 800094a:	bf00      	nop
 800094c:	40010000 	.word	0x40010000

08000950 <Error_Handler>:
/**
  * @brief  This function is executed in case of error occurrence.
  * @retval None
  */
void Error_Handler(void)
{
 8000950:	b480      	push	{r7}
 8000952:	af00      	add	r7, sp, #0
  \details Disables IRQ interrupts by setting the I-bit in the CPSR.
           Can only be executed in Privileged modes.
 */
__STATIC_FORCEINLINE void __disable_irq(void)
{
  __ASM volatile ("cpsid i" : : : "memory");
 8000954:	b672      	cpsid	i
}
 8000956:	bf00      	nop
  /* USER CODE BEGIN Error_Handler_Debug */
  /* User can add his own implementation to report the HAL error return state */
  __disable_irq();
  while (1)
 8000958:	e7fe      	b.n	8000958 <Error_Handler+0x8>
	...

0800095c <HAL_MspInit>:
void HAL_TIM_MspPostInit(TIM_HandleTypeDef *htim);
                    /**
  * Initializes the Global MSP.
  */
void HAL_MspInit(void)
{
 800095c:	b580      	push	{r7, lr}
 800095e:	b082      	sub	sp, #8
 8000960:	af00      	add	r7, sp, #0
  /* USER CODE BEGIN MspInit 0 */

  /* USER CODE END MspInit 0 */

  __HAL_RCC_SYSCFG_CLK_ENABLE();
 8000962:	2300      	movs	r3, #0
 8000964:	607b      	str	r3, [r7, #4]
 8000966:	4b10      	ldr	r3, [pc, #64]	; (80009a8 <HAL_MspInit+0x4c>)
 8000968:	6c5b      	ldr	r3, [r3, #68]	; 0x44
 800096a:	4a0f      	ldr	r2, [pc, #60]	; (80009a8 <HAL_MspInit+0x4c>)
 800096c:	f443 4380 	orr.w	r3, r3, #16384	; 0x4000
 8000970:	6453      	str	r3, [r2, #68]	; 0x44
 8000972:	4b0d      	ldr	r3, [pc, #52]	; (80009a8 <HAL_MspInit+0x4c>)
 8000974:	6c5b      	ldr	r3, [r3, #68]	; 0x44
 8000976:	f403 4380 	and.w	r3, r3, #16384	; 0x4000
 800097a:	607b      	str	r3, [r7, #4]
 800097c:	687b      	ldr	r3, [r7, #4]
  __HAL_RCC_PWR_CLK_ENABLE();
 800097e:	2300      	movs	r3, #0
 8000980:	603b      	str	r3, [r7, #0]
 8000982:	4b09      	ldr	r3, [pc, #36]	; (80009a8 <HAL_MspInit+0x4c>)
 8000984:	6c1b      	ldr	r3, [r3, #64]	; 0x40
 8000986:	4a08      	ldr	r2, [pc, #32]	; (80009a8 <HAL_MspInit+0x4c>)
 8000988:	f043 5380 	orr.w	r3, r3, #268435456	; 0x10000000
 800098c:	6413      	str	r3, [r2, #64]	; 0x40
 800098e:	4b06      	ldr	r3, [pc, #24]	; (80009a8 <HAL_MspInit+0x4c>)
 8000990:	6c1b      	ldr	r3, [r3, #64]	; 0x40
 8000992:	f003 5380 	and.w	r3, r3, #268435456	; 0x10000000
 8000996:	603b      	str	r3, [r7, #0]
 8000998:	683b      	ldr	r3, [r7, #0]

  HAL_NVIC_SetPriorityGrouping(NVIC_PRIORITYGROUP_0);
 800099a:	2007      	movs	r0, #7
 800099c:	f000 fa7b 	bl	8000e96 <HAL_NVIC_SetPriorityGrouping>
  /* System interrupt init*/

  /* USER CODE BEGIN MspInit 1 */

  /* USER CODE END MspInit 1 */
}
 80009a0:	bf00      	nop
 80009a2:	3708      	adds	r7, #8
 80009a4:	46bd      	mov	sp, r7
 80009a6:	bd80      	pop	{r7, pc}
 80009a8:	40023800 	.word	0x40023800

080009ac <HAL_TIM_Base_MspInit>:
* This function configures the hardware resources used in this example
* @param htim_base: TIM_Base handle pointer
* @retval None
*/
void HAL_TIM_Base_MspInit(TIM_HandleTypeDef* htim_base)
{
 80009ac:	b580      	push	{r7, lr}
 80009ae:	b08a      	sub	sp, #40	; 0x28
 80009b0:	af00      	add	r7, sp, #0
 80009b2:	6078      	str	r0, [r7, #4]
  GPIO_InitTypeDef GPIO_InitStruct = {0};
 80009b4:	f107 0314 	add.w	r3, r7, #20
 80009b8:	2200      	movs	r2, #0
 80009ba:	601a      	str	r2, [r3, #0]
 80009bc:	605a      	str	r2, [r3, #4]
 80009be:	609a      	str	r2, [r3, #8]
 80009c0:	60da      	str	r2, [r3, #12]
 80009c2:	611a      	str	r2, [r3, #16]
  if(htim_base->Instance==TIM2)
 80009c4:	687b      	ldr	r3, [r7, #4]
 80009c6:	681b      	ldr	r3, [r3, #0]
 80009c8:	f1b3 4f80 	cmp.w	r3, #1073741824	; 0x40000000
 80009cc:	d134      	bne.n	8000a38 <HAL_TIM_Base_MspInit+0x8c>
  {
  /* USER CODE BEGIN TIM2_MspInit 0 */

  /* USER CODE END TIM2_MspInit 0 */
    /* Peripheral clock enable */
    __HAL_RCC_TIM2_CLK_ENABLE();
 80009ce:	2300      	movs	r3, #0
 80009d0:	613b      	str	r3, [r7, #16]
 80009d2:	4b29      	ldr	r3, [pc, #164]	; (8000a78 <HAL_TIM_Base_MspInit+0xcc>)
 80009d4:	6c1b      	ldr	r3, [r3, #64]	; 0x40
 80009d6:	4a28      	ldr	r2, [pc, #160]	; (8000a78 <HAL_TIM_Base_MspInit+0xcc>)
 80009d8:	f043 0301 	orr.w	r3, r3, #1
 80009dc:	6413      	str	r3, [r2, #64]	; 0x40
 80009de:	4b26      	ldr	r3, [pc, #152]	; (8000a78 <HAL_TIM_Base_MspInit+0xcc>)
 80009e0:	6c1b      	ldr	r3, [r3, #64]	; 0x40
 80009e2:	f003 0301 	and.w	r3, r3, #1
 80009e6:	613b      	str	r3, [r7, #16]
 80009e8:	693b      	ldr	r3, [r7, #16]

    __HAL_RCC_GPIOA_CLK_ENABLE();
 80009ea:	2300      	movs	r3, #0
 80009ec:	60fb      	str	r3, [r7, #12]
 80009ee:	4b22      	ldr	r3, [pc, #136]	; (8000a78 <HAL_TIM_Base_MspInit+0xcc>)
 80009f0:	6b1b      	ldr	r3, [r3, #48]	; 0x30
 80009f2:	4a21      	ldr	r2, [pc, #132]	; (8000a78 <HAL_TIM_Base_MspInit+0xcc>)
 80009f4:	f043 0301 	orr.w	r3, r3, #1
 80009f8:	6313      	str	r3, [r2, #48]	; 0x30
 80009fa:	4b1f      	ldr	r3, [pc, #124]	; (8000a78 <HAL_TIM_Base_MspInit+0xcc>)
 80009fc:	6b1b      	ldr	r3, [r3, #48]	; 0x30
 80009fe:	f003 0301 	and.w	r3, r3, #1
 8000a02:	60fb      	str	r3, [r7, #12]
 8000a04:	68fb      	ldr	r3, [r7, #12]
    /**TIM2 GPIO Configuration
    PA0-WKUP     ------> TIM2_CH1
    */
    GPIO_InitStruct.Pin = GPIO_PIN_0;
 8000a06:	2301      	movs	r3, #1
 8000a08:	617b      	str	r3, [r7, #20]
    GPIO_InitStruct.Mode = GPIO_MODE_AF_PP;
 8000a0a:	2302      	movs	r3, #2
 8000a0c:	61bb      	str	r3, [r7, #24]
    GPIO_InitStruct.Pull = GPIO_NOPULL;
 8000a0e:	2300      	movs	r3, #0
 8000a10:	61fb      	str	r3, [r7, #28]
    GPIO_InitStruct.Speed = GPIO_SPEED_FREQ_LOW;
 8000a12:	2300      	movs	r3, #0
 8000a14:	623b      	str	r3, [r7, #32]
    GPIO_InitStruct.Alternate = GPIO_AF1_TIM2;
 8000a16:	2301      	movs	r3, #1
 8000a18:	627b      	str	r3, [r7, #36]	; 0x24
    HAL_GPIO_Init(GPIOA, &GPIO_InitStruct);
 8000a1a:	f107 0314 	add.w	r3, r7, #20
 8000a1e:	4619      	mov	r1, r3
 8000a20:	4816      	ldr	r0, [pc, #88]	; (8000a7c <HAL_TIM_Base_MspInit+0xd0>)
 8000a22:	f000 fa6d 	bl	8000f00 <HAL_GPIO_Init>

    /* TIM2 interrupt Init */
    HAL_NVIC_SetPriority(TIM2_IRQn, 0, 0);
 8000a26:	2200      	movs	r2, #0
 8000a28:	2100      	movs	r1, #0
 8000a2a:	201c      	movs	r0, #28
 8000a2c:	f000 fa3e 	bl	8000eac <HAL_NVIC_SetPriority>
    HAL_NVIC_EnableIRQ(TIM2_IRQn);
 8000a30:	201c      	movs	r0, #28
 8000a32:	f000 fa57 	bl	8000ee4 <HAL_NVIC_EnableIRQ>
  /* USER CODE BEGIN TIM4_MspInit 1 */

  /* USER CODE END TIM4_MspInit 1 */
  }

}
 8000a36:	e01a      	b.n	8000a6e <HAL_TIM_Base_MspInit+0xc2>
  else if(htim_base->Instance==TIM4)
 8000a38:	687b      	ldr	r3, [r7, #4]
 8000a3a:	681b      	ldr	r3, [r3, #0]
 8000a3c:	4a10      	ldr	r2, [pc, #64]	; (8000a80 <HAL_TIM_Base_MspInit+0xd4>)
 8000a3e:	4293      	cmp	r3, r2
 8000a40:	d115      	bne.n	8000a6e <HAL_TIM_Base_MspInit+0xc2>
    __HAL_RCC_TIM4_CLK_ENABLE();
 8000a42:	2300      	movs	r3, #0
 8000a44:	60bb      	str	r3, [r7, #8]
 8000a46:	4b0c      	ldr	r3, [pc, #48]	; (8000a78 <HAL_TIM_Base_MspInit+0xcc>)
 8000a48:	6c1b      	ldr	r3, [r3, #64]	; 0x40
 8000a4a:	4a0b      	ldr	r2, [pc, #44]	; (8000a78 <HAL_TIM_Base_MspInit+0xcc>)
 8000a4c:	f043 0304 	orr.w	r3, r3, #4
 8000a50:	6413      	str	r3, [r2, #64]	; 0x40
 8000a52:	4b09      	ldr	r3, [pc, #36]	; (8000a78 <HAL_TIM_Base_MspInit+0xcc>)
 8000a54:	6c1b      	ldr	r3, [r3, #64]	; 0x40
 8000a56:	f003 0304 	and.w	r3, r3, #4
 8000a5a:	60bb      	str	r3, [r7, #8]
 8000a5c:	68bb      	ldr	r3, [r7, #8]
    HAL_NVIC_SetPriority(TIM4_IRQn, 0, 0);
 8000a5e:	2200      	movs	r2, #0
 8000a60:	2100      	movs	r1, #0
 8000a62:	201e      	movs	r0, #30
 8000a64:	f000 fa22 	bl	8000eac <HAL_NVIC_SetPriority>
    HAL_NVIC_EnableIRQ(TIM4_IRQn);
 8000a68:	201e      	movs	r0, #30
 8000a6a:	f000 fa3b 	bl	8000ee4 <HAL_NVIC_EnableIRQ>
}
 8000a6e:	bf00      	nop
 8000a70:	3728      	adds	r7, #40	; 0x28
 8000a72:	46bd      	mov	sp, r7
 8000a74:	bd80      	pop	{r7, pc}
 8000a76:	bf00      	nop
 8000a78:	40023800 	.word	0x40023800
 8000a7c:	40020000 	.word	0x40020000
 8000a80:	40000800 	.word	0x40000800

08000a84 <HAL_TIM_MspPostInit>:

void HAL_TIM_MspPostInit(TIM_HandleTypeDef* htim)
{
 8000a84:	b580      	push	{r7, lr}
 8000a86:	b088      	sub	sp, #32
 8000a88:	af00      	add	r7, sp, #0
 8000a8a:	6078      	str	r0, [r7, #4]
  GPIO_InitTypeDef GPIO_InitStruct = {0};
 8000a8c:	f107 030c 	add.w	r3, r7, #12
 8000a90:	2200      	movs	r2, #0
 8000a92:	601a      	str	r2, [r3, #0]
 8000a94:	605a      	str	r2, [r3, #4]
 8000a96:	609a      	str	r2, [r3, #8]
 8000a98:	60da      	str	r2, [r3, #12]
 8000a9a:	611a      	str	r2, [r3, #16]
  if(htim->Instance==TIM4)
 8000a9c:	687b      	ldr	r3, [r7, #4]
 8000a9e:	681b      	ldr	r3, [r3, #0]
 8000aa0:	4a12      	ldr	r2, [pc, #72]	; (8000aec <HAL_TIM_MspPostInit+0x68>)
 8000aa2:	4293      	cmp	r3, r2
 8000aa4:	d11e      	bne.n	8000ae4 <HAL_TIM_MspPostInit+0x60>
  {
  /* USER CODE BEGIN TIM4_MspPostInit 0 */

  /* USER CODE END TIM4_MspPostInit 0 */

    __HAL_RCC_GPIOD_CLK_ENABLE();
 8000aa6:	2300      	movs	r3, #0
 8000aa8:	60bb      	str	r3, [r7, #8]
 8000aaa:	4b11      	ldr	r3, [pc, #68]	; (8000af0 <HAL_TIM_MspPostInit+0x6c>)
 8000aac:	6b1b      	ldr	r3, [r3, #48]	; 0x30
 8000aae:	4a10      	ldr	r2, [pc, #64]	; (8000af0 <HAL_TIM_MspPostInit+0x6c>)
 8000ab0:	f043 0308 	orr.w	r3, r3, #8
 8000ab4:	6313      	str	r3, [r2, #48]	; 0x30
 8000ab6:	4b0e      	ldr	r3, [pc, #56]	; (8000af0 <HAL_TIM_MspPostInit+0x6c>)
 8000ab8:	6b1b      	ldr	r3, [r3, #48]	; 0x30
 8000aba:	f003 0308 	and.w	r3, r3, #8
 8000abe:	60bb      	str	r3, [r7, #8]
 8000ac0:	68bb      	ldr	r3, [r7, #8]
    /**TIM4 GPIO Configuration
    PD15     ------> TIM4_CH4
    */
    GPIO_InitStruct.Pin = GPIO_PIN_15;
 8000ac2:	f44f 4300 	mov.w	r3, #32768	; 0x8000
 8000ac6:	60fb      	str	r3, [r7, #12]
    GPIO_InitStruct.Mode = GPIO_MODE_AF_PP;
 8000ac8:	2302      	movs	r3, #2
 8000aca:	613b      	str	r3, [r7, #16]
    GPIO_InitStruct.Pull = GPIO_NOPULL;
 8000acc:	2300      	movs	r3, #0
 8000ace:	617b      	str	r3, [r7, #20]
    GPIO_InitStruct.Speed = GPIO_SPEED_FREQ_LOW;
 8000ad0:	2300      	movs	r3, #0
 8000ad2:	61bb      	str	r3, [r7, #24]
    GPIO_InitStruct.Alternate = GPIO_AF2_TIM4;
 8000ad4:	2302      	movs	r3, #2
 8000ad6:	61fb      	str	r3, [r7, #28]
    HAL_GPIO_Init(GPIOD, &GPIO_InitStruct);
 8000ad8:	f107 030c 	add.w	r3, r7, #12
 8000adc:	4619      	mov	r1, r3
 8000ade:	4805      	ldr	r0, [pc, #20]	; (8000af4 <HAL_TIM_MspPostInit+0x70>)
 8000ae0:	f000 fa0e 	bl	8000f00 <HAL_GPIO_Init>
  /* USER CODE BEGIN TIM4_MspPostInit 1 */

  /* USER CODE END TIM4_MspPostInit 1 */
  }

}
 8000ae4:	bf00      	nop
 8000ae6:	3720      	adds	r7, #32
 8000ae8:	46bd      	mov	sp, r7
 8000aea:	bd80      	pop	{r7, pc}
 8000aec:	40000800 	.word	0x40000800
 8000af0:	40023800 	.word	0x40023800
 8000af4:	40020c00 	.word	0x40020c00

08000af8 <HAL_InitTick>:
  *         reset by HAL_Init() or at any time when clock is configured, by HAL_RCC_ClockConfig().
  * @param  TickPriority: Tick interrupt priority.
  * @retval HAL status
  */
HAL_StatusTypeDef HAL_InitTick(uint32_t TickPriority)
{
 8000af8:	b580      	push	{r7, lr}
 8000afa:	b08c      	sub	sp, #48	; 0x30
 8000afc:	af00      	add	r7, sp, #0
 8000afe:	6078      	str	r0, [r7, #4]
  RCC_ClkInitTypeDef    clkconfig;
  uint32_t              uwTimclock = 0;
 8000b00:	2300      	movs	r3, #0
 8000b02:	62fb      	str	r3, [r7, #44]	; 0x2c
  uint32_t              uwPrescalerValue = 0;
 8000b04:	2300      	movs	r3, #0
 8000b06:	62bb      	str	r3, [r7, #40]	; 0x28
  uint32_t              pFLatency;
  /*Configure the TIM1 IRQ priority */
  HAL_NVIC_SetPriority(TIM1_UP_TIM10_IRQn, TickPriority ,0);
 8000b08:	2200      	movs	r2, #0
 8000b0a:	6879      	ldr	r1, [r7, #4]
 8000b0c:	2019      	movs	r0, #25
 8000b0e:	f000 f9cd 	bl	8000eac <HAL_NVIC_SetPriority>

  /* Enable the TIM1 global Interrupt */
  HAL_NVIC_EnableIRQ(TIM1_UP_TIM10_IRQn);
 8000b12:	2019      	movs	r0, #25
 8000b14:	f000 f9e6 	bl	8000ee4 <HAL_NVIC_EnableIRQ>

  /* Enable TIM1 clock */
  __HAL_RCC_TIM1_CLK_ENABLE();
 8000b18:	2300      	movs	r3, #0
 8000b1a:	60fb      	str	r3, [r7, #12]
 8000b1c:	4b1f      	ldr	r3, [pc, #124]	; (8000b9c <HAL_InitTick+0xa4>)
 8000b1e:	6c5b      	ldr	r3, [r3, #68]	; 0x44
 8000b20:	4a1e      	ldr	r2, [pc, #120]	; (8000b9c <HAL_InitTick+0xa4>)
 8000b22:	f043 0301 	orr.w	r3, r3, #1
 8000b26:	6453      	str	r3, [r2, #68]	; 0x44
 8000b28:	4b1c      	ldr	r3, [pc, #112]	; (8000b9c <HAL_InitTick+0xa4>)
 8000b2a:	6c5b      	ldr	r3, [r3, #68]	; 0x44
 8000b2c:	f003 0301 	and.w	r3, r3, #1
 8000b30:	60fb      	str	r3, [r7, #12]
 8000b32:	68fb      	ldr	r3, [r7, #12]

  /* Get clock configuration */
  HAL_RCC_GetClockConfig(&clkconfig, &pFLatency);
 8000b34:	f107 0210 	add.w	r2, r7, #16
 8000b38:	f107 0314 	add.w	r3, r7, #20
 8000b3c:	4611      	mov	r1, r2
 8000b3e:	4618      	mov	r0, r3
 8000b40:	f000 fff4 	bl	8001b2c <HAL_RCC_GetClockConfig>

  /* Compute TIM1 clock */
  uwTimclock = 2*HAL_RCC_GetPCLK2Freq();
 8000b44:	f000 ffde 	bl	8001b04 <HAL_RCC_GetPCLK2Freq>
 8000b48:	4603      	mov	r3, r0
 8000b4a:	005b      	lsls	r3, r3, #1
 8000b4c:	62fb      	str	r3, [r7, #44]	; 0x2c
  /* Compute the prescaler value to have TIM1 counter clock equal to 1MHz */
  uwPrescalerValue = (uint32_t) ((uwTimclock / 1000000U) - 1U);
 8000b4e:	6afb      	ldr	r3, [r7, #44]	; 0x2c
 8000b50:	4a13      	ldr	r2, [pc, #76]	; (8000ba0 <HAL_InitTick+0xa8>)
 8000b52:	fba2 2303 	umull	r2, r3, r2, r3
 8000b56:	0c9b      	lsrs	r3, r3, #18
 8000b58:	3b01      	subs	r3, #1
 8000b5a:	62bb      	str	r3, [r7, #40]	; 0x28

  /* Initialize TIM1 */
  htim1.Instance = TIM1;
 8000b5c:	4b11      	ldr	r3, [pc, #68]	; (8000ba4 <HAL_InitTick+0xac>)
 8000b5e:	4a12      	ldr	r2, [pc, #72]	; (8000ba8 <HAL_InitTick+0xb0>)
 8000b60:	601a      	str	r2, [r3, #0]
  + Period = [(TIM1CLK/1000) - 1]. to have a (1/1000) s time base.
  + Prescaler = (uwTimclock/1000000 - 1) to have a 1MHz counter clock.
  + ClockDivision = 0
  + Counter direction = Up
  */
  htim1.Init.Period = (1000000U / 1000U) - 1U;
 8000b62:	4b10      	ldr	r3, [pc, #64]	; (8000ba4 <HAL_InitTick+0xac>)
 8000b64:	f240 32e7 	movw	r2, #999	; 0x3e7
 8000b68:	60da      	str	r2, [r3, #12]
  htim1.Init.Prescaler = uwPrescalerValue;
 8000b6a:	4a0e      	ldr	r2, [pc, #56]	; (8000ba4 <HAL_InitTick+0xac>)
 8000b6c:	6abb      	ldr	r3, [r7, #40]	; 0x28
 8000b6e:	6053      	str	r3, [r2, #4]
  htim1.Init.ClockDivision = 0;
 8000b70:	4b0c      	ldr	r3, [pc, #48]	; (8000ba4 <HAL_InitTick+0xac>)
 8000b72:	2200      	movs	r2, #0
 8000b74:	611a      	str	r2, [r3, #16]
  htim1.Init.CounterMode = TIM_COUNTERMODE_UP;
 8000b76:	4b0b      	ldr	r3, [pc, #44]	; (8000ba4 <HAL_InitTick+0xac>)
 8000b78:	2200      	movs	r2, #0
 8000b7a:	609a      	str	r2, [r3, #8]

  if(HAL_TIM_Base_Init(&htim1) == HAL_OK)
 8000b7c:	4809      	ldr	r0, [pc, #36]	; (8000ba4 <HAL_InitTick+0xac>)
 8000b7e:	f001 f807 	bl	8001b90 <HAL_TIM_Base_Init>
 8000b82:	4603      	mov	r3, r0
 8000b84:	2b00      	cmp	r3, #0
 8000b86:	d104      	bne.n	8000b92 <HAL_InitTick+0x9a>
  {
    /* Start the TIM time Base generation in interrupt mode */
    return HAL_TIM_Base_Start_IT(&htim1);
 8000b88:	4806      	ldr	r0, [pc, #24]	; (8000ba4 <HAL_InitTick+0xac>)
 8000b8a:	f001 f851 	bl	8001c30 <HAL_TIM_Base_Start_IT>
 8000b8e:	4603      	mov	r3, r0
 8000b90:	e000      	b.n	8000b94 <HAL_InitTick+0x9c>
  }

  /* Return function status */
  return HAL_ERROR;
 8000b92:	2301      	movs	r3, #1
}
 8000b94:	4618      	mov	r0, r3
 8000b96:	3730      	adds	r7, #48	; 0x30
 8000b98:	46bd      	mov	sp, r7
 8000b9a:	bd80      	pop	{r7, pc}
 8000b9c:	40023800 	.word	0x40023800
 8000ba0:	431bde83 	.word	0x431bde83
 8000ba4:	200000bc 	.word	0x200000bc
 8000ba8:	40010000 	.word	0x40010000

08000bac <NMI_Handler>:
/******************************************************************************/
/**
  * @brief This function handles Non maskable interrupt.
  */
void NMI_Handler(void)
{
 8000bac:	b480      	push	{r7}
 8000bae:	af00      	add	r7, sp, #0
  /* USER CODE BEGIN NonMaskableInt_IRQn 0 */

  /* USER CODE END NonMaskableInt_IRQn 0 */
  /* USER CODE BEGIN NonMaskableInt_IRQn 1 */
  while (1)
 8000bb0:	e7fe      	b.n	8000bb0 <NMI_Handler+0x4>

08000bb2 <HardFault_Handler>:

/**
  * @brief This function handles Hard fault interrupt.
  */
void HardFault_Handler(void)
{
 8000bb2:	b480      	push	{r7}
 8000bb4:	af00      	add	r7, sp, #0
  /* USER CODE BEGIN HardFault_IRQn 0 */

  /* USER CODE END HardFault_IRQn 0 */
  while (1)
 8000bb6:	e7fe      	b.n	8000bb6 <HardFault_Handler+0x4>

08000bb8 <MemManage_Handler>:

/**
  * @brief This function handles Memory management fault.
  */
void MemManage_Handler(void)
{
 8000bb8:	b480      	push	{r7}
 8000bba:	af00      	add	r7, sp, #0
  /* USER CODE BEGIN MemoryManagement_IRQn 0 */

  /* USER CODE END MemoryManagement_IRQn 0 */
  while (1)
 8000bbc:	e7fe      	b.n	8000bbc <MemManage_Handler+0x4>

08000bbe <BusFault_Handler>:

/**
  * @brief This function handles Pre-fetch fault, memory access fault.
  */
void BusFault_Handler(void)
{
 8000bbe:	b480      	push	{r7}
 8000bc0:	af00      	add	r7, sp, #0
  /* USER CODE BEGIN BusFault_IRQn 0 */

  /* USER CODE END BusFault_IRQn 0 */
  while (1)
 8000bc2:	e7fe      	b.n	8000bc2 <BusFault_Handler+0x4>

08000bc4 <UsageFault_Handler>:

/**
  * @brief This function handles Undefined instruction or illegal state.
  */
void UsageFault_Handler(void)
{
 8000bc4:	b480      	push	{r7}
 8000bc6:	af00      	add	r7, sp, #0
  /* USER CODE BEGIN UsageFault_IRQn 0 */

  /* USER CODE END UsageFault_IRQn 0 */
  while (1)
 8000bc8:	e7fe      	b.n	8000bc8 <UsageFault_Handler+0x4>

08000bca <SVC_Handler>:

/**
  * @brief This function handles System service call via SWI instruction.
  */
void SVC_Handler(void)
{
 8000bca:	b480      	push	{r7}
 8000bcc:	af00      	add	r7, sp, #0

  /* USER CODE END SVCall_IRQn 0 */
  /* USER CODE BEGIN SVCall_IRQn 1 */

  /* USER CODE END SVCall_IRQn 1 */
}
 8000bce:	bf00      	nop
 8000bd0:	46bd      	mov	sp, r7
 8000bd2:	f85d 7b04 	ldr.w	r7, [sp], #4
 8000bd6:	4770      	bx	lr

08000bd8 <DebugMon_Handler>:

/**
  * @brief This function handles Debug monitor.
  */
void DebugMon_Handler(void)
{
 8000bd8:	b480      	push	{r7}
 8000bda:	af00      	add	r7, sp, #0

  /* USER CODE END DebugMonitor_IRQn 0 */
  /* USER CODE BEGIN DebugMonitor_IRQn 1 */

  /* USER CODE END DebugMonitor_IRQn 1 */
}
 8000bdc:	bf00      	nop
 8000bde:	46bd      	mov	sp, r7
 8000be0:	f85d 7b04 	ldr.w	r7, [sp], #4
 8000be4:	4770      	bx	lr

08000be6 <PendSV_Handler>:

/**
  * @brief This function handles Pendable request for system service.
  */
void PendSV_Handler(void)
{
 8000be6:	b480      	push	{r7}
 8000be8:	af00      	add	r7, sp, #0

  /* USER CODE END PendSV_IRQn 0 */
  /* USER CODE BEGIN PendSV_IRQn 1 */

  /* USER CODE END PendSV_IRQn 1 */
}
 8000bea:	bf00      	nop
 8000bec:	46bd      	mov	sp, r7
 8000bee:	f85d 7b04 	ldr.w	r7, [sp], #4
 8000bf2:	4770      	bx	lr

08000bf4 <SysTick_Handler>:

/**
  * @brief This function handles System tick timer.
  */
void SysTick_Handler(void)
{
 8000bf4:	b480      	push	{r7}
 8000bf6:	af00      	add	r7, sp, #0
  /* USER CODE END SysTick_IRQn 0 */

  /* USER CODE BEGIN SysTick_IRQn 1 */

  /* USER CODE END SysTick_IRQn 1 */
}
 8000bf8:	bf00      	nop
 8000bfa:	46bd      	mov	sp, r7
 8000bfc:	f85d 7b04 	ldr.w	r7, [sp], #4
 8000c00:	4770      	bx	lr
	...

08000c04 <TIM1_UP_TIM10_IRQHandler>:

/**
  * @brief This function handles TIM1 update interrupt and TIM10 global interrupt.
  */
void TIM1_UP_TIM10_IRQHandler(void)
{
 8000c04:	b580      	push	{r7, lr}
 8000c06:	af00      	add	r7, sp, #0
  /* USER CODE BEGIN TIM1_UP_TIM10_IRQn 0 */

  /* USER CODE END TIM1_UP_TIM10_IRQn 0 */
  HAL_TIM_IRQHandler(&htim1);
 8000c08:	4802      	ldr	r0, [pc, #8]	; (8000c14 <TIM1_UP_TIM10_IRQHandler+0x10>)
 8000c0a:	f001 fa5b 	bl	80020c4 <HAL_TIM_IRQHandler>
  /* USER CODE BEGIN TIM1_UP_TIM10_IRQn 1 */

  /* USER CODE END TIM1_UP_TIM10_IRQn 1 */
}
 8000c0e:	bf00      	nop
 8000c10:	bd80      	pop	{r7, pc}
 8000c12:	bf00      	nop
 8000c14:	200000bc 	.word	0x200000bc

08000c18 <TIM2_IRQHandler>:

/**
  * @brief This function handles TIM2 global interrupt.
  */
void TIM2_IRQHandler(void)
{
 8000c18:	b580      	push	{r7, lr}
 8000c1a:	af00      	add	r7, sp, #0
  /* USER CODE BEGIN TIM2_IRQn 0 */

  /* USER CODE END TIM2_IRQn 0 */
  HAL_TIM_IRQHandler(&htim2);
 8000c1c:	4802      	ldr	r0, [pc, #8]	; (8000c28 <TIM2_IRQHandler+0x10>)
 8000c1e:	f001 fa51 	bl	80020c4 <HAL_TIM_IRQHandler>
  /* USER CODE BEGIN TIM2_IRQn 1 */

  /* USER CODE END TIM2_IRQn 1 */
}
 8000c22:	bf00      	nop
 8000c24:	bd80      	pop	{r7, pc}
 8000c26:	bf00      	nop
 8000c28:	20000074 	.word	0x20000074

08000c2c <TIM4_IRQHandler>:

/**
  * @brief This function handles TIM4 global interrupt.
  */
void TIM4_IRQHandler(void)
{
 8000c2c:	b580      	push	{r7, lr}
 8000c2e:	af00      	add	r7, sp, #0
  /* USER CODE BEGIN TIM4_IRQn 0 */

  /* USER CODE END TIM4_IRQn 0 */
  HAL_TIM_IRQHandler(&htim4);
 8000c30:	4802      	ldr	r0, [pc, #8]	; (8000c3c <TIM4_IRQHandler+0x10>)
 8000c32:	f001 fa47 	bl	80020c4 <HAL_TIM_IRQHandler>
  /* USER CODE BEGIN TIM4_IRQn 1 */

  /* USER CODE END TIM4_IRQn 1 */
}
 8000c36:	bf00      	nop
 8000c38:	bd80      	pop	{r7, pc}
 8000c3a:	bf00      	nop
 8000c3c:	20000028 	.word	0x20000028

08000c40 <SystemInit>:
  *         configuration.
  * @param  None
  * @retval None
  */
void SystemInit(void)
{
 8000c40:	b480      	push	{r7}
 8000c42:	af00      	add	r7, sp, #0
  /* FPU settings ------------------------------------------------------------*/
  #if (__FPU_PRESENT == 1) && (__FPU_USED == 1)
    SCB->CPACR |= ((3UL << 10*2)|(3UL << 11*2));  /* set CP10 and CP11 Full Access */
 8000c44:	4b06      	ldr	r3, [pc, #24]	; (8000c60 <SystemInit+0x20>)
 8000c46:	f8d3 3088 	ldr.w	r3, [r3, #136]	; 0x88
 8000c4a:	4a05      	ldr	r2, [pc, #20]	; (8000c60 <SystemInit+0x20>)
 8000c4c:	f443 0370 	orr.w	r3, r3, #15728640	; 0xf00000
 8000c50:	f8c2 3088 	str.w	r3, [r2, #136]	; 0x88

  /* Configure the Vector Table location -------------------------------------*/
#if defined(USER_VECT_TAB_ADDRESS)
  SCB->VTOR = VECT_TAB_BASE_ADDRESS | VECT_TAB_OFFSET; /* Vector Table Relocation in Internal SRAM */
#endif /* USER_VECT_TAB_ADDRESS */
}
 8000c54:	bf00      	nop
 8000c56:	46bd      	mov	sp, r7
 8000c58:	f85d 7b04 	ldr.w	r7, [sp], #4
 8000c5c:	4770      	bx	lr
 8000c5e:	bf00      	nop
 8000c60:	e000ed00 	.word	0xe000ed00

08000c64 <Reset_Handler>:

    .section  .text.Reset_Handler
  .weak  Reset_Handler
  .type  Reset_Handler, %function
Reset_Handler:  
  ldr   sp, =_estack     /* set stack pointer */
 8000c64:	f8df d034 	ldr.w	sp, [pc, #52]	; 8000c9c <LoopFillZerobss+0x12>

/* Copy the data segment initializers from flash to SRAM */  
  ldr r0, =_sdata
 8000c68:	480d      	ldr	r0, [pc, #52]	; (8000ca0 <LoopFillZerobss+0x16>)
  ldr r1, =_edata
 8000c6a:	490e      	ldr	r1, [pc, #56]	; (8000ca4 <LoopFillZerobss+0x1a>)
  ldr r2, =_sidata
 8000c6c:	4a0e      	ldr	r2, [pc, #56]	; (8000ca8 <LoopFillZerobss+0x1e>)
  movs r3, #0
 8000c6e:	2300      	movs	r3, #0
  b LoopCopyDataInit
 8000c70:	e002      	b.n	8000c78 <LoopCopyDataInit>

08000c72 <CopyDataInit>:

CopyDataInit:
  ldr r4, [r2, r3]
 8000c72:	58d4      	ldr	r4, [r2, r3]
  str r4, [r0, r3]
 8000c74:	50c4      	str	r4, [r0, r3]
  adds r3, r3, #4
 8000c76:	3304      	adds	r3, #4

08000c78 <LoopCopyDataInit>:

LoopCopyDataInit:
  adds r4, r0, r3
 8000c78:	18c4      	adds	r4, r0, r3
  cmp r4, r1
 8000c7a:	428c      	cmp	r4, r1
  bcc CopyDataInit
 8000c7c:	d3f9      	bcc.n	8000c72 <CopyDataInit>
  
/* Zero fill the bss segment. */
  ldr r2, =_sbss
 8000c7e:	4a0b      	ldr	r2, [pc, #44]	; (8000cac <LoopFillZerobss+0x22>)
  ldr r4, =_ebss
 8000c80:	4c0b      	ldr	r4, [pc, #44]	; (8000cb0 <LoopFillZerobss+0x26>)
  movs r3, #0
 8000c82:	2300      	movs	r3, #0
  b LoopFillZerobss
 8000c84:	e001      	b.n	8000c8a <LoopFillZerobss>

08000c86 <FillZerobss>:

FillZerobss:
  str  r3, [r2]
 8000c86:	6013      	str	r3, [r2, #0]
  adds r2, r2, #4
 8000c88:	3204      	adds	r2, #4

08000c8a <LoopFillZerobss>:

LoopFillZerobss:
  cmp r2, r4
 8000c8a:	42a2      	cmp	r2, r4
  bcc FillZerobss
 8000c8c:	d3fb      	bcc.n	8000c86 <FillZerobss>

/* Call the clock system intitialization function.*/
  bl  SystemInit   
 8000c8e:	f7ff ffd7 	bl	8000c40 <SystemInit>
/* Call static constructors */
    bl __libc_init_array
 8000c92:	f002 fa2d 	bl	80030f0 <__libc_init_array>
/* Call the application's entry point.*/
  bl  main
 8000c96:	f7ff fc13 	bl	80004c0 <main>
  bx  lr    
 8000c9a:	4770      	bx	lr
  ldr   sp, =_estack     /* set stack pointer */
 8000c9c:	20020000 	.word	0x20020000
  ldr r0, =_sdata
 8000ca0:	20000000 	.word	0x20000000
  ldr r1, =_edata
 8000ca4:	2000000c 	.word	0x2000000c
  ldr r2, =_sidata
 8000ca8:	08003188 	.word	0x08003188
  ldr r2, =_sbss
 8000cac:	2000000c 	.word	0x2000000c
  ldr r4, =_ebss
 8000cb0:	20000108 	.word	0x20000108

08000cb4 <ADC_IRQHandler>:
 * @retval None       
*/
    .section  .text.Default_Handler,"ax",%progbits
Default_Handler:
Infinite_Loop:
  b  Infinite_Loop
 8000cb4:	e7fe      	b.n	8000cb4 <ADC_IRQHandler>
	...

08000cb8 <HAL_Init>:
  *         need to ensure that the SysTick time base is always set to 1 millisecond
  *         to have correct HAL operation.
  * @retval HAL status
  */
HAL_StatusTypeDef HAL_Init(void)
{
 8000cb8:	b580      	push	{r7, lr}
 8000cba:	af00      	add	r7, sp, #0
  /* Configure Flash prefetch, Instruction cache, Data cache */ 
#if (INSTRUCTION_CACHE_ENABLE != 0U)
  __HAL_FLASH_INSTRUCTION_CACHE_ENABLE();
 8000cbc:	4b0e      	ldr	r3, [pc, #56]	; (8000cf8 <HAL_Init+0x40>)
 8000cbe:	681b      	ldr	r3, [r3, #0]
 8000cc0:	4a0d      	ldr	r2, [pc, #52]	; (8000cf8 <HAL_Init+0x40>)
 8000cc2:	f443 7300 	orr.w	r3, r3, #512	; 0x200
 8000cc6:	6013      	str	r3, [r2, #0]
#endif /* INSTRUCTION_CACHE_ENABLE */

#if (DATA_CACHE_ENABLE != 0U)
  __HAL_FLASH_DATA_CACHE_ENABLE();
 8000cc8:	4b0b      	ldr	r3, [pc, #44]	; (8000cf8 <HAL_Init+0x40>)
 8000cca:	681b      	ldr	r3, [r3, #0]
 8000ccc:	4a0a      	ldr	r2, [pc, #40]	; (8000cf8 <HAL_Init+0x40>)
 8000cce:	f443 6380 	orr.w	r3, r3, #1024	; 0x400
 8000cd2:	6013      	str	r3, [r2, #0]
#endif /* DATA_CACHE_ENABLE */

#if (PREFETCH_ENABLE != 0U)
  __HAL_FLASH_PREFETCH_BUFFER_ENABLE();
 8000cd4:	4b08      	ldr	r3, [pc, #32]	; (8000cf8 <HAL_Init+0x40>)
 8000cd6:	681b      	ldr	r3, [r3, #0]
 8000cd8:	4a07      	ldr	r2, [pc, #28]	; (8000cf8 <HAL_Init+0x40>)
 8000cda:	f443 7380 	orr.w	r3, r3, #256	; 0x100
 8000cde:	6013      	str	r3, [r2, #0]
#endif /* PREFETCH_ENABLE */

  /* Set Interrupt Group Priority */
  HAL_NVIC_SetPriorityGrouping(NVIC_PRIORITYGROUP_4);
 8000ce0:	2003      	movs	r0, #3
 8000ce2:	f000 f8d8 	bl	8000e96 <HAL_NVIC_SetPriorityGrouping>

  /* Use systick as time base source and configure 1ms tick (default clock after Reset is HSI) */
  HAL_InitTick(TICK_INT_PRIORITY);
 8000ce6:	2000      	movs	r0, #0
 8000ce8:	f7ff ff06 	bl	8000af8 <HAL_InitTick>

  /* Init the low level hardware */
  HAL_MspInit();
 8000cec:	f7ff fe36 	bl	800095c <HAL_MspInit>

  /* Return function status */
  return HAL_OK;
 8000cf0:	2300      	movs	r3, #0
}
 8000cf2:	4618      	mov	r0, r3
 8000cf4:	bd80      	pop	{r7, pc}
 8000cf6:	bf00      	nop
 8000cf8:	40023c00 	.word	0x40023c00

08000cfc <HAL_IncTick>:
 * @note This function is declared as __weak to be overwritten in case of other 
  *      implementations in user file.
  * @retval None
  */
__weak void HAL_IncTick(void)
{
 8000cfc:	b480      	push	{r7}
 8000cfe:	af00      	add	r7, sp, #0
  uwTick += uwTickFreq;
 8000d00:	4b06      	ldr	r3, [pc, #24]	; (8000d1c <HAL_IncTick+0x20>)
 8000d02:	781b      	ldrb	r3, [r3, #0]
 8000d04:	461a      	mov	r2, r3
 8000d06:	4b06      	ldr	r3, [pc, #24]	; (8000d20 <HAL_IncTick+0x24>)
 8000d08:	681b      	ldr	r3, [r3, #0]
 8000d0a:	4413      	add	r3, r2
 8000d0c:	4a04      	ldr	r2, [pc, #16]	; (8000d20 <HAL_IncTick+0x24>)
 8000d0e:	6013      	str	r3, [r2, #0]
}
 8000d10:	bf00      	nop
 8000d12:	46bd      	mov	sp, r7
 8000d14:	f85d 7b04 	ldr.w	r7, [sp], #4
 8000d18:	4770      	bx	lr
 8000d1a:	bf00      	nop
 8000d1c:	20000008 	.word	0x20000008
 8000d20:	20000104 	.word	0x20000104

08000d24 <HAL_GetTick>:
  * @note This function is declared as __weak to be overwritten in case of other 
  *       implementations in user file.
  * @retval tick value
  */
__weak uint32_t HAL_GetTick(void)
{
 8000d24:	b480      	push	{r7}
 8000d26:	af00      	add	r7, sp, #0
  return uwTick;
 8000d28:	4b03      	ldr	r3, [pc, #12]	; (8000d38 <HAL_GetTick+0x14>)
 8000d2a:	681b      	ldr	r3, [r3, #0]
}
 8000d2c:	4618      	mov	r0, r3
 8000d2e:	46bd      	mov	sp, r7
 8000d30:	f85d 7b04 	ldr.w	r7, [sp], #4
 8000d34:	4770      	bx	lr
 8000d36:	bf00      	nop
 8000d38:	20000104 	.word	0x20000104

08000d3c <__NVIC_SetPriorityGrouping>:
           In case of a conflict between priority grouping and available
           priority bits (__NVIC_PRIO_BITS), the smallest possible priority group is set.
  \param [in]      PriorityGroup  Priority grouping field.
 */
__STATIC_INLINE void __NVIC_SetPriorityGrouping(uint32_t PriorityGroup)
{
 8000d3c:	b480      	push	{r7}
 8000d3e:	b085      	sub	sp, #20
 8000d40:	af00      	add	r7, sp, #0
 8000d42:	6078      	str	r0, [r7, #4]
  uint32_t reg_value;
  uint32_t PriorityGroupTmp = (PriorityGroup & (uint32_t)0x07UL);             /* only values 0..7 are used          */
 8000d44:	687b      	ldr	r3, [r7, #4]
 8000d46:	f003 0307 	and.w	r3, r3, #7
 8000d4a:	60fb      	str	r3, [r7, #12]

  reg_value  =  SCB->AIRCR;                                                   /* read old register configuration    */
 8000d4c:	4b0c      	ldr	r3, [pc, #48]	; (8000d80 <__NVIC_SetPriorityGrouping+0x44>)
 8000d4e:	68db      	ldr	r3, [r3, #12]
 8000d50:	60bb      	str	r3, [r7, #8]
  reg_value &= ~((uint32_t)(SCB_AIRCR_VECTKEY_Msk | SCB_AIRCR_PRIGROUP_Msk)); /* clear bits to change               */
 8000d52:	68ba      	ldr	r2, [r7, #8]
 8000d54:	f64f 03ff 	movw	r3, #63743	; 0xf8ff
 8000d58:	4013      	ands	r3, r2
 8000d5a:	60bb      	str	r3, [r7, #8]
  reg_value  =  (reg_value                                   |
                ((uint32_t)0x5FAUL << SCB_AIRCR_VECTKEY_Pos) |
                (PriorityGroupTmp << SCB_AIRCR_PRIGROUP_Pos)  );              /* Insert write key and priority group */
 8000d5c:	68fb      	ldr	r3, [r7, #12]
 8000d5e:	021a      	lsls	r2, r3, #8
                ((uint32_t)0x5FAUL << SCB_AIRCR_VECTKEY_Pos) |
 8000d60:	68bb      	ldr	r3, [r7, #8]
 8000d62:	4313      	orrs	r3, r2
  reg_value  =  (reg_value                                   |
 8000d64:	f043 63bf 	orr.w	r3, r3, #100139008	; 0x5f80000
 8000d68:	f443 3300 	orr.w	r3, r3, #131072	; 0x20000
 8000d6c:	60bb      	str	r3, [r7, #8]
  SCB->AIRCR =  reg_value;
 8000d6e:	4a04      	ldr	r2, [pc, #16]	; (8000d80 <__NVIC_SetPriorityGrouping+0x44>)
 8000d70:	68bb      	ldr	r3, [r7, #8]
 8000d72:	60d3      	str	r3, [r2, #12]
}
 8000d74:	bf00      	nop
 8000d76:	3714      	adds	r7, #20
 8000d78:	46bd      	mov	sp, r7
 8000d7a:	f85d 7b04 	ldr.w	r7, [sp], #4
 8000d7e:	4770      	bx	lr
 8000d80:	e000ed00 	.word	0xe000ed00

08000d84 <__NVIC_GetPriorityGrouping>:
  \brief   Get Priority Grouping
  \details Reads the priority grouping field from the NVIC Interrupt Controller.
  \return                Priority grouping field (SCB->AIRCR [10:8] PRIGROUP field).
 */
__STATIC_INLINE uint32_t __NVIC_GetPriorityGrouping(void)
{
 8000d84:	b480      	push	{r7}
 8000d86:	af00      	add	r7, sp, #0
  return ((uint32_t)((SCB->AIRCR & SCB_AIRCR_PRIGROUP_Msk) >> SCB_AIRCR_PRIGROUP_Pos));
 8000d88:	4b04      	ldr	r3, [pc, #16]	; (8000d9c <__NVIC_GetPriorityGrouping+0x18>)
 8000d8a:	68db      	ldr	r3, [r3, #12]
 8000d8c:	0a1b      	lsrs	r3, r3, #8
 8000d8e:	f003 0307 	and.w	r3, r3, #7
}
 8000d92:	4618      	mov	r0, r3
 8000d94:	46bd      	mov	sp, r7
 8000d96:	f85d 7b04 	ldr.w	r7, [sp], #4
 8000d9a:	4770      	bx	lr
 8000d9c:	e000ed00 	.word	0xe000ed00

08000da0 <__NVIC_EnableIRQ>:
  \details Enables a device specific interrupt in the NVIC interrupt controller.
  \param [in]      IRQn  Device specific interrupt number.
  \note    IRQn must not be negative.
 */
__STATIC_INLINE void __NVIC_EnableIRQ(IRQn_Type IRQn)
{
 8000da0:	b480      	push	{r7}
 8000da2:	b083      	sub	sp, #12
 8000da4:	af00      	add	r7, sp, #0
 8000da6:	4603      	mov	r3, r0
 8000da8:	71fb      	strb	r3, [r7, #7]
  if ((int32_t)(IRQn) >= 0)
 8000daa:	f997 3007 	ldrsb.w	r3, [r7, #7]
 8000dae:	2b00      	cmp	r3, #0
 8000db0:	db0b      	blt.n	8000dca <__NVIC_EnableIRQ+0x2a>
  {
    NVIC->ISER[(((uint32_t)IRQn) >> 5UL)] = (uint32_t)(1UL << (((uint32_t)IRQn) & 0x1FUL));
 8000db2:	79fb      	ldrb	r3, [r7, #7]
 8000db4:	f003 021f 	and.w	r2, r3, #31
 8000db8:	4907      	ldr	r1, [pc, #28]	; (8000dd8 <__NVIC_EnableIRQ+0x38>)
 8000dba:	f997 3007 	ldrsb.w	r3, [r7, #7]
 8000dbe:	095b      	lsrs	r3, r3, #5
 8000dc0:	2001      	movs	r0, #1
 8000dc2:	fa00 f202 	lsl.w	r2, r0, r2
 8000dc6:	f841 2023 	str.w	r2, [r1, r3, lsl #2]
  }
}
 8000dca:	bf00      	nop
 8000dcc:	370c      	adds	r7, #12
 8000dce:	46bd      	mov	sp, r7
 8000dd0:	f85d 7b04 	ldr.w	r7, [sp], #4
 8000dd4:	4770      	bx	lr
 8000dd6:	bf00      	nop
 8000dd8:	e000e100 	.word	0xe000e100

08000ddc <__NVIC_SetPriority>:
  \param [in]      IRQn  Interrupt number.
  \param [in]  priority  Priority to set.
  \note    The priority cannot be set for every processor exception.
 */
__STATIC_INLINE void __NVIC_SetPriority(IRQn_Type IRQn, uint32_t priority)
{
 8000ddc:	b480      	push	{r7}
 8000dde:	b083      	sub	sp, #12
 8000de0:	af00      	add	r7, sp, #0
 8000de2:	4603      	mov	r3, r0
 8000de4:	6039      	str	r1, [r7, #0]
 8000de6:	71fb      	strb	r3, [r7, #7]
  if ((int32_t)(IRQn) >= 0)
 8000de8:	f997 3007 	ldrsb.w	r3, [r7, #7]
 8000dec:	2b00      	cmp	r3, #0
 8000dee:	db0a      	blt.n	8000e06 <__NVIC_SetPriority+0x2a>
  {
    NVIC->IP[((uint32_t)IRQn)]               = (uint8_t)((priority << (8U - __NVIC_PRIO_BITS)) & (uint32_t)0xFFUL);
 8000df0:	683b      	ldr	r3, [r7, #0]
 8000df2:	b2da      	uxtb	r2, r3
 8000df4:	490c      	ldr	r1, [pc, #48]	; (8000e28 <__NVIC_SetPriority+0x4c>)
 8000df6:	f997 3007 	ldrsb.w	r3, [r7, #7]
 8000dfa:	0112      	lsls	r2, r2, #4
 8000dfc:	b2d2      	uxtb	r2, r2
 8000dfe:	440b      	add	r3, r1
 8000e00:	f883 2300 	strb.w	r2, [r3, #768]	; 0x300
  }
  else
  {
    SCB->SHP[(((uint32_t)IRQn) & 0xFUL)-4UL] = (uint8_t)((priority << (8U - __NVIC_PRIO_BITS)) & (uint32_t)0xFFUL);
  }
}
 8000e04:	e00a      	b.n	8000e1c <__NVIC_SetPriority+0x40>
    SCB->SHP[(((uint32_t)IRQn) & 0xFUL)-4UL] = (uint8_t)((priority << (8U - __NVIC_PRIO_BITS)) & (uint32_t)0xFFUL);
 8000e06:	683b      	ldr	r3, [r7, #0]
 8000e08:	b2da      	uxtb	r2, r3
 8000e0a:	4908      	ldr	r1, [pc, #32]	; (8000e2c <__NVIC_SetPriority+0x50>)
 8000e0c:	79fb      	ldrb	r3, [r7, #7]
 8000e0e:	f003 030f 	and.w	r3, r3, #15
 8000e12:	3b04      	subs	r3, #4
 8000e14:	0112      	lsls	r2, r2, #4
 8000e16:	b2d2      	uxtb	r2, r2
 8000e18:	440b      	add	r3, r1
 8000e1a:	761a      	strb	r2, [r3, #24]
}
 8000e1c:	bf00      	nop
 8000e1e:	370c      	adds	r7, #12
 8000e20:	46bd      	mov	sp, r7
 8000e22:	f85d 7b04 	ldr.w	r7, [sp], #4
 8000e26:	4770      	bx	lr
 8000e28:	e000e100 	.word	0xe000e100
 8000e2c:	e000ed00 	.word	0xe000ed00

08000e30 <NVIC_EncodePriority>:
  \param [in]   PreemptPriority  Preemptive priority value (starting from 0).
  \param [in]       SubPriority  Subpriority value (starting from 0).
  \return                        Encoded priority. Value can be used in the function \ref NVIC_SetPriority().
 */
__STATIC_INLINE uint32_t NVIC_EncodePriority (uint32_t PriorityGroup, uint32_t PreemptPriority, uint32_t SubPriority)
{
 8000e30:	b480      	push	{r7}
 8000e32:	b089      	sub	sp, #36	; 0x24
 8000e34:	af00      	add	r7, sp, #0
 8000e36:	60f8      	str	r0, [r7, #12]
 8000e38:	60b9      	str	r1, [r7, #8]
 8000e3a:	607a      	str	r2, [r7, #4]
  uint32_t PriorityGroupTmp = (PriorityGroup & (uint32_t)0x07UL);   /* only values 0..7 are used          */
 8000e3c:	68fb      	ldr	r3, [r7, #12]
 8000e3e:	f003 0307 	and.w	r3, r3, #7
 8000e42:	61fb      	str	r3, [r7, #28]
  uint32_t PreemptPriorityBits;
  uint32_t SubPriorityBits;

  PreemptPriorityBits = ((7UL - PriorityGroupTmp) > (uint32_t)(__NVIC_PRIO_BITS)) ? (uint32_t)(__NVIC_PRIO_BITS) : (uint32_t)(7UL - PriorityGroupTmp);
 8000e44:	69fb      	ldr	r3, [r7, #28]
 8000e46:	f1c3 0307 	rsb	r3, r3, #7
 8000e4a:	2b04      	cmp	r3, #4
 8000e4c:	bf28      	it	cs
 8000e4e:	2304      	movcs	r3, #4
 8000e50:	61bb      	str	r3, [r7, #24]
  SubPriorityBits     = ((PriorityGroupTmp + (uint32_t)(__NVIC_PRIO_BITS)) < (uint32_t)7UL) ? (uint32_t)0UL : (uint32_t)((PriorityGroupTmp - 7UL) + (uint32_t)(__NVIC_PRIO_BITS));
 8000e52:	69fb      	ldr	r3, [r7, #28]
 8000e54:	3304      	adds	r3, #4
 8000e56:	2b06      	cmp	r3, #6
 8000e58:	d902      	bls.n	8000e60 <NVIC_EncodePriority+0x30>
 8000e5a:	69fb      	ldr	r3, [r7, #28]
 8000e5c:	3b03      	subs	r3, #3
 8000e5e:	e000      	b.n	8000e62 <NVIC_EncodePriority+0x32>
 8000e60:	2300      	movs	r3, #0
 8000e62:	617b      	str	r3, [r7, #20]

  return (
           ((PreemptPriority & (uint32_t)((1UL << (PreemptPriorityBits)) - 1UL)) << SubPriorityBits) |
 8000e64:	f04f 32ff 	mov.w	r2, #4294967295
 8000e68:	69bb      	ldr	r3, [r7, #24]
 8000e6a:	fa02 f303 	lsl.w	r3, r2, r3
 8000e6e:	43da      	mvns	r2, r3
 8000e70:	68bb      	ldr	r3, [r7, #8]
 8000e72:	401a      	ands	r2, r3
 8000e74:	697b      	ldr	r3, [r7, #20]
 8000e76:	409a      	lsls	r2, r3
           ((SubPriority     & (uint32_t)((1UL << (SubPriorityBits    )) - 1UL)))
 8000e78:	f04f 31ff 	mov.w	r1, #4294967295
 8000e7c:	697b      	ldr	r3, [r7, #20]
 8000e7e:	fa01 f303 	lsl.w	r3, r1, r3
 8000e82:	43d9      	mvns	r1, r3
 8000e84:	687b      	ldr	r3, [r7, #4]
 8000e86:	400b      	ands	r3, r1
           ((PreemptPriority & (uint32_t)((1UL << (PreemptPriorityBits)) - 1UL)) << SubPriorityBits) |
 8000e88:	4313      	orrs	r3, r2
         );
}
 8000e8a:	4618      	mov	r0, r3
 8000e8c:	3724      	adds	r7, #36	; 0x24
 8000e8e:	46bd      	mov	sp, r7
 8000e90:	f85d 7b04 	ldr.w	r7, [sp], #4
 8000e94:	4770      	bx	lr

08000e96 <HAL_NVIC_SetPriorityGrouping>:
  * @note   When the NVIC_PriorityGroup_0 is selected, IRQ preemption is no more possible. 
  *         The pending IRQ priority will be managed only by the subpriority. 
  * @retval None
  */
void HAL_NVIC_SetPriorityGrouping(uint32_t PriorityGroup)
{
 8000e96:	b580      	push	{r7, lr}
 8000e98:	b082      	sub	sp, #8
 8000e9a:	af00      	add	r7, sp, #0
 8000e9c:	6078      	str	r0, [r7, #4]
  /* Check the parameters */
  assert_param(IS_NVIC_PRIORITY_GROUP(PriorityGroup));
  
  /* Set the PRIGROUP[10:8] bits according to the PriorityGroup parameter value */
  NVIC_SetPriorityGrouping(PriorityGroup);
 8000e9e:	6878      	ldr	r0, [r7, #4]
 8000ea0:	f7ff ff4c 	bl	8000d3c <__NVIC_SetPriorityGrouping>
}
 8000ea4:	bf00      	nop
 8000ea6:	3708      	adds	r7, #8
 8000ea8:	46bd      	mov	sp, r7
 8000eaa:	bd80      	pop	{r7, pc}

08000eac <HAL_NVIC_SetPriority>:
  *         This parameter can be a value between 0 and 15
  *         A lower priority value indicates a higher priority.          
  * @retval None
  */
void HAL_NVIC_SetPriority(IRQn_Type IRQn, uint32_t PreemptPriority, uint32_t SubPriority)
{ 
 8000eac:	b580      	push	{r7, lr}
 8000eae:	b086      	sub	sp, #24
 8000eb0:	af00      	add	r7, sp, #0
 8000eb2:	4603      	mov	r3, r0
 8000eb4:	60b9      	str	r1, [r7, #8]
 8000eb6:	607a      	str	r2, [r7, #4]
 8000eb8:	73fb      	strb	r3, [r7, #15]
  uint32_t prioritygroup = 0x00U;
 8000eba:	2300      	movs	r3, #0
 8000ebc:	617b      	str	r3, [r7, #20]
  
  /* Check the parameters */
  assert_param(IS_NVIC_SUB_PRIORITY(SubPriority));
  assert_param(IS_NVIC_PREEMPTION_PRIORITY(PreemptPriority));
  
  prioritygroup = NVIC_GetPriorityGrouping();
 8000ebe:	f7ff ff61 	bl	8000d84 <__NVIC_GetPriorityGrouping>
 8000ec2:	6178      	str	r0, [r7, #20]
  
  NVIC_SetPriority(IRQn, NVIC_EncodePriority(prioritygroup, PreemptPriority, SubPriority));
 8000ec4:	687a      	ldr	r2, [r7, #4]
 8000ec6:	68b9      	ldr	r1, [r7, #8]
 8000ec8:	6978      	ldr	r0, [r7, #20]
 8000eca:	f7ff ffb1 	bl	8000e30 <NVIC_EncodePriority>
 8000ece:	4602      	mov	r2, r0
 8000ed0:	f997 300f 	ldrsb.w	r3, [r7, #15]
 8000ed4:	4611      	mov	r1, r2
 8000ed6:	4618      	mov	r0, r3
 8000ed8:	f7ff ff80 	bl	8000ddc <__NVIC_SetPriority>
}
 8000edc:	bf00      	nop
 8000ede:	3718      	adds	r7, #24
 8000ee0:	46bd      	mov	sp, r7
 8000ee2:	bd80      	pop	{r7, pc}

08000ee4 <HAL_NVIC_EnableIRQ>:
  *         This parameter can be an enumerator of IRQn_Type enumeration
  *         (For the complete STM32 Devices IRQ Channels list, please refer to the appropriate CMSIS device file (stm32f4xxxx.h))
  * @retval None
  */
void HAL_NVIC_EnableIRQ(IRQn_Type IRQn)
{
 8000ee4:	b580      	push	{r7, lr}
 8000ee6:	b082      	sub	sp, #8
 8000ee8:	af00      	add	r7, sp, #0
 8000eea:	4603      	mov	r3, r0
 8000eec:	71fb      	strb	r3, [r7, #7]
  /* Check the parameters */
  assert_param(IS_NVIC_DEVICE_IRQ(IRQn));
  
  /* Enable interrupt */
  NVIC_EnableIRQ(IRQn);
 8000eee:	f997 3007 	ldrsb.w	r3, [r7, #7]
 8000ef2:	4618      	mov	r0, r3
 8000ef4:	f7ff ff54 	bl	8000da0 <__NVIC_EnableIRQ>
}
 8000ef8:	bf00      	nop
 8000efa:	3708      	adds	r7, #8
 8000efc:	46bd      	mov	sp, r7
 8000efe:	bd80      	pop	{r7, pc}

08000f00 <HAL_GPIO_Init>:
  * @param  GPIO_Init pointer to a GPIO_InitTypeDef structure that contains
  *         the configuration information for the specified GPIO peripheral.
  * @retval None
  */
void HAL_GPIO_Init(GPIO_TypeDef  *GPIOx, GPIO_InitTypeDef *GPIO_Init)
{
 8000f00:	b480      	push	{r7}
 8000f02:	b089      	sub	sp, #36	; 0x24
 8000f04:	af00      	add	r7, sp, #0
 8000f06:	6078      	str	r0, [r7, #4]
 8000f08:	6039      	str	r1, [r7, #0]
  uint32_t position;
  uint32_t ioposition = 0x00U;
 8000f0a:	2300      	movs	r3, #0
 8000f0c:	617b      	str	r3, [r7, #20]
  uint32_t iocurrent = 0x00U;
 8000f0e:	2300      	movs	r3, #0
 8000f10:	613b      	str	r3, [r7, #16]
  uint32_t temp = 0x00U;
 8000f12:	2300      	movs	r3, #0
 8000f14:	61bb      	str	r3, [r7, #24]
  assert_param(IS_GPIO_ALL_INSTANCE(GPIOx));
  assert_param(IS_GPIO_PIN(GPIO_Init->Pin));
  assert_param(IS_GPIO_MODE(GPIO_Init->Mode));

  /* Configure the port pins */
  for(position = 0U; position < GPIO_NUMBER; position++)
 8000f16:	2300      	movs	r3, #0
 8000f18:	61fb      	str	r3, [r7, #28]
 8000f1a:	e16b      	b.n	80011f4 <HAL_GPIO_Init+0x2f4>
  {
    /* Get the IO position */
    ioposition = 0x01U << position;
 8000f1c:	2201      	movs	r2, #1
 8000f1e:	69fb      	ldr	r3, [r7, #28]
 8000f20:	fa02 f303 	lsl.w	r3, r2, r3
 8000f24:	617b      	str	r3, [r7, #20]
    /* Get the current IO position */
    iocurrent = (uint32_t)(GPIO_Init->Pin) & ioposition;
 8000f26:	683b      	ldr	r3, [r7, #0]
 8000f28:	681b      	ldr	r3, [r3, #0]
 8000f2a:	697a      	ldr	r2, [r7, #20]
 8000f2c:	4013      	ands	r3, r2
 8000f2e:	613b      	str	r3, [r7, #16]

    if(iocurrent == ioposition)
 8000f30:	693a      	ldr	r2, [r7, #16]
 8000f32:	697b      	ldr	r3, [r7, #20]
 8000f34:	429a      	cmp	r2, r3
 8000f36:	f040 815a 	bne.w	80011ee <HAL_GPIO_Init+0x2ee>
    {
      /*--------------------- GPIO Mode Configuration ------------------------*/
      /* In case of Output or Alternate function mode selection */
      if(((GPIO_Init->Mode & GPIO_MODE) == MODE_OUTPUT) || \
 8000f3a:	683b      	ldr	r3, [r7, #0]
 8000f3c:	685b      	ldr	r3, [r3, #4]
 8000f3e:	f003 0303 	and.w	r3, r3, #3
 8000f42:	2b01      	cmp	r3, #1
 8000f44:	d005      	beq.n	8000f52 <HAL_GPIO_Init+0x52>
          (GPIO_Init->Mode & GPIO_MODE) == MODE_AF)
 8000f46:	683b      	ldr	r3, [r7, #0]
 8000f48:	685b      	ldr	r3, [r3, #4]
 8000f4a:	f003 0303 	and.w	r3, r3, #3
      if(((GPIO_Init->Mode & GPIO_MODE) == MODE_OUTPUT) || \
 8000f4e:	2b02      	cmp	r3, #2
 8000f50:	d130      	bne.n	8000fb4 <HAL_GPIO_Init+0xb4>
      {
        /* Check the Speed parameter */
        assert_param(IS_GPIO_SPEED(GPIO_Init->Speed));
        /* Configure the IO Speed */
        temp = GPIOx->OSPEEDR; 
 8000f52:	687b      	ldr	r3, [r7, #4]
 8000f54:	689b      	ldr	r3, [r3, #8]
 8000f56:	61bb      	str	r3, [r7, #24]
        temp &= ~(GPIO_OSPEEDER_OSPEEDR0 << (position * 2U));
 8000f58:	69fb      	ldr	r3, [r7, #28]
 8000f5a:	005b      	lsls	r3, r3, #1
 8000f5c:	2203      	movs	r2, #3
 8000f5e:	fa02 f303 	lsl.w	r3, r2, r3
 8000f62:	43db      	mvns	r3, r3
 8000f64:	69ba      	ldr	r2, [r7, #24]
 8000f66:	4013      	ands	r3, r2
 8000f68:	61bb      	str	r3, [r7, #24]
        temp |= (GPIO_Init->Speed << (position * 2U));
 8000f6a:	683b      	ldr	r3, [r7, #0]
 8000f6c:	68da      	ldr	r2, [r3, #12]
 8000f6e:	69fb      	ldr	r3, [r7, #28]
 8000f70:	005b      	lsls	r3, r3, #1
 8000f72:	fa02 f303 	lsl.w	r3, r2, r3
 8000f76:	69ba      	ldr	r2, [r7, #24]
 8000f78:	4313      	orrs	r3, r2
 8000f7a:	61bb      	str	r3, [r7, #24]
        GPIOx->OSPEEDR = temp;
 8000f7c:	687b      	ldr	r3, [r7, #4]
 8000f7e:	69ba      	ldr	r2, [r7, #24]
 8000f80:	609a      	str	r2, [r3, #8]

        /* Configure the IO Output Type */
        temp = GPIOx->OTYPER;
 8000f82:	687b      	ldr	r3, [r7, #4]
 8000f84:	685b      	ldr	r3, [r3, #4]
 8000f86:	61bb      	str	r3, [r7, #24]
        temp &= ~(GPIO_OTYPER_OT_0 << position) ;
 8000f88:	2201      	movs	r2, #1
 8000f8a:	69fb      	ldr	r3, [r7, #28]
 8000f8c:	fa02 f303 	lsl.w	r3, r2, r3
 8000f90:	43db      	mvns	r3, r3
 8000f92:	69ba      	ldr	r2, [r7, #24]
 8000f94:	4013      	ands	r3, r2
 8000f96:	61bb      	str	r3, [r7, #24]
        temp |= (((GPIO_Init->Mode & OUTPUT_TYPE) >> OUTPUT_TYPE_Pos) << position);
 8000f98:	683b      	ldr	r3, [r7, #0]
 8000f9a:	685b      	ldr	r3, [r3, #4]
 8000f9c:	091b      	lsrs	r3, r3, #4
 8000f9e:	f003 0201 	and.w	r2, r3, #1
 8000fa2:	69fb      	ldr	r3, [r7, #28]
 8000fa4:	fa02 f303 	lsl.w	r3, r2, r3
 8000fa8:	69ba      	ldr	r2, [r7, #24]
 8000faa:	4313      	orrs	r3, r2
 8000fac:	61bb      	str	r3, [r7, #24]
        GPIOx->OTYPER = temp;
 8000fae:	687b      	ldr	r3, [r7, #4]
 8000fb0:	69ba      	ldr	r2, [r7, #24]
 8000fb2:	605a      	str	r2, [r3, #4]
       }

      if((GPIO_Init->Mode & GPIO_MODE) != MODE_ANALOG)
 8000fb4:	683b      	ldr	r3, [r7, #0]
 8000fb6:	685b      	ldr	r3, [r3, #4]
 8000fb8:	f003 0303 	and.w	r3, r3, #3
 8000fbc:	2b03      	cmp	r3, #3
 8000fbe:	d017      	beq.n	8000ff0 <HAL_GPIO_Init+0xf0>
      {
        /* Check the parameters */
        assert_param(IS_GPIO_PULL(GPIO_Init->Pull));
        
        /* Activate the Pull-up or Pull down resistor for the current IO */
        temp = GPIOx->PUPDR;
 8000fc0:	687b      	ldr	r3, [r7, #4]
 8000fc2:	68db      	ldr	r3, [r3, #12]
 8000fc4:	61bb      	str	r3, [r7, #24]
        temp &= ~(GPIO_PUPDR_PUPDR0 << (position * 2U));
 8000fc6:	69fb      	ldr	r3, [r7, #28]
 8000fc8:	005b      	lsls	r3, r3, #1
 8000fca:	2203      	movs	r2, #3
 8000fcc:	fa02 f303 	lsl.w	r3, r2, r3
 8000fd0:	43db      	mvns	r3, r3
 8000fd2:	69ba      	ldr	r2, [r7, #24]
 8000fd4:	4013      	ands	r3, r2
 8000fd6:	61bb      	str	r3, [r7, #24]
        temp |= ((GPIO_Init->Pull) << (position * 2U));
 8000fd8:	683b      	ldr	r3, [r7, #0]
 8000fda:	689a      	ldr	r2, [r3, #8]
 8000fdc:	69fb      	ldr	r3, [r7, #28]
 8000fde:	005b      	lsls	r3, r3, #1
 8000fe0:	fa02 f303 	lsl.w	r3, r2, r3
 8000fe4:	69ba      	ldr	r2, [r7, #24]
 8000fe6:	4313      	orrs	r3, r2
 8000fe8:	61bb      	str	r3, [r7, #24]
        GPIOx->PUPDR = temp;
 8000fea:	687b      	ldr	r3, [r7, #4]
 8000fec:	69ba      	ldr	r2, [r7, #24]
 8000fee:	60da      	str	r2, [r3, #12]
      }

      /* In case of Alternate function mode selection */
      if((GPIO_Init->Mode & GPIO_MODE) == MODE_AF)
 8000ff0:	683b      	ldr	r3, [r7, #0]
 8000ff2:	685b      	ldr	r3, [r3, #4]
 8000ff4:	f003 0303 	and.w	r3, r3, #3
 8000ff8:	2b02      	cmp	r3, #2
 8000ffa:	d123      	bne.n	8001044 <HAL_GPIO_Init+0x144>
      {
        /* Check the Alternate function parameter */
        assert_param(IS_GPIO_AF(GPIO_Init->Alternate));
        /* Configure Alternate function mapped with the current IO */
        temp = GPIOx->AFR[position >> 3U];
 8000ffc:	69fb      	ldr	r3, [r7, #28]
 8000ffe:	08da      	lsrs	r2, r3, #3
 8001000:	687b      	ldr	r3, [r7, #4]
 8001002:	3208      	adds	r2, #8
 8001004:	f853 3022 	ldr.w	r3, [r3, r2, lsl #2]
 8001008:	61bb      	str	r3, [r7, #24]
        temp &= ~(0xFU << ((uint32_t)(position & 0x07U) * 4U)) ;
 800100a:	69fb      	ldr	r3, [r7, #28]
 800100c:	f003 0307 	and.w	r3, r3, #7
 8001010:	009b      	lsls	r3, r3, #2
 8001012:	220f      	movs	r2, #15
 8001014:	fa02 f303 	lsl.w	r3, r2, r3
 8001018:	43db      	mvns	r3, r3
 800101a:	69ba      	ldr	r2, [r7, #24]
 800101c:	4013      	ands	r3, r2
 800101e:	61bb      	str	r3, [r7, #24]
        temp |= ((uint32_t)(GPIO_Init->Alternate) << (((uint32_t)position & 0x07U) * 4U));
 8001020:	683b      	ldr	r3, [r7, #0]
 8001022:	691a      	ldr	r2, [r3, #16]
 8001024:	69fb      	ldr	r3, [r7, #28]
 8001026:	f003 0307 	and.w	r3, r3, #7
 800102a:	009b      	lsls	r3, r3, #2
 800102c:	fa02 f303 	lsl.w	r3, r2, r3
 8001030:	69ba      	ldr	r2, [r7, #24]
 8001032:	4313      	orrs	r3, r2
 8001034:	61bb      	str	r3, [r7, #24]
        GPIOx->AFR[position >> 3U] = temp;
 8001036:	69fb      	ldr	r3, [r7, #28]
 8001038:	08da      	lsrs	r2, r3, #3
 800103a:	687b      	ldr	r3, [r7, #4]
 800103c:	3208      	adds	r2, #8
 800103e:	69b9      	ldr	r1, [r7, #24]
 8001040:	f843 1022 	str.w	r1, [r3, r2, lsl #2]
      }

      /* Configure IO Direction mode (Input, Output, Alternate or Analog) */
      temp = GPIOx->MODER;
 8001044:	687b      	ldr	r3, [r7, #4]
 8001046:	681b      	ldr	r3, [r3, #0]
 8001048:	61bb      	str	r3, [r7, #24]
      temp &= ~(GPIO_MODER_MODER0 << (position * 2U));
 800104a:	69fb      	ldr	r3, [r7, #28]
 800104c:	005b      	lsls	r3, r3, #1
 800104e:	2203      	movs	r2, #3
 8001050:	fa02 f303 	lsl.w	r3, r2, r3
 8001054:	43db      	mvns	r3, r3
 8001056:	69ba      	ldr	r2, [r7, #24]
 8001058:	4013      	ands	r3, r2
 800105a:	61bb      	str	r3, [r7, #24]
      temp |= ((GPIO_Init->Mode & GPIO_MODE) << (position * 2U));
 800105c:	683b      	ldr	r3, [r7, #0]
 800105e:	685b      	ldr	r3, [r3, #4]
 8001060:	f003 0203 	and.w	r2, r3, #3
 8001064:	69fb      	ldr	r3, [r7, #28]
 8001066:	005b      	lsls	r3, r3, #1
 8001068:	fa02 f303 	lsl.w	r3, r2, r3
 800106c:	69ba      	ldr	r2, [r7, #24]
 800106e:	4313      	orrs	r3, r2
 8001070:	61bb      	str	r3, [r7, #24]
      GPIOx->MODER = temp;
 8001072:	687b      	ldr	r3, [r7, #4]
 8001074:	69ba      	ldr	r2, [r7, #24]
 8001076:	601a      	str	r2, [r3, #0]

      /*--------------------- EXTI Mode Configuration ------------------------*/
      /* Configure the External Interrupt or event for the current IO */
      if((GPIO_Init->Mode & EXTI_MODE) != 0x00U)
 8001078:	683b      	ldr	r3, [r7, #0]
 800107a:	685b      	ldr	r3, [r3, #4]
 800107c:	f403 3340 	and.w	r3, r3, #196608	; 0x30000
 8001080:	2b00      	cmp	r3, #0
 8001082:	f000 80b4 	beq.w	80011ee <HAL_GPIO_Init+0x2ee>
      {
        /* Enable SYSCFG Clock */
        __HAL_RCC_SYSCFG_CLK_ENABLE();
 8001086:	2300      	movs	r3, #0
 8001088:	60fb      	str	r3, [r7, #12]
 800108a:	4b60      	ldr	r3, [pc, #384]	; (800120c <HAL_GPIO_Init+0x30c>)
 800108c:	6c5b      	ldr	r3, [r3, #68]	; 0x44
 800108e:	4a5f      	ldr	r2, [pc, #380]	; (800120c <HAL_GPIO_Init+0x30c>)
 8001090:	f443 4380 	orr.w	r3, r3, #16384	; 0x4000
 8001094:	6453      	str	r3, [r2, #68]	; 0x44
 8001096:	4b5d      	ldr	r3, [pc, #372]	; (800120c <HAL_GPIO_Init+0x30c>)
 8001098:	6c5b      	ldr	r3, [r3, #68]	; 0x44
 800109a:	f403 4380 	and.w	r3, r3, #16384	; 0x4000
 800109e:	60fb      	str	r3, [r7, #12]
 80010a0:	68fb      	ldr	r3, [r7, #12]

        temp = SYSCFG->EXTICR[position >> 2U];
 80010a2:	4a5b      	ldr	r2, [pc, #364]	; (8001210 <HAL_GPIO_Init+0x310>)
 80010a4:	69fb      	ldr	r3, [r7, #28]
 80010a6:	089b      	lsrs	r3, r3, #2
 80010a8:	3302      	adds	r3, #2
 80010aa:	f852 3023 	ldr.w	r3, [r2, r3, lsl #2]
 80010ae:	61bb      	str	r3, [r7, #24]
        temp &= ~(0x0FU << (4U * (position & 0x03U)));
 80010b0:	69fb      	ldr	r3, [r7, #28]
 80010b2:	f003 0303 	and.w	r3, r3, #3
 80010b6:	009b      	lsls	r3, r3, #2
 80010b8:	220f      	movs	r2, #15
 80010ba:	fa02 f303 	lsl.w	r3, r2, r3
 80010be:	43db      	mvns	r3, r3
 80010c0:	69ba      	ldr	r2, [r7, #24]
 80010c2:	4013      	ands	r3, r2
 80010c4:	61bb      	str	r3, [r7, #24]
        temp |= ((uint32_t)(GPIO_GET_INDEX(GPIOx)) << (4U * (position & 0x03U)));
 80010c6:	687b      	ldr	r3, [r7, #4]
 80010c8:	4a52      	ldr	r2, [pc, #328]	; (8001214 <HAL_GPIO_Init+0x314>)
 80010ca:	4293      	cmp	r3, r2
 80010cc:	d02b      	beq.n	8001126 <HAL_GPIO_Init+0x226>
 80010ce:	687b      	ldr	r3, [r7, #4]
 80010d0:	4a51      	ldr	r2, [pc, #324]	; (8001218 <HAL_GPIO_Init+0x318>)
 80010d2:	4293      	cmp	r3, r2
 80010d4:	d025      	beq.n	8001122 <HAL_GPIO_Init+0x222>
 80010d6:	687b      	ldr	r3, [r7, #4]
 80010d8:	4a50      	ldr	r2, [pc, #320]	; (800121c <HAL_GPIO_Init+0x31c>)
 80010da:	4293      	cmp	r3, r2
 80010dc:	d01f      	beq.n	800111e <HAL_GPIO_Init+0x21e>
 80010de:	687b      	ldr	r3, [r7, #4]
 80010e0:	4a4f      	ldr	r2, [pc, #316]	; (8001220 <HAL_GPIO_Init+0x320>)
 80010e2:	4293      	cmp	r3, r2
 80010e4:	d019      	beq.n	800111a <HAL_GPIO_Init+0x21a>
 80010e6:	687b      	ldr	r3, [r7, #4]
 80010e8:	4a4e      	ldr	r2, [pc, #312]	; (8001224 <HAL_GPIO_Init+0x324>)
 80010ea:	4293      	cmp	r3, r2
 80010ec:	d013      	beq.n	8001116 <HAL_GPIO_Init+0x216>
 80010ee:	687b      	ldr	r3, [r7, #4]
 80010f0:	4a4d      	ldr	r2, [pc, #308]	; (8001228 <HAL_GPIO_Init+0x328>)
 80010f2:	4293      	cmp	r3, r2
 80010f4:	d00d      	beq.n	8001112 <HAL_GPIO_Init+0x212>
 80010f6:	687b      	ldr	r3, [r7, #4]
 80010f8:	4a4c      	ldr	r2, [pc, #304]	; (800122c <HAL_GPIO_Init+0x32c>)
 80010fa:	4293      	cmp	r3, r2
 80010fc:	d007      	beq.n	800110e <HAL_GPIO_Init+0x20e>
 80010fe:	687b      	ldr	r3, [r7, #4]
 8001100:	4a4b      	ldr	r2, [pc, #300]	; (8001230 <HAL_GPIO_Init+0x330>)
 8001102:	4293      	cmp	r3, r2
 8001104:	d101      	bne.n	800110a <HAL_GPIO_Init+0x20a>
 8001106:	2307      	movs	r3, #7
 8001108:	e00e      	b.n	8001128 <HAL_GPIO_Init+0x228>
 800110a:	2308      	movs	r3, #8
 800110c:	e00c      	b.n	8001128 <HAL_GPIO_Init+0x228>
 800110e:	2306      	movs	r3, #6
 8001110:	e00a      	b.n	8001128 <HAL_GPIO_Init+0x228>
 8001112:	2305      	movs	r3, #5
 8001114:	e008      	b.n	8001128 <HAL_GPIO_Init+0x228>
 8001116:	2304      	movs	r3, #4
 8001118:	e006      	b.n	8001128 <HAL_GPIO_Init+0x228>
 800111a:	2303      	movs	r3, #3
 800111c:	e004      	b.n	8001128 <HAL_GPIO_Init+0x228>
 800111e:	2302      	movs	r3, #2
 8001120:	e002      	b.n	8001128 <HAL_GPIO_Init+0x228>
 8001122:	2301      	movs	r3, #1
 8001124:	e000      	b.n	8001128 <HAL_GPIO_Init+0x228>
 8001126:	2300      	movs	r3, #0
 8001128:	69fa      	ldr	r2, [r7, #28]
 800112a:	f002 0203 	and.w	r2, r2, #3
 800112e:	0092      	lsls	r2, r2, #2
 8001130:	4093      	lsls	r3, r2
 8001132:	69ba      	ldr	r2, [r7, #24]
 8001134:	4313      	orrs	r3, r2
 8001136:	61bb      	str	r3, [r7, #24]
        SYSCFG->EXTICR[position >> 2U] = temp;
 8001138:	4935      	ldr	r1, [pc, #212]	; (8001210 <HAL_GPIO_Init+0x310>)
 800113a:	69fb      	ldr	r3, [r7, #28]
 800113c:	089b      	lsrs	r3, r3, #2
 800113e:	3302      	adds	r3, #2
 8001140:	69ba      	ldr	r2, [r7, #24]
 8001142:	f841 2023 	str.w	r2, [r1, r3, lsl #2]

        /* Clear EXTI line configuration */
        temp = EXTI->IMR;
 8001146:	4b3b      	ldr	r3, [pc, #236]	; (8001234 <HAL_GPIO_Init+0x334>)
 8001148:	681b      	ldr	r3, [r3, #0]
 800114a:	61bb      	str	r3, [r7, #24]
        temp &= ~((uint32_t)iocurrent);
 800114c:	693b      	ldr	r3, [r7, #16]
 800114e:	43db      	mvns	r3, r3
 8001150:	69ba      	ldr	r2, [r7, #24]
 8001152:	4013      	ands	r3, r2
 8001154:	61bb      	str	r3, [r7, #24]
        if((GPIO_Init->Mode & EXTI_IT) != 0x00U)
 8001156:	683b      	ldr	r3, [r7, #0]
 8001158:	685b      	ldr	r3, [r3, #4]
 800115a:	f403 3380 	and.w	r3, r3, #65536	; 0x10000
 800115e:	2b00      	cmp	r3, #0
 8001160:	d003      	beq.n	800116a <HAL_GPIO_Init+0x26a>
        {
          temp |= iocurrent;
 8001162:	69ba      	ldr	r2, [r7, #24]
 8001164:	693b      	ldr	r3, [r7, #16]
 8001166:	4313      	orrs	r3, r2
 8001168:	61bb      	str	r3, [r7, #24]
        }
        EXTI->IMR = temp;
 800116a:	4a32      	ldr	r2, [pc, #200]	; (8001234 <HAL_GPIO_Init+0x334>)
 800116c:	69bb      	ldr	r3, [r7, #24]
 800116e:	6013      	str	r3, [r2, #0]

        temp = EXTI->EMR;
 8001170:	4b30      	ldr	r3, [pc, #192]	; (8001234 <HAL_GPIO_Init+0x334>)
 8001172:	685b      	ldr	r3, [r3, #4]
 8001174:	61bb      	str	r3, [r7, #24]
        temp &= ~((uint32_t)iocurrent);
 8001176:	693b      	ldr	r3, [r7, #16]
 8001178:	43db      	mvns	r3, r3
 800117a:	69ba      	ldr	r2, [r7, #24]
 800117c:	4013      	ands	r3, r2
 800117e:	61bb      	str	r3, [r7, #24]
        if((GPIO_Init->Mode & EXTI_EVT) != 0x00U)
 8001180:	683b      	ldr	r3, [r7, #0]
 8001182:	685b      	ldr	r3, [r3, #4]
 8001184:	f403 3300 	and.w	r3, r3, #131072	; 0x20000
 8001188:	2b00      	cmp	r3, #0
 800118a:	d003      	beq.n	8001194 <HAL_GPIO_Init+0x294>
        {
          temp |= iocurrent;
 800118c:	69ba      	ldr	r2, [r7, #24]
 800118e:	693b      	ldr	r3, [r7, #16]
 8001190:	4313      	orrs	r3, r2
 8001192:	61bb      	str	r3, [r7, #24]
        }
        EXTI->EMR = temp;
 8001194:	4a27      	ldr	r2, [pc, #156]	; (8001234 <HAL_GPIO_Init+0x334>)
 8001196:	69bb      	ldr	r3, [r7, #24]
 8001198:	6053      	str	r3, [r2, #4]

        /* Clear Rising Falling edge configuration */
        temp = EXTI->RTSR;
 800119a:	4b26      	ldr	r3, [pc, #152]	; (8001234 <HAL_GPIO_Init+0x334>)
 800119c:	689b      	ldr	r3, [r3, #8]
 800119e:	61bb      	str	r3, [r7, #24]
        temp &= ~((uint32_t)iocurrent);
 80011a0:	693b      	ldr	r3, [r7, #16]
 80011a2:	43db      	mvns	r3, r3
 80011a4:	69ba      	ldr	r2, [r7, #24]
 80011a6:	4013      	ands	r3, r2
 80011a8:	61bb      	str	r3, [r7, #24]
        if((GPIO_Init->Mode & TRIGGER_RISING) != 0x00U)
 80011aa:	683b      	ldr	r3, [r7, #0]
 80011ac:	685b      	ldr	r3, [r3, #4]
 80011ae:	f403 1380 	and.w	r3, r3, #1048576	; 0x100000
 80011b2:	2b00      	cmp	r3, #0
 80011b4:	d003      	beq.n	80011be <HAL_GPIO_Init+0x2be>
        {
          temp |= iocurrent;
 80011b6:	69ba      	ldr	r2, [r7, #24]
 80011b8:	693b      	ldr	r3, [r7, #16]
 80011ba:	4313      	orrs	r3, r2
 80011bc:	61bb      	str	r3, [r7, #24]
        }
        EXTI->RTSR = temp;
 80011be:	4a1d      	ldr	r2, [pc, #116]	; (8001234 <HAL_GPIO_Init+0x334>)
 80011c0:	69bb      	ldr	r3, [r7, #24]
 80011c2:	6093      	str	r3, [r2, #8]

        temp = EXTI->FTSR;
 80011c4:	4b1b      	ldr	r3, [pc, #108]	; (8001234 <HAL_GPIO_Init+0x334>)
 80011c6:	68db      	ldr	r3, [r3, #12]
 80011c8:	61bb      	str	r3, [r7, #24]
        temp &= ~((uint32_t)iocurrent);
 80011ca:	693b      	ldr	r3, [r7, #16]
 80011cc:	43db      	mvns	r3, r3
 80011ce:	69ba      	ldr	r2, [r7, #24]
 80011d0:	4013      	ands	r3, r2
 80011d2:	61bb      	str	r3, [r7, #24]
        if((GPIO_Init->Mode & TRIGGER_FALLING) != 0x00U)
 80011d4:	683b      	ldr	r3, [r7, #0]
 80011d6:	685b      	ldr	r3, [r3, #4]
 80011d8:	f403 1300 	and.w	r3, r3, #2097152	; 0x200000
 80011dc:	2b00      	cmp	r3, #0
 80011de:	d003      	beq.n	80011e8 <HAL_GPIO_Init+0x2e8>
        {
          temp |= iocurrent;
 80011e0:	69ba      	ldr	r2, [r7, #24]
 80011e2:	693b      	ldr	r3, [r7, #16]
 80011e4:	4313      	orrs	r3, r2
 80011e6:	61bb      	str	r3, [r7, #24]
        }
        EXTI->FTSR = temp;
 80011e8:	4a12      	ldr	r2, [pc, #72]	; (8001234 <HAL_GPIO_Init+0x334>)
 80011ea:	69bb      	ldr	r3, [r7, #24]
 80011ec:	60d3      	str	r3, [r2, #12]
  for(position = 0U; position < GPIO_NUMBER; position++)
 80011ee:	69fb      	ldr	r3, [r7, #28]
 80011f0:	3301      	adds	r3, #1
 80011f2:	61fb      	str	r3, [r7, #28]
 80011f4:	69fb      	ldr	r3, [r7, #28]
 80011f6:	2b0f      	cmp	r3, #15
 80011f8:	f67f ae90 	bls.w	8000f1c <HAL_GPIO_Init+0x1c>
      }
    }
  }
}
 80011fc:	bf00      	nop
 80011fe:	bf00      	nop
 8001200:	3724      	adds	r7, #36	; 0x24
 8001202:	46bd      	mov	sp, r7
 8001204:	f85d 7b04 	ldr.w	r7, [sp], #4
 8001208:	4770      	bx	lr
 800120a:	bf00      	nop
 800120c:	40023800 	.word	0x40023800
 8001210:	40013800 	.word	0x40013800
 8001214:	40020000 	.word	0x40020000
 8001218:	40020400 	.word	0x40020400
 800121c:	40020800 	.word	0x40020800
 8001220:	40020c00 	.word	0x40020c00
 8001224:	40021000 	.word	0x40021000
 8001228:	40021400 	.word	0x40021400
 800122c:	40021800 	.word	0x40021800
 8001230:	40021c00 	.word	0x40021c00
 8001234:	40013c00 	.word	0x40013c00

08001238 <HAL_GPIO_WritePin>:
  *            @arg GPIO_PIN_RESET: to clear the port pin
  *            @arg GPIO_PIN_SET: to set the port pin
  * @retval None
  */
void HAL_GPIO_WritePin(GPIO_TypeDef* GPIOx, uint16_t GPIO_Pin, GPIO_PinState PinState)
{
 8001238:	b480      	push	{r7}
 800123a:	b083      	sub	sp, #12
 800123c:	af00      	add	r7, sp, #0
 800123e:	6078      	str	r0, [r7, #4]
 8001240:	460b      	mov	r3, r1
 8001242:	807b      	strh	r3, [r7, #2]
 8001244:	4613      	mov	r3, r2
 8001246:	707b      	strb	r3, [r7, #1]
  /* Check the parameters */
  assert_param(IS_GPIO_PIN(GPIO_Pin));
  assert_param(IS_GPIO_PIN_ACTION(PinState));

  if(PinState != GPIO_PIN_RESET)
 8001248:	787b      	ldrb	r3, [r7, #1]
 800124a:	2b00      	cmp	r3, #0
 800124c:	d003      	beq.n	8001256 <HAL_GPIO_WritePin+0x1e>
  {
    GPIOx->BSRR = GPIO_Pin;
 800124e:	887a      	ldrh	r2, [r7, #2]
 8001250:	687b      	ldr	r3, [r7, #4]
 8001252:	619a      	str	r2, [r3, #24]
  }
  else
  {
    GPIOx->BSRR = (uint32_t)GPIO_Pin << 16U;
  }
}
 8001254:	e003      	b.n	800125e <HAL_GPIO_WritePin+0x26>
    GPIOx->BSRR = (uint32_t)GPIO_Pin << 16U;
 8001256:	887b      	ldrh	r3, [r7, #2]
 8001258:	041a      	lsls	r2, r3, #16
 800125a:	687b      	ldr	r3, [r7, #4]
 800125c:	619a      	str	r2, [r3, #24]
}
 800125e:	bf00      	nop
 8001260:	370c      	adds	r7, #12
 8001262:	46bd      	mov	sp, r7
 8001264:	f85d 7b04 	ldr.w	r7, [sp], #4
 8001268:	4770      	bx	lr
	...

0800126c <HAL_RCC_OscConfig>:
  *         supported by this API. User should request a transition to HSE Off
  *         first and then HSE On or HSE Bypass.
  * @retval HAL status
  */
__weak HAL_StatusTypeDef HAL_RCC_OscConfig(RCC_OscInitTypeDef  *RCC_OscInitStruct)
{
 800126c:	b580      	push	{r7, lr}
 800126e:	b086      	sub	sp, #24
 8001270:	af00      	add	r7, sp, #0
 8001272:	6078      	str	r0, [r7, #4]
  uint32_t tickstart, pll_config;

  /* Check Null pointer */
  if(RCC_OscInitStruct == NULL)
 8001274:	687b      	ldr	r3, [r7, #4]
 8001276:	2b00      	cmp	r3, #0
 8001278:	d101      	bne.n	800127e <HAL_RCC_OscConfig+0x12>
  {
    return HAL_ERROR;
 800127a:	2301      	movs	r3, #1
 800127c:	e264      	b.n	8001748 <HAL_RCC_OscConfig+0x4dc>
  }

  /* Check the parameters */
  assert_param(IS_RCC_OSCILLATORTYPE(RCC_OscInitStruct->OscillatorType));
  /*------------------------------- HSE Configuration ------------------------*/
  if(((RCC_OscInitStruct->OscillatorType) & RCC_OSCILLATORTYPE_HSE) == RCC_OSCILLATORTYPE_HSE)
 800127e:	687b      	ldr	r3, [r7, #4]
 8001280:	681b      	ldr	r3, [r3, #0]
 8001282:	f003 0301 	and.w	r3, r3, #1
 8001286:	2b00      	cmp	r3, #0
 8001288:	d075      	beq.n	8001376 <HAL_RCC_OscConfig+0x10a>
  {
    /* Check the parameters */
    assert_param(IS_RCC_HSE(RCC_OscInitStruct->HSEState));
    /* When the HSE is used as system clock or clock source for PLL in these cases HSE will not disabled */
    if((__HAL_RCC_GET_SYSCLK_SOURCE() == RCC_CFGR_SWS_HSE) ||\
 800128a:	4ba3      	ldr	r3, [pc, #652]	; (8001518 <HAL_RCC_OscConfig+0x2ac>)
 800128c:	689b      	ldr	r3, [r3, #8]
 800128e:	f003 030c 	and.w	r3, r3, #12
 8001292:	2b04      	cmp	r3, #4
 8001294:	d00c      	beq.n	80012b0 <HAL_RCC_OscConfig+0x44>
      ((__HAL_RCC_GET_SYSCLK_SOURCE() == RCC_CFGR_SWS_PLL) && ((RCC->PLLCFGR & RCC_PLLCFGR_PLLSRC) == RCC_PLLCFGR_PLLSRC_HSE)))
 8001296:	4ba0      	ldr	r3, [pc, #640]	; (8001518 <HAL_RCC_OscConfig+0x2ac>)
 8001298:	689b      	ldr	r3, [r3, #8]
 800129a:	f003 030c 	and.w	r3, r3, #12
    if((__HAL_RCC_GET_SYSCLK_SOURCE() == RCC_CFGR_SWS_HSE) ||\
 800129e:	2b08      	cmp	r3, #8
 80012a0:	d112      	bne.n	80012c8 <HAL_RCC_OscConfig+0x5c>
      ((__HAL_RCC_GET_SYSCLK_SOURCE() == RCC_CFGR_SWS_PLL) && ((RCC->PLLCFGR & RCC_PLLCFGR_PLLSRC) == RCC_PLLCFGR_PLLSRC_HSE)))
 80012a2:	4b9d      	ldr	r3, [pc, #628]	; (8001518 <HAL_RCC_OscConfig+0x2ac>)
 80012a4:	685b      	ldr	r3, [r3, #4]
 80012a6:	f403 0380 	and.w	r3, r3, #4194304	; 0x400000
 80012aa:	f5b3 0f80 	cmp.w	r3, #4194304	; 0x400000
 80012ae:	d10b      	bne.n	80012c8 <HAL_RCC_OscConfig+0x5c>
    {
      if((__HAL_RCC_GET_FLAG(RCC_FLAG_HSERDY) != RESET) && (RCC_OscInitStruct->HSEState == RCC_HSE_OFF))
 80012b0:	4b99      	ldr	r3, [pc, #612]	; (8001518 <HAL_RCC_OscConfig+0x2ac>)
 80012b2:	681b      	ldr	r3, [r3, #0]
 80012b4:	f403 3300 	and.w	r3, r3, #131072	; 0x20000
 80012b8:	2b00      	cmp	r3, #0
 80012ba:	d05b      	beq.n	8001374 <HAL_RCC_OscConfig+0x108>
 80012bc:	687b      	ldr	r3, [r7, #4]
 80012be:	685b      	ldr	r3, [r3, #4]
 80012c0:	2b00      	cmp	r3, #0
 80012c2:	d157      	bne.n	8001374 <HAL_RCC_OscConfig+0x108>
      {
        return HAL_ERROR;
 80012c4:	2301      	movs	r3, #1
 80012c6:	e23f      	b.n	8001748 <HAL_RCC_OscConfig+0x4dc>
      }
    }
    else
    {
      /* Set the new HSE configuration ---------------------------------------*/
      __HAL_RCC_HSE_CONFIG(RCC_OscInitStruct->HSEState);
 80012c8:	687b      	ldr	r3, [r7, #4]
 80012ca:	685b      	ldr	r3, [r3, #4]
 80012cc:	f5b3 3f80 	cmp.w	r3, #65536	; 0x10000
 80012d0:	d106      	bne.n	80012e0 <HAL_RCC_OscConfig+0x74>
 80012d2:	4b91      	ldr	r3, [pc, #580]	; (8001518 <HAL_RCC_OscConfig+0x2ac>)
 80012d4:	681b      	ldr	r3, [r3, #0]
 80012d6:	4a90      	ldr	r2, [pc, #576]	; (8001518 <HAL_RCC_OscConfig+0x2ac>)
 80012d8:	f443 3380 	orr.w	r3, r3, #65536	; 0x10000
 80012dc:	6013      	str	r3, [r2, #0]
 80012de:	e01d      	b.n	800131c <HAL_RCC_OscConfig+0xb0>
 80012e0:	687b      	ldr	r3, [r7, #4]
 80012e2:	685b      	ldr	r3, [r3, #4]
 80012e4:	f5b3 2fa0 	cmp.w	r3, #327680	; 0x50000
 80012e8:	d10c      	bne.n	8001304 <HAL_RCC_OscConfig+0x98>
 80012ea:	4b8b      	ldr	r3, [pc, #556]	; (8001518 <HAL_RCC_OscConfig+0x2ac>)
 80012ec:	681b      	ldr	r3, [r3, #0]
 80012ee:	4a8a      	ldr	r2, [pc, #552]	; (8001518 <HAL_RCC_OscConfig+0x2ac>)
 80012f0:	f443 2380 	orr.w	r3, r3, #262144	; 0x40000
 80012f4:	6013      	str	r3, [r2, #0]
 80012f6:	4b88      	ldr	r3, [pc, #544]	; (8001518 <HAL_RCC_OscConfig+0x2ac>)
 80012f8:	681b      	ldr	r3, [r3, #0]
 80012fa:	4a87      	ldr	r2, [pc, #540]	; (8001518 <HAL_RCC_OscConfig+0x2ac>)
 80012fc:	f443 3380 	orr.w	r3, r3, #65536	; 0x10000
 8001300:	6013      	str	r3, [r2, #0]
 8001302:	e00b      	b.n	800131c <HAL_RCC_OscConfig+0xb0>
 8001304:	4b84      	ldr	r3, [pc, #528]	; (8001518 <HAL_RCC_OscConfig+0x2ac>)
 8001306:	681b      	ldr	r3, [r3, #0]
 8001308:	4a83      	ldr	r2, [pc, #524]	; (8001518 <HAL_RCC_OscConfig+0x2ac>)
 800130a:	f423 3380 	bic.w	r3, r3, #65536	; 0x10000
 800130e:	6013      	str	r3, [r2, #0]
 8001310:	4b81      	ldr	r3, [pc, #516]	; (8001518 <HAL_RCC_OscConfig+0x2ac>)
 8001312:	681b      	ldr	r3, [r3, #0]
 8001314:	4a80      	ldr	r2, [pc, #512]	; (8001518 <HAL_RCC_OscConfig+0x2ac>)
 8001316:	f423 2380 	bic.w	r3, r3, #262144	; 0x40000
 800131a:	6013      	str	r3, [r2, #0]

      /* Check the HSE State */
      if((RCC_OscInitStruct->HSEState) != RCC_HSE_OFF)
 800131c:	687b      	ldr	r3, [r7, #4]
 800131e:	685b      	ldr	r3, [r3, #4]
 8001320:	2b00      	cmp	r3, #0
 8001322:	d013      	beq.n	800134c <HAL_RCC_OscConfig+0xe0>
      {
        /* Get Start Tick */
        tickstart = HAL_GetTick();
 8001324:	f7ff fcfe 	bl	8000d24 <HAL_GetTick>
 8001328:	6138      	str	r0, [r7, #16]

        /* Wait till HSE is ready */
        while(__HAL_RCC_GET_FLAG(RCC_FLAG_HSERDY) == RESET)
 800132a:	e008      	b.n	800133e <HAL_RCC_OscConfig+0xd2>
        {
          if((HAL_GetTick() - tickstart ) > HSE_TIMEOUT_VALUE)
 800132c:	f7ff fcfa 	bl	8000d24 <HAL_GetTick>
 8001330:	4602      	mov	r2, r0
 8001332:	693b      	ldr	r3, [r7, #16]
 8001334:	1ad3      	subs	r3, r2, r3
 8001336:	2b64      	cmp	r3, #100	; 0x64
 8001338:	d901      	bls.n	800133e <HAL_RCC_OscConfig+0xd2>
          {
            return HAL_TIMEOUT;
 800133a:	2303      	movs	r3, #3
 800133c:	e204      	b.n	8001748 <HAL_RCC_OscConfig+0x4dc>
        while(__HAL_RCC_GET_FLAG(RCC_FLAG_HSERDY) == RESET)
 800133e:	4b76      	ldr	r3, [pc, #472]	; (8001518 <HAL_RCC_OscConfig+0x2ac>)
 8001340:	681b      	ldr	r3, [r3, #0]
 8001342:	f403 3300 	and.w	r3, r3, #131072	; 0x20000
 8001346:	2b00      	cmp	r3, #0
 8001348:	d0f0      	beq.n	800132c <HAL_RCC_OscConfig+0xc0>
 800134a:	e014      	b.n	8001376 <HAL_RCC_OscConfig+0x10a>
        }
      }
      else
      {
        /* Get Start Tick */
        tickstart = HAL_GetTick();
 800134c:	f7ff fcea 	bl	8000d24 <HAL_GetTick>
 8001350:	6138      	str	r0, [r7, #16]

        /* Wait till HSE is bypassed or disabled */
        while(__HAL_RCC_GET_FLAG(RCC_FLAG_HSERDY) != RESET)
 8001352:	e008      	b.n	8001366 <HAL_RCC_OscConfig+0xfa>
        {
          if((HAL_GetTick() - tickstart ) > HSE_TIMEOUT_VALUE)
 8001354:	f7ff fce6 	bl	8000d24 <HAL_GetTick>
 8001358:	4602      	mov	r2, r0
 800135a:	693b      	ldr	r3, [r7, #16]
 800135c:	1ad3      	subs	r3, r2, r3
 800135e:	2b64      	cmp	r3, #100	; 0x64
 8001360:	d901      	bls.n	8001366 <HAL_RCC_OscConfig+0xfa>
          {
            return HAL_TIMEOUT;
 8001362:	2303      	movs	r3, #3
 8001364:	e1f0      	b.n	8001748 <HAL_RCC_OscConfig+0x4dc>
        while(__HAL_RCC_GET_FLAG(RCC_FLAG_HSERDY) != RESET)
 8001366:	4b6c      	ldr	r3, [pc, #432]	; (8001518 <HAL_RCC_OscConfig+0x2ac>)
 8001368:	681b      	ldr	r3, [r3, #0]
 800136a:	f403 3300 	and.w	r3, r3, #131072	; 0x20000
 800136e:	2b00      	cmp	r3, #0
 8001370:	d1f0      	bne.n	8001354 <HAL_RCC_OscConfig+0xe8>
 8001372:	e000      	b.n	8001376 <HAL_RCC_OscConfig+0x10a>
      if((__HAL_RCC_GET_FLAG(RCC_FLAG_HSERDY) != RESET) && (RCC_OscInitStruct->HSEState == RCC_HSE_OFF))
 8001374:	bf00      	nop
        }
      }
    }
  }
  /*----------------------------- HSI Configuration --------------------------*/
  if(((RCC_OscInitStruct->OscillatorType) & RCC_OSCILLATORTYPE_HSI) == RCC_OSCILLATORTYPE_HSI)
 8001376:	687b      	ldr	r3, [r7, #4]
 8001378:	681b      	ldr	r3, [r3, #0]
 800137a:	f003 0302 	and.w	r3, r3, #2
 800137e:	2b00      	cmp	r3, #0
 8001380:	d063      	beq.n	800144a <HAL_RCC_OscConfig+0x1de>
    /* Check the parameters */
    assert_param(IS_RCC_HSI(RCC_OscInitStruct->HSIState));
    assert_param(IS_RCC_CALIBRATION_VALUE(RCC_OscInitStruct->HSICalibrationValue));

    /* Check if HSI is used as system clock or as PLL source when PLL is selected as system clock */
    if((__HAL_RCC_GET_SYSCLK_SOURCE() == RCC_CFGR_SWS_HSI) ||\
 8001382:	4b65      	ldr	r3, [pc, #404]	; (8001518 <HAL_RCC_OscConfig+0x2ac>)
 8001384:	689b      	ldr	r3, [r3, #8]
 8001386:	f003 030c 	and.w	r3, r3, #12
 800138a:	2b00      	cmp	r3, #0
 800138c:	d00b      	beq.n	80013a6 <HAL_RCC_OscConfig+0x13a>
      ((__HAL_RCC_GET_SYSCLK_SOURCE() == RCC_CFGR_SWS_PLL) && ((RCC->PLLCFGR & RCC_PLLCFGR_PLLSRC) == RCC_PLLCFGR_PLLSRC_HSI)))
 800138e:	4b62      	ldr	r3, [pc, #392]	; (8001518 <HAL_RCC_OscConfig+0x2ac>)
 8001390:	689b      	ldr	r3, [r3, #8]
 8001392:	f003 030c 	and.w	r3, r3, #12
    if((__HAL_RCC_GET_SYSCLK_SOURCE() == RCC_CFGR_SWS_HSI) ||\
 8001396:	2b08      	cmp	r3, #8
 8001398:	d11c      	bne.n	80013d4 <HAL_RCC_OscConfig+0x168>
      ((__HAL_RCC_GET_SYSCLK_SOURCE() == RCC_CFGR_SWS_PLL) && ((RCC->PLLCFGR & RCC_PLLCFGR_PLLSRC) == RCC_PLLCFGR_PLLSRC_HSI)))
 800139a:	4b5f      	ldr	r3, [pc, #380]	; (8001518 <HAL_RCC_OscConfig+0x2ac>)
 800139c:	685b      	ldr	r3, [r3, #4]
 800139e:	f403 0380 	and.w	r3, r3, #4194304	; 0x400000
 80013a2:	2b00      	cmp	r3, #0
 80013a4:	d116      	bne.n	80013d4 <HAL_RCC_OscConfig+0x168>
    {
      /* When HSI is used as system clock it will not disabled */
      if((__HAL_RCC_GET_FLAG(RCC_FLAG_HSIRDY) != RESET) && (RCC_OscInitStruct->HSIState != RCC_HSI_ON))
 80013a6:	4b5c      	ldr	r3, [pc, #368]	; (8001518 <HAL_RCC_OscConfig+0x2ac>)
 80013a8:	681b      	ldr	r3, [r3, #0]
 80013aa:	f003 0302 	and.w	r3, r3, #2
 80013ae:	2b00      	cmp	r3, #0
 80013b0:	d005      	beq.n	80013be <HAL_RCC_OscConfig+0x152>
 80013b2:	687b      	ldr	r3, [r7, #4]
 80013b4:	68db      	ldr	r3, [r3, #12]
 80013b6:	2b01      	cmp	r3, #1
 80013b8:	d001      	beq.n	80013be <HAL_RCC_OscConfig+0x152>
      {
        return HAL_ERROR;
 80013ba:	2301      	movs	r3, #1
 80013bc:	e1c4      	b.n	8001748 <HAL_RCC_OscConfig+0x4dc>
      }
      /* Otherwise, just the calibration is allowed */
      else
      {
        /* Adjusts the Internal High Speed oscillator (HSI) calibration value.*/
        __HAL_RCC_HSI_CALIBRATIONVALUE_ADJUST(RCC_OscInitStruct->HSICalibrationValue);
 80013be:	4b56      	ldr	r3, [pc, #344]	; (8001518 <HAL_RCC_OscConfig+0x2ac>)
 80013c0:	681b      	ldr	r3, [r3, #0]
 80013c2:	f023 02f8 	bic.w	r2, r3, #248	; 0xf8
 80013c6:	687b      	ldr	r3, [r7, #4]
 80013c8:	691b      	ldr	r3, [r3, #16]
 80013ca:	00db      	lsls	r3, r3, #3
 80013cc:	4952      	ldr	r1, [pc, #328]	; (8001518 <HAL_RCC_OscConfig+0x2ac>)
 80013ce:	4313      	orrs	r3, r2
 80013d0:	600b      	str	r3, [r1, #0]
      if((__HAL_RCC_GET_FLAG(RCC_FLAG_HSIRDY) != RESET) && (RCC_OscInitStruct->HSIState != RCC_HSI_ON))
 80013d2:	e03a      	b.n	800144a <HAL_RCC_OscConfig+0x1de>
      }
    }
    else
    {
      /* Check the HSI State */
      if((RCC_OscInitStruct->HSIState)!= RCC_HSI_OFF)
 80013d4:	687b      	ldr	r3, [r7, #4]
 80013d6:	68db      	ldr	r3, [r3, #12]
 80013d8:	2b00      	cmp	r3, #0
 80013da:	d020      	beq.n	800141e <HAL_RCC_OscConfig+0x1b2>
      {
        /* Enable the Internal High Speed oscillator (HSI). */
        __HAL_RCC_HSI_ENABLE();
 80013dc:	4b4f      	ldr	r3, [pc, #316]	; (800151c <HAL_RCC_OscConfig+0x2b0>)
 80013de:	2201      	movs	r2, #1
 80013e0:	601a      	str	r2, [r3, #0]

        /* Get Start Tick*/
        tickstart = HAL_GetTick();
 80013e2:	f7ff fc9f 	bl	8000d24 <HAL_GetTick>
 80013e6:	6138      	str	r0, [r7, #16]

        /* Wait till HSI is ready */
        while(__HAL_RCC_GET_FLAG(RCC_FLAG_HSIRDY) == RESET)
 80013e8:	e008      	b.n	80013fc <HAL_RCC_OscConfig+0x190>
        {
          if((HAL_GetTick() - tickstart ) > HSI_TIMEOUT_VALUE)
 80013ea:	f7ff fc9b 	bl	8000d24 <HAL_GetTick>
 80013ee:	4602      	mov	r2, r0
 80013f0:	693b      	ldr	r3, [r7, #16]
 80013f2:	1ad3      	subs	r3, r2, r3
 80013f4:	2b02      	cmp	r3, #2
 80013f6:	d901      	bls.n	80013fc <HAL_RCC_OscConfig+0x190>
          {
            return HAL_TIMEOUT;
 80013f8:	2303      	movs	r3, #3
 80013fa:	e1a5      	b.n	8001748 <HAL_RCC_OscConfig+0x4dc>
        while(__HAL_RCC_GET_FLAG(RCC_FLAG_HSIRDY) == RESET)
 80013fc:	4b46      	ldr	r3, [pc, #280]	; (8001518 <HAL_RCC_OscConfig+0x2ac>)
 80013fe:	681b      	ldr	r3, [r3, #0]
 8001400:	f003 0302 	and.w	r3, r3, #2
 8001404:	2b00      	cmp	r3, #0
 8001406:	d0f0      	beq.n	80013ea <HAL_RCC_OscConfig+0x17e>
          }
        }

        /* Adjusts the Internal High Speed oscillator (HSI) calibration value. */
        __HAL_RCC_HSI_CALIBRATIONVALUE_ADJUST(RCC_OscInitStruct->HSICalibrationValue);
 8001408:	4b43      	ldr	r3, [pc, #268]	; (8001518 <HAL_RCC_OscConfig+0x2ac>)
 800140a:	681b      	ldr	r3, [r3, #0]
 800140c:	f023 02f8 	bic.w	r2, r3, #248	; 0xf8
 8001410:	687b      	ldr	r3, [r7, #4]
 8001412:	691b      	ldr	r3, [r3, #16]
 8001414:	00db      	lsls	r3, r3, #3
 8001416:	4940      	ldr	r1, [pc, #256]	; (8001518 <HAL_RCC_OscConfig+0x2ac>)
 8001418:	4313      	orrs	r3, r2
 800141a:	600b      	str	r3, [r1, #0]
 800141c:	e015      	b.n	800144a <HAL_RCC_OscConfig+0x1de>
      }
      else
      {
        /* Disable the Internal High Speed oscillator (HSI). */
        __HAL_RCC_HSI_DISABLE();
 800141e:	4b3f      	ldr	r3, [pc, #252]	; (800151c <HAL_RCC_OscConfig+0x2b0>)
 8001420:	2200      	movs	r2, #0
 8001422:	601a      	str	r2, [r3, #0]

        /* Get Start Tick*/
        tickstart = HAL_GetTick();
 8001424:	f7ff fc7e 	bl	8000d24 <HAL_GetTick>
 8001428:	6138      	str	r0, [r7, #16]

        /* Wait till HSI is ready */
        while(__HAL_RCC_GET_FLAG(RCC_FLAG_HSIRDY) != RESET)
 800142a:	e008      	b.n	800143e <HAL_RCC_OscConfig+0x1d2>
        {
          if((HAL_GetTick() - tickstart ) > HSI_TIMEOUT_VALUE)
 800142c:	f7ff fc7a 	bl	8000d24 <HAL_GetTick>
 8001430:	4602      	mov	r2, r0
 8001432:	693b      	ldr	r3, [r7, #16]
 8001434:	1ad3      	subs	r3, r2, r3
 8001436:	2b02      	cmp	r3, #2
 8001438:	d901      	bls.n	800143e <HAL_RCC_OscConfig+0x1d2>
          {
            return HAL_TIMEOUT;
 800143a:	2303      	movs	r3, #3
 800143c:	e184      	b.n	8001748 <HAL_RCC_OscConfig+0x4dc>
        while(__HAL_RCC_GET_FLAG(RCC_FLAG_HSIRDY) != RESET)
 800143e:	4b36      	ldr	r3, [pc, #216]	; (8001518 <HAL_RCC_OscConfig+0x2ac>)
 8001440:	681b      	ldr	r3, [r3, #0]
 8001442:	f003 0302 	and.w	r3, r3, #2
 8001446:	2b00      	cmp	r3, #0
 8001448:	d1f0      	bne.n	800142c <HAL_RCC_OscConfig+0x1c0>
        }
      }
    }
  }
  /*------------------------------ LSI Configuration -------------------------*/
  if(((RCC_OscInitStruct->OscillatorType) & RCC_OSCILLATORTYPE_LSI) == RCC_OSCILLATORTYPE_LSI)
 800144a:	687b      	ldr	r3, [r7, #4]
 800144c:	681b      	ldr	r3, [r3, #0]
 800144e:	f003 0308 	and.w	r3, r3, #8
 8001452:	2b00      	cmp	r3, #0
 8001454:	d030      	beq.n	80014b8 <HAL_RCC_OscConfig+0x24c>
  {
    /* Check the parameters */
    assert_param(IS_RCC_LSI(RCC_OscInitStruct->LSIState));

    /* Check the LSI State */
    if((RCC_OscInitStruct->LSIState)!= RCC_LSI_OFF)
 8001456:	687b      	ldr	r3, [r7, #4]
 8001458:	695b      	ldr	r3, [r3, #20]
 800145a:	2b00      	cmp	r3, #0
 800145c:	d016      	beq.n	800148c <HAL_RCC_OscConfig+0x220>
    {
      /* Enable the Internal Low Speed oscillator (LSI). */
      __HAL_RCC_LSI_ENABLE();
 800145e:	4b30      	ldr	r3, [pc, #192]	; (8001520 <HAL_RCC_OscConfig+0x2b4>)
 8001460:	2201      	movs	r2, #1
 8001462:	601a      	str	r2, [r3, #0]

      /* Get Start Tick*/
      tickstart = HAL_GetTick();
 8001464:	f7ff fc5e 	bl	8000d24 <HAL_GetTick>
 8001468:	6138      	str	r0, [r7, #16]

      /* Wait till LSI is ready */
      while(__HAL_RCC_GET_FLAG(RCC_FLAG_LSIRDY) == RESET)
 800146a:	e008      	b.n	800147e <HAL_RCC_OscConfig+0x212>
      {
        if((HAL_GetTick() - tickstart ) > LSI_TIMEOUT_VALUE)
 800146c:	f7ff fc5a 	bl	8000d24 <HAL_GetTick>
 8001470:	4602      	mov	r2, r0
 8001472:	693b      	ldr	r3, [r7, #16]
 8001474:	1ad3      	subs	r3, r2, r3
 8001476:	2b02      	cmp	r3, #2
 8001478:	d901      	bls.n	800147e <HAL_RCC_OscConfig+0x212>
        {
          return HAL_TIMEOUT;
 800147a:	2303      	movs	r3, #3
 800147c:	e164      	b.n	8001748 <HAL_RCC_OscConfig+0x4dc>
      while(__HAL_RCC_GET_FLAG(RCC_FLAG_LSIRDY) == RESET)
 800147e:	4b26      	ldr	r3, [pc, #152]	; (8001518 <HAL_RCC_OscConfig+0x2ac>)
 8001480:	6f5b      	ldr	r3, [r3, #116]	; 0x74
 8001482:	f003 0302 	and.w	r3, r3, #2
 8001486:	2b00      	cmp	r3, #0
 8001488:	d0f0      	beq.n	800146c <HAL_RCC_OscConfig+0x200>
 800148a:	e015      	b.n	80014b8 <HAL_RCC_OscConfig+0x24c>
      }
    }
    else
    {
      /* Disable the Internal Low Speed oscillator (LSI). */
      __HAL_RCC_LSI_DISABLE();
 800148c:	4b24      	ldr	r3, [pc, #144]	; (8001520 <HAL_RCC_OscConfig+0x2b4>)
 800148e:	2200      	movs	r2, #0
 8001490:	601a      	str	r2, [r3, #0]

      /* Get Start Tick */
      tickstart = HAL_GetTick();
 8001492:	f7ff fc47 	bl	8000d24 <HAL_GetTick>
 8001496:	6138      	str	r0, [r7, #16]

      /* Wait till LSI is ready */
      while(__HAL_RCC_GET_FLAG(RCC_FLAG_LSIRDY) != RESET)
 8001498:	e008      	b.n	80014ac <HAL_RCC_OscConfig+0x240>
      {
        if((HAL_GetTick() - tickstart ) > LSI_TIMEOUT_VALUE)
 800149a:	f7ff fc43 	bl	8000d24 <HAL_GetTick>
 800149e:	4602      	mov	r2, r0
 80014a0:	693b      	ldr	r3, [r7, #16]
 80014a2:	1ad3      	subs	r3, r2, r3
 80014a4:	2b02      	cmp	r3, #2
 80014a6:	d901      	bls.n	80014ac <HAL_RCC_OscConfig+0x240>
        {
          return HAL_TIMEOUT;
 80014a8:	2303      	movs	r3, #3
 80014aa:	e14d      	b.n	8001748 <HAL_RCC_OscConfig+0x4dc>
      while(__HAL_RCC_GET_FLAG(RCC_FLAG_LSIRDY) != RESET)
 80014ac:	4b1a      	ldr	r3, [pc, #104]	; (8001518 <HAL_RCC_OscConfig+0x2ac>)
 80014ae:	6f5b      	ldr	r3, [r3, #116]	; 0x74
 80014b0:	f003 0302 	and.w	r3, r3, #2
 80014b4:	2b00      	cmp	r3, #0
 80014b6:	d1f0      	bne.n	800149a <HAL_RCC_OscConfig+0x22e>
        }
      }
    }
  }
  /*------------------------------ LSE Configuration -------------------------*/
  if(((RCC_OscInitStruct->OscillatorType) & RCC_OSCILLATORTYPE_LSE) == RCC_OSCILLATORTYPE_LSE)
 80014b8:	687b      	ldr	r3, [r7, #4]
 80014ba:	681b      	ldr	r3, [r3, #0]
 80014bc:	f003 0304 	and.w	r3, r3, #4
 80014c0:	2b00      	cmp	r3, #0
 80014c2:	f000 80a0 	beq.w	8001606 <HAL_RCC_OscConfig+0x39a>
  {
    FlagStatus       pwrclkchanged = RESET;
 80014c6:	2300      	movs	r3, #0
 80014c8:	75fb      	strb	r3, [r7, #23]
    /* Check the parameters */
    assert_param(IS_RCC_LSE(RCC_OscInitStruct->LSEState));

    /* Update LSE configuration in Backup Domain control register    */
    /* Requires to enable write access to Backup Domain of necessary */
    if(__HAL_RCC_PWR_IS_CLK_DISABLED())
 80014ca:	4b13      	ldr	r3, [pc, #76]	; (8001518 <HAL_RCC_OscConfig+0x2ac>)
 80014cc:	6c1b      	ldr	r3, [r3, #64]	; 0x40
 80014ce:	f003 5380 	and.w	r3, r3, #268435456	; 0x10000000
 80014d2:	2b00      	cmp	r3, #0
 80014d4:	d10f      	bne.n	80014f6 <HAL_RCC_OscConfig+0x28a>
    {
      __HAL_RCC_PWR_CLK_ENABLE();
 80014d6:	2300      	movs	r3, #0
 80014d8:	60bb      	str	r3, [r7, #8]
 80014da:	4b0f      	ldr	r3, [pc, #60]	; (8001518 <HAL_RCC_OscConfig+0x2ac>)
 80014dc:	6c1b      	ldr	r3, [r3, #64]	; 0x40
 80014de:	4a0e      	ldr	r2, [pc, #56]	; (8001518 <HAL_RCC_OscConfig+0x2ac>)
 80014e0:	f043 5380 	orr.w	r3, r3, #268435456	; 0x10000000
 80014e4:	6413      	str	r3, [r2, #64]	; 0x40
 80014e6:	4b0c      	ldr	r3, [pc, #48]	; (8001518 <HAL_RCC_OscConfig+0x2ac>)
 80014e8:	6c1b      	ldr	r3, [r3, #64]	; 0x40
 80014ea:	f003 5380 	and.w	r3, r3, #268435456	; 0x10000000
 80014ee:	60bb      	str	r3, [r7, #8]
 80014f0:	68bb      	ldr	r3, [r7, #8]
      pwrclkchanged = SET;
 80014f2:	2301      	movs	r3, #1
 80014f4:	75fb      	strb	r3, [r7, #23]
    }

    if(HAL_IS_BIT_CLR(PWR->CR, PWR_CR_DBP))
 80014f6:	4b0b      	ldr	r3, [pc, #44]	; (8001524 <HAL_RCC_OscConfig+0x2b8>)
 80014f8:	681b      	ldr	r3, [r3, #0]
 80014fa:	f403 7380 	and.w	r3, r3, #256	; 0x100
 80014fe:	2b00      	cmp	r3, #0
 8001500:	d121      	bne.n	8001546 <HAL_RCC_OscConfig+0x2da>
    {
      /* Enable write access to Backup domain */
      SET_BIT(PWR->CR, PWR_CR_DBP);
 8001502:	4b08      	ldr	r3, [pc, #32]	; (8001524 <HAL_RCC_OscConfig+0x2b8>)
 8001504:	681b      	ldr	r3, [r3, #0]
 8001506:	4a07      	ldr	r2, [pc, #28]	; (8001524 <HAL_RCC_OscConfig+0x2b8>)
 8001508:	f443 7380 	orr.w	r3, r3, #256	; 0x100
 800150c:	6013      	str	r3, [r2, #0]

      /* Wait for Backup domain Write protection disable */
      tickstart = HAL_GetTick();
 800150e:	f7ff fc09 	bl	8000d24 <HAL_GetTick>
 8001512:	6138      	str	r0, [r7, #16]

      while(HAL_IS_BIT_CLR(PWR->CR, PWR_CR_DBP))
 8001514:	e011      	b.n	800153a <HAL_RCC_OscConfig+0x2ce>
 8001516:	bf00      	nop
 8001518:	40023800 	.word	0x40023800
 800151c:	42470000 	.word	0x42470000
 8001520:	42470e80 	.word	0x42470e80
 8001524:	40007000 	.word	0x40007000
      {
        if((HAL_GetTick() - tickstart) > RCC_DBP_TIMEOUT_VALUE)
 8001528:	f7ff fbfc 	bl	8000d24 <HAL_GetTick>
 800152c:	4602      	mov	r2, r0
 800152e:	693b      	ldr	r3, [r7, #16]
 8001530:	1ad3      	subs	r3, r2, r3
 8001532:	2b02      	cmp	r3, #2
 8001534:	d901      	bls.n	800153a <HAL_RCC_OscConfig+0x2ce>
        {
          return HAL_TIMEOUT;
 8001536:	2303      	movs	r3, #3
 8001538:	e106      	b.n	8001748 <HAL_RCC_OscConfig+0x4dc>
      while(HAL_IS_BIT_CLR(PWR->CR, PWR_CR_DBP))
 800153a:	4b85      	ldr	r3, [pc, #532]	; (8001750 <HAL_RCC_OscConfig+0x4e4>)
 800153c:	681b      	ldr	r3, [r3, #0]
 800153e:	f403 7380 	and.w	r3, r3, #256	; 0x100
 8001542:	2b00      	cmp	r3, #0
 8001544:	d0f0      	beq.n	8001528 <HAL_RCC_OscConfig+0x2bc>
        }
      }
    }

    /* Set the new LSE configuration -----------------------------------------*/
    __HAL_RCC_LSE_CONFIG(RCC_OscInitStruct->LSEState);
 8001546:	687b      	ldr	r3, [r7, #4]
 8001548:	689b      	ldr	r3, [r3, #8]
 800154a:	2b01      	cmp	r3, #1
 800154c:	d106      	bne.n	800155c <HAL_RCC_OscConfig+0x2f0>
 800154e:	4b81      	ldr	r3, [pc, #516]	; (8001754 <HAL_RCC_OscConfig+0x4e8>)
 8001550:	6f1b      	ldr	r3, [r3, #112]	; 0x70
 8001552:	4a80      	ldr	r2, [pc, #512]	; (8001754 <HAL_RCC_OscConfig+0x4e8>)
 8001554:	f043 0301 	orr.w	r3, r3, #1
 8001558:	6713      	str	r3, [r2, #112]	; 0x70
 800155a:	e01c      	b.n	8001596 <HAL_RCC_OscConfig+0x32a>
 800155c:	687b      	ldr	r3, [r7, #4]
 800155e:	689b      	ldr	r3, [r3, #8]
 8001560:	2b05      	cmp	r3, #5
 8001562:	d10c      	bne.n	800157e <HAL_RCC_OscConfig+0x312>
 8001564:	4b7b      	ldr	r3, [pc, #492]	; (8001754 <HAL_RCC_OscConfig+0x4e8>)
 8001566:	6f1b      	ldr	r3, [r3, #112]	; 0x70
 8001568:	4a7a      	ldr	r2, [pc, #488]	; (8001754 <HAL_RCC_OscConfig+0x4e8>)
 800156a:	f043 0304 	orr.w	r3, r3, #4
 800156e:	6713      	str	r3, [r2, #112]	; 0x70
 8001570:	4b78      	ldr	r3, [pc, #480]	; (8001754 <HAL_RCC_OscConfig+0x4e8>)
 8001572:	6f1b      	ldr	r3, [r3, #112]	; 0x70
 8001574:	4a77      	ldr	r2, [pc, #476]	; (8001754 <HAL_RCC_OscConfig+0x4e8>)
 8001576:	f043 0301 	orr.w	r3, r3, #1
 800157a:	6713      	str	r3, [r2, #112]	; 0x70
 800157c:	e00b      	b.n	8001596 <HAL_RCC_OscConfig+0x32a>
 800157e:	4b75      	ldr	r3, [pc, #468]	; (8001754 <HAL_RCC_OscConfig+0x4e8>)
 8001580:	6f1b      	ldr	r3, [r3, #112]	; 0x70
 8001582:	4a74      	ldr	r2, [pc, #464]	; (8001754 <HAL_RCC_OscConfig+0x4e8>)
 8001584:	f023 0301 	bic.w	r3, r3, #1
 8001588:	6713      	str	r3, [r2, #112]	; 0x70
 800158a:	4b72      	ldr	r3, [pc, #456]	; (8001754 <HAL_RCC_OscConfig+0x4e8>)
 800158c:	6f1b      	ldr	r3, [r3, #112]	; 0x70
 800158e:	4a71      	ldr	r2, [pc, #452]	; (8001754 <HAL_RCC_OscConfig+0x4e8>)
 8001590:	f023 0304 	bic.w	r3, r3, #4
 8001594:	6713      	str	r3, [r2, #112]	; 0x70
    /* Check the LSE State */
    if((RCC_OscInitStruct->LSEState) != RCC_LSE_OFF)
 8001596:	687b      	ldr	r3, [r7, #4]
 8001598:	689b      	ldr	r3, [r3, #8]
 800159a:	2b00      	cmp	r3, #0
 800159c:	d015      	beq.n	80015ca <HAL_RCC_OscConfig+0x35e>
    {
      /* Get Start Tick*/
      tickstart = HAL_GetTick();
 800159e:	f7ff fbc1 	bl	8000d24 <HAL_GetTick>
 80015a2:	6138      	str	r0, [r7, #16]

      /* Wait till LSE is ready */
      while(__HAL_RCC_GET_FLAG(RCC_FLAG_LSERDY) == RESET)
 80015a4:	e00a      	b.n	80015bc <HAL_RCC_OscConfig+0x350>
      {
        if((HAL_GetTick() - tickstart ) > RCC_LSE_TIMEOUT_VALUE)
 80015a6:	f7ff fbbd 	bl	8000d24 <HAL_GetTick>
 80015aa:	4602      	mov	r2, r0
 80015ac:	693b      	ldr	r3, [r7, #16]
 80015ae:	1ad3      	subs	r3, r2, r3
 80015b0:	f241 3288 	movw	r2, #5000	; 0x1388
 80015b4:	4293      	cmp	r3, r2
 80015b6:	d901      	bls.n	80015bc <HAL_RCC_OscConfig+0x350>
        {
          return HAL_TIMEOUT;
 80015b8:	2303      	movs	r3, #3
 80015ba:	e0c5      	b.n	8001748 <HAL_RCC_OscConfig+0x4dc>
      while(__HAL_RCC_GET_FLAG(RCC_FLAG_LSERDY) == RESET)
 80015bc:	4b65      	ldr	r3, [pc, #404]	; (8001754 <HAL_RCC_OscConfig+0x4e8>)
 80015be:	6f1b      	ldr	r3, [r3, #112]	; 0x70
 80015c0:	f003 0302 	and.w	r3, r3, #2
 80015c4:	2b00      	cmp	r3, #0
 80015c6:	d0ee      	beq.n	80015a6 <HAL_RCC_OscConfig+0x33a>
 80015c8:	e014      	b.n	80015f4 <HAL_RCC_OscConfig+0x388>
      }
    }
    else
    {
      /* Get Start Tick */
      tickstart = HAL_GetTick();
 80015ca:	f7ff fbab 	bl	8000d24 <HAL_GetTick>
 80015ce:	6138      	str	r0, [r7, #16]

      /* Wait till LSE is ready */
      while(__HAL_RCC_GET_FLAG(RCC_FLAG_LSERDY) != RESET)
 80015d0:	e00a      	b.n	80015e8 <HAL_RCC_OscConfig+0x37c>
      {
        if((HAL_GetTick() - tickstart ) > RCC_LSE_TIMEOUT_VALUE)
 80015d2:	f7ff fba7 	bl	8000d24 <HAL_GetTick>
 80015d6:	4602      	mov	r2, r0
 80015d8:	693b      	ldr	r3, [r7, #16]
 80015da:	1ad3      	subs	r3, r2, r3
 80015dc:	f241 3288 	movw	r2, #5000	; 0x1388
 80015e0:	4293      	cmp	r3, r2
 80015e2:	d901      	bls.n	80015e8 <HAL_RCC_OscConfig+0x37c>
        {
          return HAL_TIMEOUT;
 80015e4:	2303      	movs	r3, #3
 80015e6:	e0af      	b.n	8001748 <HAL_RCC_OscConfig+0x4dc>
      while(__HAL_RCC_GET_FLAG(RCC_FLAG_LSERDY) != RESET)
 80015e8:	4b5a      	ldr	r3, [pc, #360]	; (8001754 <HAL_RCC_OscConfig+0x4e8>)
 80015ea:	6f1b      	ldr	r3, [r3, #112]	; 0x70
 80015ec:	f003 0302 	and.w	r3, r3, #2
 80015f0:	2b00      	cmp	r3, #0
 80015f2:	d1ee      	bne.n	80015d2 <HAL_RCC_OscConfig+0x366>
        }
      }
    }

    /* Restore clock configuration if changed */
    if(pwrclkchanged == SET)
 80015f4:	7dfb      	ldrb	r3, [r7, #23]
 80015f6:	2b01      	cmp	r3, #1
 80015f8:	d105      	bne.n	8001606 <HAL_RCC_OscConfig+0x39a>
    {
      __HAL_RCC_PWR_CLK_DISABLE();
 80015fa:	4b56      	ldr	r3, [pc, #344]	; (8001754 <HAL_RCC_OscConfig+0x4e8>)
 80015fc:	6c1b      	ldr	r3, [r3, #64]	; 0x40
 80015fe:	4a55      	ldr	r2, [pc, #340]	; (8001754 <HAL_RCC_OscConfig+0x4e8>)
 8001600:	f023 5380 	bic.w	r3, r3, #268435456	; 0x10000000
 8001604:	6413      	str	r3, [r2, #64]	; 0x40
    }
  }
  /*-------------------------------- PLL Configuration -----------------------*/
  /* Check the parameters */
  assert_param(IS_RCC_PLL(RCC_OscInitStruct->PLL.PLLState));
  if ((RCC_OscInitStruct->PLL.PLLState) != RCC_PLL_NONE)
 8001606:	687b      	ldr	r3, [r7, #4]
 8001608:	699b      	ldr	r3, [r3, #24]
 800160a:	2b00      	cmp	r3, #0
 800160c:	f000 809b 	beq.w	8001746 <HAL_RCC_OscConfig+0x4da>
  {
    /* Check if the PLL is used as system clock or not */
    if(__HAL_RCC_GET_SYSCLK_SOURCE() != RCC_CFGR_SWS_PLL)
 8001610:	4b50      	ldr	r3, [pc, #320]	; (8001754 <HAL_RCC_OscConfig+0x4e8>)
 8001612:	689b      	ldr	r3, [r3, #8]
 8001614:	f003 030c 	and.w	r3, r3, #12
 8001618:	2b08      	cmp	r3, #8
 800161a:	d05c      	beq.n	80016d6 <HAL_RCC_OscConfig+0x46a>
    {
      if((RCC_OscInitStruct->PLL.PLLState) == RCC_PLL_ON)
 800161c:	687b      	ldr	r3, [r7, #4]
 800161e:	699b      	ldr	r3, [r3, #24]
 8001620:	2b02      	cmp	r3, #2
 8001622:	d141      	bne.n	80016a8 <HAL_RCC_OscConfig+0x43c>
        assert_param(IS_RCC_PLLN_VALUE(RCC_OscInitStruct->PLL.PLLN));
        assert_param(IS_RCC_PLLP_VALUE(RCC_OscInitStruct->PLL.PLLP));
        assert_param(IS_RCC_PLLQ_VALUE(RCC_OscInitStruct->PLL.PLLQ));

        /* Disable the main PLL. */
        __HAL_RCC_PLL_DISABLE();
 8001624:	4b4c      	ldr	r3, [pc, #304]	; (8001758 <HAL_RCC_OscConfig+0x4ec>)
 8001626:	2200      	movs	r2, #0
 8001628:	601a      	str	r2, [r3, #0]

        /* Get Start Tick */
        tickstart = HAL_GetTick();
 800162a:	f7ff fb7b 	bl	8000d24 <HAL_GetTick>
 800162e:	6138      	str	r0, [r7, #16]

        /* Wait till PLL is ready */
        while(__HAL_RCC_GET_FLAG(RCC_FLAG_PLLRDY) != RESET)
 8001630:	e008      	b.n	8001644 <HAL_RCC_OscConfig+0x3d8>
        {
          if((HAL_GetTick() - tickstart ) > PLL_TIMEOUT_VALUE)
 8001632:	f7ff fb77 	bl	8000d24 <HAL_GetTick>
 8001636:	4602      	mov	r2, r0
 8001638:	693b      	ldr	r3, [r7, #16]
 800163a:	1ad3      	subs	r3, r2, r3
 800163c:	2b02      	cmp	r3, #2
 800163e:	d901      	bls.n	8001644 <HAL_RCC_OscConfig+0x3d8>
          {
            return HAL_TIMEOUT;
 8001640:	2303      	movs	r3, #3
 8001642:	e081      	b.n	8001748 <HAL_RCC_OscConfig+0x4dc>
        while(__HAL_RCC_GET_FLAG(RCC_FLAG_PLLRDY) != RESET)
 8001644:	4b43      	ldr	r3, [pc, #268]	; (8001754 <HAL_RCC_OscConfig+0x4e8>)
 8001646:	681b      	ldr	r3, [r3, #0]
 8001648:	f003 7300 	and.w	r3, r3, #33554432	; 0x2000000
 800164c:	2b00      	cmp	r3, #0
 800164e:	d1f0      	bne.n	8001632 <HAL_RCC_OscConfig+0x3c6>
          }
        }

        /* Configure the main PLL clock source, multiplication and division factors. */
        WRITE_REG(RCC->PLLCFGR, (RCC_OscInitStruct->PLL.PLLSource                                            | \
 8001650:	687b      	ldr	r3, [r7, #4]
 8001652:	69da      	ldr	r2, [r3, #28]
 8001654:	687b      	ldr	r3, [r7, #4]
 8001656:	6a1b      	ldr	r3, [r3, #32]
 8001658:	431a      	orrs	r2, r3
 800165a:	687b      	ldr	r3, [r7, #4]
 800165c:	6a5b      	ldr	r3, [r3, #36]	; 0x24
 800165e:	019b      	lsls	r3, r3, #6
 8001660:	431a      	orrs	r2, r3
 8001662:	687b      	ldr	r3, [r7, #4]
 8001664:	6a9b      	ldr	r3, [r3, #40]	; 0x28
 8001666:	085b      	lsrs	r3, r3, #1
 8001668:	3b01      	subs	r3, #1
 800166a:	041b      	lsls	r3, r3, #16
 800166c:	431a      	orrs	r2, r3
 800166e:	687b      	ldr	r3, [r7, #4]
 8001670:	6adb      	ldr	r3, [r3, #44]	; 0x2c
 8001672:	061b      	lsls	r3, r3, #24
 8001674:	4937      	ldr	r1, [pc, #220]	; (8001754 <HAL_RCC_OscConfig+0x4e8>)
 8001676:	4313      	orrs	r3, r2
 8001678:	604b      	str	r3, [r1, #4]
                                 RCC_OscInitStruct->PLL.PLLM                                                 | \
                                 (RCC_OscInitStruct->PLL.PLLN << RCC_PLLCFGR_PLLN_Pos)             | \
                                 (((RCC_OscInitStruct->PLL.PLLP >> 1U) - 1U) << RCC_PLLCFGR_PLLP_Pos) | \
                                 (RCC_OscInitStruct->PLL.PLLQ << RCC_PLLCFGR_PLLQ_Pos)));
        /* Enable the main PLL. */
        __HAL_RCC_PLL_ENABLE();
 800167a:	4b37      	ldr	r3, [pc, #220]	; (8001758 <HAL_RCC_OscConfig+0x4ec>)
 800167c:	2201      	movs	r2, #1
 800167e:	601a      	str	r2, [r3, #0]

        /* Get Start Tick */
        tickstart = HAL_GetTick();
 8001680:	f7ff fb50 	bl	8000d24 <HAL_GetTick>
 8001684:	6138      	str	r0, [r7, #16]

        /* Wait till PLL is ready */
        while(__HAL_RCC_GET_FLAG(RCC_FLAG_PLLRDY) == RESET)
 8001686:	e008      	b.n	800169a <HAL_RCC_OscConfig+0x42e>
        {
          if((HAL_GetTick() - tickstart ) > PLL_TIMEOUT_VALUE)
 8001688:	f7ff fb4c 	bl	8000d24 <HAL_GetTick>
 800168c:	4602      	mov	r2, r0
 800168e:	693b      	ldr	r3, [r7, #16]
 8001690:	1ad3      	subs	r3, r2, r3
 8001692:	2b02      	cmp	r3, #2
 8001694:	d901      	bls.n	800169a <HAL_RCC_OscConfig+0x42e>
          {
            return HAL_TIMEOUT;
 8001696:	2303      	movs	r3, #3
 8001698:	e056      	b.n	8001748 <HAL_RCC_OscConfig+0x4dc>
        while(__HAL_RCC_GET_FLAG(RCC_FLAG_PLLRDY) == RESET)
 800169a:	4b2e      	ldr	r3, [pc, #184]	; (8001754 <HAL_RCC_OscConfig+0x4e8>)
 800169c:	681b      	ldr	r3, [r3, #0]
 800169e:	f003 7300 	and.w	r3, r3, #33554432	; 0x2000000
 80016a2:	2b00      	cmp	r3, #0
 80016a4:	d0f0      	beq.n	8001688 <HAL_RCC_OscConfig+0x41c>
 80016a6:	e04e      	b.n	8001746 <HAL_RCC_OscConfig+0x4da>
        }
      }
      else
      {
        /* Disable the main PLL. */
        __HAL_RCC_PLL_DISABLE();
 80016a8:	4b2b      	ldr	r3, [pc, #172]	; (8001758 <HAL_RCC_OscConfig+0x4ec>)
 80016aa:	2200      	movs	r2, #0
 80016ac:	601a      	str	r2, [r3, #0]

        /* Get Start Tick */
        tickstart = HAL_GetTick();
 80016ae:	f7ff fb39 	bl	8000d24 <HAL_GetTick>
 80016b2:	6138      	str	r0, [r7, #16]

        /* Wait till PLL is ready */
        while(__HAL_RCC_GET_FLAG(RCC_FLAG_PLLRDY) != RESET)
 80016b4:	e008      	b.n	80016c8 <HAL_RCC_OscConfig+0x45c>
        {
          if((HAL_GetTick() - tickstart ) > PLL_TIMEOUT_VALUE)
 80016b6:	f7ff fb35 	bl	8000d24 <HAL_GetTick>
 80016ba:	4602      	mov	r2, r0
 80016bc:	693b      	ldr	r3, [r7, #16]
 80016be:	1ad3      	subs	r3, r2, r3
 80016c0:	2b02      	cmp	r3, #2
 80016c2:	d901      	bls.n	80016c8 <HAL_RCC_OscConfig+0x45c>
          {
            return HAL_TIMEOUT;
 80016c4:	2303      	movs	r3, #3
 80016c6:	e03f      	b.n	8001748 <HAL_RCC_OscConfig+0x4dc>
        while(__HAL_RCC_GET_FLAG(RCC_FLAG_PLLRDY) != RESET)
 80016c8:	4b22      	ldr	r3, [pc, #136]	; (8001754 <HAL_RCC_OscConfig+0x4e8>)
 80016ca:	681b      	ldr	r3, [r3, #0]
 80016cc:	f003 7300 	and.w	r3, r3, #33554432	; 0x2000000
 80016d0:	2b00      	cmp	r3, #0
 80016d2:	d1f0      	bne.n	80016b6 <HAL_RCC_OscConfig+0x44a>
 80016d4:	e037      	b.n	8001746 <HAL_RCC_OscConfig+0x4da>
      }
    }
    else
    {
      /* Check if there is a request to disable the PLL used as System clock source */
      if((RCC_OscInitStruct->PLL.PLLState) == RCC_PLL_OFF)
 80016d6:	687b      	ldr	r3, [r7, #4]
 80016d8:	699b      	ldr	r3, [r3, #24]
 80016da:	2b01      	cmp	r3, #1
 80016dc:	d101      	bne.n	80016e2 <HAL_RCC_OscConfig+0x476>
      {
        return HAL_ERROR;
 80016de:	2301      	movs	r3, #1
 80016e0:	e032      	b.n	8001748 <HAL_RCC_OscConfig+0x4dc>
      }
      else
      {
        /* Do not return HAL_ERROR if request repeats the current configuration */
        pll_config = RCC->PLLCFGR;
 80016e2:	4b1c      	ldr	r3, [pc, #112]	; (8001754 <HAL_RCC_OscConfig+0x4e8>)
 80016e4:	685b      	ldr	r3, [r3, #4]
 80016e6:	60fb      	str	r3, [r7, #12]
            (READ_BIT(pll_config, RCC_PLLCFGR_PLLN) != (RCC_OscInitStruct->PLL.PLLN) << RCC_PLLCFGR_PLLN_Pos) ||
            (READ_BIT(pll_config, RCC_PLLCFGR_PLLP) != (((RCC_OscInitStruct->PLL.PLLP >> 1U) - 1U)) << RCC_PLLCFGR_PLLP_Pos) ||
            (READ_BIT(pll_config, RCC_PLLCFGR_PLLQ) != (RCC_OscInitStruct->PLL.PLLQ << RCC_PLLCFGR_PLLQ_Pos)) ||
            (READ_BIT(pll_config, RCC_PLLCFGR_PLLR) != (RCC_OscInitStruct->PLL.PLLR << RCC_PLLCFGR_PLLR_Pos)))
#else
        if (((RCC_OscInitStruct->PLL.PLLState) == RCC_PLL_OFF) ||
 80016e8:	687b      	ldr	r3, [r7, #4]
 80016ea:	699b      	ldr	r3, [r3, #24]
 80016ec:	2b01      	cmp	r3, #1
 80016ee:	d028      	beq.n	8001742 <HAL_RCC_OscConfig+0x4d6>
            (READ_BIT(pll_config, RCC_PLLCFGR_PLLSRC) != RCC_OscInitStruct->PLL.PLLSource) ||
 80016f0:	68fb      	ldr	r3, [r7, #12]
 80016f2:	f403 0280 	and.w	r2, r3, #4194304	; 0x400000
 80016f6:	687b      	ldr	r3, [r7, #4]
 80016f8:	69db      	ldr	r3, [r3, #28]
        if (((RCC_OscInitStruct->PLL.PLLState) == RCC_PLL_OFF) ||
 80016fa:	429a      	cmp	r2, r3
 80016fc:	d121      	bne.n	8001742 <HAL_RCC_OscConfig+0x4d6>
            (READ_BIT(pll_config, RCC_PLLCFGR_PLLM) != (RCC_OscInitStruct->PLL.PLLM) << RCC_PLLCFGR_PLLM_Pos) ||
 80016fe:	68fb      	ldr	r3, [r7, #12]
 8001700:	f003 023f 	and.w	r2, r3, #63	; 0x3f
 8001704:	687b      	ldr	r3, [r7, #4]
 8001706:	6a1b      	ldr	r3, [r3, #32]
            (READ_BIT(pll_config, RCC_PLLCFGR_PLLSRC) != RCC_OscInitStruct->PLL.PLLSource) ||
 8001708:	429a      	cmp	r2, r3
 800170a:	d11a      	bne.n	8001742 <HAL_RCC_OscConfig+0x4d6>
            (READ_BIT(pll_config, RCC_PLLCFGR_PLLN) != (RCC_OscInitStruct->PLL.PLLN) << RCC_PLLCFGR_PLLN_Pos) ||
 800170c:	68fa      	ldr	r2, [r7, #12]
 800170e:	f647 73c0 	movw	r3, #32704	; 0x7fc0
 8001712:	4013      	ands	r3, r2
 8001714:	687a      	ldr	r2, [r7, #4]
 8001716:	6a52      	ldr	r2, [r2, #36]	; 0x24
 8001718:	0192      	lsls	r2, r2, #6
            (READ_BIT(pll_config, RCC_PLLCFGR_PLLM) != (RCC_OscInitStruct->PLL.PLLM) << RCC_PLLCFGR_PLLM_Pos) ||
 800171a:	4293      	cmp	r3, r2
 800171c:	d111      	bne.n	8001742 <HAL_RCC_OscConfig+0x4d6>
            (READ_BIT(pll_config, RCC_PLLCFGR_PLLP) != (((RCC_OscInitStruct->PLL.PLLP >> 1U) - 1U)) << RCC_PLLCFGR_PLLP_Pos) ||
 800171e:	68fb      	ldr	r3, [r7, #12]
 8001720:	f403 3240 	and.w	r2, r3, #196608	; 0x30000
 8001724:	687b      	ldr	r3, [r7, #4]
 8001726:	6a9b      	ldr	r3, [r3, #40]	; 0x28
 8001728:	085b      	lsrs	r3, r3, #1
 800172a:	3b01      	subs	r3, #1
 800172c:	041b      	lsls	r3, r3, #16
            (READ_BIT(pll_config, RCC_PLLCFGR_PLLN) != (RCC_OscInitStruct->PLL.PLLN) << RCC_PLLCFGR_PLLN_Pos) ||
 800172e:	429a      	cmp	r2, r3
 8001730:	d107      	bne.n	8001742 <HAL_RCC_OscConfig+0x4d6>
            (READ_BIT(pll_config, RCC_PLLCFGR_PLLQ) != (RCC_OscInitStruct->PLL.PLLQ << RCC_PLLCFGR_PLLQ_Pos)))
 8001732:	68fb      	ldr	r3, [r7, #12]
 8001734:	f003 6270 	and.w	r2, r3, #251658240	; 0xf000000
 8001738:	687b      	ldr	r3, [r7, #4]
 800173a:	6adb      	ldr	r3, [r3, #44]	; 0x2c
 800173c:	061b      	lsls	r3, r3, #24
            (READ_BIT(pll_config, RCC_PLLCFGR_PLLP) != (((RCC_OscInitStruct->PLL.PLLP >> 1U) - 1U)) << RCC_PLLCFGR_PLLP_Pos) ||
 800173e:	429a      	cmp	r2, r3
 8001740:	d001      	beq.n	8001746 <HAL_RCC_OscConfig+0x4da>
#endif
        {
          return HAL_ERROR;
 8001742:	2301      	movs	r3, #1
 8001744:	e000      	b.n	8001748 <HAL_RCC_OscConfig+0x4dc>
        }
      }
    }
  }
  return HAL_OK;
 8001746:	2300      	movs	r3, #0
}
 8001748:	4618      	mov	r0, r3
 800174a:	3718      	adds	r7, #24
 800174c:	46bd      	mov	sp, r7
 800174e:	bd80      	pop	{r7, pc}
 8001750:	40007000 	.word	0x40007000
 8001754:	40023800 	.word	0x40023800
 8001758:	42470060 	.word	0x42470060

0800175c <HAL_RCC_ClockConfig>:
  *         HPRE[3:0] bits to ensure that HCLK not exceed the maximum allowed frequency
  *         (for more details refer to section above "Initialization/de-initialization functions")
  * @retval None
  */
HAL_StatusTypeDef HAL_RCC_ClockConfig(RCC_ClkInitTypeDef  *RCC_ClkInitStruct, uint32_t FLatency)
{
 800175c:	b580      	push	{r7, lr}
 800175e:	b084      	sub	sp, #16
 8001760:	af00      	add	r7, sp, #0
 8001762:	6078      	str	r0, [r7, #4]
 8001764:	6039      	str	r1, [r7, #0]
  uint32_t tickstart;

  /* Check Null pointer */
  if(RCC_ClkInitStruct == NULL)
 8001766:	687b      	ldr	r3, [r7, #4]
 8001768:	2b00      	cmp	r3, #0
 800176a:	d101      	bne.n	8001770 <HAL_RCC_ClockConfig+0x14>
  {
    return HAL_ERROR;
 800176c:	2301      	movs	r3, #1
 800176e:	e0cc      	b.n	800190a <HAL_RCC_ClockConfig+0x1ae>
  /* To correctly read data from FLASH memory, the number of wait states (LATENCY)
    must be correctly programmed according to the frequency of the CPU clock
    (HCLK) and the supply voltage of the device. */

  /* Increasing the number of wait states because of higher CPU frequency */
  if(FLatency > __HAL_FLASH_GET_LATENCY())
 8001770:	4b68      	ldr	r3, [pc, #416]	; (8001914 <HAL_RCC_ClockConfig+0x1b8>)
 8001772:	681b      	ldr	r3, [r3, #0]
 8001774:	f003 0307 	and.w	r3, r3, #7
 8001778:	683a      	ldr	r2, [r7, #0]
 800177a:	429a      	cmp	r2, r3
 800177c:	d90c      	bls.n	8001798 <HAL_RCC_ClockConfig+0x3c>
  {
    /* Program the new number of wait states to the LATENCY bits in the FLASH_ACR register */
    __HAL_FLASH_SET_LATENCY(FLatency);
 800177e:	4b65      	ldr	r3, [pc, #404]	; (8001914 <HAL_RCC_ClockConfig+0x1b8>)
 8001780:	683a      	ldr	r2, [r7, #0]
 8001782:	b2d2      	uxtb	r2, r2
 8001784:	701a      	strb	r2, [r3, #0]

    /* Check that the new number of wait states is taken into account to access the Flash
    memory by reading the FLASH_ACR register */
    if(__HAL_FLASH_GET_LATENCY() != FLatency)
 8001786:	4b63      	ldr	r3, [pc, #396]	; (8001914 <HAL_RCC_ClockConfig+0x1b8>)
 8001788:	681b      	ldr	r3, [r3, #0]
 800178a:	f003 0307 	and.w	r3, r3, #7
 800178e:	683a      	ldr	r2, [r7, #0]
 8001790:	429a      	cmp	r2, r3
 8001792:	d001      	beq.n	8001798 <HAL_RCC_ClockConfig+0x3c>
    {
      return HAL_ERROR;
 8001794:	2301      	movs	r3, #1
 8001796:	e0b8      	b.n	800190a <HAL_RCC_ClockConfig+0x1ae>
    }
  }

  /*-------------------------- HCLK Configuration --------------------------*/
  if(((RCC_ClkInitStruct->ClockType) & RCC_CLOCKTYPE_HCLK) == RCC_CLOCKTYPE_HCLK)
 8001798:	687b      	ldr	r3, [r7, #4]
 800179a:	681b      	ldr	r3, [r3, #0]
 800179c:	f003 0302 	and.w	r3, r3, #2
 80017a0:	2b00      	cmp	r3, #0
 80017a2:	d020      	beq.n	80017e6 <HAL_RCC_ClockConfig+0x8a>
  {
    /* Set the highest APBx dividers in order to ensure that we do not go through
       a non-spec phase whatever we decrease or increase HCLK. */
    if(((RCC_ClkInitStruct->ClockType) & RCC_CLOCKTYPE_PCLK1) == RCC_CLOCKTYPE_PCLK1)
 80017a4:	687b      	ldr	r3, [r7, #4]
 80017a6:	681b      	ldr	r3, [r3, #0]
 80017a8:	f003 0304 	and.w	r3, r3, #4
 80017ac:	2b00      	cmp	r3, #0
 80017ae:	d005      	beq.n	80017bc <HAL_RCC_ClockConfig+0x60>
    {
      MODIFY_REG(RCC->CFGR, RCC_CFGR_PPRE1, RCC_HCLK_DIV16);
 80017b0:	4b59      	ldr	r3, [pc, #356]	; (8001918 <HAL_RCC_ClockConfig+0x1bc>)
 80017b2:	689b      	ldr	r3, [r3, #8]
 80017b4:	4a58      	ldr	r2, [pc, #352]	; (8001918 <HAL_RCC_ClockConfig+0x1bc>)
 80017b6:	f443 53e0 	orr.w	r3, r3, #7168	; 0x1c00
 80017ba:	6093      	str	r3, [r2, #8]
    }

    if(((RCC_ClkInitStruct->ClockType) & RCC_CLOCKTYPE_PCLK2) == RCC_CLOCKTYPE_PCLK2)
 80017bc:	687b      	ldr	r3, [r7, #4]
 80017be:	681b      	ldr	r3, [r3, #0]
 80017c0:	f003 0308 	and.w	r3, r3, #8
 80017c4:	2b00      	cmp	r3, #0
 80017c6:	d005      	beq.n	80017d4 <HAL_RCC_ClockConfig+0x78>
    {
      MODIFY_REG(RCC->CFGR, RCC_CFGR_PPRE2, (RCC_HCLK_DIV16 << 3));
 80017c8:	4b53      	ldr	r3, [pc, #332]	; (8001918 <HAL_RCC_ClockConfig+0x1bc>)
 80017ca:	689b      	ldr	r3, [r3, #8]
 80017cc:	4a52      	ldr	r2, [pc, #328]	; (8001918 <HAL_RCC_ClockConfig+0x1bc>)
 80017ce:	f443 4360 	orr.w	r3, r3, #57344	; 0xe000
 80017d2:	6093      	str	r3, [r2, #8]
    }

    assert_param(IS_RCC_HCLK(RCC_ClkInitStruct->AHBCLKDivider));
    MODIFY_REG(RCC->CFGR, RCC_CFGR_HPRE, RCC_ClkInitStruct->AHBCLKDivider);
 80017d4:	4b50      	ldr	r3, [pc, #320]	; (8001918 <HAL_RCC_ClockConfig+0x1bc>)
 80017d6:	689b      	ldr	r3, [r3, #8]
 80017d8:	f023 02f0 	bic.w	r2, r3, #240	; 0xf0
 80017dc:	687b      	ldr	r3, [r7, #4]
 80017de:	689b      	ldr	r3, [r3, #8]
 80017e0:	494d      	ldr	r1, [pc, #308]	; (8001918 <HAL_RCC_ClockConfig+0x1bc>)
 80017e2:	4313      	orrs	r3, r2
 80017e4:	608b      	str	r3, [r1, #8]
  }

  /*------------------------- SYSCLK Configuration ---------------------------*/
  if(((RCC_ClkInitStruct->ClockType) & RCC_CLOCKTYPE_SYSCLK) == RCC_CLOCKTYPE_SYSCLK)
 80017e6:	687b      	ldr	r3, [r7, #4]
 80017e8:	681b      	ldr	r3, [r3, #0]
 80017ea:	f003 0301 	and.w	r3, r3, #1
 80017ee:	2b00      	cmp	r3, #0
 80017f0:	d044      	beq.n	800187c <HAL_RCC_ClockConfig+0x120>
  {
    assert_param(IS_RCC_SYSCLKSOURCE(RCC_ClkInitStruct->SYSCLKSource));

    /* HSE is selected as System Clock Source */
    if(RCC_ClkInitStruct->SYSCLKSource == RCC_SYSCLKSOURCE_HSE)
 80017f2:	687b      	ldr	r3, [r7, #4]
 80017f4:	685b      	ldr	r3, [r3, #4]
 80017f6:	2b01      	cmp	r3, #1
 80017f8:	d107      	bne.n	800180a <HAL_RCC_ClockConfig+0xae>
    {
      /* Check the HSE ready flag */
      if(__HAL_RCC_GET_FLAG(RCC_FLAG_HSERDY) == RESET)
 80017fa:	4b47      	ldr	r3, [pc, #284]	; (8001918 <HAL_RCC_ClockConfig+0x1bc>)
 80017fc:	681b      	ldr	r3, [r3, #0]
 80017fe:	f403 3300 	and.w	r3, r3, #131072	; 0x20000
 8001802:	2b00      	cmp	r3, #0
 8001804:	d119      	bne.n	800183a <HAL_RCC_ClockConfig+0xde>
      {
        return HAL_ERROR;
 8001806:	2301      	movs	r3, #1
 8001808:	e07f      	b.n	800190a <HAL_RCC_ClockConfig+0x1ae>
      }
    }
    /* PLL is selected as System Clock Source */
    else if((RCC_ClkInitStruct->SYSCLKSource == RCC_SYSCLKSOURCE_PLLCLK)   ||
 800180a:	687b      	ldr	r3, [r7, #4]
 800180c:	685b      	ldr	r3, [r3, #4]
 800180e:	2b02      	cmp	r3, #2
 8001810:	d003      	beq.n	800181a <HAL_RCC_ClockConfig+0xbe>
            (RCC_ClkInitStruct->SYSCLKSource == RCC_SYSCLKSOURCE_PLLRCLK))
 8001812:	687b      	ldr	r3, [r7, #4]
 8001814:	685b      	ldr	r3, [r3, #4]
    else if((RCC_ClkInitStruct->SYSCLKSource == RCC_SYSCLKSOURCE_PLLCLK)   ||
 8001816:	2b03      	cmp	r3, #3
 8001818:	d107      	bne.n	800182a <HAL_RCC_ClockConfig+0xce>
    {
      /* Check the PLL ready flag */
      if(__HAL_RCC_GET_FLAG(RCC_FLAG_PLLRDY) == RESET)
 800181a:	4b3f      	ldr	r3, [pc, #252]	; (8001918 <HAL_RCC_ClockConfig+0x1bc>)
 800181c:	681b      	ldr	r3, [r3, #0]
 800181e:	f003 7300 	and.w	r3, r3, #33554432	; 0x2000000
 8001822:	2b00      	cmp	r3, #0
 8001824:	d109      	bne.n	800183a <HAL_RCC_ClockConfig+0xde>
      {
        return HAL_ERROR;
 8001826:	2301      	movs	r3, #1
 8001828:	e06f      	b.n	800190a <HAL_RCC_ClockConfig+0x1ae>
    }
    /* HSI is selected as System Clock Source */
    else
    {
      /* Check the HSI ready flag */
      if(__HAL_RCC_GET_FLAG(RCC_FLAG_HSIRDY) == RESET)
 800182a:	4b3b      	ldr	r3, [pc, #236]	; (8001918 <HAL_RCC_ClockConfig+0x1bc>)
 800182c:	681b      	ldr	r3, [r3, #0]
 800182e:	f003 0302 	and.w	r3, r3, #2
 8001832:	2b00      	cmp	r3, #0
 8001834:	d101      	bne.n	800183a <HAL_RCC_ClockConfig+0xde>
      {
        return HAL_ERROR;
 8001836:	2301      	movs	r3, #1
 8001838:	e067      	b.n	800190a <HAL_RCC_ClockConfig+0x1ae>
      }
    }

    __HAL_RCC_SYSCLK_CONFIG(RCC_ClkInitStruct->SYSCLKSource);
 800183a:	4b37      	ldr	r3, [pc, #220]	; (8001918 <HAL_RCC_ClockConfig+0x1bc>)
 800183c:	689b      	ldr	r3, [r3, #8]
 800183e:	f023 0203 	bic.w	r2, r3, #3
 8001842:	687b      	ldr	r3, [r7, #4]
 8001844:	685b      	ldr	r3, [r3, #4]
 8001846:	4934      	ldr	r1, [pc, #208]	; (8001918 <HAL_RCC_ClockConfig+0x1bc>)
 8001848:	4313      	orrs	r3, r2
 800184a:	608b      	str	r3, [r1, #8]

    /* Get Start Tick */
    tickstart = HAL_GetTick();
 800184c:	f7ff fa6a 	bl	8000d24 <HAL_GetTick>
 8001850:	60f8      	str	r0, [r7, #12]

    while (__HAL_RCC_GET_SYSCLK_SOURCE() != (RCC_ClkInitStruct->SYSCLKSource << RCC_CFGR_SWS_Pos))
 8001852:	e00a      	b.n	800186a <HAL_RCC_ClockConfig+0x10e>
    {
      if ((HAL_GetTick() - tickstart) > CLOCKSWITCH_TIMEOUT_VALUE)
 8001854:	f7ff fa66 	bl	8000d24 <HAL_GetTick>
 8001858:	4602      	mov	r2, r0
 800185a:	68fb      	ldr	r3, [r7, #12]
 800185c:	1ad3      	subs	r3, r2, r3
 800185e:	f241 3288 	movw	r2, #5000	; 0x1388
 8001862:	4293      	cmp	r3, r2
 8001864:	d901      	bls.n	800186a <HAL_RCC_ClockConfig+0x10e>
      {
        return HAL_TIMEOUT;
 8001866:	2303      	movs	r3, #3
 8001868:	e04f      	b.n	800190a <HAL_RCC_ClockConfig+0x1ae>
    while (__HAL_RCC_GET_SYSCLK_SOURCE() != (RCC_ClkInitStruct->SYSCLKSource << RCC_CFGR_SWS_Pos))
 800186a:	4b2b      	ldr	r3, [pc, #172]	; (8001918 <HAL_RCC_ClockConfig+0x1bc>)
 800186c:	689b      	ldr	r3, [r3, #8]
 800186e:	f003 020c 	and.w	r2, r3, #12
 8001872:	687b      	ldr	r3, [r7, #4]
 8001874:	685b      	ldr	r3, [r3, #4]
 8001876:	009b      	lsls	r3, r3, #2
 8001878:	429a      	cmp	r2, r3
 800187a:	d1eb      	bne.n	8001854 <HAL_RCC_ClockConfig+0xf8>
      }
    }
  }

  /* Decreasing the number of wait states because of lower CPU frequency */
  if(FLatency < __HAL_FLASH_GET_LATENCY())
 800187c:	4b25      	ldr	r3, [pc, #148]	; (8001914 <HAL_RCC_ClockConfig+0x1b8>)
 800187e:	681b      	ldr	r3, [r3, #0]
 8001880:	f003 0307 	and.w	r3, r3, #7
 8001884:	683a      	ldr	r2, [r7, #0]
 8001886:	429a      	cmp	r2, r3
 8001888:	d20c      	bcs.n	80018a4 <HAL_RCC_ClockConfig+0x148>
  {
     /* Program the new number of wait states to the LATENCY bits in the FLASH_ACR register */
    __HAL_FLASH_SET_LATENCY(FLatency);
 800188a:	4b22      	ldr	r3, [pc, #136]	; (8001914 <HAL_RCC_ClockConfig+0x1b8>)
 800188c:	683a      	ldr	r2, [r7, #0]
 800188e:	b2d2      	uxtb	r2, r2
 8001890:	701a      	strb	r2, [r3, #0]

    /* Check that the new number of wait states is taken into account to access the Flash
    memory by reading the FLASH_ACR register */
    if(__HAL_FLASH_GET_LATENCY() != FLatency)
 8001892:	4b20      	ldr	r3, [pc, #128]	; (8001914 <HAL_RCC_ClockConfig+0x1b8>)
 8001894:	681b      	ldr	r3, [r3, #0]
 8001896:	f003 0307 	and.w	r3, r3, #7
 800189a:	683a      	ldr	r2, [r7, #0]
 800189c:	429a      	cmp	r2, r3
 800189e:	d001      	beq.n	80018a4 <HAL_RCC_ClockConfig+0x148>
    {
      return HAL_ERROR;
 80018a0:	2301      	movs	r3, #1
 80018a2:	e032      	b.n	800190a <HAL_RCC_ClockConfig+0x1ae>
    }
  }

  /*-------------------------- PCLK1 Configuration ---------------------------*/
  if(((RCC_ClkInitStruct->ClockType) & RCC_CLOCKTYPE_PCLK1) == RCC_CLOCKTYPE_PCLK1)
 80018a4:	687b      	ldr	r3, [r7, #4]
 80018a6:	681b      	ldr	r3, [r3, #0]
 80018a8:	f003 0304 	and.w	r3, r3, #4
 80018ac:	2b00      	cmp	r3, #0
 80018ae:	d008      	beq.n	80018c2 <HAL_RCC_ClockConfig+0x166>
  {
    assert_param(IS_RCC_PCLK(RCC_ClkInitStruct->APB1CLKDivider));
    MODIFY_REG(RCC->CFGR, RCC_CFGR_PPRE1, RCC_ClkInitStruct->APB1CLKDivider);
 80018b0:	4b19      	ldr	r3, [pc, #100]	; (8001918 <HAL_RCC_ClockConfig+0x1bc>)
 80018b2:	689b      	ldr	r3, [r3, #8]
 80018b4:	f423 52e0 	bic.w	r2, r3, #7168	; 0x1c00
 80018b8:	687b      	ldr	r3, [r7, #4]
 80018ba:	68db      	ldr	r3, [r3, #12]
 80018bc:	4916      	ldr	r1, [pc, #88]	; (8001918 <HAL_RCC_ClockConfig+0x1bc>)
 80018be:	4313      	orrs	r3, r2
 80018c0:	608b      	str	r3, [r1, #8]
  }

  /*-------------------------- PCLK2 Configuration ---------------------------*/
  if(((RCC_ClkInitStruct->ClockType) & RCC_CLOCKTYPE_PCLK2) == RCC_CLOCKTYPE_PCLK2)
 80018c2:	687b      	ldr	r3, [r7, #4]
 80018c4:	681b      	ldr	r3, [r3, #0]
 80018c6:	f003 0308 	and.w	r3, r3, #8
 80018ca:	2b00      	cmp	r3, #0
 80018cc:	d009      	beq.n	80018e2 <HAL_RCC_ClockConfig+0x186>
  {
    assert_param(IS_RCC_PCLK(RCC_ClkInitStruct->APB2CLKDivider));
    MODIFY_REG(RCC->CFGR, RCC_CFGR_PPRE2, ((RCC_ClkInitStruct->APB2CLKDivider) << 3U));
 80018ce:	4b12      	ldr	r3, [pc, #72]	; (8001918 <HAL_RCC_ClockConfig+0x1bc>)
 80018d0:	689b      	ldr	r3, [r3, #8]
 80018d2:	f423 4260 	bic.w	r2, r3, #57344	; 0xe000
 80018d6:	687b      	ldr	r3, [r7, #4]
 80018d8:	691b      	ldr	r3, [r3, #16]
 80018da:	00db      	lsls	r3, r3, #3
 80018dc:	490e      	ldr	r1, [pc, #56]	; (8001918 <HAL_RCC_ClockConfig+0x1bc>)
 80018de:	4313      	orrs	r3, r2
 80018e0:	608b      	str	r3, [r1, #8]
  }

  /* Update the SystemCoreClock global variable */
  SystemCoreClock = HAL_RCC_GetSysClockFreq() >> AHBPrescTable[(RCC->CFGR & RCC_CFGR_HPRE)>> RCC_CFGR_HPRE_Pos];
 80018e2:	f000 f821 	bl	8001928 <HAL_RCC_GetSysClockFreq>
 80018e6:	4602      	mov	r2, r0
 80018e8:	4b0b      	ldr	r3, [pc, #44]	; (8001918 <HAL_RCC_ClockConfig+0x1bc>)
 80018ea:	689b      	ldr	r3, [r3, #8]
 80018ec:	091b      	lsrs	r3, r3, #4
 80018ee:	f003 030f 	and.w	r3, r3, #15
 80018f2:	490a      	ldr	r1, [pc, #40]	; (800191c <HAL_RCC_ClockConfig+0x1c0>)
 80018f4:	5ccb      	ldrb	r3, [r1, r3]
 80018f6:	fa22 f303 	lsr.w	r3, r2, r3
 80018fa:	4a09      	ldr	r2, [pc, #36]	; (8001920 <HAL_RCC_ClockConfig+0x1c4>)
 80018fc:	6013      	str	r3, [r2, #0]

  /* Configure the source of time base considering new system clocks settings */
  HAL_InitTick (uwTickPrio);
 80018fe:	4b09      	ldr	r3, [pc, #36]	; (8001924 <HAL_RCC_ClockConfig+0x1c8>)
 8001900:	681b      	ldr	r3, [r3, #0]
 8001902:	4618      	mov	r0, r3
 8001904:	f7ff f8f8 	bl	8000af8 <HAL_InitTick>

  return HAL_OK;
 8001908:	2300      	movs	r3, #0
}
 800190a:	4618      	mov	r0, r3
 800190c:	3710      	adds	r7, #16
 800190e:	46bd      	mov	sp, r7
 8001910:	bd80      	pop	{r7, pc}
 8001912:	bf00      	nop
 8001914:	40023c00 	.word	0x40023c00
 8001918:	40023800 	.word	0x40023800
 800191c:	08003160 	.word	0x08003160
 8001920:	20000000 	.word	0x20000000
 8001924:	20000004 	.word	0x20000004

08001928 <HAL_RCC_GetSysClockFreq>:
  *
  *
  * @retval SYSCLK frequency
  */
__weak uint32_t HAL_RCC_GetSysClockFreq(void)
{
 8001928:	e92d 43b0 	stmdb	sp!, {r4, r5, r7, r8, r9, lr}
 800192c:	b084      	sub	sp, #16
 800192e:	af00      	add	r7, sp, #0
  uint32_t pllm = 0U, pllvco = 0U, pllp = 0U;
 8001930:	2300      	movs	r3, #0
 8001932:	607b      	str	r3, [r7, #4]
 8001934:	2300      	movs	r3, #0
 8001936:	60fb      	str	r3, [r7, #12]
 8001938:	2300      	movs	r3, #0
 800193a:	603b      	str	r3, [r7, #0]
  uint32_t sysclockfreq = 0U;
 800193c:	2300      	movs	r3, #0
 800193e:	60bb      	str	r3, [r7, #8]

  /* Get SYSCLK source -------------------------------------------------------*/
  switch (RCC->CFGR & RCC_CFGR_SWS)
 8001940:	4b67      	ldr	r3, [pc, #412]	; (8001ae0 <HAL_RCC_GetSysClockFreq+0x1b8>)
 8001942:	689b      	ldr	r3, [r3, #8]
 8001944:	f003 030c 	and.w	r3, r3, #12
 8001948:	2b08      	cmp	r3, #8
 800194a:	d00d      	beq.n	8001968 <HAL_RCC_GetSysClockFreq+0x40>
 800194c:	2b08      	cmp	r3, #8
 800194e:	f200 80bd 	bhi.w	8001acc <HAL_RCC_GetSysClockFreq+0x1a4>
 8001952:	2b00      	cmp	r3, #0
 8001954:	d002      	beq.n	800195c <HAL_RCC_GetSysClockFreq+0x34>
 8001956:	2b04      	cmp	r3, #4
 8001958:	d003      	beq.n	8001962 <HAL_RCC_GetSysClockFreq+0x3a>
 800195a:	e0b7      	b.n	8001acc <HAL_RCC_GetSysClockFreq+0x1a4>
  {
    case RCC_CFGR_SWS_HSI:  /* HSI used as system clock source */
    {
      sysclockfreq = HSI_VALUE;
 800195c:	4b61      	ldr	r3, [pc, #388]	; (8001ae4 <HAL_RCC_GetSysClockFreq+0x1bc>)
 800195e:	60bb      	str	r3, [r7, #8]
       break;
 8001960:	e0b7      	b.n	8001ad2 <HAL_RCC_GetSysClockFreq+0x1aa>
    }
    case RCC_CFGR_SWS_HSE:  /* HSE used as system clock  source */
    {
      sysclockfreq = HSE_VALUE;
 8001962:	4b61      	ldr	r3, [pc, #388]	; (8001ae8 <HAL_RCC_GetSysClockFreq+0x1c0>)
 8001964:	60bb      	str	r3, [r7, #8]
      break;
 8001966:	e0b4      	b.n	8001ad2 <HAL_RCC_GetSysClockFreq+0x1aa>
    }
    case RCC_CFGR_SWS_PLL:  /* PLL used as system clock  source */
    {
      /* PLL_VCO = (HSE_VALUE or HSI_VALUE / PLLM) * PLLN
      SYSCLK = PLL_VCO / PLLP */
      pllm = RCC->PLLCFGR & RCC_PLLCFGR_PLLM;
 8001968:	4b5d      	ldr	r3, [pc, #372]	; (8001ae0 <HAL_RCC_GetSysClockFreq+0x1b8>)
 800196a:	685b      	ldr	r3, [r3, #4]
 800196c:	f003 033f 	and.w	r3, r3, #63	; 0x3f
 8001970:	607b      	str	r3, [r7, #4]
      if(__HAL_RCC_GET_PLL_OSCSOURCE() != RCC_PLLSOURCE_HSI)
 8001972:	4b5b      	ldr	r3, [pc, #364]	; (8001ae0 <HAL_RCC_GetSysClockFreq+0x1b8>)
 8001974:	685b      	ldr	r3, [r3, #4]
 8001976:	f403 0380 	and.w	r3, r3, #4194304	; 0x400000
 800197a:	2b00      	cmp	r3, #0
 800197c:	d04d      	beq.n	8001a1a <HAL_RCC_GetSysClockFreq+0xf2>
      {
        /* HSE used as PLL clock source */
        pllvco = (uint32_t) ((((uint64_t) HSE_VALUE * ((uint64_t) ((RCC->PLLCFGR & RCC_PLLCFGR_PLLN) >> RCC_PLLCFGR_PLLN_Pos)))) / (uint64_t)pllm);
 800197e:	4b58      	ldr	r3, [pc, #352]	; (8001ae0 <HAL_RCC_GetSysClockFreq+0x1b8>)
 8001980:	685b      	ldr	r3, [r3, #4]
 8001982:	099b      	lsrs	r3, r3, #6
 8001984:	461a      	mov	r2, r3
 8001986:	f04f 0300 	mov.w	r3, #0
 800198a:	f240 10ff 	movw	r0, #511	; 0x1ff
 800198e:	f04f 0100 	mov.w	r1, #0
 8001992:	ea02 0800 	and.w	r8, r2, r0
 8001996:	ea03 0901 	and.w	r9, r3, r1
 800199a:	4640      	mov	r0, r8
 800199c:	4649      	mov	r1, r9
 800199e:	f04f 0200 	mov.w	r2, #0
 80019a2:	f04f 0300 	mov.w	r3, #0
 80019a6:	014b      	lsls	r3, r1, #5
 80019a8:	ea43 63d0 	orr.w	r3, r3, r0, lsr #27
 80019ac:	0142      	lsls	r2, r0, #5
 80019ae:	4610      	mov	r0, r2
 80019b0:	4619      	mov	r1, r3
 80019b2:	ebb0 0008 	subs.w	r0, r0, r8
 80019b6:	eb61 0109 	sbc.w	r1, r1, r9
 80019ba:	f04f 0200 	mov.w	r2, #0
 80019be:	f04f 0300 	mov.w	r3, #0
 80019c2:	018b      	lsls	r3, r1, #6
 80019c4:	ea43 6390 	orr.w	r3, r3, r0, lsr #26
 80019c8:	0182      	lsls	r2, r0, #6
 80019ca:	1a12      	subs	r2, r2, r0
 80019cc:	eb63 0301 	sbc.w	r3, r3, r1
 80019d0:	f04f 0000 	mov.w	r0, #0
 80019d4:	f04f 0100 	mov.w	r1, #0
 80019d8:	00d9      	lsls	r1, r3, #3
 80019da:	ea41 7152 	orr.w	r1, r1, r2, lsr #29
 80019de:	00d0      	lsls	r0, r2, #3
 80019e0:	4602      	mov	r2, r0
 80019e2:	460b      	mov	r3, r1
 80019e4:	eb12 0208 	adds.w	r2, r2, r8
 80019e8:	eb43 0309 	adc.w	r3, r3, r9
 80019ec:	f04f 0000 	mov.w	r0, #0
 80019f0:	f04f 0100 	mov.w	r1, #0
 80019f4:	0259      	lsls	r1, r3, #9
 80019f6:	ea41 51d2 	orr.w	r1, r1, r2, lsr #23
 80019fa:	0250      	lsls	r0, r2, #9
 80019fc:	4602      	mov	r2, r0
 80019fe:	460b      	mov	r3, r1
 8001a00:	4610      	mov	r0, r2
 8001a02:	4619      	mov	r1, r3
 8001a04:	687b      	ldr	r3, [r7, #4]
 8001a06:	461a      	mov	r2, r3
 8001a08:	f04f 0300 	mov.w	r3, #0
 8001a0c:	f7fe fbdc 	bl	80001c8 <__aeabi_uldivmod>
 8001a10:	4602      	mov	r2, r0
 8001a12:	460b      	mov	r3, r1
 8001a14:	4613      	mov	r3, r2
 8001a16:	60fb      	str	r3, [r7, #12]
 8001a18:	e04a      	b.n	8001ab0 <HAL_RCC_GetSysClockFreq+0x188>
      }
      else
      {
        /* HSI used as PLL clock source */
        pllvco = (uint32_t) ((((uint64_t) HSI_VALUE * ((uint64_t) ((RCC->PLLCFGR & RCC_PLLCFGR_PLLN) >> RCC_PLLCFGR_PLLN_Pos)))) / (uint64_t)pllm);
 8001a1a:	4b31      	ldr	r3, [pc, #196]	; (8001ae0 <HAL_RCC_GetSysClockFreq+0x1b8>)
 8001a1c:	685b      	ldr	r3, [r3, #4]
 8001a1e:	099b      	lsrs	r3, r3, #6
 8001a20:	461a      	mov	r2, r3
 8001a22:	f04f 0300 	mov.w	r3, #0
 8001a26:	f240 10ff 	movw	r0, #511	; 0x1ff
 8001a2a:	f04f 0100 	mov.w	r1, #0
 8001a2e:	ea02 0400 	and.w	r4, r2, r0
 8001a32:	ea03 0501 	and.w	r5, r3, r1
 8001a36:	4620      	mov	r0, r4
 8001a38:	4629      	mov	r1, r5
 8001a3a:	f04f 0200 	mov.w	r2, #0
 8001a3e:	f04f 0300 	mov.w	r3, #0
 8001a42:	014b      	lsls	r3, r1, #5
 8001a44:	ea43 63d0 	orr.w	r3, r3, r0, lsr #27
 8001a48:	0142      	lsls	r2, r0, #5
 8001a4a:	4610      	mov	r0, r2
 8001a4c:	4619      	mov	r1, r3
 8001a4e:	1b00      	subs	r0, r0, r4
 8001a50:	eb61 0105 	sbc.w	r1, r1, r5
 8001a54:	f04f 0200 	mov.w	r2, #0
 8001a58:	f04f 0300 	mov.w	r3, #0
 8001a5c:	018b      	lsls	r3, r1, #6
 8001a5e:	ea43 6390 	orr.w	r3, r3, r0, lsr #26
 8001a62:	0182      	lsls	r2, r0, #6
 8001a64:	1a12      	subs	r2, r2, r0
 8001a66:	eb63 0301 	sbc.w	r3, r3, r1
 8001a6a:	f04f 0000 	mov.w	r0, #0
 8001a6e:	f04f 0100 	mov.w	r1, #0
 8001a72:	00d9      	lsls	r1, r3, #3
 8001a74:	ea41 7152 	orr.w	r1, r1, r2, lsr #29
 8001a78:	00d0      	lsls	r0, r2, #3
 8001a7a:	4602      	mov	r2, r0
 8001a7c:	460b      	mov	r3, r1
 8001a7e:	1912      	adds	r2, r2, r4
 8001a80:	eb45 0303 	adc.w	r3, r5, r3
 8001a84:	f04f 0000 	mov.w	r0, #0
 8001a88:	f04f 0100 	mov.w	r1, #0
 8001a8c:	0299      	lsls	r1, r3, #10
 8001a8e:	ea41 5192 	orr.w	r1, r1, r2, lsr #22
 8001a92:	0290      	lsls	r0, r2, #10
 8001a94:	4602      	mov	r2, r0
 8001a96:	460b      	mov	r3, r1
 8001a98:	4610      	mov	r0, r2
 8001a9a:	4619      	mov	r1, r3
 8001a9c:	687b      	ldr	r3, [r7, #4]
 8001a9e:	461a      	mov	r2, r3
 8001aa0:	f04f 0300 	mov.w	r3, #0
 8001aa4:	f7fe fb90 	bl	80001c8 <__aeabi_uldivmod>
 8001aa8:	4602      	mov	r2, r0
 8001aaa:	460b      	mov	r3, r1
 8001aac:	4613      	mov	r3, r2
 8001aae:	60fb      	str	r3, [r7, #12]
      }
      pllp = ((((RCC->PLLCFGR & RCC_PLLCFGR_PLLP) >> RCC_PLLCFGR_PLLP_Pos) + 1U) *2U);
 8001ab0:	4b0b      	ldr	r3, [pc, #44]	; (8001ae0 <HAL_RCC_GetSysClockFreq+0x1b8>)
 8001ab2:	685b      	ldr	r3, [r3, #4]
 8001ab4:	0c1b      	lsrs	r3, r3, #16
 8001ab6:	f003 0303 	and.w	r3, r3, #3
 8001aba:	3301      	adds	r3, #1
 8001abc:	005b      	lsls	r3, r3, #1
 8001abe:	603b      	str	r3, [r7, #0]

      sysclockfreq = pllvco/pllp;
 8001ac0:	68fa      	ldr	r2, [r7, #12]
 8001ac2:	683b      	ldr	r3, [r7, #0]
 8001ac4:	fbb2 f3f3 	udiv	r3, r2, r3
 8001ac8:	60bb      	str	r3, [r7, #8]
      break;
 8001aca:	e002      	b.n	8001ad2 <HAL_RCC_GetSysClockFreq+0x1aa>
    }
    default:
    {
      sysclockfreq = HSI_VALUE;
 8001acc:	4b05      	ldr	r3, [pc, #20]	; (8001ae4 <HAL_RCC_GetSysClockFreq+0x1bc>)
 8001ace:	60bb      	str	r3, [r7, #8]
      break;
 8001ad0:	bf00      	nop
    }
  }
  return sysclockfreq;
 8001ad2:	68bb      	ldr	r3, [r7, #8]
}
 8001ad4:	4618      	mov	r0, r3
 8001ad6:	3710      	adds	r7, #16
 8001ad8:	46bd      	mov	sp, r7
 8001ada:	e8bd 83b0 	ldmia.w	sp!, {r4, r5, r7, r8, r9, pc}
 8001ade:	bf00      	nop
 8001ae0:	40023800 	.word	0x40023800
 8001ae4:	00f42400 	.word	0x00f42400
 8001ae8:	007a1200 	.word	0x007a1200

08001aec <HAL_RCC_GetHCLKFreq>:
  * @note   The SystemCoreClock CMSIS variable is used to store System Clock Frequency
  *         and updated within this function
  * @retval HCLK frequency
  */
uint32_t HAL_RCC_GetHCLKFreq(void)
{
 8001aec:	b480      	push	{r7}
 8001aee:	af00      	add	r7, sp, #0
  return SystemCoreClock;
 8001af0:	4b03      	ldr	r3, [pc, #12]	; (8001b00 <HAL_RCC_GetHCLKFreq+0x14>)
 8001af2:	681b      	ldr	r3, [r3, #0]
}
 8001af4:	4618      	mov	r0, r3
 8001af6:	46bd      	mov	sp, r7
 8001af8:	f85d 7b04 	ldr.w	r7, [sp], #4
 8001afc:	4770      	bx	lr
 8001afe:	bf00      	nop
 8001b00:	20000000 	.word	0x20000000

08001b04 <HAL_RCC_GetPCLK2Freq>:
  * @note   Each time PCLK2 changes, this function must be called to update the
  *         right PCLK2 value. Otherwise, any configuration based on this function will be incorrect.
  * @retval PCLK2 frequency
  */
uint32_t HAL_RCC_GetPCLK2Freq(void)
{
 8001b04:	b580      	push	{r7, lr}
 8001b06:	af00      	add	r7, sp, #0
  /* Get HCLK source and Compute PCLK2 frequency ---------------------------*/
  return (HAL_RCC_GetHCLKFreq()>> APBPrescTable[(RCC->CFGR & RCC_CFGR_PPRE2)>> RCC_CFGR_PPRE2_Pos]);
 8001b08:	f7ff fff0 	bl	8001aec <HAL_RCC_GetHCLKFreq>
 8001b0c:	4602      	mov	r2, r0
 8001b0e:	4b05      	ldr	r3, [pc, #20]	; (8001b24 <HAL_RCC_GetPCLK2Freq+0x20>)
 8001b10:	689b      	ldr	r3, [r3, #8]
 8001b12:	0b5b      	lsrs	r3, r3, #13
 8001b14:	f003 0307 	and.w	r3, r3, #7
 8001b18:	4903      	ldr	r1, [pc, #12]	; (8001b28 <HAL_RCC_GetPCLK2Freq+0x24>)
 8001b1a:	5ccb      	ldrb	r3, [r1, r3]
 8001b1c:	fa22 f303 	lsr.w	r3, r2, r3
}
 8001b20:	4618      	mov	r0, r3
 8001b22:	bd80      	pop	{r7, pc}
 8001b24:	40023800 	.word	0x40023800
 8001b28:	08003170 	.word	0x08003170

08001b2c <HAL_RCC_GetClockConfig>:
  * will be configured.
  * @param  pFLatency Pointer on the Flash Latency.
  * @retval None
  */
void HAL_RCC_GetClockConfig(RCC_ClkInitTypeDef  *RCC_ClkInitStruct, uint32_t *pFLatency)
{
 8001b2c:	b480      	push	{r7}
 8001b2e:	b083      	sub	sp, #12
 8001b30:	af00      	add	r7, sp, #0
 8001b32:	6078      	str	r0, [r7, #4]
 8001b34:	6039      	str	r1, [r7, #0]
  /* Set all possible values for the Clock type parameter --------------------*/
  RCC_ClkInitStruct->ClockType = RCC_CLOCKTYPE_SYSCLK | RCC_CLOCKTYPE_HCLK | RCC_CLOCKTYPE_PCLK1 | RCC_CLOCKTYPE_PCLK2;
 8001b36:	687b      	ldr	r3, [r7, #4]
 8001b38:	220f      	movs	r2, #15
 8001b3a:	601a      	str	r2, [r3, #0]

  /* Get the SYSCLK configuration --------------------------------------------*/
  RCC_ClkInitStruct->SYSCLKSource = (uint32_t)(RCC->CFGR & RCC_CFGR_SW);
 8001b3c:	4b12      	ldr	r3, [pc, #72]	; (8001b88 <HAL_RCC_GetClockConfig+0x5c>)
 8001b3e:	689b      	ldr	r3, [r3, #8]
 8001b40:	f003 0203 	and.w	r2, r3, #3
 8001b44:	687b      	ldr	r3, [r7, #4]
 8001b46:	605a      	str	r2, [r3, #4]

  /* Get the HCLK configuration ----------------------------------------------*/
  RCC_ClkInitStruct->AHBCLKDivider = (uint32_t)(RCC->CFGR & RCC_CFGR_HPRE);
 8001b48:	4b0f      	ldr	r3, [pc, #60]	; (8001b88 <HAL_RCC_GetClockConfig+0x5c>)
 8001b4a:	689b      	ldr	r3, [r3, #8]
 8001b4c:	f003 02f0 	and.w	r2, r3, #240	; 0xf0
 8001b50:	687b      	ldr	r3, [r7, #4]
 8001b52:	609a      	str	r2, [r3, #8]

  /* Get the APB1 configuration ----------------------------------------------*/
  RCC_ClkInitStruct->APB1CLKDivider = (uint32_t)(RCC->CFGR & RCC_CFGR_PPRE1);
 8001b54:	4b0c      	ldr	r3, [pc, #48]	; (8001b88 <HAL_RCC_GetClockConfig+0x5c>)
 8001b56:	689b      	ldr	r3, [r3, #8]
 8001b58:	f403 52e0 	and.w	r2, r3, #7168	; 0x1c00
 8001b5c:	687b      	ldr	r3, [r7, #4]
 8001b5e:	60da      	str	r2, [r3, #12]

  /* Get the APB2 configuration ----------------------------------------------*/
  RCC_ClkInitStruct->APB2CLKDivider = (uint32_t)((RCC->CFGR & RCC_CFGR_PPRE2) >> 3U);
 8001b60:	4b09      	ldr	r3, [pc, #36]	; (8001b88 <HAL_RCC_GetClockConfig+0x5c>)
 8001b62:	689b      	ldr	r3, [r3, #8]
 8001b64:	08db      	lsrs	r3, r3, #3
 8001b66:	f403 52e0 	and.w	r2, r3, #7168	; 0x1c00
 8001b6a:	687b      	ldr	r3, [r7, #4]
 8001b6c:	611a      	str	r2, [r3, #16]

  /* Get the Flash Wait State (Latency) configuration ------------------------*/
  *pFLatency = (uint32_t)(FLASH->ACR & FLASH_ACR_LATENCY);
 8001b6e:	4b07      	ldr	r3, [pc, #28]	; (8001b8c <HAL_RCC_GetClockConfig+0x60>)
 8001b70:	681b      	ldr	r3, [r3, #0]
 8001b72:	f003 0207 	and.w	r2, r3, #7
 8001b76:	683b      	ldr	r3, [r7, #0]
 8001b78:	601a      	str	r2, [r3, #0]
}
 8001b7a:	bf00      	nop
 8001b7c:	370c      	adds	r7, #12
 8001b7e:	46bd      	mov	sp, r7
 8001b80:	f85d 7b04 	ldr.w	r7, [sp], #4
 8001b84:	4770      	bx	lr
 8001b86:	bf00      	nop
 8001b88:	40023800 	.word	0x40023800
 8001b8c:	40023c00 	.word	0x40023c00

08001b90 <HAL_TIM_Base_Init>:
  *         Ex: call @ref HAL_TIM_Base_DeInit() before HAL_TIM_Base_Init()
  * @param  htim TIM Base handle
  * @retval HAL status
  */
HAL_StatusTypeDef HAL_TIM_Base_Init(TIM_HandleTypeDef *htim)
{
 8001b90:	b580      	push	{r7, lr}
 8001b92:	b082      	sub	sp, #8
 8001b94:	af00      	add	r7, sp, #0
 8001b96:	6078      	str	r0, [r7, #4]
  /* Check the TIM handle allocation */
  if (htim == NULL)
 8001b98:	687b      	ldr	r3, [r7, #4]
 8001b9a:	2b00      	cmp	r3, #0
 8001b9c:	d101      	bne.n	8001ba2 <HAL_TIM_Base_Init+0x12>
  {
    return HAL_ERROR;
 8001b9e:	2301      	movs	r3, #1
 8001ba0:	e041      	b.n	8001c26 <HAL_TIM_Base_Init+0x96>
  assert_param(IS_TIM_INSTANCE(htim->Instance));
  assert_param(IS_TIM_COUNTER_MODE(htim->Init.CounterMode));
  assert_param(IS_TIM_CLOCKDIVISION_DIV(htim->Init.ClockDivision));
  assert_param(IS_TIM_AUTORELOAD_PRELOAD(htim->Init.AutoReloadPreload));

  if (htim->State == HAL_TIM_STATE_RESET)
 8001ba2:	687b      	ldr	r3, [r7, #4]
 8001ba4:	f893 303d 	ldrb.w	r3, [r3, #61]	; 0x3d
 8001ba8:	b2db      	uxtb	r3, r3
 8001baa:	2b00      	cmp	r3, #0
 8001bac:	d106      	bne.n	8001bbc <HAL_TIM_Base_Init+0x2c>
  {
    /* Allocate lock resource and initialize it */
    htim->Lock = HAL_UNLOCKED;
 8001bae:	687b      	ldr	r3, [r7, #4]
 8001bb0:	2200      	movs	r2, #0
 8001bb2:	f883 203c 	strb.w	r2, [r3, #60]	; 0x3c
    }
    /* Init the low level hardware : GPIO, CLOCK, NVIC */
    htim->Base_MspInitCallback(htim);
#else
    /* Init the low level hardware : GPIO, CLOCK, NVIC */
    HAL_TIM_Base_MspInit(htim);
 8001bb6:	6878      	ldr	r0, [r7, #4]
 8001bb8:	f7fe fef8 	bl	80009ac <HAL_TIM_Base_MspInit>
#endif /* USE_HAL_TIM_REGISTER_CALLBACKS */
  }

  /* Set the TIM state */
  htim->State = HAL_TIM_STATE_BUSY;
 8001bbc:	687b      	ldr	r3, [r7, #4]
 8001bbe:	2202      	movs	r2, #2
 8001bc0:	f883 203d 	strb.w	r2, [r3, #61]	; 0x3d

  /* Set the Time Base configuration */
  TIM_Base_SetConfig(htim->Instance, &htim->Init);
 8001bc4:	687b      	ldr	r3, [r7, #4]
 8001bc6:	681a      	ldr	r2, [r3, #0]
 8001bc8:	687b      	ldr	r3, [r7, #4]
 8001bca:	3304      	adds	r3, #4
 8001bcc:	4619      	mov	r1, r3
 8001bce:	4610      	mov	r0, r2
 8001bd0:	f000 fdc4 	bl	800275c <TIM_Base_SetConfig>

  /* Initialize the DMA burst operation state */
  htim->DMABurstState = HAL_DMA_BURST_STATE_READY;
 8001bd4:	687b      	ldr	r3, [r7, #4]
 8001bd6:	2201      	movs	r2, #1
 8001bd8:	f883 2046 	strb.w	r2, [r3, #70]	; 0x46

  /* Initialize the TIM channels state */
  TIM_CHANNEL_STATE_SET_ALL(htim, HAL_TIM_CHANNEL_STATE_READY);
 8001bdc:	687b      	ldr	r3, [r7, #4]
 8001bde:	2201      	movs	r2, #1
 8001be0:	f883 203e 	strb.w	r2, [r3, #62]	; 0x3e
 8001be4:	687b      	ldr	r3, [r7, #4]
 8001be6:	2201      	movs	r2, #1
 8001be8:	f883 203f 	strb.w	r2, [r3, #63]	; 0x3f
 8001bec:	687b      	ldr	r3, [r7, #4]
 8001bee:	2201      	movs	r2, #1
 8001bf0:	f883 2040 	strb.w	r2, [r3, #64]	; 0x40
 8001bf4:	687b      	ldr	r3, [r7, #4]
 8001bf6:	2201      	movs	r2, #1
 8001bf8:	f883 2041 	strb.w	r2, [r3, #65]	; 0x41
  TIM_CHANNEL_N_STATE_SET_ALL(htim, HAL_TIM_CHANNEL_STATE_READY);
 8001bfc:	687b      	ldr	r3, [r7, #4]
 8001bfe:	2201      	movs	r2, #1
 8001c00:	f883 2042 	strb.w	r2, [r3, #66]	; 0x42
 8001c04:	687b      	ldr	r3, [r7, #4]
 8001c06:	2201      	movs	r2, #1
 8001c08:	f883 2043 	strb.w	r2, [r3, #67]	; 0x43
 8001c0c:	687b      	ldr	r3, [r7, #4]
 8001c0e:	2201      	movs	r2, #1
 8001c10:	f883 2044 	strb.w	r2, [r3, #68]	; 0x44
 8001c14:	687b      	ldr	r3, [r7, #4]
 8001c16:	2201      	movs	r2, #1
 8001c18:	f883 2045 	strb.w	r2, [r3, #69]	; 0x45

  /* Initialize the TIM state*/
  htim->State = HAL_TIM_STATE_READY;
 8001c1c:	687b      	ldr	r3, [r7, #4]
 8001c1e:	2201      	movs	r2, #1
 8001c20:	f883 203d 	strb.w	r2, [r3, #61]	; 0x3d

  return HAL_OK;
 8001c24:	2300      	movs	r3, #0
}
 8001c26:	4618      	mov	r0, r3
 8001c28:	3708      	adds	r7, #8
 8001c2a:	46bd      	mov	sp, r7
 8001c2c:	bd80      	pop	{r7, pc}
	...

08001c30 <HAL_TIM_Base_Start_IT>:
  * @brief  Starts the TIM Base generation in interrupt mode.
  * @param  htim TIM Base handle
  * @retval HAL status
  */
HAL_StatusTypeDef HAL_TIM_Base_Start_IT(TIM_HandleTypeDef *htim)
{
 8001c30:	b480      	push	{r7}
 8001c32:	b085      	sub	sp, #20
 8001c34:	af00      	add	r7, sp, #0
 8001c36:	6078      	str	r0, [r7, #4]

  /* Check the parameters */
  assert_param(IS_TIM_INSTANCE(htim->Instance));

  /* Check the TIM state */
  if (htim->State != HAL_TIM_STATE_READY)
 8001c38:	687b      	ldr	r3, [r7, #4]
 8001c3a:	f893 303d 	ldrb.w	r3, [r3, #61]	; 0x3d
 8001c3e:	b2db      	uxtb	r3, r3
 8001c40:	2b01      	cmp	r3, #1
 8001c42:	d001      	beq.n	8001c48 <HAL_TIM_Base_Start_IT+0x18>
  {
    return HAL_ERROR;
 8001c44:	2301      	movs	r3, #1
 8001c46:	e04e      	b.n	8001ce6 <HAL_TIM_Base_Start_IT+0xb6>
  }

  /* Set the TIM state */
  htim->State = HAL_TIM_STATE_BUSY;
 8001c48:	687b      	ldr	r3, [r7, #4]
 8001c4a:	2202      	movs	r2, #2
 8001c4c:	f883 203d 	strb.w	r2, [r3, #61]	; 0x3d

  /* Enable the TIM Update interrupt */
  __HAL_TIM_ENABLE_IT(htim, TIM_IT_UPDATE);
 8001c50:	687b      	ldr	r3, [r7, #4]
 8001c52:	681b      	ldr	r3, [r3, #0]
 8001c54:	68da      	ldr	r2, [r3, #12]
 8001c56:	687b      	ldr	r3, [r7, #4]
 8001c58:	681b      	ldr	r3, [r3, #0]
 8001c5a:	f042 0201 	orr.w	r2, r2, #1
 8001c5e:	60da      	str	r2, [r3, #12]

  /* Enable the Peripheral, except in trigger mode where enable is automatically done with trigger */
  if (IS_TIM_SLAVE_INSTANCE(htim->Instance))
 8001c60:	687b      	ldr	r3, [r7, #4]
 8001c62:	681b      	ldr	r3, [r3, #0]
 8001c64:	4a23      	ldr	r2, [pc, #140]	; (8001cf4 <HAL_TIM_Base_Start_IT+0xc4>)
 8001c66:	4293      	cmp	r3, r2
 8001c68:	d022      	beq.n	8001cb0 <HAL_TIM_Base_Start_IT+0x80>
 8001c6a:	687b      	ldr	r3, [r7, #4]
 8001c6c:	681b      	ldr	r3, [r3, #0]
 8001c6e:	f1b3 4f80 	cmp.w	r3, #1073741824	; 0x40000000
 8001c72:	d01d      	beq.n	8001cb0 <HAL_TIM_Base_Start_IT+0x80>
 8001c74:	687b      	ldr	r3, [r7, #4]
 8001c76:	681b      	ldr	r3, [r3, #0]
 8001c78:	4a1f      	ldr	r2, [pc, #124]	; (8001cf8 <HAL_TIM_Base_Start_IT+0xc8>)
 8001c7a:	4293      	cmp	r3, r2
 8001c7c:	d018      	beq.n	8001cb0 <HAL_TIM_Base_Start_IT+0x80>
 8001c7e:	687b      	ldr	r3, [r7, #4]
 8001c80:	681b      	ldr	r3, [r3, #0]
 8001c82:	4a1e      	ldr	r2, [pc, #120]	; (8001cfc <HAL_TIM_Base_Start_IT+0xcc>)
 8001c84:	4293      	cmp	r3, r2
 8001c86:	d013      	beq.n	8001cb0 <HAL_TIM_Base_Start_IT+0x80>
 8001c88:	687b      	ldr	r3, [r7, #4]
 8001c8a:	681b      	ldr	r3, [r3, #0]
 8001c8c:	4a1c      	ldr	r2, [pc, #112]	; (8001d00 <HAL_TIM_Base_Start_IT+0xd0>)
 8001c8e:	4293      	cmp	r3, r2
 8001c90:	d00e      	beq.n	8001cb0 <HAL_TIM_Base_Start_IT+0x80>
 8001c92:	687b      	ldr	r3, [r7, #4]
 8001c94:	681b      	ldr	r3, [r3, #0]
 8001c96:	4a1b      	ldr	r2, [pc, #108]	; (8001d04 <HAL_TIM_Base_Start_IT+0xd4>)
 8001c98:	4293      	cmp	r3, r2
 8001c9a:	d009      	beq.n	8001cb0 <HAL_TIM_Base_Start_IT+0x80>
 8001c9c:	687b      	ldr	r3, [r7, #4]
 8001c9e:	681b      	ldr	r3, [r3, #0]
 8001ca0:	4a19      	ldr	r2, [pc, #100]	; (8001d08 <HAL_TIM_Base_Start_IT+0xd8>)
 8001ca2:	4293      	cmp	r3, r2
 8001ca4:	d004      	beq.n	8001cb0 <HAL_TIM_Base_Start_IT+0x80>
 8001ca6:	687b      	ldr	r3, [r7, #4]
 8001ca8:	681b      	ldr	r3, [r3, #0]
 8001caa:	4a18      	ldr	r2, [pc, #96]	; (8001d0c <HAL_TIM_Base_Start_IT+0xdc>)
 8001cac:	4293      	cmp	r3, r2
 8001cae:	d111      	bne.n	8001cd4 <HAL_TIM_Base_Start_IT+0xa4>
  {
    tmpsmcr = htim->Instance->SMCR & TIM_SMCR_SMS;
 8001cb0:	687b      	ldr	r3, [r7, #4]
 8001cb2:	681b      	ldr	r3, [r3, #0]
 8001cb4:	689b      	ldr	r3, [r3, #8]
 8001cb6:	f003 0307 	and.w	r3, r3, #7
 8001cba:	60fb      	str	r3, [r7, #12]
    if (!IS_TIM_SLAVEMODE_TRIGGER_ENABLED(tmpsmcr))
 8001cbc:	68fb      	ldr	r3, [r7, #12]
 8001cbe:	2b06      	cmp	r3, #6
 8001cc0:	d010      	beq.n	8001ce4 <HAL_TIM_Base_Start_IT+0xb4>
    {
      __HAL_TIM_ENABLE(htim);
 8001cc2:	687b      	ldr	r3, [r7, #4]
 8001cc4:	681b      	ldr	r3, [r3, #0]
 8001cc6:	681a      	ldr	r2, [r3, #0]
 8001cc8:	687b      	ldr	r3, [r7, #4]
 8001cca:	681b      	ldr	r3, [r3, #0]
 8001ccc:	f042 0201 	orr.w	r2, r2, #1
 8001cd0:	601a      	str	r2, [r3, #0]
    if (!IS_TIM_SLAVEMODE_TRIGGER_ENABLED(tmpsmcr))
 8001cd2:	e007      	b.n	8001ce4 <HAL_TIM_Base_Start_IT+0xb4>
    }
  }
  else
  {
    __HAL_TIM_ENABLE(htim);
 8001cd4:	687b      	ldr	r3, [r7, #4]
 8001cd6:	681b      	ldr	r3, [r3, #0]
 8001cd8:	681a      	ldr	r2, [r3, #0]
 8001cda:	687b      	ldr	r3, [r7, #4]
 8001cdc:	681b      	ldr	r3, [r3, #0]
 8001cde:	f042 0201 	orr.w	r2, r2, #1
 8001ce2:	601a      	str	r2, [r3, #0]
  }

  /* Return function status */
  return HAL_OK;
 8001ce4:	2300      	movs	r3, #0
}
 8001ce6:	4618      	mov	r0, r3
 8001ce8:	3714      	adds	r7, #20
 8001cea:	46bd      	mov	sp, r7
 8001cec:	f85d 7b04 	ldr.w	r7, [sp], #4
 8001cf0:	4770      	bx	lr
 8001cf2:	bf00      	nop
 8001cf4:	40010000 	.word	0x40010000
 8001cf8:	40000400 	.word	0x40000400
 8001cfc:	40000800 	.word	0x40000800
 8001d00:	40000c00 	.word	0x40000c00
 8001d04:	40010400 	.word	0x40010400
 8001d08:	40014000 	.word	0x40014000
 8001d0c:	40001800 	.word	0x40001800

08001d10 <HAL_TIM_PWM_Init>:
  *         Ex: call @ref HAL_TIM_PWM_DeInit() before HAL_TIM_PWM_Init()
  * @param  htim TIM PWM handle
  * @retval HAL status
  */
HAL_StatusTypeDef HAL_TIM_PWM_Init(TIM_HandleTypeDef *htim)
{
 8001d10:	b580      	push	{r7, lr}
 8001d12:	b082      	sub	sp, #8
 8001d14:	af00      	add	r7, sp, #0
 8001d16:	6078      	str	r0, [r7, #4]
  /* Check the TIM handle allocation */
  if (htim == NULL)
 8001d18:	687b      	ldr	r3, [r7, #4]
 8001d1a:	2b00      	cmp	r3, #0
 8001d1c:	d101      	bne.n	8001d22 <HAL_TIM_PWM_Init+0x12>
  {
    return HAL_ERROR;
 8001d1e:	2301      	movs	r3, #1
 8001d20:	e041      	b.n	8001da6 <HAL_TIM_PWM_Init+0x96>
  assert_param(IS_TIM_INSTANCE(htim->Instance));
  assert_param(IS_TIM_COUNTER_MODE(htim->Init.CounterMode));
  assert_param(IS_TIM_CLOCKDIVISION_DIV(htim->Init.ClockDivision));
  assert_param(IS_TIM_AUTORELOAD_PRELOAD(htim->Init.AutoReloadPreload));

  if (htim->State == HAL_TIM_STATE_RESET)
 8001d22:	687b      	ldr	r3, [r7, #4]
 8001d24:	f893 303d 	ldrb.w	r3, [r3, #61]	; 0x3d
 8001d28:	b2db      	uxtb	r3, r3
 8001d2a:	2b00      	cmp	r3, #0
 8001d2c:	d106      	bne.n	8001d3c <HAL_TIM_PWM_Init+0x2c>
  {
    /* Allocate lock resource and initialize it */
    htim->Lock = HAL_UNLOCKED;
 8001d2e:	687b      	ldr	r3, [r7, #4]
 8001d30:	2200      	movs	r2, #0
 8001d32:	f883 203c 	strb.w	r2, [r3, #60]	; 0x3c
    }
    /* Init the low level hardware : GPIO, CLOCK, NVIC */
    htim->PWM_MspInitCallback(htim);
#else
    /* Init the low level hardware : GPIO, CLOCK, NVIC and DMA */
    HAL_TIM_PWM_MspInit(htim);
 8001d36:	6878      	ldr	r0, [r7, #4]
 8001d38:	f000 f839 	bl	8001dae <HAL_TIM_PWM_MspInit>
#endif /* USE_HAL_TIM_REGISTER_CALLBACKS */
  }

  /* Set the TIM state */
  htim->State = HAL_TIM_STATE_BUSY;
 8001d3c:	687b      	ldr	r3, [r7, #4]
 8001d3e:	2202      	movs	r2, #2
 8001d40:	f883 203d 	strb.w	r2, [r3, #61]	; 0x3d

  /* Init the base time for the PWM */
  TIM_Base_SetConfig(htim->Instance, &htim->Init);
 8001d44:	687b      	ldr	r3, [r7, #4]
 8001d46:	681a      	ldr	r2, [r3, #0]
 8001d48:	687b      	ldr	r3, [r7, #4]
 8001d4a:	3304      	adds	r3, #4
 8001d4c:	4619      	mov	r1, r3
 8001d4e:	4610      	mov	r0, r2
 8001d50:	f000 fd04 	bl	800275c <TIM_Base_SetConfig>

  /* Initialize the DMA burst operation state */
  htim->DMABurstState = HAL_DMA_BURST_STATE_READY;
 8001d54:	687b      	ldr	r3, [r7, #4]
 8001d56:	2201      	movs	r2, #1
 8001d58:	f883 2046 	strb.w	r2, [r3, #70]	; 0x46

  /* Initialize the TIM channels state */
  TIM_CHANNEL_STATE_SET_ALL(htim, HAL_TIM_CHANNEL_STATE_READY);
 8001d5c:	687b      	ldr	r3, [r7, #4]
 8001d5e:	2201      	movs	r2, #1
 8001d60:	f883 203e 	strb.w	r2, [r3, #62]	; 0x3e
 8001d64:	687b      	ldr	r3, [r7, #4]
 8001d66:	2201      	movs	r2, #1
 8001d68:	f883 203f 	strb.w	r2, [r3, #63]	; 0x3f
 8001d6c:	687b      	ldr	r3, [r7, #4]
 8001d6e:	2201      	movs	r2, #1
 8001d70:	f883 2040 	strb.w	r2, [r3, #64]	; 0x40
 8001d74:	687b      	ldr	r3, [r7, #4]
 8001d76:	2201      	movs	r2, #1
 8001d78:	f883 2041 	strb.w	r2, [r3, #65]	; 0x41
  TIM_CHANNEL_N_STATE_SET_ALL(htim, HAL_TIM_CHANNEL_STATE_READY);
 8001d7c:	687b      	ldr	r3, [r7, #4]
 8001d7e:	2201      	movs	r2, #1
 8001d80:	f883 2042 	strb.w	r2, [r3, #66]	; 0x42
 8001d84:	687b      	ldr	r3, [r7, #4]
 8001d86:	2201      	movs	r2, #1
 8001d88:	f883 2043 	strb.w	r2, [r3, #67]	; 0x43
 8001d8c:	687b      	ldr	r3, [r7, #4]
 8001d8e:	2201      	movs	r2, #1
 8001d90:	f883 2044 	strb.w	r2, [r3, #68]	; 0x44
 8001d94:	687b      	ldr	r3, [r7, #4]
 8001d96:	2201      	movs	r2, #1
 8001d98:	f883 2045 	strb.w	r2, [r3, #69]	; 0x45

  /* Initialize the TIM state*/
  htim->State = HAL_TIM_STATE_READY;
 8001d9c:	687b      	ldr	r3, [r7, #4]
 8001d9e:	2201      	movs	r2, #1
 8001da0:	f883 203d 	strb.w	r2, [r3, #61]	; 0x3d

  return HAL_OK;
 8001da4:	2300      	movs	r3, #0
}
 8001da6:	4618      	mov	r0, r3
 8001da8:	3708      	adds	r7, #8
 8001daa:	46bd      	mov	sp, r7
 8001dac:	bd80      	pop	{r7, pc}

08001dae <HAL_TIM_PWM_MspInit>:
  * @brief  Initializes the TIM PWM MSP.
  * @param  htim TIM PWM handle
  * @retval None
  */
__weak void HAL_TIM_PWM_MspInit(TIM_HandleTypeDef *htim)
{
 8001dae:	b480      	push	{r7}
 8001db0:	b083      	sub	sp, #12
 8001db2:	af00      	add	r7, sp, #0
 8001db4:	6078      	str	r0, [r7, #4]
  UNUSED(htim);

  /* NOTE : This function should not be modified, when the callback is needed,
            the HAL_TIM_PWM_MspInit could be implemented in the user file
   */
}
 8001db6:	bf00      	nop
 8001db8:	370c      	adds	r7, #12
 8001dba:	46bd      	mov	sp, r7
 8001dbc:	f85d 7b04 	ldr.w	r7, [sp], #4
 8001dc0:	4770      	bx	lr

08001dc2 <HAL_TIM_IC_Init>:
  *         Ex: call @ref HAL_TIM_IC_DeInit() before HAL_TIM_IC_Init()
  * @param  htim TIM Input Capture handle
  * @retval HAL status
  */
HAL_StatusTypeDef HAL_TIM_IC_Init(TIM_HandleTypeDef *htim)
{
 8001dc2:	b580      	push	{r7, lr}
 8001dc4:	b082      	sub	sp, #8
 8001dc6:	af00      	add	r7, sp, #0
 8001dc8:	6078      	str	r0, [r7, #4]
  /* Check the TIM handle allocation */
  if (htim == NULL)
 8001dca:	687b      	ldr	r3, [r7, #4]
 8001dcc:	2b00      	cmp	r3, #0
 8001dce:	d101      	bne.n	8001dd4 <HAL_TIM_IC_Init+0x12>
  {
    return HAL_ERROR;
 8001dd0:	2301      	movs	r3, #1
 8001dd2:	e041      	b.n	8001e58 <HAL_TIM_IC_Init+0x96>
  assert_param(IS_TIM_INSTANCE(htim->Instance));
  assert_param(IS_TIM_COUNTER_MODE(htim->Init.CounterMode));
  assert_param(IS_TIM_CLOCKDIVISION_DIV(htim->Init.ClockDivision));
  assert_param(IS_TIM_AUTORELOAD_PRELOAD(htim->Init.AutoReloadPreload));

  if (htim->State == HAL_TIM_STATE_RESET)
 8001dd4:	687b      	ldr	r3, [r7, #4]
 8001dd6:	f893 303d 	ldrb.w	r3, [r3, #61]	; 0x3d
 8001dda:	b2db      	uxtb	r3, r3
 8001ddc:	2b00      	cmp	r3, #0
 8001dde:	d106      	bne.n	8001dee <HAL_TIM_IC_Init+0x2c>
  {
    /* Allocate lock resource and initialize it */
    htim->Lock = HAL_UNLOCKED;
 8001de0:	687b      	ldr	r3, [r7, #4]
 8001de2:	2200      	movs	r2, #0
 8001de4:	f883 203c 	strb.w	r2, [r3, #60]	; 0x3c
    }
    /* Init the low level hardware : GPIO, CLOCK, NVIC */
    htim->IC_MspInitCallback(htim);
#else
    /* Init the low level hardware : GPIO, CLOCK, NVIC and DMA */
    HAL_TIM_IC_MspInit(htim);
 8001de8:	6878      	ldr	r0, [r7, #4]
 8001dea:	f000 f839 	bl	8001e60 <HAL_TIM_IC_MspInit>
#endif /* USE_HAL_TIM_REGISTER_CALLBACKS */
  }

  /* Set the TIM state */
  htim->State = HAL_TIM_STATE_BUSY;
 8001dee:	687b      	ldr	r3, [r7, #4]
 8001df0:	2202      	movs	r2, #2
 8001df2:	f883 203d 	strb.w	r2, [r3, #61]	; 0x3d

  /* Init the base time for the input capture */
  TIM_Base_SetConfig(htim->Instance, &htim->Init);
 8001df6:	687b      	ldr	r3, [r7, #4]
 8001df8:	681a      	ldr	r2, [r3, #0]
 8001dfa:	687b      	ldr	r3, [r7, #4]
 8001dfc:	3304      	adds	r3, #4
 8001dfe:	4619      	mov	r1, r3
 8001e00:	4610      	mov	r0, r2
 8001e02:	f000 fcab 	bl	800275c <TIM_Base_SetConfig>

  /* Initialize the DMA burst operation state */
  htim->DMABurstState = HAL_DMA_BURST_STATE_READY;
 8001e06:	687b      	ldr	r3, [r7, #4]
 8001e08:	2201      	movs	r2, #1
 8001e0a:	f883 2046 	strb.w	r2, [r3, #70]	; 0x46

  /* Initialize the TIM channels state */
  TIM_CHANNEL_STATE_SET_ALL(htim, HAL_TIM_CHANNEL_STATE_READY);
 8001e0e:	687b      	ldr	r3, [r7, #4]
 8001e10:	2201      	movs	r2, #1
 8001e12:	f883 203e 	strb.w	r2, [r3, #62]	; 0x3e
 8001e16:	687b      	ldr	r3, [r7, #4]
 8001e18:	2201      	movs	r2, #1
 8001e1a:	f883 203f 	strb.w	r2, [r3, #63]	; 0x3f
 8001e1e:	687b      	ldr	r3, [r7, #4]
 8001e20:	2201      	movs	r2, #1
 8001e22:	f883 2040 	strb.w	r2, [r3, #64]	; 0x40
 8001e26:	687b      	ldr	r3, [r7, #4]
 8001e28:	2201      	movs	r2, #1
 8001e2a:	f883 2041 	strb.w	r2, [r3, #65]	; 0x41
  TIM_CHANNEL_N_STATE_SET_ALL(htim, HAL_TIM_CHANNEL_STATE_READY);
 8001e2e:	687b      	ldr	r3, [r7, #4]
 8001e30:	2201      	movs	r2, #1
 8001e32:	f883 2042 	strb.w	r2, [r3, #66]	; 0x42
 8001e36:	687b      	ldr	r3, [r7, #4]
 8001e38:	2201      	movs	r2, #1
 8001e3a:	f883 2043 	strb.w	r2, [r3, #67]	; 0x43
 8001e3e:	687b      	ldr	r3, [r7, #4]
 8001e40:	2201      	movs	r2, #1
 8001e42:	f883 2044 	strb.w	r2, [r3, #68]	; 0x44
 8001e46:	687b      	ldr	r3, [r7, #4]
 8001e48:	2201      	movs	r2, #1
 8001e4a:	f883 2045 	strb.w	r2, [r3, #69]	; 0x45

  /* Initialize the TIM state*/
  htim->State = HAL_TIM_STATE_READY;
 8001e4e:	687b      	ldr	r3, [r7, #4]
 8001e50:	2201      	movs	r2, #1
 8001e52:	f883 203d 	strb.w	r2, [r3, #61]	; 0x3d

  return HAL_OK;
 8001e56:	2300      	movs	r3, #0
}
 8001e58:	4618      	mov	r0, r3
 8001e5a:	3708      	adds	r7, #8
 8001e5c:	46bd      	mov	sp, r7
 8001e5e:	bd80      	pop	{r7, pc}

08001e60 <HAL_TIM_IC_MspInit>:
  * @brief  Initializes the TIM Input Capture MSP.
  * @param  htim TIM Input Capture handle
  * @retval None
  */
__weak void HAL_TIM_IC_MspInit(TIM_HandleTypeDef *htim)
{
 8001e60:	b480      	push	{r7}
 8001e62:	b083      	sub	sp, #12
 8001e64:	af00      	add	r7, sp, #0
 8001e66:	6078      	str	r0, [r7, #4]
  UNUSED(htim);

  /* NOTE : This function should not be modified, when the callback is needed,
            the HAL_TIM_IC_MspInit could be implemented in the user file
   */
}
 8001e68:	bf00      	nop
 8001e6a:	370c      	adds	r7, #12
 8001e6c:	46bd      	mov	sp, r7
 8001e6e:	f85d 7b04 	ldr.w	r7, [sp], #4
 8001e72:	4770      	bx	lr

08001e74 <HAL_TIM_IC_Start_IT>:
  *            @arg TIM_CHANNEL_3: TIM Channel 3 selected
  *            @arg TIM_CHANNEL_4: TIM Channel 4 selected
  * @retval HAL status
  */
HAL_StatusTypeDef HAL_TIM_IC_Start_IT(TIM_HandleTypeDef *htim, uint32_t Channel)
{
 8001e74:	b580      	push	{r7, lr}
 8001e76:	b084      	sub	sp, #16
 8001e78:	af00      	add	r7, sp, #0
 8001e7a:	6078      	str	r0, [r7, #4]
 8001e7c:	6039      	str	r1, [r7, #0]
  HAL_StatusTypeDef status = HAL_OK;
 8001e7e:	2300      	movs	r3, #0
 8001e80:	73fb      	strb	r3, [r7, #15]
  uint32_t tmpsmcr;

  HAL_TIM_ChannelStateTypeDef channel_state = TIM_CHANNEL_STATE_GET(htim, Channel);
 8001e82:	683b      	ldr	r3, [r7, #0]
 8001e84:	2b00      	cmp	r3, #0
 8001e86:	d104      	bne.n	8001e92 <HAL_TIM_IC_Start_IT+0x1e>
 8001e88:	687b      	ldr	r3, [r7, #4]
 8001e8a:	f893 303e 	ldrb.w	r3, [r3, #62]	; 0x3e
 8001e8e:	b2db      	uxtb	r3, r3
 8001e90:	e013      	b.n	8001eba <HAL_TIM_IC_Start_IT+0x46>
 8001e92:	683b      	ldr	r3, [r7, #0]
 8001e94:	2b04      	cmp	r3, #4
 8001e96:	d104      	bne.n	8001ea2 <HAL_TIM_IC_Start_IT+0x2e>
 8001e98:	687b      	ldr	r3, [r7, #4]
 8001e9a:	f893 303f 	ldrb.w	r3, [r3, #63]	; 0x3f
 8001e9e:	b2db      	uxtb	r3, r3
 8001ea0:	e00b      	b.n	8001eba <HAL_TIM_IC_Start_IT+0x46>
 8001ea2:	683b      	ldr	r3, [r7, #0]
 8001ea4:	2b08      	cmp	r3, #8
 8001ea6:	d104      	bne.n	8001eb2 <HAL_TIM_IC_Start_IT+0x3e>
 8001ea8:	687b      	ldr	r3, [r7, #4]
 8001eaa:	f893 3040 	ldrb.w	r3, [r3, #64]	; 0x40
 8001eae:	b2db      	uxtb	r3, r3
 8001eb0:	e003      	b.n	8001eba <HAL_TIM_IC_Start_IT+0x46>
 8001eb2:	687b      	ldr	r3, [r7, #4]
 8001eb4:	f893 3041 	ldrb.w	r3, [r3, #65]	; 0x41
 8001eb8:	b2db      	uxtb	r3, r3
 8001eba:	73bb      	strb	r3, [r7, #14]
  HAL_TIM_ChannelStateTypeDef complementary_channel_state = TIM_CHANNEL_N_STATE_GET(htim, Channel);
 8001ebc:	683b      	ldr	r3, [r7, #0]
 8001ebe:	2b00      	cmp	r3, #0
 8001ec0:	d104      	bne.n	8001ecc <HAL_TIM_IC_Start_IT+0x58>
 8001ec2:	687b      	ldr	r3, [r7, #4]
 8001ec4:	f893 3042 	ldrb.w	r3, [r3, #66]	; 0x42
 8001ec8:	b2db      	uxtb	r3, r3
 8001eca:	e013      	b.n	8001ef4 <HAL_TIM_IC_Start_IT+0x80>
 8001ecc:	683b      	ldr	r3, [r7, #0]
 8001ece:	2b04      	cmp	r3, #4
 8001ed0:	d104      	bne.n	8001edc <HAL_TIM_IC_Start_IT+0x68>
 8001ed2:	687b      	ldr	r3, [r7, #4]
 8001ed4:	f893 3043 	ldrb.w	r3, [r3, #67]	; 0x43
 8001ed8:	b2db      	uxtb	r3, r3
 8001eda:	e00b      	b.n	8001ef4 <HAL_TIM_IC_Start_IT+0x80>
 8001edc:	683b      	ldr	r3, [r7, #0]
 8001ede:	2b08      	cmp	r3, #8
 8001ee0:	d104      	bne.n	8001eec <HAL_TIM_IC_Start_IT+0x78>
 8001ee2:	687b      	ldr	r3, [r7, #4]
 8001ee4:	f893 3044 	ldrb.w	r3, [r3, #68]	; 0x44
 8001ee8:	b2db      	uxtb	r3, r3
 8001eea:	e003      	b.n	8001ef4 <HAL_TIM_IC_Start_IT+0x80>
 8001eec:	687b      	ldr	r3, [r7, #4]
 8001eee:	f893 3045 	ldrb.w	r3, [r3, #69]	; 0x45
 8001ef2:	b2db      	uxtb	r3, r3
 8001ef4:	737b      	strb	r3, [r7, #13]

  /* Check the parameters */
  assert_param(IS_TIM_CCX_INSTANCE(htim->Instance, Channel));

  /* Check the TIM channel state */
  if ((channel_state != HAL_TIM_CHANNEL_STATE_READY)
 8001ef6:	7bbb      	ldrb	r3, [r7, #14]
 8001ef8:	2b01      	cmp	r3, #1
 8001efa:	d102      	bne.n	8001f02 <HAL_TIM_IC_Start_IT+0x8e>
      || (complementary_channel_state != HAL_TIM_CHANNEL_STATE_READY))
 8001efc:	7b7b      	ldrb	r3, [r7, #13]
 8001efe:	2b01      	cmp	r3, #1
 8001f00:	d001      	beq.n	8001f06 <HAL_TIM_IC_Start_IT+0x92>
  {
    return HAL_ERROR;
 8001f02:	2301      	movs	r3, #1
 8001f04:	e0cc      	b.n	80020a0 <HAL_TIM_IC_Start_IT+0x22c>
  }

  /* Set the TIM channel state */
  TIM_CHANNEL_STATE_SET(htim, Channel, HAL_TIM_CHANNEL_STATE_BUSY);
 8001f06:	683b      	ldr	r3, [r7, #0]
 8001f08:	2b00      	cmp	r3, #0
 8001f0a:	d104      	bne.n	8001f16 <HAL_TIM_IC_Start_IT+0xa2>
 8001f0c:	687b      	ldr	r3, [r7, #4]
 8001f0e:	2202      	movs	r2, #2
 8001f10:	f883 203e 	strb.w	r2, [r3, #62]	; 0x3e
 8001f14:	e013      	b.n	8001f3e <HAL_TIM_IC_Start_IT+0xca>
 8001f16:	683b      	ldr	r3, [r7, #0]
 8001f18:	2b04      	cmp	r3, #4
 8001f1a:	d104      	bne.n	8001f26 <HAL_TIM_IC_Start_IT+0xb2>
 8001f1c:	687b      	ldr	r3, [r7, #4]
 8001f1e:	2202      	movs	r2, #2
 8001f20:	f883 203f 	strb.w	r2, [r3, #63]	; 0x3f
 8001f24:	e00b      	b.n	8001f3e <HAL_TIM_IC_Start_IT+0xca>
 8001f26:	683b      	ldr	r3, [r7, #0]
 8001f28:	2b08      	cmp	r3, #8
 8001f2a:	d104      	bne.n	8001f36 <HAL_TIM_IC_Start_IT+0xc2>
 8001f2c:	687b      	ldr	r3, [r7, #4]
 8001f2e:	2202      	movs	r2, #2
 8001f30:	f883 2040 	strb.w	r2, [r3, #64]	; 0x40
 8001f34:	e003      	b.n	8001f3e <HAL_TIM_IC_Start_IT+0xca>
 8001f36:	687b      	ldr	r3, [r7, #4]
 8001f38:	2202      	movs	r2, #2
 8001f3a:	f883 2041 	strb.w	r2, [r3, #65]	; 0x41
  TIM_CHANNEL_N_STATE_SET(htim, Channel, HAL_TIM_CHANNEL_STATE_BUSY);
 8001f3e:	683b      	ldr	r3, [r7, #0]
 8001f40:	2b00      	cmp	r3, #0
 8001f42:	d104      	bne.n	8001f4e <HAL_TIM_IC_Start_IT+0xda>
 8001f44:	687b      	ldr	r3, [r7, #4]
 8001f46:	2202      	movs	r2, #2
 8001f48:	f883 2042 	strb.w	r2, [r3, #66]	; 0x42
 8001f4c:	e013      	b.n	8001f76 <HAL_TIM_IC_Start_IT+0x102>
 8001f4e:	683b      	ldr	r3, [r7, #0]
 8001f50:	2b04      	cmp	r3, #4
 8001f52:	d104      	bne.n	8001f5e <HAL_TIM_IC_Start_IT+0xea>
 8001f54:	687b      	ldr	r3, [r7, #4]
 8001f56:	2202      	movs	r2, #2
 8001f58:	f883 2043 	strb.w	r2, [r3, #67]	; 0x43
 8001f5c:	e00b      	b.n	8001f76 <HAL_TIM_IC_Start_IT+0x102>
 8001f5e:	683b      	ldr	r3, [r7, #0]
 8001f60:	2b08      	cmp	r3, #8
 8001f62:	d104      	bne.n	8001f6e <HAL_TIM_IC_Start_IT+0xfa>
 8001f64:	687b      	ldr	r3, [r7, #4]
 8001f66:	2202      	movs	r2, #2
 8001f68:	f883 2044 	strb.w	r2, [r3, #68]	; 0x44
 8001f6c:	e003      	b.n	8001f76 <HAL_TIM_IC_Start_IT+0x102>
 8001f6e:	687b      	ldr	r3, [r7, #4]
 8001f70:	2202      	movs	r2, #2
 8001f72:	f883 2045 	strb.w	r2, [r3, #69]	; 0x45
 8001f76:	683b      	ldr	r3, [r7, #0]
 8001f78:	2b0c      	cmp	r3, #12
 8001f7a:	d841      	bhi.n	8002000 <HAL_TIM_IC_Start_IT+0x18c>
 8001f7c:	a201      	add	r2, pc, #4	; (adr r2, 8001f84 <HAL_TIM_IC_Start_IT+0x110>)
 8001f7e:	f852 f023 	ldr.w	pc, [r2, r3, lsl #2]
 8001f82:	bf00      	nop
 8001f84:	08001fb9 	.word	0x08001fb9
 8001f88:	08002001 	.word	0x08002001
 8001f8c:	08002001 	.word	0x08002001
 8001f90:	08002001 	.word	0x08002001
 8001f94:	08001fcb 	.word	0x08001fcb
 8001f98:	08002001 	.word	0x08002001
 8001f9c:	08002001 	.word	0x08002001
 8001fa0:	08002001 	.word	0x08002001
 8001fa4:	08001fdd 	.word	0x08001fdd
 8001fa8:	08002001 	.word	0x08002001
 8001fac:	08002001 	.word	0x08002001
 8001fb0:	08002001 	.word	0x08002001
 8001fb4:	08001fef 	.word	0x08001fef
  switch (Channel)
  {
    case TIM_CHANNEL_1:
    {
      /* Enable the TIM Capture/Compare 1 interrupt */
      __HAL_TIM_ENABLE_IT(htim, TIM_IT_CC1);
 8001fb8:	687b      	ldr	r3, [r7, #4]
 8001fba:	681b      	ldr	r3, [r3, #0]
 8001fbc:	68da      	ldr	r2, [r3, #12]
 8001fbe:	687b      	ldr	r3, [r7, #4]
 8001fc0:	681b      	ldr	r3, [r3, #0]
 8001fc2:	f042 0202 	orr.w	r2, r2, #2
 8001fc6:	60da      	str	r2, [r3, #12]
      break;
 8001fc8:	e01d      	b.n	8002006 <HAL_TIM_IC_Start_IT+0x192>
    }

    case TIM_CHANNEL_2:
    {
      /* Enable the TIM Capture/Compare 2 interrupt */
      __HAL_TIM_ENABLE_IT(htim, TIM_IT_CC2);
 8001fca:	687b      	ldr	r3, [r7, #4]
 8001fcc:	681b      	ldr	r3, [r3, #0]
 8001fce:	68da      	ldr	r2, [r3, #12]
 8001fd0:	687b      	ldr	r3, [r7, #4]
 8001fd2:	681b      	ldr	r3, [r3, #0]
 8001fd4:	f042 0204 	orr.w	r2, r2, #4
 8001fd8:	60da      	str	r2, [r3, #12]
      break;
 8001fda:	e014      	b.n	8002006 <HAL_TIM_IC_Start_IT+0x192>
    }

    case TIM_CHANNEL_3:
    {
      /* Enable the TIM Capture/Compare 3 interrupt */
      __HAL_TIM_ENABLE_IT(htim, TIM_IT_CC3);
 8001fdc:	687b      	ldr	r3, [r7, #4]
 8001fde:	681b      	ldr	r3, [r3, #0]
 8001fe0:	68da      	ldr	r2, [r3, #12]
 8001fe2:	687b      	ldr	r3, [r7, #4]
 8001fe4:	681b      	ldr	r3, [r3, #0]
 8001fe6:	f042 0208 	orr.w	r2, r2, #8
 8001fea:	60da      	str	r2, [r3, #12]
      break;
 8001fec:	e00b      	b.n	8002006 <HAL_TIM_IC_Start_IT+0x192>
    }

    case TIM_CHANNEL_4:
    {
      /* Enable the TIM Capture/Compare 4 interrupt */
      __HAL_TIM_ENABLE_IT(htim, TIM_IT_CC4);
 8001fee:	687b      	ldr	r3, [r7, #4]
 8001ff0:	681b      	ldr	r3, [r3, #0]
 8001ff2:	68da      	ldr	r2, [r3, #12]
 8001ff4:	687b      	ldr	r3, [r7, #4]
 8001ff6:	681b      	ldr	r3, [r3, #0]
 8001ff8:	f042 0210 	orr.w	r2, r2, #16
 8001ffc:	60da      	str	r2, [r3, #12]
      break;
 8001ffe:	e002      	b.n	8002006 <HAL_TIM_IC_Start_IT+0x192>
    }

    default:
      status = HAL_ERROR;
 8002000:	2301      	movs	r3, #1
 8002002:	73fb      	strb	r3, [r7, #15]
      break;
 8002004:	bf00      	nop
  }

  if (status == HAL_OK)
 8002006:	7bfb      	ldrb	r3, [r7, #15]
 8002008:	2b00      	cmp	r3, #0
 800200a:	d148      	bne.n	800209e <HAL_TIM_IC_Start_IT+0x22a>
  {
    /* Enable the Input Capture channel */
    TIM_CCxChannelCmd(htim->Instance, Channel, TIM_CCx_ENABLE);
 800200c:	687b      	ldr	r3, [r7, #4]
 800200e:	681b      	ldr	r3, [r3, #0]
 8002010:	2201      	movs	r2, #1
 8002012:	6839      	ldr	r1, [r7, #0]
 8002014:	4618      	mov	r0, r3
 8002016:	f000 ffb5 	bl	8002f84 <TIM_CCxChannelCmd>

    /* Enable the Peripheral, except in trigger mode where enable is automatically done with trigger */
    if (IS_TIM_SLAVE_INSTANCE(htim->Instance))
 800201a:	687b      	ldr	r3, [r7, #4]
 800201c:	681b      	ldr	r3, [r3, #0]
 800201e:	4a22      	ldr	r2, [pc, #136]	; (80020a8 <HAL_TIM_IC_Start_IT+0x234>)
 8002020:	4293      	cmp	r3, r2
 8002022:	d022      	beq.n	800206a <HAL_TIM_IC_Start_IT+0x1f6>
 8002024:	687b      	ldr	r3, [r7, #4]
 8002026:	681b      	ldr	r3, [r3, #0]
