
lab3.elf:     file format elf32-littlearm

Sections:
Idx Name          Size      VMA       LMA       File off  Algn
  0 .isr_vector   00000188  08000000  08000000  00010000  2**0
                  CONTENTS, ALLOC, LOAD, READONLY, DATA
  1 .text         00002184  08000188  08000188  00010188  2**2
                  CONTENTS, ALLOC, LOAD, READONLY, CODE
  2 .rodata       00000018  0800230c  0800230c  0001230c  2**2
                  CONTENTS, ALLOC, LOAD, READONLY, DATA
  3 .ARM.extab    00000000  08002324  08002324  0002000c  2**0
                  CONTENTS
  4 .ARM          00000008  08002324  08002324  00012324  2**2
                  CONTENTS, ALLOC, LOAD, READONLY, DATA
  5 .preinit_array 00000000  0800232c  0800232c  0002000c  2**0
                  CONTENTS, ALLOC, LOAD, DATA
  6 .init_array   00000004  0800232c  0800232c  0001232c  2**2
                  CONTENTS, ALLOC, LOAD, DATA
  7 .fini_array   00000004  08002330  08002330  00012330  2**2
                  CONTENTS, ALLOC, LOAD, DATA
  8 .data         0000000c  20000000  08002334  00020000  2**2
                  CONTENTS, ALLOC, LOAD, DATA
  9 .ccmram       00000000  10000000  10000000  0002000c  2**0
                  CONTENTS
 10 .bss          000000b4  2000000c  2000000c  0002000c  2**2
                  ALLOC
 11 ._user_heap_stack 00000600  200000c0  200000c0  0002000c  2**0
                  ALLOC
 12 .ARM.attributes 00000030  00000000  00000000  0002000c  2**0
                  CONTENTS, READONLY
 13 .debug_info   0000a2b2  00000000  00000000  0002003c  2**0
                  CONTENTS, READONLY, DEBUGGING, OCTETS
 14 .debug_abbrev 00001730  00000000  00000000  0002a2ee  2**0
                  CONTENTS, READONLY, DEBUGGING, OCTETS
 15 .debug_aranges 00000998  00000000  00000000  0002ba20  2**3
                  CONTENTS, READONLY, DEBUGGING, OCTETS
 16 .debug_ranges 000008e0  00000000  00000000  0002c3b8  2**3
                  CONTENTS, READONLY, DEBUGGING, OCTETS
 17 .debug_macro  0001fc8f  00000000  00000000  0002cc98  2**0
                  CONTENTS, READONLY, DEBUGGING, OCTETS
 18 .debug_line   0000a378  00000000  00000000  0004c927  2**0
                  CONTENTS, READONLY, DEBUGGING, OCTETS
 19 .debug_str    000c4646  00000000  00000000  00056c9f  2**0
                  CONTENTS, READONLY, DEBUGGING, OCTETS
 20 .comment      00000053  00000000  00000000  0011b2e5  2**0
                  CONTENTS, READONLY
 21 .debug_frame  0000278c  00000000  00000000  0011b338  2**2
                  CONTENTS, READONLY, DEBUGGING, OCTETS

Disassembly of section .text:

08000188 <__do_global_dtors_aux>:
 8000188:	b510      	push	{r4, lr}
 800018a:	4c05      	ldr	r4, [pc, #20]	; (80001a0 <__do_global_dtors_aux+0x18>)
 800018c:	7823      	ldrb	r3, [r4, #0]
 800018e:	b933      	cbnz	r3, 800019e <__do_global_dtors_aux+0x16>
 8000190:	4b04      	ldr	r3, [pc, #16]	; (80001a4 <__do_global_dtors_aux+0x1c>)
 8000192:	b113      	cbz	r3, 800019a <__do_global_dtors_aux+0x12>
 8000194:	4804      	ldr	r0, [pc, #16]	; (80001a8 <__do_global_dtors_aux+0x20>)
 8000196:	f3af 8000 	nop.w
 800019a:	2301      	movs	r3, #1
 800019c:	7023      	strb	r3, [r4, #0]
 800019e:	bd10      	pop	{r4, pc}
 80001a0:	2000000c 	.word	0x2000000c
 80001a4:	00000000 	.word	0x00000000
 80001a8:	080022f4 	.word	0x080022f4

080001ac <frame_dummy>:
 80001ac:	b508      	push	{r3, lr}
 80001ae:	4b03      	ldr	r3, [pc, #12]	; (80001bc <frame_dummy+0x10>)
 80001b0:	b11b      	cbz	r3, 80001ba <frame_dummy+0xe>
 80001b2:	4903      	ldr	r1, [pc, #12]	; (80001c0 <frame_dummy+0x14>)
 80001b4:	4803      	ldr	r0, [pc, #12]	; (80001c4 <frame_dummy+0x18>)
 80001b6:	f3af 8000 	nop.w
 80001ba:	bd08      	pop	{r3, pc}
 80001bc:	00000000 	.word	0x00000000
 80001c0:	20000010 	.word	0x20000010
 80001c4:	080022f4 	.word	0x080022f4

080001c8 <__aeabi_uldivmod>:
 80001c8:	b953      	cbnz	r3, 80001e0 <__aeabi_uldivmod+0x18>
 80001ca:	b94a      	cbnz	r2, 80001e0 <__aeabi_uldivmod+0x18>
 80001cc:	2900      	cmp	r1, #0
 80001ce:	bf08      	it	eq
 80001d0:	2800      	cmpeq	r0, #0
 80001d2:	bf1c      	itt	ne
 80001d4:	f04f 31ff 	movne.w	r1, #4294967295
 80001d8:	f04f 30ff 	movne.w	r0, #4294967295
 80001dc:	f000 b96e 	b.w	80004bc <__aeabi_idiv0>
 80001e0:	f1ad 0c08 	sub.w	ip, sp, #8
 80001e4:	e96d ce04 	strd	ip, lr, [sp, #-16]!
 80001e8:	f000 f806 	bl	80001f8 <__udivmoddi4>
 80001ec:	f8dd e004 	ldr.w	lr, [sp, #4]
 80001f0:	e9dd 2302 	ldrd	r2, r3, [sp, #8]
 80001f4:	b004      	add	sp, #16
 80001f6:	4770      	bx	lr

080001f8 <__udivmoddi4>:
 80001f8:	e92d 47f0 	stmdb	sp!, {r4, r5, r6, r7, r8, r9, sl, lr}
 80001fc:	9d08      	ldr	r5, [sp, #32]
 80001fe:	4604      	mov	r4, r0
 8000200:	468c      	mov	ip, r1
 8000202:	2b00      	cmp	r3, #0
 8000204:	f040 8083 	bne.w	800030e <__udivmoddi4+0x116>
 8000208:	428a      	cmp	r2, r1
 800020a:	4617      	mov	r7, r2
 800020c:	d947      	bls.n	800029e <__udivmoddi4+0xa6>
 800020e:	fab2 f282 	clz	r2, r2
 8000212:	b142      	cbz	r2, 8000226 <__udivmoddi4+0x2e>
 8000214:	f1c2 0020 	rsb	r0, r2, #32
 8000218:	fa24 f000 	lsr.w	r0, r4, r0
 800021c:	4091      	lsls	r1, r2
 800021e:	4097      	lsls	r7, r2
 8000220:	ea40 0c01 	orr.w	ip, r0, r1
 8000224:	4094      	lsls	r4, r2
 8000226:	ea4f 4817 	mov.w	r8, r7, lsr #16
 800022a:	0c23      	lsrs	r3, r4, #16
 800022c:	fbbc f6f8 	udiv	r6, ip, r8
 8000230:	fa1f fe87 	uxth.w	lr, r7
 8000234:	fb08 c116 	mls	r1, r8, r6, ip
 8000238:	ea43 4301 	orr.w	r3, r3, r1, lsl #16
 800023c:	fb06 f10e 	mul.w	r1, r6, lr
 8000240:	4299      	cmp	r1, r3
 8000242:	d909      	bls.n	8000258 <__udivmoddi4+0x60>
 8000244:	18fb      	adds	r3, r7, r3
 8000246:	f106 30ff 	add.w	r0, r6, #4294967295
 800024a:	f080 8119 	bcs.w	8000480 <__udivmoddi4+0x288>
 800024e:	4299      	cmp	r1, r3
 8000250:	f240 8116 	bls.w	8000480 <__udivmoddi4+0x288>
 8000254:	3e02      	subs	r6, #2
 8000256:	443b      	add	r3, r7
 8000258:	1a5b      	subs	r3, r3, r1
 800025a:	b2a4      	uxth	r4, r4
 800025c:	fbb3 f0f8 	udiv	r0, r3, r8
 8000260:	fb08 3310 	mls	r3, r8, r0, r3
 8000264:	ea44 4403 	orr.w	r4, r4, r3, lsl #16
 8000268:	fb00 fe0e 	mul.w	lr, r0, lr
 800026c:	45a6      	cmp	lr, r4
 800026e:	d909      	bls.n	8000284 <__udivmoddi4+0x8c>
 8000270:	193c      	adds	r4, r7, r4
 8000272:	f100 33ff 	add.w	r3, r0, #4294967295
 8000276:	f080 8105 	bcs.w	8000484 <__udivmoddi4+0x28c>
 800027a:	45a6      	cmp	lr, r4
 800027c:	f240 8102 	bls.w	8000484 <__udivmoddi4+0x28c>
 8000280:	3802      	subs	r0, #2
 8000282:	443c      	add	r4, r7
 8000284:	ea40 4006 	orr.w	r0, r0, r6, lsl #16
 8000288:	eba4 040e 	sub.w	r4, r4, lr
 800028c:	2600      	movs	r6, #0
 800028e:	b11d      	cbz	r5, 8000298 <__udivmoddi4+0xa0>
 8000290:	40d4      	lsrs	r4, r2
 8000292:	2300      	movs	r3, #0
 8000294:	e9c5 4300 	strd	r4, r3, [r5]
 8000298:	4631      	mov	r1, r6
 800029a:	e8bd 87f0 	ldmia.w	sp!, {r4, r5, r6, r7, r8, r9, sl, pc}
 800029e:	b902      	cbnz	r2, 80002a2 <__udivmoddi4+0xaa>
 80002a0:	deff      	udf	#255	; 0xff
 80002a2:	fab2 f282 	clz	r2, r2
 80002a6:	2a00      	cmp	r2, #0
 80002a8:	d150      	bne.n	800034c <__udivmoddi4+0x154>
 80002aa:	1bcb      	subs	r3, r1, r7
 80002ac:	ea4f 4e17 	mov.w	lr, r7, lsr #16
 80002b0:	fa1f f887 	uxth.w	r8, r7
 80002b4:	2601      	movs	r6, #1
 80002b6:	fbb3 fcfe 	udiv	ip, r3, lr
 80002ba:	0c21      	lsrs	r1, r4, #16
 80002bc:	fb0e 331c 	mls	r3, lr, ip, r3
 80002c0:	ea41 4103 	orr.w	r1, r1, r3, lsl #16
 80002c4:	fb08 f30c 	mul.w	r3, r8, ip
 80002c8:	428b      	cmp	r3, r1
 80002ca:	d907      	bls.n	80002dc <__udivmoddi4+0xe4>
 80002cc:	1879      	adds	r1, r7, r1
 80002ce:	f10c 30ff 	add.w	r0, ip, #4294967295
 80002d2:	d202      	bcs.n	80002da <__udivmoddi4+0xe2>
 80002d4:	428b      	cmp	r3, r1
 80002d6:	f200 80e9 	bhi.w	80004ac <__udivmoddi4+0x2b4>
 80002da:	4684      	mov	ip, r0
 80002dc:	1ac9      	subs	r1, r1, r3
 80002de:	b2a3      	uxth	r3, r4
 80002e0:	fbb1 f0fe 	udiv	r0, r1, lr
 80002e4:	fb0e 1110 	mls	r1, lr, r0, r1
 80002e8:	ea43 4401 	orr.w	r4, r3, r1, lsl #16
 80002ec:	fb08 f800 	mul.w	r8, r8, r0
 80002f0:	45a0      	cmp	r8, r4
 80002f2:	d907      	bls.n	8000304 <__udivmoddi4+0x10c>
 80002f4:	193c      	adds	r4, r7, r4
 80002f6:	f100 33ff 	add.w	r3, r0, #4294967295
 80002fa:	d202      	bcs.n	8000302 <__udivmoddi4+0x10a>
 80002fc:	45a0      	cmp	r8, r4
 80002fe:	f200 80d9 	bhi.w	80004b4 <__udivmoddi4+0x2bc>
 8000302:	4618      	mov	r0, r3
 8000304:	eba4 0408 	sub.w	r4, r4, r8
 8000308:	ea40 400c 	orr.w	r0, r0, ip, lsl #16
 800030c:	e7bf      	b.n	800028e <__udivmoddi4+0x96>
 800030e:	428b      	cmp	r3, r1
 8000310:	d909      	bls.n	8000326 <__udivmoddi4+0x12e>
 8000312:	2d00      	cmp	r5, #0
 8000314:	f000 80b1 	beq.w	800047a <__udivmoddi4+0x282>
 8000318:	2600      	movs	r6, #0
 800031a:	e9c5 0100 	strd	r0, r1, [r5]
 800031e:	4630      	mov	r0, r6
 8000320:	4631      	mov	r1, r6
 8000322:	e8bd 87f0 	ldmia.w	sp!, {r4, r5, r6, r7, r8, r9, sl, pc}
 8000326:	fab3 f683 	clz	r6, r3
 800032a:	2e00      	cmp	r6, #0
 800032c:	d14a      	bne.n	80003c4 <__udivmoddi4+0x1cc>
 800032e:	428b      	cmp	r3, r1
 8000330:	d302      	bcc.n	8000338 <__udivmoddi4+0x140>
 8000332:	4282      	cmp	r2, r0
 8000334:	f200 80b8 	bhi.w	80004a8 <__udivmoddi4+0x2b0>
 8000338:	1a84      	subs	r4, r0, r2
 800033a:	eb61 0103 	sbc.w	r1, r1, r3
 800033e:	2001      	movs	r0, #1
 8000340:	468c      	mov	ip, r1
 8000342:	2d00      	cmp	r5, #0
 8000344:	d0a8      	beq.n	8000298 <__udivmoddi4+0xa0>
 8000346:	e9c5 4c00 	strd	r4, ip, [r5]
 800034a:	e7a5      	b.n	8000298 <__udivmoddi4+0xa0>
 800034c:	f1c2 0320 	rsb	r3, r2, #32
 8000350:	fa20 f603 	lsr.w	r6, r0, r3
 8000354:	4097      	lsls	r7, r2
 8000356:	fa01 f002 	lsl.w	r0, r1, r2
 800035a:	ea4f 4e17 	mov.w	lr, r7, lsr #16
 800035e:	40d9      	lsrs	r1, r3
 8000360:	4330      	orrs	r0, r6
 8000362:	0c03      	lsrs	r3, r0, #16
 8000364:	fbb1 f6fe 	udiv	r6, r1, lr
 8000368:	fa1f f887 	uxth.w	r8, r7
 800036c:	fb0e 1116 	mls	r1, lr, r6, r1
 8000370:	ea43 4301 	orr.w	r3, r3, r1, lsl #16
 8000374:	fb06 f108 	mul.w	r1, r6, r8
 8000378:	4299      	cmp	r1, r3
 800037a:	fa04 f402 	lsl.w	r4, r4, r2
 800037e:	d909      	bls.n	8000394 <__udivmoddi4+0x19c>
 8000380:	18fb      	adds	r3, r7, r3
 8000382:	f106 3cff 	add.w	ip, r6, #4294967295
 8000386:	f080 808d 	bcs.w	80004a4 <__udivmoddi4+0x2ac>
 800038a:	4299      	cmp	r1, r3
 800038c:	f240 808a 	bls.w	80004a4 <__udivmoddi4+0x2ac>
 8000390:	3e02      	subs	r6, #2
 8000392:	443b      	add	r3, r7
 8000394:	1a5b      	subs	r3, r3, r1
 8000396:	b281      	uxth	r1, r0
 8000398:	fbb3 f0fe 	udiv	r0, r3, lr
 800039c:	fb0e 3310 	mls	r3, lr, r0, r3
 80003a0:	ea41 4103 	orr.w	r1, r1, r3, lsl #16
 80003a4:	fb00 f308 	mul.w	r3, r0, r8
 80003a8:	428b      	cmp	r3, r1
 80003aa:	d907      	bls.n	80003bc <__udivmoddi4+0x1c4>
 80003ac:	1879      	adds	r1, r7, r1
 80003ae:	f100 3cff 	add.w	ip, r0, #4294967295
 80003b2:	d273      	bcs.n	800049c <__udivmoddi4+0x2a4>
 80003b4:	428b      	cmp	r3, r1
 80003b6:	d971      	bls.n	800049c <__udivmoddi4+0x2a4>
 80003b8:	3802      	subs	r0, #2
 80003ba:	4439      	add	r1, r7
 80003bc:	1acb      	subs	r3, r1, r3
 80003be:	ea40 4606 	orr.w	r6, r0, r6, lsl #16
 80003c2:	e778      	b.n	80002b6 <__udivmoddi4+0xbe>
 80003c4:	f1c6 0c20 	rsb	ip, r6, #32
 80003c8:	fa03 f406 	lsl.w	r4, r3, r6
 80003cc:	fa22 f30c 	lsr.w	r3, r2, ip
 80003d0:	431c      	orrs	r4, r3
 80003d2:	fa20 f70c 	lsr.w	r7, r0, ip
 80003d6:	fa01 f306 	lsl.w	r3, r1, r6
 80003da:	ea4f 4e14 	mov.w	lr, r4, lsr #16
 80003de:	fa21 f10c 	lsr.w	r1, r1, ip
 80003e2:	431f      	orrs	r7, r3
 80003e4:	0c3b      	lsrs	r3, r7, #16
 80003e6:	fbb1 f9fe 	udiv	r9, r1, lr
 80003ea:	fa1f f884 	uxth.w	r8, r4
 80003ee:	fb0e 1119 	mls	r1, lr, r9, r1
 80003f2:	ea43 4101 	orr.w	r1, r3, r1, lsl #16
 80003f6:	fb09 fa08 	mul.w	sl, r9, r8
 80003fa:	458a      	cmp	sl, r1
 80003fc:	fa02 f206 	lsl.w	r2, r2, r6
 8000400:	fa00 f306 	lsl.w	r3, r0, r6
 8000404:	d908      	bls.n	8000418 <__udivmoddi4+0x220>
 8000406:	1861      	adds	r1, r4, r1
 8000408:	f109 30ff 	add.w	r0, r9, #4294967295
 800040c:	d248      	bcs.n	80004a0 <__udivmoddi4+0x2a8>
 800040e:	458a      	cmp	sl, r1
 8000410:	d946      	bls.n	80004a0 <__udivmoddi4+0x2a8>
 8000412:	f1a9 0902 	sub.w	r9, r9, #2
 8000416:	4421      	add	r1, r4
 8000418:	eba1 010a 	sub.w	r1, r1, sl
 800041c:	b2bf      	uxth	r7, r7
 800041e:	fbb1 f0fe 	udiv	r0, r1, lr
 8000422:	fb0e 1110 	mls	r1, lr, r0, r1
 8000426:	ea47 4701 	orr.w	r7, r7, r1, lsl #16
 800042a:	fb00 f808 	mul.w	r8, r0, r8
 800042e:	45b8      	cmp	r8, r7
 8000430:	d907      	bls.n	8000442 <__udivmoddi4+0x24a>
 8000432:	19e7      	adds	r7, r4, r7
 8000434:	f100 31ff 	add.w	r1, r0, #4294967295
 8000438:	d22e      	bcs.n	8000498 <__udivmoddi4+0x2a0>
 800043a:	45b8      	cmp	r8, r7
 800043c:	d92c      	bls.n	8000498 <__udivmoddi4+0x2a0>
 800043e:	3802      	subs	r0, #2
 8000440:	4427      	add	r7, r4
 8000442:	ea40 4009 	orr.w	r0, r0, r9, lsl #16
 8000446:	eba7 0708 	sub.w	r7, r7, r8
 800044a:	fba0 8902 	umull	r8, r9, r0, r2
 800044e:	454f      	cmp	r7, r9
 8000450:	46c6      	mov	lr, r8
 8000452:	4649      	mov	r1, r9
 8000454:	d31a      	bcc.n	800048c <__udivmoddi4+0x294>
 8000456:	d017      	beq.n	8000488 <__udivmoddi4+0x290>
 8000458:	b15d      	cbz	r5, 8000472 <__udivmoddi4+0x27a>
 800045a:	ebb3 020e 	subs.w	r2, r3, lr
 800045e:	eb67 0701 	sbc.w	r7, r7, r1
 8000462:	fa07 fc0c 	lsl.w	ip, r7, ip
 8000466:	40f2      	lsrs	r2, r6
 8000468:	ea4c 0202 	orr.w	r2, ip, r2
 800046c:	40f7      	lsrs	r7, r6
 800046e:	e9c5 2700 	strd	r2, r7, [r5]
 8000472:	2600      	movs	r6, #0
 8000474:	4631      	mov	r1, r6
 8000476:	e8bd 87f0 	ldmia.w	sp!, {r4, r5, r6, r7, r8, r9, sl, pc}
 800047a:	462e      	mov	r6, r5
 800047c:	4628      	mov	r0, r5
 800047e:	e70b      	b.n	8000298 <__udivmoddi4+0xa0>
 8000480:	4606      	mov	r6, r0
 8000482:	e6e9      	b.n	8000258 <__udivmoddi4+0x60>
 8000484:	4618      	mov	r0, r3
 8000486:	e6fd      	b.n	8000284 <__udivmoddi4+0x8c>
 8000488:	4543      	cmp	r3, r8
 800048a:	d2e5      	bcs.n	8000458 <__udivmoddi4+0x260>
 800048c:	ebb8 0e02 	subs.w	lr, r8, r2
 8000490:	eb69 0104 	sbc.w	r1, r9, r4
 8000494:	3801      	subs	r0, #1
 8000496:	e7df      	b.n	8000458 <__udivmoddi4+0x260>
 8000498:	4608      	mov	r0, r1
 800049a:	e7d2      	b.n	8000442 <__udivmoddi4+0x24a>
 800049c:	4660      	mov	r0, ip
 800049e:	e78d      	b.n	80003bc <__udivmoddi4+0x1c4>
 80004a0:	4681      	mov	r9, r0
 80004a2:	e7b9      	b.n	8000418 <__udivmoddi4+0x220>
 80004a4:	4666      	mov	r6, ip
 80004a6:	e775      	b.n	8000394 <__udivmoddi4+0x19c>
 80004a8:	4630      	mov	r0, r6
 80004aa:	e74a      	b.n	8000342 <__udivmoddi4+0x14a>
 80004ac:	f1ac 0c02 	sub.w	ip, ip, #2
 80004b0:	4439      	add	r1, r7
 80004b2:	e713      	b.n	80002dc <__udivmoddi4+0xe4>
 80004b4:	3802      	subs	r0, #2
 80004b6:	443c      	add	r4, r7
 80004b8:	e724      	b.n	8000304 <__udivmoddi4+0x10c>
 80004ba:	bf00      	nop

080004bc <__aeabi_idiv0>:
 80004bc:	4770      	bx	lr
 80004be:	bf00      	nop

080004c0 <main>:
  * @brief  The application entry point.
  * @retval int
  */
extern int buttonPressed;
int main(void)
{
 80004c0:	b580      	push	{r7, lr}
 80004c2:	b082      	sub	sp, #8
 80004c4:	af00      	add	r7, sp, #0
  /* USER CODE END 1 */

  /* MCU Configuration--------------------------------------------------------*/

  /* Reset of all peripherals, Initializes the Flash interface and the Systick. */
  HAL_Init();
 80004c6:	f000 fa99 	bl	80009fc <HAL_Init>

  /* USER CODE BEGIN Init */
  /* USER CODE END Init */

  /* Configure the system clock */
  SystemClock_Config();
 80004ca:	f000 f835 	bl	8000538 <SystemClock_Config>
  /* USER CODE BEGIN SysInit */

  /* USER CODE END SysInit */

  /* Initialize all configured peripherals */
  MX_GPIO_Init();
 80004ce:	f000 f8ff 	bl	80006d0 <MX_GPIO_Init>
  MX_TIM2_Init();
 80004d2:	f000 f8af 	bl	8000634 <MX_TIM2_Init>

  /* Initialize interrupts */
  MX_NVIC_Init();
 80004d6:	f000 f899 	bl	800060c <MX_NVIC_Init>

  /* USER CODE END 2 */

  /* Infinite loop */
  /* USER CODE BEGIN WHILE */
  int currentPeriod = 500;
 80004da:	f44f 73fa 	mov.w	r3, #500	; 0x1f4
 80004de:	607b      	str	r3, [r7, #4]
  while (1)
  {
    /* USER CODE END WHILE */
	  if(buttonPressed)
 80004e0:	4b13      	ldr	r3, [pc, #76]	; (8000530 <main+0x70>)
 80004e2:	681b      	ldr	r3, [r3, #0]
 80004e4:	2b00      	cmp	r3, #0
 80004e6:	d019      	beq.n	800051c <main+0x5c>
	  	  {
	  		  buttonPressed = 0;
 80004e8:	4b11      	ldr	r3, [pc, #68]	; (8000530 <main+0x70>)
 80004ea:	2200      	movs	r2, #0
 80004ec:	601a      	str	r2, [r3, #0]
	  		  if(currentPeriod >= 3500){
 80004ee:	687b      	ldr	r3, [r7, #4]
 80004f0:	f640 52ab 	movw	r2, #3499	; 0xdab
 80004f4:	4293      	cmp	r3, r2
 80004f6:	dd03      	ble.n	8000500 <main+0x40>
	  			  currentPeriod=500;
 80004f8:	f44f 73fa 	mov.w	r3, #500	; 0x1f4
 80004fc:	607b      	str	r3, [r7, #4]
 80004fe:	e00d      	b.n	800051c <main+0x5c>
	  		  }
	  		  else if(currentPeriod==1500){
 8000500:	687b      	ldr	r3, [r7, #4]
 8000502:	f240 52dc 	movw	r2, #1500	; 0x5dc
 8000506:	4293      	cmp	r3, r2
 8000508:	d104      	bne.n	8000514 <main+0x54>
	  			  currentPeriod=currentPeriod+2000;
 800050a:	687b      	ldr	r3, [r7, #4]
 800050c:	f503 63fa 	add.w	r3, r3, #2000	; 0x7d0
 8000510:	607b      	str	r3, [r7, #4]
 8000512:	e003      	b.n	800051c <main+0x5c>
	  		  }

	  		  else{
	  			currentPeriod=currentPeriod+1000;
 8000514:	687b      	ldr	r3, [r7, #4]
 8000516:	f503 737a 	add.w	r3, r3, #1000	; 0x3e8
 800051a:	607b      	str	r3, [r7, #4]
	  		  }
	  	  }

	  	  HAL_GPIO_TogglePin(GPIOD,GPIO_PIN_13);
 800051c:	f44f 5100 	mov.w	r1, #8192	; 0x2000
 8000520:	4804      	ldr	r0, [pc, #16]	; (8000534 <main+0x74>)
 8000522:	f000 fd68 	bl	8000ff6 <HAL_GPIO_TogglePin>
	  	  HAL_Delay(currentPeriod);
 8000526:	687b      	ldr	r3, [r7, #4]
 8000528:	4618      	mov	r0, r3
 800052a:	f000 faa9 	bl	8000a80 <HAL_Delay>
	  if(buttonPressed)
 800052e:	e7d7      	b.n	80004e0 <main+0x20>
 8000530:	200000b8 	.word	0x200000b8
 8000534:	40020c00 	.word	0x40020c00

08000538 <SystemClock_Config>:
/**
  * @brief System Clock Configuration
  * @retval None
  */
void SystemClock_Config(void)
{
 8000538:	b580      	push	{r7, lr}
 800053a:	b094      	sub	sp, #80	; 0x50
 800053c:	af00      	add	r7, sp, #0
  RCC_OscInitTypeDef RCC_OscInitStruct = {0};
 800053e:	f107 0320 	add.w	r3, r7, #32
 8000542:	2230      	movs	r2, #48	; 0x30
 8000544:	2100      	movs	r1, #0
 8000546:	4618      	mov	r0, r3
 8000548:	f001 fecc 	bl	80022e4 <memset>
  RCC_ClkInitTypeDef RCC_ClkInitStruct = {0};
 800054c:	f107 030c 	add.w	r3, r7, #12
 8000550:	2200      	movs	r2, #0
 8000552:	601a      	str	r2, [r3, #0]
 8000554:	605a      	str	r2, [r3, #4]
 8000556:	609a      	str	r2, [r3, #8]
 8000558:	60da      	str	r2, [r3, #12]
 800055a:	611a      	str	r2, [r3, #16]

  /** Configure the main internal regulator output voltage
  */
  __HAL_RCC_PWR_CLK_ENABLE();
 800055c:	2300      	movs	r3, #0
 800055e:	60bb      	str	r3, [r7, #8]
 8000560:	4b28      	ldr	r3, [pc, #160]	; (8000604 <SystemClock_Config+0xcc>)
 8000562:	6c1b      	ldr	r3, [r3, #64]	; 0x40
 8000564:	4a27      	ldr	r2, [pc, #156]	; (8000604 <SystemClock_Config+0xcc>)
 8000566:	f043 5380 	orr.w	r3, r3, #268435456	; 0x10000000
 800056a:	6413      	str	r3, [r2, #64]	; 0x40
 800056c:	4b25      	ldr	r3, [pc, #148]	; (8000604 <SystemClock_Config+0xcc>)
 800056e:	6c1b      	ldr	r3, [r3, #64]	; 0x40
 8000570:	f003 5380 	and.w	r3, r3, #268435456	; 0x10000000
 8000574:	60bb      	str	r3, [r7, #8]
 8000576:	68bb      	ldr	r3, [r7, #8]
  __HAL_PWR_VOLTAGESCALING_CONFIG(PWR_REGULATOR_VOLTAGE_SCALE1);
 8000578:	2300      	movs	r3, #0
 800057a:	607b      	str	r3, [r7, #4]
 800057c:	4b22      	ldr	r3, [pc, #136]	; (8000608 <SystemClock_Config+0xd0>)
 800057e:	681b      	ldr	r3, [r3, #0]
 8000580:	4a21      	ldr	r2, [pc, #132]	; (8000608 <SystemClock_Config+0xd0>)
 8000582:	f443 4380 	orr.w	r3, r3, #16384	; 0x4000
 8000586:	6013      	str	r3, [r2, #0]
 8000588:	4b1f      	ldr	r3, [pc, #124]	; (8000608 <SystemClock_Config+0xd0>)
 800058a:	681b      	ldr	r3, [r3, #0]
 800058c:	f403 4380 	and.w	r3, r3, #16384	; 0x4000
 8000590:	607b      	str	r3, [r7, #4]
 8000592:	687b      	ldr	r3, [r7, #4]
  /** Initializes the RCC Oscillators according to the specified parameters
  * in the RCC_OscInitTypeDef structure.
  */
  RCC_OscInitStruct.OscillatorType = RCC_OSCILLATORTYPE_HSI;
 8000594:	2302      	movs	r3, #2
 8000596:	623b      	str	r3, [r7, #32]
  RCC_OscInitStruct.HSIState = RCC_HSI_ON;
 8000598:	2301      	movs	r3, #1
 800059a:	62fb      	str	r3, [r7, #44]	; 0x2c
  RCC_OscInitStruct.HSICalibrationValue = RCC_HSICALIBRATION_DEFAULT;
 800059c:	2310      	movs	r3, #16
 800059e:	633b      	str	r3, [r7, #48]	; 0x30
  RCC_OscInitStruct.PLL.PLLState = RCC_PLL_ON;
 80005a0:	2302      	movs	r3, #2
 80005a2:	63bb      	str	r3, [r7, #56]	; 0x38
  RCC_OscInitStruct.PLL.PLLSource = RCC_PLLSOURCE_HSI;
 80005a4:	2300      	movs	r3, #0
 80005a6:	63fb      	str	r3, [r7, #60]	; 0x3c
  RCC_OscInitStruct.PLL.PLLM = 8;
 80005a8:	2308      	movs	r3, #8
 80005aa:	643b      	str	r3, [r7, #64]	; 0x40
  RCC_OscInitStruct.PLL.PLLN = 72;
 80005ac:	2348      	movs	r3, #72	; 0x48
 80005ae:	647b      	str	r3, [r7, #68]	; 0x44
  RCC_OscInitStruct.PLL.PLLP = RCC_PLLP_DIV2;
 80005b0:	2302      	movs	r3, #2
 80005b2:	64bb      	str	r3, [r7, #72]	; 0x48
  RCC_OscInitStruct.PLL.PLLQ = 7;
 80005b4:	2307      	movs	r3, #7
 80005b6:	64fb      	str	r3, [r7, #76]	; 0x4c
  if (HAL_RCC_OscConfig(&RCC_OscInitStruct) != HAL_OK)
 80005b8:	f107 0320 	add.w	r3, r7, #32
 80005bc:	4618      	mov	r0, r3
 80005be:	f000 fd59 	bl	8001074 <HAL_RCC_OscConfig>
 80005c2:	4603      	mov	r3, r0
 80005c4:	2b00      	cmp	r3, #0
 80005c6:	d001      	beq.n	80005cc <SystemClock_Config+0x94>
  {
    Error_Handler();
 80005c8:	f000 f8e8 	bl	800079c <Error_Handler>
  }
  /** Initializes the CPU, AHB and APB buses clocks
  */
  RCC_ClkInitStruct.ClockType = RCC_CLOCKTYPE_HCLK|RCC_CLOCKTYPE_SYSCLK
 80005cc:	230f      	movs	r3, #15
 80005ce:	60fb      	str	r3, [r7, #12]
                              |RCC_CLOCKTYPE_PCLK1|RCC_CLOCKTYPE_PCLK2;
  RCC_ClkInitStruct.SYSCLKSource = RCC_SYSCLKSOURCE_PLLCLK;
 80005d0:	2302      	movs	r3, #2
 80005d2:	613b      	str	r3, [r7, #16]
  RCC_ClkInitStruct.AHBCLKDivider = RCC_SYSCLK_DIV1;
 80005d4:	2300      	movs	r3, #0
 80005d6:	617b      	str	r3, [r7, #20]
  RCC_ClkInitStruct.APB1CLKDivider = RCC_HCLK_DIV2;
 80005d8:	f44f 5380 	mov.w	r3, #4096	; 0x1000
 80005dc:	61bb      	str	r3, [r7, #24]
  RCC_ClkInitStruct.APB2CLKDivider = RCC_HCLK_DIV2;
 80005de:	f44f 5380 	mov.w	r3, #4096	; 0x1000
 80005e2:	61fb      	str	r3, [r7, #28]

  if (HAL_RCC_ClockConfig(&RCC_ClkInitStruct, FLASH_LATENCY_2) != HAL_OK)
 80005e4:	f107 030c 	add.w	r3, r7, #12
 80005e8:	2102      	movs	r1, #2
 80005ea:	4618      	mov	r0, r3
 80005ec:	f000 ffba 	bl	8001564 <HAL_RCC_ClockConfig>
 80005f0:	4603      	mov	r3, r0
 80005f2:	2b00      	cmp	r3, #0
 80005f4:	d001      	beq.n	80005fa <SystemClock_Config+0xc2>
  {
    Error_Handler();
 80005f6:	f000 f8d1 	bl	800079c <Error_Handler>
  }
}
 80005fa:	bf00      	nop
 80005fc:	3750      	adds	r7, #80	; 0x50
 80005fe:	46bd      	mov	sp, r7
 8000600:	bd80      	pop	{r7, pc}
 8000602:	bf00      	nop
 8000604:	40023800 	.word	0x40023800
 8000608:	40007000 	.word	0x40007000

0800060c <MX_NVIC_Init>:
/**
  * @brief NVIC Configuration.
  * @retval None
  */
static void MX_NVIC_Init(void)
{
 800060c:	b580      	push	{r7, lr}
 800060e:	af00      	add	r7, sp, #0
  /* EXTI0_IRQn interrupt configuration */
  HAL_NVIC_SetPriority(EXTI0_IRQn, 1, 1);
 8000610:	2201      	movs	r2, #1
 8000612:	2101      	movs	r1, #1
 8000614:	2006      	movs	r0, #6
 8000616:	f000 fb0f 	bl	8000c38 <HAL_NVIC_SetPriority>
  HAL_NVIC_EnableIRQ(EXTI0_IRQn);
 800061a:	2006      	movs	r0, #6
 800061c:	f000 fb28 	bl	8000c70 <HAL_NVIC_EnableIRQ>
  /* TIM2_IRQn interrupt configuration */
  HAL_NVIC_SetPriority(TIM2_IRQn, 0, 0);
 8000620:	2200      	movs	r2, #0
 8000622:	2100      	movs	r1, #0
 8000624:	201c      	movs	r0, #28
 8000626:	f000 fb07 	bl	8000c38 <HAL_NVIC_SetPriority>
  HAL_NVIC_EnableIRQ(TIM2_IRQn);
 800062a:	201c      	movs	r0, #28
 800062c:	f000 fb20 	bl	8000c70 <HAL_NVIC_EnableIRQ>
}
 8000630:	bf00      	nop
 8000632:	bd80      	pop	{r7, pc}

08000634 <MX_TIM2_Init>:
  * @brief TIM2 Initialization Function
  * @param None
  * @retval None
  */
static void MX_TIM2_Init(void)
{
 8000634:	b580      	push	{r7, lr}
 8000636:	b086      	sub	sp, #24
 8000638:	af00      	add	r7, sp, #0

  /* USER CODE BEGIN TIM2_Init 0 */

  /* USER CODE END TIM2_Init 0 */

  TIM_ClockConfigTypeDef sClockSourceConfig = {0};
 800063a:	f107 0308 	add.w	r3, r7, #8
 800063e:	2200      	movs	r2, #0
 8000640:	601a      	str	r2, [r3, #0]
 8000642:	605a      	str	r2, [r3, #4]
 8000644:	609a      	str	r2, [r3, #8]
 8000646:	60da      	str	r2, [r3, #12]
  TIM_MasterConfigTypeDef sMasterConfig = {0};
 8000648:	463b      	mov	r3, r7
 800064a:	2200      	movs	r2, #0
 800064c:	601a      	str	r2, [r3, #0]
 800064e:	605a      	str	r2, [r3, #4]

  /* USER CODE BEGIN TIM2_Init 1 */

  /* USER CODE END TIM2_Init 1 */
  htim2.Instance = TIM2;
 8000650:	4b1e      	ldr	r3, [pc, #120]	; (80006cc <MX_TIM2_Init+0x98>)
 8000652:	f04f 4280 	mov.w	r2, #1073741824	; 0x40000000
 8000656:	601a      	str	r2, [r3, #0]
  htim2.Init.Prescaler = 35999;
 8000658:	4b1c      	ldr	r3, [pc, #112]	; (80006cc <MX_TIM2_Init+0x98>)
 800065a:	f648 429f 	movw	r2, #35999	; 0x8c9f
 800065e:	605a      	str	r2, [r3, #4]
  htim2.Init.CounterMode = TIM_COUNTERMODE_UP;
 8000660:	4b1a      	ldr	r3, [pc, #104]	; (80006cc <MX_TIM2_Init+0x98>)
 8000662:	2200      	movs	r2, #0
 8000664:	609a      	str	r2, [r3, #8]
  htim2.Init.Period = 2000;
 8000666:	4b19      	ldr	r3, [pc, #100]	; (80006cc <MX_TIM2_Init+0x98>)
 8000668:	f44f 62fa 	mov.w	r2, #2000	; 0x7d0
 800066c:	60da      	str	r2, [r3, #12]
  htim2.Init.ClockDivision = TIM_CLOCKDIVISION_DIV1;
 800066e:	4b17      	ldr	r3, [pc, #92]	; (80006cc <MX_TIM2_Init+0x98>)
 8000670:	2200      	movs	r2, #0
 8000672:	611a      	str	r2, [r3, #16]
  htim2.Init.AutoReloadPreload = TIM_AUTORELOAD_PRELOAD_DISABLE;
 8000674:	4b15      	ldr	r3, [pc, #84]	; (80006cc <MX_TIM2_Init+0x98>)
 8000676:	2200      	movs	r2, #0
 8000678:	619a      	str	r2, [r3, #24]
  if (HAL_TIM_Base_Init(&htim2) != HAL_OK)
 800067a:	4814      	ldr	r0, [pc, #80]	; (80006cc <MX_TIM2_Init+0x98>)
 800067c:	f001 f98c 	bl	8001998 <HAL_TIM_Base_Init>
 8000680:	4603      	mov	r3, r0
 8000682:	2b00      	cmp	r3, #0
 8000684:	d001      	beq.n	800068a <MX_TIM2_Init+0x56>
  {
    Error_Handler();
 8000686:	f000 f889 	bl	800079c <Error_Handler>
  }
  sClockSourceConfig.ClockSource = TIM_CLOCKSOURCE_INTERNAL;
 800068a:	f44f 5380 	mov.w	r3, #4096	; 0x1000
 800068e:	60bb      	str	r3, [r7, #8]
  if (HAL_TIM_ConfigClockSource(&htim2, &sClockSourceConfig) != HAL_OK)
 8000690:	f107 0308 	add.w	r3, r7, #8
 8000694:	4619      	mov	r1, r3
 8000696:	480d      	ldr	r0, [pc, #52]	; (80006cc <MX_TIM2_Init+0x98>)
 8000698:	f001 fb46 	bl	8001d28 <HAL_TIM_ConfigClockSource>
 800069c:	4603      	mov	r3, r0
 800069e:	2b00      	cmp	r3, #0
 80006a0:	d001      	beq.n	80006a6 <MX_TIM2_Init+0x72>
  {
    Error_Handler();
 80006a2:	f000 f87b 	bl	800079c <Error_Handler>
  }
  sMasterConfig.MasterOutputTrigger = TIM_TRGO_RESET;
 80006a6:	2300      	movs	r3, #0
 80006a8:	603b      	str	r3, [r7, #0]
  sMasterConfig.MasterSlaveMode = TIM_MASTERSLAVEMODE_DISABLE;
 80006aa:	2300      	movs	r3, #0
 80006ac:	607b      	str	r3, [r7, #4]
  if (HAL_TIMEx_MasterConfigSynchronization(&htim2, &sMasterConfig) != HAL_OK)
 80006ae:	463b      	mov	r3, r7
 80006b0:	4619      	mov	r1, r3
 80006b2:	4806      	ldr	r0, [pc, #24]	; (80006cc <MX_TIM2_Init+0x98>)
 80006b4:	f001 fd62 	bl	800217c <HAL_TIMEx_MasterConfigSynchronization>
 80006b8:	4603      	mov	r3, r0
 80006ba:	2b00      	cmp	r3, #0
 80006bc:	d001      	beq.n	80006c2 <MX_TIM2_Init+0x8e>
  {
    Error_Handler();
 80006be:	f000 f86d 	bl	800079c <Error_Handler>
  }
  /* USER CODE BEGIN TIM2_Init 2 */

  /* USER CODE END TIM2_Init 2 */

}
 80006c2:	bf00      	nop
 80006c4:	3718      	adds	r7, #24
 80006c6:	46bd      	mov	sp, r7
 80006c8:	bd80      	pop	{r7, pc}
 80006ca:	bf00      	nop
 80006cc:	20000028 	.word	0x20000028

080006d0 <MX_GPIO_Init>:
  * @brief GPIO Initialization Function
  * @param None
  * @retval None
  */
static void MX_GPIO_Init(void)
{
 80006d0:	b580      	push	{r7, lr}
 80006d2:	b088      	sub	sp, #32
 80006d4:	af00      	add	r7, sp, #0
  GPIO_InitTypeDef GPIO_InitStruct = {0};
 80006d6:	f107 030c 	add.w	r3, r7, #12
 80006da:	2200      	movs	r2, #0
 80006dc:	601a      	str	r2, [r3, #0]
 80006de:	605a      	str	r2, [r3, #4]
 80006e0:	609a      	str	r2, [r3, #8]
 80006e2:	60da      	str	r2, [r3, #12]
 80006e4:	611a      	str	r2, [r3, #16]

  /* GPIO Ports Clock Enable */
  __HAL_RCC_GPIOA_CLK_ENABLE();
 80006e6:	2300      	movs	r3, #0
 80006e8:	60bb      	str	r3, [r7, #8]
 80006ea:	4b20      	ldr	r3, [pc, #128]	; (800076c <MX_GPIO_Init+0x9c>)
 80006ec:	6b1b      	ldr	r3, [r3, #48]	; 0x30
 80006ee:	4a1f      	ldr	r2, [pc, #124]	; (800076c <MX_GPIO_Init+0x9c>)
 80006f0:	f043 0301 	orr.w	r3, r3, #1
 80006f4:	6313      	str	r3, [r2, #48]	; 0x30
 80006f6:	4b1d      	ldr	r3, [pc, #116]	; (800076c <MX_GPIO_Init+0x9c>)
 80006f8:	6b1b      	ldr	r3, [r3, #48]	; 0x30
 80006fa:	f003 0301 	and.w	r3, r3, #1
 80006fe:	60bb      	str	r3, [r7, #8]
 8000700:	68bb      	ldr	r3, [r7, #8]
  __HAL_RCC_GPIOD_CLK_ENABLE();
 8000702:	2300      	movs	r3, #0
 8000704:	607b      	str	r3, [r7, #4]
 8000706:	4b19      	ldr	r3, [pc, #100]	; (800076c <MX_GPIO_Init+0x9c>)
 8000708:	6b1b      	ldr	r3, [r3, #48]	; 0x30
 800070a:	4a18      	ldr	r2, [pc, #96]	; (800076c <MX_GPIO_Init+0x9c>)
 800070c:	f043 0308 	orr.w	r3, r3, #8
 8000710:	6313      	str	r3, [r2, #48]	; 0x30
 8000712:	4b16      	ldr	r3, [pc, #88]	; (800076c <MX_GPIO_Init+0x9c>)
 8000714:	6b1b      	ldr	r3, [r3, #48]	; 0x30
 8000716:	f003 0308 	and.w	r3, r3, #8
 800071a:	607b      	str	r3, [r7, #4]
 800071c:	687b      	ldr	r3, [r7, #4]

  /*Configure GPIO pin Output Level */
  HAL_GPIO_WritePin(GPIOD, Green_Pin|Orange_Pin|Red_Pin|Blue_Pin, GPIO_PIN_RESET);
 800071e:	2200      	movs	r2, #0
 8000720:	f44f 4170 	mov.w	r1, #61440	; 0xf000
 8000724:	4812      	ldr	r0, [pc, #72]	; (8000770 <MX_GPIO_Init+0xa0>)
 8000726:	f000 fc4d 	bl	8000fc4 <HAL_GPIO_WritePin>

  /*Configure GPIO pin : User_button_Pin */
  GPIO_InitStruct.Pin = User_button_Pin;
 800072a:	2301      	movs	r3, #1
 800072c:	60fb      	str	r3, [r7, #12]
  GPIO_InitStruct.Mode = GPIO_MODE_IT_RISING;
 800072e:	f44f 1388 	mov.w	r3, #1114112	; 0x110000
 8000732:	613b      	str	r3, [r7, #16]
  GPIO_InitStruct.Pull = GPIO_NOPULL;
 8000734:	2300      	movs	r3, #0
 8000736:	617b      	str	r3, [r7, #20]
  HAL_GPIO_Init(User_button_GPIO_Port, &GPIO_InitStruct);
 8000738:	f107 030c 	add.w	r3, r7, #12
 800073c:	4619      	mov	r1, r3
 800073e:	480d      	ldr	r0, [pc, #52]	; (8000774 <MX_GPIO_Init+0xa4>)
 8000740:	f000 faa4 	bl	8000c8c <HAL_GPIO_Init>

  /*Configure GPIO pins : Green_Pin Orange_Pin Red_Pin Blue_Pin */
  GPIO_InitStruct.Pin = Green_Pin|Orange_Pin|Red_Pin|Blue_Pin;
 8000744:	f44f 4370 	mov.w	r3, #61440	; 0xf000
 8000748:	60fb      	str	r3, [r7, #12]
  GPIO_InitStruct.Mode = GPIO_MODE_OUTPUT_PP;
 800074a:	2301      	movs	r3, #1
 800074c:	613b      	str	r3, [r7, #16]
  GPIO_InitStruct.Pull = GPIO_NOPULL;
 800074e:	2300      	movs	r3, #0
 8000750:	617b      	str	r3, [r7, #20]
  GPIO_InitStruct.Speed = GPIO_SPEED_FREQ_LOW;
 8000752:	2300      	movs	r3, #0
 8000754:	61bb      	str	r3, [r7, #24]
  HAL_GPIO_Init(GPIOD, &GPIO_InitStruct);
 8000756:	f107 030c 	add.w	r3, r7, #12
 800075a:	4619      	mov	r1, r3
 800075c:	4804      	ldr	r0, [pc, #16]	; (8000770 <MX_GPIO_Init+0xa0>)
 800075e:	f000 fa95 	bl	8000c8c <HAL_GPIO_Init>

}
 8000762:	bf00      	nop
 8000764:	3720      	adds	r7, #32
 8000766:	46bd      	mov	sp, r7
 8000768:	bd80      	pop	{r7, pc}
 800076a:	bf00      	nop
 800076c:	40023800 	.word	0x40023800
 8000770:	40020c00 	.word	0x40020c00
 8000774:	40020000 	.word	0x40020000

08000778 <HAL_TIM_PeriodElapsedCallback>:
  * a global variable "uwTick" used as application time base.
  * @param  htim : TIM handle
  * @retval None
  */
void HAL_TIM_PeriodElapsedCallback(TIM_HandleTypeDef *htim)
{
 8000778:	b580      	push	{r7, lr}
 800077a:	b082      	sub	sp, #8
 800077c:	af00      	add	r7, sp, #0
 800077e:	6078      	str	r0, [r7, #4]
  /* USER CODE BEGIN Callback 0 */

  /* USER CODE END Callback 0 */
  if (htim->Instance == TIM1) {
 8000780:	687b      	ldr	r3, [r7, #4]
 8000782:	681b      	ldr	r3, [r3, #0]
 8000784:	4a04      	ldr	r2, [pc, #16]	; (8000798 <HAL_TIM_PeriodElapsedCallback+0x20>)
 8000786:	4293      	cmp	r3, r2
 8000788:	d101      	bne.n	800078e <HAL_TIM_PeriodElapsedCallback+0x16>
    HAL_IncTick();
 800078a:	f000 f959 	bl	8000a40 <HAL_IncTick>
  }
  /* USER CODE BEGIN Callback 1 */

  /* USER CODE END Callback 1 */
}
 800078e:	bf00      	nop
 8000790:	3708      	adds	r7, #8
 8000792:	46bd      	mov	sp, r7
 8000794:	bd80      	pop	{r7, pc}
 8000796:	bf00      	nop
 8000798:	40010000 	.word	0x40010000

0800079c <Error_Handler>:
/**
  * @brief  This function is executed in case of error occurrence.
  * @retval None
  */
void Error_Handler(void)
{
 800079c:	b480      	push	{r7}
 800079e:	af00      	add	r7, sp, #0
  \details Disables IRQ interrupts by setting the I-bit in the CPSR.
           Can only be executed in Privileged modes.
 */
__STATIC_FORCEINLINE void __disable_irq(void)
{
  __ASM volatile ("cpsid i" : : : "memory");
 80007a0:	b672      	cpsid	i
}
 80007a2:	bf00      	nop
  /* USER CODE BEGIN Error_Handler_Debug */
  /* User can add his own implementation to report the HAL error return state */
  __disable_irq();
  while (1)
 80007a4:	e7fe      	b.n	80007a4 <Error_Handler+0x8>
	...

080007a8 <HAL_MspInit>:
/* USER CODE END 0 */
/**
  * Initializes the Global MSP.
  */
void HAL_MspInit(void)
{
 80007a8:	b580      	push	{r7, lr}
 80007aa:	b082      	sub	sp, #8
 80007ac:	af00      	add	r7, sp, #0
  /* USER CODE BEGIN MspInit 0 */

  /* USER CODE END MspInit 0 */

  __HAL_RCC_SYSCFG_CLK_ENABLE();
 80007ae:	2300      	movs	r3, #0
 80007b0:	607b      	str	r3, [r7, #4]
 80007b2:	4b10      	ldr	r3, [pc, #64]	; (80007f4 <HAL_MspInit+0x4c>)
 80007b4:	6c5b      	ldr	r3, [r3, #68]	; 0x44
 80007b6:	4a0f      	ldr	r2, [pc, #60]	; (80007f4 <HAL_MspInit+0x4c>)
 80007b8:	f443 4380 	orr.w	r3, r3, #16384	; 0x4000
 80007bc:	6453      	str	r3, [r2, #68]	; 0x44
 80007be:	4b0d      	ldr	r3, [pc, #52]	; (80007f4 <HAL_MspInit+0x4c>)
 80007c0:	6c5b      	ldr	r3, [r3, #68]	; 0x44
 80007c2:	f403 4380 	and.w	r3, r3, #16384	; 0x4000
 80007c6:	607b      	str	r3, [r7, #4]
 80007c8:	687b      	ldr	r3, [r7, #4]
  __HAL_RCC_PWR_CLK_ENABLE();
 80007ca:	2300      	movs	r3, #0
 80007cc:	603b      	str	r3, [r7, #0]
 80007ce:	4b09      	ldr	r3, [pc, #36]	; (80007f4 <HAL_MspInit+0x4c>)
 80007d0:	6c1b      	ldr	r3, [r3, #64]	; 0x40
 80007d2:	4a08      	ldr	r2, [pc, #32]	; (80007f4 <HAL_MspInit+0x4c>)
 80007d4:	f043 5380 	orr.w	r3, r3, #268435456	; 0x10000000
 80007d8:	6413      	str	r3, [r2, #64]	; 0x40
 80007da:	4b06      	ldr	r3, [pc, #24]	; (80007f4 <HAL_MspInit+0x4c>)
 80007dc:	6c1b      	ldr	r3, [r3, #64]	; 0x40
 80007de:	f003 5380 	and.w	r3, r3, #268435456	; 0x10000000
 80007e2:	603b      	str	r3, [r7, #0]
 80007e4:	683b      	ldr	r3, [r7, #0]

  HAL_NVIC_SetPriorityGrouping(NVIC_PRIORITYGROUP_1);
 80007e6:	2006      	movs	r0, #6
 80007e8:	f000 fa1b 	bl	8000c22 <HAL_NVIC_SetPriorityGrouping>
  /* System interrupt init*/

  /* USER CODE BEGIN MspInit 1 */

  /* USER CODE END MspInit 1 */
}
 80007ec:	bf00      	nop
 80007ee:	3708      	adds	r7, #8
 80007f0:	46bd      	mov	sp, r7
 80007f2:	bd80      	pop	{r7, pc}
 80007f4:	40023800 	.word	0x40023800

080007f8 <HAL_TIM_Base_MspInit>:
* This function configures the hardware resources used in this example
* @param htim_base: TIM_Base handle pointer
* @retval None
*/
void HAL_TIM_Base_MspInit(TIM_HandleTypeDef* htim_base)
{
 80007f8:	b480      	push	{r7}
 80007fa:	b085      	sub	sp, #20
 80007fc:	af00      	add	r7, sp, #0
 80007fe:	6078      	str	r0, [r7, #4]
  if(htim_base->Instance==TIM2)
 8000800:	687b      	ldr	r3, [r7, #4]
 8000802:	681b      	ldr	r3, [r3, #0]
 8000804:	f1b3 4f80 	cmp.w	r3, #1073741824	; 0x40000000
 8000808:	d10d      	bne.n	8000826 <HAL_TIM_Base_MspInit+0x2e>
  {
  /* USER CODE BEGIN TIM2_MspInit 0 */

  /* USER CODE END TIM2_MspInit 0 */
    /* Peripheral clock enable */
    __HAL_RCC_TIM2_CLK_ENABLE();
 800080a:	2300      	movs	r3, #0
 800080c:	60fb      	str	r3, [r7, #12]
 800080e:	4b09      	ldr	r3, [pc, #36]	; (8000834 <HAL_TIM_Base_MspInit+0x3c>)
 8000810:	6c1b      	ldr	r3, [r3, #64]	; 0x40
 8000812:	4a08      	ldr	r2, [pc, #32]	; (8000834 <HAL_TIM_Base_MspInit+0x3c>)
 8000814:	f043 0301 	orr.w	r3, r3, #1
 8000818:	6413      	str	r3, [r2, #64]	; 0x40
 800081a:	4b06      	ldr	r3, [pc, #24]	; (8000834 <HAL_TIM_Base_MspInit+0x3c>)
 800081c:	6c1b      	ldr	r3, [r3, #64]	; 0x40
 800081e:	f003 0301 	and.w	r3, r3, #1
 8000822:	60fb      	str	r3, [r7, #12]
 8000824:	68fb      	ldr	r3, [r7, #12]
  /* USER CODE BEGIN TIM2_MspInit 1 */

  /* USER CODE END TIM2_MspInit 1 */
  }

}
 8000826:	bf00      	nop
 8000828:	3714      	adds	r7, #20
 800082a:	46bd      	mov	sp, r7
 800082c:	f85d 7b04 	ldr.w	r7, [sp], #4
 8000830:	4770      	bx	lr
 8000832:	bf00      	nop
 8000834:	40023800 	.word	0x40023800

08000838 <HAL_InitTick>:
  *         reset by HAL_Init() or at any time when clock is configured, by HAL_RCC_ClockConfig().
  * @param  TickPriority: Tick interrupt priority.
  * @retval HAL status
  */
HAL_StatusTypeDef HAL_InitTick(uint32_t TickPriority)
{
 8000838:	b580      	push	{r7, lr}
 800083a:	b08c      	sub	sp, #48	; 0x30
 800083c:	af00      	add	r7, sp, #0
 800083e:	6078      	str	r0, [r7, #4]
  RCC_ClkInitTypeDef    clkconfig;
  uint32_t              uwTimclock = 0;
 8000840:	2300      	movs	r3, #0
 8000842:	62fb      	str	r3, [r7, #44]	; 0x2c
  uint32_t              uwPrescalerValue = 0;
 8000844:	2300      	movs	r3, #0
 8000846:	62bb      	str	r3, [r7, #40]	; 0x28
  uint32_t              pFLatency;
  /*Configure the TIM1 IRQ priority */
  HAL_NVIC_SetPriority(TIM1_UP_TIM10_IRQn, TickPriority ,0);
 8000848:	2200      	movs	r2, #0
 800084a:	6879      	ldr	r1, [r7, #4]
 800084c:	2019      	movs	r0, #25
 800084e:	f000 f9f3 	bl	8000c38 <HAL_NVIC_SetPriority>

  /* Enable the TIM1 global Interrupt */
  HAL_NVIC_EnableIRQ(TIM1_UP_TIM10_IRQn);
 8000852:	2019      	movs	r0, #25
 8000854:	f000 fa0c 	bl	8000c70 <HAL_NVIC_EnableIRQ>

  /* Enable TIM1 clock */
  __HAL_RCC_TIM1_CLK_ENABLE();
 8000858:	2300      	movs	r3, #0
 800085a:	60fb      	str	r3, [r7, #12]
 800085c:	4b1f      	ldr	r3, [pc, #124]	; (80008dc <HAL_InitTick+0xa4>)
 800085e:	6c5b      	ldr	r3, [r3, #68]	; 0x44
 8000860:	4a1e      	ldr	r2, [pc, #120]	; (80008dc <HAL_InitTick+0xa4>)
 8000862:	f043 0301 	orr.w	r3, r3, #1
 8000866:	6453      	str	r3, [r2, #68]	; 0x44
 8000868:	4b1c      	ldr	r3, [pc, #112]	; (80008dc <HAL_InitTick+0xa4>)
 800086a:	6c5b      	ldr	r3, [r3, #68]	; 0x44
 800086c:	f003 0301 	and.w	r3, r3, #1
 8000870:	60fb      	str	r3, [r7, #12]
 8000872:	68fb      	ldr	r3, [r7, #12]

  /* Get clock configuration */
  HAL_RCC_GetClockConfig(&clkconfig, &pFLatency);
 8000874:	f107 0210 	add.w	r2, r7, #16
 8000878:	f107 0314 	add.w	r3, r7, #20
 800087c:	4611      	mov	r1, r2
 800087e:	4618      	mov	r0, r3
 8000880:	f001 f858 	bl	8001934 <HAL_RCC_GetClockConfig>

  /* Compute TIM1 clock */
  uwTimclock = 2*HAL_RCC_GetPCLK2Freq();
 8000884:	f001 f842 	bl	800190c <HAL_RCC_GetPCLK2Freq>
 8000888:	4603      	mov	r3, r0
 800088a:	005b      	lsls	r3, r3, #1
 800088c:	62fb      	str	r3, [r7, #44]	; 0x2c
  /* Compute the prescaler value to have TIM1 counter clock equal to 1MHz */
  uwPrescalerValue = (uint32_t) ((uwTimclock / 1000000U) - 1U);
 800088e:	6afb      	ldr	r3, [r7, #44]	; 0x2c
 8000890:	4a13      	ldr	r2, [pc, #76]	; (80008e0 <HAL_InitTick+0xa8>)
 8000892:	fba2 2303 	umull	r2, r3, r2, r3
 8000896:	0c9b      	lsrs	r3, r3, #18
 8000898:	3b01      	subs	r3, #1
 800089a:	62bb      	str	r3, [r7, #40]	; 0x28

  /* Initialize TIM1 */
  htim1.Instance = TIM1;
 800089c:	4b11      	ldr	r3, [pc, #68]	; (80008e4 <HAL_InitTick+0xac>)
 800089e:	4a12      	ldr	r2, [pc, #72]	; (80008e8 <HAL_InitTick+0xb0>)
 80008a0:	601a      	str	r2, [r3, #0]
  + Period = [(TIM1CLK/1000) - 1]. to have a (1/1000) s time base.
  + Prescaler = (uwTimclock/1000000 - 1) to have a 1MHz counter clock.
  + ClockDivision = 0
  + Counter direction = Up
  */
  htim1.Init.Period = (1000000U / 1000U) - 1U;
 80008a2:	4b10      	ldr	r3, [pc, #64]	; (80008e4 <HAL_InitTick+0xac>)
 80008a4:	f240 32e7 	movw	r2, #999	; 0x3e7
 80008a8:	60da      	str	r2, [r3, #12]
  htim1.Init.Prescaler = uwPrescalerValue;
 80008aa:	4a0e      	ldr	r2, [pc, #56]	; (80008e4 <HAL_InitTick+0xac>)
 80008ac:	6abb      	ldr	r3, [r7, #40]	; 0x28
 80008ae:	6053      	str	r3, [r2, #4]
  htim1.Init.ClockDivision = 0;
 80008b0:	4b0c      	ldr	r3, [pc, #48]	; (80008e4 <HAL_InitTick+0xac>)
 80008b2:	2200      	movs	r2, #0
 80008b4:	611a      	str	r2, [r3, #16]
  htim1.Init.CounterMode = TIM_COUNTERMODE_UP;
 80008b6:	4b0b      	ldr	r3, [pc, #44]	; (80008e4 <HAL_InitTick+0xac>)
 80008b8:	2200      	movs	r2, #0
 80008ba:	609a      	str	r2, [r3, #8]

  if(HAL_TIM_Base_Init(&htim1) == HAL_OK)
 80008bc:	4809      	ldr	r0, [pc, #36]	; (80008e4 <HAL_InitTick+0xac>)
 80008be:	f001 f86b 	bl	8001998 <HAL_TIM_Base_Init>
 80008c2:	4603      	mov	r3, r0
 80008c4:	2b00      	cmp	r3, #0
 80008c6:	d104      	bne.n	80008d2 <HAL_InitTick+0x9a>
  {
    /* Start the TIM time Base generation in interrupt mode */
    return HAL_TIM_Base_Start_IT(&htim1);
 80008c8:	4806      	ldr	r0, [pc, #24]	; (80008e4 <HAL_InitTick+0xac>)
 80008ca:	f001 f8b5 	bl	8001a38 <HAL_TIM_Base_Start_IT>
 80008ce:	4603      	mov	r3, r0
 80008d0:	e000      	b.n	80008d4 <HAL_InitTick+0x9c>
  }

  /* Return function status */
  return HAL_ERROR;
 80008d2:	2301      	movs	r3, #1
}
 80008d4:	4618      	mov	r0, r3
 80008d6:	3730      	adds	r7, #48	; 0x30
 80008d8:	46bd      	mov	sp, r7
 80008da:	bd80      	pop	{r7, pc}
 80008dc:	40023800 	.word	0x40023800
 80008e0:	431bde83 	.word	0x431bde83
 80008e4:	20000070 	.word	0x20000070
 80008e8:	40010000 	.word	0x40010000

080008ec <NMI_Handler>:
/******************************************************************************/
/**
  * @brief This function handles Non maskable interrupt.
  */
void NMI_Handler(void)
{
 80008ec:	b480      	push	{r7}
 80008ee:	af00      	add	r7, sp, #0
  /* USER CODE BEGIN NonMaskableInt_IRQn 0 */

  /* USER CODE END NonMaskableInt_IRQn 0 */
  /* USER CODE BEGIN NonMaskableInt_IRQn 1 */
  while (1)
 80008f0:	e7fe      	b.n	80008f0 <NMI_Handler+0x4>

080008f2 <HardFault_Handler>:

/**
  * @brief This function handles Hard fault interrupt.
  */
void HardFault_Handler(void)
{
 80008f2:	b480      	push	{r7}
 80008f4:	af00      	add	r7, sp, #0
  /* USER CODE BEGIN HardFault_IRQn 0 */

  /* USER CODE END HardFault_IRQn 0 */
  while (1)
 80008f6:	e7fe      	b.n	80008f6 <HardFault_Handler+0x4>

080008f8 <MemManage_Handler>:

/**
  * @brief This function handles Memory management fault.
  */
void MemManage_Handler(void)
{
 80008f8:	b480      	push	{r7}
 80008fa:	af00      	add	r7, sp, #0
  /* USER CODE BEGIN MemoryManagement_IRQn 0 */

  /* USER CODE END MemoryManagement_IRQn 0 */
  while (1)
 80008fc:	e7fe      	b.n	80008fc <MemManage_Handler+0x4>

080008fe <BusFault_Handler>:

/**
  * @brief This function handles Pre-fetch fault, memory access fault.
  */
void BusFault_Handler(void)
{
 80008fe:	b480      	push	{r7}
 8000900:	af00      	add	r7, sp, #0
  /* USER CODE BEGIN BusFault_IRQn 0 */

  /* USER CODE END BusFault_IRQn 0 */
  while (1)
 8000902:	e7fe      	b.n	8000902 <BusFault_Handler+0x4>

08000904 <UsageFault_Handler>:

/**
  * @brief This function handles Undefined instruction or illegal state.
  */
void UsageFault_Handler(void)
{
 8000904:	b480      	push	{r7}
 8000906:	af00      	add	r7, sp, #0
  /* USER CODE BEGIN UsageFault_IRQn 0 */

  /* USER CODE END UsageFault_IRQn 0 */
  while (1)
 8000908:	e7fe      	b.n	8000908 <UsageFault_Handler+0x4>

0800090a <SVC_Handler>:

/**
  * @brief This function handles System service call via SWI instruction.
  */
void SVC_Handler(void)
{
 800090a:	b480      	push	{r7}
 800090c:	af00      	add	r7, sp, #0

  /* USER CODE END SVCall_IRQn 0 */
  /* USER CODE BEGIN SVCall_IRQn 1 */

  /* USER CODE END SVCall_IRQn 1 */
}
 800090e:	bf00      	nop
 8000910:	46bd      	mov	sp, r7
 8000912:	f85d 7b04 	ldr.w	r7, [sp], #4
 8000916:	4770      	bx	lr

08000918 <DebugMon_Handler>:

/**
  * @brief This function handles Debug monitor.
  */
void DebugMon_Handler(void)
{
 8000918:	b480      	push	{r7}
 800091a:	af00      	add	r7, sp, #0

  /* USER CODE END DebugMonitor_IRQn 0 */
  /* USER CODE BEGIN DebugMonitor_IRQn 1 */

  /* USER CODE END DebugMonitor_IRQn 1 */
}
 800091c:	bf00      	nop
 800091e:	46bd      	mov	sp, r7
 8000920:	f85d 7b04 	ldr.w	r7, [sp], #4
 8000924:	4770      	bx	lr

08000926 <PendSV_Handler>:

/**
  * @brief This function handles Pendable request for system service.
  */
void PendSV_Handler(void)
{
 8000926:	b480      	push	{r7}
 8000928:	af00      	add	r7, sp, #0

  /* USER CODE END PendSV_IRQn 0 */
  /* USER CODE BEGIN PendSV_IRQn 1 */

  /* USER CODE END PendSV_IRQn 1 */
}
 800092a:	bf00      	nop
 800092c:	46bd      	mov	sp, r7
 800092e:	f85d 7b04 	ldr.w	r7, [sp], #4
 8000932:	4770      	bx	lr

08000934 <SysTick_Handler>:

/**
  * @brief This function handles System tick timer.
  */
void SysTick_Handler(void)
{
 8000934:	b480      	push	{r7}
 8000936:	af00      	add	r7, sp, #0
  /* USER CODE END SysTick_IRQn 0 */

  /* USER CODE BEGIN SysTick_IRQn 1 */

  /* USER CODE END SysTick_IRQn 1 */
}
 8000938:	bf00      	nop
 800093a:	46bd      	mov	sp, r7
 800093c:	f85d 7b04 	ldr.w	r7, [sp], #4
 8000940:	4770      	bx	lr
	...

08000944 <EXTI0_IRQHandler>:
/**
  * @brief This function handles EXTI line0 interrupt.
  */
int buttonPressed;
void EXTI0_IRQHandler(void)
{
 8000944:	b580      	push	{r7, lr}
 8000946:	af00      	add	r7, sp, #0
  /* USER CODE BEGIN EXTI0_IRQn 0 */
	buttonPressed = 1;
 8000948:	4b03      	ldr	r3, [pc, #12]	; (8000958 <EXTI0_IRQHandler+0x14>)
 800094a:	2201      	movs	r2, #1
 800094c:	601a      	str	r2, [r3, #0]
  /* USER CODE END EXTI0_IRQn 0 */
  HAL_GPIO_EXTI_IRQHandler(GPIO_PIN_0);
 800094e:	2001      	movs	r0, #1
 8000950:	f000 fb6c 	bl	800102c <HAL_GPIO_EXTI_IRQHandler>
  /* USER CODE BEGIN EXTI0_IRQn 1 */

  /* USER CODE END EXTI0_IRQn 1 */
}
 8000954:	bf00      	nop
 8000956:	bd80      	pop	{r7, pc}
 8000958:	200000b8 	.word	0x200000b8

0800095c <TIM1_UP_TIM10_IRQHandler>:

/**
  * @brief This function handles TIM1 update interrupt and TIM10 global interrupt.
  */
void TIM1_UP_TIM10_IRQHandler(void)
{
 800095c:	b580      	push	{r7, lr}
 800095e:	af00      	add	r7, sp, #0
  /* USER CODE BEGIN TIM1_UP_TIM10_IRQn 0 */

  /* USER CODE END TIM1_UP_TIM10_IRQn 0 */
  HAL_TIM_IRQHandler(&htim1);
 8000960:	4802      	ldr	r0, [pc, #8]	; (800096c <TIM1_UP_TIM10_IRQHandler+0x10>)
 8000962:	f001 f8d9 	bl	8001b18 <HAL_TIM_IRQHandler>
  /* USER CODE BEGIN TIM1_UP_TIM10_IRQn 1 */

  /* USER CODE END TIM1_UP_TIM10_IRQn 1 */
}
 8000966:	bf00      	nop
 8000968:	bd80      	pop	{r7, pc}
 800096a:	bf00      	nop
 800096c:	20000070 	.word	0x20000070

08000970 <TIM2_IRQHandler>:

/**
  * @brief This function handles TIM2 global interrupt.
  */
void TIM2_IRQHandler(void)
{
 8000970:	b580      	push	{r7, lr}
 8000972:	af00      	add	r7, sp, #0
  /* USER CODE BEGIN TIM2_IRQn 0 */

  /* USER CODE END TIM2_IRQn 0 */
  HAL_TIM_IRQHandler(&htim2);
 8000974:	4802      	ldr	r0, [pc, #8]	; (8000980 <TIM2_IRQHandler+0x10>)
 8000976:	f001 f8cf 	bl	8001b18 <HAL_TIM_IRQHandler>
  /* USER CODE BEGIN TIM2_IRQn 1 */

  /* USER CODE END TIM2_IRQn 1 */
}
 800097a:	bf00      	nop
 800097c:	bd80      	pop	{r7, pc}
 800097e:	bf00      	nop
 8000980:	20000028 	.word	0x20000028

08000984 <SystemInit>:
  *         configuration.
  * @param  None
  * @retval None
  */
void SystemInit(void)
{
 8000984:	b480      	push	{r7}
 8000986:	af00      	add	r7, sp, #0
  /* FPU settings ------------------------------------------------------------*/
  #if (__FPU_PRESENT == 1) && (__FPU_USED == 1)
    SCB->CPACR |= ((3UL << 10*2)|(3UL << 11*2));  /* set CP10 and CP11 Full Access */
 8000988:	4b06      	ldr	r3, [pc, #24]	; (80009a4 <SystemInit+0x20>)
 800098a:	f8d3 3088 	ldr.w	r3, [r3, #136]	; 0x88
 800098e:	4a05      	ldr	r2, [pc, #20]	; (80009a4 <SystemInit+0x20>)
 8000990:	f443 0370 	orr.w	r3, r3, #15728640	; 0xf00000
 8000994:	f8c2 3088 	str.w	r3, [r2, #136]	; 0x88

  /* Configure the Vector Table location -------------------------------------*/
#if defined(USER_VECT_TAB_ADDRESS)
  SCB->VTOR = VECT_TAB_BASE_ADDRESS | VECT_TAB_OFFSET; /* Vector Table Relocation in Internal SRAM */
#endif /* USER_VECT_TAB_ADDRESS */
}
 8000998:	bf00      	nop
 800099a:	46bd      	mov	sp, r7
 800099c:	f85d 7b04 	ldr.w	r7, [sp], #4
 80009a0:	4770      	bx	lr
 80009a2:	bf00      	nop
 80009a4:	e000ed00 	.word	0xe000ed00

080009a8 <Reset_Handler>:

    .section  .text.Reset_Handler
  .weak  Reset_Handler
  .type  Reset_Handler, %function
Reset_Handler:  
  ldr   sp, =_estack     /* set stack pointer */
 80009a8:	f8df d034 	ldr.w	sp, [pc, #52]	; 80009e0 <LoopFillZerobss+0x12>

/* Copy the data segment initializers from flash to SRAM */  
  ldr r0, =_sdata
 80009ac:	480d      	ldr	r0, [pc, #52]	; (80009e4 <LoopFillZerobss+0x16>)
  ldr r1, =_edata
 80009ae:	490e      	ldr	r1, [pc, #56]	; (80009e8 <LoopFillZerobss+0x1a>)
  ldr r2, =_sidata
 80009b0:	4a0e      	ldr	r2, [pc, #56]	; (80009ec <LoopFillZerobss+0x1e>)
  movs r3, #0
 80009b2:	2300      	movs	r3, #0
  b LoopCopyDataInit
 80009b4:	e002      	b.n	80009bc <LoopCopyDataInit>

080009b6 <CopyDataInit>:

CopyDataInit:
  ldr r4, [r2, r3]
 80009b6:	58d4      	ldr	r4, [r2, r3]
  str r4, [r0, r3]
 80009b8:	50c4      	str	r4, [r0, r3]
  adds r3, r3, #4
 80009ba:	3304      	adds	r3, #4

080009bc <LoopCopyDataInit>:

LoopCopyDataInit:
  adds r4, r0, r3
 80009bc:	18c4      	adds	r4, r0, r3
  cmp r4, r1
 80009be:	428c      	cmp	r4, r1
  bcc CopyDataInit
 80009c0:	d3f9      	bcc.n	80009b6 <CopyDataInit>
  
/* Zero fill the bss segment. */
  ldr r2, =_sbss
 80009c2:	4a0b      	ldr	r2, [pc, #44]	; (80009f0 <LoopFillZerobss+0x22>)
  ldr r4, =_ebss
 80009c4:	4c0b      	ldr	r4, [pc, #44]	; (80009f4 <LoopFillZerobss+0x26>)
  movs r3, #0
 80009c6:	2300      	movs	r3, #0
  b LoopFillZerobss
 80009c8:	e001      	b.n	80009ce <LoopFillZerobss>

080009ca <FillZerobss>:

FillZerobss:
  str  r3, [r2]
 80009ca:	6013      	str	r3, [r2, #0]
  adds r2, r2, #4
 80009cc:	3204      	adds	r2, #4

080009ce <LoopFillZerobss>:

LoopFillZerobss:
  cmp r2, r4
 80009ce:	42a2      	cmp	r2, r4
  bcc FillZerobss
 80009d0:	d3fb      	bcc.n	80009ca <FillZerobss>

/* Call the clock system intitialization function.*/
  bl  SystemInit   
 80009d2:	f7ff ffd7 	bl	8000984 <SystemInit>
/* Call static constructors */
    bl __libc_init_array
 80009d6:	f001 fc61 	bl	800229c <__libc_init_array>
/* Call the application's entry point.*/
  bl  main
 80009da:	f7ff fd71 	bl	80004c0 <main>
  bx  lr    
 80009de:	4770      	bx	lr
  ldr   sp, =_estack     /* set stack pointer */
 80009e0:	20020000 	.word	0x20020000
  ldr r0, =_sdata
 80009e4:	20000000 	.word	0x20000000
  ldr r1, =_edata
 80009e8:	2000000c 	.word	0x2000000c
  ldr r2, =_sidata
 80009ec:	08002334 	.word	0x08002334
  ldr r2, =_sbss
 80009f0:	2000000c 	.word	0x2000000c
  ldr r4, =_ebss
 80009f4:	200000c0 	.word	0x200000c0

080009f8 <ADC_IRQHandler>:
 * @retval None       
*/
    .section  .text.Default_Handler,"ax",%progbits
Default_Handler:
Infinite_Loop:
  b  Infinite_Loop
 80009f8:	e7fe      	b.n	80009f8 <ADC_IRQHandler>
	...

080009fc <HAL_Init>:
  *         need to ensure that the SysTick time base is always set to 1 millisecond
  *         to have correct HAL operation.
  * @retval HAL status
  */
HAL_StatusTypeDef HAL_Init(void)
{
 80009fc:	b580      	push	{r7, lr}
 80009fe:	af00      	add	r7, sp, #0
  /* Configure Flash prefetch, Instruction cache, Data cache */ 
#if (INSTRUCTION_CACHE_ENABLE != 0U)
  __HAL_FLASH_INSTRUCTION_CACHE_ENABLE();
 8000a00:	4b0e      	ldr	r3, [pc, #56]	; (8000a3c <HAL_Init+0x40>)
 8000a02:	681b      	ldr	r3, [r3, #0]
 8000a04:	4a0d      	ldr	r2, [pc, #52]	; (8000a3c <HAL_Init+0x40>)
 8000a06:	f443 7300 	orr.w	r3, r3, #512	; 0x200
 8000a0a:	6013      	str	r3, [r2, #0]
#endif /* INSTRUCTION_CACHE_ENABLE */

#if (DATA_CACHE_ENABLE != 0U)
  __HAL_FLASH_DATA_CACHE_ENABLE();
 8000a0c:	4b0b      	ldr	r3, [pc, #44]	; (8000a3c <HAL_Init+0x40>)
 8000a0e:	681b      	ldr	r3, [r3, #0]
 8000a10:	4a0a      	ldr	r2, [pc, #40]	; (8000a3c <HAL_Init+0x40>)
 8000a12:	f443 6380 	orr.w	r3, r3, #1024	; 0x400
 8000a16:	6013      	str	r3, [r2, #0]
#endif /* DATA_CACHE_ENABLE */

#if (PREFETCH_ENABLE != 0U)
  __HAL_FLASH_PREFETCH_BUFFER_ENABLE();
 8000a18:	4b08      	ldr	r3, [pc, #32]	; (8000a3c <HAL_Init+0x40>)
 8000a1a:	681b      	ldr	r3, [r3, #0]
 8000a1c:	4a07      	ldr	r2, [pc, #28]	; (8000a3c <HAL_Init+0x40>)
 8000a1e:	f443 7380 	orr.w	r3, r3, #256	; 0x100
 8000a22:	6013      	str	r3, [r2, #0]
#endif /* PREFETCH_ENABLE */

  /* Set Interrupt Group Priority */
  HAL_NVIC_SetPriorityGrouping(NVIC_PRIORITYGROUP_4);
 8000a24:	2003      	movs	r0, #3
 8000a26:	f000 f8fc 	bl	8000c22 <HAL_NVIC_SetPriorityGrouping>

  /* Use systick as time base source and configure 1ms tick (default clock after Reset is HSI) */
  HAL_InitTick(TICK_INT_PRIORITY);
 8000a2a:	2000      	movs	r0, #0
 8000a2c:	f7ff ff04 	bl	8000838 <HAL_InitTick>

  /* Init the low level hardware */
  HAL_MspInit();
 8000a30:	f7ff feba 	bl	80007a8 <HAL_MspInit>

  /* Return function status */
  return HAL_OK;
 8000a34:	2300      	movs	r3, #0
}
 8000a36:	4618      	mov	r0, r3
 8000a38:	bd80      	pop	{r7, pc}
 8000a3a:	bf00      	nop
 8000a3c:	40023c00 	.word	0x40023c00

08000a40 <HAL_IncTick>:
 * @note This function is declared as __weak to be overwritten in case of other 
  *      implementations in user file.
  * @retval None
  */
__weak void HAL_IncTick(void)
{
 8000a40:	b480      	push	{r7}
 8000a42:	af00      	add	r7, sp, #0
  uwTick += uwTickFreq;
 8000a44:	4b06      	ldr	r3, [pc, #24]	; (8000a60 <HAL_IncTick+0x20>)
 8000a46:	781b      	ldrb	r3, [r3, #0]
 8000a48:	461a      	mov	r2, r3
 8000a4a:	4b06      	ldr	r3, [pc, #24]	; (8000a64 <HAL_IncTick+0x24>)
 8000a4c:	681b      	ldr	r3, [r3, #0]
 8000a4e:	4413      	add	r3, r2
 8000a50:	4a04      	ldr	r2, [pc, #16]	; (8000a64 <HAL_IncTick+0x24>)
 8000a52:	6013      	str	r3, [r2, #0]
}
 8000a54:	bf00      	nop
 8000a56:	46bd      	mov	sp, r7
 8000a58:	f85d 7b04 	ldr.w	r7, [sp], #4
 8000a5c:	4770      	bx	lr
 8000a5e:	bf00      	nop
 8000a60:	20000008 	.word	0x20000008
 8000a64:	200000bc 	.word	0x200000bc

08000a68 <HAL_GetTick>:
  * @note This function is declared as __weak to be overwritten in case of other 
  *       implementations in user file.
  * @retval tick value
  */
__weak uint32_t HAL_GetTick(void)
{
 8000a68:	b480      	push	{r7}
 8000a6a:	af00      	add	r7, sp, #0
  return uwTick;
 8000a6c:	4b03      	ldr	r3, [pc, #12]	; (8000a7c <HAL_GetTick+0x14>)
 8000a6e:	681b      	ldr	r3, [r3, #0]
}
 8000a70:	4618      	mov	r0, r3
 8000a72:	46bd      	mov	sp, r7
 8000a74:	f85d 7b04 	ldr.w	r7, [sp], #4
 8000a78:	4770      	bx	lr
 8000a7a:	bf00      	nop
 8000a7c:	200000bc 	.word	0x200000bc

08000a80 <HAL_Delay>:
  *       implementations in user file.
  * @param Delay specifies the delay time length, in milliseconds.
  * @retval None
  */
__weak void HAL_Delay(uint32_t Delay)
{
 8000a80:	b580      	push	{r7, lr}
 8000a82:	b084      	sub	sp, #16
 8000a84:	af00      	add	r7, sp, #0
 8000a86:	6078      	str	r0, [r7, #4]
  uint32_t tickstart = HAL_GetTick();
 8000a88:	f7ff ffee 	bl	8000a68 <HAL_GetTick>
 8000a8c:	60b8      	str	r0, [r7, #8]
  uint32_t wait = Delay;
 8000a8e:	687b      	ldr	r3, [r7, #4]
 8000a90:	60fb      	str	r3, [r7, #12]

  /* Add a freq to guarantee minimum wait */
  if (wait < HAL_MAX_DELAY)
 8000a92:	68fb      	ldr	r3, [r7, #12]
 8000a94:	f1b3 3fff 	cmp.w	r3, #4294967295
 8000a98:	d005      	beq.n	8000aa6 <HAL_Delay+0x26>
  {
    wait += (uint32_t)(uwTickFreq);
 8000a9a:	4b0a      	ldr	r3, [pc, #40]	; (8000ac4 <HAL_Delay+0x44>)
 8000a9c:	781b      	ldrb	r3, [r3, #0]
 8000a9e:	461a      	mov	r2, r3
 8000aa0:	68fb      	ldr	r3, [r7, #12]
 8000aa2:	4413      	add	r3, r2
 8000aa4:	60fb      	str	r3, [r7, #12]
  }

  while((HAL_GetTick() - tickstart) < wait)
 8000aa6:	bf00      	nop
 8000aa8:	f7ff ffde 	bl	8000a68 <HAL_GetTick>
 8000aac:	4602      	mov	r2, r0
 8000aae:	68bb      	ldr	r3, [r7, #8]
 8000ab0:	1ad3      	subs	r3, r2, r3
 8000ab2:	68fa      	ldr	r2, [r7, #12]
 8000ab4:	429a      	cmp	r2, r3
 8000ab6:	d8f7      	bhi.n	8000aa8 <HAL_Delay+0x28>
  {
  }
}
 8000ab8:	bf00      	nop
 8000aba:	bf00      	nop
 8000abc:	3710      	adds	r7, #16
 8000abe:	46bd      	mov	sp, r7
 8000ac0:	bd80      	pop	{r7, pc}
 8000ac2:	bf00      	nop
 8000ac4:	20000008 	.word	0x20000008

08000ac8 <__NVIC_SetPriorityGrouping>:
           In case of a conflict between priority grouping and available
           priority bits (__NVIC_PRIO_BITS), the smallest possible priority group is set.
  \param [in]      PriorityGroup  Priority grouping field.
 */
__STATIC_INLINE void __NVIC_SetPriorityGrouping(uint32_t PriorityGroup)
{
 8000ac8:	b480      	push	{r7}
 8000aca:	b085      	sub	sp, #20
 8000acc:	af00      	add	r7, sp, #0
 8000ace:	6078      	str	r0, [r7, #4]
  uint32_t reg_value;
  uint32_t PriorityGroupTmp = (PriorityGroup & (uint32_t)0x07UL);             /* only values 0..7 are used          */
 8000ad0:	687b      	ldr	r3, [r7, #4]
 8000ad2:	f003 0307 	and.w	r3, r3, #7
 8000ad6:	60fb      	str	r3, [r7, #12]

  reg_value  =  SCB->AIRCR;                                                   /* read old register configuration    */
 8000ad8:	4b0c      	ldr	r3, [pc, #48]	; (8000b0c <__NVIC_SetPriorityGrouping+0x44>)
 8000ada:	68db      	ldr	r3, [r3, #12]
 8000adc:	60bb      	str	r3, [r7, #8]
  reg_value &= ~((uint32_t)(SCB_AIRCR_VECTKEY_Msk | SCB_AIRCR_PRIGROUP_Msk)); /* clear bits to change               */
 8000ade:	68ba      	ldr	r2, [r7, #8]
 8000ae0:	f64f 03ff 	movw	r3, #63743	; 0xf8ff
 8000ae4:	4013      	ands	r3, r2
 8000ae6:	60bb      	str	r3, [r7, #8]
  reg_value  =  (reg_value                                   |
                ((uint32_t)0x5FAUL << SCB_AIRCR_VECTKEY_Pos) |
                (PriorityGroupTmp << SCB_AIRCR_PRIGROUP_Pos)  );              /* Insert write key and priority group */
 8000ae8:	68fb      	ldr	r3, [r7, #12]
 8000aea:	021a      	lsls	r2, r3, #8
                ((uint32_t)0x5FAUL << SCB_AIRCR_VECTKEY_Pos) |
 8000aec:	68bb      	ldr	r3, [r7, #8]
 8000aee:	4313      	orrs	r3, r2
  reg_value  =  (reg_value                                   |
 8000af0:	f043 63bf 	orr.w	r3, r3, #100139008	; 0x5f80000
 8000af4:	f443 3300 	orr.w	r3, r3, #131072	; 0x20000
 8000af8:	60bb      	str	r3, [r7, #8]
  SCB->AIRCR =  reg_value;
 8000afa:	4a04      	ldr	r2, [pc, #16]	; (8000b0c <__NVIC_SetPriorityGrouping+0x44>)
 8000afc:	68bb      	ldr	r3, [r7, #8]
 8000afe:	60d3      	str	r3, [r2, #12]
}
 8000b00:	bf00      	nop
 8000b02:	3714      	adds	r7, #20
 8000b04:	46bd      	mov	sp, r7
 8000b06:	f85d 7b04 	ldr.w	r7, [sp], #4
 8000b0a:	4770      	bx	lr
 8000b0c:	e000ed00 	.word	0xe000ed00

08000b10 <__NVIC_GetPriorityGrouping>:
  \brief   Get Priority Grouping
  \details Reads the priority grouping field from the NVIC Interrupt Controller.
  \return                Priority grouping field (SCB->AIRCR [10:8] PRIGROUP field).
 */
__STATIC_INLINE uint32_t __NVIC_GetPriorityGrouping(void)
{
 8000b10:	b480      	push	{r7}
 8000b12:	af00      	add	r7, sp, #0
  return ((uint32_t)((SCB->AIRCR & SCB_AIRCR_PRIGROUP_Msk) >> SCB_AIRCR_PRIGROUP_Pos));
 8000b14:	4b04      	ldr	r3, [pc, #16]	; (8000b28 <__NVIC_GetPriorityGrouping+0x18>)
 8000b16:	68db      	ldr	r3, [r3, #12]
 8000b18:	0a1b      	lsrs	r3, r3, #8
 8000b1a:	f003 0307 	and.w	r3, r3, #7
}
 8000b1e:	4618      	mov	r0, r3
 8000b20:	46bd      	mov	sp, r7
 8000b22:	f85d 7b04 	ldr.w	r7, [sp], #4
 8000b26:	4770      	bx	lr
 8000b28:	e000ed00 	.word	0xe000ed00

08000b2c <__NVIC_EnableIRQ>:
  \details Enables a device specific interrupt in the NVIC interrupt controller.
  \param [in]      IRQn  Device specific interrupt number.
  \note    IRQn must not be negative.
 */
__STATIC_INLINE void __NVIC_EnableIRQ(IRQn_Type IRQn)
{
 8000b2c:	b480      	push	{r7}
 8000b2e:	b083      	sub	sp, #12
 8000b30:	af00      	add	r7, sp, #0
 8000b32:	4603      	mov	r3, r0
 8000b34:	71fb      	strb	r3, [r7, #7]
  if ((int32_t)(IRQn) >= 0)
 8000b36:	f997 3007 	ldrsb.w	r3, [r7, #7]
 8000b3a:	2b00      	cmp	r3, #0
 8000b3c:	db0b      	blt.n	8000b56 <__NVIC_EnableIRQ+0x2a>
  {
    NVIC->ISER[(((uint32_t)IRQn) >> 5UL)] = (uint32_t)(1UL << (((uint32_t)IRQn) & 0x1FUL));
 8000b3e:	79fb      	ldrb	r3, [r7, #7]
 8000b40:	f003 021f 	and.w	r2, r3, #31
 8000b44:	4907      	ldr	r1, [pc, #28]	; (8000b64 <__NVIC_EnableIRQ+0x38>)
 8000b46:	f997 3007 	ldrsb.w	r3, [r7, #7]
 8000b4a:	095b      	lsrs	r3, r3, #5
 8000b4c:	2001      	movs	r0, #1
 8000b4e:	fa00 f202 	lsl.w	r2, r0, r2
 8000b52:	f841 2023 	str.w	r2, [r1, r3, lsl #2]
  }
}
 8000b56:	bf00      	nop
 8000b58:	370c      	adds	r7, #12
 8000b5a:	46bd      	mov	sp, r7
 8000b5c:	f85d 7b04 	ldr.w	r7, [sp], #4
 8000b60:	4770      	bx	lr
 8000b62:	bf00      	nop
 8000b64:	e000e100 	.word	0xe000e100

08000b68 <__NVIC_SetPriority>:
  \param [in]      IRQn  Interrupt number.
  \param [in]  priority  Priority to set.
  \note    The priority cannot be set for every processor exception.
 */
__STATIC_INLINE void __NVIC_SetPriority(IRQn_Type IRQn, uint32_t priority)
{
 8000b68:	b480      	push	{r7}
 8000b6a:	b083      	sub	sp, #12
 8000b6c:	af00      	add	r7, sp, #0
 8000b6e:	4603      	mov	r3, r0
 8000b70:	6039      	str	r1, [r7, #0]
 8000b72:	71fb      	strb	r3, [r7, #7]
  if ((int32_t)(IRQn) >= 0)
 8000b74:	f997 3007 	ldrsb.w	r3, [r7, #7]
 8000b78:	2b00      	cmp	r3, #0
 8000b7a:	db0a      	blt.n	8000b92 <__NVIC_SetPriority+0x2a>
  {
    NVIC->IP[((uint32_t)IRQn)]               = (uint8_t)((priority << (8U - __NVIC_PRIO_BITS)) & (uint32_t)0xFFUL);
 8000b7c:	683b      	ldr	r3, [r7, #0]
 8000b7e:	b2da      	uxtb	r2, r3
 8000b80:	490c      	ldr	r1, [pc, #48]	; (8000bb4 <__NVIC_SetPriority+0x4c>)
 8000b82:	f997 3007 	ldrsb.w	r3, [r7, #7]
 8000b86:	0112      	lsls	r2, r2, #4
 8000b88:	b2d2      	uxtb	r2, r2
 8000b8a:	440b      	add	r3, r1
 8000b8c:	f883 2300 	strb.w	r2, [r3, #768]	; 0x300
  }
  else
  {
    SCB->SHP[(((uint32_t)IRQn) & 0xFUL)-4UL] = (uint8_t)((priority << (8U - __NVIC_PRIO_BITS)) & (uint32_t)0xFFUL);
  }
}
 8000b90:	e00a      	b.n	8000ba8 <__NVIC_SetPriority+0x40>
    SCB->SHP[(((uint32_t)IRQn) & 0xFUL)-4UL] = (uint8_t)((priority << (8U - __NVIC_PRIO_BITS)) & (uint32_t)0xFFUL);
 8000b92:	683b      	ldr	r3, [r7, #0]
 8000b94:	b2da      	uxtb	r2, r3
 8000b96:	4908      	ldr	r1, [pc, #32]	; (8000bb8 <__NVIC_SetPriority+0x50>)
 8000b98:	79fb      	ldrb	r3, [r7, #7]
 8000b9a:	f003 030f 	and.w	r3, r3, #15
 8000b9e:	3b04      	subs	r3, #4
 8000ba0:	0112      	lsls	r2, r2, #4
 8000ba2:	b2d2      	uxtb	r2, r2
 8000ba4:	440b      	add	r3, r1
 8000ba6:	761a      	strb	r2, [r3, #24]
}
 8000ba8:	bf00      	nop
 8000baa:	370c      	adds	r7, #12
 8000bac:	46bd      	mov	sp, r7
 8000bae:	f85d 7b04 	ldr.w	r7, [sp], #4
 8000bb2:	4770      	bx	lr
 8000bb4:	e000e100 	.word	0xe000e100
 8000bb8:	e000ed00 	.word	0xe000ed00

08000bbc <NVIC_EncodePriority>:
  \param [in]   PreemptPriority  Preemptive priority value (starting from 0).
  \param [in]       SubPriority  Subpriority value (starting from 0).
  \return                        Encoded priority. Value can be used in the function \ref NVIC_SetPriority().
 */
__STATIC_INLINE uint32_t NVIC_EncodePriority (uint32_t PriorityGroup, uint32_t PreemptPriority, uint32_t SubPriority)
{
 8000bbc:	b480      	push	{r7}
 8000bbe:	b089      	sub	sp, #36	; 0x24
 8000bc0:	af00      	add	r7, sp, #0
 8000bc2:	60f8      	str	r0, [r7, #12]
 8000bc4:	60b9      	str	r1, [r7, #8]
 8000bc6:	607a      	str	r2, [r7, #4]
  uint32_t PriorityGroupTmp = (PriorityGroup & (uint32_t)0x07UL);   /* only values 0..7 are used          */
 8000bc8:	68fb      	ldr	r3, [r7, #12]
 8000bca:	f003 0307 	and.w	r3, r3, #7
 8000bce:	61fb      	str	r3, [r7, #28]
  uint32_t PreemptPriorityBits;
  uint32_t SubPriorityBits;

  PreemptPriorityBits = ((7UL - PriorityGroupTmp) > (uint32_t)(__NVIC_PRIO_BITS)) ? (uint32_t)(__NVIC_PRIO_BITS) : (uint32_t)(7UL - PriorityGroupTmp);
 8000bd0:	69fb      	ldr	r3, [r7, #28]
 8000bd2:	f1c3 0307 	rsb	r3, r3, #7
 8000bd6:	2b04      	cmp	r3, #4
 8000bd8:	bf28      	it	cs
 8000bda:	2304      	movcs	r3, #4
 8000bdc:	61bb      	str	r3, [r7, #24]
  SubPriorityBits     = ((PriorityGroupTmp + (uint32_t)(__NVIC_PRIO_BITS)) < (uint32_t)7UL) ? (uint32_t)0UL : (uint32_t)((PriorityGroupTmp - 7UL) + (uint32_t)(__NVIC_PRIO_BITS));
 8000bde:	69fb      	ldr	r3, [r7, #28]
 8000be0:	3304      	adds	r3, #4
 8000be2:	2b06      	cmp	r3, #6
 8000be4:	d902      	bls.n	8000bec <NVIC_EncodePriority+0x30>
 8000be6:	69fb      	ldr	r3, [r7, #28]
 8000be8:	3b03      	subs	r3, #3
 8000bea:	e000      	b.n	8000bee <NVIC_EncodePriority+0x32>
 8000bec:	2300      	movs	r3, #0
 8000bee:	617b      	str	r3, [r7, #20]

  return (
           ((PreemptPriority & (uint32_t)((1UL << (PreemptPriorityBits)) - 1UL)) << SubPriorityBits) |
 8000bf0:	f04f 32ff 	mov.w	r2, #4294967295
 8000bf4:	69bb      	ldr	r3, [r7, #24]
 8000bf6:	fa02 f303 	lsl.w	r3, r2, r3
 8000bfa:	43da      	mvns	r2, r3
 8000bfc:	68bb      	ldr	r3, [r7, #8]
 8000bfe:	401a      	ands	r2, r3
 8000c00:	697b      	ldr	r3, [r7, #20]
 8000c02:	409a      	lsls	r2, r3
           ((SubPriority     & (uint32_t)((1UL << (SubPriorityBits    )) - 1UL)))
 8000c04:	f04f 31ff 	mov.w	r1, #4294967295
 8000c08:	697b      	ldr	r3, [r7, #20]
 8000c0a:	fa01 f303 	lsl.w	r3, r1, r3
 8000c0e:	43d9      	mvns	r1, r3
 8000c10:	687b      	ldr	r3, [r7, #4]
 8000c12:	400b      	ands	r3, r1
           ((PreemptPriority & (uint32_t)((1UL << (PreemptPriorityBits)) - 1UL)) << SubPriorityBits) |
 8000c14:	4313      	orrs	r3, r2
         );
}
 8000c16:	4618      	mov	r0, r3
 8000c18:	3724      	adds	r7, #36	; 0x24
 8000c1a:	46bd      	mov	sp, r7
 8000c1c:	f85d 7b04 	ldr.w	r7, [sp], #4
 8000c20:	4770      	bx	lr

08000c22 <HAL_NVIC_SetPriorityGrouping>:
  * @note   When the NVIC_PriorityGroup_0 is selected, IRQ preemption is no more possible. 
  *         The pending IRQ priority will be managed only by the subpriority. 
  * @retval None
  */
void HAL_NVIC_SetPriorityGrouping(uint32_t PriorityGroup)
{
 8000c22:	b580      	push	{r7, lr}
 8000c24:	b082      	sub	sp, #8
 8000c26:	af00      	add	r7, sp, #0
 8000c28:	6078      	str	r0, [r7, #4]
  /* Check the parameters */
  assert_param(IS_NVIC_PRIORITY_GROUP(PriorityGroup));
  
  /* Set the PRIGROUP[10:8] bits according to the PriorityGroup parameter value */
  NVIC_SetPriorityGrouping(PriorityGroup);
 8000c2a:	6878      	ldr	r0, [r7, #4]
 8000c2c:	f7ff ff4c 	bl	8000ac8 <__NVIC_SetPriorityGrouping>
}
 8000c30:	bf00      	nop
 8000c32:	3708      	adds	r7, #8
 8000c34:	46bd      	mov	sp, r7
 8000c36:	bd80      	pop	{r7, pc}

08000c38 <HAL_NVIC_SetPriority>:
  *         This parameter can be a value between 0 and 15
  *         A lower priority value indicates a higher priority.          
  * @retval None
  */
void HAL_NVIC_SetPriority(IRQn_Type IRQn, uint32_t PreemptPriority, uint32_t SubPriority)
{ 
 8000c38:	b580      	push	{r7, lr}
 8000c3a:	b086      	sub	sp, #24
 8000c3c:	af00      	add	r7, sp, #0
 8000c3e:	4603      	mov	r3, r0
 8000c40:	60b9      	str	r1, [r7, #8]
 8000c42:	607a      	str	r2, [r7, #4]
 8000c44:	73fb      	strb	r3, [r7, #15]
  uint32_t prioritygroup = 0x00U;
 8000c46:	2300      	movs	r3, #0
 8000c48:	617b      	str	r3, [r7, #20]
  
  /* Check the parameters */
  assert_param(IS_NVIC_SUB_PRIORITY(SubPriority));
  assert_param(IS_NVIC_PREEMPTION_PRIORITY(PreemptPriority));
  
  prioritygroup = NVIC_GetPriorityGrouping();
 8000c4a:	f7ff ff61 	bl	8000b10 <__NVIC_GetPriorityGrouping>
 8000c4e:	6178      	str	r0, [r7, #20]
  
  NVIC_SetPriority(IRQn, NVIC_EncodePriority(prioritygroup, PreemptPriority, SubPriority));
 8000c50:	687a      	ldr	r2, [r7, #4]
 8000c52:	68b9      	ldr	r1, [r7, #8]
 8000c54:	6978      	ldr	r0, [r7, #20]
 8000c56:	f7ff ffb1 	bl	8000bbc <NVIC_EncodePriority>
 8000c5a:	4602      	mov	r2, r0
 8000c5c:	f997 300f 	ldrsb.w	r3, [r7, #15]
 8000c60:	4611      	mov	r1, r2
 8000c62:	4618      	mov	r0, r3
 8000c64:	f7ff ff80 	bl	8000b68 <__NVIC_SetPriority>
}
 8000c68:	bf00      	nop
 8000c6a:	3718      	adds	r7, #24
 8000c6c:	46bd      	mov	sp, r7
 8000c6e:	bd80      	pop	{r7, pc}

08000c70 <HAL_NVIC_EnableIRQ>:
  *         This parameter can be an enumerator of IRQn_Type enumeration
  *         (For the complete STM32 Devices IRQ Channels list, please refer to the appropriate CMSIS device file (stm32f4xxxx.h))
  * @retval None
  */
void HAL_NVIC_EnableIRQ(IRQn_Type IRQn)
{
 8000c70:	b580      	push	{r7, lr}
 8000c72:	b082      	sub	sp, #8
 8000c74:	af00      	add	r7, sp, #0
 8000c76:	4603      	mov	r3, r0
 8000c78:	71fb      	strb	r3, [r7, #7]
  /* Check the parameters */
  assert_param(IS_NVIC_DEVICE_IRQ(IRQn));
  
  /* Enable interrupt */
  NVIC_EnableIRQ(IRQn);
 8000c7a:	f997 3007 	ldrsb.w	r3, [r7, #7]
 8000c7e:	4618      	mov	r0, r3
 8000c80:	f7ff ff54 	bl	8000b2c <__NVIC_EnableIRQ>
}
 8000c84:	bf00      	nop
 8000c86:	3708      	adds	r7, #8
 8000c88:	46bd      	mov	sp, r7
 8000c8a:	bd80      	pop	{r7, pc}

08000c8c <HAL_GPIO_Init>:
  * @param  GPIO_Init pointer to a GPIO_InitTypeDef structure that contains
  *         the configuration information for the specified GPIO peripheral.
  * @retval None
  */
void HAL_GPIO_Init(GPIO_TypeDef  *GPIOx, GPIO_InitTypeDef *GPIO_Init)
{
 8000c8c:	b480      	push	{r7}
 8000c8e:	b089      	sub	sp, #36	; 0x24
 8000c90:	af00      	add	r7, sp, #0
 8000c92:	6078      	str	r0, [r7, #4]
 8000c94:	6039      	str	r1, [r7, #0]
  uint32_t position;
  uint32_t ioposition = 0x00U;
 8000c96:	2300      	movs	r3, #0
 8000c98:	617b      	str	r3, [r7, #20]
  uint32_t iocurrent = 0x00U;
 8000c9a:	2300      	movs	r3, #0
 8000c9c:	613b      	str	r3, [r7, #16]
  uint32_t temp = 0x00U;
 8000c9e:	2300      	movs	r3, #0
 8000ca0:	61bb      	str	r3, [r7, #24]
  assert_param(IS_GPIO_ALL_INSTANCE(GPIOx));
  assert_param(IS_GPIO_PIN(GPIO_Init->Pin));
  assert_param(IS_GPIO_MODE(GPIO_Init->Mode));

  /* Configure the port pins */
  for(position = 0U; position < GPIO_NUMBER; position++)
 8000ca2:	2300      	movs	r3, #0
 8000ca4:	61fb      	str	r3, [r7, #28]
 8000ca6:	e16b      	b.n	8000f80 <HAL_GPIO_Init+0x2f4>
  {
    /* Get the IO position */
    ioposition = 0x01U << position;
 8000ca8:	2201      	movs	r2, #1
 8000caa:	69fb      	ldr	r3, [r7, #28]
 8000cac:	fa02 f303 	lsl.w	r3, r2, r3
 8000cb0:	617b      	str	r3, [r7, #20]
    /* Get the current IO position */
    iocurrent = (uint32_t)(GPIO_Init->Pin) & ioposition;
 8000cb2:	683b      	ldr	r3, [r7, #0]
 8000cb4:	681b      	ldr	r3, [r3, #0]
 8000cb6:	697a      	ldr	r2, [r7, #20]
 8000cb8:	4013      	ands	r3, r2
 8000cba:	613b      	str	r3, [r7, #16]

    if(iocurrent == ioposition)
 8000cbc:	693a      	ldr	r2, [r7, #16]
 8000cbe:	697b      	ldr	r3, [r7, #20]
 8000cc0:	429a      	cmp	r2, r3
 8000cc2:	f040 815a 	bne.w	8000f7a <HAL_GPIO_Init+0x2ee>
    {
      /*--------------------- GPIO Mode Configuration ------------------------*/
      /* In case of Output or Alternate function mode selection */
      if(((GPIO_Init->Mode & GPIO_MODE) == MODE_OUTPUT) || \
 8000cc6:	683b      	ldr	r3, [r7, #0]
 8000cc8:	685b      	ldr	r3, [r3, #4]
 8000cca:	f003 0303 	and.w	r3, r3, #3
 8000cce:	2b01      	cmp	r3, #1
 8000cd0:	d005      	beq.n	8000cde <HAL_GPIO_Init+0x52>
          (GPIO_Init->Mode & GPIO_MODE) == MODE_AF)
 8000cd2:	683b      	ldr	r3, [r7, #0]
 8000cd4:	685b      	ldr	r3, [r3, #4]
 8000cd6:	f003 0303 	and.w	r3, r3, #3
      if(((GPIO_Init->Mode & GPIO_MODE) == MODE_OUTPUT) || \
 8000cda:	2b02      	cmp	r3, #2
 8000cdc:	d130      	bne.n	8000d40 <HAL_GPIO_Init+0xb4>
      {
        /* Check the Speed parameter */
        assert_param(IS_GPIO_SPEED(GPIO_Init->Speed));
        /* Configure the IO Speed */
        temp = GPIOx->OSPEEDR; 
 8000cde:	687b      	ldr	r3, [r7, #4]
 8000ce0:	689b      	ldr	r3, [r3, #8]
 8000ce2:	61bb      	str	r3, [r7, #24]
        temp &= ~(GPIO_OSPEEDER_OSPEEDR0 << (position * 2U));
 8000ce4:	69fb      	ldr	r3, [r7, #28]
 8000ce6:	005b      	lsls	r3, r3, #1
 8000ce8:	2203      	movs	r2, #3
 8000cea:	fa02 f303 	lsl.w	r3, r2, r3
 8000cee:	43db      	mvns	r3, r3
 8000cf0:	69ba      	ldr	r2, [r7, #24]
 8000cf2:	4013      	ands	r3, r2
 8000cf4:	61bb      	str	r3, [r7, #24]
        temp |= (GPIO_Init->Speed << (position * 2U));
 8000cf6:	683b      	ldr	r3, [r7, #0]
 8000cf8:	68da      	ldr	r2, [r3, #12]
 8000cfa:	69fb      	ldr	r3, [r7, #28]
 8000cfc:	005b      	lsls	r3, r3, #1
 8000cfe:	fa02 f303 	lsl.w	r3, r2, r3
 8000d02:	69ba      	ldr	r2, [r7, #24]
 8000d04:	4313      	orrs	r3, r2
 8000d06:	61bb      	str	r3, [r7, #24]
        GPIOx->OSPEEDR = temp;
 8000d08:	687b      	ldr	r3, [r7, #4]
 8000d0a:	69ba      	ldr	r2, [r7, #24]
 8000d0c:	609a      	str	r2, [r3, #8]

        /* Configure the IO Output Type */
        temp = GPIOx->OTYPER;
 8000d0e:	687b      	ldr	r3, [r7, #4]
 8000d10:	685b      	ldr	r3, [r3, #4]
 8000d12:	61bb      	str	r3, [r7, #24]
        temp &= ~(GPIO_OTYPER_OT_0 << position) ;
 8000d14:	2201      	movs	r2, #1
 8000d16:	69fb      	ldr	r3, [r7, #28]
 8000d18:	fa02 f303 	lsl.w	r3, r2, r3
 8000d1c:	43db      	mvns	r3, r3
 8000d1e:	69ba      	ldr	r2, [r7, #24]
 8000d20:	4013      	ands	r3, r2
 8000d22:	61bb      	str	r3, [r7, #24]
        temp |= (((GPIO_Init->Mode & OUTPUT_TYPE) >> OUTPUT_TYPE_Pos) << position);
 8000d24:	683b      	ldr	r3, [r7, #0]
 8000d26:	685b      	ldr	r3, [r3, #4]
 8000d28:	091b      	lsrs	r3, r3, #4
 8000d2a:	f003 0201 	and.w	r2, r3, #1
 8000d2e:	69fb      	ldr	r3, [r7, #28]
 8000d30:	fa02 f303 	lsl.w	r3, r2, r3
 8000d34:	69ba      	ldr	r2, [r7, #24]
 8000d36:	4313      	orrs	r3, r2
 8000d38:	61bb      	str	r3, [r7, #24]
        GPIOx->OTYPER = temp;
 8000d3a:	687b      	ldr	r3, [r7, #4]
 8000d3c:	69ba      	ldr	r2, [r7, #24]
 8000d3e:	605a      	str	r2, [r3, #4]
       }

      if((GPIO_Init->Mode & GPIO_MODE) != MODE_ANALOG)
 8000d40:	683b      	ldr	r3, [r7, #0]
 8000d42:	685b      	ldr	r3, [r3, #4]
 8000d44:	f003 0303 	and.w	r3, r3, #3
 8000d48:	2b03      	cmp	r3, #3
 8000d4a:	d017      	beq.n	8000d7c <HAL_GPIO_Init+0xf0>
      {
        /* Check the parameters */
        assert_param(IS_GPIO_PULL(GPIO_Init->Pull));
        
        /* Activate the Pull-up or Pull down resistor for the current IO */
        temp = GPIOx->PUPDR;
 8000d4c:	687b      	ldr	r3, [r7, #4]
 8000d4e:	68db      	ldr	r3, [r3, #12]
 8000d50:	61bb      	str	r3, [r7, #24]
        temp &= ~(GPIO_PUPDR_PUPDR0 << (position * 2U));
 8000d52:	69fb      	ldr	r3, [r7, #28]
 8000d54:	005b      	lsls	r3, r3, #1
 8000d56:	2203      	movs	r2, #3
 8000d58:	fa02 f303 	lsl.w	r3, r2, r3
 8000d5c:	43db      	mvns	r3, r3
 8000d5e:	69ba      	ldr	r2, [r7, #24]
 8000d60:	4013      	ands	r3, r2
 8000d62:	61bb      	str	r3, [r7, #24]
        temp |= ((GPIO_Init->Pull) << (position * 2U));
 8000d64:	683b      	ldr	r3, [r7, #0]
 8000d66:	689a      	ldr	r2, [r3, #8]
 8000d68:	69fb      	ldr	r3, [r7, #28]
 8000d6a:	005b      	lsls	r3, r3, #1
 8000d6c:	fa02 f303 	lsl.w	r3, r2, r3
 8000d70:	69ba      	ldr	r2, [r7, #24]
 8000d72:	4313      	orrs	r3, r2
 8000d74:	61bb      	str	r3, [r7, #24]
        GPIOx->PUPDR = temp;
 8000d76:	687b      	ldr	r3, [r7, #4]
 8000d78:	69ba      	ldr	r2, [r7, #24]
 8000d7a:	60da      	str	r2, [r3, #12]
      }

      /* In case of Alternate function mode selection */
      if((GPIO_Init->Mode & GPIO_MODE) == MODE_AF)
 8000d7c:	683b      	ldr	r3, [r7, #0]
 8000d7e:	685b      	ldr	r3, [r3, #4]
 8000d80:	f003 0303 	and.w	r3, r3, #3
 8000d84:	2b02      	cmp	r3, #2
 8000d86:	d123      	bne.n	8000dd0 <HAL_GPIO_Init+0x144>
      {
        /* Check the Alternate function parameter */
        assert_param(IS_GPIO_AF(GPIO_Init->Alternate));
        /* Configure Alternate function mapped with the current IO */
        temp = GPIOx->AFR[position >> 3U];
 8000d88:	69fb      	ldr	r3, [r7, #28]
 8000d8a:	08da      	lsrs	r2, r3, #3
 8000d8c:	687b      	ldr	r3, [r7, #4]
 8000d8e:	3208      	adds	r2, #8
 8000d90:	f853 3022 	ldr.w	r3, [r3, r2, lsl #2]
 8000d94:	61bb      	str	r3, [r7, #24]
        temp &= ~(0xFU << ((uint32_t)(position & 0x07U) * 4U)) ;
 8000d96:	69fb      	ldr	r3, [r7, #28]
 8000d98:	f003 0307 	and.w	r3, r3, #7
 8000d9c:	009b      	lsls	r3, r3, #2
 8000d9e:	220f      	movs	r2, #15
 8000da0:	fa02 f303 	lsl.w	r3, r2, r3
 8000da4:	43db      	mvns	r3, r3
 8000da6:	69ba      	ldr	r2, [r7, #24]
 8000da8:	4013      	ands	r3, r2
 8000daa:	61bb      	str	r3, [r7, #24]
        temp |= ((uint32_t)(GPIO_Init->Alternate) << (((uint32_t)position & 0x07U) * 4U));
 8000dac:	683b      	ldr	r3, [r7, #0]
 8000dae:	691a      	ldr	r2, [r3, #16]
 8000db0:	69fb      	ldr	r3, [r7, #28]
 8000db2:	f003 0307 	and.w	r3, r3, #7
 8000db6:	009b      	lsls	r3, r3, #2
 8000db8:	fa02 f303 	lsl.w	r3, r2, r3
 8000dbc:	69ba      	ldr	r2, [r7, #24]
 8000dbe:	4313      	orrs	r3, r2
 8000dc0:	61bb      	str	r3, [r7, #24]
        GPIOx->AFR[position >> 3U] = temp;
 8000dc2:	69fb      	ldr	r3, [r7, #28]
 8000dc4:	08da      	lsrs	r2, r3, #3
 8000dc6:	687b      	ldr	r3, [r7, #4]
 8000dc8:	3208      	adds	r2, #8
 8000dca:	69b9      	ldr	r1, [r7, #24]
 8000dcc:	f843 1022 	str.w	r1, [r3, r2, lsl #2]
      }

      /* Configure IO Direction mode (Input, Output, Alternate or Analog) */
      temp = GPIOx->MODER;
 8000dd0:	687b      	ldr	r3, [r7, #4]
 8000dd2:	681b      	ldr	r3, [r3, #0]
 8000dd4:	61bb      	str	r3, [r7, #24]
      temp &= ~(GPIO_MODER_MODER0 << (position * 2U));
 8000dd6:	69fb      	ldr	r3, [r7, #28]
 8000dd8:	005b      	lsls	r3, r3, #1
 8000dda:	2203      	movs	r2, #3
 8000ddc:	fa02 f303 	lsl.w	r3, r2, r3
 8000de0:	43db      	mvns	r3, r3
 8000de2:	69ba      	ldr	r2, [r7, #24]
 8000de4:	4013      	ands	r3, r2
 8000de6:	61bb      	str	r3, [r7, #24]
      temp |= ((GPIO_Init->Mode & GPIO_MODE) << (position * 2U));
 8000de8:	683b      	ldr	r3, [r7, #0]
 8000dea:	685b      	ldr	r3, [r3, #4]
 8000dec:	f003 0203 	and.w	r2, r3, #3
 8000df0:	69fb      	ldr	r3, [r7, #28]
 8000df2:	005b      	lsls	r3, r3, #1
 8000df4:	fa02 f303 	lsl.w	r3, r2, r3
 8000df8:	69ba      	ldr	r2, [r7, #24]
 8000dfa:	4313      	orrs	r3, r2
 8000dfc:	61bb      	str	r3, [r7, #24]
      GPIOx->MODER = temp;
 8000dfe:	687b      	ldr	r3, [r7, #4]
 8000e00:	69ba      	ldr	r2, [r7, #24]
 8000e02:	601a      	str	r2, [r3, #0]

      /*--------------------- EXTI Mode Configuration ------------------------*/
      /* Configure the External Interrupt or event for the current IO */
      if((GPIO_Init->Mode & EXTI_MODE) != 0x00U)
 8000e04:	683b      	ldr	r3, [r7, #0]
 8000e06:	685b      	ldr	r3, [r3, #4]
 8000e08:	f403 3340 	and.w	r3, r3, #196608	; 0x30000
 8000e0c:	2b00      	cmp	r3, #0
 8000e0e:	f000 80b4 	beq.w	8000f7a <HAL_GPIO_Init+0x2ee>
      {
        /* Enable SYSCFG Clock */
        __HAL_RCC_SYSCFG_CLK_ENABLE();
 8000e12:	2300      	movs	r3, #0
 8000e14:	60fb      	str	r3, [r7, #12]
 8000e16:	4b60      	ldr	r3, [pc, #384]	; (8000f98 <HAL_GPIO_Init+0x30c>)
 8000e18:	6c5b      	ldr	r3, [r3, #68]	; 0x44
 8000e1a:	4a5f      	ldr	r2, [pc, #380]	; (8000f98 <HAL_GPIO_Init+0x30c>)
 8000e1c:	f443 4380 	orr.w	r3, r3, #16384	; 0x4000
 8000e20:	6453      	str	r3, [r2, #68]	; 0x44
 8000e22:	4b5d      	ldr	r3, [pc, #372]	; (8000f98 <HAL_GPIO_Init+0x30c>)
 8000e24:	6c5b      	ldr	r3, [r3, #68]	; 0x44
 8000e26:	f403 4380 	and.w	r3, r3, #16384	; 0x4000
 8000e2a:	60fb      	str	r3, [r7, #12]
 8000e2c:	68fb      	ldr	r3, [r7, #12]

        temp = SYSCFG->EXTICR[position >> 2U];
 8000e2e:	4a5b      	ldr	r2, [pc, #364]	; (8000f9c <HAL_GPIO_Init+0x310>)
 8000e30:	69fb      	ldr	r3, [r7, #28]
 8000e32:	089b      	lsrs	r3, r3, #2
 8000e34:	3302      	adds	r3, #2
 8000e36:	f852 3023 	ldr.w	r3, [r2, r3, lsl #2]
 8000e3a:	61bb      	str	r3, [r7, #24]
        temp &= ~(0x0FU << (4U * (position & 0x03U)));
 8000e3c:	69fb      	ldr	r3, [r7, #28]
 8000e3e:	f003 0303 	and.w	r3, r3, #3
 8000e42:	009b      	lsls	r3, r3, #2
 8000e44:	220f      	movs	r2, #15
 8000e46:	fa02 f303 	lsl.w	r3, r2, r3
 8000e4a:	43db      	mvns	r3, r3
 8000e4c:	69ba      	ldr	r2, [r7, #24]
 8000e4e:	4013      	ands	r3, r2
 8000e50:	61bb      	str	r3, [r7, #24]
        temp |= ((uint32_t)(GPIO_GET_INDEX(GPIOx)) << (4U * (position & 0x03U)));
 8000e52:	687b      	ldr	r3, [r7, #4]
 8000e54:	4a52      	ldr	r2, [pc, #328]	; (8000fa0 <HAL_GPIO_Init+0x314>)
 8000e56:	4293      	cmp	r3, r2
 8000e58:	d02b      	beq.n	8000eb2 <HAL_GPIO_Init+0x226>
 8000e5a:	687b      	ldr	r3, [r7, #4]
 8000e5c:	4a51      	ldr	r2, [pc, #324]	; (8000fa4 <HAL_GPIO_Init+0x318>)
 8000e5e:	4293      	cmp	r3, r2
 8000e60:	d025      	beq.n	8000eae <HAL_GPIO_Init+0x222>
 8000e62:	687b      	ldr	r3, [r7, #4]
 8000e64:	4a50      	ldr	r2, [pc, #320]	; (8000fa8 <HAL_GPIO_Init+0x31c>)
 8000e66:	4293      	cmp	r3, r2
 8000e68:	d01f      	beq.n	8000eaa <HAL_GPIO_Init+0x21e>
 8000e6a:	687b      	ldr	r3, [r7, #4]
 8000e6c:	4a4f      	ldr	r2, [pc, #316]	; (8000fac <HAL_GPIO_Init+0x320>)
 8000e6e:	4293      	cmp	r3, r2
 8000e70:	d019      	beq.n	8000ea6 <HAL_GPIO_Init+0x21a>
 8000e72:	687b      	ldr	r3, [r7, #4]
 8000e74:	4a4e      	ldr	r2, [pc, #312]	; (8000fb0 <HAL_GPIO_Init+0x324>)
 8000e76:	4293      	cmp	r3, r2
 8000e78:	d013      	beq.n	8000ea2 <HAL_GPIO_Init+0x216>
 8000e7a:	687b      	ldr	r3, [r7, #4]
 8000e7c:	4a4d      	ldr	r2, [pc, #308]	; (8000fb4 <HAL_GPIO_Init+0x328>)
 8000e7e:	4293      	cmp	r3, r2
 8000e80:	d00d      	beq.n	8000e9e <HAL_GPIO_Init+0x212>
 8000e82:	687b      	ldr	r3, [r7, #4]
 8000e84:	4a4c      	ldr	r2, [pc, #304]	; (8000fb8 <HAL_GPIO_Init+0x32c>)
 8000e86:	4293      	cmp	r3, r2
 8000e88:	d007      	beq.n	8000e9a <HAL_GPIO_Init+0x20e>
 8000e8a:	687b      	ldr	r3, [r7, #4]
 8000e8c:	4a4b      	ldr	r2, [pc, #300]	; (8000fbc <HAL_GPIO_Init+0x330>)
 8000e8e:	4293      	cmp	r3, r2
 8000e90:	d101      	bne.n	8000e96 <HAL_GPIO_Init+0x20a>
 8000e92:	2307      	movs	r3, #7
 8000e94:	e00e      	b.n	8000eb4 <HAL_GPIO_Init+0x228>
 8000e96:	2308      	movs	r3, #8
 8000e98:	e00c      	b.n	8000eb4 <HAL_GPIO_Init+0x228>
 8000e9a:	2306      	movs	r3, #6
 8000e9c:	e00a      	b.n	8000eb4 <HAL_GPIO_Init+0x228>
 8000e9e:	2305      	movs	r3, #5
 8000ea0:	e008      	b.n	8000eb4 <HAL_GPIO_Init+0x228>
 8000ea2:	2304      	movs	r3, #4
 8000ea4:	e006      	b.n	8000eb4 <HAL_GPIO_Init+0x228>
 8000ea6:	2303      	movs	r3, #3
 8000ea8:	e004      	b.n	8000eb4 <HAL_GPIO_Init+0x228>
 8000eaa:	2302      	movs	r3, #2
 8000eac:	e002      	b.n	8000eb4 <HAL_GPIO_Init+0x228>
 8000eae:	2301      	movs	r3, #1
 8000eb0:	e000      	b.n	8000eb4 <HAL_GPIO_Init+0x228>
 8000eb2:	2300      	movs	r3, #0
 8000eb4:	69fa      	ldr	r2, [r7, #28]
 8000eb6:	f002 0203 	and.w	r2, r2, #3
 8000eba:	0092      	lsls	r2, r2, #2
 8000ebc:	4093      	lsls	r3, r2
 8000ebe:	69ba      	ldr	r2, [r7, #24]
 8000ec0:	4313      	orrs	r3, r2
 8000ec2:	61bb      	str	r3, [r7, #24]
        SYSCFG->EXTICR[position >> 2U] = temp;
 8000ec4:	4935      	ldr	r1, [pc, #212]	; (8000f9c <HAL_GPIO_Init+0x310>)
 8000ec6:	69fb      	ldr	r3, [r7, #28]
 8000ec8:	089b      	lsrs	r3, r3, #2
 8000eca:	3302      	adds	r3, #2
 8000ecc:	69ba      	ldr	r2, [r7, #24]
 8000ece:	f841 2023 	str.w	r2, [r1, r3, lsl #2]

        /* Clear EXTI line configuration */
        temp = EXTI->IMR;
 8000ed2:	4b3b      	ldr	r3, [pc, #236]	; (8000fc0 <HAL_GPIO_Init+0x334>)
 8000ed4:	681b      	ldr	r3, [r3, #0]
 8000ed6:	61bb      	str	r3, [r7, #24]
        temp &= ~((uint32_t)iocurrent);
 8000ed8:	693b      	ldr	r3, [r7, #16]
 8000eda:	43db      	mvns	r3, r3
 8000edc:	69ba      	ldr	r2, [r7, #24]
 8000ede:	4013      	ands	r3, r2
 8000ee0:	61bb      	str	r3, [r7, #24]
        if((GPIO_Init->Mode & EXTI_IT) != 0x00U)
 8000ee2:	683b      	ldr	r3, [r7, #0]
 8000ee4:	685b      	ldr	r3, [r3, #4]
 8000ee6:	f403 3380 	and.w	r3, r3, #65536	; 0x10000
 8000eea:	2b00      	cmp	r3, #0
 8000eec:	d003      	beq.n	8000ef6 <HAL_GPIO_Init+0x26a>
        {
          temp |= iocurrent;
 8000eee:	69ba      	ldr	r2, [r7, #24]
 8000ef0:	693b      	ldr	r3, [r7, #16]
 8000ef2:	4313      	orrs	r3, r2
 8000ef4:	61bb      	str	r3, [r7, #24]
        }
        EXTI->IMR = temp;
 8000ef6:	4a32      	ldr	r2, [pc, #200]	; (8000fc0 <HAL_GPIO_Init+0x334>)
 8000ef8:	69bb      	ldr	r3, [r7, #24]
 8000efa:	6013      	str	r3, [r2, #0]

        temp = EXTI->EMR;
 8000efc:	4b30      	ldr	r3, [pc, #192]	; (8000fc0 <HAL_GPIO_Init+0x334>)
 8000efe:	685b      	ldr	r3, [r3, #4]
 8000f00:	61bb      	str	r3, [r7, #24]
        temp &= ~((uint32_t)iocurrent);
 8000f02:	693b      	ldr	r3, [r7, #16]
 8000f04:	43db      	mvns	r3, r3
 8000f06:	69ba      	ldr	r2, [r7, #24]
 8000f08:	4013      	ands	r3, r2
 8000f0a:	61bb      	str	r3, [r7, #24]
        if((GPIO_Init->Mode & EXTI_EVT) != 0x00U)
 8000f0c:	683b      	ldr	r3, [r7, #0]
 8000f0e:	685b      	ldr	r3, [r3, #4]
 8000f10:	f403 3300 	and.w	r3, r3, #131072	; 0x20000
 8000f14:	2b00      	cmp	r3, #0
 8000f16:	d003      	beq.n	8000f20 <HAL_GPIO_Init+0x294>
        {
          temp |= iocurrent;
 8000f18:	69ba      	ldr	r2, [r7, #24]
 8000f1a:	693b      	ldr	r3, [r7, #16]
 8000f1c:	4313      	orrs	r3, r2
 8000f1e:	61bb      	str	r3, [r7, #24]
        }
        EXTI->EMR = temp;
 8000f20:	4a27      	ldr	r2, [pc, #156]	; (8000fc0 <HAL_GPIO_Init+0x334>)
 8000f22:	69bb      	ldr	r3, [r7, #24]
 8000f24:	6053      	str	r3, [r2, #4]

        /* Clear Rising Falling edge configuration */
        temp = EXTI->RTSR;
 8000f26:	4b26      	ldr	r3, [pc, #152]	; (8000fc0 <HAL_GPIO_Init+0x334>)
 8000f28:	689b      	ldr	r3, [r3, #8]
 8000f2a:	61bb      	str	r3, [r7, #24]
        temp &= ~((uint32_t)iocurrent);
 8000f2c:	693b      	ldr	r3, [r7, #16]
 8000f2e:	43db      	mvns	r3, r3
 8000f30:	69ba      	ldr	r2, [r7, #24]
 8000f32:	4013      	ands	r3, r2
 8000f34:	61bb      	str	r3, [r7, #24]
        if((GPIO_Init->Mode & TRIGGER_RISING) != 0x00U)
 8000f36:	683b      	ldr	r3, [r7, #0]
 8000f38:	685b      	ldr	r3, [r3, #4]
 8000f3a:	f403 1380 	and.w	r3, r3, #1048576	; 0x100000
 8000f3e:	2b00      	cmp	r3, #0
 8000f40:	d003      	beq.n	8000f4a <HAL_GPIO_Init+0x2be>
        {
          temp |= iocurrent;
 8000f42:	69ba      	ldr	r2, [r7, #24]
 8000f44:	693b      	ldr	r3, [r7, #16]
 8000f46:	4313      	orrs	r3, r2
 8000f48:	61bb      	str	r3, [r7, #24]
        }
        EXTI->RTSR = temp;
 8000f4a:	4a1d      	ldr	r2, [pc, #116]	; (8000fc0 <HAL_GPIO_Init+0x334>)
 8000f4c:	69bb      	ldr	r3, [r7, #24]
 8000f4e:	6093      	str	r3, [r2, #8]

        temp = EXTI->FTSR;
 8000f50:	4b1b      	ldr	r3, [pc, #108]	; (8000fc0 <HAL_GPIO_Init+0x334>)
 8000f52:	68db      	ldr	r3, [r3, #12]
 8000f54:	61bb      	str	r3, [r7, #24]
        temp &= ~((uint32_t)iocurrent);
 8000f56:	693b      	ldr	r3, [r7, #16]
 8000f58:	43db      	mvns	r3, r3
 8000f5a:	69ba      	ldr	r2, [r7, #24]
 8000f5c:	4013      	ands	r3, r2
 8000f5e:	61bb      	str	r3, [r7, #24]
        if((GPIO_Init->Mode & TRIGGER_FALLING) != 0x00U)
 8000f60:	683b      	ldr	r3, [r7, #0]
 8000f62:	685b      	ldr	r3, [r3, #4]
 8000f64:	f403 1300 	and.w	r3, r3, #2097152	; 0x200000
 8000f68:	2b00      	cmp	r3, #0
 8000f6a:	d003      	beq.n	8000f74 <HAL_GPIO_Init+0x2e8>
        {
          temp |= iocurrent;
 8000f6c:	69ba      	ldr	r2, [r7, #24]
 8000f6e:	693b      	ldr	r3, [r7, #16]
 8000f70:	4313      	orrs	r3, r2
 8000f72:	61bb      	str	r3, [r7, #24]
        }
        EXTI->FTSR = temp;
 8000f74:	4a12      	ldr	r2, [pc, #72]	; (8000fc0 <HAL_GPIO_Init+0x334>)
 8000f76:	69bb      	ldr	r3, [r7, #24]
 8000f78:	60d3      	str	r3, [r2, #12]
  for(position = 0U; position < GPIO_NUMBER; position++)
 8000f7a:	69fb      	ldr	r3, [r7, #28]
 8000f7c:	3301      	adds	r3, #1
 8000f7e:	61fb      	str	r3, [r7, #28]
 8000f80:	69fb      	ldr	r3, [r7, #28]
 8000f82:	2b0f      	cmp	r3, #15
 8000f84:	f67f ae90 	bls.w	8000ca8 <HAL_GPIO_Init+0x1c>
      }
    }
  }
}
 8000f88:	bf00      	nop
 8000f8a:	bf00      	nop
 8000f8c:	3724      	adds	r7, #36	; 0x24
 8000f8e:	46bd      	mov	sp, r7
 8000f90:	f85d 7b04 	ldr.w	r7, [sp], #4
 8000f94:	4770      	bx	lr
 8000f96:	bf00      	nop
 8000f98:	40023800 	.word	0x40023800
 8000f9c:	40013800 	.word	0x40013800
 8000fa0:	40020000 	.word	0x40020000
 8000fa4:	40020400 	.word	0x40020400
 8000fa8:	40020800 	.word	0x40020800
 8000fac:	40020c00 	.word	0x40020c00
 8000fb0:	40021000 	.word	0x40021000
 8000fb4:	40021400 	.word	0x40021400
 8000fb8:	40021800 	.word	0x40021800
 8000fbc:	40021c00 	.word	0x40021c00
 8000fc0:	40013c00 	.word	0x40013c00

08000fc4 <HAL_GPIO_WritePin>:
  *            @arg GPIO_PIN_RESET: to clear the port pin
  *            @arg GPIO_PIN_SET: to set the port pin
  * @retval None
  */
void HAL_GPIO_WritePin(GPIO_TypeDef* GPIOx, uint16_t GPIO_Pin, GPIO_PinState PinState)
{
 8000fc4:	b480      	push	{r7}
 8000fc6:	b083      	sub	sp, #12
 8000fc8:	af00      	add	r7, sp, #0
 8000fca:	6078      	str	r0, [r7, #4]
 8000fcc:	460b      	mov	r3, r1
 8000fce:	807b      	strh	r3, [r7, #2]
 8000fd0:	4613      	mov	r3, r2
 8000fd2:	707b      	strb	r3, [r7, #1]
  /* Check the parameters */
  assert_param(IS_GPIO_PIN(GPIO_Pin));
  assert_param(IS_GPIO_PIN_ACTION(PinState));

  if(PinState != GPIO_PIN_RESET)
 8000fd4:	787b      	ldrb	r3, [r7, #1]
 8000fd6:	2b00      	cmp	r3, #0
 8000fd8:	d003      	beq.n	8000fe2 <HAL_GPIO_WritePin+0x1e>
  {
    GPIOx->BSRR = GPIO_Pin;
 8000fda:	887a      	ldrh	r2, [r7, #2]
 8000fdc:	687b      	ldr	r3, [r7, #4]
 8000fde:	619a      	str	r2, [r3, #24]
  }
  else
  {
    GPIOx->BSRR = (uint32_t)GPIO_Pin << 16U;
  }
}
 8000fe0:	e003      	b.n	8000fea <HAL_GPIO_WritePin+0x26>
    GPIOx->BSRR = (uint32_t)GPIO_Pin << 16U;
 8000fe2:	887b      	ldrh	r3, [r7, #2]
 8000fe4:	041a      	lsls	r2, r3, #16
 8000fe6:	687b      	ldr	r3, [r7, #4]
 8000fe8:	619a      	str	r2, [r3, #24]
}
 8000fea:	bf00      	nop
 8000fec:	370c      	adds	r7, #12
 8000fee:	46bd      	mov	sp, r7
 8000ff0:	f85d 7b04 	ldr.w	r7, [sp], #4
 8000ff4:	4770      	bx	lr

08000ff6 <HAL_GPIO_TogglePin>:
  *                      x can be (A..I) to select the GPIO peripheral for STM32F40XX and STM32F427X devices.
  * @param  GPIO_Pin Specifies the pins to be toggled.
  * @retval None
  */
void HAL_GPIO_TogglePin(GPIO_TypeDef* GPIOx, uint16_t GPIO_Pin)
{
 8000ff6:	b480      	push	{r7}
 8000ff8:	b085      	sub	sp, #20
 8000ffa:	af00      	add	r7, sp, #0
 8000ffc:	6078      	str	r0, [r7, #4]
 8000ffe:	460b      	mov	r3, r1
 8001000:	807b      	strh	r3, [r7, #2]

  /* Check the parameters */
  assert_param(IS_GPIO_PIN(GPIO_Pin));

  /* get current Ouput Data Register value */
  odr = GPIOx->ODR;
 8001002:	687b      	ldr	r3, [r7, #4]
 8001004:	695b      	ldr	r3, [r3, #20]
 8001006:	60fb      	str	r3, [r7, #12]

  /* Set selected pins that were at low level, and reset ones that were high */
  GPIOx->BSRR = ((odr & GPIO_Pin) << GPIO_NUMBER) | (~odr & GPIO_Pin);
 8001008:	887a      	ldrh	r2, [r7, #2]
 800100a:	68fb      	ldr	r3, [r7, #12]
 800100c:	4013      	ands	r3, r2
 800100e:	041a      	lsls	r2, r3, #16
 8001010:	68fb      	ldr	r3, [r7, #12]
 8001012:	43d9      	mvns	r1, r3
 8001014:	887b      	ldrh	r3, [r7, #2]
 8001016:	400b      	ands	r3, r1
 8001018:	431a      	orrs	r2, r3
 800101a:	687b      	ldr	r3, [r7, #4]
 800101c:	619a      	str	r2, [r3, #24]
}
 800101e:	bf00      	nop
 8001020:	3714      	adds	r7, #20
 8001022:	46bd      	mov	sp, r7
 8001024:	f85d 7b04 	ldr.w	r7, [sp], #4
 8001028:	4770      	bx	lr
	...

0800102c <HAL_GPIO_EXTI_IRQHandler>:
  * @brief  This function handles EXTI interrupt request.
  * @param  GPIO_Pin Specifies the pins connected EXTI line
  * @retval None
  */
void HAL_GPIO_EXTI_IRQHandler(uint16_t GPIO_Pin)
{
 800102c:	b580      	push	{r7, lr}
 800102e:	b082      	sub	sp, #8
 8001030:	af00      	add	r7, sp, #0
 8001032:	4603      	mov	r3, r0
 8001034:	80fb      	strh	r3, [r7, #6]
  /* EXTI line interrupt detected */
  if(__HAL_GPIO_EXTI_GET_IT(GPIO_Pin) != RESET)
 8001036:	4b08      	ldr	r3, [pc, #32]	; (8001058 <HAL_GPIO_EXTI_IRQHandler+0x2c>)
 8001038:	695a      	ldr	r2, [r3, #20]
 800103a:	88fb      	ldrh	r3, [r7, #6]
 800103c:	4013      	ands	r3, r2
 800103e:	2b00      	cmp	r3, #0
 8001040:	d006      	beq.n	8001050 <HAL_GPIO_EXTI_IRQHandler+0x24>
  {
    __HAL_GPIO_EXTI_CLEAR_IT(GPIO_Pin);
 8001042:	4a05      	ldr	r2, [pc, #20]	; (8001058 <HAL_GPIO_EXTI_IRQHandler+0x2c>)
 8001044:	88fb      	ldrh	r3, [r7, #6]
 8001046:	6153      	str	r3, [r2, #20]
    HAL_GPIO_EXTI_Callback(GPIO_Pin);
 8001048:	88fb      	ldrh	r3, [r7, #6]
 800104a:	4618      	mov	r0, r3
 800104c:	f000 f806 	bl	800105c <HAL_GPIO_EXTI_Callback>
  }
}
 8001050:	bf00      	nop
 8001052:	3708      	adds	r7, #8
 8001054:	46bd      	mov	sp, r7
 8001056:	bd80      	pop	{r7, pc}
 8001058:	40013c00 	.word	0x40013c00

0800105c <HAL_GPIO_EXTI_Callback>:
  * @brief  EXTI line detection callbacks.
  * @param  GPIO_Pin Specifies the pins connected EXTI line
  * @retval None
  */
__weak void HAL_GPIO_EXTI_Callback(uint16_t GPIO_Pin)
{
 800105c:	b480      	push	{r7}
 800105e:	b083      	sub	sp, #12
 8001060:	af00      	add	r7, sp, #0
 8001062:	4603      	mov	r3, r0
 8001064:	80fb      	strh	r3, [r7, #6]
  /* Prevent unused argument(s) compilation warning */
  UNUSED(GPIO_Pin);
  /* NOTE: This function Should not be modified, when the callback is needed,
           the HAL_GPIO_EXTI_Callback could be implemented in the user file
   */
}
 8001066:	bf00      	nop
 8001068:	370c      	adds	r7, #12
 800106a:	46bd      	mov	sp, r7
 800106c:	f85d 7b04 	ldr.w	r7, [sp], #4
 8001070:	4770      	bx	lr
	...

08001074 <HAL_RCC_OscConfig>:
  *         supported by this API. User should request a transition to HSE Off
  *         first and then HSE On or HSE Bypass.
  * @retval HAL status
  */
__weak HAL_StatusTypeDef HAL_RCC_OscConfig(RCC_OscInitTypeDef  *RCC_OscInitStruct)
{
 8001074:	b580      	push	{r7, lr}
 8001076:	b086      	sub	sp, #24
 8001078:	af00      	add	r7, sp, #0
 800107a:	6078      	str	r0, [r7, #4]
  uint32_t tickstart, pll_config;

  /* Check Null pointer */
  if(RCC_OscInitStruct == NULL)
 800107c:	687b      	ldr	r3, [r7, #4]
 800107e:	2b00      	cmp	r3, #0
 8001080:	d101      	bne.n	8001086 <HAL_RCC_OscConfig+0x12>
  {
    return HAL_ERROR;
 8001082:	2301      	movs	r3, #1
 8001084:	e264      	b.n	8001550 <HAL_RCC_OscConfig+0x4dc>
  }

  /* Check the parameters */
  assert_param(IS_RCC_OSCILLATORTYPE(RCC_OscInitStruct->OscillatorType));
  /*------------------------------- HSE Configuration ------------------------*/
  if(((RCC_OscInitStruct->OscillatorType) & RCC_OSCILLATORTYPE_HSE) == RCC_OSCILLATORTYPE_HSE)
 8001086:	687b      	ldr	r3, [r7, #4]
 8001088:	681b      	ldr	r3, [r3, #0]
 800108a:	f003 0301 	and.w	r3, r3, #1
 800108e:	2b00      	cmp	r3, #0
 8001090:	d075      	beq.n	800117e <HAL_RCC_OscConfig+0x10a>
  {
    /* Check the parameters */
    assert_param(IS_RCC_HSE(RCC_OscInitStruct->HSEState));
    /* When the HSE is used as system clock or clock source for PLL in these cases HSE will not disabled */
    if((__HAL_RCC_GET_SYSCLK_SOURCE() == RCC_CFGR_SWS_HSE) ||\
 8001092:	4ba3      	ldr	r3, [pc, #652]	; (8001320 <HAL_RCC_OscConfig+0x2ac>)
 8001094:	689b      	ldr	r3, [r3, #8]
 8001096:	f003 030c 	and.w	r3, r3, #12
 800109a:	2b04      	cmp	r3, #4
 800109c:	d00c      	beq.n	80010b8 <HAL_RCC_OscConfig+0x44>
      ((__HAL_RCC_GET_SYSCLK_SOURCE() == RCC_CFGR_SWS_PLL) && ((RCC->PLLCFGR & RCC_PLLCFGR_PLLSRC) == RCC_PLLCFGR_PLLSRC_HSE)))
 800109e:	4ba0      	ldr	r3, [pc, #640]	; (8001320 <HAL_RCC_OscConfig+0x2ac>)
 80010a0:	689b      	ldr	r3, [r3, #8]
 80010a2:	f003 030c 	and.w	r3, r3, #12
    if((__HAL_RCC_GET_SYSCLK_SOURCE() == RCC_CFGR_SWS_HSE) ||\
 80010a6:	2b08      	cmp	r3, #8
 80010a8:	d112      	bne.n	80010d0 <HAL_RCC_OscConfig+0x5c>
      ((__HAL_RCC_GET_SYSCLK_SOURCE() == RCC_CFGR_SWS_PLL) && ((RCC->PLLCFGR & RCC_PLLCFGR_PLLSRC) == RCC_PLLCFGR_PLLSRC_HSE)))
 80010aa:	4b9d      	ldr	r3, [pc, #628]	; (8001320 <HAL_RCC_OscConfig+0x2ac>)
 80010ac:	685b      	ldr	r3, [r3, #4]
 80010ae:	f403 0380 	and.w	r3, r3, #4194304	; 0x400000
 80010b2:	f5b3 0f80 	cmp.w	r3, #4194304	; 0x400000
 80010b6:	d10b      	bne.n	80010d0 <HAL_RCC_OscConfig+0x5c>
    {
      if((__HAL_RCC_GET_FLAG(RCC_FLAG_HSERDY) != RESET) && (RCC_OscInitStruct->HSEState == RCC_HSE_OFF))
 80010b8:	4b99      	ldr	r3, [pc, #612]	; (8001320 <HAL_RCC_OscConfig+0x2ac>)
 80010ba:	681b      	ldr	r3, [r3, #0]
 80010bc:	f403 3300 	and.w	r3, r3, #131072	; 0x20000
 80010c0:	2b00      	cmp	r3, #0
 80010c2:	d05b      	beq.n	800117c <HAL_RCC_OscConfig+0x108>
 80010c4:	687b      	ldr	r3, [r7, #4]
 80010c6:	685b      	ldr	r3, [r3, #4]
 80010c8:	2b00      	cmp	r3, #0
 80010ca:	d157      	bne.n	800117c <HAL_RCC_OscConfig+0x108>
      {
        return HAL_ERROR;
 80010cc:	2301      	movs	r3, #1
 80010ce:	e23f      	b.n	8001550 <HAL_RCC_OscConfig+0x4dc>
      }
    }
    else
    {
      /* Set the new HSE configuration ---------------------------------------*/
      __HAL_RCC_HSE_CONFIG(RCC_OscInitStruct->HSEState);
 80010d0:	687b      	ldr	r3, [r7, #4]
 80010d2:	685b      	ldr	r3, [r3, #4]
 80010d4:	f5b3 3f80 	cmp.w	r3, #65536	; 0x10000
 80010d8:	d106      	bne.n	80010e8 <HAL_RCC_OscConfig+0x74>
 80010da:	4b91      	ldr	r3, [pc, #580]	; (8001320 <HAL_RCC_OscConfig+0x2ac>)
 80010dc:	681b      	ldr	r3, [r3, #0]
 80010de:	4a90      	ldr	r2, [pc, #576]	; (8001320 <HAL_RCC_OscConfig+0x2ac>)
 80010e0:	f443 3380 	orr.w	r3, r3, #65536	; 0x10000
 80010e4:	6013      	str	r3, [r2, #0]
 80010e6:	e01d      	b.n	8001124 <HAL_RCC_OscConfig+0xb0>
 80010e8:	687b      	ldr	r3, [r7, #4]
 80010ea:	685b      	ldr	r3, [r3, #4]
 80010ec:	f5b3 2fa0 	cmp.w	r3, #327680	; 0x50000
 80010f0:	d10c      	bne.n	800110c <HAL_RCC_OscConfig+0x98>
 80010f2:	4b8b      	ldr	r3, [pc, #556]	; (8001320 <HAL_RCC_OscConfig+0x2ac>)
 80010f4:	681b      	ldr	r3, [r3, #0]
 80010f6:	4a8a      	ldr	r2, [pc, #552]	; (8001320 <HAL_RCC_OscConfig+0x2ac>)
 80010f8:	f443 2380 	orr.w	r3, r3, #262144	; 0x40000
 80010fc:	6013      	str	r3, [r2, #0]
 80010fe:	4b88      	ldr	r3, [pc, #544]	; (8001320 <HAL_RCC_OscConfig+0x2ac>)
 8001100:	681b      	ldr	r3, [r3, #0]
 8001102:	4a87      	ldr	r2, [pc, #540]	; (8001320 <HAL_RCC_OscConfig+0x2ac>)
 8001104:	f443 3380 	orr.w	r3, r3, #65536	; 0x10000
 8001108:	6013      	str	r3, [r2, #0]
 800110a:	e00b      	b.n	8001124 <HAL_RCC_OscConfig+0xb0>
 800110c:	4b84      	ldr	r3, [pc, #528]	; (8001320 <HAL_RCC_OscConfig+0x2ac>)
 800110e:	681b      	ldr	r3, [r3, #0]
 8001110:	4a83      	ldr	r2, [pc, #524]	; (8001320 <HAL_RCC_OscConfig+0x2ac>)
 8001112:	f423 3380 	bic.w	r3, r3, #65536	; 0x10000
 8001116:	6013      	str	r3, [r2, #0]
 8001118:	4b81      	ldr	r3, [pc, #516]	; (8001320 <HAL_RCC_OscConfig+0x2ac>)
 800111a:	681b      	ldr	r3, [r3, #0]
 800111c:	4a80      	ldr	r2, [pc, #512]	; (8001320 <HAL_RCC_OscConfig+0x2ac>)
 800111e:	f423 2380 	bic.w	r3, r3, #262144	; 0x40000
 8001122:	6013      	str	r3, [r2, #0]

      /* Check the HSE State */
      if((RCC_OscInitStruct->HSEState) != RCC_HSE_OFF)
 8001124:	687b      	ldr	r3, [r7, #4]
 8001126:	685b      	ldr	r3, [r3, #4]
 8001128:	2b00      	cmp	r3, #0
 800112a:	d013      	beq.n	8001154 <HAL_RCC_OscConfig+0xe0>
      {
        /* Get Start Tick */
        tickstart = HAL_GetTick();
 800112c:	f7ff fc9c 	bl	8000a68 <HAL_GetTick>
 8001130:	6138      	str	r0, [r7, #16]

        /* Wait till HSE is ready */
        while(__HAL_RCC_GET_FLAG(RCC_FLAG_HSERDY) == RESET)
 8001132:	e008      	b.n	8001146 <HAL_RCC_OscConfig+0xd2>
        {
          if((HAL_GetTick() - tickstart ) > HSE_TIMEOUT_VALUE)
 8001134:	f7ff fc98 	bl	8000a68 <HAL_GetTick>
 8001138:	4602      	mov	r2, r0
 800113a:	693b      	ldr	r3, [r7, #16]
 800113c:	1ad3      	subs	r3, r2, r3
 800113e:	2b64      	cmp	r3, #100	; 0x64
 8001140:	d901      	bls.n	8001146 <HAL_RCC_OscConfig+0xd2>
          {
            return HAL_TIMEOUT;
 8001142:	2303      	movs	r3, #3
 8001144:	e204      	b.n	8001550 <HAL_RCC_OscConfig+0x4dc>
        while(__HAL_RCC_GET_FLAG(RCC_FLAG_HSERDY) == RESET)
 8001146:	4b76      	ldr	r3, [pc, #472]	; (8001320 <HAL_RCC_OscConfig+0x2ac>)
 8001148:	681b      	ldr	r3, [r3, #0]
 800114a:	f403 3300 	and.w	r3, r3, #131072	; 0x20000
 800114e:	2b00      	cmp	r3, #0
 8001150:	d0f0      	beq.n	8001134 <HAL_RCC_OscConfig+0xc0>
 8001152:	e014      	b.n	800117e <HAL_RCC_OscConfig+0x10a>
        }
      }
      else
      {
        /* Get Start Tick */
        tickstart = HAL_GetTick();
 8001154:	f7ff fc88 	bl	8000a68 <HAL_GetTick>
 8001158:	6138      	str	r0, [r7, #16]

        /* Wait till HSE is bypassed or disabled */
        while(__HAL_RCC_GET_FLAG(RCC_FLAG_HSERDY) != RESET)
 800115a:	e008      	b.n	800116e <HAL_RCC_OscConfig+0xfa>
        {
          if((HAL_GetTick() - tickstart ) > HSE_TIMEOUT_VALUE)
 800115c:	f7ff fc84 	bl	8000a68 <HAL_GetTick>
 8001160:	4602      	mov	r2, r0
 8001162:	693b      	ldr	r3, [r7, #16]
 8001164:	1ad3      	subs	r3, r2, r3
 8001166:	2b64      	cmp	r3, #100	; 0x64
 8001168:	d901      	bls.n	800116e <HAL_RCC_OscConfig+0xfa>
          {
            return HAL_TIMEOUT;
 800116a:	2303      	movs	r3, #3
 800116c:	e1f0      	b.n	8001550 <HAL_RCC_OscConfig+0x4dc>
        while(__HAL_RCC_GET_FLAG(RCC_FLAG_HSERDY) != RESET)
 800116e:	4b6c      	ldr	r3, [pc, #432]	; (8001320 <HAL_RCC_OscConfig+0x2ac>)
 8001170:	681b      	ldr	r3, [r3, #0]
 8001172:	f403 3300 	and.w	r3, r3, #131072	; 0x20000
 8001176:	2b00      	cmp	r3, #0
 8001178:	d1f0      	bne.n	800115c <HAL_RCC_OscConfig+0xe8>
 800117a:	e000      	b.n	800117e <HAL_RCC_OscConfig+0x10a>
      if((__HAL_RCC_GET_FLAG(RCC_FLAG_HSERDY) != RESET) && (RCC_OscInitStruct->HSEState == RCC_HSE_OFF))
 800117c:	bf00      	nop
        }
      }
    }
  }
  /*----------------------------- HSI Configuration --------------------------*/
  if(((RCC_OscInitStruct->OscillatorType) & RCC_OSCILLATORTYPE_HSI) == RCC_OSCILLATORTYPE_HSI)
 800117e:	687b      	ldr	r3, [r7, #4]
 8001180:	681b      	ldr	r3, [r3, #0]
 8001182:	f003 0302 	and.w	r3, r3, #2
 8001186:	2b00      	cmp	r3, #0
 8001188:	d063      	beq.n	8001252 <HAL_RCC_OscConfig+0x1de>
    /* Check the parameters */
    assert_param(IS_RCC_HSI(RCC_OscInitStruct->HSIState));
    assert_param(IS_RCC_CALIBRATION_VALUE(RCC_OscInitStruct->HSICalibrationValue));

    /* Check if HSI is used as system clock or as PLL source when PLL is selected as system clock */
    if((__HAL_RCC_GET_SYSCLK_SOURCE() == RCC_CFGR_SWS_HSI) ||\
 800118a:	4b65      	ldr	r3, [pc, #404]	; (8001320 <HAL_RCC_OscConfig+0x2ac>)
 800118c:	689b      	ldr	r3, [r3, #8]
 800118e:	f003 030c 	and.w	r3, r3, #12
 8001192:	2b00      	cmp	r3, #0
 8001194:	d00b      	beq.n	80011ae <HAL_RCC_OscConfig+0x13a>
      ((__HAL_RCC_GET_SYSCLK_SOURCE() == RCC_CFGR_SWS_PLL) && ((RCC->PLLCFGR & RCC_PLLCFGR_PLLSRC) == RCC_PLLCFGR_PLLSRC_HSI)))
 8001196:	4b62      	ldr	r3, [pc, #392]	; (8001320 <HAL_RCC_OscConfig+0x2ac>)
 8001198:	689b      	ldr	r3, [r3, #8]
 800119a:	f003 030c 	and.w	r3, r3, #12
    if((__HAL_RCC_GET_SYSCLK_SOURCE() == RCC_CFGR_SWS_HSI) ||\
 800119e:	2b08      	cmp	r3, #8
 80011a0:	d11c      	bne.n	80011dc <HAL_RCC_OscConfig+0x168>
      ((__HAL_RCC_GET_SYSCLK_SOURCE() == RCC_CFGR_SWS_PLL) && ((RCC->PLLCFGR & RCC_PLLCFGR_PLLSRC) == RCC_PLLCFGR_PLLSRC_HSI)))
 80011a2:	4b5f      	ldr	r3, [pc, #380]	; (8001320 <HAL_RCC_OscConfig+0x2ac>)
 80011a4:	685b      	ldr	r3, [r3, #4]
 80011a6:	f403 0380 	and.w	r3, r3, #4194304	; 0x400000
 80011aa:	2b00      	cmp	r3, #0
 80011ac:	d116      	bne.n	80011dc <HAL_RCC_OscConfig+0x168>
    {
      /* When HSI is used as system clock it will not disabled */
      if((__HAL_RCC_GET_FLAG(RCC_FLAG_HSIRDY) != RESET) && (RCC_OscInitStruct->HSIState != RCC_HSI_ON))
 80011ae:	4b5c      	ldr	r3, [pc, #368]	; (8001320 <HAL_RCC_OscConfig+0x2ac>)
 80011b0:	681b      	ldr	r3, [r3, #0]
 80011b2:	f003 0302 	and.w	r3, r3, #2
 80011b6:	2b00      	cmp	r3, #0
 80011b8:	d005      	beq.n	80011c6 <HAL_RCC_OscConfig+0x152>
 80011ba:	687b      	ldr	r3, [r7, #4]
 80011bc:	68db      	ldr	r3, [r3, #12]
 80011be:	2b01      	cmp	r3, #1
 80011c0:	d001      	beq.n	80011c6 <HAL_RCC_OscConfig+0x152>
      {
        return HAL_ERROR;
 80011c2:	2301      	movs	r3, #1
 80011c4:	e1c4      	b.n	8001550 <HAL_RCC_OscConfig+0x4dc>
      }
      /* Otherwise, just the calibration is allowed */
      else
      {
        /* Adjusts the Internal High Speed oscillator (HSI) calibration value.*/
        __HAL_RCC_HSI_CALIBRATIONVALUE_ADJUST(RCC_OscInitStruct->HSICalibrationValue);
 80011c6:	4b56      	ldr	r3, [pc, #344]	; (8001320 <HAL_RCC_OscConfig+0x2ac>)
 80011c8:	681b      	ldr	r3, [r3, #0]
 80011ca:	f023 02f8 	bic.w	r2, r3, #248	; 0xf8
 80011ce:	687b      	ldr	r3, [r7, #4]
 80011d0:	691b      	ldr	r3, [r3, #16]
 80011d2:	00db      	lsls	r3, r3, #3
 80011d4:	4952      	ldr	r1, [pc, #328]	; (8001320 <HAL_RCC_OscConfig+0x2ac>)
 80011d6:	4313      	orrs	r3, r2
 80011d8:	600b      	str	r3, [r1, #0]
      if((__HAL_RCC_GET_FLAG(RCC_FLAG_HSIRDY) != RESET) && (RCC_OscInitStruct->HSIState != RCC_HSI_ON))
 80011da:	e03a      	b.n	8001252 <HAL_RCC_OscConfig+0x1de>
      }
    }
    else
    {
      /* Check the HSI State */
      if((RCC_OscInitStruct->HSIState)!= RCC_HSI_OFF)
 80011dc:	687b      	ldr	r3, [r7, #4]
 80011de:	68db      	ldr	r3, [r3, #12]
 80011e0:	2b00      	cmp	r3, #0
 80011e2:	d020      	beq.n	8001226 <HAL_RCC_OscConfig+0x1b2>
      {
        /* Enable the Internal High Speed oscillator (HSI). */
        __HAL_RCC_HSI_ENABLE();
 80011e4:	4b4f      	ldr	r3, [pc, #316]	; (8001324 <HAL_RCC_OscConfig+0x2b0>)
 80011e6:	2201      	movs	r2, #1
 80011e8:	601a      	str	r2, [r3, #0]

        /* Get Start Tick*/
        tickstart = HAL_GetTick();
 80011ea:	f7ff fc3d 	bl	8000a68 <HAL_GetTick>
 80011ee:	6138      	str	r0, [r7, #16]

        /* Wait till HSI is ready */
        while(__HAL_RCC_GET_FLAG(RCC_FLAG_HSIRDY) == RESET)
 80011f0:	e008      	b.n	8001204 <HAL_RCC_OscConfig+0x190>
        {
          if((HAL_GetTick() - tickstart ) > HSI_TIMEOUT_VALUE)
 80011f2:	f7ff fc39 	bl	8000a68 <HAL_GetTick>
 80011f6:	4602      	mov	r2, r0
 80011f8:	693b      	ldr	r3, [r7, #16]
 80011fa:	1ad3      	subs	r3, r2, r3
 80011fc:	2b02      	cmp	r3, #2
 80011fe:	d901      	bls.n	8001204 <HAL_RCC_OscConfig+0x190>
          {
            return HAL_TIMEOUT;
 8001200:	2303      	movs	r3, #3
 8001202:	e1a5      	b.n	8001550 <HAL_RCC_OscConfig+0x4dc>
        while(__HAL_RCC_GET_FLAG(RCC_FLAG_HSIRDY) == RESET)
 8001204:	4b46      	ldr	r3, [pc, #280]	; (8001320 <HAL_RCC_OscConfig+0x2ac>)
 8001206:	681b      	ldr	r3, [r3, #0]
 8001208:	f003 0302 	and.w	r3, r3, #2
 800120c:	2b00      	cmp	r3, #0
 800120e:	d0f0      	beq.n	80011f2 <HAL_RCC_OscConfig+0x17e>
          }
        }

        /* Adjusts the Internal High Speed oscillator (HSI) calibration value. */
        __HAL_RCC_HSI_CALIBRATIONVALUE_ADJUST(RCC_OscInitStruct->HSICalibrationValue);
 8001210:	4b43      	ldr	r3, [pc, #268]	; (8001320 <HAL_RCC_OscConfig+0x2ac>)
 8001212:	681b      	ldr	r3, [r3, #0]
 8001214:	f023 02f8 	bic.w	r2, r3, #248	; 0xf8
 8001218:	687b      	ldr	r3, [r7, #4]
 800121a:	691b      	ldr	r3, [r3, #16]
 800121c:	00db      	lsls	r3, r3, #3
 800121e:	4940      	ldr	r1, [pc, #256]	; (8001320 <HAL_RCC_OscConfig+0x2ac>)
 8001220:	4313      	orrs	r3, r2
 8001222:	600b      	str	r3, [r1, #0]
 8001224:	e015      	b.n	8001252 <HAL_RCC_OscConfig+0x1de>
      }
      else
      {
        /* Disable the Internal High Speed oscillator (HSI). */
        __HAL_RCC_HSI_DISABLE();
 8001226:	4b3f      	ldr	r3, [pc, #252]	; (8001324 <HAL_RCC_OscConfig+0x2b0>)
 8001228:	2200      	movs	r2, #0
 800122a:	601a      	str	r2, [r3, #0]

        /* Get Start Tick*/
        tickstart = HAL_GetTick();
 800122c:	f7ff fc1c 	bl	8000a68 <HAL_GetTick>
 8001230:	6138      	str	r0, [r7, #16]

        /* Wait till HSI is ready */
        while(__HAL_RCC_GET_FLAG(RCC_FLAG_HSIRDY) != RESET)
 8001232:	e008      	b.n	8001246 <HAL_RCC_OscConfig+0x1d2>
        {
          if((HAL_GetTick() - tickstart ) > HSI_TIMEOUT_VALUE)
 8001234:	f7ff fc18 	bl	8000a68 <HAL_GetTick>
 8001238:	4602      	mov	r2, r0
 800123a:	693b      	ldr	r3, [r7, #16]
 800123c:	1ad3      	subs	r3, r2, r3
 800123e:	2b02      	cmp	r3, #2
 8001240:	d901      	bls.n	8001246 <HAL_RCC_OscConfig+0x1d2>
          {
            return HAL_TIMEOUT;
 8001242:	2303      	movs	r3, #3
 8001244:	e184      	b.n	8001550 <HAL_RCC_OscConfig+0x4dc>
        while(__HAL_RCC_GET_FLAG(RCC_FLAG_HSIRDY) != RESET)
 8001246:	4b36      	ldr	r3, [pc, #216]	; (8001320 <HAL_RCC_OscConfig+0x2ac>)
 8001248:	681b      	ldr	r3, [r3, #0]
 800124a:	f003 0302 	and.w	r3, r3, #2
 800124e:	2b00      	cmp	r3, #0
 8001250:	d1f0      	bne.n	8001234 <HAL_RCC_OscConfig+0x1c0>
        }
      }
    }
  }
  /*------------------------------ LSI Configuration -------------------------*/
  if(((RCC_OscInitStruct->OscillatorType) & RCC_OSCILLATORTYPE_LSI) == RCC_OSCILLATORTYPE_LSI)
 8001252:	687b      	ldr	r3, [r7, #4]
 8001254:	681b      	ldr	r3, [r3, #0]
 8001256:	f003 0308 	and.w	r3, r3, #8
 800125a:	2b00      	cmp	r3, #0
 800125c:	d030      	beq.n	80012c0 <HAL_RCC_OscConfig+0x24c>
  {
    /* Check the parameters */
    assert_param(IS_RCC_LSI(RCC_OscInitStruct->LSIState));

    /* Check the LSI State */
    if((RCC_OscInitStruct->LSIState)!= RCC_LSI_OFF)
 800125e:	687b      	ldr	r3, [r7, #4]
 8001260:	695b      	ldr	r3, [r3, #20]
 8001262:	2b00      	cmp	r3, #0
 8001264:	d016      	beq.n	8001294 <HAL_RCC_OscConfig+0x220>
    {
      /* Enable the Internal Low Speed oscillator (LSI). */
      __HAL_RCC_LSI_ENABLE();
 8001266:	4b30      	ldr	r3, [pc, #192]	; (8001328 <HAL_RCC_OscConfig+0x2b4>)
 8001268:	2201      	movs	r2, #1
 800126a:	601a      	str	r2, [r3, #0]

      /* Get Start Tick*/
      tickstart = HAL_GetTick();
 800126c:	f7ff fbfc 	bl	8000a68 <HAL_GetTick>
 8001270:	6138      	str	r0, [r7, #16]

      /* Wait till LSI is ready */
      while(__HAL_RCC_GET_FLAG(RCC_FLAG_LSIRDY) == RESET)
 8001272:	e008      	b.n	8001286 <HAL_RCC_OscConfig+0x212>
      {
        if((HAL_GetTick() - tickstart ) > LSI_TIMEOUT_VALUE)
 8001274:	f7ff fbf8 	bl	8000a68 <HAL_GetTick>
 8001278:	4602      	mov	r2, r0
 800127a:	693b      	ldr	r3, [r7, #16]
 800127c:	1ad3      	subs	r3, r2, r3
 800127e:	2b02      	cmp	r3, #2
 8001280:	d901      	bls.n	8001286 <HAL_RCC_OscConfig+0x212>
        {
          return HAL_TIMEOUT;
 8001282:	2303      	movs	r3, #3
 8001284:	e164      	b.n	8001550 <HAL_RCC_OscConfig+0x4dc>
      while(__HAL_RCC_GET_FLAG(RCC_FLAG_LSIRDY) == RESET)
 8001286:	4b26      	ldr	r3, [pc, #152]	; (8001320 <HAL_RCC_OscConfig+0x2ac>)
 8001288:	6f5b      	ldr	r3, [r3, #116]	; 0x74
 800128a:	f003 0302 	and.w	r3, r3, #2
 800128e:	2b00      	cmp	r3, #0
 8001290:	d0f0      	beq.n	8001274 <HAL_RCC_OscConfig+0x200>
 8001292:	e015      	b.n	80012c0 <HAL_RCC_OscConfig+0x24c>
      }
    }
    else
    {
      /* Disable the Internal Low Speed oscillator (LSI). */
      __HAL_RCC_LSI_DISABLE();
 8001294:	4b24      	ldr	r3, [pc, #144]	; (8001328 <HAL_RCC_OscConfig+0x2b4>)
 8001296:	2200      	movs	r2, #0
 8001298:	601a      	str	r2, [r3, #0]

      /* Get Start Tick */
      tickstart = HAL_GetTick();
 800129a:	f7ff fbe5 	bl	8000a68 <HAL_GetTick>
 800129e:	6138      	str	r0, [r7, #16]

      /* Wait till LSI is ready */
      while(__HAL_RCC_GET_FLAG(RCC_FLAG_LSIRDY) != RESET)
 80012a0:	e008      	b.n	80012b4 <HAL_RCC_OscConfig+0x240>
      {
        if((HAL_GetTick() - tickstart ) > LSI_TIMEOUT_VALUE)
 80012a2:	f7ff fbe1 	bl	8000a68 <HAL_GetTick>
 80012a6:	4602      	mov	r2, r0
 80012a8:	693b      	ldr	r3, [r7, #16]
 80012aa:	1ad3      	subs	r3, r2, r3
 80012ac:	2b02      	cmp	r3, #2
 80012ae:	d901      	bls.n	80012b4 <HAL_RCC_OscConfig+0x240>
        {
          return HAL_TIMEOUT;
 80012b0:	2303      	movs	r3, #3
 80012b2:	e14d      	b.n	8001550 <HAL_RCC_OscConfig+0x4dc>
      while(__HAL_RCC_GET_FLAG(RCC_FLAG_LSIRDY) != RESET)
 80012b4:	4b1a      	ldr	r3, [pc, #104]	; (8001320 <HAL_RCC_OscConfig+0x2ac>)
 80012b6:	6f5b      	ldr	r3, [r3, #116]	; 0x74
 80012b8:	f003 0302 	and.w	r3, r3, #2
 80012bc:	2b00      	cmp	r3, #0
 80012be:	d1f0      	bne.n	80012a2 <HAL_RCC_OscConfig+0x22e>
        }
      }
    }
  }
  /*------------------------------ LSE Configuration -------------------------*/
  if(((RCC_OscInitStruct->OscillatorType) & RCC_OSCILLATORTYPE_LSE) == RCC_OSCILLATORTYPE_LSE)
 80012c0:	687b      	ldr	r3, [r7, #4]
 80012c2:	681b      	ldr	r3, [r3, #0]
 80012c4:	f003 0304 	and.w	r3, r3, #4
 80012c8:	2b00      	cmp	r3, #0
 80012ca:	f000 80a0 	beq.w	800140e <HAL_RCC_OscConfig+0x39a>
  {
    FlagStatus       pwrclkchanged = RESET;
 80012ce:	2300      	movs	r3, #0
 80012d0:	75fb      	strb	r3, [r7, #23]
    /* Check the parameters */
    assert_param(IS_RCC_LSE(RCC_OscInitStruct->LSEState));

    /* Update LSE configuration in Backup Domain control register    */
    /* Requires to enable write access to Backup Domain of necessary */
    if(__HAL_RCC_PWR_IS_CLK_DISABLED())
 80012d2:	4b13      	ldr	r3, [pc, #76]	; (8001320 <HAL_RCC_OscConfig+0x2ac>)
 80012d4:	6c1b      	ldr	r3, [r3, #64]	; 0x40
 80012d6:	f003 5380 	and.w	r3, r3, #268435456	; 0x10000000
 80012da:	2b00      	cmp	r3, #0
 80012dc:	d10f      	bne.n	80012fe <HAL_RCC_OscConfig+0x28a>
    {
      __HAL_RCC_PWR_CLK_ENABLE();
 80012de:	2300      	movs	r3, #0
 80012e0:	60bb      	str	r3, [r7, #8]
 80012e2:	4b0f      	ldr	r3, [pc, #60]	; (8001320 <HAL_RCC_OscConfig+0x2ac>)
 80012e4:	6c1b      	ldr	r3, [r3, #64]	; 0x40
 80012e6:	4a0e      	ldr	r2, [pc, #56]	; (8001320 <HAL_RCC_OscConfig+0x2ac>)
 80012e8:	f043 5380 	orr.w	r3, r3, #268435456	; 0x10000000
 80012ec:	6413      	str	r3, [r2, #64]	; 0x40
 80012ee:	4b0c      	ldr	r3, [pc, #48]	; (8001320 <HAL_RCC_OscConfig+0x2ac>)
 80012f0:	6c1b      	ldr	r3, [r3, #64]	; 0x40
 80012f2:	f003 5380 	and.w	r3, r3, #268435456	; 0x10000000
 80012f6:	60bb      	str	r3, [r7, #8]
 80012f8:	68bb      	ldr	r3, [r7, #8]
      pwrclkchanged = SET;
 80012fa:	2301      	movs	r3, #1
 80012fc:	75fb      	strb	r3, [r7, #23]
    }

    if(HAL_IS_BIT_CLR(PWR->CR, PWR_CR_DBP))
 80012fe:	4b0b      	ldr	r3, [pc, #44]	; (800132c <HAL_RCC_OscConfig+0x2b8>)
 8001300:	681b      	ldr	r3, [r3, #0]
 8001302:	f403 7380 	and.w	r3, r3, #256	; 0x100
 8001306:	2b00      	cmp	r3, #0
 8001308:	d121      	bne.n	800134e <HAL_RCC_OscConfig+0x2da>
    {
      /* Enable write access to Backup domain */
      SET_BIT(PWR->CR, PWR_CR_DBP);
 800130a:	4b08      	ldr	r3, [pc, #32]	; (800132c <HAL_RCC_OscConfig+0x2b8>)
 800130c:	681b      	ldr	r3, [r3, #0]
 800130e:	4a07      	ldr	r2, [pc, #28]	; (800132c <HAL_RCC_OscConfig+0x2b8>)
 8001310:	f443 7380 	orr.w	r3, r3, #256	; 0x100
 8001314:	6013      	str	r3, [r2, #0]

      /* Wait for Backup domain Write protection disable */
      tickstart = HAL_GetTick();
 8001316:	f7ff fba7 	bl	8000a68 <HAL_GetTick>
 800131a:	6138      	str	r0, [r7, #16]

      while(HAL_IS_BIT_CLR(PWR->CR, PWR_CR_DBP))
 800131c:	e011      	b.n	8001342 <HAL_RCC_OscConfig+0x2ce>
 800131e:	bf00      	nop
 8001320:	40023800 	.word	0x40023800
 8001324:	42470000 	.word	0x42470000
 8001328:	42470e80 	.word	0x42470e80
 800132c:	40007000 	.word	0x40007000
      {
        if((HAL_GetTick() - tickstart) > RCC_DBP_TIMEOUT_VALUE)
 8001330:	f7ff fb9a 	bl	8000a68 <HAL_GetTick>
 8001334:	4602      	mov	r2, r0
 8001336:	693b      	ldr	r3, [r7, #16]
 8001338:	1ad3      	subs	r3, r2, r3
 800133a:	2b02      	cmp	r3, #2
 800133c:	d901      	bls.n	8001342 <HAL_RCC_OscConfig+0x2ce>
        {
          return HAL_TIMEOUT;
 800133e:	2303      	movs	r3, #3
 8001340:	e106      	b.n	8001550 <HAL_RCC_OscConfig+0x4dc>
      while(HAL_IS_BIT_CLR(PWR->CR, PWR_CR_DBP))
 8001342:	4b85      	ldr	r3, [pc, #532]	; (8001558 <HAL_RCC_OscConfig+0x4e4>)
 8001344:	681b      	ldr	r3, [r3, #0]
 8001346:	f403 7380 	and.w	r3, r3, #256	; 0x100
 800134a:	2b00      	cmp	r3, #0
 800134c:	d0f0      	beq.n	8001330 <HAL_RCC_OscConfig+0x2bc>
        }
      }
    }

    /* Set the new LSE configuration -----------------------------------------*/
    __HAL_RCC_LSE_CONFIG(RCC_OscInitStruct->LSEState);
 800134e:	687b      	ldr	r3, [r7, #4]
 8001350:	689b      	ldr	r3, [r3, #8]
 8001352:	2b01      	cmp	r3, #1
 8001354:	d106      	bne.n	8001364 <HAL_RCC_OscConfig+0x2f0>
 8001356:	4b81      	ldr	r3, [pc, #516]	; (800155c <HAL_RCC_OscConfig+0x4e8>)
 8001358:	6f1b      	ldr	r3, [r3, #112]	; 0x70
 800135a:	4a80      	ldr	r2, [pc, #512]	; (800155c <HAL_RCC_OscConfig+0x4e8>)
 800135c:	f043 0301 	orr.w	r3, r3, #1
 8001360:	6713      	str	r3, [r2, #112]	; 0x70
 8001362:	e01c      	b.n	800139e <HAL_RCC_OscConfig+0x32a>
 8001364:	687b      	ldr	r3, [r7, #4]
 8001366:	689b      	ldr	r3, [r3, #8]
 8001368:	2b05      	cmp	r3, #5
 800136a:	d10c      	bne.n	8001386 <HAL_RCC_OscConfig+0x312>
 800136c:	4b7b      	ldr	r3, [pc, #492]	; (800155c <HAL_RCC_OscConfig+0x4e8>)
 800136e:	6f1b      	ldr	r3, [r3, #112]	; 0x70
 8001370:	4a7a      	ldr	r2, [pc, #488]	; (800155c <HAL_RCC_OscConfig+0x4e8>)
 8001372:	f043 0304 	orr.w	r3, r3, #4
 8001376:	6713      	str	r3, [r2, #112]	; 0x70
 8001378:	4b78      	ldr	r3, [pc, #480]	; (800155c <HAL_RCC_OscConfig+0x4e8>)
 800137a:	6f1b      	ldr	r3, [r3, #112]	; 0x70
 800137c:	4a77      	ldr	r2, [pc, #476]	; (800155c <HAL_RCC_OscConfig+0x4e8>)
 800137e:	f043 0301 	orr.w	r3, r3, #1
 8001382:	6713      	str	r3, [r2, #112]	; 0x70
 8001384:	e00b      	b.n	800139e <HAL_RCC_OscConfig+0x32a>
 8001386:	4b75      	ldr	r3, [pc, #468]	; (800155c <HAL_RCC_OscConfig+0x4e8>)
 8001388:	6f1b      	ldr	r3, [r3, #112]	; 0x70
 800138a:	4a74      	ldr	r2, [pc, #464]	; (800155c <HAL_RCC_OscConfig+0x4e8>)
 800138c:	f023 0301 	bic.w	r3, r3, #1
 8001390:	6713      	str	r3, [r2, #112]	; 0x70
 8001392:	4b72      	ldr	r3, [pc, #456]	; (800155c <HAL_RCC_OscConfig+0x4e8>)
 8001394:	6f1b      	ldr	r3, [r3, #112]	; 0x70
 8001396:	4a71      	ldr	r2, [pc, #452]	; (800155c <HAL_RCC_OscConfig+0x4e8>)
 8001398:	f023 0304 	bic.w	r3, r3, #4
 800139c:	6713      	str	r3, [r2, #112]	; 0x70
    /* Check the LSE State */
    if((RCC_OscInitStruct->LSEState) != RCC_LSE_OFF)
 800139e:	687b      	ldr	r3, [r7, #4]
 80013a0:	689b      	ldr	r3, [r3, #8]
 80013a2:	2b00      	cmp	r3, #0
 80013a4:	d015      	beq.n	80013d2 <HAL_RCC_OscConfig+0x35e>
    {
      /* Get Start Tick*/
      tickstart = HAL_GetTick();
 80013a6:	f7ff fb5f 	bl	8000a68 <HAL_GetTick>
 80013aa:	6138      	str	r0, [r7, #16]

      /* Wait till LSE is ready */
      while(__HAL_RCC_GET_FLAG(RCC_FLAG_LSERDY) == RESET)
 80013ac:	e00a      	b.n	80013c4 <HAL_RCC_OscConfig+0x350>
      {
        if((HAL_GetTick() - tickstart ) > RCC_LSE_TIMEOUT_VALUE)
 80013ae:	f7ff fb5b 	bl	8000a68 <HAL_GetTick>
 80013b2:	4602      	mov	r2, r0
 80013b4:	693b      	ldr	r3, [r7, #16]
 80013b6:	1ad3      	subs	r3, r2, r3
 80013b8:	f241 3288 	movw	r2, #5000	; 0x1388
 80013bc:	4293      	cmp	r3, r2
 80013be:	d901      	bls.n	80013c4 <HAL_RCC_OscConfig+0x350>
        {
          return HAL_TIMEOUT;
 80013c0:	2303      	movs	r3, #3
 80013c2:	e0c5      	b.n	8001550 <HAL_RCC_OscConfig+0x4dc>
      while(__HAL_RCC_GET_FLAG(RCC_FLAG_LSERDY) == RESET)
 80013c4:	4b65      	ldr	r3, [pc, #404]	; (800155c <HAL_RCC_OscConfig+0x4e8>)
 80013c6:	6f1b      	ldr	r3, [r3, #112]	; 0x70
 80013c8:	f003 0302 	and.w	r3, r3, #2
 80013cc:	2b00      	cmp	r3, #0
 80013ce:	d0ee      	beq.n	80013ae <HAL_RCC_OscConfig+0x33a>
 80013d0:	e014      	b.n	80013fc <HAL_RCC_OscConfig+0x388>
      }
    }
    else
    {
      /* Get Start Tick */
      tickstart = HAL_GetTick();
 80013d2:	f7ff fb49 	bl	8000a68 <HAL_GetTick>
 80013d6:	6138      	str	r0, [r7, #16]

      /* Wait till LSE is ready */
      while(__HAL_RCC_GET_FLAG(RCC_FLAG_LSERDY) != RESET)
 80013d8:	e00a      	b.n	80013f0 <HAL_RCC_OscConfig+0x37c>
      {
        if((HAL_GetTick() - tickstart ) > RCC_LSE_TIMEOUT_VALUE)
 80013da:	f7ff fb45 	bl	8000a68 <HAL_GetTick>
 80013de:	4602      	mov	r2, r0
 80013e0:	693b      	ldr	r3, [r7, #16]
 80013e2:	1ad3      	subs	r3, r2, r3
 80013e4:	f241 3288 	movw	r2, #5000	; 0x1388
 80013e8:	4293      	cmp	r3, r2
 80013ea:	d901      	bls.n	80013f0 <HAL_RCC_OscConfig+0x37c>
        {
          return HAL_TIMEOUT;
 80013ec:	2303      	movs	r3, #3
 80013ee:	e0af      	b.n	8001550 <HAL_RCC_OscConfig+0x4dc>
      while(__HAL_RCC_GET_FLAG(RCC_FLAG_LSERDY) != RESET)
 80013f0:	4b5a      	ldr	r3, [pc, #360]	; (800155c <HAL_RCC_OscConfig+0x4e8>)
 80013f2:	6f1b      	ldr	r3, [r3, #112]	; 0x70
 80013f4:	f003 0302 	and.w	r3, r3, #2
 80013f8:	2b00      	cmp	r3, #0
 80013fa:	d1ee      	bne.n	80013da <HAL_RCC_OscConfig+0x366>
        }
      }
    }

    /* Restore clock configuration if changed */
    if(pwrclkchanged == SET)
 80013fc:	7dfb      	ldrb	r3, [r7, #23]
 80013fe:	2b01      	cmp	r3, #1
 8001400:	d105      	bne.n	800140e <HAL_RCC_OscConfig+0x39a>
    {
      __HAL_RCC_PWR_CLK_DISABLE();
 8001402:	4b56      	ldr	r3, [pc, #344]	; (800155c <HAL_RCC_OscConfig+0x4e8>)
 8001404:	6c1b      	ldr	r3, [r3, #64]	; 0x40
 8001406:	4a55      	ldr	r2, [pc, #340]	; (800155c <HAL_RCC_OscConfig+0x4e8>)
 8001408:	f023 5380 	bic.w	r3, r3, #268435456	; 0x10000000
 800140c:	6413      	str	r3, [r2, #64]	; 0x40
    }
  }
  /*-------------------------------- PLL Configuration -----------------------*/
  /* Check the parameters */
  assert_param(IS_RCC_PLL(RCC_OscInitStruct->PLL.PLLState));
  if ((RCC_OscInitStruct->PLL.PLLState) != RCC_PLL_NONE)
 800140e:	687b      	ldr	r3, [r7, #4]
 8001410:	699b      	ldr	r3, [r3, #24]
 8001412:	2b00      	cmp	r3, #0
 8001414:	f000 809b 	beq.w	800154e <HAL_RCC_OscConfig+0x4da>
  {
    /* Check if the PLL is used as system clock or not */
    if(__HAL_RCC_GET_SYSCLK_SOURCE() != RCC_CFGR_SWS_PLL)
 8001418:	4b50      	ldr	r3, [pc, #320]	; (800155c <HAL_RCC_OscConfig+0x4e8>)
 800141a:	689b      	ldr	r3, [r3, #8]
 800141c:	f003 030c 	and.w	r3, r3, #12
 8001420:	2b08      	cmp	r3, #8
 8001422:	d05c      	beq.n	80014de <HAL_RCC_OscConfig+0x46a>
    {
      if((RCC_OscInitStruct->PLL.PLLState) == RCC_PLL_ON)
 8001424:	687b      	ldr	r3, [r7, #4]
 8001426:	699b      	ldr	r3, [r3, #24]
 8001428:	2b02      	cmp	r3, #2
 800142a:	d141      	bne.n	80014b0 <HAL_RCC_OscConfig+0x43c>
        assert_param(IS_RCC_PLLN_VALUE(RCC_OscInitStruct->PLL.PLLN));
        assert_param(IS_RCC_PLLP_VALUE(RCC_OscInitStruct->PLL.PLLP));
        assert_param(IS_RCC_PLLQ_VALUE(RCC_OscInitStruct->PLL.PLLQ));

        /* Disable the main PLL. */
        __HAL_RCC_PLL_DISABLE();
 800142c:	4b4c      	ldr	r3, [pc, #304]	; (8001560 <HAL_RCC_OscConfig+0x4ec>)
 800142e:	2200      	movs	r2, #0
 8001430:	601a      	str	r2, [r3, #0]

        /* Get Start Tick */
        tickstart = HAL_GetTick();
 8001432:	f7ff fb19 	bl	8000a68 <HAL_GetTick>
 8001436:	6138      	str	r0, [r7, #16]

        /* Wait till PLL is ready */
        while(__HAL_RCC_GET_FLAG(RCC_FLAG_PLLRDY) != RESET)
 8001438:	e008      	b.n	800144c <HAL_RCC_OscConfig+0x3d8>
        {
          if((HAL_GetTick() - tickstart ) > PLL_TIMEOUT_VALUE)
 800143a:	f7ff fb15 	bl	8000a68 <HAL_GetTick>
 800143e:	4602      	mov	r2, r0
 8001440:	693b      	ldr	r3, [r7, #16]
 8001442:	1ad3      	subs	r3, r2, r3
 8001444:	2b02      	cmp	r3, #2
 8001446:	d901      	bls.n	800144c <HAL_RCC_OscConfig+0x3d8>
          {
            return HAL_TIMEOUT;
 8001448:	2303      	movs	r3, #3
 800144a:	e081      	b.n	8001550 <HAL_RCC_OscConfig+0x4dc>
        while(__HAL_RCC_GET_FLAG(RCC_FLAG_PLLRDY) != RESET)
 800144c:	4b43      	ldr	r3, [pc, #268]	; (800155c <HAL_RCC_OscConfig+0x4e8>)
 800144e:	681b      	ldr	r3, [r3, #0]
 8001450:	f003 7300 	and.w	r3, r3, #33554432	; 0x2000000
 8001454:	2b00      	cmp	r3, #0
 8001456:	d1f0      	bne.n	800143a <HAL_RCC_OscConfig+0x3c6>
          }
        }

        /* Configure the main PLL clock source, multiplication and division factors. */
        WRITE_REG(RCC->PLLCFGR, (RCC_OscInitStruct->PLL.PLLSource                                            | \
 8001458:	687b      	ldr	r3, [r7, #4]
 800145a:	69da      	ldr	r2, [r3, #28]
 800145c:	687b      	ldr	r3, [r7, #4]
 800145e:	6a1b      	ldr	r3, [r3, #32]
 8001460:	431a      	orrs	r2, r3
 8001462:	687b      	ldr	r3, [r7, #4]
 8001464:	6a5b      	ldr	r3, [r3, #36]	; 0x24
 8001466:	019b      	lsls	r3, r3, #6
 8001468:	431a      	orrs	r2, r3
 800146a:	687b      	ldr	r3, [r7, #4]
 800146c:	6a9b      	ldr	r3, [r3, #40]	; 0x28
 800146e:	085b      	lsrs	r3, r3, #1
 8001470:	3b01      	subs	r3, #1
 8001472:	041b      	lsls	r3, r3, #16
 8001474:	431a      	orrs	r2, r3
 8001476:	687b      	ldr	r3, [r7, #4]
 8001478:	6adb      	ldr	r3, [r3, #44]	; 0x2c
 800147a:	061b      	lsls	r3, r3, #24
 800147c:	4937      	ldr	r1, [pc, #220]	; (800155c <HAL_RCC_OscConfig+0x4e8>)
 800147e:	4313      	orrs	r3, r2
 8001480:	604b      	str	r3, [r1, #4]
                                 RCC_OscInitStruct->PLL.PLLM                                                 | \
                                 (RCC_OscInitStruct->PLL.PLLN << RCC_PLLCFGR_PLLN_Pos)             | \
                                 (((RCC_OscInitStruct->PLL.PLLP >> 1U) - 1U) << RCC_PLLCFGR_PLLP_Pos) | \
                                 (RCC_OscInitStruct->PLL.PLLQ << RCC_PLLCFGR_PLLQ_Pos)));
        /* Enable the main PLL. */
        __HAL_RCC_PLL_ENABLE();
 8001482:	4b37      	ldr	r3, [pc, #220]	; (8001560 <HAL_RCC_OscConfig+0x4ec>)
 8001484:	2201      	movs	r2, #1
 8001486:	601a      	str	r2, [r3, #0]

        /* Get Start Tick */
        tickstart = HAL_GetTick();
 8001488:	f7ff faee 	bl	8000a68 <HAL_GetTick>
 800148c:	6138      	str	r0, [r7, #16]

        /* Wait till PLL is ready */
        while(__HAL_RCC_GET_FLAG(RCC_FLAG_PLLRDY) == RESET)
 800148e:	e008      	b.n	80014a2 <HAL_RCC_OscConfig+0x42e>
        {
          if((HAL_GetTick() - tickstart ) > PLL_TIMEOUT_VALUE)
 8001490:	f7ff faea 	bl	8000a68 <HAL_GetTick>
 8001494:	4602      	mov	r2, r0
 8001496:	693b      	ldr	r3, [r7, #16]
 8001498:	1ad3      	subs	r3, r2, r3
 800149a:	2b02      	cmp	r3, #2
 800149c:	d901      	bls.n	80014a2 <HAL_RCC_OscConfig+0x42e>
          {
            return HAL_TIMEOUT;
 800149e:	2303      	movs	r3, #3
 80014a0:	e056      	b.n	8001550 <HAL_RCC_OscConfig+0x4dc>
        while(__HAL_RCC_GET_FLAG(RCC_FLAG_PLLRDY) == RESET)
 80014a2:	4b2e      	ldr	r3, [pc, #184]	; (800155c <HAL_RCC_OscConfig+0x4e8>)
 80014a4:	681b      	ldr	r3, [r3, #0]
 80014a6:	f003 7300 	and.w	r3, r3, #33554432	; 0x2000000
 80014aa:	2b00      	cmp	r3, #0
 80014ac:	d0f0      	beq.n	8001490 <HAL_RCC_OscConfig+0x41c>
 80014ae:	e04e      	b.n	800154e <HAL_RCC_OscConfig+0x4da>
        }
      }
      else
      {
        /* Disable the main PLL. */
        __HAL_RCC_PLL_DISABLE();
 80014b0:	4b2b      	ldr	r3, [pc, #172]	; (8001560 <HAL_RCC_OscConfig+0x4ec>)
 80014b2:	2200      	movs	r2, #0
 80014b4:	601a      	str	r2, [r3, #0]

        /* Get Start Tick */
        tickstart = HAL_GetTick();
 80014b6:	f7ff fad7 	bl	8000a68 <HAL_GetTick>
 80014ba:	6138      	str	r0, [r7, #16]

        /* Wait till PLL is ready */
        while(__HAL_RCC_GET_FLAG(RCC_FLAG_PLLRDY) != RESET)
 80014bc:	e008      	b.n	80014d0 <HAL_RCC_OscConfig+0x45c>
        {
          if((HAL_GetTick() - tickstart ) > PLL_TIMEOUT_VALUE)
 80014be:	f7ff fad3 	bl	8000a68 <HAL_GetTick>
 80014c2:	4602      	mov	r2, r0
 80014c4:	693b      	ldr	r3, [r7, #16]
 80014c6:	1ad3      	subs	r3, r2, r3
 80014c8:	2b02      	cmp	r3, #2
 80014ca:	d901      	bls.n	80014d0 <HAL_RCC_OscConfig+0x45c>
          {
            return HAL_TIMEOUT;
 80014cc:	2303      	movs	r3, #3
 80014ce:	e03f      	b.n	8001550 <HAL_RCC_OscConfig+0x4dc>
        while(__HAL_RCC_GET_FLAG(RCC_FLAG_PLLRDY) != RESET)
 80014d0:	4b22      	ldr	r3, [pc, #136]	; (800155c <HAL_RCC_OscConfig+0x4e8>)
 80014d2:	681b      	ldr	r3, [r3, #0]
 80014d4:	f003 7300 	and.w	r3, r3, #33554432	; 0x2000000
 80014d8:	2b00      	cmp	r3, #0
 80014da:	d1f0      	bne.n	80014be <HAL_RCC_OscConfig+0x44a>
 80014dc:	e037      	b.n	800154e <HAL_RCC_OscConfig+0x4da>
      }
    }
    else
    {
      /* Check if there is a request to disable the PLL used as System clock source */
      if((RCC_OscInitStruct->PLL.PLLState) == RCC_PLL_OFF)
 80014de:	687b      	ldr	r3, [r7, #4]
 80014e0:	699b      	ldr	r3, [r3, #24]
 80014e2:	2b01      	cmp	r3, #1
 80014e4:	d101      	bne.n	80014ea <HAL_RCC_OscConfig+0x476>
      {
        return HAL_ERROR;
 80014e6:	2301      	movs	r3, #1
 80014e8:	e032      	b.n	8001550 <HAL_RCC_OscConfig+0x4dc>
      }
      else
      {
        /* Do not return HAL_ERROR if request repeats the current configuration */
        pll_config = RCC->PLLCFGR;
 80014ea:	4b1c      	ldr	r3, [pc, #112]	; (800155c <HAL_RCC_OscConfig+0x4e8>)
 80014ec:	685b      	ldr	r3, [r3, #4]
 80014ee:	60fb      	str	r3, [r7, #12]
            (READ_BIT(pll_config, RCC_PLLCFGR_PLLN) != (RCC_OscInitStruct->PLL.PLLN) << RCC_PLLCFGR_PLLN_Pos) ||
            (READ_BIT(pll_config, RCC_PLLCFGR_PLLP) != (((RCC_OscInitStruct->PLL.PLLP >> 1U) - 1U)) << RCC_PLLCFGR_PLLP_Pos) ||
            (READ_BIT(pll_config, RCC_PLLCFGR_PLLQ) != (RCC_OscInitStruct->PLL.PLLQ << RCC_PLLCFGR_PLLQ_Pos)) ||
            (READ_BIT(pll_config, RCC_PLLCFGR_PLLR) != (RCC_OscInitStruct->PLL.PLLR << RCC_PLLCFGR_PLLR_Pos)))
#else
        if (((RCC_OscInitStruct->PLL.PLLState) == RCC_PLL_OFF) ||
 80014f0:	687b      	ldr	r3, [r7, #4]
 80014f2:	699b      	ldr	r3, [r3, #24]
 80014f4:	2b01      	cmp	r3, #1
 80014f6:	d028      	beq.n	800154a <HAL_RCC_OscConfig+0x4d6>
            (READ_BIT(pll_config, RCC_PLLCFGR_PLLSRC) != RCC_OscInitStruct->PLL.PLLSource) ||
 80014f8:	68fb      	ldr	r3, [r7, #12]
 80014fa:	f403 0280 	and.w	r2, r3, #4194304	; 0x400000
 80014fe:	687b      	ldr	r3, [r7, #4]
 8001500:	69db      	ldr	r3, [r3, #28]
        if (((RCC_OscInitStruct->PLL.PLLState) == RCC_PLL_OFF) ||
 8001502:	429a      	cmp	r2, r3
 8001504:	d121      	bne.n	800154a <HAL_RCC_OscConfig+0x4d6>
            (READ_BIT(pll_config, RCC_PLLCFGR_PLLM) != (RCC_OscInitStruct->PLL.PLLM) << RCC_PLLCFGR_PLLM_Pos) ||
 8001506:	68fb      	ldr	r3, [r7, #12]
 8001508:	f003 023f 	and.w	r2, r3, #63	; 0x3f
 800150c:	687b      	ldr	r3, [r7, #4]
 800150e:	6a1b      	ldr	r3, [r3, #32]
            (READ_BIT(pll_config, RCC_PLLCFGR_PLLSRC) != RCC_OscInitStruct->PLL.PLLSource) ||
 8001510:	429a      	cmp	r2, r3
 8001512:	d11a      	bne.n	800154a <HAL_RCC_OscConfig+0x4d6>
            (READ_BIT(pll_config, RCC_PLLCFGR_PLLN) != (RCC_OscInitStruct->PLL.PLLN) << RCC_PLLCFGR_PLLN_Pos) ||
 8001514:	68fa      	ldr	r2, [r7, #12]
 8001516:	f647 73c0 	movw	r3, #32704	; 0x7fc0
 800151a:	4013      	ands	r3, r2
 800151c:	687a      	ldr	r2, [r7, #4]
 800151e:	6a52      	ldr	r2, [r2, #36]	; 0x24
 8001520:	0192      	lsls	r2, r2, #6
            (READ_BIT(pll_config, RCC_PLLCFGR_PLLM) != (RCC_OscInitStruct->PLL.PLLM) << RCC_PLLCFGR_PLLM_Pos) ||
 8001522:	4293      	cmp	r3, r2
 8001524:	d111      	bne.n	800154a <HAL_RCC_OscConfig+0x4d6>
            (READ_BIT(pll_config, RCC_PLLCFGR_PLLP) != (((RCC_OscInitStruct->PLL.PLLP >> 1U) - 1U)) << RCC_PLLCFGR_PLLP_Pos) ||
 8001526:	68fb      	ldr	r3, [r7, #12]
 8001528:	f403 3240 	and.w	r2, r3, #196608	; 0x30000
 800152c:	687b      	ldr	r3, [r7, #4]
 800152e:	6a9b      	ldr	r3, [r3, #40]	; 0x28
 8001530:	085b      	lsrs	r3, r3, #1
 8001532:	3b01      	subs	r3, #1
 8001534:	041b      	lsls	r3, r3, #16
            (READ_BIT(pll_config, RCC_PLLCFGR_PLLN) != (RCC_OscInitStruct->PLL.PLLN) << RCC_PLLCFGR_PLLN_Pos) ||
 8001536:	429a      	cmp	r2, r3
 8001538:	d107      	bne.n	800154a <HAL_RCC_OscConfig+0x4d6>
            (READ_BIT(pll_config, RCC_PLLCFGR_PLLQ) != (RCC_OscInitStruct->PLL.PLLQ << RCC_PLLCFGR_PLLQ_Pos)))
 800153a:	68fb      	ldr	r3, [r7, #12]
 800153c:	f003 6270 	and.w	r2, r3, #251658240	; 0xf000000
 8001540:	687b      	ldr	r3, [r7, #4]
 8001542:	6adb      	ldr	r3, [r3, #44]	; 0x2c
 8001544:	061b      	lsls	r3, r3, #24
            (READ_BIT(pll_config, RCC_PLLCFGR_PLLP) != (((RCC_OscInitStruct->PLL.PLLP >> 1U) - 1U)) << RCC_PLLCFGR_PLLP_Pos) ||
 8001546:	429a      	cmp	r2, r3
 8001548:	d001      	beq.n	800154e <HAL_RCC_OscConfig+0x4da>
#endif
        {
          return HAL_ERROR;
 800154a:	2301      	movs	r3, #1
 800154c:	e000      	b.n	8001550 <HAL_RCC_OscConfig+0x4dc>
        }
      }
    }
  }
  return HAL_OK;
 800154e:	2300      	movs	r3, #0
}
 8001550:	4618      	mov	r0, r3
 8001552:	3718      	adds	r7, #24
 8001554:	46bd      	mov	sp, r7
 8001556:	bd80      	pop	{r7, pc}
 8001558:	40007000 	.word	0x40007000
 800155c:	40023800 	.word	0x40023800
 8001560:	42470060 	.word	0x42470060

08001564 <HAL_RCC_ClockConfig>:
  *         HPRE[3:0] bits to ensure that HCLK not exceed the maximum allowed frequency
  *         (for more details refer to section above "Initialization/de-initialization functions")
  * @retval None
  */
HAL_StatusTypeDef HAL_RCC_ClockConfig(RCC_ClkInitTypeDef  *RCC_ClkInitStruct, uint32_t FLatency)
{
 8001564:	b580      	push	{r7, lr}
 8001566:	b084      	sub	sp, #16
 8001568:	af00      	add	r7, sp, #0
 800156a:	6078      	str	r0, [r7, #4]
 800156c:	6039      	str	r1, [r7, #0]
  uint32_t tickstart;

  /* Check Null pointer */
  if(RCC_ClkInitStruct == NULL)
 800156e:	687b      	ldr	r3, [r7, #4]
 8001570:	2b00      	cmp	r3, #0
 8001572:	d101      	bne.n	8001578 <HAL_RCC_ClockConfig+0x14>
  {
    return HAL_ERROR;
 8001574:	2301      	movs	r3, #1
 8001576:	e0cc      	b.n	8001712 <HAL_RCC_ClockConfig+0x1ae>
  /* To correctly read data from FLASH memory, the number of wait states (LATENCY)
    must be correctly programmed according to the frequency of the CPU clock
    (HCLK) and the supply voltage of the device. */

  /* Increasing the number of wait states because of higher CPU frequency */
  if(FLatency > __HAL_FLASH_GET_LATENCY())
 8001578:	4b68      	ldr	r3, [pc, #416]	; (800171c <HAL_RCC_ClockConfig+0x1b8>)
 800157a:	681b      	ldr	r3, [r3, #0]
 800157c:	f003 0307 	and.w	r3, r3, #7
 8001580:	683a      	ldr	r2, [r7, #0]
 8001582:	429a      	cmp	r2, r3
 8001584:	d90c      	bls.n	80015a0 <HAL_RCC_ClockConfig+0x3c>
  {
    /* Program the new number of wait states to the LATENCY bits in the FLASH_ACR register */
    __HAL_FLASH_SET_LATENCY(FLatency);
 8001586:	4b65      	ldr	r3, [pc, #404]	; (800171c <HAL_RCC_ClockConfig+0x1b8>)
 8001588:	683a      	ldr	r2, [r7, #0]
 800158a:	b2d2      	uxtb	r2, r2
 800158c:	701a      	strb	r2, [r3, #0]

    /* Check that the new number of wait states is taken into account to access the Flash
    memory by reading the FLASH_ACR register */
    if(__HAL_FLASH_GET_LATENCY() != FLatency)
 800158e:	4b63      	ldr	r3, [pc, #396]	; (800171c <HAL_RCC_ClockConfig+0x1b8>)
 8001590:	681b      	ldr	r3, [r3, #0]
 8001592:	f003 0307 	and.w	r3, r3, #7
 8001596:	683a      	ldr	r2, [r7, #0]
 8001598:	429a      	cmp	r2, r3
 800159a:	d001      	beq.n	80015a0 <HAL_RCC_ClockConfig+0x3c>
    {
      return HAL_ERROR;
 800159c:	2301      	movs	r3, #1
 800159e:	e0b8      	b.n	8001712 <HAL_RCC_ClockConfig+0x1ae>
    }
  }

  /*-------------------------- HCLK Configuration --------------------------*/
  if(((RCC_ClkInitStruct->ClockType) & RCC_CLOCKTYPE_HCLK) == RCC_CLOCKTYPE_HCLK)
 80015a0:	687b      	ldr	r3, [r7, #4]
 80015a2:	681b      	ldr	r3, [r3, #0]
 80015a4:	f003 0302 	and.w	r3, r3, #2
 80015a8:	2b00      	cmp	r3, #0
 80015aa:	d020      	beq.n	80015ee <HAL_RCC_ClockConfig+0x8a>
  {
    /* Set the highest APBx dividers in order to ensure that we do not go through
       a non-spec phase whatever we decrease or increase HCLK. */
    if(((RCC_ClkInitStruct->ClockType) & RCC_CLOCKTYPE_PCLK1) == RCC_CLOCKTYPE_PCLK1)
 80015ac:	687b      	ldr	r3, [r7, #4]
 80015ae:	681b      	ldr	r3, [r3, #0]
 80015b0:	f003 0304 	and.w	r3, r3, #4
 80015b4:	2b00      	cmp	r3, #0
 80015b6:	d005      	beq.n	80015c4 <HAL_RCC_ClockConfig+0x60>
    {
      MODIFY_REG(RCC->CFGR, RCC_CFGR_PPRE1, RCC_HCLK_DIV16);
 80015b8:	4b59      	ldr	r3, [pc, #356]	; (8001720 <HAL_RCC_ClockConfig+0x1bc>)
 80015ba:	689b      	ldr	r3, [r3, #8]
 80015bc:	4a58      	ldr	r2, [pc, #352]	; (8001720 <HAL_RCC_ClockConfig+0x1bc>)
 80015be:	f443 53e0 	orr.w	r3, r3, #7168	; 0x1c00
 80015c2:	6093      	str	r3, [r2, #8]
    }

    if(((RCC_ClkInitStruct->ClockType) & RCC_CLOCKTYPE_PCLK2) == RCC_CLOCKTYPE_PCLK2)
 80015c4:	687b      	ldr	r3, [r7, #4]
 80015c6:	681b      	ldr	r3, [r3, #0]
 80015c8:	f003 0308 	and.w	r3, r3, #8
 80015cc:	2b00      	cmp	r3, #0
 80015ce:	d005      	beq.n	80015dc <HAL_RCC_ClockConfig+0x78>
    {
      MODIFY_REG(RCC->CFGR, RCC_CFGR_PPRE2, (RCC_HCLK_DIV16 << 3));
 80015d0:	4b53      	ldr	r3, [pc, #332]	; (8001720 <HAL_RCC_ClockConfig+0x1bc>)
 80015d2:	689b      	ldr	r3, [r3, #8]
 80015d4:	4a52      	ldr	r2, [pc, #328]	; (8001720 <HAL_RCC_ClockConfig+0x1bc>)
 80015d6:	f443 4360 	orr.w	r3, r3, #57344	; 0xe000
 80015da:	6093      	str	r3, [r2, #8]
    }

    assert_param(IS_RCC_HCLK(RCC_ClkInitStruct->AHBCLKDivider));
    MODIFY_REG(RCC->CFGR, RCC_CFGR_HPRE, RCC_ClkInitStruct->AHBCLKDivider);
 80015dc:	4b50      	ldr	r3, [pc, #320]	; (8001720 <HAL_RCC_ClockConfig+0x1bc>)
 80015de:	689b      	ldr	r3, [r3, #8]
 80015e0:	f023 02f0 	bic.w	r2, r3, #240	; 0xf0
 80015e4:	687b      	ldr	r3, [r7, #4]
 80015e6:	689b      	ldr	r3, [r3, #8]
 80015e8:	494d      	ldr	r1, [pc, #308]	; (8001720 <HAL_RCC_ClockConfig+0x1bc>)
 80015ea:	4313      	orrs	r3, r2
 80015ec:	608b      	str	r3, [r1, #8]
  }

  /*------------------------- SYSCLK Configuration ---------------------------*/
  if(((RCC_ClkInitStruct->ClockType) & RCC_CLOCKTYPE_SYSCLK) == RCC_CLOCKTYPE_SYSCLK)
 80015ee:	687b      	ldr	r3, [r7, #4]
 80015f0:	681b      	ldr	r3, [r3, #0]
 80015f2:	f003 0301 	and.w	r3, r3, #1
 80015f6:	2b00      	cmp	r3, #0
 80015f8:	d044      	beq.n	8001684 <HAL_RCC_ClockConfig+0x120>
  {
    assert_param(IS_RCC_SYSCLKSOURCE(RCC_ClkInitStruct->SYSCLKSource));

    /* HSE is selected as System Clock Source */
    if(RCC_ClkInitStruct->SYSCLKSource == RCC_SYSCLKSOURCE_HSE)
 80015fa:	687b      	ldr	r3, [r7, #4]
 80015fc:	685b      	ldr	r3, [r3, #4]
 80015fe:	2b01      	cmp	r3, #1
 8001600:	d107      	bne.n	8001612 <HAL_RCC_ClockConfig+0xae>
    {
      /* Check the HSE ready flag */
      if(__HAL_RCC_GET_FLAG(RCC_FLAG_HSERDY) == RESET)
 8001602:	4b47      	ldr	r3, [pc, #284]	; (8001720 <HAL_RCC_ClockConfig+0x1bc>)
 8001604:	681b      	ldr	r3, [r3, #0]
 8001606:	f403 3300 	and.w	r3, r3, #131072	; 0x20000
 800160a:	2b00      	cmp	r3, #0
 800160c:	d119      	bne.n	8001642 <HAL_RCC_ClockConfig+0xde>
      {
        return HAL_ERROR;
 800160e:	2301      	movs	r3, #1
 8001610:	e07f      	b.n	8001712 <HAL_RCC_ClockConfig+0x1ae>
      }
    }
    /* PLL is selected as System Clock Source */
    else if((RCC_ClkInitStruct->SYSCLKSource == RCC_SYSCLKSOURCE_PLLCLK)   ||
 8001612:	687b      	ldr	r3, [r7, #4]
 8001614:	685b      	ldr	r3, [r3, #4]
 8001616:	2b02      	cmp	r3, #2
 8001618:	d003      	beq.n	8001622 <HAL_RCC_ClockConfig+0xbe>
            (RCC_ClkInitStruct->SYSCLKSource == RCC_SYSCLKSOURCE_PLLRCLK))
 800161a:	687b      	ldr	r3, [r7, #4]
 800161c:	685b      	ldr	r3, [r3, #4]
    else if((RCC_ClkInitStruct->SYSCLKSource == RCC_SYSCLKSOURCE_PLLCLK)   ||
 800161e:	2b03      	cmp	r3, #3
 8001620:	d107      	bne.n	8001632 <HAL_RCC_ClockConfig+0xce>
    {
      /* Check the PLL ready flag */
      if(__HAL_RCC_GET_FLAG(RCC_FLAG_PLLRDY) == RESET)
 8001622:	4b3f      	ldr	r3, [pc, #252]	; (8001720 <HAL_RCC_ClockConfig+0x1bc>)
 8001624:	681b      	ldr	r3, [r3, #0]
 8001626:	f003 7300 	and.w	r3, r3, #33554432	; 0x2000000
 800162a:	2b00      	cmp	r3, #0
 800162c:	d109      	bne.n	8001642 <HAL_RCC_ClockConfig+0xde>
      {
        return HAL_ERROR;
 800162e:	2301      	movs	r3, #1
 8001630:	e06f      	b.n	8001712 <HAL_RCC_ClockConfig+0x1ae>
    }
    /* HSI is selected as System Clock Source */
    else
    {
      /* Check the HSI ready flag */
      if(__HAL_RCC_GET_FLAG(RCC_FLAG_HSIRDY) == RESET)
 8001632:	4b3b      	ldr	r3, [pc, #236]	; (8001720 <HAL_RCC_ClockConfig+0x1bc>)
 8001634:	681b      	ldr	r3, [r3, #0]
 8001636:	f003 0302 	and.w	r3, r3, #2
 800163a:	2b00      	cmp	r3, #0
 800163c:	d101      	bne.n	8001642 <HAL_RCC_ClockConfig+0xde>
      {
        return HAL_ERROR;
 800163e:	2301      	movs	r3, #1
 8001640:	e067      	b.n	8001712 <HAL_RCC_ClockConfig+0x1ae>
      }
    }

    __HAL_RCC_SYSCLK_CONFIG(RCC_ClkInitStruct->SYSCLKSource);
 8001642:	4b37      	ldr	r3, [pc, #220]	; (8001720 <HAL_RCC_ClockConfig+0x1bc>)
 8001644:	689b      	ldr	r3, [r3, #8]
 8001646:	f023 0203 	bic.w	r2, r3, #3
 800164a:	687b      	ldr	r3, [r7, #4]
 800164c:	685b      	ldr	r3, [r3, #4]
 800164e:	4934      	ldr	r1, [pc, #208]	; (8001720 <HAL_RCC_ClockConfig+0x1bc>)
 8001650:	4313      	orrs	r3, r2
 8001652:	608b      	str	r3, [r1, #8]

    /* Get Start Tick */
    tickstart = HAL_GetTick();
 8001654:	f7ff fa08 	bl	8000a68 <HAL_GetTick>
 8001658:	60f8      	str	r0, [r7, #12]

    while (__HAL_RCC_GET_SYSCLK_SOURCE() != (RCC_ClkInitStruct->SYSCLKSource << RCC_CFGR_SWS_Pos))
 800165a:	e00a      	b.n	8001672 <HAL_RCC_ClockConfig+0x10e>
    {
      if ((HAL_GetTick() - tickstart) > CLOCKSWITCH_TIMEOUT_VALUE)
 800165c:	f7ff fa04 	bl	8000a68 <HAL_GetTick>
 8001660:	4602      	mov	r2, r0
 8001662:	68fb      	ldr	r3, [r7, #12]
 8001664:	1ad3      	subs	r3, r2, r3
 8001666:	f241 3288 	movw	r2, #5000	; 0x1388
 800166a:	4293      	cmp	r3, r2
 800166c:	d901      	bls.n	8001672 <HAL_RCC_ClockConfig+0x10e>
      {
        return HAL_TIMEOUT;
 800166e:	2303      	movs	r3, #3
 8001670:	e04f      	b.n	8001712 <HAL_RCC_ClockConfig+0x1ae>
    while (__HAL_RCC_GET_SYSCLK_SOURCE() != (RCC_ClkInitStruct->SYSCLKSource << RCC_CFGR_SWS_Pos))
 8001672:	4b2b      	ldr	r3, [pc, #172]	; (8001720 <HAL_RCC_ClockConfig+0x1bc>)
 8001674:	689b      	ldr	r3, [r3, #8]
 8001676:	f003 020c 	and.w	r2, r3, #12
 800167a:	687b      	ldr	r3, [r7, #4]
 800167c:	685b      	ldr	r3, [r3, #4]
 800167e:	009b      	lsls	r3, r3, #2
 8001680:	429a      	cmp	r2, r3
 8001682:	d1eb      	bne.n	800165c <HAL_RCC_ClockConfig+0xf8>
      }
    }
  }

  /* Decreasing the number of wait states because of lower CPU frequency */
  if(FLatency < __HAL_FLASH_GET_LATENCY())
 8001684:	4b25      	ldr	r3, [pc, #148]	; (800171c <HAL_RCC_ClockConfig+0x1b8>)
 8001686:	681b      	ldr	r3, [r3, #0]
 8001688:	f003 0307 	and.w	r3, r3, #7
 800168c:	683a      	ldr	r2, [r7, #0]
 800168e:	429a      	cmp	r2, r3
 8001690:	d20c      	bcs.n	80016ac <HAL_RCC_ClockConfig+0x148>
  {
     /* Program the new number of wait states to the LATENCY bits in the FLASH_ACR register */
    __HAL_FLASH_SET_LATENCY(FLatency);
 8001692:	4b22      	ldr	r3, [pc, #136]	; (800171c <HAL_RCC_ClockConfig+0x1b8>)
 8001694:	683a      	ldr	r2, [r7, #0]
 8001696:	b2d2      	uxtb	r2, r2
 8001698:	701a      	strb	r2, [r3, #0]

    /* Check that the new number of wait states is taken into account to access the Flash
    memory by reading the FLASH_ACR register */
    if(__HAL_FLASH_GET_LATENCY() != FLatency)
 800169a:	4b20      	ldr	r3, [pc, #128]	; (800171c <HAL_RCC_ClockConfig+0x1b8>)
 800169c:	681b      	ldr	r3, [r3, #0]
 800169e:	f003 0307 	and.w	r3, r3, #7
 80016a2:	683a      	ldr	r2, [r7, #0]
 80016a4:	429a      	cmp	r2, r3
 80016a6:	d001      	beq.n	80016ac <HAL_RCC_ClockConfig+0x148>
    {
      return HAL_ERROR;
 80016a8:	2301      	movs	r3, #1
 80016aa:	e032      	b.n	8001712 <HAL_RCC_ClockConfig+0x1ae>
    }
  }

  /*-------------------------- PCLK1 Configuration ---------------------------*/
  if(((RCC_ClkInitStruct->ClockType) & RCC_CLOCKTYPE_PCLK1) == RCC_CLOCKTYPE_PCLK1)
 80016ac:	687b      	ldr	r3, [r7, #4]
 80016ae:	681b      	ldr	r3, [r3, #0]
 80016b0:	f003 0304 	and.w	r3, r3, #4
 80016b4:	2b00      	cmp	r3, #0
 80016b6:	d008      	beq.n	80016ca <HAL_RCC_ClockConfig+0x166>
  {
    assert_param(IS_RCC_PCLK(RCC_ClkInitStruct->APB1CLKDivider));
    MODIFY_REG(RCC->CFGR, RCC_CFGR_PPRE1, RCC_ClkInitStruct->APB1CLKDivider);
 80016b8:	4b19      	ldr	r3, [pc, #100]	; (8001720 <HAL_RCC_ClockConfig+0x1bc>)
 80016ba:	689b      	ldr	r3, [r3, #8]
 80016bc:	f423 52e0 	bic.w	r2, r3, #7168	; 0x1c00
 80016c0:	687b      	ldr	r3, [r7, #4]
 80016c2:	68db      	ldr	r3, [r3, #12]
 80016c4:	4916      	ldr	r1, [pc, #88]	; (8001720 <HAL_RCC_ClockConfig+0x1bc>)
 80016c6:	4313      	orrs	r3, r2
 80016c8:	608b      	str	r3, [r1, #8]
  }

  /*-------------------------- PCLK2 Configuration ---------------------------*/
  if(((RCC_ClkInitStruct->ClockType) & RCC_CLOCKTYPE_PCLK2) == RCC_CLOCKTYPE_PCLK2)
 80016ca:	687b      	ldr	r3, [r7, #4]
 80016cc:	681b      	ldr	r3, [r3, #0]
 80016ce:	f003 0308 	and.w	r3, r3, #8
 80016d2:	2b00      	cmp	r3, #0
 80016d4:	d009      	beq.n	80016ea <HAL_RCC_ClockConfig+0x186>
  {
    assert_param(IS_RCC_PCLK(RCC_ClkInitStruct->APB2CLKDivider));
    MODIFY_REG(RCC->CFGR, RCC_CFGR_PPRE2, ((RCC_ClkInitStruct->APB2CLKDivider) << 3U));
 80016d6:	4b12      	ldr	r3, [pc, #72]	; (8001720 <HAL_RCC_ClockConfig+0x1bc>)
 80016d8:	689b      	ldr	r3, [r3, #8]
 80016da:	f423 4260 	bic.w	r2, r3, #57344	; 0xe000
 80016de:	687b      	ldr	r3, [r7, #4]
 80016e0:	691b      	ldr	r3, [r3, #16]
 80016e2:	00db      	lsls	r3, r3, #3
 80016e4:	490e      	ldr	r1, [pc, #56]	; (8001720 <HAL_RCC_ClockConfig+0x1bc>)
 80016e6:	4313      	orrs	r3, r2
 80016e8:	608b      	str	r3, [r1, #8]
  }

  /* Update the SystemCoreClock global variable */
  SystemCoreClock = HAL_RCC_GetSysClockFreq() >> AHBPrescTable[(RCC->CFGR & RCC_CFGR_HPRE)>> RCC_CFGR_HPRE_Pos];
 80016ea:	f000 f821 	bl	8001730 <HAL_RCC_GetSysClockFreq>
 80016ee:	4602      	mov	r2, r0
 80016f0:	4b0b      	ldr	r3, [pc, #44]	; (8001720 <HAL_RCC_ClockConfig+0x1bc>)
 80016f2:	689b      	ldr	r3, [r3, #8]
 80016f4:	091b      	lsrs	r3, r3, #4
 80016f6:	f003 030f 	and.w	r3, r3, #15
 80016fa:	490a      	ldr	r1, [pc, #40]	; (8001724 <HAL_RCC_ClockConfig+0x1c0>)
 80016fc:	5ccb      	ldrb	r3, [r1, r3]
 80016fe:	fa22 f303 	lsr.w	r3, r2, r3
 8001702:	4a09      	ldr	r2, [pc, #36]	; (8001728 <HAL_RCC_ClockConfig+0x1c4>)
 8001704:	6013      	str	r3, [r2, #0]

  /* Configure the source of time base considering new system clocks settings */
  HAL_InitTick (uwTickPrio);
 8001706:	4b09      	ldr	r3, [pc, #36]	; (800172c <HAL_RCC_ClockConfig+0x1c8>)
 8001708:	681b      	ldr	r3, [r3, #0]
 800170a:	4618      	mov	r0, r3
 800170c:	f7ff f894 	bl	8000838 <HAL_InitTick>

  return HAL_OK;
 8001710:	2300      	movs	r3, #0
}
 8001712:	4618      	mov	r0, r3
 8001714:	3710      	adds	r7, #16
 8001716:	46bd      	mov	sp, r7
 8001718:	bd80      	pop	{r7, pc}
 800171a:	bf00      	nop
 800171c:	40023c00 	.word	0x40023c00
 8001720:	40023800 	.word	0x40023800
 8001724:	0800230c 	.word	0x0800230c
 8001728:	20000000 	.word	0x20000000
 800172c:	20000004 	.word	0x20000004

08001730 <HAL_RCC_GetSysClockFreq>:
  *
  *
  * @retval SYSCLK frequency
  */
__weak uint32_t HAL_RCC_GetSysClockFreq(void)
{
 8001730:	e92d 43b0 	stmdb	sp!, {r4, r5, r7, r8, r9, lr}
 8001734:	b084      	sub	sp, #16
 8001736:	af00      	add	r7, sp, #0
  uint32_t pllm = 0U, pllvco = 0U, pllp = 0U;
 8001738:	2300      	movs	r3, #0
 800173a:	607b      	str	r3, [r7, #4]
 800173c:	2300      	movs	r3, #0
 800173e:	60fb      	str	r3, [r7, #12]
 8001740:	2300      	movs	r3, #0
 8001742:	603b      	str	r3, [r7, #0]
  uint32_t sysclockfreq = 0U;
 8001744:	2300      	movs	r3, #0
 8001746:	60bb      	str	r3, [r7, #8]

  /* Get SYSCLK source -------------------------------------------------------*/
  switch (RCC->CFGR & RCC_CFGR_SWS)
 8001748:	4b67      	ldr	r3, [pc, #412]	; (80018e8 <HAL_RCC_GetSysClockFreq+0x1b8>)
 800174a:	689b      	ldr	r3, [r3, #8]
 800174c:	f003 030c 	and.w	r3, r3, #12
 8001750:	2b08      	cmp	r3, #8
 8001752:	d00d      	beq.n	8001770 <HAL_RCC_GetSysClockFreq+0x40>
 8001754:	2b08      	cmp	r3, #8
 8001756:	f200 80bd 	bhi.w	80018d4 <HAL_RCC_GetSysClockFreq+0x1a4>
 800175a:	2b00      	cmp	r3, #0
 800175c:	d002      	beq.n	8001764 <HAL_RCC_GetSysClockFreq+0x34>
 800175e:	2b04      	cmp	r3, #4
 8001760:	d003      	beq.n	800176a <HAL_RCC_GetSysClockFreq+0x3a>
 8001762:	e0b7      	b.n	80018d4 <HAL_RCC_GetSysClockFreq+0x1a4>
  {
    case RCC_CFGR_SWS_HSI:  /* HSI used as system clock source */
    {
      sysclockfreq = HSI_VALUE;
 8001764:	4b61      	ldr	r3, [pc, #388]	; (80018ec <HAL_RCC_GetSysClockFreq+0x1bc>)
 8001766:	60bb      	str	r3, [r7, #8]
       break;
 8001768:	e0b7      	b.n	80018da <HAL_RCC_GetSysClockFreq+0x1aa>
    }
    case RCC_CFGR_SWS_HSE:  /* HSE used as system clock  source */
    {
      sysclockfreq = HSE_VALUE;
 800176a:	4b61      	ldr	r3, [pc, #388]	; (80018f0 <HAL_RCC_GetSysClockFreq+0x1c0>)
 800176c:	60bb      	str	r3, [r7, #8]
      break;
 800176e:	e0b4      	b.n	80018da <HAL_RCC_GetSysClockFreq+0x1aa>
    }
    case RCC_CFGR_SWS_PLL:  /* PLL used as system clock  source */
    {
      /* PLL_VCO = (HSE_VALUE or HSI_VALUE / PLLM) * PLLN
      SYSCLK = PLL_VCO / PLLP */
      pllm = RCC->PLLCFGR & RCC_PLLCFGR_PLLM;
 8001770:	4b5d      	ldr	r3, [pc, #372]	; (80018e8 <HAL_RCC_GetSysClockFreq+0x1b8>)
 8001772:	685b      	ldr	r3, [r3, #4]
 8001774:	f003 033f 	and.w	r3, r3, #63	; 0x3f
 8001778:	607b      	str	r3, [r7, #4]
      if(__HAL_RCC_GET_PLL_OSCSOURCE() != RCC_PLLSOURCE_HSI)
 800177a:	4b5b      	ldr	r3, [pc, #364]	; (80018e8 <HAL_RCC_GetSysClockFreq+0x1b8>)
 800177c:	685b      	ldr	r3, [r3, #4]
 800177e:	f403 0380 	and.w	r3, r3, #4194304	; 0x400000
 8001782:	2b00      	cmp	r3, #0
 8001784:	d04d      	beq.n	8001822 <HAL_RCC_GetSysClockFreq+0xf2>
      {
        /* HSE used as PLL clock source */
        pllvco = (uint32_t) ((((uint64_t) HSE_VALUE * ((uint64_t) ((RCC->PLLCFGR & RCC_PLLCFGR_PLLN) >> RCC_PLLCFGR_PLLN_Pos)))) / (uint64_t)pllm);
 8001786:	4b58      	ldr	r3, [pc, #352]	; (80018e8 <HAL_RCC_GetSysClockFreq+0x1b8>)
 8001788:	685b      	ldr	r3, [r3, #4]
 800178a:	099b      	lsrs	r3, r3, #6
 800178c:	461a      	mov	r2, r3
 800178e:	f04f 0300 	mov.w	r3, #0
 8001792:	f240 10ff 	movw	r0, #511	; 0x1ff
 8001796:	f04f 0100 	mov.w	r1, #0
 800179a:	ea02 0800 	and.w	r8, r2, r0
 800179e:	ea03 0901 	and.w	r9, r3, r1
 80017a2:	4640      	mov	r0, r8
 80017a4:	4649      	mov	r1, r9
 80017a6:	f04f 0200 	mov.w	r2, #0
 80017aa:	f04f 0300 	mov.w	r3, #0
 80017ae:	014b      	lsls	r3, r1, #5
 80017b0:	ea43 63d0 	orr.w	r3, r3, r0, lsr #27
 80017b4:	0142      	lsls	r2, r0, #5
 80017b6:	4610      	mov	r0, r2
 80017b8:	4619      	mov	r1, r3
 80017ba:	ebb0 0008 	subs.w	r0, r0, r8
 80017be:	eb61 0109 	sbc.w	r1, r1, r9
 80017c2:	f04f 0200 	mov.w	r2, #0
 80017c6:	f04f 0300 	mov.w	r3, #0
 80017ca:	018b      	lsls	r3, r1, #6
 80017cc:	ea43 6390 	orr.w	r3, r3, r0, lsr #26
 80017d0:	0182      	lsls	r2, r0, #6
 80017d2:	1a12      	subs	r2, r2, r0
 80017d4:	eb63 0301 	sbc.w	r3, r3, r1
 80017d8:	f04f 0000 	mov.w	r0, #0
 80017dc:	f04f 0100 	mov.w	r1, #0
 80017e0:	00d9      	lsls	r1, r3, #3
 80017e2:	ea41 7152 	orr.w	r1, r1, r2, lsr #29
 80017e6:	00d0      	lsls	r0, r2, #3
 80017e8:	4602      	mov	r2, r0
 80017ea:	460b      	mov	r3, r1
 80017ec:	eb12 0208 	adds.w	r2, r2, r8
 80017f0:	eb43 0309 	adc.w	r3, r3, r9
 80017f4:	f04f 0000 	mov.w	r0, #0
 80017f8:	f04f 0100 	mov.w	r1, #0
 80017fc:	0259      	lsls	r1, r3, #9
 80017fe:	ea41 51d2 	orr.w	r1, r1, r2, lsr #23
 8001802:	0250      	lsls	r0, r2, #9
 8001804:	4602      	mov	r2, r0
 8001806:	460b      	mov	r3, r1
 8001808:	4610      	mov	r0, r2
 800180a:	4619      	mov	r1, r3
 800180c:	687b      	ldr	r3, [r7, #4]
 800180e:	461a      	mov	r2, r3
 8001810:	f04f 0300 	mov.w	r3, #0
 8001814:	f7fe fcd8 	bl	80001c8 <__aeabi_uldivmod>
 8001818:	4602      	mov	r2, r0
 800181a:	460b      	mov	r3, r1
 800181c:	4613      	mov	r3, r2
 800181e:	60fb      	str	r3, [r7, #12]
 8001820:	e04a      	b.n	80018b8 <HAL_RCC_GetSysClockFreq+0x188>
      }
      else
      {
        /* HSI used as PLL clock source */
        pllvco = (uint32_t) ((((uint64_t) HSI_VALUE * ((uint64_t) ((RCC->PLLCFGR & RCC_PLLCFGR_PLLN) >> RCC_PLLCFGR_PLLN_Pos)))) / (uint64_t)pllm);
 8001822:	4b31      	ldr	r3, [pc, #196]	; (80018e8 <HAL_RCC_GetSysClockFreq+0x1b8>)
 8001824:	685b      	ldr	r3, [r3, #4]
 8001826:	099b      	lsrs	r3, r3, #6
 8001828:	461a      	mov	r2, r3
 800182a:	f04f 0300 	mov.w	r3, #0
 800182e:	f240 10ff 	movw	r0, #511	; 0x1ff
 8001832:	f04f 0100 	mov.w	r1, #0
 8001836:	ea02 0400 	and.w	r4, r2, r0
 800183a:	ea03 0501 	and.w	r5, r3, r1
 800183e:	4620      	mov	r0, r4
 8001840:	4629      	mov	r1, r5
 8001842:	f04f 0200 	mov.w	r2, #0
 8001846:	f04f 0300 	mov.w	r3, #0
 800184a:	014b      	lsls	r3, r1, #5
 800184c:	ea43 63d0 	orr.w	r3, r3, r0, lsr #27
 8001850:	0142      	lsls	r2, r0, #5
 8001852:	4610      	mov	r0, r2
 8001854:	4619      	mov	r1, r3
 8001856:	1b00      	subs	r0, r0, r4
 8001858:	eb61 0105 	sbc.w	r1, r1, r5
 800185c:	f04f 0200 	mov.w	r2, #0
 8001860:	f04f 0300 	mov.w	r3, #0
 8001864:	018b      	lsls	r3, r1, #6
 8001866:	ea43 6390 	orr.w	r3, r3, r0, lsr #26
 800186a:	0182      	lsls	r2, r0, #6
 800186c:	1a12      	subs	r2, r2, r0
 800186e:	eb63 0301 	sbc.w	r3, r3, r1
 8001872:	f04f 0000 	mov.w	r0, #0
 8001876:	f04f 0100 	mov.w	r1, #0
 800187a:	00d9      	lsls	r1, r3, #3
 800187c:	ea41 7152 	orr.w	r1, r1, r2, lsr #29
 8001880:	00d0      	lsls	r0, r2, #3
 8001882:	4602      	mov	r2, r0
 8001884:	460b      	mov	r3, r1
 8001886:	1912      	adds	r2, r2, r4
 8001888:	eb45 0303 	adc.w	r3, r5, r3
 800188c:	f04f 0000 	mov.w	r0, #0
 8001890:	f04f 0100 	mov.w	r1, #0
 8001894:	0299      	lsls	r1, r3, #10
 8001896:	ea41 5192 	orr.w	r1, r1, r2, lsr #22
 800189a:	0290      	lsls	r0, r2, #10
 800189c:	4602      	mov	r2, r0
 800189e:	460b      	mov	r3, r1
 80018a0:	4610      	mov	r0, r2
 80018a2:	4619      	mov	r1, r3
 80018a4:	687b      	ldr	r3, [r7, #4]
 80018a6:	461a      	mov	r2, r3
 80018a8:	f04f 0300 	mov.w	r3, #0
 80018ac:	f7fe fc8c 	bl	80001c8 <__aeabi_uldivmod>
 80018b0:	4602      	mov	r2, r0
 80018b2:	460b      	mov	r3, r1
 80018b4:	4613      	mov	r3, r2
 80018b6:	60fb      	str	r3, [r7, #12]
      }
      pllp = ((((RCC->PLLCFGR & RCC_PLLCFGR_PLLP) >> RCC_PLLCFGR_PLLP_Pos) + 1U) *2U);
 80018b8:	4b0b      	ldr	r3, [pc, #44]	; (80018e8 <HAL_RCC_GetSysClockFreq+0x1b8>)
 80018ba:	685b      	ldr	r3, [r3, #4]
 80018bc:	0c1b      	lsrs	r3, r3, #16
 80018be:	f003 0303 	and.w	r3, r3, #3
 80018c2:	3301      	adds	r3, #1
 80018c4:	005b      	lsls	r3, r3, #1
 80018c6:	603b      	str	r3, [r7, #0]

      sysclockfreq = pllvco/pllp;
 80018c8:	68fa      	ldr	r2, [r7, #12]
 80018ca:	683b      	ldr	r3, [r7, #0]
 80018cc:	fbb2 f3f3 	udiv	r3, r2, r3
 80018d0:	60bb      	str	r3, [r7, #8]
      break;
 80018d2:	e002      	b.n	80018da <HAL_RCC_GetSysClockFreq+0x1aa>
    }
    default:
    {
      sysclockfreq = HSI_VALUE;
 80018d4:	4b05      	ldr	r3, [pc, #20]	; (80018ec <HAL_RCC_GetSysClockFreq+0x1bc>)
 80018d6:	60bb      	str	r3, [r7, #8]
      break;
 80018d8:	bf00      	nop
    }
  }
  return sysclockfreq;
 80018da:	68bb      	ldr	r3, [r7, #8]
}
 80018dc:	4618      	mov	r0, r3
 80018de:	3710      	adds	r7, #16
 80018e0:	46bd      	mov	sp, r7
 80018e2:	e8bd 83b0 	ldmia.w	sp!, {r4, r5, r7, r8, r9, pc}
 80018e6:	bf00      	nop
 80018e8:	40023800 	.word	0x40023800
 80018ec:	00f42400 	.word	0x00f42400
 80018f0:	007a1200 	.word	0x007a1200

080018f4 <HAL_RCC_GetHCLKFreq>:
  * @note   The SystemCoreClock CMSIS variable is used to store System Clock Frequency
  *         and updated within this function
  * @retval HCLK frequency
  */
uint32_t HAL_RCC_GetHCLKFreq(void)
{
 80018f4:	b480      	push	{r7}
 80018f6:	af00      	add	r7, sp, #0
  return SystemCoreClock;
 80018f8:	4b03      	ldr	r3, [pc, #12]	; (8001908 <HAL_RCC_GetHCLKFreq+0x14>)
 80018fa:	681b      	ldr	r3, [r3, #0]
}
 80018fc:	4618      	mov	r0, r3
 80018fe:	46bd      	mov	sp, r7
 8001900:	f85d 7b04 	ldr.w	r7, [sp], #4
 8001904:	4770      	bx	lr
 8001906:	bf00      	nop
 8001908:	20000000 	.word	0x20000000

0800190c <HAL_RCC_GetPCLK2Freq>:
  * @note   Each time PCLK2 changes, this function must be called to update the
  *         right PCLK2 value. Otherwise, any configuration based on this function will be incorrect.
  * @retval PCLK2 frequency
  */
uint32_t HAL_RCC_GetPCLK2Freq(void)
{
 800190c:	b580      	push	{r7, lr}
 800190e:	af00      	add	r7, sp, #0
  /* Get HCLK source and Compute PCLK2 frequency ---------------------------*/
  return (HAL_RCC_GetHCLKFreq()>> APBPrescTable[(RCC->CFGR & RCC_CFGR_PPRE2)>> RCC_CFGR_PPRE2_Pos]);
 8001910:	f7ff fff0 	bl	80018f4 <HAL_RCC_GetHCLKFreq>
 8001914:	4602      	mov	r2, r0
 8001916:	4b05      	ldr	r3, [pc, #20]	; (800192c <HAL_RCC_GetPCLK2Freq+0x20>)
 8001918:	689b      	ldr	r3, [r3, #8]
 800191a:	0b5b      	lsrs	r3, r3, #13
 800191c:	f003 0307 	and.w	r3, r3, #7
 8001920:	4903      	ldr	r1, [pc, #12]	; (8001930 <HAL_RCC_GetPCLK2Freq+0x24>)
 8001922:	5ccb      	ldrb	r3, [r1, r3]
 8001924:	fa22 f303 	lsr.w	r3, r2, r3
}
 8001928:	4618      	mov	r0, r3
 800192a:	bd80      	pop	{r7, pc}
 800192c:	40023800 	.word	0x40023800
 8001930:	0800231c 	.word	0x0800231c

08001934 <HAL_RCC_GetClockConfig>:
  * will be configured.
  * @param  pFLatency Pointer on the Flash Latency.
  * @retval None
  */
void HAL_RCC_GetClockConfig(RCC_ClkInitTypeDef  *RCC_ClkInitStruct, uint32_t *pFLatency)
{
 8001934:	b480      	push	{r7}
 8001936:	b083      	sub	sp, #12
 8001938:	af00      	add	r7, sp, #0
 800193a:	6078      	str	r0, [r7, #4]
 800193c:	6039      	str	r1, [r7, #0]
  /* Set all possible values for the Clock type parameter --------------------*/
  RCC_ClkInitStruct->ClockType = RCC_CLOCKTYPE_SYSCLK | RCC_CLOCKTYPE_HCLK | RCC_CLOCKTYPE_PCLK1 | RCC_CLOCKTYPE_PCLK2;
 800193e:	687b      	ldr	r3, [r7, #4]
 8001940:	220f      	movs	r2, #15
 8001942:	601a      	str	r2, [r3, #0]

  /* Get the SYSCLK configuration --------------------------------------------*/
  RCC_ClkInitStruct->SYSCLKSource = (uint32_t)(RCC->CFGR & RCC_CFGR_SW);
 8001944:	4b12      	ldr	r3, [pc, #72]	; (8001990 <HAL_RCC_GetClockConfig+0x5c>)
 8001946:	689b      	ldr	r3, [r3, #8]
 8001948:	f003 0203 	and.w	r2, r3, #3
 800194c:	687b      	ldr	r3, [r7, #4]
 800194e:	605a      	str	r2, [r3, #4]

  /* Get the HCLK configuration ----------------------------------------------*/
  RCC_ClkInitStruct->AHBCLKDivider = (uint32_t)(RCC->CFGR & RCC_CFGR_HPRE);
 8001950:	4b0f      	ldr	r3, [pc, #60]	; (8001990 <HAL_RCC_GetClockConfig+0x5c>)
 8001952:	689b      	ldr	r3, [r3, #8]
 8001954:	f003 02f0 	and.w	r2, r3, #240	; 0xf0
 8001958:	687b      	ldr	r3, [r7, #4]
 800195a:	609a      	str	r2, [r3, #8]

  /* Get the APB1 configuration ----------------------------------------------*/
  RCC_ClkInitStruct->APB1CLKDivider = (uint32_t)(RCC->CFGR & RCC_CFGR_PPRE1);
 800195c:	4b0c      	ldr	r3, [pc, #48]	; (8001990 <HAL_RCC_GetClockConfig+0x5c>)
 800195e:	689b      	ldr	r3, [r3, #8]
 8001960:	f403 52e0 	and.w	r2, r3, #7168	; 0x1c00
 8001964:	687b      	ldr	r3, [r7, #4]
 8001966:	60da      	str	r2, [r3, #12]

  /* Get the APB2 configuration ----------------------------------------------*/
  RCC_ClkInitStruct->APB2CLKDivider = (uint32_t)((RCC->CFGR & RCC_CFGR_PPRE2) >> 3U);
 8001968:	4b09      	ldr	r3, [pc, #36]	; (8001990 <HAL_RCC_GetClockConfig+0x5c>)
 800196a:	689b      	ldr	r3, [r3, #8]
 800196c:	08db      	lsrs	r3, r3, #3
 800196e:	f403 52e0 	and.w	r2, r3, #7168	; 0x1c00
 8001972:	687b      	ldr	r3, [r7, #4]
 8001974:	611a      	str	r2, [r3, #16]

  /* Get the Flash Wait State (Latency) configuration ------------------------*/
  *pFLatency = (uint32_t)(FLASH->ACR & FLASH_ACR_LATENCY);
 8001976:	4b07      	ldr	r3, [pc, #28]	; (8001994 <HAL_RCC_GetClockConfig+0x60>)
 8001978:	681b      	ldr	r3, [r3, #0]
 800197a:	f003 0207 	and.w	r2, r3, #7
 800197e:	683b      	ldr	r3, [r7, #0]
 8001980:	601a      	str	r2, [r3, #0]
}
 8001982:	bf00      	nop
 8001984:	370c      	adds	r7, #12
 8001986:	46bd      	mov	sp, r7
 8001988:	f85d 7b04 	ldr.w	r7, [sp], #4
 800198c:	4770      	bx	lr
 800198e:	bf00      	nop
 8001990:	40023800 	.word	0x40023800
 8001994:	40023c00 	.word	0x40023c00

08001998 <HAL_TIM_Base_Init>:
  *         Ex: call @ref HAL_TIM_Base_DeInit() before HAL_TIM_Base_Init()
  * @param  htim TIM Base handle
  * @retval HAL status
  */
HAL_StatusTypeDef HAL_TIM_Base_Init(TIM_HandleTypeDef *htim)
{
 8001998:	b580      	push	{r7, lr}
 800199a:	b082      	sub	sp, #8
 800199c:	af00      	add	r7, sp, #0
 800199e:	6078      	str	r0, [r7, #4]
  /* Check the TIM handle allocation */
  if (htim == NULL)
 80019a0:	687b      	ldr	r3, [r7, #4]
 80019a2:	2b00      	cmp	r3, #0
 80019a4:	d101      	bne.n	80019aa <HAL_TIM_Base_Init+0x12>
  {
    return HAL_ERROR;
 80019a6:	2301      	movs	r3, #1
 80019a8:	e041      	b.n	8001a2e <HAL_TIM_Base_Init+0x96>
  assert_param(IS_TIM_INSTANCE(htim->Instance));
  assert_param(IS_TIM_COUNTER_MODE(htim->Init.CounterMode));
  assert_param(IS_TIM_CLOCKDIVISION_DIV(htim->Init.ClockDivision));
  assert_param(IS_TIM_AUTORELOAD_PRELOAD(htim->Init.AutoReloadPreload));

  if (htim->State == HAL_TIM_STATE_RESET)
 80019aa:	687b      	ldr	r3, [r7, #4]
 80019ac:	f893 303d 	ldrb.w	r3, [r3, #61]	; 0x3d
 80019b0:	b2db      	uxtb	r3, r3
 80019b2:	2b00      	cmp	r3, #0
 80019b4:	d106      	bne.n	80019c4 <HAL_TIM_Base_Init+0x2c>
  {
    /* Allocate lock resource and initialize it */
    htim->Lock = HAL_UNLOCKED;
 80019b6:	687b      	ldr	r3, [r7, #4]
 80019b8:	2200      	movs	r2, #0
 80019ba:	f883 203c 	strb.w	r2, [r3, #60]	; 0x3c
    }
    /* Init the low level hardware : GPIO, CLOCK, NVIC */
    htim->Base_MspInitCallback(htim);
#else
    /* Init the low level hardware : GPIO, CLOCK, NVIC */
    HAL_TIM_Base_MspInit(htim);
 80019be:	6878      	ldr	r0, [r7, #4]
 80019c0:	f7fe ff1a 	bl	80007f8 <HAL_TIM_Base_MspInit>
#endif /* USE_HAL_TIM_REGISTER_CALLBACKS */
  }

  /* Set the TIM state */
  htim->State = HAL_TIM_STATE_BUSY;
 80019c4:	687b      	ldr	r3, [r7, #4]
 80019c6:	2202      	movs	r2, #2
 80019c8:	f883 203d 	strb.w	r2, [r3, #61]	; 0x3d

  /* Set the Time Base configuration */
  TIM_Base_SetConfig(htim->Instance, &htim->Init);
 80019cc:	687b      	ldr	r3, [r7, #4]
 80019ce:	681a      	ldr	r2, [r3, #0]
 80019d0:	687b      	ldr	r3, [r7, #4]
 80019d2:	3304      	adds	r3, #4
 80019d4:	4619      	mov	r1, r3
 80019d6:	4610      	mov	r0, r2
 80019d8:	f000 fa96 	bl	8001f08 <TIM_Base_SetConfig>

  /* Initialize the DMA burst operation state */
  htim->DMABurstState = HAL_DMA_BURST_STATE_READY;
 80019dc:	687b      	ldr	r3, [r7, #4]
 80019de:	2201      	movs	r2, #1
 80019e0:	f883 2046 	strb.w	r2, [r3, #70]	; 0x46

  /* Initialize the TIM channels state */
  TIM_CHANNEL_STATE_SET_ALL(htim, HAL_TIM_CHANNEL_STATE_READY);
 80019e4:	687b      	ldr	r3, [r7, #4]
 80019e6:	2201      	movs	r2, #1
 80019e8:	f883 203e 	strb.w	r2, [r3, #62]	; 0x3e
 80019ec:	687b      	ldr	r3, [r7, #4]
 80019ee:	2201      	movs	r2, #1
 80019f0:	f883 203f 	strb.w	r2, [r3, #63]	; 0x3f
 80019f4:	687b      	ldr	r3, [r7, #4]
 80019f6:	2201      	movs	r2, #1
 80019f8:	f883 2040 	strb.w	r2, [r3, #64]	; 0x40
 80019fc:	687b      	ldr	r3, [r7, #4]
 80019fe:	2201      	movs	r2, #1
 8001a00:	f883 2041 	strb.w	r2, [r3, #65]	; 0x41
  TIM_CHANNEL_N_STATE_SET_ALL(htim, HAL_TIM_CHANNEL_STATE_READY);
 8001a04:	687b      	ldr	r3, [r7, #4]
 8001a06:	2201      	movs	r2, #1
 8001a08:	f883 2042 	strb.w	r2, [r3, #66]	; 0x42
 8001a0c:	687b      	ldr	r3, [r7, #4]
 8001a0e:	2201      	movs	r2, #1
 8001a10:	f883 2043 	strb.w	r2, [r3, #67]	; 0x43
 8001a14:	687b      	ldr	r3, [r7, #4]
 8001a16:	2201      	movs	r2, #1
 8001a18:	f883 2044 	strb.w	r2, [r3, #68]	; 0x44
 8001a1c:	687b      	ldr	r3, [r7, #4]
 8001a1e:	2201      	movs	r2, #1
 8001a20:	f883 2045 	strb.w	r2, [r3, #69]	; 0x45

  /* Initialize the TIM state*/
  htim->State = HAL_TIM_STATE_READY;
 8001a24:	687b      	ldr	r3, [r7, #4]
 8001a26:	2201      	movs	r2, #1
 8001a28:	f883 203d 	strb.w	r2, [r3, #61]	; 0x3d

  return HAL_OK;
 8001a2c:	2300      	movs	r3, #0
}
 8001a2e:	4618      	mov	r0, r3
 8001a30:	3708      	adds	r7, #8
 8001a32:	46bd      	mov	sp, r7
 8001a34:	bd80      	pop	{r7, pc}
	...

08001a38 <HAL_TIM_Base_Start_IT>:
  * @brief  Starts the TIM Base generation in interrupt mode.
  * @param  htim TIM Base handle
  * @retval HAL status
  */
HAL_StatusTypeDef HAL_TIM_Base_Start_IT(TIM_HandleTypeDef *htim)
{
 8001a38:	b480      	push	{r7}
 8001a3a:	b085      	sub	sp, #20
 8001a3c:	af00      	add	r7, sp, #0
 8001a3e:	6078      	str	r0, [r7, #4]

  /* Check the parameters */
  assert_param(IS_TIM_INSTANCE(htim->Instance));

  /* Check the TIM state */
  if (htim->State != HAL_TIM_STATE_READY)
 8001a40:	687b      	ldr	r3, [r7, #4]
 8001a42:	f893 303d 	ldrb.w	r3, [r3, #61]	; 0x3d
 8001a46:	b2db      	uxtb	r3, r3
 8001a48:	2b01      	cmp	r3, #1
 8001a4a:	d001      	beq.n	8001a50 <HAL_TIM_Base_Start_IT+0x18>
  {
    return HAL_ERROR;
 8001a4c:	2301      	movs	r3, #1
 8001a4e:	e04e      	b.n	8001aee <HAL_TIM_Base_Start_IT+0xb6>
  }

  /* Set the TIM state */
  htim->State = HAL_TIM_STATE_BUSY;
 8001a50:	687b      	ldr	r3, [r7, #4]
 8001a52:	2202      	movs	r2, #2
 8001a54:	f883 203d 	strb.w	r2, [r3, #61]	; 0x3d

  /* Enable the TIM Update interrupt */
  __HAL_TIM_ENABLE_IT(htim, TIM_IT_UPDATE);
 8001a58:	687b      	ldr	r3, [r7, #4]
 8001a5a:	681b      	ldr	r3, [r3, #0]
 8001a5c:	68da      	ldr	r2, [r3, #12]
 8001a5e:	687b      	ldr	r3, [r7, #4]
 8001a60:	681b      	ldr	r3, [r3, #0]
 8001a62:	f042 0201 	orr.w	r2, r2, #1
 8001a66:	60da      	str	r2, [r3, #12]

  /* Enable the Peripheral, except in trigger mode where enable is automatically done with trigger */
  if (IS_TIM_SLAVE_INSTANCE(htim->Instance))
 8001a68:	687b      	ldr	r3, [r7, #4]
 8001a6a:	681b      	ldr	r3, [r3, #0]
 8001a6c:	4a23      	ldr	r2, [pc, #140]	; (8001afc <HAL_TIM_Base_Start_IT+0xc4>)
 8001a6e:	4293      	cmp	r3, r2
 8001a70:	d022      	beq.n	8001ab8 <HAL_TIM_Base_Start_IT+0x80>
 8001a72:	687b      	ldr	r3, [r7, #4]
 8001a74:	681b      	ldr	r3, [r3, #0]
 8001a76:	f1b3 4f80 	cmp.w	r3, #1073741824	; 0x40000000
 8001a7a:	d01d      	beq.n	8001ab8 <HAL_TIM_Base_Start_IT+0x80>
 8001a7c:	687b      	ldr	r3, [r7, #4]
 8001a7e:	681b      	ldr	r3, [r3, #0]
 8001a80:	4a1f      	ldr	r2, [pc, #124]	; (8001b00 <HAL_TIM_Base_Start_IT+0xc8>)
 8001a82:	4293      	cmp	r3, r2
 8001a84:	d018      	beq.n	8001ab8 <HAL_TIM_Base_Start_IT+0x80>
 8001a86:	687b      	ldr	r3, [r7, #4]
 8001a88:	681b      	ldr	r3, [r3, #0]
 8001a8a:	4a1e      	ldr	r2, [pc, #120]	; (8001b04 <HAL_TIM_Base_Start_IT+0xcc>)
 8001a8c:	4293      	cmp	r3, r2
 8001a8e:	d013      	beq.n	8001ab8 <HAL_TIM_Base_Start_IT+0x80>
 8001a90:	687b      	ldr	r3, [r7, #4]
 8001a92:	681b      	ldr	r3, [r3, #0]
 8001a94:	4a1c      	ldr	r2, [pc, #112]	; (8001b08 <HAL_TIM_Base_Start_IT+0xd0>)
 8001a96:	4293      	cmp	r3, r2
 8001a98:	d00e      	beq.n	8001ab8 <HAL_TIM_Base_Start_IT+0x80>
 8001a9a:	687b      	ldr	r3, [r7, #4]
 8001a9c:	681b      	ldr	r3, [r3, #0]
 8001a9e:	4a1b      	ldr	r2, [pc, #108]	; (8001b0c <HAL_TIM_Base_Start_IT+0xd4>)
 8001aa0:	4293      	cmp	r3, r2
 8001aa2:	d009      	beq.n	8001ab8 <HAL_TIM_Base_Start_IT+0x80>
 8001aa4:	687b      	ldr	r3, [r7, #4]
 8001aa6:	681b      	ldr	r3, [r3, #0]
 8001aa8:	4a19      	ldr	r2, [pc, #100]	; (8001b10 <HAL_TIM_Base_Start_IT+0xd8>)
 8001aaa:	4293      	cmp	r3, r2
 8001aac:	d004      	beq.n	8001ab8 <HAL_TIM_Base_Start_IT+0x80>
 8001aae:	687b      	ldr	r3, [r7, #4]
 8001ab0:	681b      	ldr	r3, [r3, #0]
 8001ab2:	4a18      	ldr	r2, [pc, #96]	; (8001b14 <HAL_TIM_Base_Start_IT+0xdc>)
 8001ab4:	4293      	cmp	r3, r2
 8001ab6:	d111      	bne.n	8001adc <HAL_TIM_Base_Start_IT+0xa4>
  {
    tmpsmcr = htim->Instance->SMCR & TIM_SMCR_SMS;
 8001ab8:	687b      	ldr	r3, [r7, #4]
 8001aba:	681b      	ldr	r3, [r3, #0]
 8001abc:	689b      	ldr	r3, [r3, #8]
 8001abe:	f003 0307 	and.w	r3, r3, #7
 8001ac2:	60fb      	str	r3, [r7, #12]
    if (!IS_TIM_SLAVEMODE_TRIGGER_ENABLED(tmpsmcr))
 8001ac4:	68fb      	ldr	r3, [r7, #12]
 8001ac6:	2b06      	cmp	r3, #6
 8001ac8:	d010      	beq.n	8001aec <HAL_TIM_Base_Start_IT+0xb4>
    {
      __HAL_TIM_ENABLE(htim);
 8001aca:	687b      	ldr	r3, [r7, #4]
 8001acc:	681b      	ldr	r3, [r3, #0]
 8001ace:	681a      	ldr	r2, [r3, #0]
 8001ad0:	687b      	ldr	r3, [r7, #4]
 8001ad2:	681b      	ldr	r3, [r3, #0]
 8001ad4:	f042 0201 	orr.w	r2, r2, #1
 8001ad8:	601a      	str	r2, [r3, #0]
    if (!IS_TIM_SLAVEMODE_TRIGGER_ENABLED(tmpsmcr))
 8001ada:	e007      	b.n	8001aec <HAL_TIM_Base_Start_IT+0xb4>
    }
  }
  else
  {
    __HAL_TIM_ENABLE(htim);
 8001adc:	687b      	ldr	r3, [r7, #4]
 8001ade:	681b      	ldr	r3, [r3, #0]
 8001ae0:	681a      	ldr	r2, [r3, #0]
 8001ae2:	687b      	ldr	r3, [r7, #4]
 8001ae4:	681b      	ldr	r3, [r3, #0]
 8001ae6:	f042 0201 	orr.w	r2, r2, #1
 8001aea:	601a      	str	r2, [r3, #0]
  }

  /* Return function status */
  return HAL_OK;
 8001aec:	2300      	movs	r3, #0
}
 8001aee:	4618      	mov	r0, r3
 8001af0:	3714      	adds	r7, #20
 8001af2:	46bd      	mov	sp, r7
 8001af4:	f85d 7b04 	ldr.w	r7, [sp], #4
 8001af8:	4770      	bx	lr
 8001afa:	bf00      	nop
 8001afc:	40010000 	.word	0x40010000
 8001b00:	40000400 	.word	0x40000400
 8001b04:	40000800 	.word	0x40000800
 8001b08:	40000c00 	.word	0x40000c00
 8001b0c:	40010400 	.word	0x40010400
 8001b10:	40014000 	.word	0x40014000
 8001b14:	40001800 	.word	0x40001800

08001b18 <HAL_TIM_IRQHandler>:
  * @brief  This function handles TIM interrupts requests.
  * @param  htim TIM  handle
  * @retval None
  */
void HAL_TIM_IRQHandler(TIM_HandleTypeDef *htim)
{
 8001b18:	b580      	push	{r7, lr}
 8001b1a:	b082      	sub	sp, #8
 8001b1c:	af00      	add	r7, sp, #0
 8001b1e:	6078      	str	r0, [r7, #4]
  /* Capture compare 1 event */
  if (__HAL_TIM_GET_FLAG(htim, TIM_FLAG_CC1) != RESET)
 8001b20:	687b      	ldr	r3, [r7, #4]
 8001b22:	681b      	ldr	r3, [r3, #0]
 8001b24:	691b      	ldr	r3, [r3, #16]
 8001b26:	f003 0302 	and.w	r3, r3, #2
 8001b2a:	2b02      	cmp	r3, #2
 8001b2c:	d122      	bne.n	8001b74 <HAL_TIM_IRQHandler+0x5c>
  {
    if (__HAL_TIM_GET_IT_SOURCE(htim, TIM_IT_CC1) != RESET)
 8001b2e:	687b      	ldr	r3, [r7, #4]
 8001b30:	681b      	ldr	r3, [r3, #0]
 8001b32:	68db      	ldr	r3, [r3, #12]
 8001b34:	f003 0302 	and.w	r3, r3, #2
 8001b38:	2b02      	cmp	r3, #2
 8001b3a:	d11b      	bne.n	8001b74 <HAL_TIM_IRQHandler+0x5c>
    {
      {
        __HAL_TIM_CLEAR_IT(htim, TIM_IT_CC1);
 8001b3c:	687b      	ldr	r3, [r7, #4]
 8001b3e:	681b      	ldr	r3, [r3, #0]
 8001b40:	f06f 0202 	mvn.w	r2, #2
 8001b44:	611a      	str	r2, [r3, #16]
        htim->Channel = HAL_TIM_ACTIVE_CHANNEL_1;
 8001b46:	687b      	ldr	r3, [r7, #4]
 8001b48:	2201      	movs	r2, #1
 8001b4a:	771a      	strb	r2, [r3, #28]

        /* Input capture event */
        if ((htim->Instance->CCMR1 & TIM_CCMR1_CC1S) != 0x00U)
 8001b4c:	687b      	ldr	r3, [r7, #4]
 8001b4e:	681b      	ldr	r3, [r3, #0]
 8001b50:	699b      	ldr	r3, [r3, #24]
 8001b52:	f003 0303 	and.w	r3, r3, #3
 8001b56:	2b00      	cmp	r3, #0
 8001b58:	d003      	beq.n	8001b62 <HAL_TIM_IRQHandler+0x4a>
        {
#if (USE_HAL_TIM_REGISTER_CALLBACKS == 1)
          htim->IC_CaptureCallback(htim);
#else
          HAL_TIM_IC_CaptureCallback(htim);
 8001b5a:	6878      	ldr	r0, [r7, #4]
 8001b5c:	f000 f9b5 	bl	8001eca <HAL_TIM_IC_CaptureCallback>
 8001b60:	e005      	b.n	8001b6e <HAL_TIM_IRQHandler+0x56>
        {
#if (USE_HAL_TIM_REGISTER_CALLBACKS == 1)
          htim->OC_DelayElapsedCallback(htim);
          htim->PWM_PulseFinishedCallback(htim);
#else
          HAL_TIM_OC_DelayElapsedCallback(htim);
 8001b62:	6878      	ldr	r0, [r7, #4]
 8001b64:	f000 f9a7 	bl	8001eb6 <HAL_TIM_OC_DelayElapsedCallback>
          HAL_TIM_PWM_PulseFinishedCallback(htim);
 8001b68:	6878      	ldr	r0, [r7, #4]
 8001b6a:	f000 f9b8 	bl	8001ede <HAL_TIM_PWM_PulseFinishedCallback>
#endif /* USE_HAL_TIM_REGISTER_CALLBACKS */
        }
        htim->Channel = HAL_TIM_ACTIVE_CHANNEL_CLEARED;
 8001b6e:	687b      	ldr	r3, [r7, #4]
 8001b70:	2200      	movs	r2, #0
 8001b72:	771a      	strb	r2, [r3, #28]
      }
    }
  }
  /* Capture compare 2 event */
  if (__HAL_TIM_GET_FLAG(htim, TIM_FLAG_CC2) != RESET)
 8001b74:	687b      	ldr	r3, [r7, #4]
 8001b76:	681b      	ldr	r3, [r3, #0]
 8001b78:	691b      	ldr	r3, [r3, #16]
 8001b7a:	f003 0304 	and.w	r3, r3, #4
 8001b7e:	2b04      	cmp	r3, #4
 8001b80:	d122      	bne.n	8001bc8 <HAL_TIM_IRQHandler+0xb0>
  {
    if (__HAL_TIM_GET_IT_SOURCE(htim, TIM_IT_CC2) != RESET)
 8001b82:	687b      	ldr	r3, [r7, #4]
 8001b84:	681b      	ldr	r3, [r3, #0]
 8001b86:	68db      	ldr	r3, [r3, #12]
 8001b88:	f003 0304 	and.w	r3, r3, #4
 8001b8c:	2b04      	cmp	r3, #4
 8001b8e:	d11b      	bne.n	8001bc8 <HAL_TIM_IRQHandler+0xb0>
    {
      __HAL_TIM_CLEAR_IT(htim, TIM_IT_CC2);
 8001b90:	687b      	ldr	r3, [r7, #4]
 8001b92:	681b      	ldr	r3, [r3, #0]
 8001b94:	f06f 0204 	mvn.w	r2, #4
 8001b98:	611a      	str	r2, [r3, #16]
      htim->Channel = HAL_TIM_ACTIVE_CHANNEL_2;
 8001b9a:	687b      	ldr	r3, [r7, #4]
 8001b9c:	2202      	movs	r2, #2
 8001b9e:	771a      	strb	r2, [r3, #28]
      /* Input capture event */
      if ((htim->Instance->CCMR1 & TIM_CCMR1_CC2S) != 0x00U)
 8001ba0:	687b      	ldr	r3, [r7, #4]
 8001ba2:	681b      	ldr	r3, [r3, #0]
 8001ba4:	699b      	ldr	r3, [r3, #24]
 8001ba6:	f403 7340 	and.w	r3, r3, #768	; 0x300
 8001baa:	2b00      	cmp	r3, #0
 8001bac:	d003      	beq.n	8001bb6 <HAL_TIM_IRQHandler+0x9e>
      {
#if (USE_HAL_TIM_REGISTER_CALLBACKS == 1)
        htim->IC_CaptureCallback(htim);
#else
        HAL_TIM_IC_CaptureCallback(htim);
 8001bae:	6878      	ldr	r0, [r7, #4]
 8001bb0:	f000 f98b 	bl	8001eca <HAL_TIM_IC_CaptureCallback>
 8001bb4:	e005      	b.n	8001bc2 <HAL_TIM_IRQHandler+0xaa>
      {
#if (USE_HAL_TIM_REGISTER_CALLBACKS == 1)
        htim->OC_DelayElapsedCallback(htim);
        htim->PWM_PulseFinishedCallback(htim);
#else
        HAL_TIM_OC_DelayElapsedCallback(htim);
 8001bb6:	6878      	ldr	r0, [r7, #4]
 8001bb8:	f000 f97d 	bl	8001eb6 <HAL_TIM_OC_DelayElapsedCallback>
        HAL_TIM_PWM_PulseFinishedCallback(htim);
 8001bbc:	6878      	ldr	r0, [r7, #4]
 8001bbe:	f000 f98e 	bl	8001ede <HAL_TIM_PWM_PulseFinishedCallback>
#endif /* USE_HAL_TIM_REGISTER_CALLBACKS */
      }
      htim->Channel = HAL_TIM_ACTIVE_CHANNEL_CLEARED;
 8001bc2:	687b      	ldr	r3, [r7, #4]
 8001bc4:	2200      	movs	r2, #0
 8001bc6:	771a      	strb	r2, [r3, #28]
    }
  }
  /* Capture compare 3 event */
  if (__HAL_TIM_GET_FLAG(htim, TIM_FLAG_CC3) != RESET)
 8001bc8:	687b      	ldr	r3, [r7, #4]
 8001bca:	681b      	ldr	r3, [r3, #0]
 8001bcc:	691b      	ldr	r3, [r3, #16]
 8001bce:	f003 0308 	and.w	r3, r3, #8
 8001bd2:	2b08      	cmp	r3, #8
 8001bd4:	d122      	bne.n	8001c1c <HAL_TIM_IRQHandler+0x104>
  {
    if (__HAL_TIM_GET_IT_SOURCE(htim, TIM_IT_CC3) != RESET)
 8001bd6:	687b      	ldr	r3, [r7, #4]
 8001bd8:	681b      	ldr	r3, [r3, #0]
 8001bda:	68db      	ldr	r3, [r3, #12]
 8001bdc:	f003 0308 	and.w	r3, r3, #8
 8001be0:	2b08      	cmp	r3, #8
 8001be2:	d11b      	bne.n	8001c1c <HAL_TIM_IRQHandler+0x104>
    {
      __HAL_TIM_CLEAR_IT(htim, TIM_IT_CC3);
 8001be4:	687b      	ldr	r3, [r7, #4]
 8001be6:	681b      	ldr	r3, [r3, #0]
 8001be8:	f06f 0208 	mvn.w	r2, #8
 8001bec:	611a      	str	r2, [r3, #16]
      htim->Channel = HAL_TIM_ACTIVE_CHANNEL_3;
 8001bee:	687b      	ldr	r3, [r7, #4]
 8001bf0:	2204      	movs	r2, #4
 8001bf2:	771a      	strb	r2, [r3, #28]
      /* Input capture event */
      if ((htim->Instance->CCMR2 & TIM_CCMR2_CC3S) != 0x00U)
 8001bf4:	687b      	ldr	r3, [r7, #4]
 8001bf6:	681b      	ldr	r3, [r3, #0]
 8001bf8:	69db      	ldr	r3, [r3, #28]
 8001bfa:	f003 0303 	and.w	r3, r3, #3
 8001bfe:	2b00      	cmp	r3, #0
 8001c00:	d003      	beq.n	8001c0a <HAL_TIM_IRQHandler+0xf2>
      {
#if (USE_HAL_TIM_REGISTER_CALLBACKS == 1)
        htim->IC_CaptureCallback(htim);
#else
        HAL_TIM_IC_CaptureCallback(htim);
 8001c02:	6878      	ldr	r0, [r7, #4]
 8001c04:	f000 f961 	bl	8001eca <HAL_TIM_IC_CaptureCallback>
 8001c08:	e005      	b.n	8001c16 <HAL_TIM_IRQHandler+0xfe>
      {
#if (USE_HAL_TIM_REGISTER_CALLBACKS == 1)
        htim->OC_DelayElapsedCallback(htim);
        htim->PWM_PulseFinishedCallback(htim);
#else
        HAL_TIM_OC_DelayElapsedCallback(htim);
 8001c0a:	6878      	ldr	r0, [r7, #4]
 8001c0c:	f000 f953 	bl	8001eb6 <HAL_TIM_OC_DelayElapsedCallback>
        HAL_TIM_PWM_PulseFinishedCallback(htim);
 8001c10:	6878      	ldr	r0, [r7, #4]
 8001c12:	f000 f964 	bl	8001ede <HAL_TIM_PWM_PulseFinishedCallback>
#endif /* USE_HAL_TIM_REGISTER_CALLBACKS */
      }
      htim->Channel = HAL_TIM_ACTIVE_CHANNEL_CLEARED;
 8001c16:	687b      	ldr	r3, [r7, #4]
 8001c18:	2200      	movs	r2, #0
 8001c1a:	771a      	strb	r2, [r3, #28]
    }
  }
  /* Capture compare 4 event */
  if (__HAL_TIM_GET_FLAG(htim, TIM_FLAG_CC4) != RESET)
 8001c1c:	687b      	ldr	r3, [r7, #4]
 8001c1e:	681b      	ldr	r3, [r3, #0]
 8001c20:	691b      	ldr	r3, [r3, #16]
 8001c22:	f003 0310 	and.w	r3, r3, #16
 8001c26:	2b10      	cmp	r3, #16
 8001c28:	d122      	bne.n	8001c70 <HAL_TIM_IRQHandler+0x158>
  {
    if (__HAL_TIM_GET_IT_SOURCE(htim, TIM_IT_CC4) != RESET)
 8001c2a:	687b      	ldr	r3, [r7, #4]
 8001c2c:	681b      	ldr	r3, [r3, #0]
 8001c2e:	68db      	ldr	r3, [r3, #12]
 8001c30:	f003 0310 	and.w	r3, r3, #16
 8001c34:	2b10      	cmp	r3, #16
 8001c36:	d11b      	bne.n	8001c70 <HAL_TIM_IRQHandler+0x158>
    {
      __HAL_TIM_CLEAR_IT(htim, TIM_IT_CC4);
 8001c38:	687b      	ldr	r3, [r7, #4]
 8001c3a:	681b      	ldr	r3, [r3, #0]
 8001c3c:	f06f 0210 	mvn.w	r2, #16
 8001c40:	611a      	str	r2, [r3, #16]
      htim->Channel = HAL_TIM_ACTIVE_CHANNEL_4;
 8001c42:	687b      	ldr	r3, [r7, #4]
 8001c44:	2208      	movs	r2, #8
 8001c46:	771a      	strb	r2, [r3, #28]
      /* Input capture event */
      if ((htim->Instance->CCMR2 & TIM_CCMR2_CC4S) != 0x00U)
 8001c48:	687b      	ldr	r3, [r7, #4]
 8001c4a:	681b      	ldr	r3, [r3, #0]
 8001c4c:	69db      	ldr	r3, [r3, #28]
 8001c4e:	f403 7340 	and.w	r3, r3, #768	; 0x300
 8001c52:	2b00      	cmp	r3, #0
 8001c54:	d003      	beq.n	8001c5e <HAL_TIM_IRQHandler+0x146>
      {
#if (USE_HAL_TIM_REGISTER_CALLBACKS == 1)
        htim->IC_CaptureCallback(htim);
#else
        HAL_TIM_IC_CaptureCallback(htim);
 8001c56:	6878      	ldr	r0, [r7, #4]
 8001c58:	f000 f937 	bl	8001eca <HAL_TIM_IC_CaptureCallback>
 8001c5c:	e005      	b.n	8001c6a <HAL_TIM_IRQHandler+0x152>
      {
#if (USE_HAL_TIM_REGISTER_CALLBACKS == 1)
        htim->OC_DelayElapsedCallback(htim);
        htim->PWM_PulseFinishedCallback(htim);
#else
        HAL_TIM_OC_DelayElapsedCallback(htim);
 8001c5e:	6878      	ldr	r0, [r7, #4]
 8001c60:	f000 f929 	bl	8001eb6 <HAL_TIM_OC_DelayElapsedCallback>
        HAL_TIM_PWM_PulseFinishedCallback(htim);
 8001c64:	6878      	ldr	r0, [r7, #4]
 8001c66:	f000 f93a 	bl	8001ede <HAL_TIM_PWM_PulseFinishedCallback>
#endif /* USE_HAL_TIM_REGISTER_CALLBACKS */
      }
      htim->Channel = HAL_TIM_ACTIVE_CHANNEL_CLEARED;
 8001c6a:	687b      	ldr	r3, [r7, #4]
 8001c6c:	2200      	movs	r2, #0
 8001c6e:	771a      	strb	r2, [r3, #28]
    }
  }
  /* TIM Update event */
  if (__HAL_TIM_GET_FLAG(htim, TIM_FLAG_UPDATE) != RESET)
 8001c70:	687b      	ldr	r3, [r7, #4]
 8001c72:	681b      	ldr	r3, [r3, #0]
 8001c74:	691b      	ldr	r3, [r3, #16]
 8001c76:	f003 0301 	and.w	r3, r3, #1
 8001c7a:	2b01      	cmp	r3, #1
 8001c7c:	d10e      	bne.n	8001c9c <HAL_TIM_IRQHandler+0x184>
  {
    if (__HAL_TIM_GET_IT_SOURCE(htim, TIM_IT_UPDATE) != RESET)
 8001c7e:	687b      	ldr	r3, [r7, #4]
 8001c80:	681b      	ldr	r3, [r3, #0]
 8001c82:	68db      	ldr	r3, [r3, #12]
 8001c84:	f003 0301 	and.w	r3, r3, #1
 8001c88:	2b01      	cmp	r3, #1
 8001c8a:	d107      	bne.n	8001c9c <HAL_TIM_IRQHandler+0x184>
    {
      __HAL_TIM_CLEAR_IT(htim, TIM_IT_UPDATE);
 8001c8c:	687b      	ldr	r3, [r7, #4]
 8001c8e:	681b      	ldr	r3, [r3, #0]
 8001c90:	f06f 0201 	mvn.w	r2, #1
 8001c94:	611a      	str	r2, [r3, #16]
#if (USE_HAL_TIM_REGISTER_CALLBACKS == 1)
      htim->PeriodElapsedCallback(htim);
#else
      HAL_TIM_PeriodElapsedCallback(htim);
 8001c96:	6878      	ldr	r0, [r7, #4]
 8001c98:	f7fe fd6e 	bl	8000778 <HAL_TIM_PeriodElapsedCallback>
#endif /* USE_HAL_TIM_REGISTER_CALLBACKS */
    }
  }
  /* TIM Break input event */
  if (__HAL_TIM_GET_FLAG(htim, TIM_FLAG_BREAK) != RESET)
 8001c9c:	687b      	ldr	r3, [r7, #4]
 8001c9e:	681b      	ldr	r3, [r3, #0]
 8001ca0:	691b      	ldr	r3, [r3, #16]
 8001ca2:	f003 0380 	and.w	r3, r3, #128	; 0x80
 8001ca6:	2b80      	cmp	r3, #128	; 0x80
 8001ca8:	d10e      	bne.n	8001cc8 <HAL_TIM_IRQHandler+0x1b0>
  {
    if (__HAL_TIM_GET_IT_SOURCE(htim, TIM_IT_BREAK) != RESET)
 8001caa:	687b      	ldr	r3, [r7, #4]
 8001cac:	681b      	ldr	r3, [r3, #0]
 8001cae:	68db      	ldr	r3, [r3, #12]
 8001cb0:	f003 0380 	and.w	r3, r3, #128	; 0x80
 8001cb4:	2b80      	cmp	r3, #128	; 0x80
 8001cb6:	d107      	bne.n	8001cc8 <HAL_TIM_IRQHandler+0x1b0>
    {
      __HAL_TIM_CLEAR_IT(htim, TIM_IT_BREAK);
 8001cb8:	687b      	ldr	r3, [r7, #4]
 8001cba:	681b      	ldr	r3, [r3, #0]
 8001cbc:	f06f 0280 	mvn.w	r2, #128	; 0x80
 8001cc0:	611a      	str	r2, [r3, #16]
#if (USE_HAL_TIM_REGISTER_CALLBACKS == 1)
      htim->BreakCallback(htim);
#else
      HAL_TIMEx_BreakCallback(htim);
 8001cc2:	6878      	ldr	r0, [r7, #4]
 8001cc4:	f000 fae0 	bl	8002288 <HAL_TIMEx_BreakCallback>
#endif /* USE_HAL_TIM_REGISTER_CALLBACKS */
    }
  }
  /* TIM Trigger detection event */
  if (__HAL_TIM_GET_FLAG(htim, TIM_FLAG_TRIGGER) != RESET)
 8001cc8:	687b      	ldr	r3, [r7, #4]
 8001cca:	681b      	ldr	r3, [r3, #0]
 8001ccc:	691b      	ldr	r3, [r3, #16]
 8001cce:	f003 0340 	and.w	r3, r3, #64	; 0x40
 8001cd2:	2b40      	cmp	r3, #64	; 0x40
 8001cd4:	d10e      	bne.n	8001cf4 <HAL_TIM_IRQHandler+0x1dc>
  {
    if (__HAL_TIM_GET_IT_SOURCE(htim, TIM_IT_TRIGGER) != RESET)
 8001cd6:	687b      	ldr	r3, [r7, #4]
 8001cd8:	681b      	ldr	r3, [r3, #0]
 8001cda:	68db      	ldr	r3, [r3, #12]
 8001cdc:	f003 0340 	and.w	r3, r3, #64	; 0x40
 8001ce0:	2b40      	cmp	r3, #64	; 0x40
 8001ce2:	d107      	bne.n	8001cf4 <HAL_TIM_IRQHandler+0x1dc>
    {
      __HAL_TIM_CLEAR_IT(htim, TIM_IT_TRIGGER);
 8001ce4:	687b      	ldr	r3, [r7, #4]
 8001ce6:	681b      	ldr	r3, [r3, #0]
 8001ce8:	f06f 0240 	mvn.w	r2, #64	; 0x40
 8001cec:	611a      	str	r2, [r3, #16]
#if (USE_HAL_TIM_REGISTER_CALLBACKS == 1)
      htim->TriggerCallback(htim);
#else
      HAL_TIM_TriggerCallback(htim);
 8001cee:	6878      	ldr	r0, [r7, #4]
 8001cf0:	f000 f8ff 	bl	8001ef2 <HAL_TIM_TriggerCallback>
#endif /* USE_HAL_TIM_REGISTER_CALLBACKS */
    }
  }
  /* TIM commutation event */
  if (__HAL_TIM_GET_FLAG(htim, TIM_FLAG_COM) != RESET)
 8001cf4:	687b      	ldr	r3, [r7, #4]
 8001cf6:	681b      	ldr	r3, [r3, #0]
 8001cf8:	691b      	ldr	r3, [r3, #16]
 8001cfa:	f003 0320 	and.w	r3, r3, #32
 8001cfe:	2b20      	cmp	r3, #32
 8001d00:	d10e      	bne.n	8001d20 <HAL_TIM_IRQHandler+0x208>
  {
    if (__HAL_TIM_GET_IT_SOURCE(htim, TIM_IT_COM) != RESET)
 8001d02:	687b      	ldr	r3, [r7, #4]
 8001d04:	681b      	ldr	r3, [r3, #0]
 8001d06:	68db      	ldr	r3, [r3, #12]
 8001d08:	f003 0320 	and.w	r3, r3, #32
 8001d0c:	2b20      	cmp	r3, #32
 8001d0e:	d107      	bne.n	8001d20 <HAL_TIM_IRQHandler+0x208>
    {
      __HAL_TIM_CLEAR_IT(htim, TIM_FLAG_COM);
 8001d10:	687b      	ldr	r3, [r7, #4]
 8001d12:	681b      	ldr	r3, [r3, #0]
 8001d14:	f06f 0220 	mvn.w	r2, #32
 8001d18:	611a      	str	r2, [r3, #16]
#if (USE_HAL_TIM_REGISTER_CALLBACKS == 1)
      htim->CommutationCallback(htim);
#else
      HAL_TIMEx_CommutCallback(htim);
 8001d1a:	6878      	ldr	r0, [r7, #4]
 8001d1c:	f000 faaa 	bl	8002274 <HAL_TIMEx_CommutCallback>
#endif /* USE_HAL_TIM_REGISTER_CALLBACKS */
    }
  }
}
 8001d20:	bf00      	nop
 8001d22:	3708      	adds	r7, #8
 8001d24:	46bd      	mov	sp, r7
 8001d26:	bd80      	pop	{r7, pc}

08001d28 <HAL_TIM_ConfigClockSource>:
  * @param  sClockSourceConfig pointer to a TIM_ClockConfigTypeDef structure that
  *         contains the clock source information for the TIM peripheral.
  * @retval HAL status
  */
HAL_StatusTypeDef HAL_TIM_ConfigClockSource(TIM_HandleTypeDef *htim, TIM_ClockConfigTypeDef *sClockSourceConfig)
{
 8001d28:	b580      	push	{r7, lr}
 8001d2a:	b084      	sub	sp, #16
 8001d2c:	af00      	add	r7, sp, #0
 8001d2e:	6078      	str	r0, [r7, #4]
 8001d30:	6039      	str	r1, [r7, #0]
  HAL_StatusTypeDef status = HAL_OK;
 8001d32:	2300      	movs	r3, #0
 8001d34:	73fb      	strb	r3, [r7, #15]
  uint32_t tmpsmcr;

  /* Process Locked */
  __HAL_LOCK(htim);
 8001d36:	687b      	ldr	r3, [r7, #4]
 8001d38:	f893 303c 	ldrb.w	r3, [r3, #60]	; 0x3c
 8001d3c:	2b01      	cmp	r3, #1
 8001d3e:	d101      	bne.n	8001d44 <HAL_TIM_ConfigClockSource+0x1c>
 8001d40:	2302      	movs	r3, #2
 8001d42:	e0b4      	b.n	8001eae <HAL_TIM_ConfigClockSource+0x186>
 8001d44:	687b      	ldr	r3, [r7, #4]
 8001d46:	2201      	movs	r2, #1
 8001d48:	f883 203c 	strb.w	r2, [r3, #60]	; 0x3c

  htim->State = HAL_TIM_STATE_BUSY;
 8001d4c:	687b      	ldr	r3, [r7, #4]
 8001d4e:	2202      	movs	r2, #2
 8001d50:	f883 203d 	strb.w	r2, [r3, #61]	; 0x3d

  /* Check the parameters */
  assert_param(IS_TIM_CLOCKSOURCE(sClockSourceConfig->ClockSource));

  /* Reset the SMS, TS, ECE, ETPS and ETRF bits */
  tmpsmcr = htim->Instance->SMCR;
 8001d54:	687b      	ldr	r3, [r7, #4]
 8001d56:	681b      	ldr	r3, [r3, #0]
 8001d58:	689b      	ldr	r3, [r3, #8]
 8001d5a:	60bb      	str	r3, [r7, #8]
  tmpsmcr &= ~(TIM_SMCR_SMS | TIM_SMCR_TS);
 8001d5c:	68bb      	ldr	r3, [r7, #8]
 8001d5e:	f023 0377 	bic.w	r3, r3, #119	; 0x77
 8001d62:	60bb      	str	r3, [r7, #8]
  tmpsmcr &= ~(TIM_SMCR_ETF | TIM_SMCR_ETPS | TIM_SMCR_ECE | TIM_SMCR_ETP);
 8001d64:	68bb      	ldr	r3, [r7, #8]
 8001d66:	f423 437f 	bic.w	r3, r3, #65280	; 0xff00
 8001d6a:	60bb      	str	r3, [r7, #8]
  htim->Instance->SMCR = tmpsmcr;
 8001d6c:	687b      	ldr	r3, [r7, #4]
 8001d6e:	681b      	ldr	r3, [r3, #0]
 8001d70:	68ba      	ldr	r2, [r7, #8]
 8001d72:	609a      	str	r2, [r3, #8]

  switch (sClockSourceConfig->ClockSource)
 8001d74:	683b      	ldr	r3, [r7, #0]
 8001d76:	681b      	ldr	r3, [r3, #0]
 8001d78:	f5b3 5f00 	cmp.w	r3, #8192	; 0x2000
 8001d7c:	d03e      	beq.n	8001dfc <HAL_TIM_ConfigClockSource+0xd4>
 8001d7e:	f5b3 5f00 	cmp.w	r3, #8192	; 0x2000
 8001d82:	f200 8087 	bhi.w	8001e94 <HAL_TIM_ConfigClockSource+0x16c>
 8001d86:	f5b3 5f80 	cmp.w	r3, #4096	; 0x1000
 8001d8a:	f000 8086 	beq.w	8001e9a <HAL_TIM_ConfigClockSource+0x172>
 8001d8e:	f5b3 5f80 	cmp.w	r3, #4096	; 0x1000
 8001d92:	d87f      	bhi.n	8001e94 <HAL_TIM_ConfigClockSource+0x16c>
 8001d94:	2b70      	cmp	r3, #112	; 0x70
 8001d96:	d01a      	beq.n	8001dce <HAL_TIM_ConfigClockSource+0xa6>
 8001d98:	2b70      	cmp	r3, #112	; 0x70
 8001d9a:	d87b      	bhi.n	8001e94 <HAL_TIM_ConfigClockSource+0x16c>
 8001d9c:	2b60      	cmp	r3, #96	; 0x60
 8001d9e:	d050      	beq.n	8001e42 <HAL_TIM_ConfigClockSource+0x11a>
 8001da0:	2b60      	cmp	r3, #96	; 0x60
 8001da2:	d877      	bhi.n	8001e94 <HAL_TIM_ConfigClockSource+0x16c>
 8001da4:	2b50      	cmp	r3, #80	; 0x50
 8001da6:	d03c      	beq.n	8001e22 <HAL_TIM_ConfigClockSource+0xfa>
 8001da8:	2b50      	cmp	r3, #80	; 0x50
 8001daa:	d873      	bhi.n	8001e94 <HAL_TIM_ConfigClockSource+0x16c>
 8001dac:	2b40      	cmp	r3, #64	; 0x40
 8001dae:	d058      	beq.n	8001e62 <HAL_TIM_ConfigClockSource+0x13a>
 8001db0:	2b40      	cmp	r3, #64	; 0x40
 8001db2:	d86f      	bhi.n	8001e94 <HAL_TIM_ConfigClockSource+0x16c>
 8001db4:	2b30      	cmp	r3, #48	; 0x30
 8001db6:	d064      	beq.n	8001e82 <HAL_TIM_ConfigClockSource+0x15a>
 8001db8:	2b30      	cmp	r3, #48	; 0x30
 8001dba:	d86b      	bhi.n	8001e94 <HAL_TIM_ConfigClockSource+0x16c>
 8001dbc:	2b20      	cmp	r3, #32
 8001dbe:	d060      	beq.n	8001e82 <HAL_TIM_ConfigClockSource+0x15a>
 8001dc0:	2b20      	cmp	r3, #32
 8001dc2:	d867      	bhi.n	8001e94 <HAL_TIM_ConfigClockSource+0x16c>
 8001dc4:	2b00      	cmp	r3, #0
 8001dc6:	d05c      	beq.n	8001e82 <HAL_TIM_ConfigClockSource+0x15a>
 8001dc8:	2b10      	cmp	r3, #16
 8001dca:	d05a      	beq.n	8001e82 <HAL_TIM_ConfigClockSource+0x15a>
 8001dcc:	e062      	b.n	8001e94 <HAL_TIM_ConfigClockSource+0x16c>
      assert_param(IS_TIM_CLOCKPRESCALER(sClockSourceConfig->ClockPrescaler));
      assert_param(IS_TIM_CLOCKPOLARITY(sClockSourceConfig->ClockPolarity));
      assert_param(IS_TIM_CLOCKFILTER(sClockSourceConfig->ClockFilter));

      /* Configure the ETR Clock source */
      TIM_ETR_SetConfig(htim->Instance,
 8001dce:	687b      	ldr	r3, [r7, #4]
 8001dd0:	6818      	ldr	r0, [r3, #0]
 8001dd2:	683b      	ldr	r3, [r7, #0]
 8001dd4:	6899      	ldr	r1, [r3, #8]
 8001dd6:	683b      	ldr	r3, [r7, #0]
 8001dd8:	685a      	ldr	r2, [r3, #4]
 8001dda:	683b      	ldr	r3, [r7, #0]
 8001ddc:	68db      	ldr	r3, [r3, #12]
 8001dde:	f000 f9ad 	bl	800213c <TIM_ETR_SetConfig>
                        sClockSourceConfig->ClockPrescaler,
                        sClockSourceConfig->ClockPolarity,
                        sClockSourceConfig->ClockFilter);

      /* Select the External clock mode1 and the ETRF trigger */
      tmpsmcr = htim->Instance->SMCR;
 8001de2:	687b      	ldr	r3, [r7, #4]
 8001de4:	681b      	ldr	r3, [r3, #0]
 8001de6:	689b      	ldr	r3, [r3, #8]
 8001de8:	60bb      	str	r3, [r7, #8]
      tmpsmcr |= (TIM_SLAVEMODE_EXTERNAL1 | TIM_CLOCKSOURCE_ETRMODE1);
 8001dea:	68bb      	ldr	r3, [r7, #8]
 8001dec:	f043 0377 	orr.w	r3, r3, #119	; 0x77
 8001df0:	60bb      	str	r3, [r7, #8]
      /* Write to TIMx SMCR */
      htim->Instance->SMCR = tmpsmcr;
 8001df2:	687b      	ldr	r3, [r7, #4]
 8001df4:	681b      	ldr	r3, [r3, #0]
 8001df6:	68ba      	ldr	r2, [r7, #8]
 8001df8:	609a      	str	r2, [r3, #8]
      break;
 8001dfa:	e04f      	b.n	8001e9c <HAL_TIM_ConfigClockSource+0x174>
      assert_param(IS_TIM_CLOCKPRESCALER(sClockSourceConfig->ClockPrescaler));
      assert_param(IS_TIM_CLOCKPOLARITY(sClockSourceConfig->ClockPolarity));
      assert_param(IS_TIM_CLOCKFILTER(sClockSourceConfig->ClockFilter));

      /* Configure the ETR Clock source */
      TIM_ETR_SetConfig(htim->Instance,
 8001dfc:	687b      	ldr	r3, [r7, #4]
 8001dfe:	6818      	ldr	r0, [r3, #0]
 8001e00:	683b      	ldr	r3, [r7, #0]
 8001e02:	6899      	ldr	r1, [r3, #8]
 8001e04:	683b      	ldr	r3, [r7, #0]
 8001e06:	685a      	ldr	r2, [r3, #4]
 8001e08:	683b      	ldr	r3, [r7, #0]
 8001e0a:	68db      	ldr	r3, [r3, #12]
 8001e0c:	f000 f996 	bl	800213c <TIM_ETR_SetConfig>
                        sClockSourceConfig->ClockPrescaler,
                        sClockSourceConfig->ClockPolarity,
                        sClockSourceConfig->ClockFilter);
      /* Enable the External clock mode2 */
      htim->Instance->SMCR |= TIM_SMCR_ECE;
 8001e10:	687b      	ldr	r3, [r7, #4]
 8001e12:	681b      	ldr	r3, [r3, #0]
 8001e14:	689a      	ldr	r2, [r3, #8]
 8001e16:	687b      	ldr	r3, [r7, #4]
 8001e18:	681b      	ldr	r3, [r3, #0]
 8001e1a:	f442 4280 	orr.w	r2, r2, #16384	; 0x4000
 8001e1e:	609a      	str	r2, [r3, #8]
      break;
 8001e20:	e03c      	b.n	8001e9c <HAL_TIM_ConfigClockSource+0x174>

      /* Check TI1 input conditioning related parameters */
      assert_param(IS_TIM_CLOCKPOLARITY(sClockSourceConfig->ClockPolarity));
      assert_param(IS_TIM_CLOCKFILTER(sClockSourceConfig->ClockFilter));

      TIM_TI1_ConfigInputStage(htim->Instance,
 8001e22:	687b      	ldr	r3, [r7, #4]
 8001e24:	6818      	ldr	r0, [r3, #0]
 8001e26:	683b      	ldr	r3, [r7, #0]
 8001e28:	6859      	ldr	r1, [r3, #4]
 8001e2a:	683b      	ldr	r3, [r7, #0]
 8001e2c:	68db      	ldr	r3, [r3, #12]
 8001e2e:	461a      	mov	r2, r3
 8001e30:	f000 f90a 	bl	8002048 <TIM_TI1_ConfigInputStage>
                               sClockSourceConfig->ClockPolarity,
                               sClockSourceConfig->ClockFilter);
      TIM_ITRx_SetConfig(htim->Instance, TIM_CLOCKSOURCE_TI1);
 8001e34:	687b      	ldr	r3, [r7, #4]
 8001e36:	681b      	ldr	r3, [r3, #0]
 8001e38:	2150      	movs	r1, #80	; 0x50
 8001e3a:	4618      	mov	r0, r3
 8001e3c:	f000 f963 	bl	8002106 <TIM_ITRx_SetConfig>
      break;
 8001e40:	e02c      	b.n	8001e9c <HAL_TIM_ConfigClockSource+0x174>

      /* Check TI2 input conditioning related parameters */
      assert_param(IS_TIM_CLOCKPOLARITY(sClockSourceConfig->ClockPolarity));
      assert_param(IS_TIM_CLOCKFILTER(sClockSourceConfig->ClockFilter));

      TIM_TI2_ConfigInputStage(htim->Instance,
 8001e42:	687b      	ldr	r3, [r7, #4]
 8001e44:	6818      	ldr	r0, [r3, #0]
 8001e46:	683b      	ldr	r3, [r7, #0]
 8001e48:	6859      	ldr	r1, [r3, #4]
 8001e4a:	683b      	ldr	r3, [r7, #0]
 8001e4c:	68db      	ldr	r3, [r3, #12]
 8001e4e:	461a      	mov	r2, r3
 8001e50:	f000 f929 	bl	80020a6 <TIM_TI2_ConfigInputStage>
                               sClockSourceConfig->ClockPolarity,
                               sClockSourceConfig->ClockFilter);
      TIM_ITRx_SetConfig(htim->Instance, TIM_CLOCKSOURCE_TI2);
 8001e54:	687b      	ldr	r3, [r7, #4]
 8001e56:	681b      	ldr	r3, [r3, #0]
 8001e58:	2160      	movs	r1, #96	; 0x60
 8001e5a:	4618      	mov	r0, r3
 8001e5c:	f000 f953 	bl	8002106 <TIM_ITRx_SetConfig>
      break;
 8001e60:	e01c      	b.n	8001e9c <HAL_TIM_ConfigClockSource+0x174>

      /* Check TI1 input conditioning related parameters */
      assert_param(IS_TIM_CLOCKPOLARITY(sClockSourceConfig->ClockPolarity));
      assert_param(IS_TIM_CLOCKFILTER(sClockSourceConfig->ClockFilter));

      TIM_TI1_ConfigInputStage(htim->Instance,
 8001e62:	687b      	ldr	r3, [r7, #4]
 8001e64:	6818      	ldr	r0, [r3, #0]
 8001e66:	683b      	ldr	r3, [r7, #0]
 8001e68:	6859      	ldr	r1, [r3, #4]
 8001e6a:	683b      	ldr	r3, [r7, #0]
 8001e6c:	68db      	ldr	r3, [r3, #12]
 8001e6e:	461a      	mov	r2, r3
 8001e70:	f000 f8ea 	bl	8002048 <TIM_TI1_ConfigInputStage>
                               sClockSourceConfig->ClockPolarity,
                               sClockSourceConfig->ClockFilter);
      TIM_ITRx_SetConfig(htim->Instance, TIM_CLOCKSOURCE_TI1ED);
 8001e74:	687b      	ldr	r3, [r7, #4]
 8001e76:	681b      	ldr	r3, [r3, #0]
 8001e78:	2140      	movs	r1, #64	; 0x40
 8001e7a:	4618      	mov	r0, r3
 8001e7c:	f000 f943 	bl	8002106 <TIM_ITRx_SetConfig>
      break;
 8001e80:	e00c      	b.n	8001e9c <HAL_TIM_ConfigClockSource+0x174>
    case TIM_CLOCKSOURCE_ITR3:
    {
      /* Check whether or not the timer instance supports internal trigger input */
      assert_param(IS_TIM_CLOCKSOURCE_ITRX_INSTANCE(htim->Instance));

      TIM_ITRx_SetConfig(htim->Instance, sClockSourceConfig->ClockSource);
 8001e82:	687b      	ldr	r3, [r7, #4]
 8001e84:	681a      	ldr	r2, [r3, #0]
 8001e86:	683b      	ldr	r3, [r7, #0]
 8001e88:	681b      	ldr	r3, [r3, #0]
 8001e8a:	4619      	mov	r1, r3
 8001e8c:	4610      	mov	r0, r2
 8001e8e:	f000 f93a 	bl	8002106 <TIM_ITRx_SetConfig>
      break;
 8001e92:	e003      	b.n	8001e9c <HAL_TIM_ConfigClockSource+0x174>
    }

    default:
      status = HAL_ERROR;
 8001e94:	2301      	movs	r3, #1
 8001e96:	73fb      	strb	r3, [r7, #15]
      break;
 8001e98:	e000      	b.n	8001e9c <HAL_TIM_ConfigClockSource+0x174>
      break;
 8001e9a:	bf00      	nop
  }
  htim->State = HAL_TIM_STATE_READY;
 8001e9c:	687b      	ldr	r3, [r7, #4]
 8001e9e:	2201      	movs	r2, #1
 8001ea0:	f883 203d 	strb.w	r2, [r3, #61]	; 0x3d

  __HAL_UNLOCK(htim);
 8001ea4:	687b      	ldr	r3, [r7, #4]
 8001ea6:	2200      	movs	r2, #0
 8001ea8:	f883 203c 	strb.w	r2, [r3, #60]	; 0x3c

  return status;
 8001eac:	7bfb      	ldrb	r3, [r7, #15]
}
 8001eae:	4618      	mov	r0, r3
 8001eb0:	3710      	adds	r7, #16
 8001eb2:	46bd      	mov	sp, r7
 8001eb4:	bd80      	pop	{r7, pc}

08001eb6 <HAL_TIM_OC_DelayElapsedCallback>:
  * @brief  Output Compare callback in non-blocking mode
  * @param  htim TIM OC handle
  * @retval None
  */
__weak void HAL_TIM_OC_DelayElapsedCallback(TIM_HandleTypeDef *htim)
{
 8001eb6:	b480      	push	{r7}
 8001eb8:	b083      	sub	sp, #12
 8001eba:	af00      	add	r7, sp, #0
 8001ebc:	6078      	str	r0, [r7, #4]
  UNUSED(htim);

  /* NOTE : This function should not be modified, when the callback is needed,
            the HAL_TIM_OC_DelayElapsedCallback could be implemented in the user file
   */
}
 8001ebe:	bf00      	nop
 8001ec0:	370c      	adds	r7, #12
 8001ec2:	46bd      	mov	sp, r7
 8001ec4:	f85d 7b04 	ldr.w	r7, [sp], #4
 8001ec8:	4770      	bx	lr

08001eca <HAL_TIM_IC_CaptureCallback>:
  * @brief  Input Capture callback in non-blocking mode
  * @param  htim TIM IC handle
  * @retval None
  */
__weak void HAL_TIM_IC_CaptureCallback(TIM_HandleTypeDef *htim)
{
 8001eca:	b480      	push	{r7}
 8001ecc:	b083      	sub	sp, #12
 8001ece:	af00      	add	r7, sp, #0
 8001ed0:	6078      	str	r0, [r7, #4]
  UNUSED(htim);

  /* NOTE : This function should not be modified, when the callback is needed,
            the HAL_TIM_IC_CaptureCallback could be implemented in the user file
   */
}
 8001ed2:	bf00      	nop
 8001ed4:	370c      	adds	r7, #12
 8001ed6:	46bd      	mov	sp, r7
 8001ed8:	f85d 7b04 	ldr.w	r7, [sp], #4
 8001edc:	4770      	bx	lr

08001ede <HAL_TIM_PWM_PulseFinishedCallback>:
  * @brief  PWM Pulse finished callback in non-blocking mode
  * @param  htim TIM handle
  * @retval None
  */
__weak void HAL_TIM_PWM_PulseFinishedCallback(TIM_HandleTypeDef *htim)
{
 8001ede:	b480      	push	{r7}
 8001ee0:	b083      	sub	sp, #12
 8001ee2:	af00      	add	r7, sp, #0
 8001ee4:	6078      	str	r0, [r7, #4]
  UNUSED(htim);

  /* NOTE : This function should not be modified, when the callback is needed,
            the HAL_TIM_PWM_PulseFinishedCallback could be implemented in the user file
   */
}
 8001ee6:	bf00      	nop
 8001ee8:	370c      	adds	r7, #12
 8001eea:	46bd      	mov	sp, r7
 8001eec:	f85d 7b04 	ldr.w	r7, [sp], #4
 8001ef0:	4770      	bx	lr

08001ef2 <HAL_TIM_TriggerCallback>:
  * @brief  Hall Trigger detection callback in non-blocking mode
  * @param  htim TIM handle
  * @retval None
  */
__weak void HAL_TIM_TriggerCallback(TIM_HandleTypeDef *htim)
{
 8001ef2:	b480      	push	{r7}
 8001ef4:	b083      	sub	sp, #12
 8001ef6:	af00      	add	r7, sp, #0
 8001ef8:	6078      	str	r0, [r7, #4]
  UNUSED(htim);

  /* NOTE : This function should not be modified, when the callback is needed,
            the HAL_TIM_TriggerCallback could be implemented in the user file
   */
}
 8001efa:	bf00      	nop
 8001efc:	370c      	adds	r7, #12
 8001efe:	46bd      	mov	sp, r7
 8001f00:	f85d 7b04 	ldr.w	r7, [sp], #4
 8001f04:	4770      	bx	lr
	...

08001f08 <TIM_Base_SetConfig>:
  * @param  TIMx TIM peripheral
  * @param  Structure TIM Base configuration structure
  * @retval None
  */
void TIM_Base_SetConfig(TIM_TypeDef *TIMx, TIM_Base_InitTypeDef *Structure)
{
 8001f08:	b480      	push	{r7}
 8001f0a:	b085      	sub	sp, #20
 8001f0c:	af00      	add	r7, sp, #0
 8001f0e:	6078      	str	r0, [r7, #4]
 8001f10:	6039      	str	r1, [r7, #0]
  uint32_t tmpcr1;
  tmpcr1 = TIMx->CR1;
 8001f12:	687b      	ldr	r3, [r7, #4]
 8001f14:	681b      	ldr	r3, [r3, #0]
 8001f16:	60fb      	str	r3, [r7, #12]

  /* Set TIM Time Base Unit parameters ---------------------------------------*/
  if (IS_TIM_COUNTER_MODE_SELECT_INSTANCE(TIMx))
 8001f18:	687b      	ldr	r3, [r7, #4]
 8001f1a:	4a40      	ldr	r2, [pc, #256]	; (800201c <TIM_Base_SetConfig+0x114>)
 8001f1c:	4293      	cmp	r3, r2
 8001f1e:	d013      	beq.n	8001f48 <TIM_Base_SetConfig+0x40>
 8001f20:	687b      	ldr	r3, [r7, #4]
 8001f22:	f1b3 4f80 	cmp.w	r3, #1073741824	; 0x40000000
 8001f26:	d00f      	beq.n	8001f48 <TIM_Base_SetConfig+0x40>
 8001f28:	687b      	ldr	r3, [r7, #4]
 8001f2a:	4a3d      	ldr	r2, [pc, #244]	; (8002020 <TIM_Base_SetConfig+0x118>)
 8001f2c:	4293      	cmp	r3, r2
 8001f2e:	d00b      	beq.n	8001f48 <TIM_Base_SetConfig+0x40>
 8001f30:	687b      	ldr	r3, [r7, #4]
 8001f32:	4a3c      	ldr	r2, [pc, #240]	; (8002024 <TIM_Base_SetConfig+0x11c>)
 8001f34:	4293      	cmp	r3, r2
 8001f36:	d007      	beq.n	8001f48 <TIM_Base_SetConfig+0x40>
 8001f38:	687b      	ldr	r3, [r7, #4]
 8001f3a:	4a3b      	ldr	r2, [pc, #236]	; (8002028 <TIM_Base_SetConfig+0x120>)
 8001f3c:	4293      	cmp	r3, r2
 8001f3e:	d003      	beq.n	8001f48 <TIM_Base_SetConfig+0x40>
 8001f40:	687b      	ldr	r3, [r7, #4]
 8001f42:	4a3a      	ldr	r2, [pc, #232]	; (800202c <TIM_Base_SetConfig+0x124>)
 8001f44:	4293      	cmp	r3, r2
