
lab5.elf:     file format elf32-littlearm

Sections:
Idx Name          Size      VMA       LMA       File off  Algn
  0 .isr_vector   00000188  08000000  08000000  00010000  2**0
                  CONTENTS, ALLOC, LOAD, READONLY, DATA
  1 .text         00001cac  08000188  08000188  00010188  2**2
                  CONTENTS, ALLOC, LOAD, READONLY, CODE
  2 .rodata       00000010  08001e34  08001e34  00011e34  2**2
                  CONTENTS, ALLOC, LOAD, READONLY, DATA
  3 .ARM.extab    00000000  08001e44  08001e44  0002000c  2**0
                  CONTENTS
  4 .ARM          00000008  08001e44  08001e44  00011e44  2**2
                  CONTENTS, ALLOC, LOAD, READONLY, DATA
  5 .preinit_array 00000000  08001e4c  08001e4c  0002000c  2**0
                  CONTENTS, ALLOC, LOAD, DATA
  6 .init_array   00000004  08001e4c  08001e4c  00011e4c  2**2
                  CONTENTS, ALLOC, LOAD, DATA
  7 .fini_array   00000004  08001e50  08001e50  00011e50  2**2
                  CONTENTS, ALLOC, LOAD, DATA
  8 .data         0000000c  20000000  08001e54  00020000  2**2
                  CONTENTS, ALLOC, LOAD, DATA
  9 .ccmram       00000000  10000000  10000000  0002000c  2**0
                  CONTENTS
 10 .bss          000000d0  2000000c  2000000c  0002000c  2**2
                  ALLOC
 11 ._user_heap_stack 00000604  200000dc  200000dc  0002000c  2**0
                  ALLOC
 12 .ARM.attributes 00000030  00000000  00000000  0002000c  2**0
                  CONTENTS, READONLY
 13 .debug_info   0000603a  00000000  00000000  0002003c  2**0
                  CONTENTS, READONLY, DEBUGGING, OCTETS
 14 .debug_abbrev 000011f4  00000000  00000000  00026076  2**0
                  CONTENTS, READONLY, DEBUGGING, OCTETS
 15 .debug_aranges 000005e0  00000000  00000000  00027270  2**3
                  CONTENTS, READONLY, DEBUGGING, OCTETS
 16 .debug_ranges 00000548  00000000  00000000  00027850  2**3
                  CONTENTS, READONLY, DEBUGGING, OCTETS
 17 .debug_macro  0001f173  00000000  00000000  00027d98  2**0
                  CONTENTS, READONLY, DEBUGGING, OCTETS
 18 .debug_line   0000675f  00000000  00000000  00046f0b  2**0
                  CONTENTS, READONLY, DEBUGGING, OCTETS
 19 .debug_str    000bdbb6  00000000  00000000  0004d66a  2**0
                  CONTENTS, READONLY, DEBUGGING, OCTETS
 20 .comment      00000053  00000000  00000000  0010b220  2**0
                  CONTENTS, READONLY
 21 .debug_frame  000016bc  00000000  00000000  0010b274  2**2
                  CONTENTS, READONLY, DEBUGGING, OCTETS

Disassembly of section .text:

08000188 <__do_global_dtors_aux>:
 8000188:	b510      	push	{r4, lr}
 800018a:	4c05      	ldr	r4, [pc, #20]	; (80001a0 <__do_global_dtors_aux+0x18>)
 800018c:	7823      	ldrb	r3, [r4, #0]
 800018e:	b933      	cbnz	r3, 800019e <__do_global_dtors_aux+0x16>
 8000190:	4b04      	ldr	r3, [pc, #16]	; (80001a4 <__do_global_dtors_aux+0x1c>)
 8000192:	b113      	cbz	r3, 800019a <__do_global_dtors_aux+0x12>
 8000194:	4804      	ldr	r0, [pc, #16]	; (80001a8 <__do_global_dtors_aux+0x20>)
 8000196:	f3af 8000 	nop.w
 800019a:	2301      	movs	r3, #1
 800019c:	7023      	strb	r3, [r4, #0]
 800019e:	bd10      	pop	{r4, pc}
 80001a0:	2000000c 	.word	0x2000000c
 80001a4:	00000000 	.word	0x00000000
 80001a8:	08001e1c 	.word	0x08001e1c

080001ac <frame_dummy>:
 80001ac:	b508      	push	{r3, lr}
 80001ae:	4b03      	ldr	r3, [pc, #12]	; (80001bc <frame_dummy+0x10>)
 80001b0:	b11b      	cbz	r3, 80001ba <frame_dummy+0xe>
 80001b2:	4903      	ldr	r1, [pc, #12]	; (80001c0 <frame_dummy+0x14>)
 80001b4:	4803      	ldr	r0, [pc, #12]	; (80001c4 <frame_dummy+0x18>)
 80001b6:	f3af 8000 	nop.w
 80001ba:	bd08      	pop	{r3, pc}
 80001bc:	00000000 	.word	0x00000000
 80001c0:	20000010 	.word	0x20000010
 80001c4:	08001e1c 	.word	0x08001e1c

080001c8 <__aeabi_uldivmod>:
 80001c8:	b953      	cbnz	r3, 80001e0 <__aeabi_uldivmod+0x18>
 80001ca:	b94a      	cbnz	r2, 80001e0 <__aeabi_uldivmod+0x18>
 80001cc:	2900      	cmp	r1, #0
 80001ce:	bf08      	it	eq
 80001d0:	2800      	cmpeq	r0, #0
 80001d2:	bf1c      	itt	ne
 80001d4:	f04f 31ff 	movne.w	r1, #4294967295
 80001d8:	f04f 30ff 	movne.w	r0, #4294967295
 80001dc:	f000 b96e 	b.w	80004bc <__aeabi_idiv0>
 80001e0:	f1ad 0c08 	sub.w	ip, sp, #8
 80001e4:	e96d ce04 	strd	ip, lr, [sp, #-16]!
 80001e8:	f000 f806 	bl	80001f8 <__udivmoddi4>
 80001ec:	f8dd e004 	ldr.w	lr, [sp, #4]
 80001f0:	e9dd 2302 	ldrd	r2, r3, [sp, #8]
 80001f4:	b004      	add	sp, #16
 80001f6:	4770      	bx	lr

080001f8 <__udivmoddi4>:
 80001f8:	e92d 47f0 	stmdb	sp!, {r4, r5, r6, r7, r8, r9, sl, lr}
 80001fc:	9d08      	ldr	r5, [sp, #32]
 80001fe:	4604      	mov	r4, r0
 8000200:	468c      	mov	ip, r1
 8000202:	2b00      	cmp	r3, #0
 8000204:	f040 8083 	bne.w	800030e <__udivmoddi4+0x116>
 8000208:	428a      	cmp	r2, r1
 800020a:	4617      	mov	r7, r2
 800020c:	d947      	bls.n	800029e <__udivmoddi4+0xa6>
 800020e:	fab2 f282 	clz	r2, r2
 8000212:	b142      	cbz	r2, 8000226 <__udivmoddi4+0x2e>
 8000214:	f1c2 0020 	rsb	r0, r2, #32
 8000218:	fa24 f000 	lsr.w	r0, r4, r0
 800021c:	4091      	lsls	r1, r2
 800021e:	4097      	lsls	r7, r2
 8000220:	ea40 0c01 	orr.w	ip, r0, r1
 8000224:	4094      	lsls	r4, r2
 8000226:	ea4f 4817 	mov.w	r8, r7, lsr #16
 800022a:	0c23      	lsrs	r3, r4, #16
 800022c:	fbbc f6f8 	udiv	r6, ip, r8
 8000230:	fa1f fe87 	uxth.w	lr, r7
 8000234:	fb08 c116 	mls	r1, r8, r6, ip
 8000238:	ea43 4301 	orr.w	r3, r3, r1, lsl #16
 800023c:	fb06 f10e 	mul.w	r1, r6, lr
 8000240:	4299      	cmp	r1, r3
 8000242:	d909      	bls.n	8000258 <__udivmoddi4+0x60>
 8000244:	18fb      	adds	r3, r7, r3
 8000246:	f106 30ff 	add.w	r0, r6, #4294967295
 800024a:	f080 8119 	bcs.w	8000480 <__udivmoddi4+0x288>
 800024e:	4299      	cmp	r1, r3
 8000250:	f240 8116 	bls.w	8000480 <__udivmoddi4+0x288>
 8000254:	3e02      	subs	r6, #2
 8000256:	443b      	add	r3, r7
 8000258:	1a5b      	subs	r3, r3, r1
 800025a:	b2a4      	uxth	r4, r4
 800025c:	fbb3 f0f8 	udiv	r0, r3, r8
 8000260:	fb08 3310 	mls	r3, r8, r0, r3
 8000264:	ea44 4403 	orr.w	r4, r4, r3, lsl #16
 8000268:	fb00 fe0e 	mul.w	lr, r0, lr
 800026c:	45a6      	cmp	lr, r4
 800026e:	d909      	bls.n	8000284 <__udivmoddi4+0x8c>
 8000270:	193c      	adds	r4, r7, r4
 8000272:	f100 33ff 	add.w	r3, r0, #4294967295
 8000276:	f080 8105 	bcs.w	8000484 <__udivmoddi4+0x28c>
 800027a:	45a6      	cmp	lr, r4
 800027c:	f240 8102 	bls.w	8000484 <__udivmoddi4+0x28c>
 8000280:	3802      	subs	r0, #2
 8000282:	443c      	add	r4, r7
 8000284:	ea40 4006 	orr.w	r0, r0, r6, lsl #16
 8000288:	eba4 040e 	sub.w	r4, r4, lr
 800028c:	2600      	movs	r6, #0
 800028e:	b11d      	cbz	r5, 8000298 <__udivmoddi4+0xa0>
 8000290:	40d4      	lsrs	r4, r2
 8000292:	2300      	movs	r3, #0
 8000294:	e9c5 4300 	strd	r4, r3, [r5]
 8000298:	4631      	mov	r1, r6
 800029a:	e8bd 87f0 	ldmia.w	sp!, {r4, r5, r6, r7, r8, r9, sl, pc}
 800029e:	b902      	cbnz	r2, 80002a2 <__udivmoddi4+0xaa>
 80002a0:	deff      	udf	#255	; 0xff
 80002a2:	fab2 f282 	clz	r2, r2
 80002a6:	2a00      	cmp	r2, #0
 80002a8:	d150      	bne.n	800034c <__udivmoddi4+0x154>
 80002aa:	1bcb      	subs	r3, r1, r7
 80002ac:	ea4f 4e17 	mov.w	lr, r7, lsr #16
 80002b0:	fa1f f887 	uxth.w	r8, r7
 80002b4:	2601      	movs	r6, #1
 80002b6:	fbb3 fcfe 	udiv	ip, r3, lr
 80002ba:	0c21      	lsrs	r1, r4, #16
 80002bc:	fb0e 331c 	mls	r3, lr, ip, r3
 80002c0:	ea41 4103 	orr.w	r1, r1, r3, lsl #16
 80002c4:	fb08 f30c 	mul.w	r3, r8, ip
 80002c8:	428b      	cmp	r3, r1
 80002ca:	d907      	bls.n	80002dc <__udivmoddi4+0xe4>
 80002cc:	1879      	adds	r1, r7, r1
 80002ce:	f10c 30ff 	add.w	r0, ip, #4294967295
 80002d2:	d202      	bcs.n	80002da <__udivmoddi4+0xe2>
 80002d4:	428b      	cmp	r3, r1
 80002d6:	f200 80e9 	bhi.w	80004ac <__udivmoddi4+0x2b4>
 80002da:	4684      	mov	ip, r0
 80002dc:	1ac9      	subs	r1, r1, r3
 80002de:	b2a3      	uxth	r3, r4
 80002e0:	fbb1 f0fe 	udiv	r0, r1, lr
 80002e4:	fb0e 1110 	mls	r1, lr, r0, r1
 80002e8:	ea43 4401 	orr.w	r4, r3, r1, lsl #16
 80002ec:	fb08 f800 	mul.w	r8, r8, r0
 80002f0:	45a0      	cmp	r8, r4
 80002f2:	d907      	bls.n	8000304 <__udivmoddi4+0x10c>
 80002f4:	193c      	adds	r4, r7, r4
 80002f6:	f100 33ff 	add.w	r3, r0, #4294967295
 80002fa:	d202      	bcs.n	8000302 <__udivmoddi4+0x10a>
 80002fc:	45a0      	cmp	r8, r4
 80002fe:	f200 80d9 	bhi.w	80004b4 <__udivmoddi4+0x2bc>
 8000302:	4618      	mov	r0, r3
 8000304:	eba4 0408 	sub.w	r4, r4, r8
 8000308:	ea40 400c 	orr.w	r0, r0, ip, lsl #16
 800030c:	e7bf      	b.n	800028e <__udivmoddi4+0x96>
 800030e:	428b      	cmp	r3, r1
 8000310:	d909      	bls.n	8000326 <__udivmoddi4+0x12e>
 8000312:	2d00      	cmp	r5, #0
 8000314:	f000 80b1 	beq.w	800047a <__udivmoddi4+0x282>
 8000318:	2600      	movs	r6, #0
 800031a:	e9c5 0100 	strd	r0, r1, [r5]
 800031e:	4630      	mov	r0, r6
 8000320:	4631      	mov	r1, r6
 8000322:	e8bd 87f0 	ldmia.w	sp!, {r4, r5, r6, r7, r8, r9, sl, pc}
 8000326:	fab3 f683 	clz	r6, r3
 800032a:	2e00      	cmp	r6, #0
 800032c:	d14a      	bne.n	80003c4 <__udivmoddi4+0x1cc>
 800032e:	428b      	cmp	r3, r1
 8000330:	d302      	bcc.n	8000338 <__udivmoddi4+0x140>
 8000332:	4282      	cmp	r2, r0
 8000334:	f200 80b8 	bhi.w	80004a8 <__udivmoddi4+0x2b0>
 8000338:	1a84      	subs	r4, r0, r2
 800033a:	eb61 0103 	sbc.w	r1, r1, r3
 800033e:	2001      	movs	r0, #1
 8000340:	468c      	mov	ip, r1
 8000342:	2d00      	cmp	r5, #0
 8000344:	d0a8      	beq.n	8000298 <__udivmoddi4+0xa0>
 8000346:	e9c5 4c00 	strd	r4, ip, [r5]
 800034a:	e7a5      	b.n	8000298 <__udivmoddi4+0xa0>
 800034c:	f1c2 0320 	rsb	r3, r2, #32
 8000350:	fa20 f603 	lsr.w	r6, r0, r3
 8000354:	4097      	lsls	r7, r2
 8000356:	fa01 f002 	lsl.w	r0, r1, r2
 800035a:	ea4f 4e17 	mov.w	lr, r7, lsr #16
 800035e:	40d9      	lsrs	r1, r3
 8000360:	4330      	orrs	r0, r6
 8000362:	0c03      	lsrs	r3, r0, #16
 8000364:	fbb1 f6fe 	udiv	r6, r1, lr
 8000368:	fa1f f887 	uxth.w	r8, r7
 800036c:	fb0e 1116 	mls	r1, lr, r6, r1
 8000370:	ea43 4301 	orr.w	r3, r3, r1, lsl #16
 8000374:	fb06 f108 	mul.w	r1, r6, r8
 8000378:	4299      	cmp	r1, r3
 800037a:	fa04 f402 	lsl.w	r4, r4, r2
 800037e:	d909      	bls.n	8000394 <__udivmoddi4+0x19c>
 8000380:	18fb      	adds	r3, r7, r3
 8000382:	f106 3cff 	add.w	ip, r6, #4294967295
 8000386:	f080 808d 	bcs.w	80004a4 <__udivmoddi4+0x2ac>
 800038a:	4299      	cmp	r1, r3
 800038c:	f240 808a 	bls.w	80004a4 <__udivmoddi4+0x2ac>
 8000390:	3e02      	subs	r6, #2
 8000392:	443b      	add	r3, r7
 8000394:	1a5b      	subs	r3, r3, r1
 8000396:	b281      	uxth	r1, r0
 8000398:	fbb3 f0fe 	udiv	r0, r3, lr
 800039c:	fb0e 3310 	mls	r3, lr, r0, r3
 80003a0:	ea41 4103 	orr.w	r1, r1, r3, lsl #16
 80003a4:	fb00 f308 	mul.w	r3, r0, r8
 80003a8:	428b      	cmp	r3, r1
 80003aa:	d907      	bls.n	80003bc <__udivmoddi4+0x1c4>
 80003ac:	1879      	adds	r1, r7, r1
 80003ae:	f100 3cff 	add.w	ip, r0, #4294967295
 80003b2:	d273      	bcs.n	800049c <__udivmoddi4+0x2a4>
 80003b4:	428b      	cmp	r3, r1
 80003b6:	d971      	bls.n	800049c <__udivmoddi4+0x2a4>
 80003b8:	3802      	subs	r0, #2
 80003ba:	4439      	add	r1, r7
 80003bc:	1acb      	subs	r3, r1, r3
 80003be:	ea40 4606 	orr.w	r6, r0, r6, lsl #16
 80003c2:	e778      	b.n	80002b6 <__udivmoddi4+0xbe>
 80003c4:	f1c6 0c20 	rsb	ip, r6, #32
 80003c8:	fa03 f406 	lsl.w	r4, r3, r6
 80003cc:	fa22 f30c 	lsr.w	r3, r2, ip
 80003d0:	431c      	orrs	r4, r3
 80003d2:	fa20 f70c 	lsr.w	r7, r0, ip
 80003d6:	fa01 f306 	lsl.w	r3, r1, r6
 80003da:	ea4f 4e14 	mov.w	lr, r4, lsr #16
 80003de:	fa21 f10c 	lsr.w	r1, r1, ip
 80003e2:	431f      	orrs	r7, r3
 80003e4:	0c3b      	lsrs	r3, r7, #16
 80003e6:	fbb1 f9fe 	udiv	r9, r1, lr
 80003ea:	fa1f f884 	uxth.w	r8, r4
 80003ee:	fb0e 1119 	mls	r1, lr, r9, r1
 80003f2:	ea43 4101 	orr.w	r1, r3, r1, lsl #16
 80003f6:	fb09 fa08 	mul.w	sl, r9, r8
 80003fa:	458a      	cmp	sl, r1
 80003fc:	fa02 f206 	lsl.w	r2, r2, r6
 8000400:	fa00 f306 	lsl.w	r3, r0, r6
 8000404:	d908      	bls.n	8000418 <__udivmoddi4+0x220>
 8000406:	1861      	adds	r1, r4, r1
 8000408:	f109 30ff 	add.w	r0, r9, #4294967295
 800040c:	d248      	bcs.n	80004a0 <__udivmoddi4+0x2a8>
 800040e:	458a      	cmp	sl, r1
 8000410:	d946      	bls.n	80004a0 <__udivmoddi4+0x2a8>
 8000412:	f1a9 0902 	sub.w	r9, r9, #2
 8000416:	4421      	add	r1, r4
 8000418:	eba1 010a 	sub.w	r1, r1, sl
 800041c:	b2bf      	uxth	r7, r7
 800041e:	fbb1 f0fe 	udiv	r0, r1, lr
 8000422:	fb0e 1110 	mls	r1, lr, r0, r1
 8000426:	ea47 4701 	orr.w	r7, r7, r1, lsl #16
 800042a:	fb00 f808 	mul.w	r8, r0, r8
 800042e:	45b8      	cmp	r8, r7
 8000430:	d907      	bls.n	8000442 <__udivmoddi4+0x24a>
 8000432:	19e7      	adds	r7, r4, r7
 8000434:	f100 31ff 	add.w	r1, r0, #4294967295
 8000438:	d22e      	bcs.n	8000498 <__udivmoddi4+0x2a0>
 800043a:	45b8      	cmp	r8, r7
 800043c:	d92c      	bls.n	8000498 <__udivmoddi4+0x2a0>
 800043e:	3802      	subs	r0, #2
 8000440:	4427      	add	r7, r4
 8000442:	ea40 4009 	orr.w	r0, r0, r9, lsl #16
 8000446:	eba7 0708 	sub.w	r7, r7, r8
 800044a:	fba0 8902 	umull	r8, r9, r0, r2
 800044e:	454f      	cmp	r7, r9
 8000450:	46c6      	mov	lr, r8
 8000452:	4649      	mov	r1, r9
 8000454:	d31a      	bcc.n	800048c <__udivmoddi4+0x294>
 8000456:	d017      	beq.n	8000488 <__udivmoddi4+0x290>
 8000458:	b15d      	cbz	r5, 8000472 <__udivmoddi4+0x27a>
 800045a:	ebb3 020e 	subs.w	r2, r3, lr
 800045e:	eb67 0701 	sbc.w	r7, r7, r1
 8000462:	fa07 fc0c 	lsl.w	ip, r7, ip
 8000466:	40f2      	lsrs	r2, r6
 8000468:	ea4c 0202 	orr.w	r2, ip, r2
 800046c:	40f7      	lsrs	r7, r6
 800046e:	e9c5 2700 	strd	r2, r7, [r5]
 8000472:	2600      	movs	r6, #0
 8000474:	4631      	mov	r1, r6
 8000476:	e8bd 87f0 	ldmia.w	sp!, {r4, r5, r6, r7, r8, r9, sl, pc}
 800047a:	462e      	mov	r6, r5
 800047c:	4628      	mov	r0, r5
 800047e:	e70b      	b.n	8000298 <__udivmoddi4+0xa0>
 8000480:	4606      	mov	r6, r0
 8000482:	e6e9      	b.n	8000258 <__udivmoddi4+0x60>
 8000484:	4618      	mov	r0, r3
 8000486:	e6fd      	b.n	8000284 <__udivmoddi4+0x8c>
 8000488:	4543      	cmp	r3, r8
 800048a:	d2e5      	bcs.n	8000458 <__udivmoddi4+0x260>
 800048c:	ebb8 0e02 	subs.w	lr, r8, r2
 8000490:	eb69 0104 	sbc.w	r1, r9, r4
 8000494:	3801      	subs	r0, #1
 8000496:	e7df      	b.n	8000458 <__udivmoddi4+0x260>
 8000498:	4608      	mov	r0, r1
 800049a:	e7d2      	b.n	8000442 <__udivmoddi4+0x24a>
 800049c:	4660      	mov	r0, ip
 800049e:	e78d      	b.n	80003bc <__udivmoddi4+0x1c4>
 80004a0:	4681      	mov	r9, r0
 80004a2:	e7b9      	b.n	8000418 <__udivmoddi4+0x220>
 80004a4:	4666      	mov	r6, ip
 80004a6:	e775      	b.n	8000394 <__udivmoddi4+0x19c>
 80004a8:	4630      	mov	r0, r6
 80004aa:	e74a      	b.n	8000342 <__udivmoddi4+0x14a>
 80004ac:	f1ac 0c02 	sub.w	ip, ip, #2
 80004b0:	4439      	add	r1, r7
 80004b2:	e713      	b.n	80002dc <__udivmoddi4+0xe4>
 80004b4:	3802      	subs	r0, #2
 80004b6:	443c      	add	r4, r7
 80004b8:	e724      	b.n	8000304 <__udivmoddi4+0x10c>
 80004ba:	bf00      	nop

080004bc <__aeabi_idiv0>:
 80004bc:	4770      	bx	lr
 80004be:	bf00      	nop

080004c0 <main>:
/**
  * @brief  The application entry point.
  * @retval int
  */
int main(void)
{
 80004c0:	b580      	push	{r7, lr}
 80004c2:	b084      	sub	sp, #16
 80004c4:	af02      	add	r7, sp, #8
  /* USER CODE BEGIN 1 */
	uint8_t buffer_tx[4] = {8,12,13,15};
 80004c6:	4b0a      	ldr	r3, [pc, #40]	; (80004f0 <main+0x30>)
 80004c8:	607b      	str	r3, [r7, #4]
  /* USER CODE END 1 */

  /* MCU Configuration--------------------------------------------------------*/

  /* Reset of all peripherals, Initializes the Flash interface and the Systick. */
  HAL_Init();
 80004ca:	f000 fa51 	bl	8000970 <HAL_Init>
  /* USER CODE BEGIN Init */

  /* USER CODE END Init */

  /* Configure the system clock */
  SystemClock_Config();
 80004ce:	f000 f813 	bl	80004f8 <SystemClock_Config>
  /* USER CODE BEGIN SysInit */

  /* USER CODE END SysInit */

  /* Initialize all configured peripherals */
  MX_GPIO_Init();
 80004d2:	f000 f8e5 	bl	80006a0 <MX_GPIO_Init>
  MX_SPI1_Init();
 80004d6:	f000 f879 	bl	80005cc <MX_SPI1_Init>
  MX_SPI2_Init();
 80004da:	f000 f8ad 	bl	8000638 <MX_SPI2_Init>
  /* USER CODE BEGIN 2 */
HAL_SPI_TransmitReceive(&hspi1, buffer_tx, buffer_rx, 4, 100);
 80004de:	463a      	mov	r2, r7
 80004e0:	1d39      	adds	r1, r7, #4
 80004e2:	2364      	movs	r3, #100	; 0x64
 80004e4:	9300      	str	r3, [sp, #0]
 80004e6:	2304      	movs	r3, #4
 80004e8:	4802      	ldr	r0, [pc, #8]	; (80004f4 <main+0x34>)
 80004ea:	f001 f9fe 	bl	80018ea <HAL_SPI_TransmitReceive>
  /* USER CODE END 2 */

  /* Infinite loop */
  /* USER CODE BEGIN WHILE */
  while (1)
 80004ee:	e7fe      	b.n	80004ee <main+0x2e>
 80004f0:	0f0d0c08 	.word	0x0f0d0c08
 80004f4:	20000080 	.word	0x20000080

080004f8 <SystemClock_Config>:
/**
  * @brief System Clock Configuration
  * @retval None
  */
void SystemClock_Config(void)
{
 80004f8:	b580      	push	{r7, lr}
 80004fa:	b094      	sub	sp, #80	; 0x50
 80004fc:	af00      	add	r7, sp, #0
  RCC_OscInitTypeDef RCC_OscInitStruct = {0};
 80004fe:	f107 0320 	add.w	r3, r7, #32
 8000502:	2230      	movs	r2, #48	; 0x30
 8000504:	2100      	movs	r1, #0
 8000506:	4618      	mov	r0, r3
 8000508:	f001 fc80 	bl	8001e0c <memset>
  RCC_ClkInitTypeDef RCC_ClkInitStruct = {0};
 800050c:	f107 030c 	add.w	r3, r7, #12
 8000510:	2200      	movs	r2, #0
 8000512:	601a      	str	r2, [r3, #0]
 8000514:	605a      	str	r2, [r3, #4]
 8000516:	609a      	str	r2, [r3, #8]
 8000518:	60da      	str	r2, [r3, #12]
 800051a:	611a      	str	r2, [r3, #16]

  /** Configure the main internal regulator output voltage
  */
  __HAL_RCC_PWR_CLK_ENABLE();
 800051c:	2300      	movs	r3, #0
 800051e:	60bb      	str	r3, [r7, #8]
 8000520:	4b28      	ldr	r3, [pc, #160]	; (80005c4 <SystemClock_Config+0xcc>)
 8000522:	6c1b      	ldr	r3, [r3, #64]	; 0x40
 8000524:	4a27      	ldr	r2, [pc, #156]	; (80005c4 <SystemClock_Config+0xcc>)
 8000526:	f043 5380 	orr.w	r3, r3, #268435456	; 0x10000000
 800052a:	6413      	str	r3, [r2, #64]	; 0x40
 800052c:	4b25      	ldr	r3, [pc, #148]	; (80005c4 <SystemClock_Config+0xcc>)
 800052e:	6c1b      	ldr	r3, [r3, #64]	; 0x40
 8000530:	f003 5380 	and.w	r3, r3, #268435456	; 0x10000000
 8000534:	60bb      	str	r3, [r7, #8]
 8000536:	68bb      	ldr	r3, [r7, #8]
  __HAL_PWR_VOLTAGESCALING_CONFIG(PWR_REGULATOR_VOLTAGE_SCALE1);
 8000538:	2300      	movs	r3, #0
 800053a:	607b      	str	r3, [r7, #4]
 800053c:	4b22      	ldr	r3, [pc, #136]	; (80005c8 <SystemClock_Config+0xd0>)
 800053e:	681b      	ldr	r3, [r3, #0]
 8000540:	4a21      	ldr	r2, [pc, #132]	; (80005c8 <SystemClock_Config+0xd0>)
 8000542:	f443 4380 	orr.w	r3, r3, #16384	; 0x4000
 8000546:	6013      	str	r3, [r2, #0]
 8000548:	4b1f      	ldr	r3, [pc, #124]	; (80005c8 <SystemClock_Config+0xd0>)
 800054a:	681b      	ldr	r3, [r3, #0]
 800054c:	f403 4380 	and.w	r3, r3, #16384	; 0x4000
 8000550:	607b      	str	r3, [r7, #4]
 8000552:	687b      	ldr	r3, [r7, #4]
  /** Initializes the RCC Oscillators according to the specified parameters
  * in the RCC_OscInitTypeDef structure.
  */
  RCC_OscInitStruct.OscillatorType = RCC_OSCILLATORTYPE_HSI;
 8000554:	2302      	movs	r3, #2
 8000556:	623b      	str	r3, [r7, #32]
  RCC_OscInitStruct.HSIState = RCC_HSI_ON;
 8000558:	2301      	movs	r3, #1
 800055a:	62fb      	str	r3, [r7, #44]	; 0x2c
  RCC_OscInitStruct.HSICalibrationValue = RCC_HSICALIBRATION_DEFAULT;
 800055c:	2310      	movs	r3, #16
 800055e:	633b      	str	r3, [r7, #48]	; 0x30
  RCC_OscInitStruct.PLL.PLLState = RCC_PLL_ON;
 8000560:	2302      	movs	r3, #2
 8000562:	63bb      	str	r3, [r7, #56]	; 0x38
  RCC_OscInitStruct.PLL.PLLSource = RCC_PLLSOURCE_HSI;
 8000564:	2300      	movs	r3, #0
 8000566:	63fb      	str	r3, [r7, #60]	; 0x3c
  RCC_OscInitStruct.PLL.PLLM = 8;
 8000568:	2308      	movs	r3, #8
 800056a:	643b      	str	r3, [r7, #64]	; 0x40
  RCC_OscInitStruct.PLL.PLLN = 50;
 800056c:	2332      	movs	r3, #50	; 0x32
 800056e:	647b      	str	r3, [r7, #68]	; 0x44
  RCC_OscInitStruct.PLL.PLLP = RCC_PLLP_DIV2;
 8000570:	2302      	movs	r3, #2
 8000572:	64bb      	str	r3, [r7, #72]	; 0x48
  RCC_OscInitStruct.PLL.PLLQ = 7;
 8000574:	2307      	movs	r3, #7
 8000576:	64fb      	str	r3, [r7, #76]	; 0x4c
  if (HAL_RCC_OscConfig(&RCC_OscInitStruct) != HAL_OK)
 8000578:	f107 0320 	add.w	r3, r7, #32
 800057c:	4618      	mov	r0, r3
 800057e:	f000 fceb 	bl	8000f58 <HAL_RCC_OscConfig>
 8000582:	4603      	mov	r3, r0
 8000584:	2b00      	cmp	r3, #0
 8000586:	d001      	beq.n	800058c <SystemClock_Config+0x94>
  {
    Error_Handler();
 8000588:	f000 f8c0 	bl	800070c <Error_Handler>
  }
  /** Initializes the CPU, AHB and APB buses clocks
  */
  RCC_ClkInitStruct.ClockType = RCC_CLOCKTYPE_HCLK|RCC_CLOCKTYPE_SYSCLK
 800058c:	230f      	movs	r3, #15
 800058e:	60fb      	str	r3, [r7, #12]
                              |RCC_CLOCKTYPE_PCLK1|RCC_CLOCKTYPE_PCLK2;
  RCC_ClkInitStruct.SYSCLKSource = RCC_SYSCLKSOURCE_PLLCLK;
 8000590:	2302      	movs	r3, #2
 8000592:	613b      	str	r3, [r7, #16]
  RCC_ClkInitStruct.AHBCLKDivider = RCC_SYSCLK_DIV1;
 8000594:	2300      	movs	r3, #0
 8000596:	617b      	str	r3, [r7, #20]
  RCC_ClkInitStruct.APB1CLKDivider = RCC_HCLK_DIV4;
 8000598:	f44f 53a0 	mov.w	r3, #5120	; 0x1400
 800059c:	61bb      	str	r3, [r7, #24]
  RCC_ClkInitStruct.APB2CLKDivider = RCC_HCLK_DIV2;
 800059e:	f44f 5380 	mov.w	r3, #4096	; 0x1000
 80005a2:	61fb      	str	r3, [r7, #28]

  if (HAL_RCC_ClockConfig(&RCC_ClkInitStruct, FLASH_LATENCY_1) != HAL_OK)
 80005a4:	f107 030c 	add.w	r3, r7, #12
 80005a8:	2101      	movs	r1, #1
 80005aa:	4618      	mov	r0, r3
 80005ac:	f000 ff4c 	bl	8001448 <HAL_RCC_ClockConfig>
 80005b0:	4603      	mov	r3, r0
 80005b2:	2b00      	cmp	r3, #0
 80005b4:	d001      	beq.n	80005ba <SystemClock_Config+0xc2>
  {
    Error_Handler();
 80005b6:	f000 f8a9 	bl	800070c <Error_Handler>
  }
}
 80005ba:	bf00      	nop
 80005bc:	3750      	adds	r7, #80	; 0x50
 80005be:	46bd      	mov	sp, r7
 80005c0:	bd80      	pop	{r7, pc}
 80005c2:	bf00      	nop
 80005c4:	40023800 	.word	0x40023800
 80005c8:	40007000 	.word	0x40007000

080005cc <MX_SPI1_Init>:
  * @brief SPI1 Initialization Function
  * @param None
  * @retval None
  */
static void MX_SPI1_Init(void)
{
 80005cc:	b580      	push	{r7, lr}
 80005ce:	af00      	add	r7, sp, #0

  /* USER CODE BEGIN SPI1_Init 1 */

  /* USER CODE END SPI1_Init 1 */
  /* SPI1 parameter configuration*/
  hspi1.Instance = SPI1;
 80005d0:	4b17      	ldr	r3, [pc, #92]	; (8000630 <MX_SPI1_Init+0x64>)
 80005d2:	4a18      	ldr	r2, [pc, #96]	; (8000634 <MX_SPI1_Init+0x68>)
 80005d4:	601a      	str	r2, [r3, #0]
  hspi1.Init.Mode = SPI_MODE_MASTER;
 80005d6:	4b16      	ldr	r3, [pc, #88]	; (8000630 <MX_SPI1_Init+0x64>)
 80005d8:	f44f 7282 	mov.w	r2, #260	; 0x104
 80005dc:	605a      	str	r2, [r3, #4]
  hspi1.Init.Direction = SPI_DIRECTION_2LINES;
 80005de:	4b14      	ldr	r3, [pc, #80]	; (8000630 <MX_SPI1_Init+0x64>)
 80005e0:	2200      	movs	r2, #0
 80005e2:	609a      	str	r2, [r3, #8]
  hspi1.Init.DataSize = SPI_DATASIZE_8BIT;
 80005e4:	4b12      	ldr	r3, [pc, #72]	; (8000630 <MX_SPI1_Init+0x64>)
 80005e6:	2200      	movs	r2, #0
 80005e8:	60da      	str	r2, [r3, #12]
  hspi1.Init.CLKPolarity = SPI_POLARITY_LOW;
 80005ea:	4b11      	ldr	r3, [pc, #68]	; (8000630 <MX_SPI1_Init+0x64>)
 80005ec:	2200      	movs	r2, #0
 80005ee:	611a      	str	r2, [r3, #16]
  hspi1.Init.CLKPhase = SPI_PHASE_1EDGE;
 80005f0:	4b0f      	ldr	r3, [pc, #60]	; (8000630 <MX_SPI1_Init+0x64>)
 80005f2:	2200      	movs	r2, #0
 80005f4:	615a      	str	r2, [r3, #20]
  hspi1.Init.NSS = SPI_NSS_SOFT;
 80005f6:	4b0e      	ldr	r3, [pc, #56]	; (8000630 <MX_SPI1_Init+0x64>)
 80005f8:	f44f 7200 	mov.w	r2, #512	; 0x200
 80005fc:	619a      	str	r2, [r3, #24]
  hspi1.Init.BaudRatePrescaler = SPI_BAUDRATEPRESCALER_8;
 80005fe:	4b0c      	ldr	r3, [pc, #48]	; (8000630 <MX_SPI1_Init+0x64>)
 8000600:	2210      	movs	r2, #16
 8000602:	61da      	str	r2, [r3, #28]
  hspi1.Init.FirstBit = SPI_FIRSTBIT_MSB;
 8000604:	4b0a      	ldr	r3, [pc, #40]	; (8000630 <MX_SPI1_Init+0x64>)
 8000606:	2200      	movs	r2, #0
 8000608:	621a      	str	r2, [r3, #32]
  hspi1.Init.TIMode = SPI_TIMODE_DISABLE;
 800060a:	4b09      	ldr	r3, [pc, #36]	; (8000630 <MX_SPI1_Init+0x64>)
 800060c:	2200      	movs	r2, #0
 800060e:	625a      	str	r2, [r3, #36]	; 0x24
  hspi1.Init.CRCCalculation = SPI_CRCCALCULATION_DISABLE;
 8000610:	4b07      	ldr	r3, [pc, #28]	; (8000630 <MX_SPI1_Init+0x64>)
 8000612:	2200      	movs	r2, #0
 8000614:	629a      	str	r2, [r3, #40]	; 0x28
  hspi1.Init.CRCPolynomial = 10;
 8000616:	4b06      	ldr	r3, [pc, #24]	; (8000630 <MX_SPI1_Init+0x64>)
 8000618:	220a      	movs	r2, #10
 800061a:	62da      	str	r2, [r3, #44]	; 0x2c
  if (HAL_SPI_Init(&hspi1) != HAL_OK)
 800061c:	4804      	ldr	r0, [pc, #16]	; (8000630 <MX_SPI1_Init+0x64>)
 800061e:	f001 f8db 	bl	80017d8 <HAL_SPI_Init>
 8000622:	4603      	mov	r3, r0
 8000624:	2b00      	cmp	r3, #0
 8000626:	d001      	beq.n	800062c <MX_SPI1_Init+0x60>
  {
    Error_Handler();
 8000628:	f000 f870 	bl	800070c <Error_Handler>
  }
  /* USER CODE BEGIN SPI1_Init 2 */

  /* USER CODE END SPI1_Init 2 */

}
 800062c:	bf00      	nop
 800062e:	bd80      	pop	{r7, pc}
 8000630:	20000080 	.word	0x20000080
 8000634:	40013000 	.word	0x40013000

08000638 <MX_SPI2_Init>:
  * @brief SPI2 Initialization Function
  * @param None
  * @retval None
  */
static void MX_SPI2_Init(void)
{
 8000638:	b580      	push	{r7, lr}
 800063a:	af00      	add	r7, sp, #0

  /* USER CODE BEGIN SPI2_Init 1 */

  /* USER CODE END SPI2_Init 1 */
  /* SPI2 parameter configuration*/
  hspi2.Instance = SPI2;
 800063c:	4b16      	ldr	r3, [pc, #88]	; (8000698 <MX_SPI2_Init+0x60>)
 800063e:	4a17      	ldr	r2, [pc, #92]	; (800069c <MX_SPI2_Init+0x64>)
 8000640:	601a      	str	r2, [r3, #0]
  hspi2.Init.Mode = SPI_MODE_SLAVE;
 8000642:	4b15      	ldr	r3, [pc, #84]	; (8000698 <MX_SPI2_Init+0x60>)
 8000644:	2200      	movs	r2, #0
 8000646:	605a      	str	r2, [r3, #4]
  hspi2.Init.Direction = SPI_DIRECTION_2LINES_RXONLY;
 8000648:	4b13      	ldr	r3, [pc, #76]	; (8000698 <MX_SPI2_Init+0x60>)
 800064a:	f44f 6280 	mov.w	r2, #1024	; 0x400
 800064e:	609a      	str	r2, [r3, #8]
  hspi2.Init.DataSize = SPI_DATASIZE_8BIT;
 8000650:	4b11      	ldr	r3, [pc, #68]	; (8000698 <MX_SPI2_Init+0x60>)
 8000652:	2200      	movs	r2, #0
 8000654:	60da      	str	r2, [r3, #12]
  hspi2.Init.CLKPolarity = SPI_POLARITY_LOW;
 8000656:	4b10      	ldr	r3, [pc, #64]	; (8000698 <MX_SPI2_Init+0x60>)
 8000658:	2200      	movs	r2, #0
 800065a:	611a      	str	r2, [r3, #16]
  hspi2.Init.CLKPhase = SPI_PHASE_1EDGE;
 800065c:	4b0e      	ldr	r3, [pc, #56]	; (8000698 <MX_SPI2_Init+0x60>)
 800065e:	2200      	movs	r2, #0
 8000660:	615a      	str	r2, [r3, #20]
  hspi2.Init.NSS = SPI_NSS_SOFT;
 8000662:	4b0d      	ldr	r3, [pc, #52]	; (8000698 <MX_SPI2_Init+0x60>)
 8000664:	f44f 7200 	mov.w	r2, #512	; 0x200
 8000668:	619a      	str	r2, [r3, #24]
  hspi2.Init.FirstBit = SPI_FIRSTBIT_MSB;
 800066a:	4b0b      	ldr	r3, [pc, #44]	; (8000698 <MX_SPI2_Init+0x60>)
 800066c:	2200      	movs	r2, #0
 800066e:	621a      	str	r2, [r3, #32]
  hspi2.Init.TIMode = SPI_TIMODE_DISABLE;
 8000670:	4b09      	ldr	r3, [pc, #36]	; (8000698 <MX_SPI2_Init+0x60>)
 8000672:	2200      	movs	r2, #0
 8000674:	625a      	str	r2, [r3, #36]	; 0x24
  hspi2.Init.CRCCalculation = SPI_CRCCALCULATION_DISABLE;
 8000676:	4b08      	ldr	r3, [pc, #32]	; (8000698 <MX_SPI2_Init+0x60>)
 8000678:	2200      	movs	r2, #0
 800067a:	629a      	str	r2, [r3, #40]	; 0x28
  hspi2.Init.CRCPolynomial = 10;
 800067c:	4b06      	ldr	r3, [pc, #24]	; (8000698 <MX_SPI2_Init+0x60>)
 800067e:	220a      	movs	r2, #10
 8000680:	62da      	str	r2, [r3, #44]	; 0x2c
  if (HAL_SPI_Init(&hspi2) != HAL_OK)
 8000682:	4805      	ldr	r0, [pc, #20]	; (8000698 <MX_SPI2_Init+0x60>)
 8000684:	f001 f8a8 	bl	80017d8 <HAL_SPI_Init>
 8000688:	4603      	mov	r3, r0
 800068a:	2b00      	cmp	r3, #0
 800068c:	d001      	beq.n	8000692 <MX_SPI2_Init+0x5a>
  {
    Error_Handler();
 800068e:	f000 f83d 	bl	800070c <Error_Handler>
  }
  /* USER CODE BEGIN SPI2_Init 2 */

  /* USER CODE END SPI2_Init 2 */

}
 8000692:	bf00      	nop
 8000694:	bd80      	pop	{r7, pc}
 8000696:	bf00      	nop
 8000698:	20000028 	.word	0x20000028
 800069c:	40003800 	.word	0x40003800

080006a0 <MX_GPIO_Init>:
  * @brief GPIO Initialization Function
  * @param None
  * @retval None
  */
static void MX_GPIO_Init(void)
{
 80006a0:	b480      	push	{r7}
 80006a2:	b085      	sub	sp, #20
 80006a4:	af00      	add	r7, sp, #0

  /* GPIO Ports Clock Enable */
  __HAL_RCC_GPIOC_CLK_ENABLE();
 80006a6:	2300      	movs	r3, #0
 80006a8:	60fb      	str	r3, [r7, #12]
 80006aa:	4b17      	ldr	r3, [pc, #92]	; (8000708 <MX_GPIO_Init+0x68>)
 80006ac:	6b1b      	ldr	r3, [r3, #48]	; 0x30
 80006ae:	4a16      	ldr	r2, [pc, #88]	; (8000708 <MX_GPIO_Init+0x68>)
 80006b0:	f043 0304 	orr.w	r3, r3, #4
 80006b4:	6313      	str	r3, [r2, #48]	; 0x30
 80006b6:	4b14      	ldr	r3, [pc, #80]	; (8000708 <MX_GPIO_Init+0x68>)
 80006b8:	6b1b      	ldr	r3, [r3, #48]	; 0x30
 80006ba:	f003 0304 	and.w	r3, r3, #4
 80006be:	60fb      	str	r3, [r7, #12]
 80006c0:	68fb      	ldr	r3, [r7, #12]
  __HAL_RCC_GPIOA_CLK_ENABLE();
 80006c2:	2300      	movs	r3, #0
 80006c4:	60bb      	str	r3, [r7, #8]
 80006c6:	4b10      	ldr	r3, [pc, #64]	; (8000708 <MX_GPIO_Init+0x68>)
 80006c8:	6b1b      	ldr	r3, [r3, #48]	; 0x30
 80006ca:	4a0f      	ldr	r2, [pc, #60]	; (8000708 <MX_GPIO_Init+0x68>)
 80006cc:	f043 0301 	orr.w	r3, r3, #1
 80006d0:	6313      	str	r3, [r2, #48]	; 0x30
 80006d2:	4b0d      	ldr	r3, [pc, #52]	; (8000708 <MX_GPIO_Init+0x68>)
 80006d4:	6b1b      	ldr	r3, [r3, #48]	; 0x30
 80006d6:	f003 0301 	and.w	r3, r3, #1
 80006da:	60bb      	str	r3, [r7, #8]
 80006dc:	68bb      	ldr	r3, [r7, #8]
  __HAL_RCC_GPIOB_CLK_ENABLE();
 80006de:	2300      	movs	r3, #0
 80006e0:	607b      	str	r3, [r7, #4]
 80006e2:	4b09      	ldr	r3, [pc, #36]	; (8000708 <MX_GPIO_Init+0x68>)
 80006e4:	6b1b      	ldr	r3, [r3, #48]	; 0x30
 80006e6:	4a08      	ldr	r2, [pc, #32]	; (8000708 <MX_GPIO_Init+0x68>)
 80006e8:	f043 0302 	orr.w	r3, r3, #2
 80006ec:	6313      	str	r3, [r2, #48]	; 0x30
 80006ee:	4b06      	ldr	r3, [pc, #24]	; (8000708 <MX_GPIO_Init+0x68>)
 80006f0:	6b1b      	ldr	r3, [r3, #48]	; 0x30
 80006f2:	f003 0302 	and.w	r3, r3, #2
 80006f6:	607b      	str	r3, [r7, #4]
 80006f8:	687b      	ldr	r3, [r7, #4]

}
 80006fa:	bf00      	nop
 80006fc:	3714      	adds	r7, #20
 80006fe:	46bd      	mov	sp, r7
 8000700:	f85d 7b04 	ldr.w	r7, [sp], #4
 8000704:	4770      	bx	lr
 8000706:	bf00      	nop
 8000708:	40023800 	.word	0x40023800

0800070c <Error_Handler>:
/**
  * @brief  This function is executed in case of error occurrence.
  * @retval None
  */
void Error_Handler(void)
{
 800070c:	b480      	push	{r7}
 800070e:	af00      	add	r7, sp, #0
  \details Disables IRQ interrupts by setting the I-bit in the CPSR.
           Can only be executed in Privileged modes.
 */
__STATIC_FORCEINLINE void __disable_irq(void)
{
  __ASM volatile ("cpsid i" : : : "memory");
 8000710:	b672      	cpsid	i
}
 8000712:	bf00      	nop
  /* USER CODE BEGIN Error_Handler_Debug */
  /* User can add his own implementation to report the HAL error return state */
  __disable_irq();
  while (1)
 8000714:	e7fe      	b.n	8000714 <Error_Handler+0x8>
	...

08000718 <HAL_MspInit>:
/* USER CODE END 0 */
/**
  * Initializes the Global MSP.
  */
void HAL_MspInit(void)
{
 8000718:	b580      	push	{r7, lr}
 800071a:	b082      	sub	sp, #8
 800071c:	af00      	add	r7, sp, #0
  /* USER CODE BEGIN MspInit 0 */

  /* USER CODE END MspInit 0 */

  __HAL_RCC_SYSCFG_CLK_ENABLE();
 800071e:	2300      	movs	r3, #0
 8000720:	607b      	str	r3, [r7, #4]
 8000722:	4b10      	ldr	r3, [pc, #64]	; (8000764 <HAL_MspInit+0x4c>)
 8000724:	6c5b      	ldr	r3, [r3, #68]	; 0x44
 8000726:	4a0f      	ldr	r2, [pc, #60]	; (8000764 <HAL_MspInit+0x4c>)
 8000728:	f443 4380 	orr.w	r3, r3, #16384	; 0x4000
 800072c:	6453      	str	r3, [r2, #68]	; 0x44
 800072e:	4b0d      	ldr	r3, [pc, #52]	; (8000764 <HAL_MspInit+0x4c>)
 8000730:	6c5b      	ldr	r3, [r3, #68]	; 0x44
 8000732:	f403 4380 	and.w	r3, r3, #16384	; 0x4000
 8000736:	607b      	str	r3, [r7, #4]
 8000738:	687b      	ldr	r3, [r7, #4]
  __HAL_RCC_PWR_CLK_ENABLE();
 800073a:	2300      	movs	r3, #0
 800073c:	603b      	str	r3, [r7, #0]
 800073e:	4b09      	ldr	r3, [pc, #36]	; (8000764 <HAL_MspInit+0x4c>)
 8000740:	6c1b      	ldr	r3, [r3, #64]	; 0x40
 8000742:	4a08      	ldr	r2, [pc, #32]	; (8000764 <HAL_MspInit+0x4c>)
 8000744:	f043 5380 	orr.w	r3, r3, #268435456	; 0x10000000
 8000748:	6413      	str	r3, [r2, #64]	; 0x40
 800074a:	4b06      	ldr	r3, [pc, #24]	; (8000764 <HAL_MspInit+0x4c>)
 800074c:	6c1b      	ldr	r3, [r3, #64]	; 0x40
 800074e:	f003 5380 	and.w	r3, r3, #268435456	; 0x10000000
 8000752:	603b      	str	r3, [r7, #0]
 8000754:	683b      	ldr	r3, [r7, #0]

  HAL_NVIC_SetPriorityGrouping(NVIC_PRIORITYGROUP_0);
 8000756:	2007      	movs	r0, #7
 8000758:	f000 fa2e 	bl	8000bb8 <HAL_NVIC_SetPriorityGrouping>
  /* System interrupt init*/

  /* USER CODE BEGIN MspInit 1 */

  /* USER CODE END MspInit 1 */
}
 800075c:	bf00      	nop
 800075e:	3708      	adds	r7, #8
 8000760:	46bd      	mov	sp, r7
 8000762:	bd80      	pop	{r7, pc}
 8000764:	40023800 	.word	0x40023800

08000768 <HAL_SPI_MspInit>:
* This function configures the hardware resources used in this example
* @param hspi: SPI handle pointer
* @retval None
*/
void HAL_SPI_MspInit(SPI_HandleTypeDef* hspi)
{
 8000768:	b580      	push	{r7, lr}
 800076a:	b08c      	sub	sp, #48	; 0x30
 800076c:	af00      	add	r7, sp, #0
 800076e:	6078      	str	r0, [r7, #4]
  GPIO_InitTypeDef GPIO_InitStruct = {0};
 8000770:	f107 031c 	add.w	r3, r7, #28
 8000774:	2200      	movs	r2, #0
 8000776:	601a      	str	r2, [r3, #0]
 8000778:	605a      	str	r2, [r3, #4]
 800077a:	609a      	str	r2, [r3, #8]
 800077c:	60da      	str	r2, [r3, #12]
 800077e:	611a      	str	r2, [r3, #16]
  if(hspi->Instance==SPI1)
 8000780:	687b      	ldr	r3, [r7, #4]
 8000782:	681b      	ldr	r3, [r3, #0]
 8000784:	4a41      	ldr	r2, [pc, #260]	; (800088c <HAL_SPI_MspInit+0x124>)
 8000786:	4293      	cmp	r3, r2
 8000788:	d12c      	bne.n	80007e4 <HAL_SPI_MspInit+0x7c>
  {
  /* USER CODE BEGIN SPI1_MspInit 0 */

  /* USER CODE END SPI1_MspInit 0 */
    /* Peripheral clock enable */
    __HAL_RCC_SPI1_CLK_ENABLE();
 800078a:	2300      	movs	r3, #0
 800078c:	61bb      	str	r3, [r7, #24]
 800078e:	4b40      	ldr	r3, [pc, #256]	; (8000890 <HAL_SPI_MspInit+0x128>)
 8000790:	6c5b      	ldr	r3, [r3, #68]	; 0x44
 8000792:	4a3f      	ldr	r2, [pc, #252]	; (8000890 <HAL_SPI_MspInit+0x128>)
 8000794:	f443 5380 	orr.w	r3, r3, #4096	; 0x1000
 8000798:	6453      	str	r3, [r2, #68]	; 0x44
 800079a:	4b3d      	ldr	r3, [pc, #244]	; (8000890 <HAL_SPI_MspInit+0x128>)
 800079c:	6c5b      	ldr	r3, [r3, #68]	; 0x44
 800079e:	f403 5380 	and.w	r3, r3, #4096	; 0x1000
 80007a2:	61bb      	str	r3, [r7, #24]
 80007a4:	69bb      	ldr	r3, [r7, #24]

    __HAL_RCC_GPIOA_CLK_ENABLE();
 80007a6:	2300      	movs	r3, #0
 80007a8:	617b      	str	r3, [r7, #20]
 80007aa:	4b39      	ldr	r3, [pc, #228]	; (8000890 <HAL_SPI_MspInit+0x128>)
 80007ac:	6b1b      	ldr	r3, [r3, #48]	; 0x30
 80007ae:	4a38      	ldr	r2, [pc, #224]	; (8000890 <HAL_SPI_MspInit+0x128>)
 80007b0:	f043 0301 	orr.w	r3, r3, #1
 80007b4:	6313      	str	r3, [r2, #48]	; 0x30
 80007b6:	4b36      	ldr	r3, [pc, #216]	; (8000890 <HAL_SPI_MspInit+0x128>)
 80007b8:	6b1b      	ldr	r3, [r3, #48]	; 0x30
 80007ba:	f003 0301 	and.w	r3, r3, #1
 80007be:	617b      	str	r3, [r7, #20]
 80007c0:	697b      	ldr	r3, [r7, #20]
    /**SPI1 GPIO Configuration
    PA5     ------> SPI1_SCK
    PA6     ------> SPI1_MISO
    PA7     ------> SPI1_MOSI
    */
    GPIO_InitStruct.Pin = GPIO_PIN_5|GPIO_PIN_6|GPIO_PIN_7;
 80007c2:	23e0      	movs	r3, #224	; 0xe0
 80007c4:	61fb      	str	r3, [r7, #28]
    GPIO_InitStruct.Mode = GPIO_MODE_AF_PP;
 80007c6:	2302      	movs	r3, #2
 80007c8:	623b      	str	r3, [r7, #32]
    GPIO_InitStruct.Pull = GPIO_NOPULL;
 80007ca:	2300      	movs	r3, #0
 80007cc:	627b      	str	r3, [r7, #36]	; 0x24
    GPIO_InitStruct.Speed = GPIO_SPEED_FREQ_VERY_HIGH;
 80007ce:	2303      	movs	r3, #3
 80007d0:	62bb      	str	r3, [r7, #40]	; 0x28
    GPIO_InitStruct.Alternate = GPIO_AF5_SPI1;
 80007d2:	2305      	movs	r3, #5
 80007d4:	62fb      	str	r3, [r7, #44]	; 0x2c
    HAL_GPIO_Init(GPIOA, &GPIO_InitStruct);
 80007d6:	f107 031c 	add.w	r3, r7, #28
 80007da:	4619      	mov	r1, r3
 80007dc:	482d      	ldr	r0, [pc, #180]	; (8000894 <HAL_SPI_MspInit+0x12c>)
 80007de:	f000 fa1f 	bl	8000c20 <HAL_GPIO_Init>
  /* USER CODE BEGIN SPI2_MspInit 1 */

  /* USER CODE END SPI2_MspInit 1 */
  }

}
 80007e2:	e04f      	b.n	8000884 <HAL_SPI_MspInit+0x11c>
  else if(hspi->Instance==SPI2)
 80007e4:	687b      	ldr	r3, [r7, #4]
 80007e6:	681b      	ldr	r3, [r3, #0]
 80007e8:	4a2b      	ldr	r2, [pc, #172]	; (8000898 <HAL_SPI_MspInit+0x130>)
 80007ea:	4293      	cmp	r3, r2
 80007ec:	d14a      	bne.n	8000884 <HAL_SPI_MspInit+0x11c>
    __HAL_RCC_SPI2_CLK_ENABLE();
 80007ee:	2300      	movs	r3, #0
 80007f0:	613b      	str	r3, [r7, #16]
 80007f2:	4b27      	ldr	r3, [pc, #156]	; (8000890 <HAL_SPI_MspInit+0x128>)
 80007f4:	6c1b      	ldr	r3, [r3, #64]	; 0x40
 80007f6:	4a26      	ldr	r2, [pc, #152]	; (8000890 <HAL_SPI_MspInit+0x128>)
 80007f8:	f443 4380 	orr.w	r3, r3, #16384	; 0x4000
 80007fc:	6413      	str	r3, [r2, #64]	; 0x40
 80007fe:	4b24      	ldr	r3, [pc, #144]	; (8000890 <HAL_SPI_MspInit+0x128>)
 8000800:	6c1b      	ldr	r3, [r3, #64]	; 0x40
 8000802:	f403 4380 	and.w	r3, r3, #16384	; 0x4000
 8000806:	613b      	str	r3, [r7, #16]
 8000808:	693b      	ldr	r3, [r7, #16]
    __HAL_RCC_GPIOC_CLK_ENABLE();
 800080a:	2300      	movs	r3, #0
 800080c:	60fb      	str	r3, [r7, #12]
 800080e:	4b20      	ldr	r3, [pc, #128]	; (8000890 <HAL_SPI_MspInit+0x128>)
 8000810:	6b1b      	ldr	r3, [r3, #48]	; 0x30
 8000812:	4a1f      	ldr	r2, [pc, #124]	; (8000890 <HAL_SPI_MspInit+0x128>)
 8000814:	f043 0304 	orr.w	r3, r3, #4
 8000818:	6313      	str	r3, [r2, #48]	; 0x30
 800081a:	4b1d      	ldr	r3, [pc, #116]	; (8000890 <HAL_SPI_MspInit+0x128>)
 800081c:	6b1b      	ldr	r3, [r3, #48]	; 0x30
 800081e:	f003 0304 	and.w	r3, r3, #4
 8000822:	60fb      	str	r3, [r7, #12]
 8000824:	68fb      	ldr	r3, [r7, #12]
    __HAL_RCC_GPIOB_CLK_ENABLE();
 8000826:	2300      	movs	r3, #0
 8000828:	60bb      	str	r3, [r7, #8]
 800082a:	4b19      	ldr	r3, [pc, #100]	; (8000890 <HAL_SPI_MspInit+0x128>)
 800082c:	6b1b      	ldr	r3, [r3, #48]	; 0x30
 800082e:	4a18      	ldr	r2, [pc, #96]	; (8000890 <HAL_SPI_MspInit+0x128>)
 8000830:	f043 0302 	orr.w	r3, r3, #2
 8000834:	6313      	str	r3, [r2, #48]	; 0x30
 8000836:	4b16      	ldr	r3, [pc, #88]	; (8000890 <HAL_SPI_MspInit+0x128>)
 8000838:	6b1b      	ldr	r3, [r3, #48]	; 0x30
 800083a:	f003 0302 	and.w	r3, r3, #2
 800083e:	60bb      	str	r3, [r7, #8]
 8000840:	68bb      	ldr	r3, [r7, #8]
    GPIO_InitStruct.Pin = GPIO_PIN_3;
 8000842:	2308      	movs	r3, #8
 8000844:	61fb      	str	r3, [r7, #28]
    GPIO_InitStruct.Mode = GPIO_MODE_AF_PP;
 8000846:	2302      	movs	r3, #2
 8000848:	623b      	str	r3, [r7, #32]
    GPIO_InitStruct.Pull = GPIO_NOPULL;
 800084a:	2300      	movs	r3, #0
 800084c:	627b      	str	r3, [r7, #36]	; 0x24
    GPIO_InitStruct.Speed = GPIO_SPEED_FREQ_VERY_HIGH;
 800084e:	2303      	movs	r3, #3
 8000850:	62bb      	str	r3, [r7, #40]	; 0x28
    GPIO_InitStruct.Alternate = GPIO_AF5_SPI2;
 8000852:	2305      	movs	r3, #5
 8000854:	62fb      	str	r3, [r7, #44]	; 0x2c
    HAL_GPIO_Init(GPIOC, &GPIO_InitStruct);
 8000856:	f107 031c 	add.w	r3, r7, #28
 800085a:	4619      	mov	r1, r3
 800085c:	480f      	ldr	r0, [pc, #60]	; (800089c <HAL_SPI_MspInit+0x134>)
 800085e:	f000 f9df 	bl	8000c20 <HAL_GPIO_Init>
    GPIO_InitStruct.Pin = GPIO_PIN_10;
 8000862:	f44f 6380 	mov.w	r3, #1024	; 0x400
 8000866:	61fb      	str	r3, [r7, #28]
    GPIO_InitStruct.Mode = GPIO_MODE_AF_PP;
 8000868:	2302      	movs	r3, #2
 800086a:	623b      	str	r3, [r7, #32]
    GPIO_InitStruct.Pull = GPIO_NOPULL;
 800086c:	2300      	movs	r3, #0
 800086e:	627b      	str	r3, [r7, #36]	; 0x24
    GPIO_InitStruct.Speed = GPIO_SPEED_FREQ_VERY_HIGH;
 8000870:	2303      	movs	r3, #3
 8000872:	62bb      	str	r3, [r7, #40]	; 0x28
    GPIO_InitStruct.Alternate = GPIO_AF5_SPI2;
 8000874:	2305      	movs	r3, #5
 8000876:	62fb      	str	r3, [r7, #44]	; 0x2c
    HAL_GPIO_Init(GPIOB, &GPIO_InitStruct);
 8000878:	f107 031c 	add.w	r3, r7, #28
 800087c:	4619      	mov	r1, r3
 800087e:	4808      	ldr	r0, [pc, #32]	; (80008a0 <HAL_SPI_MspInit+0x138>)
 8000880:	f000 f9ce 	bl	8000c20 <HAL_GPIO_Init>
}
 8000884:	bf00      	nop
 8000886:	3730      	adds	r7, #48	; 0x30
 8000888:	46bd      	mov	sp, r7
 800088a:	bd80      	pop	{r7, pc}
 800088c:	40013000 	.word	0x40013000
 8000890:	40023800 	.word	0x40023800
 8000894:	40020000 	.word	0x40020000
 8000898:	40003800 	.word	0x40003800
 800089c:	40020800 	.word	0x40020800
 80008a0:	40020400 	.word	0x40020400

080008a4 <NMI_Handler>:
/******************************************************************************/
/**
  * @brief This function handles Non maskable interrupt.
  */
void NMI_Handler(void)
{
 80008a4:	b480      	push	{r7}
 80008a6:	af00      	add	r7, sp, #0
  /* USER CODE BEGIN NonMaskableInt_IRQn 0 */

  /* USER CODE END NonMaskableInt_IRQn 0 */
  /* USER CODE BEGIN NonMaskableInt_IRQn 1 */
  while (1)
 80008a8:	e7fe      	b.n	80008a8 <NMI_Handler+0x4>

080008aa <HardFault_Handler>:

/**
  * @brief This function handles Hard fault interrupt.
  */
void HardFault_Handler(void)
{
 80008aa:	b480      	push	{r7}
 80008ac:	af00      	add	r7, sp, #0
  /* USER CODE BEGIN HardFault_IRQn 0 */

  /* USER CODE END HardFault_IRQn 0 */
  while (1)
 80008ae:	e7fe      	b.n	80008ae <HardFault_Handler+0x4>

080008b0 <MemManage_Handler>:

/**
  * @brief This function handles Memory management fault.
  */
void MemManage_Handler(void)
{
 80008b0:	b480      	push	{r7}
 80008b2:	af00      	add	r7, sp, #0
  /* USER CODE BEGIN MemoryManagement_IRQn 0 */

  /* USER CODE END MemoryManagement_IRQn 0 */
  while (1)
 80008b4:	e7fe      	b.n	80008b4 <MemManage_Handler+0x4>

080008b6 <BusFault_Handler>:

/**
  * @brief This function handles Pre-fetch fault, memory access fault.
  */
void BusFault_Handler(void)
{
 80008b6:	b480      	push	{r7}
 80008b8:	af00      	add	r7, sp, #0
  /* USER CODE BEGIN BusFault_IRQn 0 */

  /* USER CODE END BusFault_IRQn 0 */
  while (1)
 80008ba:	e7fe      	b.n	80008ba <BusFault_Handler+0x4>

080008bc <UsageFault_Handler>:

/**
  * @brief This function handles Undefined instruction or illegal state.
  */
void UsageFault_Handler(void)
{
 80008bc:	b480      	push	{r7}
 80008be:	af00      	add	r7, sp, #0
  /* USER CODE BEGIN UsageFault_IRQn 0 */

  /* USER CODE END UsageFault_IRQn 0 */
  while (1)
 80008c0:	e7fe      	b.n	80008c0 <UsageFault_Handler+0x4>

080008c2 <SVC_Handler>:

/**
  * @brief This function handles System service call via SWI instruction.
  */
void SVC_Handler(void)
{
 80008c2:	b480      	push	{r7}
 80008c4:	af00      	add	r7, sp, #0

  /* USER CODE END SVCall_IRQn 0 */
  /* USER CODE BEGIN SVCall_IRQn 1 */

  /* USER CODE END SVCall_IRQn 1 */
}
 80008c6:	bf00      	nop
 80008c8:	46bd      	mov	sp, r7
 80008ca:	f85d 7b04 	ldr.w	r7, [sp], #4
 80008ce:	4770      	bx	lr

080008d0 <DebugMon_Handler>:

/**
  * @brief This function handles Debug monitor.
  */
void DebugMon_Handler(void)
{
 80008d0:	b480      	push	{r7}
 80008d2:	af00      	add	r7, sp, #0

  /* USER CODE END DebugMonitor_IRQn 0 */
  /* USER CODE BEGIN DebugMonitor_IRQn 1 */

  /* USER CODE END DebugMonitor_IRQn 1 */
}
 80008d4:	bf00      	nop
 80008d6:	46bd      	mov	sp, r7
 80008d8:	f85d 7b04 	ldr.w	r7, [sp], #4
 80008dc:	4770      	bx	lr

080008de <PendSV_Handler>:

/**
  * @brief This function handles Pendable request for system service.
  */
void PendSV_Handler(void)
{
 80008de:	b480      	push	{r7}
 80008e0:	af00      	add	r7, sp, #0

  /* USER CODE END PendSV_IRQn 0 */
  /* USER CODE BEGIN PendSV_IRQn 1 */

  /* USER CODE END PendSV_IRQn 1 */
}
 80008e2:	bf00      	nop
 80008e4:	46bd      	mov	sp, r7
 80008e6:	f85d 7b04 	ldr.w	r7, [sp], #4
 80008ea:	4770      	bx	lr

080008ec <SysTick_Handler>:

/**
  * @brief This function handles System tick timer.
  */
void SysTick_Handler(void)
{
 80008ec:	b580      	push	{r7, lr}
 80008ee:	af00      	add	r7, sp, #0
  /* USER CODE BEGIN SysTick_IRQn 0 */

  /* USER CODE END SysTick_IRQn 0 */
  HAL_IncTick();
 80008f0:	f000 f890 	bl	8000a14 <HAL_IncTick>
  /* USER CODE BEGIN SysTick_IRQn 1 */

  /* USER CODE END SysTick_IRQn 1 */
}
 80008f4:	bf00      	nop
 80008f6:	bd80      	pop	{r7, pc}

080008f8 <SystemInit>:
  *         configuration.
  * @param  None
  * @retval None
  */
void SystemInit(void)
{
 80008f8:	b480      	push	{r7}
 80008fa:	af00      	add	r7, sp, #0
  /* FPU settings ------------------------------------------------------------*/
  #if (__FPU_PRESENT == 1) && (__FPU_USED == 1)
    SCB->CPACR |= ((3UL << 10*2)|(3UL << 11*2));  /* set CP10 and CP11 Full Access */
 80008fc:	4b06      	ldr	r3, [pc, #24]	; (8000918 <SystemInit+0x20>)
 80008fe:	f8d3 3088 	ldr.w	r3, [r3, #136]	; 0x88
 8000902:	4a05      	ldr	r2, [pc, #20]	; (8000918 <SystemInit+0x20>)
 8000904:	f443 0370 	orr.w	r3, r3, #15728640	; 0xf00000
 8000908:	f8c2 3088 	str.w	r3, [r2, #136]	; 0x88

  /* Configure the Vector Table location -------------------------------------*/
#if defined(USER_VECT_TAB_ADDRESS)
  SCB->VTOR = VECT_TAB_BASE_ADDRESS | VECT_TAB_OFFSET; /* Vector Table Relocation in Internal SRAM */
#endif /* USER_VECT_TAB_ADDRESS */
}
 800090c:	bf00      	nop
 800090e:	46bd      	mov	sp, r7
 8000910:	f85d 7b04 	ldr.w	r7, [sp], #4
 8000914:	4770      	bx	lr
 8000916:	bf00      	nop
 8000918:	e000ed00 	.word	0xe000ed00

0800091c <Reset_Handler>:

    .section  .text.Reset_Handler
  .weak  Reset_Handler
  .type  Reset_Handler, %function
Reset_Handler:  
  ldr   sp, =_estack     /* set stack pointer */
 800091c:	f8df d034 	ldr.w	sp, [pc, #52]	; 8000954 <LoopFillZerobss+0x12>

/* Copy the data segment initializers from flash to SRAM */  
  ldr r0, =_sdata
 8000920:	480d      	ldr	r0, [pc, #52]	; (8000958 <LoopFillZerobss+0x16>)
  ldr r1, =_edata
 8000922:	490e      	ldr	r1, [pc, #56]	; (800095c <LoopFillZerobss+0x1a>)
  ldr r2, =_sidata
 8000924:	4a0e      	ldr	r2, [pc, #56]	; (8000960 <LoopFillZerobss+0x1e>)
  movs r3, #0
 8000926:	2300      	movs	r3, #0
  b LoopCopyDataInit
 8000928:	e002      	b.n	8000930 <LoopCopyDataInit>

0800092a <CopyDataInit>:

CopyDataInit:
  ldr r4, [r2, r3]
 800092a:	58d4      	ldr	r4, [r2, r3]
  str r4, [r0, r3]
 800092c:	50c4      	str	r4, [r0, r3]
  adds r3, r3, #4
 800092e:	3304      	adds	r3, #4

08000930 <LoopCopyDataInit>:

LoopCopyDataInit:
  adds r4, r0, r3
 8000930:	18c4      	adds	r4, r0, r3
  cmp r4, r1
 8000932:	428c      	cmp	r4, r1
  bcc CopyDataInit
 8000934:	d3f9      	bcc.n	800092a <CopyDataInit>
  
/* Zero fill the bss segment. */
  ldr r2, =_sbss
 8000936:	4a0b      	ldr	r2, [pc, #44]	; (8000964 <LoopFillZerobss+0x22>)
  ldr r4, =_ebss
 8000938:	4c0b      	ldr	r4, [pc, #44]	; (8000968 <LoopFillZerobss+0x26>)
  movs r3, #0
 800093a:	2300      	movs	r3, #0
  b LoopFillZerobss
 800093c:	e001      	b.n	8000942 <LoopFillZerobss>

0800093e <FillZerobss>:

FillZerobss:
  str  r3, [r2]
 800093e:	6013      	str	r3, [r2, #0]
  adds r2, r2, #4
 8000940:	3204      	adds	r2, #4

08000942 <LoopFillZerobss>:

LoopFillZerobss:
  cmp r2, r4
 8000942:	42a2      	cmp	r2, r4
  bcc FillZerobss
 8000944:	d3fb      	bcc.n	800093e <FillZerobss>

/* Call the clock system intitialization function.*/
  bl  SystemInit   
 8000946:	f7ff ffd7 	bl	80008f8 <SystemInit>
/* Call static constructors */
    bl __libc_init_array
 800094a:	f001 fa3b 	bl	8001dc4 <__libc_init_array>
/* Call the application's entry point.*/
  bl  main
 800094e:	f7ff fdb7 	bl	80004c0 <main>
  bx  lr    
 8000952:	4770      	bx	lr
  ldr   sp, =_estack     /* set stack pointer */
 8000954:	20020000 	.word	0x20020000
  ldr r0, =_sdata
 8000958:	20000000 	.word	0x20000000
  ldr r1, =_edata
 800095c:	2000000c 	.word	0x2000000c
  ldr r2, =_sidata
 8000960:	08001e54 	.word	0x08001e54
  ldr r2, =_sbss
 8000964:	2000000c 	.word	0x2000000c
  ldr r4, =_ebss
 8000968:	200000dc 	.word	0x200000dc

0800096c <ADC_IRQHandler>:
 * @retval None       
*/
    .section  .text.Default_Handler,"ax",%progbits
Default_Handler:
Infinite_Loop:
  b  Infinite_Loop
 800096c:	e7fe      	b.n	800096c <ADC_IRQHandler>
	...

08000970 <HAL_Init>:
  *         need to ensure that the SysTick time base is always set to 1 millisecond
  *         to have correct HAL operation.
  * @retval HAL status
  */
HAL_StatusTypeDef HAL_Init(void)
{
 8000970:	b580      	push	{r7, lr}
 8000972:	af00      	add	r7, sp, #0
  /* Configure Flash prefetch, Instruction cache, Data cache */ 
#if (INSTRUCTION_CACHE_ENABLE != 0U)
  __HAL_FLASH_INSTRUCTION_CACHE_ENABLE();
 8000974:	4b0e      	ldr	r3, [pc, #56]	; (80009b0 <HAL_Init+0x40>)
 8000976:	681b      	ldr	r3, [r3, #0]
 8000978:	4a0d      	ldr	r2, [pc, #52]	; (80009b0 <HAL_Init+0x40>)
 800097a:	f443 7300 	orr.w	r3, r3, #512	; 0x200
 800097e:	6013      	str	r3, [r2, #0]
#endif /* INSTRUCTION_CACHE_ENABLE */

#if (DATA_CACHE_ENABLE != 0U)
  __HAL_FLASH_DATA_CACHE_ENABLE();
 8000980:	4b0b      	ldr	r3, [pc, #44]	; (80009b0 <HAL_Init+0x40>)
 8000982:	681b      	ldr	r3, [r3, #0]
 8000984:	4a0a      	ldr	r2, [pc, #40]	; (80009b0 <HAL_Init+0x40>)
 8000986:	f443 6380 	orr.w	r3, r3, #1024	; 0x400
 800098a:	6013      	str	r3, [r2, #0]
#endif /* DATA_CACHE_ENABLE */

#if (PREFETCH_ENABLE != 0U)
  __HAL_FLASH_PREFETCH_BUFFER_ENABLE();
 800098c:	4b08      	ldr	r3, [pc, #32]	; (80009b0 <HAL_Init+0x40>)
 800098e:	681b      	ldr	r3, [r3, #0]
 8000990:	4a07      	ldr	r2, [pc, #28]	; (80009b0 <HAL_Init+0x40>)
 8000992:	f443 7380 	orr.w	r3, r3, #256	; 0x100
 8000996:	6013      	str	r3, [r2, #0]
#endif /* PREFETCH_ENABLE */

  /* Set Interrupt Group Priority */
  HAL_NVIC_SetPriorityGrouping(NVIC_PRIORITYGROUP_4);
 8000998:	2003      	movs	r0, #3
 800099a:	f000 f90d 	bl	8000bb8 <HAL_NVIC_SetPriorityGrouping>

  /* Use systick as time base source and configure 1ms tick (default clock after Reset is HSI) */
  HAL_InitTick(TICK_INT_PRIORITY);
 800099e:	2000      	movs	r0, #0
 80009a0:	f000 f808 	bl	80009b4 <HAL_InitTick>

  /* Init the low level hardware */
  HAL_MspInit();
 80009a4:	f7ff feb8 	bl	8000718 <HAL_MspInit>

  /* Return function status */
  return HAL_OK;
 80009a8:	2300      	movs	r3, #0
}
 80009aa:	4618      	mov	r0, r3
 80009ac:	bd80      	pop	{r7, pc}
 80009ae:	bf00      	nop
 80009b0:	40023c00 	.word	0x40023c00

080009b4 <HAL_InitTick>:
  *       implementation  in user file.
  * @param TickPriority Tick interrupt priority.
  * @retval HAL status
  */
__weak HAL_StatusTypeDef HAL_InitTick(uint32_t TickPriority)
{
 80009b4:	b580      	push	{r7, lr}
 80009b6:	b082      	sub	sp, #8
 80009b8:	af00      	add	r7, sp, #0
 80009ba:	6078      	str	r0, [r7, #4]
  /* Configure the SysTick to have interrupt in 1ms time basis*/
  if (HAL_SYSTICK_Config(SystemCoreClock / (1000U / uwTickFreq)) > 0U)
 80009bc:	4b12      	ldr	r3, [pc, #72]	; (8000a08 <HAL_InitTick+0x54>)
 80009be:	681a      	ldr	r2, [r3, #0]
 80009c0:	4b12      	ldr	r3, [pc, #72]	; (8000a0c <HAL_InitTick+0x58>)
 80009c2:	781b      	ldrb	r3, [r3, #0]
 80009c4:	4619      	mov	r1, r3
 80009c6:	f44f 737a 	mov.w	r3, #1000	; 0x3e8
 80009ca:	fbb3 f3f1 	udiv	r3, r3, r1
 80009ce:	fbb2 f3f3 	udiv	r3, r2, r3
 80009d2:	4618      	mov	r0, r3
 80009d4:	f000 f917 	bl	8000c06 <HAL_SYSTICK_Config>
 80009d8:	4603      	mov	r3, r0
 80009da:	2b00      	cmp	r3, #0
 80009dc:	d001      	beq.n	80009e2 <HAL_InitTick+0x2e>
  {
    return HAL_ERROR;
 80009de:	2301      	movs	r3, #1
 80009e0:	e00e      	b.n	8000a00 <HAL_InitTick+0x4c>
  }

  /* Configure the SysTick IRQ priority */
  if (TickPriority < (1UL << __NVIC_PRIO_BITS))
 80009e2:	687b      	ldr	r3, [r7, #4]
 80009e4:	2b0f      	cmp	r3, #15
 80009e6:	d80a      	bhi.n	80009fe <HAL_InitTick+0x4a>
  {
    HAL_NVIC_SetPriority(SysTick_IRQn, TickPriority, 0U);
 80009e8:	2200      	movs	r2, #0
 80009ea:	6879      	ldr	r1, [r7, #4]
 80009ec:	f04f 30ff 	mov.w	r0, #4294967295
 80009f0:	f000 f8ed 	bl	8000bce <HAL_NVIC_SetPriority>
    uwTickPrio = TickPriority;
 80009f4:	4a06      	ldr	r2, [pc, #24]	; (8000a10 <HAL_InitTick+0x5c>)
 80009f6:	687b      	ldr	r3, [r7, #4]
 80009f8:	6013      	str	r3, [r2, #0]
  {
    return HAL_ERROR;
  }

  /* Return function status */
  return HAL_OK;
 80009fa:	2300      	movs	r3, #0
 80009fc:	e000      	b.n	8000a00 <HAL_InitTick+0x4c>
    return HAL_ERROR;
 80009fe:	2301      	movs	r3, #1
}
 8000a00:	4618      	mov	r0, r3
 8000a02:	3708      	adds	r7, #8
 8000a04:	46bd      	mov	sp, r7
 8000a06:	bd80      	pop	{r7, pc}
 8000a08:	20000000 	.word	0x20000000
 8000a0c:	20000008 	.word	0x20000008
 8000a10:	20000004 	.word	0x20000004

08000a14 <HAL_IncTick>:
 * @note This function is declared as __weak to be overwritten in case of other 
  *      implementations in user file.
  * @retval None
  */
__weak void HAL_IncTick(void)
{
 8000a14:	b480      	push	{r7}
 8000a16:	af00      	add	r7, sp, #0
  uwTick += uwTickFreq;
 8000a18:	4b06      	ldr	r3, [pc, #24]	; (8000a34 <HAL_IncTick+0x20>)
 8000a1a:	781b      	ldrb	r3, [r3, #0]
 8000a1c:	461a      	mov	r2, r3
 8000a1e:	4b06      	ldr	r3, [pc, #24]	; (8000a38 <HAL_IncTick+0x24>)
 8000a20:	681b      	ldr	r3, [r3, #0]
 8000a22:	4413      	add	r3, r2
 8000a24:	4a04      	ldr	r2, [pc, #16]	; (8000a38 <HAL_IncTick+0x24>)
 8000a26:	6013      	str	r3, [r2, #0]
}
 8000a28:	bf00      	nop
 8000a2a:	46bd      	mov	sp, r7
 8000a2c:	f85d 7b04 	ldr.w	r7, [sp], #4
 8000a30:	4770      	bx	lr
 8000a32:	bf00      	nop
 8000a34:	20000008 	.word	0x20000008
 8000a38:	200000d8 	.word	0x200000d8

08000a3c <HAL_GetTick>:
  * @note This function is declared as __weak to be overwritten in case of other 
  *       implementations in user file.
  * @retval tick value
  */
__weak uint32_t HAL_GetTick(void)
{
 8000a3c:	b480      	push	{r7}
 8000a3e:	af00      	add	r7, sp, #0
  return uwTick;
 8000a40:	4b03      	ldr	r3, [pc, #12]	; (8000a50 <HAL_GetTick+0x14>)
 8000a42:	681b      	ldr	r3, [r3, #0]
}
 8000a44:	4618      	mov	r0, r3
 8000a46:	46bd      	mov	sp, r7
 8000a48:	f85d 7b04 	ldr.w	r7, [sp], #4
 8000a4c:	4770      	bx	lr
 8000a4e:	bf00      	nop
 8000a50:	200000d8 	.word	0x200000d8

08000a54 <__NVIC_SetPriorityGrouping>:
           In case of a conflict between priority grouping and available
           priority bits (__NVIC_PRIO_BITS), the smallest possible priority group is set.
  \param [in]      PriorityGroup  Priority grouping field.
 */
__STATIC_INLINE void __NVIC_SetPriorityGrouping(uint32_t PriorityGroup)
{
 8000a54:	b480      	push	{r7}
 8000a56:	b085      	sub	sp, #20
 8000a58:	af00      	add	r7, sp, #0
 8000a5a:	6078      	str	r0, [r7, #4]
  uint32_t reg_value;
  uint32_t PriorityGroupTmp = (PriorityGroup & (uint32_t)0x07UL);             /* only values 0..7 are used          */
 8000a5c:	687b      	ldr	r3, [r7, #4]
 8000a5e:	f003 0307 	and.w	r3, r3, #7
 8000a62:	60fb      	str	r3, [r7, #12]

  reg_value  =  SCB->AIRCR;                                                   /* read old register configuration    */
 8000a64:	4b0c      	ldr	r3, [pc, #48]	; (8000a98 <__NVIC_SetPriorityGrouping+0x44>)
 8000a66:	68db      	ldr	r3, [r3, #12]
 8000a68:	60bb      	str	r3, [r7, #8]
  reg_value &= ~((uint32_t)(SCB_AIRCR_VECTKEY_Msk | SCB_AIRCR_PRIGROUP_Msk)); /* clear bits to change               */
 8000a6a:	68ba      	ldr	r2, [r7, #8]
 8000a6c:	f64f 03ff 	movw	r3, #63743	; 0xf8ff
 8000a70:	4013      	ands	r3, r2
 8000a72:	60bb      	str	r3, [r7, #8]
  reg_value  =  (reg_value                                   |
                ((uint32_t)0x5FAUL << SCB_AIRCR_VECTKEY_Pos) |
                (PriorityGroupTmp << SCB_AIRCR_PRIGROUP_Pos)  );              /* Insert write key and priority group */
 8000a74:	68fb      	ldr	r3, [r7, #12]
 8000a76:	021a      	lsls	r2, r3, #8
                ((uint32_t)0x5FAUL << SCB_AIRCR_VECTKEY_Pos) |
 8000a78:	68bb      	ldr	r3, [r7, #8]
 8000a7a:	4313      	orrs	r3, r2
  reg_value  =  (reg_value                                   |
 8000a7c:	f043 63bf 	orr.w	r3, r3, #100139008	; 0x5f80000
 8000a80:	f443 3300 	orr.w	r3, r3, #131072	; 0x20000
 8000a84:	60bb      	str	r3, [r7, #8]
  SCB->AIRCR =  reg_value;
 8000a86:	4a04      	ldr	r2, [pc, #16]	; (8000a98 <__NVIC_SetPriorityGrouping+0x44>)
 8000a88:	68bb      	ldr	r3, [r7, #8]
 8000a8a:	60d3      	str	r3, [r2, #12]
}
 8000a8c:	bf00      	nop
 8000a8e:	3714      	adds	r7, #20
 8000a90:	46bd      	mov	sp, r7
 8000a92:	f85d 7b04 	ldr.w	r7, [sp], #4
 8000a96:	4770      	bx	lr
 8000a98:	e000ed00 	.word	0xe000ed00

08000a9c <__NVIC_GetPriorityGrouping>:
  \brief   Get Priority Grouping
  \details Reads the priority grouping field from the NVIC Interrupt Controller.
  \return                Priority grouping field (SCB->AIRCR [10:8] PRIGROUP field).
 */
__STATIC_INLINE uint32_t __NVIC_GetPriorityGrouping(void)
{
 8000a9c:	b480      	push	{r7}
 8000a9e:	af00      	add	r7, sp, #0
  return ((uint32_t)((SCB->AIRCR & SCB_AIRCR_PRIGROUP_Msk) >> SCB_AIRCR_PRIGROUP_Pos));
 8000aa0:	4b04      	ldr	r3, [pc, #16]	; (8000ab4 <__NVIC_GetPriorityGrouping+0x18>)
 8000aa2:	68db      	ldr	r3, [r3, #12]
 8000aa4:	0a1b      	lsrs	r3, r3, #8
 8000aa6:	f003 0307 	and.w	r3, r3, #7
}
 8000aaa:	4618      	mov	r0, r3
 8000aac:	46bd      	mov	sp, r7
 8000aae:	f85d 7b04 	ldr.w	r7, [sp], #4
 8000ab2:	4770      	bx	lr
 8000ab4:	e000ed00 	.word	0xe000ed00

08000ab8 <__NVIC_SetPriority>:
  \param [in]      IRQn  Interrupt number.
  \param [in]  priority  Priority to set.
  \note    The priority cannot be set for every processor exception.
 */
__STATIC_INLINE void __NVIC_SetPriority(IRQn_Type IRQn, uint32_t priority)
{
 8000ab8:	b480      	push	{r7}
 8000aba:	b083      	sub	sp, #12
 8000abc:	af00      	add	r7, sp, #0
 8000abe:	4603      	mov	r3, r0
 8000ac0:	6039      	str	r1, [r7, #0]
 8000ac2:	71fb      	strb	r3, [r7, #7]
  if ((int32_t)(IRQn) >= 0)
 8000ac4:	f997 3007 	ldrsb.w	r3, [r7, #7]
 8000ac8:	2b00      	cmp	r3, #0
 8000aca:	db0a      	blt.n	8000ae2 <__NVIC_SetPriority+0x2a>
  {
    NVIC->IP[((uint32_t)IRQn)]               = (uint8_t)((priority << (8U - __NVIC_PRIO_BITS)) & (uint32_t)0xFFUL);
 8000acc:	683b      	ldr	r3, [r7, #0]
 8000ace:	b2da      	uxtb	r2, r3
 8000ad0:	490c      	ldr	r1, [pc, #48]	; (8000b04 <__NVIC_SetPriority+0x4c>)
 8000ad2:	f997 3007 	ldrsb.w	r3, [r7, #7]
 8000ad6:	0112      	lsls	r2, r2, #4
 8000ad8:	b2d2      	uxtb	r2, r2
 8000ada:	440b      	add	r3, r1
 8000adc:	f883 2300 	strb.w	r2, [r3, #768]	; 0x300
  }
  else
  {
    SCB->SHP[(((uint32_t)IRQn) & 0xFUL)-4UL] = (uint8_t)((priority << (8U - __NVIC_PRIO_BITS)) & (uint32_t)0xFFUL);
  }
}
 8000ae0:	e00a      	b.n	8000af8 <__NVIC_SetPriority+0x40>
    SCB->SHP[(((uint32_t)IRQn) & 0xFUL)-4UL] = (uint8_t)((priority << (8U - __NVIC_PRIO_BITS)) & (uint32_t)0xFFUL);
 8000ae2:	683b      	ldr	r3, [r7, #0]
 8000ae4:	b2da      	uxtb	r2, r3
 8000ae6:	4908      	ldr	r1, [pc, #32]	; (8000b08 <__NVIC_SetPriority+0x50>)
 8000ae8:	79fb      	ldrb	r3, [r7, #7]
 8000aea:	f003 030f 	and.w	r3, r3, #15
 8000aee:	3b04      	subs	r3, #4
 8000af0:	0112      	lsls	r2, r2, #4
 8000af2:	b2d2      	uxtb	r2, r2
 8000af4:	440b      	add	r3, r1
 8000af6:	761a      	strb	r2, [r3, #24]
}
 8000af8:	bf00      	nop
 8000afa:	370c      	adds	r7, #12
 8000afc:	46bd      	mov	sp, r7
 8000afe:	f85d 7b04 	ldr.w	r7, [sp], #4
 8000b02:	4770      	bx	lr
 8000b04:	e000e100 	.word	0xe000e100
 8000b08:	e000ed00 	.word	0xe000ed00

08000b0c <NVIC_EncodePriority>:
  \param [in]   PreemptPriority  Preemptive priority value (starting from 0).
  \param [in]       SubPriority  Subpriority value (starting from 0).
  \return                        Encoded priority. Value can be used in the function \ref NVIC_SetPriority().
 */
__STATIC_INLINE uint32_t NVIC_EncodePriority (uint32_t PriorityGroup, uint32_t PreemptPriority, uint32_t SubPriority)
{
 8000b0c:	b480      	push	{r7}
 8000b0e:	b089      	sub	sp, #36	; 0x24
 8000b10:	af00      	add	r7, sp, #0
 8000b12:	60f8      	str	r0, [r7, #12]
 8000b14:	60b9      	str	r1, [r7, #8]
 8000b16:	607a      	str	r2, [r7, #4]
  uint32_t PriorityGroupTmp = (PriorityGroup & (uint32_t)0x07UL);   /* only values 0..7 are used          */
 8000b18:	68fb      	ldr	r3, [r7, #12]
 8000b1a:	f003 0307 	and.w	r3, r3, #7
 8000b1e:	61fb      	str	r3, [r7, #28]
  uint32_t PreemptPriorityBits;
  uint32_t SubPriorityBits;

  PreemptPriorityBits = ((7UL - PriorityGroupTmp) > (uint32_t)(__NVIC_PRIO_BITS)) ? (uint32_t)(__NVIC_PRIO_BITS) : (uint32_t)(7UL - PriorityGroupTmp);
 8000b20:	69fb      	ldr	r3, [r7, #28]
 8000b22:	f1c3 0307 	rsb	r3, r3, #7
 8000b26:	2b04      	cmp	r3, #4
 8000b28:	bf28      	it	cs
 8000b2a:	2304      	movcs	r3, #4
 8000b2c:	61bb      	str	r3, [r7, #24]
  SubPriorityBits     = ((PriorityGroupTmp + (uint32_t)(__NVIC_PRIO_BITS)) < (uint32_t)7UL) ? (uint32_t)0UL : (uint32_t)((PriorityGroupTmp - 7UL) + (uint32_t)(__NVIC_PRIO_BITS));
 8000b2e:	69fb      	ldr	r3, [r7, #28]
 8000b30:	3304      	adds	r3, #4
 8000b32:	2b06      	cmp	r3, #6
 8000b34:	d902      	bls.n	8000b3c <NVIC_EncodePriority+0x30>
 8000b36:	69fb      	ldr	r3, [r7, #28]
 8000b38:	3b03      	subs	r3, #3
 8000b3a:	e000      	b.n	8000b3e <NVIC_EncodePriority+0x32>
 8000b3c:	2300      	movs	r3, #0
 8000b3e:	617b      	str	r3, [r7, #20]

  return (
           ((PreemptPriority & (uint32_t)((1UL << (PreemptPriorityBits)) - 1UL)) << SubPriorityBits) |
 8000b40:	f04f 32ff 	mov.w	r2, #4294967295
 8000b44:	69bb      	ldr	r3, [r7, #24]
 8000b46:	fa02 f303 	lsl.w	r3, r2, r3
 8000b4a:	43da      	mvns	r2, r3
 8000b4c:	68bb      	ldr	r3, [r7, #8]
 8000b4e:	401a      	ands	r2, r3
 8000b50:	697b      	ldr	r3, [r7, #20]
 8000b52:	409a      	lsls	r2, r3
           ((SubPriority     & (uint32_t)((1UL << (SubPriorityBits    )) - 1UL)))
 8000b54:	f04f 31ff 	mov.w	r1, #4294967295
 8000b58:	697b      	ldr	r3, [r7, #20]
 8000b5a:	fa01 f303 	lsl.w	r3, r1, r3
 8000b5e:	43d9      	mvns	r1, r3
 8000b60:	687b      	ldr	r3, [r7, #4]
 8000b62:	400b      	ands	r3, r1
           ((PreemptPriority & (uint32_t)((1UL << (PreemptPriorityBits)) - 1UL)) << SubPriorityBits) |
 8000b64:	4313      	orrs	r3, r2
         );
}
 8000b66:	4618      	mov	r0, r3
 8000b68:	3724      	adds	r7, #36	; 0x24
 8000b6a:	46bd      	mov	sp, r7
 8000b6c:	f85d 7b04 	ldr.w	r7, [sp], #4
 8000b70:	4770      	bx	lr
	...

08000b74 <SysTick_Config>:
  \note    When the variable <b>__Vendor_SysTickConfig</b> is set to 1, then the
           function <b>SysTick_Config</b> is not included. In this case, the file <b><i>device</i>.h</b>
           must contain a vendor-specific implementation of this function.
 */
__STATIC_INLINE uint32_t SysTick_Config(uint32_t ticks)
{
 8000b74:	b580      	push	{r7, lr}
 8000b76:	b082      	sub	sp, #8
 8000b78:	af00      	add	r7, sp, #0
 8000b7a:	6078      	str	r0, [r7, #4]
  if ((ticks - 1UL) > SysTick_LOAD_RELOAD_Msk)
 8000b7c:	687b      	ldr	r3, [r7, #4]
 8000b7e:	3b01      	subs	r3, #1
 8000b80:	f1b3 7f80 	cmp.w	r3, #16777216	; 0x1000000
 8000b84:	d301      	bcc.n	8000b8a <SysTick_Config+0x16>
  {
    return (1UL);                                                   /* Reload value impossible */
 8000b86:	2301      	movs	r3, #1
 8000b88:	e00f      	b.n	8000baa <SysTick_Config+0x36>
  }

  SysTick->LOAD  = (uint32_t)(ticks - 1UL);                         /* set reload register */
 8000b8a:	4a0a      	ldr	r2, [pc, #40]	; (8000bb4 <SysTick_Config+0x40>)
 8000b8c:	687b      	ldr	r3, [r7, #4]
 8000b8e:	3b01      	subs	r3, #1
 8000b90:	6053      	str	r3, [r2, #4]
  NVIC_SetPriority (SysTick_IRQn, (1UL << __NVIC_PRIO_BITS) - 1UL); /* set Priority for Systick Interrupt */
 8000b92:	210f      	movs	r1, #15
 8000b94:	f04f 30ff 	mov.w	r0, #4294967295
 8000b98:	f7ff ff8e 	bl	8000ab8 <__NVIC_SetPriority>
  SysTick->VAL   = 0UL;                                             /* Load the SysTick Counter Value */
 8000b9c:	4b05      	ldr	r3, [pc, #20]	; (8000bb4 <SysTick_Config+0x40>)
 8000b9e:	2200      	movs	r2, #0
 8000ba0:	609a      	str	r2, [r3, #8]
  SysTick->CTRL  = SysTick_CTRL_CLKSOURCE_Msk |
 8000ba2:	4b04      	ldr	r3, [pc, #16]	; (8000bb4 <SysTick_Config+0x40>)
 8000ba4:	2207      	movs	r2, #7
 8000ba6:	601a      	str	r2, [r3, #0]
                   SysTick_CTRL_TICKINT_Msk   |
                   SysTick_CTRL_ENABLE_Msk;                         /* Enable SysTick IRQ and SysTick Timer */
  return (0UL);                                                     /* Function successful */
 8000ba8:	2300      	movs	r3, #0
}
 8000baa:	4618      	mov	r0, r3
 8000bac:	3708      	adds	r7, #8
 8000bae:	46bd      	mov	sp, r7
 8000bb0:	bd80      	pop	{r7, pc}
 8000bb2:	bf00      	nop
 8000bb4:	e000e010 	.word	0xe000e010

08000bb8 <HAL_NVIC_SetPriorityGrouping>:
  * @note   When the NVIC_PriorityGroup_0 is selected, IRQ preemption is no more possible. 
  *         The pending IRQ priority will be managed only by the subpriority. 
  * @retval None
  */
void HAL_NVIC_SetPriorityGrouping(uint32_t PriorityGroup)
{
 8000bb8:	b580      	push	{r7, lr}
 8000bba:	b082      	sub	sp, #8
 8000bbc:	af00      	add	r7, sp, #0
 8000bbe:	6078      	str	r0, [r7, #4]
  /* Check the parameters */
  assert_param(IS_NVIC_PRIORITY_GROUP(PriorityGroup));
  
  /* Set the PRIGROUP[10:8] bits according to the PriorityGroup parameter value */
  NVIC_SetPriorityGrouping(PriorityGroup);
 8000bc0:	6878      	ldr	r0, [r7, #4]
 8000bc2:	f7ff ff47 	bl	8000a54 <__NVIC_SetPriorityGrouping>
}
 8000bc6:	bf00      	nop
 8000bc8:	3708      	adds	r7, #8
 8000bca:	46bd      	mov	sp, r7
 8000bcc:	bd80      	pop	{r7, pc}

08000bce <HAL_NVIC_SetPriority>:
  *         This parameter can be a value between 0 and 15
  *         A lower priority value indicates a higher priority.          
  * @retval None
  */
void HAL_NVIC_SetPriority(IRQn_Type IRQn, uint32_t PreemptPriority, uint32_t SubPriority)
{ 
 8000bce:	b580      	push	{r7, lr}
 8000bd0:	b086      	sub	sp, #24
 8000bd2:	af00      	add	r7, sp, #0
 8000bd4:	4603      	mov	r3, r0
 8000bd6:	60b9      	str	r1, [r7, #8]
 8000bd8:	607a      	str	r2, [r7, #4]
 8000bda:	73fb      	strb	r3, [r7, #15]
  uint32_t prioritygroup = 0x00U;
 8000bdc:	2300      	movs	r3, #0
 8000bde:	617b      	str	r3, [r7, #20]
  
  /* Check the parameters */
  assert_param(IS_NVIC_SUB_PRIORITY(SubPriority));
  assert_param(IS_NVIC_PREEMPTION_PRIORITY(PreemptPriority));
  
  prioritygroup = NVIC_GetPriorityGrouping();
 8000be0:	f7ff ff5c 	bl	8000a9c <__NVIC_GetPriorityGrouping>
 8000be4:	6178      	str	r0, [r7, #20]
  
  NVIC_SetPriority(IRQn, NVIC_EncodePriority(prioritygroup, PreemptPriority, SubPriority));
 8000be6:	687a      	ldr	r2, [r7, #4]
 8000be8:	68b9      	ldr	r1, [r7, #8]
 8000bea:	6978      	ldr	r0, [r7, #20]
 8000bec:	f7ff ff8e 	bl	8000b0c <NVIC_EncodePriority>
 8000bf0:	4602      	mov	r2, r0
 8000bf2:	f997 300f 	ldrsb.w	r3, [r7, #15]
 8000bf6:	4611      	mov	r1, r2
 8000bf8:	4618      	mov	r0, r3
 8000bfa:	f7ff ff5d 	bl	8000ab8 <__NVIC_SetPriority>
}
 8000bfe:	bf00      	nop
 8000c00:	3718      	adds	r7, #24
 8000c02:	46bd      	mov	sp, r7
 8000c04:	bd80      	pop	{r7, pc}

08000c06 <HAL_SYSTICK_Config>:
  * @param  TicksNumb Specifies the ticks Number of ticks between two interrupts.
  * @retval status:  - 0  Function succeeded.
  *                  - 1  Function failed.
  */
uint32_t HAL_SYSTICK_Config(uint32_t TicksNumb)
{
 8000c06:	b580      	push	{r7, lr}
 8000c08:	b082      	sub	sp, #8
 8000c0a:	af00      	add	r7, sp, #0
 8000c0c:	6078      	str	r0, [r7, #4]
   return SysTick_Config(TicksNumb);
 8000c0e:	6878      	ldr	r0, [r7, #4]
 8000c10:	f7ff ffb0 	bl	8000b74 <SysTick_Config>
 8000c14:	4603      	mov	r3, r0
}
 8000c16:	4618      	mov	r0, r3
 8000c18:	3708      	adds	r7, #8
 8000c1a:	46bd      	mov	sp, r7
 8000c1c:	bd80      	pop	{r7, pc}
	...

08000c20 <HAL_GPIO_Init>:
  * @param  GPIO_Init pointer to a GPIO_InitTypeDef structure that contains
  *         the configuration information for the specified GPIO peripheral.
  * @retval None
  */
void HAL_GPIO_Init(GPIO_TypeDef  *GPIOx, GPIO_InitTypeDef *GPIO_Init)
{
 8000c20:	b480      	push	{r7}
 8000c22:	b089      	sub	sp, #36	; 0x24
 8000c24:	af00      	add	r7, sp, #0
 8000c26:	6078      	str	r0, [r7, #4]
 8000c28:	6039      	str	r1, [r7, #0]
  uint32_t position;
  uint32_t ioposition = 0x00U;
 8000c2a:	2300      	movs	r3, #0
 8000c2c:	617b      	str	r3, [r7, #20]
  uint32_t iocurrent = 0x00U;
 8000c2e:	2300      	movs	r3, #0
 8000c30:	613b      	str	r3, [r7, #16]
  uint32_t temp = 0x00U;
 8000c32:	2300      	movs	r3, #0
 8000c34:	61bb      	str	r3, [r7, #24]
  assert_param(IS_GPIO_ALL_INSTANCE(GPIOx));
  assert_param(IS_GPIO_PIN(GPIO_Init->Pin));
  assert_param(IS_GPIO_MODE(GPIO_Init->Mode));

  /* Configure the port pins */
  for(position = 0U; position < GPIO_NUMBER; position++)
 8000c36:	2300      	movs	r3, #0
 8000c38:	61fb      	str	r3, [r7, #28]
 8000c3a:	e16b      	b.n	8000f14 <HAL_GPIO_Init+0x2f4>
  {
    /* Get the IO position */
    ioposition = 0x01U << position;
 8000c3c:	2201      	movs	r2, #1
 8000c3e:	69fb      	ldr	r3, [r7, #28]
 8000c40:	fa02 f303 	lsl.w	r3, r2, r3
 8000c44:	617b      	str	r3, [r7, #20]
    /* Get the current IO position */
    iocurrent = (uint32_t)(GPIO_Init->Pin) & ioposition;
 8000c46:	683b      	ldr	r3, [r7, #0]
 8000c48:	681b      	ldr	r3, [r3, #0]
 8000c4a:	697a      	ldr	r2, [r7, #20]
 8000c4c:	4013      	ands	r3, r2
 8000c4e:	613b      	str	r3, [r7, #16]

    if(iocurrent == ioposition)
 8000c50:	693a      	ldr	r2, [r7, #16]
 8000c52:	697b      	ldr	r3, [r7, #20]
 8000c54:	429a      	cmp	r2, r3
 8000c56:	f040 815a 	bne.w	8000f0e <HAL_GPIO_Init+0x2ee>
    {
      /*--------------------- GPIO Mode Configuration ------------------------*/
      /* In case of Output or Alternate function mode selection */
      if(((GPIO_Init->Mode & GPIO_MODE) == MODE_OUTPUT) || \
 8000c5a:	683b      	ldr	r3, [r7, #0]
 8000c5c:	685b      	ldr	r3, [r3, #4]
 8000c5e:	f003 0303 	and.w	r3, r3, #3
 8000c62:	2b01      	cmp	r3, #1
 8000c64:	d005      	beq.n	8000c72 <HAL_GPIO_Init+0x52>
          (GPIO_Init->Mode & GPIO_MODE) == MODE_AF)
 8000c66:	683b      	ldr	r3, [r7, #0]
 8000c68:	685b      	ldr	r3, [r3, #4]
 8000c6a:	f003 0303 	and.w	r3, r3, #3
      if(((GPIO_Init->Mode & GPIO_MODE) == MODE_OUTPUT) || \
 8000c6e:	2b02      	cmp	r3, #2
 8000c70:	d130      	bne.n	8000cd4 <HAL_GPIO_Init+0xb4>
      {
        /* Check the Speed parameter */
        assert_param(IS_GPIO_SPEED(GPIO_Init->Speed));
        /* Configure the IO Speed */
        temp = GPIOx->OSPEEDR; 
 8000c72:	687b      	ldr	r3, [r7, #4]
 8000c74:	689b      	ldr	r3, [r3, #8]
 8000c76:	61bb      	str	r3, [r7, #24]
        temp &= ~(GPIO_OSPEEDER_OSPEEDR0 << (position * 2U));
 8000c78:	69fb      	ldr	r3, [r7, #28]
 8000c7a:	005b      	lsls	r3, r3, #1
 8000c7c:	2203      	movs	r2, #3
 8000c7e:	fa02 f303 	lsl.w	r3, r2, r3
 8000c82:	43db      	mvns	r3, r3
 8000c84:	69ba      	ldr	r2, [r7, #24]
 8000c86:	4013      	ands	r3, r2
 8000c88:	61bb      	str	r3, [r7, #24]
        temp |= (GPIO_Init->Speed << (position * 2U));
 8000c8a:	683b      	ldr	r3, [r7, #0]
 8000c8c:	68da      	ldr	r2, [r3, #12]
 8000c8e:	69fb      	ldr	r3, [r7, #28]
 8000c90:	005b      	lsls	r3, r3, #1
 8000c92:	fa02 f303 	lsl.w	r3, r2, r3
 8000c96:	69ba      	ldr	r2, [r7, #24]
 8000c98:	4313      	orrs	r3, r2
 8000c9a:	61bb      	str	r3, [r7, #24]
        GPIOx->OSPEEDR = temp;
 8000c9c:	687b      	ldr	r3, [r7, #4]
 8000c9e:	69ba      	ldr	r2, [r7, #24]
 8000ca0:	609a      	str	r2, [r3, #8]

        /* Configure the IO Output Type */
        temp = GPIOx->OTYPER;
 8000ca2:	687b      	ldr	r3, [r7, #4]
 8000ca4:	685b      	ldr	r3, [r3, #4]
 8000ca6:	61bb      	str	r3, [r7, #24]
        temp &= ~(GPIO_OTYPER_OT_0 << position) ;
 8000ca8:	2201      	movs	r2, #1
 8000caa:	69fb      	ldr	r3, [r7, #28]
 8000cac:	fa02 f303 	lsl.w	r3, r2, r3
 8000cb0:	43db      	mvns	r3, r3
 8000cb2:	69ba      	ldr	r2, [r7, #24]
 8000cb4:	4013      	ands	r3, r2
 8000cb6:	61bb      	str	r3, [r7, #24]
        temp |= (((GPIO_Init->Mode & OUTPUT_TYPE) >> OUTPUT_TYPE_Pos) << position);
 8000cb8:	683b      	ldr	r3, [r7, #0]
 8000cba:	685b      	ldr	r3, [r3, #4]
 8000cbc:	091b      	lsrs	r3, r3, #4
 8000cbe:	f003 0201 	and.w	r2, r3, #1
 8000cc2:	69fb      	ldr	r3, [r7, #28]
 8000cc4:	fa02 f303 	lsl.w	r3, r2, r3
 8000cc8:	69ba      	ldr	r2, [r7, #24]
 8000cca:	4313      	orrs	r3, r2
 8000ccc:	61bb      	str	r3, [r7, #24]
        GPIOx->OTYPER = temp;
 8000cce:	687b      	ldr	r3, [r7, #4]
 8000cd0:	69ba      	ldr	r2, [r7, #24]
 8000cd2:	605a      	str	r2, [r3, #4]
       }

      if((GPIO_Init->Mode & GPIO_MODE) != MODE_ANALOG)
 8000cd4:	683b      	ldr	r3, [r7, #0]
 8000cd6:	685b      	ldr	r3, [r3, #4]
 8000cd8:	f003 0303 	and.w	r3, r3, #3
 8000cdc:	2b03      	cmp	r3, #3
 8000cde:	d017      	beq.n	8000d10 <HAL_GPIO_Init+0xf0>
      {
        /* Check the parameters */
        assert_param(IS_GPIO_PULL(GPIO_Init->Pull));
        
        /* Activate the Pull-up or Pull down resistor for the current IO */
        temp = GPIOx->PUPDR;
 8000ce0:	687b      	ldr	r3, [r7, #4]
 8000ce2:	68db      	ldr	r3, [r3, #12]
 8000ce4:	61bb      	str	r3, [r7, #24]
        temp &= ~(GPIO_PUPDR_PUPDR0 << (position * 2U));
 8000ce6:	69fb      	ldr	r3, [r7, #28]
 8000ce8:	005b      	lsls	r3, r3, #1
 8000cea:	2203      	movs	r2, #3
 8000cec:	fa02 f303 	lsl.w	r3, r2, r3
 8000cf0:	43db      	mvns	r3, r3
 8000cf2:	69ba      	ldr	r2, [r7, #24]
 8000cf4:	4013      	ands	r3, r2
 8000cf6:	61bb      	str	r3, [r7, #24]
        temp |= ((GPIO_Init->Pull) << (position * 2U));
 8000cf8:	683b      	ldr	r3, [r7, #0]
 8000cfa:	689a      	ldr	r2, [r3, #8]
 8000cfc:	69fb      	ldr	r3, [r7, #28]
 8000cfe:	005b      	lsls	r3, r3, #1
 8000d00:	fa02 f303 	lsl.w	r3, r2, r3
 8000d04:	69ba      	ldr	r2, [r7, #24]
 8000d06:	4313      	orrs	r3, r2
 8000d08:	61bb      	str	r3, [r7, #24]
        GPIOx->PUPDR = temp;
 8000d0a:	687b      	ldr	r3, [r7, #4]
 8000d0c:	69ba      	ldr	r2, [r7, #24]
 8000d0e:	60da      	str	r2, [r3, #12]
      }

      /* In case of Alternate function mode selection */
      if((GPIO_Init->Mode & GPIO_MODE) == MODE_AF)
 8000d10:	683b      	ldr	r3, [r7, #0]
 8000d12:	685b      	ldr	r3, [r3, #4]
 8000d14:	f003 0303 	and.w	r3, r3, #3
 8000d18:	2b02      	cmp	r3, #2
 8000d1a:	d123      	bne.n	8000d64 <HAL_GPIO_Init+0x144>
      {
        /* Check the Alternate function parameter */
        assert_param(IS_GPIO_AF(GPIO_Init->Alternate));
        /* Configure Alternate function mapped with the current IO */
        temp = GPIOx->AFR[position >> 3U];
 8000d1c:	69fb      	ldr	r3, [r7, #28]
 8000d1e:	08da      	lsrs	r2, r3, #3
 8000d20:	687b      	ldr	r3, [r7, #4]
 8000d22:	3208      	adds	r2, #8
 8000d24:	f853 3022 	ldr.w	r3, [r3, r2, lsl #2]
 8000d28:	61bb      	str	r3, [r7, #24]
        temp &= ~(0xFU << ((uint32_t)(position & 0x07U) * 4U)) ;
 8000d2a:	69fb      	ldr	r3, [r7, #28]
 8000d2c:	f003 0307 	and.w	r3, r3, #7
 8000d30:	009b      	lsls	r3, r3, #2
 8000d32:	220f      	movs	r2, #15
 8000d34:	fa02 f303 	lsl.w	r3, r2, r3
 8000d38:	43db      	mvns	r3, r3
 8000d3a:	69ba      	ldr	r2, [r7, #24]
 8000d3c:	4013      	ands	r3, r2
 8000d3e:	61bb      	str	r3, [r7, #24]
        temp |= ((uint32_t)(GPIO_Init->Alternate) << (((uint32_t)position & 0x07U) * 4U));
 8000d40:	683b      	ldr	r3, [r7, #0]
 8000d42:	691a      	ldr	r2, [r3, #16]
 8000d44:	69fb      	ldr	r3, [r7, #28]
 8000d46:	f003 0307 	and.w	r3, r3, #7
 8000d4a:	009b      	lsls	r3, r3, #2
 8000d4c:	fa02 f303 	lsl.w	r3, r2, r3
 8000d50:	69ba      	ldr	r2, [r7, #24]
 8000d52:	4313      	orrs	r3, r2
 8000d54:	61bb      	str	r3, [r7, #24]
        GPIOx->AFR[position >> 3U] = temp;
 8000d56:	69fb      	ldr	r3, [r7, #28]
 8000d58:	08da      	lsrs	r2, r3, #3
 8000d5a:	687b      	ldr	r3, [r7, #4]
 8000d5c:	3208      	adds	r2, #8
 8000d5e:	69b9      	ldr	r1, [r7, #24]
 8000d60:	f843 1022 	str.w	r1, [r3, r2, lsl #2]
      }

      /* Configure IO Direction mode (Input, Output, Alternate or Analog) */
      temp = GPIOx->MODER;
 8000d64:	687b      	ldr	r3, [r7, #4]
 8000d66:	681b      	ldr	r3, [r3, #0]
 8000d68:	61bb      	str	r3, [r7, #24]
      temp &= ~(GPIO_MODER_MODER0 << (position * 2U));
 8000d6a:	69fb      	ldr	r3, [r7, #28]
 8000d6c:	005b      	lsls	r3, r3, #1
 8000d6e:	2203      	movs	r2, #3
 8000d70:	fa02 f303 	lsl.w	r3, r2, r3
 8000d74:	43db      	mvns	r3, r3
 8000d76:	69ba      	ldr	r2, [r7, #24]
 8000d78:	4013      	ands	r3, r2
 8000d7a:	61bb      	str	r3, [r7, #24]
      temp |= ((GPIO_Init->Mode & GPIO_MODE) << (position * 2U));
 8000d7c:	683b      	ldr	r3, [r7, #0]
 8000d7e:	685b      	ldr	r3, [r3, #4]
 8000d80:	f003 0203 	and.w	r2, r3, #3
 8000d84:	69fb      	ldr	r3, [r7, #28]
 8000d86:	005b      	lsls	r3, r3, #1
 8000d88:	fa02 f303 	lsl.w	r3, r2, r3
 8000d8c:	69ba      	ldr	r2, [r7, #24]
 8000d8e:	4313      	orrs	r3, r2
 8000d90:	61bb      	str	r3, [r7, #24]
      GPIOx->MODER = temp;
 8000d92:	687b      	ldr	r3, [r7, #4]
 8000d94:	69ba      	ldr	r2, [r7, #24]
 8000d96:	601a      	str	r2, [r3, #0]

      /*--------------------- EXTI Mode Configuration ------------------------*/
      /* Configure the External Interrupt or event for the current IO */
      if((GPIO_Init->Mode & EXTI_MODE) != 0x00U)
 8000d98:	683b      	ldr	r3, [r7, #0]
 8000d9a:	685b      	ldr	r3, [r3, #4]
 8000d9c:	f403 3340 	and.w	r3, r3, #196608	; 0x30000
 8000da0:	2b00      	cmp	r3, #0
 8000da2:	f000 80b4 	beq.w	8000f0e <HAL_GPIO_Init+0x2ee>
      {
        /* Enable SYSCFG Clock */
        __HAL_RCC_SYSCFG_CLK_ENABLE();
 8000da6:	2300      	movs	r3, #0
 8000da8:	60fb      	str	r3, [r7, #12]
 8000daa:	4b60      	ldr	r3, [pc, #384]	; (8000f2c <HAL_GPIO_Init+0x30c>)
 8000dac:	6c5b      	ldr	r3, [r3, #68]	; 0x44
 8000dae:	4a5f      	ldr	r2, [pc, #380]	; (8000f2c <HAL_GPIO_Init+0x30c>)
 8000db0:	f443 4380 	orr.w	r3, r3, #16384	; 0x4000
 8000db4:	6453      	str	r3, [r2, #68]	; 0x44
 8000db6:	4b5d      	ldr	r3, [pc, #372]	; (8000f2c <HAL_GPIO_Init+0x30c>)
 8000db8:	6c5b      	ldr	r3, [r3, #68]	; 0x44
 8000dba:	f403 4380 	and.w	r3, r3, #16384	; 0x4000
 8000dbe:	60fb      	str	r3, [r7, #12]
 8000dc0:	68fb      	ldr	r3, [r7, #12]

        temp = SYSCFG->EXTICR[position >> 2U];
 8000dc2:	4a5b      	ldr	r2, [pc, #364]	; (8000f30 <HAL_GPIO_Init+0x310>)
 8000dc4:	69fb      	ldr	r3, [r7, #28]
 8000dc6:	089b      	lsrs	r3, r3, #2
 8000dc8:	3302      	adds	r3, #2
 8000dca:	f852 3023 	ldr.w	r3, [r2, r3, lsl #2]
 8000dce:	61bb      	str	r3, [r7, #24]
        temp &= ~(0x0FU << (4U * (position & 0x03U)));
 8000dd0:	69fb      	ldr	r3, [r7, #28]
 8000dd2:	f003 0303 	and.w	r3, r3, #3
 8000dd6:	009b      	lsls	r3, r3, #2
 8000dd8:	220f      	movs	r2, #15
 8000dda:	fa02 f303 	lsl.w	r3, r2, r3
 8000dde:	43db      	mvns	r3, r3
 8000de0:	69ba      	ldr	r2, [r7, #24]
 8000de2:	4013      	ands	r3, r2
 8000de4:	61bb      	str	r3, [r7, #24]
        temp |= ((uint32_t)(GPIO_GET_INDEX(GPIOx)) << (4U * (position & 0x03U)));
 8000de6:	687b      	ldr	r3, [r7, #4]
 8000de8:	4a52      	ldr	r2, [pc, #328]	; (8000f34 <HAL_GPIO_Init+0x314>)
 8000dea:	4293      	cmp	r3, r2
 8000dec:	d02b      	beq.n	8000e46 <HAL_GPIO_Init+0x226>
 8000dee:	687b      	ldr	r3, [r7, #4]
 8000df0:	4a51      	ldr	r2, [pc, #324]	; (8000f38 <HAL_GPIO_Init+0x318>)
 8000df2:	4293      	cmp	r3, r2
 8000df4:	d025      	beq.n	8000e42 <HAL_GPIO_Init+0x222>
 8000df6:	687b      	ldr	r3, [r7, #4]
 8000df8:	4a50      	ldr	r2, [pc, #320]	; (8000f3c <HAL_GPIO_Init+0x31c>)
 8000dfa:	4293      	cmp	r3, r2
 8000dfc:	d01f      	beq.n	8000e3e <HAL_GPIO_Init+0x21e>
 8000dfe:	687b      	ldr	r3, [r7, #4]
 8000e00:	4a4f      	ldr	r2, [pc, #316]	; (8000f40 <HAL_GPIO_Init+0x320>)
 8000e02:	4293      	cmp	r3, r2
 8000e04:	d019      	beq.n	8000e3a <HAL_GPIO_Init+0x21a>
 8000e06:	687b      	ldr	r3, [r7, #4]
 8000e08:	4a4e      	ldr	r2, [pc, #312]	; (8000f44 <HAL_GPIO_Init+0x324>)
 8000e0a:	4293      	cmp	r3, r2
 8000e0c:	d013      	beq.n	8000e36 <HAL_GPIO_Init+0x216>
 8000e0e:	687b      	ldr	r3, [r7, #4]
 8000e10:	4a4d      	ldr	r2, [pc, #308]	; (8000f48 <HAL_GPIO_Init+0x328>)
 8000e12:	4293      	cmp	r3, r2
 8000e14:	d00d      	beq.n	8000e32 <HAL_GPIO_Init+0x212>
 8000e16:	687b      	ldr	r3, [r7, #4]
 8000e18:	4a4c      	ldr	r2, [pc, #304]	; (8000f4c <HAL_GPIO_Init+0x32c>)
 8000e1a:	4293      	cmp	r3, r2
 8000e1c:	d007      	beq.n	8000e2e <HAL_GPIO_Init+0x20e>
 8000e1e:	687b      	ldr	r3, [r7, #4]
 8000e20:	4a4b      	ldr	r2, [pc, #300]	; (8000f50 <HAL_GPIO_Init+0x330>)
 8000e22:	4293      	cmp	r3, r2
 8000e24:	d101      	bne.n	8000e2a <HAL_GPIO_Init+0x20a>
 8000e26:	2307      	movs	r3, #7
 8000e28:	e00e      	b.n	8000e48 <HAL_GPIO_Init+0x228>
 8000e2a:	2308      	movs	r3, #8
 8000e2c:	e00c      	b.n	8000e48 <HAL_GPIO_Init+0x228>
 8000e2e:	2306      	movs	r3, #6
 8000e30:	e00a      	b.n	8000e48 <HAL_GPIO_Init+0x228>
 8000e32:	2305      	movs	r3, #5
 8000e34:	e008      	b.n	8000e48 <HAL_GPIO_Init+0x228>
 8000e36:	2304      	movs	r3, #4
 8000e38:	e006      	b.n	8000e48 <HAL_GPIO_Init+0x228>
 8000e3a:	2303      	movs	r3, #3
 8000e3c:	e004      	b.n	8000e48 <HAL_GPIO_Init+0x228>
 8000e3e:	2302      	movs	r3, #2
 8000e40:	e002      	b.n	8000e48 <HAL_GPIO_Init+0x228>
 8000e42:	2301      	movs	r3, #1
 8000e44:	e000      	b.n	8000e48 <HAL_GPIO_Init+0x228>
 8000e46:	2300      	movs	r3, #0
 8000e48:	69fa      	ldr	r2, [r7, #28]
 8000e4a:	f002 0203 	and.w	r2, r2, #3
 8000e4e:	0092      	lsls	r2, r2, #2
 8000e50:	4093      	lsls	r3, r2
 8000e52:	69ba      	ldr	r2, [r7, #24]
 8000e54:	4313      	orrs	r3, r2
 8000e56:	61bb      	str	r3, [r7, #24]
        SYSCFG->EXTICR[position >> 2U] = temp;
 8000e58:	4935      	ldr	r1, [pc, #212]	; (8000f30 <HAL_GPIO_Init+0x310>)
 8000e5a:	69fb      	ldr	r3, [r7, #28]
 8000e5c:	089b      	lsrs	r3, r3, #2
 8000e5e:	3302      	adds	r3, #2
 8000e60:	69ba      	ldr	r2, [r7, #24]
 8000e62:	f841 2023 	str.w	r2, [r1, r3, lsl #2]

        /* Clear EXTI line configuration */
        temp = EXTI->IMR;
 8000e66:	4b3b      	ldr	r3, [pc, #236]	; (8000f54 <HAL_GPIO_Init+0x334>)
 8000e68:	681b      	ldr	r3, [r3, #0]
 8000e6a:	61bb      	str	r3, [r7, #24]
        temp &= ~((uint32_t)iocurrent);
 8000e6c:	693b      	ldr	r3, [r7, #16]
 8000e6e:	43db      	mvns	r3, r3
 8000e70:	69ba      	ldr	r2, [r7, #24]
 8000e72:	4013      	ands	r3, r2
 8000e74:	61bb      	str	r3, [r7, #24]
        if((GPIO_Init->Mode & EXTI_IT) != 0x00U)
 8000e76:	683b      	ldr	r3, [r7, #0]
 8000e78:	685b      	ldr	r3, [r3, #4]
 8000e7a:	f403 3380 	and.w	r3, r3, #65536	; 0x10000
 8000e7e:	2b00      	cmp	r3, #0
 8000e80:	d003      	beq.n	8000e8a <HAL_GPIO_Init+0x26a>
        {
          temp |= iocurrent;
 8000e82:	69ba      	ldr	r2, [r7, #24]
 8000e84:	693b      	ldr	r3, [r7, #16]
 8000e86:	4313      	orrs	r3, r2
 8000e88:	61bb      	str	r3, [r7, #24]
        }
        EXTI->IMR = temp;
 8000e8a:	4a32      	ldr	r2, [pc, #200]	; (8000f54 <HAL_GPIO_Init+0x334>)
 8000e8c:	69bb      	ldr	r3, [r7, #24]
 8000e8e:	6013      	str	r3, [r2, #0]

        temp = EXTI->EMR;
 8000e90:	4b30      	ldr	r3, [pc, #192]	; (8000f54 <HAL_GPIO_Init+0x334>)
 8000e92:	685b      	ldr	r3, [r3, #4]
 8000e94:	61bb      	str	r3, [r7, #24]
        temp &= ~((uint32_t)iocurrent);
 8000e96:	693b      	ldr	r3, [r7, #16]
 8000e98:	43db      	mvns	r3, r3
 8000e9a:	69ba      	ldr	r2, [r7, #24]
 8000e9c:	4013      	ands	r3, r2
 8000e9e:	61bb      	str	r3, [r7, #24]
        if((GPIO_Init->Mode & EXTI_EVT) != 0x00U)
 8000ea0:	683b      	ldr	r3, [r7, #0]
 8000ea2:	685b      	ldr	r3, [r3, #4]
 8000ea4:	f403 3300 	and.w	r3, r3, #131072	; 0x20000
 8000ea8:	2b00      	cmp	r3, #0
 8000eaa:	d003      	beq.n	8000eb4 <HAL_GPIO_Init+0x294>
        {
          temp |= iocurrent;
 8000eac:	69ba      	ldr	r2, [r7, #24]
 8000eae:	693b      	ldr	r3, [r7, #16]
 8000eb0:	4313      	orrs	r3, r2
 8000eb2:	61bb      	str	r3, [r7, #24]
        }
        EXTI->EMR = temp;
 8000eb4:	4a27      	ldr	r2, [pc, #156]	; (8000f54 <HAL_GPIO_Init+0x334>)
 8000eb6:	69bb      	ldr	r3, [r7, #24]
 8000eb8:	6053      	str	r3, [r2, #4]

        /* Clear Rising Falling edge configuration */
        temp = EXTI->RTSR;
 8000eba:	4b26      	ldr	r3, [pc, #152]	; (8000f54 <HAL_GPIO_Init+0x334>)
 8000ebc:	689b      	ldr	r3, [r3, #8]
 8000ebe:	61bb      	str	r3, [r7, #24]
        temp &= ~((uint32_t)iocurrent);
 8000ec0:	693b      	ldr	r3, [r7, #16]
 8000ec2:	43db      	mvns	r3, r3
 8000ec4:	69ba      	ldr	r2, [r7, #24]
 8000ec6:	4013      	ands	r3, r2
 8000ec8:	61bb      	str	r3, [r7, #24]
        if((GPIO_Init->Mode & TRIGGER_RISING) != 0x00U)
 8000eca:	683b      	ldr	r3, [r7, #0]
 8000ecc:	685b      	ldr	r3, [r3, #4]
 8000ece:	f403 1380 	and.w	r3, r3, #1048576	; 0x100000
 8000ed2:	2b00      	cmp	r3, #0
 8000ed4:	d003      	beq.n	8000ede <HAL_GPIO_Init+0x2be>
        {
          temp |= iocurrent;
 8000ed6:	69ba      	ldr	r2, [r7, #24]
 8000ed8:	693b      	ldr	r3, [r7, #16]
 8000eda:	4313      	orrs	r3, r2
 8000edc:	61bb      	str	r3, [r7, #24]
        }
        EXTI->RTSR = temp;
 8000ede:	4a1d      	ldr	r2, [pc, #116]	; (8000f54 <HAL_GPIO_Init+0x334>)
 8000ee0:	69bb      	ldr	r3, [r7, #24]
 8000ee2:	6093      	str	r3, [r2, #8]

        temp = EXTI->FTSR;
 8000ee4:	4b1b      	ldr	r3, [pc, #108]	; (8000f54 <HAL_GPIO_Init+0x334>)
 8000ee6:	68db      	ldr	r3, [r3, #12]
 8000ee8:	61bb      	str	r3, [r7, #24]
        temp &= ~((uint32_t)iocurrent);
 8000eea:	693b      	ldr	r3, [r7, #16]
 8000eec:	43db      	mvns	r3, r3
 8000eee:	69ba      	ldr	r2, [r7, #24]
 8000ef0:	4013      	ands	r3, r2
 8000ef2:	61bb      	str	r3, [r7, #24]
        if((GPIO_Init->Mode & TRIGGER_FALLING) != 0x00U)
 8000ef4:	683b      	ldr	r3, [r7, #0]
 8000ef6:	685b      	ldr	r3, [r3, #4]
 8000ef8:	f403 1300 	and.w	r3, r3, #2097152	; 0x200000
 8000efc:	2b00      	cmp	r3, #0
 8000efe:	d003      	beq.n	8000f08 <HAL_GPIO_Init+0x2e8>
        {
          temp |= iocurrent;
 8000f00:	69ba      	ldr	r2, [r7, #24]
 8000f02:	693b      	ldr	r3, [r7, #16]
 8000f04:	4313      	orrs	r3, r2
 8000f06:	61bb      	str	r3, [r7, #24]
        }
        EXTI->FTSR = temp;
 8000f08:	4a12      	ldr	r2, [pc, #72]	; (8000f54 <HAL_GPIO_Init+0x334>)
 8000f0a:	69bb      	ldr	r3, [r7, #24]
 8000f0c:	60d3      	str	r3, [r2, #12]
  for(position = 0U; position < GPIO_NUMBER; position++)
 8000f0e:	69fb      	ldr	r3, [r7, #28]
 8000f10:	3301      	adds	r3, #1
 8000f12:	61fb      	str	r3, [r7, #28]
 8000f14:	69fb      	ldr	r3, [r7, #28]
 8000f16:	2b0f      	cmp	r3, #15
 8000f18:	f67f ae90 	bls.w	8000c3c <HAL_GPIO_Init+0x1c>
      }
    }
  }
}
 8000f1c:	bf00      	nop
 8000f1e:	bf00      	nop
 8000f20:	3724      	adds	r7, #36	; 0x24
 8000f22:	46bd      	mov	sp, r7
 8000f24:	f85d 7b04 	ldr.w	r7, [sp], #4
 8000f28:	4770      	bx	lr
 8000f2a:	bf00      	nop
 8000f2c:	40023800 	.word	0x40023800
 8000f30:	40013800 	.word	0x40013800
 8000f34:	40020000 	.word	0x40020000
 8000f38:	40020400 	.word	0x40020400
 8000f3c:	40020800 	.word	0x40020800
 8000f40:	40020c00 	.word	0x40020c00
 8000f44:	40021000 	.word	0x40021000
 8000f48:	40021400 	.word	0x40021400
 8000f4c:	40021800 	.word	0x40021800
 8000f50:	40021c00 	.word	0x40021c00
 8000f54:	40013c00 	.word	0x40013c00

08000f58 <HAL_RCC_OscConfig>:
  *         supported by this API. User should request a transition to HSE Off
  *         first and then HSE On or HSE Bypass.
  * @retval HAL status
  */
__weak HAL_StatusTypeDef HAL_RCC_OscConfig(RCC_OscInitTypeDef  *RCC_OscInitStruct)
{
 8000f58:	b580      	push	{r7, lr}
 8000f5a:	b086      	sub	sp, #24
 8000f5c:	af00      	add	r7, sp, #0
 8000f5e:	6078      	str	r0, [r7, #4]
  uint32_t tickstart, pll_config;

  /* Check Null pointer */
  if(RCC_OscInitStruct == NULL)
 8000f60:	687b      	ldr	r3, [r7, #4]
 8000f62:	2b00      	cmp	r3, #0
 8000f64:	d101      	bne.n	8000f6a <HAL_RCC_OscConfig+0x12>
  {
    return HAL_ERROR;
 8000f66:	2301      	movs	r3, #1
 8000f68:	e264      	b.n	8001434 <HAL_RCC_OscConfig+0x4dc>
  }

  /* Check the parameters */
  assert_param(IS_RCC_OSCILLATORTYPE(RCC_OscInitStruct->OscillatorType));
  /*------------------------------- HSE Configuration ------------------------*/
  if(((RCC_OscInitStruct->OscillatorType) & RCC_OSCILLATORTYPE_HSE) == RCC_OSCILLATORTYPE_HSE)
 8000f6a:	687b      	ldr	r3, [r7, #4]
 8000f6c:	681b      	ldr	r3, [r3, #0]
 8000f6e:	f003 0301 	and.w	r3, r3, #1
 8000f72:	2b00      	cmp	r3, #0
 8000f74:	d075      	beq.n	8001062 <HAL_RCC_OscConfig+0x10a>
  {
    /* Check the parameters */
    assert_param(IS_RCC_HSE(RCC_OscInitStruct->HSEState));
    /* When the HSE is used as system clock or clock source for PLL in these cases HSE will not disabled */
    if((__HAL_RCC_GET_SYSCLK_SOURCE() == RCC_CFGR_SWS_HSE) ||\
 8000f76:	4ba3      	ldr	r3, [pc, #652]	; (8001204 <HAL_RCC_OscConfig+0x2ac>)
 8000f78:	689b      	ldr	r3, [r3, #8]
 8000f7a:	f003 030c 	and.w	r3, r3, #12
 8000f7e:	2b04      	cmp	r3, #4
 8000f80:	d00c      	beq.n	8000f9c <HAL_RCC_OscConfig+0x44>
      ((__HAL_RCC_GET_SYSCLK_SOURCE() == RCC_CFGR_SWS_PLL) && ((RCC->PLLCFGR & RCC_PLLCFGR_PLLSRC) == RCC_PLLCFGR_PLLSRC_HSE)))
 8000f82:	4ba0      	ldr	r3, [pc, #640]	; (8001204 <HAL_RCC_OscConfig+0x2ac>)
 8000f84:	689b      	ldr	r3, [r3, #8]
 8000f86:	f003 030c 	and.w	r3, r3, #12
    if((__HAL_RCC_GET_SYSCLK_SOURCE() == RCC_CFGR_SWS_HSE) ||\
 8000f8a:	2b08      	cmp	r3, #8
 8000f8c:	d112      	bne.n	8000fb4 <HAL_RCC_OscConfig+0x5c>
      ((__HAL_RCC_GET_SYSCLK_SOURCE() == RCC_CFGR_SWS_PLL) && ((RCC->PLLCFGR & RCC_PLLCFGR_PLLSRC) == RCC_PLLCFGR_PLLSRC_HSE)))
 8000f8e:	4b9d      	ldr	r3, [pc, #628]	; (8001204 <HAL_RCC_OscConfig+0x2ac>)
 8000f90:	685b      	ldr	r3, [r3, #4]
 8000f92:	f403 0380 	and.w	r3, r3, #4194304	; 0x400000
 8000f96:	f5b3 0f80 	cmp.w	r3, #4194304	; 0x400000
 8000f9a:	d10b      	bne.n	8000fb4 <HAL_RCC_OscConfig+0x5c>
    {
      if((__HAL_RCC_GET_FLAG(RCC_FLAG_HSERDY) != RESET) && (RCC_OscInitStruct->HSEState == RCC_HSE_OFF))
 8000f9c:	4b99      	ldr	r3, [pc, #612]	; (8001204 <HAL_RCC_OscConfig+0x2ac>)
 8000f9e:	681b      	ldr	r3, [r3, #0]
 8000fa0:	f403 3300 	and.w	r3, r3, #131072	; 0x20000
 8000fa4:	2b00      	cmp	r3, #0
 8000fa6:	d05b      	beq.n	8001060 <HAL_RCC_OscConfig+0x108>
 8000fa8:	687b      	ldr	r3, [r7, #4]
 8000faa:	685b      	ldr	r3, [r3, #4]
 8000fac:	2b00      	cmp	r3, #0
 8000fae:	d157      	bne.n	8001060 <HAL_RCC_OscConfig+0x108>
      {
        return HAL_ERROR;
 8000fb0:	2301      	movs	r3, #1
 8000fb2:	e23f      	b.n	8001434 <HAL_RCC_OscConfig+0x4dc>
      }
    }
    else
    {
      /* Set the new HSE configuration ---------------------------------------*/
      __HAL_RCC_HSE_CONFIG(RCC_OscInitStruct->HSEState);
 8000fb4:	687b      	ldr	r3, [r7, #4]
 8000fb6:	685b      	ldr	r3, [r3, #4]
 8000fb8:	f5b3 3f80 	cmp.w	r3, #65536	; 0x10000
 8000fbc:	d106      	bne.n	8000fcc <HAL_RCC_OscConfig+0x74>
 8000fbe:	4b91      	ldr	r3, [pc, #580]	; (8001204 <HAL_RCC_OscConfig+0x2ac>)
 8000fc0:	681b      	ldr	r3, [r3, #0]
 8000fc2:	4a90      	ldr	r2, [pc, #576]	; (8001204 <HAL_RCC_OscConfig+0x2ac>)
 8000fc4:	f443 3380 	orr.w	r3, r3, #65536	; 0x10000
 8000fc8:	6013      	str	r3, [r2, #0]
 8000fca:	e01d      	b.n	8001008 <HAL_RCC_OscConfig+0xb0>
 8000fcc:	687b      	ldr	r3, [r7, #4]
 8000fce:	685b      	ldr	r3, [r3, #4]
 8000fd0:	f5b3 2fa0 	cmp.w	r3, #327680	; 0x50000
 8000fd4:	d10c      	bne.n	8000ff0 <HAL_RCC_OscConfig+0x98>
 8000fd6:	4b8b      	ldr	r3, [pc, #556]	; (8001204 <HAL_RCC_OscConfig+0x2ac>)
 8000fd8:	681b      	ldr	r3, [r3, #0]
 8000fda:	4a8a      	ldr	r2, [pc, #552]	; (8001204 <HAL_RCC_OscConfig+0x2ac>)
 8000fdc:	f443 2380 	orr.w	r3, r3, #262144	; 0x40000
 8000fe0:	6013      	str	r3, [r2, #0]
 8000fe2:	4b88      	ldr	r3, [pc, #544]	; (8001204 <HAL_RCC_OscConfig+0x2ac>)
 8000fe4:	681b      	ldr	r3, [r3, #0]
 8000fe6:	4a87      	ldr	r2, [pc, #540]	; (8001204 <HAL_RCC_OscConfig+0x2ac>)
 8000fe8:	f443 3380 	orr.w	r3, r3, #65536	; 0x10000
 8000fec:	6013      	str	r3, [r2, #0]
 8000fee:	e00b      	b.n	8001008 <HAL_RCC_OscConfig+0xb0>
 8000ff0:	4b84      	ldr	r3, [pc, #528]	; (8001204 <HAL_RCC_OscConfig+0x2ac>)
 8000ff2:	681b      	ldr	r3, [r3, #0]
 8000ff4:	4a83      	ldr	r2, [pc, #524]	; (8001204 <HAL_RCC_OscConfig+0x2ac>)
 8000ff6:	f423 3380 	bic.w	r3, r3, #65536	; 0x10000
 8000ffa:	6013      	str	r3, [r2, #0]
 8000ffc:	4b81      	ldr	r3, [pc, #516]	; (8001204 <HAL_RCC_OscConfig+0x2ac>)
 8000ffe:	681b      	ldr	r3, [r3, #0]
 8001000:	4a80      	ldr	r2, [pc, #512]	; (8001204 <HAL_RCC_OscConfig+0x2ac>)
 8001002:	f423 2380 	bic.w	r3, r3, #262144	; 0x40000
 8001006:	6013      	str	r3, [r2, #0]

      /* Check the HSE State */
      if((RCC_OscInitStruct->HSEState) != RCC_HSE_OFF)
 8001008:	687b      	ldr	r3, [r7, #4]
 800100a:	685b      	ldr	r3, [r3, #4]
 800100c:	2b00      	cmp	r3, #0
 800100e:	d013      	beq.n	8001038 <HAL_RCC_OscConfig+0xe0>
      {
        /* Get Start Tick */
        tickstart = HAL_GetTick();
 8001010:	f7ff fd14 	bl	8000a3c <HAL_GetTick>
 8001014:	6138      	str	r0, [r7, #16]

        /* Wait till HSE is ready */
        while(__HAL_RCC_GET_FLAG(RCC_FLAG_HSERDY) == RESET)
 8001016:	e008      	b.n	800102a <HAL_RCC_OscConfig+0xd2>
        {
          if((HAL_GetTick() - tickstart ) > HSE_TIMEOUT_VALUE)
 8001018:	f7ff fd10 	bl	8000a3c <HAL_GetTick>
 800101c:	4602      	mov	r2, r0
 800101e:	693b      	ldr	r3, [r7, #16]
 8001020:	1ad3      	subs	r3, r2, r3
 8001022:	2b64      	cmp	r3, #100	; 0x64
 8001024:	d901      	bls.n	800102a <HAL_RCC_OscConfig+0xd2>
          {
            return HAL_TIMEOUT;
 8001026:	2303      	movs	r3, #3
 8001028:	e204      	b.n	8001434 <HAL_RCC_OscConfig+0x4dc>
        while(__HAL_RCC_GET_FLAG(RCC_FLAG_HSERDY) == RESET)
 800102a:	4b76      	ldr	r3, [pc, #472]	; (8001204 <HAL_RCC_OscConfig+0x2ac>)
 800102c:	681b      	ldr	r3, [r3, #0]
 800102e:	f403 3300 	and.w	r3, r3, #131072	; 0x20000
 8001032:	2b00      	cmp	r3, #0
 8001034:	d0f0      	beq.n	8001018 <HAL_RCC_OscConfig+0xc0>
 8001036:	e014      	b.n	8001062 <HAL_RCC_OscConfig+0x10a>
        }
      }
      else
      {
        /* Get Start Tick */
        tickstart = HAL_GetTick();
 8001038:	f7ff fd00 	bl	8000a3c <HAL_GetTick>
 800103c:	6138      	str	r0, [r7, #16]

        /* Wait till HSE is bypassed or disabled */
        while(__HAL_RCC_GET_FLAG(RCC_FLAG_HSERDY) != RESET)
 800103e:	e008      	b.n	8001052 <HAL_RCC_OscConfig+0xfa>
        {
          if((HAL_GetTick() - tickstart ) > HSE_TIMEOUT_VALUE)
 8001040:	f7ff fcfc 	bl	8000a3c <HAL_GetTick>
 8001044:	4602      	mov	r2, r0
 8001046:	693b      	ldr	r3, [r7, #16]
 8001048:	1ad3      	subs	r3, r2, r3
 800104a:	2b64      	cmp	r3, #100	; 0x64
 800104c:	d901      	bls.n	8001052 <HAL_RCC_OscConfig+0xfa>
          {
            return HAL_TIMEOUT;
 800104e:	2303      	movs	r3, #3
 8001050:	e1f0      	b.n	8001434 <HAL_RCC_OscConfig+0x4dc>
        while(__HAL_RCC_GET_FLAG(RCC_FLAG_HSERDY) != RESET)
 8001052:	4b6c      	ldr	r3, [pc, #432]	; (8001204 <HAL_RCC_OscConfig+0x2ac>)
 8001054:	681b      	ldr	r3, [r3, #0]
 8001056:	f403 3300 	and.w	r3, r3, #131072	; 0x20000
 800105a:	2b00      	cmp	r3, #0
 800105c:	d1f0      	bne.n	8001040 <HAL_RCC_OscConfig+0xe8>
 800105e:	e000      	b.n	8001062 <HAL_RCC_OscConfig+0x10a>
      if((__HAL_RCC_GET_FLAG(RCC_FLAG_HSERDY) != RESET) && (RCC_OscInitStruct->HSEState == RCC_HSE_OFF))
 8001060:	bf00      	nop
        }
      }
    }
  }
  /*----------------------------- HSI Configuration --------------------------*/
  if(((RCC_OscInitStruct->OscillatorType) & RCC_OSCILLATORTYPE_HSI) == RCC_OSCILLATORTYPE_HSI)
 8001062:	687b      	ldr	r3, [r7, #4]
 8001064:	681b      	ldr	r3, [r3, #0]
 8001066:	f003 0302 	and.w	r3, r3, #2
 800106a:	2b00      	cmp	r3, #0
 800106c:	d063      	beq.n	8001136 <HAL_RCC_OscConfig+0x1de>
    /* Check the parameters */
    assert_param(IS_RCC_HSI(RCC_OscInitStruct->HSIState));
    assert_param(IS_RCC_CALIBRATION_VALUE(RCC_OscInitStruct->HSICalibrationValue));

    /* Check if HSI is used as system clock or as PLL source when PLL is selected as system clock */
    if((__HAL_RCC_GET_SYSCLK_SOURCE() == RCC_CFGR_SWS_HSI) ||\
 800106e:	4b65      	ldr	r3, [pc, #404]	; (8001204 <HAL_RCC_OscConfig+0x2ac>)
 8001070:	689b      	ldr	r3, [r3, #8]
 8001072:	f003 030c 	and.w	r3, r3, #12
 8001076:	2b00      	cmp	r3, #0
 8001078:	d00b      	beq.n	8001092 <HAL_RCC_OscConfig+0x13a>
      ((__HAL_RCC_GET_SYSCLK_SOURCE() == RCC_CFGR_SWS_PLL) && ((RCC->PLLCFGR & RCC_PLLCFGR_PLLSRC) == RCC_PLLCFGR_PLLSRC_HSI)))
 800107a:	4b62      	ldr	r3, [pc, #392]	; (8001204 <HAL_RCC_OscConfig+0x2ac>)
 800107c:	689b      	ldr	r3, [r3, #8]
 800107e:	f003 030c 	and.w	r3, r3, #12
    if((__HAL_RCC_GET_SYSCLK_SOURCE() == RCC_CFGR_SWS_HSI) ||\
 8001082:	2b08      	cmp	r3, #8
 8001084:	d11c      	bne.n	80010c0 <HAL_RCC_OscConfig+0x168>
      ((__HAL_RCC_GET_SYSCLK_SOURCE() == RCC_CFGR_SWS_PLL) && ((RCC->PLLCFGR & RCC_PLLCFGR_PLLSRC) == RCC_PLLCFGR_PLLSRC_HSI)))
 8001086:	4b5f      	ldr	r3, [pc, #380]	; (8001204 <HAL_RCC_OscConfig+0x2ac>)
 8001088:	685b      	ldr	r3, [r3, #4]
 800108a:	f403 0380 	and.w	r3, r3, #4194304	; 0x400000
 800108e:	2b00      	cmp	r3, #0
 8001090:	d116      	bne.n	80010c0 <HAL_RCC_OscConfig+0x168>
    {
      /* When HSI is used as system clock it will not disabled */
      if((__HAL_RCC_GET_FLAG(RCC_FLAG_HSIRDY) != RESET) && (RCC_OscInitStruct->HSIState != RCC_HSI_ON))
 8001092:	4b5c      	ldr	r3, [pc, #368]	; (8001204 <HAL_RCC_OscConfig+0x2ac>)
 8001094:	681b      	ldr	r3, [r3, #0]
 8001096:	f003 0302 	and.w	r3, r3, #2
 800109a:	2b00      	cmp	r3, #0
 800109c:	d005      	beq.n	80010aa <HAL_RCC_OscConfig+0x152>
 800109e:	687b      	ldr	r3, [r7, #4]
 80010a0:	68db      	ldr	r3, [r3, #12]
 80010a2:	2b01      	cmp	r3, #1
 80010a4:	d001      	beq.n	80010aa <HAL_RCC_OscConfig+0x152>
      {
        return HAL_ERROR;
 80010a6:	2301      	movs	r3, #1
 80010a8:	e1c4      	b.n	8001434 <HAL_RCC_OscConfig+0x4dc>
      }
      /* Otherwise, just the calibration is allowed */
      else
      {
        /* Adjusts the Internal High Speed oscillator (HSI) calibration value.*/
        __HAL_RCC_HSI_CALIBRATIONVALUE_ADJUST(RCC_OscInitStruct->HSICalibrationValue);
 80010aa:	4b56      	ldr	r3, [pc, #344]	; (8001204 <HAL_RCC_OscConfig+0x2ac>)
 80010ac:	681b      	ldr	r3, [r3, #0]
 80010ae:	f023 02f8 	bic.w	r2, r3, #248	; 0xf8
 80010b2:	687b      	ldr	r3, [r7, #4]
 80010b4:	691b      	ldr	r3, [r3, #16]
 80010b6:	00db      	lsls	r3, r3, #3
 80010b8:	4952      	ldr	r1, [pc, #328]	; (8001204 <HAL_RCC_OscConfig+0x2ac>)
 80010ba:	4313      	orrs	r3, r2
 80010bc:	600b      	str	r3, [r1, #0]
      if((__HAL_RCC_GET_FLAG(RCC_FLAG_HSIRDY) != RESET) && (RCC_OscInitStruct->HSIState != RCC_HSI_ON))
 80010be:	e03a      	b.n	8001136 <HAL_RCC_OscConfig+0x1de>
      }
    }
    else
    {
      /* Check the HSI State */
      if((RCC_OscInitStruct->HSIState)!= RCC_HSI_OFF)
 80010c0:	687b      	ldr	r3, [r7, #4]
 80010c2:	68db      	ldr	r3, [r3, #12]
 80010c4:	2b00      	cmp	r3, #0
 80010c6:	d020      	beq.n	800110a <HAL_RCC_OscConfig+0x1b2>
      {
        /* Enable the Internal High Speed oscillator (HSI). */
        __HAL_RCC_HSI_ENABLE();
 80010c8:	4b4f      	ldr	r3, [pc, #316]	; (8001208 <HAL_RCC_OscConfig+0x2b0>)
 80010ca:	2201      	movs	r2, #1
 80010cc:	601a      	str	r2, [r3, #0]

        /* Get Start Tick*/
        tickstart = HAL_GetTick();
 80010ce:	f7ff fcb5 	bl	8000a3c <HAL_GetTick>
 80010d2:	6138      	str	r0, [r7, #16]

        /* Wait till HSI is ready */
        while(__HAL_RCC_GET_FLAG(RCC_FLAG_HSIRDY) == RESET)
 80010d4:	e008      	b.n	80010e8 <HAL_RCC_OscConfig+0x190>
        {
          if((HAL_GetTick() - tickstart ) > HSI_TIMEOUT_VALUE)
 80010d6:	f7ff fcb1 	bl	8000a3c <HAL_GetTick>
 80010da:	4602      	mov	r2, r0
 80010dc:	693b      	ldr	r3, [r7, #16]
 80010de:	1ad3      	subs	r3, r2, r3
 80010e0:	2b02      	cmp	r3, #2
 80010e2:	d901      	bls.n	80010e8 <HAL_RCC_OscConfig+0x190>
          {
            return HAL_TIMEOUT;
 80010e4:	2303      	movs	r3, #3
 80010e6:	e1a5      	b.n	8001434 <HAL_RCC_OscConfig+0x4dc>
        while(__HAL_RCC_GET_FLAG(RCC_FLAG_HSIRDY) == RESET)
 80010e8:	4b46      	ldr	r3, [pc, #280]	; (8001204 <HAL_RCC_OscConfig+0x2ac>)
 80010ea:	681b      	ldr	r3, [r3, #0]
 80010ec:	f003 0302 	and.w	r3, r3, #2
 80010f0:	2b00      	cmp	r3, #0
 80010f2:	d0f0      	beq.n	80010d6 <HAL_RCC_OscConfig+0x17e>
          }
        }

        /* Adjusts the Internal High Speed oscillator (HSI) calibration value. */
        __HAL_RCC_HSI_CALIBRATIONVALUE_ADJUST(RCC_OscInitStruct->HSICalibrationValue);
 80010f4:	4b43      	ldr	r3, [pc, #268]	; (8001204 <HAL_RCC_OscConfig+0x2ac>)
 80010f6:	681b      	ldr	r3, [r3, #0]
 80010f8:	f023 02f8 	bic.w	r2, r3, #248	; 0xf8
 80010fc:	687b      	ldr	r3, [r7, #4]
 80010fe:	691b      	ldr	r3, [r3, #16]
 8001100:	00db      	lsls	r3, r3, #3
 8001102:	4940      	ldr	r1, [pc, #256]	; (8001204 <HAL_RCC_OscConfig+0x2ac>)
 8001104:	4313      	orrs	r3, r2
 8001106:	600b      	str	r3, [r1, #0]
 8001108:	e015      	b.n	8001136 <HAL_RCC_OscConfig+0x1de>
      }
      else
      {
        /* Disable the Internal High Speed oscillator (HSI). */
        __HAL_RCC_HSI_DISABLE();
 800110a:	4b3f      	ldr	r3, [pc, #252]	; (8001208 <HAL_RCC_OscConfig+0x2b0>)
 800110c:	2200      	movs	r2, #0
 800110e:	601a      	str	r2, [r3, #0]

        /* Get Start Tick*/
        tickstart = HAL_GetTick();
 8001110:	f7ff fc94 	bl	8000a3c <HAL_GetTick>
 8001114:	6138      	str	r0, [r7, #16]

        /* Wait till HSI is ready */
        while(__HAL_RCC_GET_FLAG(RCC_FLAG_HSIRDY) != RESET)
 8001116:	e008      	b.n	800112a <HAL_RCC_OscConfig+0x1d2>
        {
          if((HAL_GetTick() - tickstart ) > HSI_TIMEOUT_VALUE)
 8001118:	f7ff fc90 	bl	8000a3c <HAL_GetTick>
 800111c:	4602      	mov	r2, r0
 800111e:	693b      	ldr	r3, [r7, #16]
 8001120:	1ad3      	subs	r3, r2, r3
 8001122:	2b02      	cmp	r3, #2
 8001124:	d901      	bls.n	800112a <HAL_RCC_OscConfig+0x1d2>
          {
            return HAL_TIMEOUT;
 8001126:	2303      	movs	r3, #3
 8001128:	e184      	b.n	8001434 <HAL_RCC_OscConfig+0x4dc>
        while(__HAL_RCC_GET_FLAG(RCC_FLAG_HSIRDY) != RESET)
 800112a:	4b36      	ldr	r3, [pc, #216]	; (8001204 <HAL_RCC_OscConfig+0x2ac>)
 800112c:	681b      	ldr	r3, [r3, #0]
 800112e:	f003 0302 	and.w	r3, r3, #2
 8001132:	2b00      	cmp	r3, #0
 8001134:	d1f0      	bne.n	8001118 <HAL_RCC_OscConfig+0x1c0>
        }
      }
    }
  }
  /*------------------------------ LSI Configuration -------------------------*/
  if(((RCC_OscInitStruct->OscillatorType) & RCC_OSCILLATORTYPE_LSI) == RCC_OSCILLATORTYPE_LSI)
 8001136:	687b      	ldr	r3, [r7, #4]
 8001138:	681b      	ldr	r3, [r3, #0]
 800113a:	f003 0308 	and.w	r3, r3, #8
 800113e:	2b00      	cmp	r3, #0
 8001140:	d030      	beq.n	80011a4 <HAL_RCC_OscConfig+0x24c>
  {
    /* Check the parameters */
    assert_param(IS_RCC_LSI(RCC_OscInitStruct->LSIState));

    /* Check the LSI State */
    if((RCC_OscInitStruct->LSIState)!= RCC_LSI_OFF)
 8001142:	687b      	ldr	r3, [r7, #4]
 8001144:	695b      	ldr	r3, [r3, #20]
 8001146:	2b00      	cmp	r3, #0
 8001148:	d016      	beq.n	8001178 <HAL_RCC_OscConfig+0x220>
    {
      /* Enable the Internal Low Speed oscillator (LSI). */
      __HAL_RCC_LSI_ENABLE();
 800114a:	4b30      	ldr	r3, [pc, #192]	; (800120c <HAL_RCC_OscConfig+0x2b4>)
 800114c:	2201      	movs	r2, #1
 800114e:	601a      	str	r2, [r3, #0]

      /* Get Start Tick*/
      tickstart = HAL_GetTick();
 8001150:	f7ff fc74 	bl	8000a3c <HAL_GetTick>
 8001154:	6138      	str	r0, [r7, #16]

      /* Wait till LSI is ready */
      while(__HAL_RCC_GET_FLAG(RCC_FLAG_LSIRDY) == RESET)
 8001156:	e008      	b.n	800116a <HAL_RCC_OscConfig+0x212>
      {
        if((HAL_GetTick() - tickstart ) > LSI_TIMEOUT_VALUE)
 8001158:	f7ff fc70 	bl	8000a3c <HAL_GetTick>
 800115c:	4602      	mov	r2, r0
 800115e:	693b      	ldr	r3, [r7, #16]
 8001160:	1ad3      	subs	r3, r2, r3
 8001162:	2b02      	cmp	r3, #2
 8001164:	d901      	bls.n	800116a <HAL_RCC_OscConfig+0x212>
        {
          return HAL_TIMEOUT;
 8001166:	2303      	movs	r3, #3
 8001168:	e164      	b.n	8001434 <HAL_RCC_OscConfig+0x4dc>
      while(__HAL_RCC_GET_FLAG(RCC_FLAG_LSIRDY) == RESET)
 800116a:	4b26      	ldr	r3, [pc, #152]	; (8001204 <HAL_RCC_OscConfig+0x2ac>)
 800116c:	6f5b      	ldr	r3, [r3, #116]	; 0x74
 800116e:	f003 0302 	and.w	r3, r3, #2
 8001172:	2b00      	cmp	r3, #0
 8001174:	d0f0      	beq.n	8001158 <HAL_RCC_OscConfig+0x200>
 8001176:	e015      	b.n	80011a4 <HAL_RCC_OscConfig+0x24c>
      }
    }
    else
    {
      /* Disable the Internal Low Speed oscillator (LSI). */
      __HAL_RCC_LSI_DISABLE();
 8001178:	4b24      	ldr	r3, [pc, #144]	; (800120c <HAL_RCC_OscConfig+0x2b4>)
 800117a:	2200      	movs	r2, #0
 800117c:	601a      	str	r2, [r3, #0]

      /* Get Start Tick */
      tickstart = HAL_GetTick();
 800117e:	f7ff fc5d 	bl	8000a3c <HAL_GetTick>
 8001182:	6138      	str	r0, [r7, #16]

      /* Wait till LSI is ready */
      while(__HAL_RCC_GET_FLAG(RCC_FLAG_LSIRDY) != RESET)
 8001184:	e008      	b.n	8001198 <HAL_RCC_OscConfig+0x240>
      {
        if((HAL_GetTick() - tickstart ) > LSI_TIMEOUT_VALUE)
 8001186:	f7ff fc59 	bl	8000a3c <HAL_GetTick>
 800118a:	4602      	mov	r2, r0
 800118c:	693b      	ldr	r3, [r7, #16]
 800118e:	1ad3      	subs	r3, r2, r3
 8001190:	2b02      	cmp	r3, #2
 8001192:	d901      	bls.n	8001198 <HAL_RCC_OscConfig+0x240>
        {
          return HAL_TIMEOUT;
 8001194:	2303      	movs	r3, #3
 8001196:	e14d      	b.n	8001434 <HAL_RCC_OscConfig+0x4dc>
      while(__HAL_RCC_GET_FLAG(RCC_FLAG_LSIRDY) != RESET)
 8001198:	4b1a      	ldr	r3, [pc, #104]	; (8001204 <HAL_RCC_OscConfig+0x2ac>)
 800119a:	6f5b      	ldr	r3, [r3, #116]	; 0x74
 800119c:	f003 0302 	and.w	r3, r3, #2
 80011a0:	2b00      	cmp	r3, #0
 80011a2:	d1f0      	bne.n	8001186 <HAL_RCC_OscConfig+0x22e>
        }
      }
    }
  }
  /*------------------------------ LSE Configuration -------------------------*/
  if(((RCC_OscInitStruct->OscillatorType) & RCC_OSCILLATORTYPE_LSE) == RCC_OSCILLATORTYPE_LSE)
 80011a4:	687b      	ldr	r3, [r7, #4]
 80011a6:	681b      	ldr	r3, [r3, #0]
 80011a8:	f003 0304 	and.w	r3, r3, #4
 80011ac:	2b00      	cmp	r3, #0
 80011ae:	f000 80a0 	beq.w	80012f2 <HAL_RCC_OscConfig+0x39a>
  {
    FlagStatus       pwrclkchanged = RESET;
 80011b2:	2300      	movs	r3, #0
 80011b4:	75fb      	strb	r3, [r7, #23]
    /* Check the parameters */
    assert_param(IS_RCC_LSE(RCC_OscInitStruct->LSEState));

    /* Update LSE configuration in Backup Domain control register    */
    /* Requires to enable write access to Backup Domain of necessary */
    if(__HAL_RCC_PWR_IS_CLK_DISABLED())
 80011b6:	4b13      	ldr	r3, [pc, #76]	; (8001204 <HAL_RCC_OscConfig+0x2ac>)
 80011b8:	6c1b      	ldr	r3, [r3, #64]	; 0x40
 80011ba:	f003 5380 	and.w	r3, r3, #268435456	; 0x10000000
 80011be:	2b00      	cmp	r3, #0
 80011c0:	d10f      	bne.n	80011e2 <HAL_RCC_OscConfig+0x28a>
    {
      __HAL_RCC_PWR_CLK_ENABLE();
 80011c2:	2300      	movs	r3, #0
 80011c4:	60bb      	str	r3, [r7, #8]
 80011c6:	4b0f      	ldr	r3, [pc, #60]	; (8001204 <HAL_RCC_OscConfig+0x2ac>)
 80011c8:	6c1b      	ldr	r3, [r3, #64]	; 0x40
 80011ca:	4a0e      	ldr	r2, [pc, #56]	; (8001204 <HAL_RCC_OscConfig+0x2ac>)
 80011cc:	f043 5380 	orr.w	r3, r3, #268435456	; 0x10000000
 80011d0:	6413      	str	r3, [r2, #64]	; 0x40
 80011d2:	4b0c      	ldr	r3, [pc, #48]	; (8001204 <HAL_RCC_OscConfig+0x2ac>)
 80011d4:	6c1b      	ldr	r3, [r3, #64]	; 0x40
 80011d6:	f003 5380 	and.w	r3, r3, #268435456	; 0x10000000
 80011da:	60bb      	str	r3, [r7, #8]
 80011dc:	68bb      	ldr	r3, [r7, #8]
      pwrclkchanged = SET;
 80011de:	2301      	movs	r3, #1
 80011e0:	75fb      	strb	r3, [r7, #23]
    }

    if(HAL_IS_BIT_CLR(PWR->CR, PWR_CR_DBP))
 80011e2:	4b0b      	ldr	r3, [pc, #44]	; (8001210 <HAL_RCC_OscConfig+0x2b8>)
 80011e4:	681b      	ldr	r3, [r3, #0]
 80011e6:	f403 7380 	and.w	r3, r3, #256	; 0x100
 80011ea:	2b00      	cmp	r3, #0
 80011ec:	d121      	bne.n	8001232 <HAL_RCC_OscConfig+0x2da>
    {
      /* Enable write access to Backup domain */
      SET_BIT(PWR->CR, PWR_CR_DBP);
 80011ee:	4b08      	ldr	r3, [pc, #32]	; (8001210 <HAL_RCC_OscConfig+0x2b8>)
 80011f0:	681b      	ldr	r3, [r3, #0]
 80011f2:	4a07      	ldr	r2, [pc, #28]	; (8001210 <HAL_RCC_OscConfig+0x2b8>)
 80011f4:	f443 7380 	orr.w	r3, r3, #256	; 0x100
 80011f8:	6013      	str	r3, [r2, #0]

      /* Wait for Backup domain Write protection disable */
      tickstart = HAL_GetTick();
 80011fa:	f7ff fc1f 	bl	8000a3c <HAL_GetTick>
 80011fe:	6138      	str	r0, [r7, #16]

      while(HAL_IS_BIT_CLR(PWR->CR, PWR_CR_DBP))
 8001200:	e011      	b.n	8001226 <HAL_RCC_OscConfig+0x2ce>
 8001202:	bf00      	nop
 8001204:	40023800 	.word	0x40023800
 8001208:	42470000 	.word	0x42470000
 800120c:	42470e80 	.word	0x42470e80
 8001210:	40007000 	.word	0x40007000
      {
        if((HAL_GetTick() - tickstart) > RCC_DBP_TIMEOUT_VALUE)
 8001214:	f7ff fc12 	bl	8000a3c <HAL_GetTick>
 8001218:	4602      	mov	r2, r0
 800121a:	693b      	ldr	r3, [r7, #16]
 800121c:	1ad3      	subs	r3, r2, r3
 800121e:	2b02      	cmp	r3, #2
 8001220:	d901      	bls.n	8001226 <HAL_RCC_OscConfig+0x2ce>
        {
          return HAL_TIMEOUT;
 8001222:	2303      	movs	r3, #3
 8001224:	e106      	b.n	8001434 <HAL_RCC_OscConfig+0x4dc>
      while(HAL_IS_BIT_CLR(PWR->CR, PWR_CR_DBP))
 8001226:	4b85      	ldr	r3, [pc, #532]	; (800143c <HAL_RCC_OscConfig+0x4e4>)
 8001228:	681b      	ldr	r3, [r3, #0]
 800122a:	f403 7380 	and.w	r3, r3, #256	; 0x100
 800122e:	2b00      	cmp	r3, #0
 8001230:	d0f0      	beq.n	8001214 <HAL_RCC_OscConfig+0x2bc>
        }
      }
    }

    /* Set the new LSE configuration -----------------------------------------*/
    __HAL_RCC_LSE_CONFIG(RCC_OscInitStruct->LSEState);
 8001232:	687b      	ldr	r3, [r7, #4]
 8001234:	689b      	ldr	r3, [r3, #8]
 8001236:	2b01      	cmp	r3, #1
 8001238:	d106      	bne.n	8001248 <HAL_RCC_OscConfig+0x2f0>
 800123a:	4b81      	ldr	r3, [pc, #516]	; (8001440 <HAL_RCC_OscConfig+0x4e8>)
 800123c:	6f1b      	ldr	r3, [r3, #112]	; 0x70
 800123e:	4a80      	ldr	r2, [pc, #512]	; (8001440 <HAL_RCC_OscConfig+0x4e8>)
 8001240:	f043 0301 	orr.w	r3, r3, #1
 8001244:	6713      	str	r3, [r2, #112]	; 0x70
 8001246:	e01c      	b.n	8001282 <HAL_RCC_OscConfig+0x32a>
 8001248:	687b      	ldr	r3, [r7, #4]
 800124a:	689b      	ldr	r3, [r3, #8]
 800124c:	2b05      	cmp	r3, #5
 800124e:	d10c      	bne.n	800126a <HAL_RCC_OscConfig+0x312>
 8001250:	4b7b      	ldr	r3, [pc, #492]	; (8001440 <HAL_RCC_OscConfig+0x4e8>)
 8001252:	6f1b      	ldr	r3, [r3, #112]	; 0x70
 8001254:	4a7a      	ldr	r2, [pc, #488]	; (8001440 <HAL_RCC_OscConfig+0x4e8>)
 8001256:	f043 0304 	orr.w	r3, r3, #4
 800125a:	6713      	str	r3, [r2, #112]	; 0x70
 800125c:	4b78      	ldr	r3, [pc, #480]	; (8001440 <HAL_RCC_OscConfig+0x4e8>)
 800125e:	6f1b      	ldr	r3, [r3, #112]	; 0x70
 8001260:	4a77      	ldr	r2, [pc, #476]	; (8001440 <HAL_RCC_OscConfig+0x4e8>)
 8001262:	f043 0301 	orr.w	r3, r3, #1
 8001266:	6713      	str	r3, [r2, #112]	; 0x70
 8001268:	e00b      	b.n	8001282 <HAL_RCC_OscConfig+0x32a>
 800126a:	4b75      	ldr	r3, [pc, #468]	; (8001440 <HAL_RCC_OscConfig+0x4e8>)
 800126c:	6f1b      	ldr	r3, [r3, #112]	; 0x70
 800126e:	4a74      	ldr	r2, [pc, #464]	; (8001440 <HAL_RCC_OscConfig+0x4e8>)
 8001270:	f023 0301 	bic.w	r3, r3, #1
 8001274:	6713      	str	r3, [r2, #112]	; 0x70
 8001276:	4b72      	ldr	r3, [pc, #456]	; (8001440 <HAL_RCC_OscConfig+0x4e8>)
 8001278:	6f1b      	ldr	r3, [r3, #112]	; 0x70
 800127a:	4a71      	ldr	r2, [pc, #452]	; (8001440 <HAL_RCC_OscConfig+0x4e8>)
 800127c:	f023 0304 	bic.w	r3, r3, #4
 8001280:	6713      	str	r3, [r2, #112]	; 0x70
    /* Check the LSE State */
    if((RCC_OscInitStruct->LSEState) != RCC_LSE_OFF)
 8001282:	687b      	ldr	r3, [r7, #4]
 8001284:	689b      	ldr	r3, [r3, #8]
 8001286:	2b00      	cmp	r3, #0
 8001288:	d015      	beq.n	80012b6 <HAL_RCC_OscConfig+0x35e>
    {
      /* Get Start Tick*/
      tickstart = HAL_GetTick();
 800128a:	f7ff fbd7 	bl	8000a3c <HAL_GetTick>
 800128e:	6138      	str	r0, [r7, #16]

      /* Wait till LSE is ready */
      while(__HAL_RCC_GET_FLAG(RCC_FLAG_LSERDY) == RESET)
 8001290:	e00a      	b.n	80012a8 <HAL_RCC_OscConfig+0x350>
      {
        if((HAL_GetTick() - tickstart ) > RCC_LSE_TIMEOUT_VALUE)
 8001292:	f7ff fbd3 	bl	8000a3c <HAL_GetTick>
 8001296:	4602      	mov	r2, r0
 8001298:	693b      	ldr	r3, [r7, #16]
 800129a:	1ad3      	subs	r3, r2, r3
 800129c:	f241 3288 	movw	r2, #5000	; 0x1388
 80012a0:	4293      	cmp	r3, r2
 80012a2:	d901      	bls.n	80012a8 <HAL_RCC_OscConfig+0x350>
        {
          return HAL_TIMEOUT;
 80012a4:	2303      	movs	r3, #3
 80012a6:	e0c5      	b.n	8001434 <HAL_RCC_OscConfig+0x4dc>
      while(__HAL_RCC_GET_FLAG(RCC_FLAG_LSERDY) == RESET)
 80012a8:	4b65      	ldr	r3, [pc, #404]	; (8001440 <HAL_RCC_OscConfig+0x4e8>)
 80012aa:	6f1b      	ldr	r3, [r3, #112]	; 0x70
 80012ac:	f003 0302 	and.w	r3, r3, #2
 80012b0:	2b00      	cmp	r3, #0
 80012b2:	d0ee      	beq.n	8001292 <HAL_RCC_OscConfig+0x33a>
 80012b4:	e014      	b.n	80012e0 <HAL_RCC_OscConfig+0x388>
      }
    }
    else
    {
      /* Get Start Tick */
      tickstart = HAL_GetTick();
 80012b6:	f7ff fbc1 	bl	8000a3c <HAL_GetTick>
 80012ba:	6138      	str	r0, [r7, #16]

      /* Wait till LSE is ready */
      while(__HAL_RCC_GET_FLAG(RCC_FLAG_LSERDY) != RESET)
 80012bc:	e00a      	b.n	80012d4 <HAL_RCC_OscConfig+0x37c>
      {
        if((HAL_GetTick() - tickstart ) > RCC_LSE_TIMEOUT_VALUE)
 80012be:	f7ff fbbd 	bl	8000a3c <HAL_GetTick>
 80012c2:	4602      	mov	r2, r0
 80012c4:	693b      	ldr	r3, [r7, #16]
 80012c6:	1ad3      	subs	r3, r2, r3
 80012c8:	f241 3288 	movw	r2, #5000	; 0x1388
 80012cc:	4293      	cmp	r3, r2
 80012ce:	d901      	bls.n	80012d4 <HAL_RCC_OscConfig+0x37c>
        {
          return HAL_TIMEOUT;
 80012d0:	2303      	movs	r3, #3
 80012d2:	e0af      	b.n	8001434 <HAL_RCC_OscConfig+0x4dc>
      while(__HAL_RCC_GET_FLAG(RCC_FLAG_LSERDY) != RESET)
 80012d4:	4b5a      	ldr	r3, [pc, #360]	; (8001440 <HAL_RCC_OscConfig+0x4e8>)
 80012d6:	6f1b      	ldr	r3, [r3, #112]	; 0x70
 80012d8:	f003 0302 	and.w	r3, r3, #2
 80012dc:	2b00      	cmp	r3, #0
 80012de:	d1ee      	bne.n	80012be <HAL_RCC_OscConfig+0x366>
        }
      }
    }

    /* Restore clock configuration if changed */
    if(pwrclkchanged == SET)
 80012e0:	7dfb      	ldrb	r3, [r7, #23]
 80012e2:	2b01      	cmp	r3, #1
 80012e4:	d105      	bne.n	80012f2 <HAL_RCC_OscConfig+0x39a>
    {
      __HAL_RCC_PWR_CLK_DISABLE();
 80012e6:	4b56      	ldr	r3, [pc, #344]	; (8001440 <HAL_RCC_OscConfig+0x4e8>)
 80012e8:	6c1b      	ldr	r3, [r3, #64]	; 0x40
 80012ea:	4a55      	ldr	r2, [pc, #340]	; (8001440 <HAL_RCC_OscConfig+0x4e8>)
 80012ec:	f023 5380 	bic.w	r3, r3, #268435456	; 0x10000000
 80012f0:	6413      	str	r3, [r2, #64]	; 0x40
    }
  }
  /*-------------------------------- PLL Configuration -----------------------*/
  /* Check the parameters */
  assert_param(IS_RCC_PLL(RCC_OscInitStruct->PLL.PLLState));
  if ((RCC_OscInitStruct->PLL.PLLState) != RCC_PLL_NONE)
 80012f2:	687b      	ldr	r3, [r7, #4]
 80012f4:	699b      	ldr	r3, [r3, #24]
 80012f6:	2b00      	cmp	r3, #0
 80012f8:	f000 809b 	beq.w	8001432 <HAL_RCC_OscConfig+0x4da>
  {
    /* Check if the PLL is used as system clock or not */
    if(__HAL_RCC_GET_SYSCLK_SOURCE() != RCC_CFGR_SWS_PLL)
 80012fc:	4b50      	ldr	r3, [pc, #320]	; (8001440 <HAL_RCC_OscConfig+0x4e8>)
 80012fe:	689b      	ldr	r3, [r3, #8]
 8001300:	f003 030c 	and.w	r3, r3, #12
 8001304:	2b08      	cmp	r3, #8
 8001306:	d05c      	beq.n	80013c2 <HAL_RCC_OscConfig+0x46a>
    {
      if((RCC_OscInitStruct->PLL.PLLState) == RCC_PLL_ON)
 8001308:	687b      	ldr	r3, [r7, #4]
 800130a:	699b      	ldr	r3, [r3, #24]
 800130c:	2b02      	cmp	r3, #2
 800130e:	d141      	bne.n	8001394 <HAL_RCC_OscConfig+0x43c>
        assert_param(IS_RCC_PLLN_VALUE(RCC_OscInitStruct->PLL.PLLN));
        assert_param(IS_RCC_PLLP_VALUE(RCC_OscInitStruct->PLL.PLLP));
        assert_param(IS_RCC_PLLQ_VALUE(RCC_OscInitStruct->PLL.PLLQ));

        /* Disable the main PLL. */
        __HAL_RCC_PLL_DISABLE();
 8001310:	4b4c      	ldr	r3, [pc, #304]	; (8001444 <HAL_RCC_OscConfig+0x4ec>)
 8001312:	2200      	movs	r2, #0
 8001314:	601a      	str	r2, [r3, #0]

        /* Get Start Tick */
        tickstart = HAL_GetTick();
 8001316:	f7ff fb91 	bl	8000a3c <HAL_GetTick>
 800131a:	6138      	str	r0, [r7, #16]

        /* Wait till PLL is ready */
        while(__HAL_RCC_GET_FLAG(RCC_FLAG_PLLRDY) != RESET)
 800131c:	e008      	b.n	8001330 <HAL_RCC_OscConfig+0x3d8>
        {
          if((HAL_GetTick() - tickstart ) > PLL_TIMEOUT_VALUE)
 800131e:	f7ff fb8d 	bl	8000a3c <HAL_GetTick>
 8001322:	4602      	mov	r2, r0
 8001324:	693b      	ldr	r3, [r7, #16]
 8001326:	1ad3      	subs	r3, r2, r3
 8001328:	2b02      	cmp	r3, #2
 800132a:	d901      	bls.n	8001330 <HAL_RCC_OscConfig+0x3d8>
          {
            return HAL_TIMEOUT;
 800132c:	2303      	movs	r3, #3
 800132e:	e081      	b.n	8001434 <HAL_RCC_OscConfig+0x4dc>
        while(__HAL_RCC_GET_FLAG(RCC_FLAG_PLLRDY) != RESET)
 8001330:	4b43      	ldr	r3, [pc, #268]	; (8001440 <HAL_RCC_OscConfig+0x4e8>)
 8001332:	681b      	ldr	r3, [r3, #0]
 8001334:	f003 7300 	and.w	r3, r3, #33554432	; 0x2000000
 8001338:	2b00      	cmp	r3, #0
 800133a:	d1f0      	bne.n	800131e <HAL_RCC_OscConfig+0x3c6>
          }
        }

        /* Configure the main PLL clock source, multiplication and division factors. */
        WRITE_REG(RCC->PLLCFGR, (RCC_OscInitStruct->PLL.PLLSource                                            | \
 800133c:	687b      	ldr	r3, [r7, #4]
 800133e:	69da      	ldr	r2, [r3, #28]
 8001340:	687b      	ldr	r3, [r7, #4]
 8001342:	6a1b      	ldr	r3, [r3, #32]
 8001344:	431a      	orrs	r2, r3
 8001346:	687b      	ldr	r3, [r7, #4]
 8001348:	6a5b      	ldr	r3, [r3, #36]	; 0x24
 800134a:	019b      	lsls	r3, r3, #6
 800134c:	431a      	orrs	r2, r3
 800134e:	687b      	ldr	r3, [r7, #4]
 8001350:	6a9b      	ldr	r3, [r3, #40]	; 0x28
 8001352:	085b      	lsrs	r3, r3, #1
 8001354:	3b01      	subs	r3, #1
 8001356:	041b      	lsls	r3, r3, #16
 8001358:	431a      	orrs	r2, r3
 800135a:	687b      	ldr	r3, [r7, #4]
 800135c:	6adb      	ldr	r3, [r3, #44]	; 0x2c
 800135e:	061b      	lsls	r3, r3, #24
 8001360:	4937      	ldr	r1, [pc, #220]	; (8001440 <HAL_RCC_OscConfig+0x4e8>)
 8001362:	4313      	orrs	r3, r2
 8001364:	604b      	str	r3, [r1, #4]
                                 RCC_OscInitStruct->PLL.PLLM                                                 | \
                                 (RCC_OscInitStruct->PLL.PLLN << RCC_PLLCFGR_PLLN_Pos)             | \
                                 (((RCC_OscInitStruct->PLL.PLLP >> 1U) - 1U) << RCC_PLLCFGR_PLLP_Pos) | \
                                 (RCC_OscInitStruct->PLL.PLLQ << RCC_PLLCFGR_PLLQ_Pos)));
        /* Enable the main PLL. */
        __HAL_RCC_PLL_ENABLE();
 8001366:	4b37      	ldr	r3, [pc, #220]	; (8001444 <HAL_RCC_OscConfig+0x4ec>)
 8001368:	2201      	movs	r2, #1
 800136a:	601a      	str	r2, [r3, #0]

        /* Get Start Tick */
        tickstart = HAL_GetTick();
 800136c:	f7ff fb66 	bl	8000a3c <HAL_GetTick>
 8001370:	6138      	str	r0, [r7, #16]

        /* Wait till PLL is ready */
        while(__HAL_RCC_GET_FLAG(RCC_FLAG_PLLRDY) == RESET)
 8001372:	e008      	b.n	8001386 <HAL_RCC_OscConfig+0x42e>
        {
          if((HAL_GetTick() - tickstart ) > PLL_TIMEOUT_VALUE)
 8001374:	f7ff fb62 	bl	8000a3c <HAL_GetTick>
 8001378:	4602      	mov	r2, r0
 800137a:	693b      	ldr	r3, [r7, #16]
 800137c:	1ad3      	subs	r3, r2, r3
 800137e:	2b02      	cmp	r3, #2
 8001380:	d901      	bls.n	8001386 <HAL_RCC_OscConfig+0x42e>
          {
            return HAL_TIMEOUT;
 8001382:	2303      	movs	r3, #3
 8001384:	e056      	b.n	8001434 <HAL_RCC_OscConfig+0x4dc>
        while(__HAL_RCC_GET_FLAG(RCC_FLAG_PLLRDY) == RESET)
 8001386:	4b2e      	ldr	r3, [pc, #184]	; (8001440 <HAL_RCC_OscConfig+0x4e8>)
 8001388:	681b      	ldr	r3, [r3, #0]
 800138a:	f003 7300 	and.w	r3, r3, #33554432	; 0x2000000
 800138e:	2b00      	cmp	r3, #0
 8001390:	d0f0      	beq.n	8001374 <HAL_RCC_OscConfig+0x41c>
 8001392:	e04e      	b.n	8001432 <HAL_RCC_OscConfig+0x4da>
        }
      }
      else
      {
        /* Disable the main PLL. */
        __HAL_RCC_PLL_DISABLE();
 8001394:	4b2b      	ldr	r3, [pc, #172]	; (8001444 <HAL_RCC_OscConfig+0x4ec>)
 8001396:	2200      	movs	r2, #0
 8001398:	601a      	str	r2, [r3, #0]

        /* Get Start Tick */
        tickstart = HAL_GetTick();
 800139a:	f7ff fb4f 	bl	8000a3c <HAL_GetTick>
 800139e:	6138      	str	r0, [r7, #16]

        /* Wait till PLL is ready */
        while(__HAL_RCC_GET_FLAG(RCC_FLAG_PLLRDY) != RESET)
 80013a0:	e008      	b.n	80013b4 <HAL_RCC_OscConfig+0x45c>
        {
          if((HAL_GetTick() - tickstart ) > PLL_TIMEOUT_VALUE)
 80013a2:	f7ff fb4b 	bl	8000a3c <HAL_GetTick>
 80013a6:	4602      	mov	r2, r0
 80013a8:	693b      	ldr	r3, [r7, #16]
 80013aa:	1ad3      	subs	r3, r2, r3
 80013ac:	2b02      	cmp	r3, #2
 80013ae:	d901      	bls.n	80013b4 <HAL_RCC_OscConfig+0x45c>
          {
            return HAL_TIMEOUT;
 80013b0:	2303      	movs	r3, #3
 80013b2:	e03f      	b.n	8001434 <HAL_RCC_OscConfig+0x4dc>
        while(__HAL_RCC_GET_FLAG(RCC_FLAG_PLLRDY) != RESET)
 80013b4:	4b22      	ldr	r3, [pc, #136]	; (8001440 <HAL_RCC_OscConfig+0x4e8>)
 80013b6:	681b      	ldr	r3, [r3, #0]
 80013b8:	f003 7300 	and.w	r3, r3, #33554432	; 0x2000000
 80013bc:	2b00      	cmp	r3, #0
 80013be:	d1f0      	bne.n	80013a2 <HAL_RCC_OscConfig+0x44a>
 80013c0:	e037      	b.n	8001432 <HAL_RCC_OscConfig+0x4da>
      }
    }
    else
    {
      /* Check if there is a request to disable the PLL used as System clock source */
      if((RCC_OscInitStruct->PLL.PLLState) == RCC_PLL_OFF)
 80013c2:	687b      	ldr	r3, [r7, #4]
 80013c4:	699b      	ldr	r3, [r3, #24]
 80013c6:	2b01      	cmp	r3, #1
 80013c8:	d101      	bne.n	80013ce <HAL_RCC_OscConfig+0x476>
      {
        return HAL_ERROR;
 80013ca:	2301      	movs	r3, #1
 80013cc:	e032      	b.n	8001434 <HAL_RCC_OscConfig+0x4dc>
      }
      else
      {
        /* Do not return HAL_ERROR if request repeats the current configuration */
        pll_config = RCC->PLLCFGR;
 80013ce:	4b1c      	ldr	r3, [pc, #112]	; (8001440 <HAL_RCC_OscConfig+0x4e8>)
 80013d0:	685b      	ldr	r3, [r3, #4]
 80013d2:	60fb      	str	r3, [r7, #12]
            (READ_BIT(pll_config, RCC_PLLCFGR_PLLN) != (RCC_OscInitStruct->PLL.PLLN) << RCC_PLLCFGR_PLLN_Pos) ||
            (READ_BIT(pll_config, RCC_PLLCFGR_PLLP) != (((RCC_OscInitStruct->PLL.PLLP >> 1U) - 1U)) << RCC_PLLCFGR_PLLP_Pos) ||
            (READ_BIT(pll_config, RCC_PLLCFGR_PLLQ) != (RCC_OscInitStruct->PLL.PLLQ << RCC_PLLCFGR_PLLQ_Pos)) ||
            (READ_BIT(pll_config, RCC_PLLCFGR_PLLR) != (RCC_OscInitStruct->PLL.PLLR << RCC_PLLCFGR_PLLR_Pos)))
#else
        if (((RCC_OscInitStruct->PLL.PLLState) == RCC_PLL_OFF) ||
 80013d4:	687b      	ldr	r3, [r7, #4]
 80013d6:	699b      	ldr	r3, [r3, #24]
 80013d8:	2b01      	cmp	r3, #1
 80013da:	d028      	beq.n	800142e <HAL_RCC_OscConfig+0x4d6>
            (READ_BIT(pll_config, RCC_PLLCFGR_PLLSRC) != RCC_OscInitStruct->PLL.PLLSource) ||
 80013dc:	68fb      	ldr	r3, [r7, #12]
 80013de:	f403 0280 	and.w	r2, r3, #4194304	; 0x400000
 80013e2:	687b      	ldr	r3, [r7, #4]
 80013e4:	69db      	ldr	r3, [r3, #28]
        if (((RCC_OscInitStruct->PLL.PLLState) == RCC_PLL_OFF) ||
 80013e6:	429a      	cmp	r2, r3
 80013e8:	d121      	bne.n	800142e <HAL_RCC_OscConfig+0x4d6>
            (READ_BIT(pll_config, RCC_PLLCFGR_PLLM) != (RCC_OscInitStruct->PLL.PLLM) << RCC_PLLCFGR_PLLM_Pos) ||
 80013ea:	68fb      	ldr	r3, [r7, #12]
 80013ec:	f003 023f 	and.w	r2, r3, #63	; 0x3f
 80013f0:	687b      	ldr	r3, [r7, #4]
 80013f2:	6a1b      	ldr	r3, [r3, #32]
            (READ_BIT(pll_config, RCC_PLLCFGR_PLLSRC) != RCC_OscInitStruct->PLL.PLLSource) ||
 80013f4:	429a      	cmp	r2, r3
 80013f6:	d11a      	bne.n	800142e <HAL_RCC_OscConfig+0x4d6>
            (READ_BIT(pll_config, RCC_PLLCFGR_PLLN) != (RCC_OscInitStruct->PLL.PLLN) << RCC_PLLCFGR_PLLN_Pos) ||
 80013f8:	68fa      	ldr	r2, [r7, #12]
 80013fa:	f647 73c0 	movw	r3, #32704	; 0x7fc0
 80013fe:	4013      	ands	r3, r2
 8001400:	687a      	ldr	r2, [r7, #4]
 8001402:	6a52      	ldr	r2, [r2, #36]	; 0x24
 8001404:	0192      	lsls	r2, r2, #6
            (READ_BIT(pll_config, RCC_PLLCFGR_PLLM) != (RCC_OscInitStruct->PLL.PLLM) << RCC_PLLCFGR_PLLM_Pos) ||
 8001406:	4293      	cmp	r3, r2
 8001408:	d111      	bne.n	800142e <HAL_RCC_OscConfig+0x4d6>
            (READ_BIT(pll_config, RCC_PLLCFGR_PLLP) != (((RCC_OscInitStruct->PLL.PLLP >> 1U) - 1U)) << RCC_PLLCFGR_PLLP_Pos) ||
 800140a:	68fb      	ldr	r3, [r7, #12]
 800140c:	f403 3240 	and.w	r2, r3, #196608	; 0x30000
 8001410:	687b      	ldr	r3, [r7, #4]
 8001412:	6a9b      	ldr	r3, [r3, #40]	; 0x28
 8001414:	085b      	lsrs	r3, r3, #1
 8001416:	3b01      	subs	r3, #1
 8001418:	041b      	lsls	r3, r3, #16
            (READ_BIT(pll_config, RCC_PLLCFGR_PLLN) != (RCC_OscInitStruct->PLL.PLLN) << RCC_PLLCFGR_PLLN_Pos) ||
 800141a:	429a      	cmp	r2, r3
 800141c:	d107      	bne.n	800142e <HAL_RCC_OscConfig+0x4d6>
            (READ_BIT(pll_config, RCC_PLLCFGR_PLLQ) != (RCC_OscInitStruct->PLL.PLLQ << RCC_PLLCFGR_PLLQ_Pos)))
 800141e:	68fb      	ldr	r3, [r7, #12]
 8001420:	f003 6270 	and.w	r2, r3, #251658240	; 0xf000000
 8001424:	687b      	ldr	r3, [r7, #4]
 8001426:	6adb      	ldr	r3, [r3, #44]	; 0x2c
 8001428:	061b      	lsls	r3, r3, #24
            (READ_BIT(pll_config, RCC_PLLCFGR_PLLP) != (((RCC_OscInitStruct->PLL.PLLP >> 1U) - 1U)) << RCC_PLLCFGR_PLLP_Pos) ||
 800142a:	429a      	cmp	r2, r3
 800142c:	d001      	beq.n	8001432 <HAL_RCC_OscConfig+0x4da>
#endif
        {
          return HAL_ERROR;
 800142e:	2301      	movs	r3, #1
 8001430:	e000      	b.n	8001434 <HAL_RCC_OscConfig+0x4dc>
        }
      }
    }
  }
  return HAL_OK;
 8001432:	2300      	movs	r3, #0
}
 8001434:	4618      	mov	r0, r3
 8001436:	3718      	adds	r7, #24
 8001438:	46bd      	mov	sp, r7
 800143a:	bd80      	pop	{r7, pc}
 800143c:	40007000 	.word	0x40007000
 8001440:	40023800 	.word	0x40023800
 8001444:	42470060 	.word	0x42470060

08001448 <HAL_RCC_ClockConfig>:
  *         HPRE[3:0] bits to ensure that HCLK not exceed the maximum allowed frequency
  *         (for more details refer to section above "Initialization/de-initialization functions")
  * @retval None
  */
HAL_StatusTypeDef HAL_RCC_ClockConfig(RCC_ClkInitTypeDef  *RCC_ClkInitStruct, uint32_t FLatency)
{
 8001448:	b580      	push	{r7, lr}
 800144a:	b084      	sub	sp, #16
 800144c:	af00      	add	r7, sp, #0
 800144e:	6078      	str	r0, [r7, #4]
 8001450:	6039      	str	r1, [r7, #0]
  uint32_t tickstart;

  /* Check Null pointer */
  if(RCC_ClkInitStruct == NULL)
 8001452:	687b      	ldr	r3, [r7, #4]
 8001454:	2b00      	cmp	r3, #0
 8001456:	d101      	bne.n	800145c <HAL_RCC_ClockConfig+0x14>
  {
    return HAL_ERROR;
 8001458:	2301      	movs	r3, #1
 800145a:	e0cc      	b.n	80015f6 <HAL_RCC_ClockConfig+0x1ae>
  /* To correctly read data from FLASH memory, the number of wait states (LATENCY)
    must be correctly programmed according to the frequency of the CPU clock
    (HCLK) and the supply voltage of the device. */

  /* Increasing the number of wait states because of higher CPU frequency */
  if(FLatency > __HAL_FLASH_GET_LATENCY())
 800145c:	4b68      	ldr	r3, [pc, #416]	; (8001600 <HAL_RCC_ClockConfig+0x1b8>)
 800145e:	681b      	ldr	r3, [r3, #0]
 8001460:	f003 0307 	and.w	r3, r3, #7
 8001464:	683a      	ldr	r2, [r7, #0]
 8001466:	429a      	cmp	r2, r3
 8001468:	d90c      	bls.n	8001484 <HAL_RCC_ClockConfig+0x3c>
  {
    /* Program the new number of wait states to the LATENCY bits in the FLASH_ACR register */
    __HAL_FLASH_SET_LATENCY(FLatency);
 800146a:	4b65      	ldr	r3, [pc, #404]	; (8001600 <HAL_RCC_ClockConfig+0x1b8>)
 800146c:	683a      	ldr	r2, [r7, #0]
 800146e:	b2d2      	uxtb	r2, r2
 8001470:	701a      	strb	r2, [r3, #0]

    /* Check that the new number of wait states is taken into account to access the Flash
    memory by reading the FLASH_ACR register */
    if(__HAL_FLASH_GET_LATENCY() != FLatency)
 8001472:	4b63      	ldr	r3, [pc, #396]	; (8001600 <HAL_RCC_ClockConfig+0x1b8>)
 8001474:	681b      	ldr	r3, [r3, #0]
 8001476:	f003 0307 	and.w	r3, r3, #7
 800147a:	683a      	ldr	r2, [r7, #0]
 800147c:	429a      	cmp	r2, r3
 800147e:	d001      	beq.n	8001484 <HAL_RCC_ClockConfig+0x3c>
    {
      return HAL_ERROR;
 8001480:	2301      	movs	r3, #1
 8001482:	e0b8      	b.n	80015f6 <HAL_RCC_ClockConfig+0x1ae>
    }
  }

  /*-------------------------- HCLK Configuration --------------------------*/
  if(((RCC_ClkInitStruct->ClockType) & RCC_CLOCKTYPE_HCLK) == RCC_CLOCKTYPE_HCLK)
 8001484:	687b      	ldr	r3, [r7, #4]
 8001486:	681b      	ldr	r3, [r3, #0]
 8001488:	f003 0302 	and.w	r3, r3, #2
 800148c:	2b00      	cmp	r3, #0
 800148e:	d020      	beq.n	80014d2 <HAL_RCC_ClockConfig+0x8a>
  {
    /* Set the highest APBx dividers in order to ensure that we do not go through
       a non-spec phase whatever we decrease or increase HCLK. */
    if(((RCC_ClkInitStruct->ClockType) & RCC_CLOCKTYPE_PCLK1) == RCC_CLOCKTYPE_PCLK1)
 8001490:	687b      	ldr	r3, [r7, #4]
 8001492:	681b      	ldr	r3, [r3, #0]
 8001494:	f003 0304 	and.w	r3, r3, #4
 8001498:	2b00      	cmp	r3, #0
 800149a:	d005      	beq.n	80014a8 <HAL_RCC_ClockConfig+0x60>
    {
      MODIFY_REG(RCC->CFGR, RCC_CFGR_PPRE1, RCC_HCLK_DIV16);
 800149c:	4b59      	ldr	r3, [pc, #356]	; (8001604 <HAL_RCC_ClockConfig+0x1bc>)
 800149e:	689b      	ldr	r3, [r3, #8]
 80014a0:	4a58      	ldr	r2, [pc, #352]	; (8001604 <HAL_RCC_ClockConfig+0x1bc>)
 80014a2:	f443 53e0 	orr.w	r3, r3, #7168	; 0x1c00
 80014a6:	6093      	str	r3, [r2, #8]
    }

    if(((RCC_ClkInitStruct->ClockType) & RCC_CLOCKTYPE_PCLK2) == RCC_CLOCKTYPE_PCLK2)
 80014a8:	687b      	ldr	r3, [r7, #4]
 80014aa:	681b      	ldr	r3, [r3, #0]
 80014ac:	f003 0308 	and.w	r3, r3, #8
 80014b0:	2b00      	cmp	r3, #0
 80014b2:	d005      	beq.n	80014c0 <HAL_RCC_ClockConfig+0x78>
    {
      MODIFY_REG(RCC->CFGR, RCC_CFGR_PPRE2, (RCC_HCLK_DIV16 << 3));
 80014b4:	4b53      	ldr	r3, [pc, #332]	; (8001604 <HAL_RCC_ClockConfig+0x1bc>)
 80014b6:	689b      	ldr	r3, [r3, #8]
 80014b8:	4a52      	ldr	r2, [pc, #328]	; (8001604 <HAL_RCC_ClockConfig+0x1bc>)
 80014ba:	f443 4360 	orr.w	r3, r3, #57344	; 0xe000
 80014be:	6093      	str	r3, [r2, #8]
    }

    assert_param(IS_RCC_HCLK(RCC_ClkInitStruct->AHBCLKDivider));
    MODIFY_REG(RCC->CFGR, RCC_CFGR_HPRE, RCC_ClkInitStruct->AHBCLKDivider);
 80014c0:	4b50      	ldr	r3, [pc, #320]	; (8001604 <HAL_RCC_ClockConfig+0x1bc>)
 80014c2:	689b      	ldr	r3, [r3, #8]
 80014c4:	f023 02f0 	bic.w	r2, r3, #240	; 0xf0
 80014c8:	687b      	ldr	r3, [r7, #4]
 80014ca:	689b      	ldr	r3, [r3, #8]
 80014cc:	494d      	ldr	r1, [pc, #308]	; (8001604 <HAL_RCC_ClockConfig+0x1bc>)
 80014ce:	4313      	orrs	r3, r2
 80014d0:	608b      	str	r3, [r1, #8]
  }

  /*------------------------- SYSCLK Configuration ---------------------------*/
  if(((RCC_ClkInitStruct->ClockType) & RCC_CLOCKTYPE_SYSCLK) == RCC_CLOCKTYPE_SYSCLK)
 80014d2:	687b      	ldr	r3, [r7, #4]
 80014d4:	681b      	ldr	r3, [r3, #0]
 80014d6:	f003 0301 	and.w	r3, r3, #1
 80014da:	2b00      	cmp	r3, #0
 80014dc:	d044      	beq.n	8001568 <HAL_RCC_ClockConfig+0x120>
  {
    assert_param(IS_RCC_SYSCLKSOURCE(RCC_ClkInitStruct->SYSCLKSource));

    /* HSE is selected as System Clock Source */
    if(RCC_ClkInitStruct->SYSCLKSource == RCC_SYSCLKSOURCE_HSE)
 80014de:	687b      	ldr	r3, [r7, #4]
 80014e0:	685b      	ldr	r3, [r3, #4]
 80014e2:	2b01      	cmp	r3, #1
 80014e4:	d107      	bne.n	80014f6 <HAL_RCC_ClockConfig+0xae>
    {
      /* Check the HSE ready flag */
      if(__HAL_RCC_GET_FLAG(RCC_FLAG_HSERDY) == RESET)
 80014e6:	4b47      	ldr	r3, [pc, #284]	; (8001604 <HAL_RCC_ClockConfig+0x1bc>)
 80014e8:	681b      	ldr	r3, [r3, #0]
 80014ea:	f403 3300 	and.w	r3, r3, #131072	; 0x20000
 80014ee:	2b00      	cmp	r3, #0
 80014f0:	d119      	bne.n	8001526 <HAL_RCC_ClockConfig+0xde>
      {
        return HAL_ERROR;
 80014f2:	2301      	movs	r3, #1
 80014f4:	e07f      	b.n	80015f6 <HAL_RCC_ClockConfig+0x1ae>
      }
    }
    /* PLL is selected as System Clock Source */
    else if((RCC_ClkInitStruct->SYSCLKSource == RCC_SYSCLKSOURCE_PLLCLK)   ||
 80014f6:	687b      	ldr	r3, [r7, #4]
 80014f8:	685b      	ldr	r3, [r3, #4]
 80014fa:	2b02      	cmp	r3, #2
 80014fc:	d003      	beq.n	8001506 <HAL_RCC_ClockConfig+0xbe>
            (RCC_ClkInitStruct->SYSCLKSource == RCC_SYSCLKSOURCE_PLLRCLK))
 80014fe:	687b      	ldr	r3, [r7, #4]
 8001500:	685b      	ldr	r3, [r3, #4]
    else if((RCC_ClkInitStruct->SYSCLKSource == RCC_SYSCLKSOURCE_PLLCLK)   ||
 8001502:	2b03      	cmp	r3, #3
 8001504:	d107      	bne.n	8001516 <HAL_RCC_ClockConfig+0xce>
    {
      /* Check the PLL ready flag */
      if(__HAL_RCC_GET_FLAG(RCC_FLAG_PLLRDY) == RESET)
 8001506:	4b3f      	ldr	r3, [pc, #252]	; (8001604 <HAL_RCC_ClockConfig+0x1bc>)
 8001508:	681b      	ldr	r3, [r3, #0]
 800150a:	f003 7300 	and.w	r3, r3, #33554432	; 0x2000000
 800150e:	2b00      	cmp	r3, #0
 8001510:	d109      	bne.n	8001526 <HAL_RCC_ClockConfig+0xde>
      {
        return HAL_ERROR;
 8001512:	2301      	movs	r3, #1
 8001514:	e06f      	b.n	80015f6 <HAL_RCC_ClockConfig+0x1ae>
    }
    /* HSI is selected as System Clock Source */
    else
    {
      /* Check the HSI ready flag */
      if(__HAL_RCC_GET_FLAG(RCC_FLAG_HSIRDY) == RESET)
 8001516:	4b3b      	ldr	r3, [pc, #236]	; (8001604 <HAL_RCC_ClockConfig+0x1bc>)
 8001518:	681b      	ldr	r3, [r3, #0]
 800151a:	f003 0302 	and.w	r3, r3, #2
 800151e:	2b00      	cmp	r3, #0
 8001520:	d101      	bne.n	8001526 <HAL_RCC_ClockConfig+0xde>
      {
        return HAL_ERROR;
 8001522:	2301      	movs	r3, #1
 8001524:	e067      	b.n	80015f6 <HAL_RCC_ClockConfig+0x1ae>
      }
    }

    __HAL_RCC_SYSCLK_CONFIG(RCC_ClkInitStruct->SYSCLKSource);
 8001526:	4b37      	ldr	r3, [pc, #220]	; (8001604 <HAL_RCC_ClockConfig+0x1bc>)
 8001528:	689b      	ldr	r3, [r3, #8]
 800152a:	f023 0203 	bic.w	r2, r3, #3
 800152e:	687b      	ldr	r3, [r7, #4]
 8001530:	685b      	ldr	r3, [r3, #4]
 8001532:	4934      	ldr	r1, [pc, #208]	; (8001604 <HAL_RCC_ClockConfig+0x1bc>)
 8001534:	4313      	orrs	r3, r2
 8001536:	608b      	str	r3, [r1, #8]

    /* Get Start Tick */
    tickstart = HAL_GetTick();
 8001538:	f7ff fa80 	bl	8000a3c <HAL_GetTick>
 800153c:	60f8      	str	r0, [r7, #12]

    while (__HAL_RCC_GET_SYSCLK_SOURCE() != (RCC_ClkInitStruct->SYSCLKSource << RCC_CFGR_SWS_Pos))
 800153e:	e00a      	b.n	8001556 <HAL_RCC_ClockConfig+0x10e>
    {
      if ((HAL_GetTick() - tickstart) > CLOCKSWITCH_TIMEOUT_VALUE)
 8001540:	f7ff fa7c 	bl	8000a3c <HAL_GetTick>
 8001544:	4602      	mov	r2, r0
 8001546:	68fb      	ldr	r3, [r7, #12]
 8001548:	1ad3      	subs	r3, r2, r3
 800154a:	f241 3288 	movw	r2, #5000	; 0x1388
 800154e:	4293      	cmp	r3, r2
 8001550:	d901      	bls.n	8001556 <HAL_RCC_ClockConfig+0x10e>
      {
        return HAL_TIMEOUT;
 8001552:	2303      	movs	r3, #3
 8001554:	e04f      	b.n	80015f6 <HAL_RCC_ClockConfig+0x1ae>
    while (__HAL_RCC_GET_SYSCLK_SOURCE() != (RCC_ClkInitStruct->SYSCLKSource << RCC_CFGR_SWS_Pos))
 8001556:	4b2b      	ldr	r3, [pc, #172]	; (8001604 <HAL_RCC_ClockConfig+0x1bc>)
 8001558:	689b      	ldr	r3, [r3, #8]
 800155a:	f003 020c 	and.w	r2, r3, #12
 800155e:	687b      	ldr	r3, [r7, #4]
 8001560:	685b      	ldr	r3, [r3, #4]
 8001562:	009b      	lsls	r3, r3, #2
 8001564:	429a      	cmp	r2, r3
 8001566:	d1eb      	bne.n	8001540 <HAL_RCC_ClockConfig+0xf8>
      }
    }
  }

  /* Decreasing the number of wait states because of lower CPU frequency */
  if(FLatency < __HAL_FLASH_GET_LATENCY())
 8001568:	4b25      	ldr	r3, [pc, #148]	; (8001600 <HAL_RCC_ClockConfig+0x1b8>)
 800156a:	681b      	ldr	r3, [r3, #0]
 800156c:	f003 0307 	and.w	r3, r3, #7
 8001570:	683a      	ldr	r2, [r7, #0]
 8001572:	429a      	cmp	r2, r3
 8001574:	d20c      	bcs.n	8001590 <HAL_RCC_ClockConfig+0x148>
  {
     /* Program the new number of wait states to the LATENCY bits in the FLASH_ACR register */
    __HAL_FLASH_SET_LATENCY(FLatency);
 8001576:	4b22      	ldr	r3, [pc, #136]	; (8001600 <HAL_RCC_ClockConfig+0x1b8>)
 8001578:	683a      	ldr	r2, [r7, #0]
 800157a:	b2d2      	uxtb	r2, r2
 800157c:	701a      	strb	r2, [r3, #0]

    /* Check that the new number of wait states is taken into account to access the Flash
    memory by reading the FLASH_ACR register */
    if(__HAL_FLASH_GET_LATENCY() != FLatency)
 800157e:	4b20      	ldr	r3, [pc, #128]	; (8001600 <HAL_RCC_ClockConfig+0x1b8>)
 8001580:	681b      	ldr	r3, [r3, #0]
 8001582:	f003 0307 	and.w	r3, r3, #7
 8001586:	683a      	ldr	r2, [r7, #0]
 8001588:	429a      	cmp	r2, r3
 800158a:	d001      	beq.n	8001590 <HAL_RCC_ClockConfig+0x148>
    {
      return HAL_ERROR;
 800158c:	2301      	movs	r3, #1
 800158e:	e032      	b.n	80015f6 <HAL_RCC_ClockConfig+0x1ae>
    }
  }

  /*-------------------------- PCLK1 Configuration ---------------------------*/
  if(((RCC_ClkInitStruct->ClockType) & RCC_CLOCKTYPE_PCLK1) == RCC_CLOCKTYPE_PCLK1)
 8001590:	687b      	ldr	r3, [r7, #4]
 8001592:	681b      	ldr	r3, [r3, #0]
 8001594:	f003 0304 	and.w	r3, r3, #4
 8001598:	2b00      	cmp	r3, #0
 800159a:	d008      	beq.n	80015ae <HAL_RCC_ClockConfig+0x166>
  {
    assert_param(IS_RCC_PCLK(RCC_ClkInitStruct->APB1CLKDivider));
    MODIFY_REG(RCC->CFGR, RCC_CFGR_PPRE1, RCC_ClkInitStruct->APB1CLKDivider);
 800159c:	4b19      	ldr	r3, [pc, #100]	; (8001604 <HAL_RCC_ClockConfig+0x1bc>)
 800159e:	689b      	ldr	r3, [r3, #8]
 80015a0:	f423 52e0 	bic.w	r2, r3, #7168	; 0x1c00
 80015a4:	687b      	ldr	r3, [r7, #4]
 80015a6:	68db      	ldr	r3, [r3, #12]
 80015a8:	4916      	ldr	r1, [pc, #88]	; (8001604 <HAL_RCC_ClockConfig+0x1bc>)
 80015aa:	4313      	orrs	r3, r2
 80015ac:	608b      	str	r3, [r1, #8]
  }

  /*-------------------------- PCLK2 Configuration ---------------------------*/
  if(((RCC_ClkInitStruct->ClockType) & RCC_CLOCKTYPE_PCLK2) == RCC_CLOCKTYPE_PCLK2)
 80015ae:	687b      	ldr	r3, [r7, #4]
 80015b0:	681b      	ldr	r3, [r3, #0]
 80015b2:	f003 0308 	and.w	r3, r3, #8
 80015b6:	2b00      	cmp	r3, #0
 80015b8:	d009      	beq.n	80015ce <HAL_RCC_ClockConfig+0x186>
  {
    assert_param(IS_RCC_PCLK(RCC_ClkInitStruct->APB2CLKDivider));
    MODIFY_REG(RCC->CFGR, RCC_CFGR_PPRE2, ((RCC_ClkInitStruct->APB2CLKDivider) << 3U));
 80015ba:	4b12      	ldr	r3, [pc, #72]	; (8001604 <HAL_RCC_ClockConfig+0x1bc>)
 80015bc:	689b      	ldr	r3, [r3, #8]
 80015be:	f423 4260 	bic.w	r2, r3, #57344	; 0xe000
 80015c2:	687b      	ldr	r3, [r7, #4]
 80015c4:	691b      	ldr	r3, [r3, #16]
 80015c6:	00db      	lsls	r3, r3, #3
 80015c8:	490e      	ldr	r1, [pc, #56]	; (8001604 <HAL_RCC_ClockConfig+0x1bc>)
 80015ca:	4313      	orrs	r3, r2
 80015cc:	608b      	str	r3, [r1, #8]
  }

  /* Update the SystemCoreClock global variable */
  SystemCoreClock = HAL_RCC_GetSysClockFreq() >> AHBPrescTable[(RCC->CFGR & RCC_CFGR_HPRE)>> RCC_CFGR_HPRE_Pos];
 80015ce:	f000 f821 	bl	8001614 <HAL_RCC_GetSysClockFreq>
 80015d2:	4602      	mov	r2, r0
 80015d4:	4b0b      	ldr	r3, [pc, #44]	; (8001604 <HAL_RCC_ClockConfig+0x1bc>)
 80015d6:	689b      	ldr	r3, [r3, #8]
 80015d8:	091b      	lsrs	r3, r3, #4
 80015da:	f003 030f 	and.w	r3, r3, #15
 80015de:	490a      	ldr	r1, [pc, #40]	; (8001608 <HAL_RCC_ClockConfig+0x1c0>)
 80015e0:	5ccb      	ldrb	r3, [r1, r3]
 80015e2:	fa22 f303 	lsr.w	r3, r2, r3
 80015e6:	4a09      	ldr	r2, [pc, #36]	; (800160c <HAL_RCC_ClockConfig+0x1c4>)
 80015e8:	6013      	str	r3, [r2, #0]

  /* Configure the source of time base considering new system clocks settings */
  HAL_InitTick (uwTickPrio);
 80015ea:	4b09      	ldr	r3, [pc, #36]	; (8001610 <HAL_RCC_ClockConfig+0x1c8>)
 80015ec:	681b      	ldr	r3, [r3, #0]
 80015ee:	4618      	mov	r0, r3
 80015f0:	f7ff f9e0 	bl	80009b4 <HAL_InitTick>

  return HAL_OK;
 80015f4:	2300      	movs	r3, #0
}
 80015f6:	4618      	mov	r0, r3
 80015f8:	3710      	adds	r7, #16
 80015fa:	46bd      	mov	sp, r7
 80015fc:	bd80      	pop	{r7, pc}
 80015fe:	bf00      	nop
 8001600:	40023c00 	.word	0x40023c00
 8001604:	40023800 	.word	0x40023800
 8001608:	08001e34 	.word	0x08001e34
 800160c:	20000000 	.word	0x20000000
 8001610:	20000004 	.word	0x20000004

08001614 <HAL_RCC_GetSysClockFreq>:
  *
  *
  * @retval SYSCLK frequency
  */
__weak uint32_t HAL_RCC_GetSysClockFreq(void)
{
 8001614:	e92d 43b0 	stmdb	sp!, {r4, r5, r7, r8, r9, lr}
 8001618:	b084      	sub	sp, #16
 800161a:	af00      	add	r7, sp, #0
  uint32_t pllm = 0U, pllvco = 0U, pllp = 0U;
 800161c:	2300      	movs	r3, #0
 800161e:	607b      	str	r3, [r7, #4]
 8001620:	2300      	movs	r3, #0
 8001622:	60fb      	str	r3, [r7, #12]
 8001624:	2300      	movs	r3, #0
 8001626:	603b      	str	r3, [r7, #0]
  uint32_t sysclockfreq = 0U;
 8001628:	2300      	movs	r3, #0
 800162a:	60bb      	str	r3, [r7, #8]

  /* Get SYSCLK source -------------------------------------------------------*/
  switch (RCC->CFGR & RCC_CFGR_SWS)
 800162c:	4b67      	ldr	r3, [pc, #412]	; (80017cc <HAL_RCC_GetSysClockFreq+0x1b8>)
 800162e:	689b      	ldr	r3, [r3, #8]
 8001630:	f003 030c 	and.w	r3, r3, #12
 8001634:	2b08      	cmp	r3, #8
 8001636:	d00d      	beq.n	8001654 <HAL_RCC_GetSysClockFreq+0x40>
 8001638:	2b08      	cmp	r3, #8
 800163a:	f200 80bd 	bhi.w	80017b8 <HAL_RCC_GetSysClockFreq+0x1a4>
 800163e:	2b00      	cmp	r3, #0
 8001640:	d002      	beq.n	8001648 <HAL_RCC_GetSysClockFreq+0x34>
 8001642:	2b04      	cmp	r3, #4
 8001644:	d003      	beq.n	800164e <HAL_RCC_GetSysClockFreq+0x3a>
 8001646:	e0b7      	b.n	80017b8 <HAL_RCC_GetSysClockFreq+0x1a4>
  {
    case RCC_CFGR_SWS_HSI:  /* HSI used as system clock source */
    {
      sysclockfreq = HSI_VALUE;
 8001648:	4b61      	ldr	r3, [pc, #388]	; (80017d0 <HAL_RCC_GetSysClockFreq+0x1bc>)
 800164a:	60bb      	str	r3, [r7, #8]
       break;
 800164c:	e0b7      	b.n	80017be <HAL_RCC_GetSysClockFreq+0x1aa>
    }
    case RCC_CFGR_SWS_HSE:  /* HSE used as system clock  source */
    {
      sysclockfreq = HSE_VALUE;
 800164e:	4b61      	ldr	r3, [pc, #388]	; (80017d4 <HAL_RCC_GetSysClockFreq+0x1c0>)
 8001650:	60bb      	str	r3, [r7, #8]
      break;
 8001652:	e0b4      	b.n	80017be <HAL_RCC_GetSysClockFreq+0x1aa>
    }
    case RCC_CFGR_SWS_PLL:  /* PLL used as system clock  source */
    {
      /* PLL_VCO = (HSE_VALUE or HSI_VALUE / PLLM) * PLLN
      SYSCLK = PLL_VCO / PLLP */
      pllm = RCC->PLLCFGR & RCC_PLLCFGR_PLLM;
 8001654:	4b5d      	ldr	r3, [pc, #372]	; (80017cc <HAL_RCC_GetSysClockFreq+0x1b8>)
 8001656:	685b      	ldr	r3, [r3, #4]
 8001658:	f003 033f 	and.w	r3, r3, #63	; 0x3f
 800165c:	607b      	str	r3, [r7, #4]
      if(__HAL_RCC_GET_PLL_OSCSOURCE() != RCC_PLLSOURCE_HSI)
 800165e:	4b5b      	ldr	r3, [pc, #364]	; (80017cc <HAL_RCC_GetSysClockFreq+0x1b8>)
 8001660:	685b      	ldr	r3, [r3, #4]
 8001662:	f403 0380 	and.w	r3, r3, #4194304	; 0x400000
 8001666:	2b00      	cmp	r3, #0
 8001668:	d04d      	beq.n	8001706 <HAL_RCC_GetSysClockFreq+0xf2>
      {
        /* HSE used as PLL clock source */
        pllvco = (uint32_t) ((((uint64_t) HSE_VALUE * ((uint64_t) ((RCC->PLLCFGR & RCC_PLLCFGR_PLLN) >> RCC_PLLCFGR_PLLN_Pos)))) / (uint64_t)pllm);
 800166a:	4b58      	ldr	r3, [pc, #352]	; (80017cc <HAL_RCC_GetSysClockFreq+0x1b8>)
 800166c:	685b      	ldr	r3, [r3, #4]
 800166e:	099b      	lsrs	r3, r3, #6
 8001670:	461a      	mov	r2, r3
 8001672:	f04f 0300 	mov.w	r3, #0
 8001676:	f240 10ff 	movw	r0, #511	; 0x1ff
 800167a:	f04f 0100 	mov.w	r1, #0
 800167e:	ea02 0800 	and.w	r8, r2, r0
 8001682:	ea03 0901 	and.w	r9, r3, r1
 8001686:	4640      	mov	r0, r8
 8001688:	4649      	mov	r1, r9
 800168a:	f04f 0200 	mov.w	r2, #0
 800168e:	f04f 0300 	mov.w	r3, #0
 8001692:	014b      	lsls	r3, r1, #5
 8001694:	ea43 63d0 	orr.w	r3, r3, r0, lsr #27
 8001698:	0142      	lsls	r2, r0, #5
 800169a:	4610      	mov	r0, r2
 800169c:	4619      	mov	r1, r3
 800169e:	ebb0 0008 	subs.w	r0, r0, r8
 80016a2:	eb61 0109 	sbc.w	r1, r1, r9
 80016a6:	f04f 0200 	mov.w	r2, #0
 80016aa:	f04f 0300 	mov.w	r3, #0
 80016ae:	018b      	lsls	r3, r1, #6
 80016b0:	ea43 6390 	orr.w	r3, r3, r0, lsr #26
 80016b4:	0182      	lsls	r2, r0, #6
 80016b6:	1a12      	subs	r2, r2, r0
 80016b8:	eb63 0301 	sbc.w	r3, r3, r1
 80016bc:	f04f 0000 	mov.w	r0, #0
 80016c0:	f04f 0100 	mov.w	r1, #0
 80016c4:	00d9      	lsls	r1, r3, #3
 80016c6:	ea41 7152 	orr.w	r1, r1, r2, lsr #29
 80016ca:	00d0      	lsls	r0, r2, #3
 80016cc:	4602      	mov	r2, r0
 80016ce:	460b      	mov	r3, r1
 80016d0:	eb12 0208 	adds.w	r2, r2, r8
 80016d4:	eb43 0309 	adc.w	r3, r3, r9
 80016d8:	f04f 0000 	mov.w	r0, #0
 80016dc:	f04f 0100 	mov.w	r1, #0
 80016e0:	0259      	lsls	r1, r3, #9
 80016e2:	ea41 51d2 	orr.w	r1, r1, r2, lsr #23
 80016e6:	0250      	lsls	r0, r2, #9
 80016e8:	4602      	mov	r2, r0
 80016ea:	460b      	mov	r3, r1
 80016ec:	4610      	mov	r0, r2
 80016ee:	4619      	mov	r1, r3
 80016f0:	687b      	ldr	r3, [r7, #4]
 80016f2:	461a      	mov	r2, r3
 80016f4:	f04f 0300 	mov.w	r3, #0
 80016f8:	f7fe fd66 	bl	80001c8 <__aeabi_uldivmod>
 80016fc:	4602      	mov	r2, r0
 80016fe:	460b      	mov	r3, r1
 8001700:	4613      	mov	r3, r2
 8001702:	60fb      	str	r3, [r7, #12]
 8001704:	e04a      	b.n	800179c <HAL_RCC_GetSysClockFreq+0x188>
      }
      else
      {
        /* HSI used as PLL clock source */
        pllvco = (uint32_t) ((((uint64_t) HSI_VALUE * ((uint64_t) ((RCC->PLLCFGR & RCC_PLLCFGR_PLLN) >> RCC_PLLCFGR_PLLN_Pos)))) / (uint64_t)pllm);
 8001706:	4b31      	ldr	r3, [pc, #196]	; (80017cc <HAL_RCC_GetSysClockFreq+0x1b8>)
 8001708:	685b      	ldr	r3, [r3, #4]
 800170a:	099b      	lsrs	r3, r3, #6
 800170c:	461a      	mov	r2, r3
 800170e:	f04f 0300 	mov.w	r3, #0
 8001712:	f240 10ff 	movw	r0, #511	; 0x1ff
 8001716:	f04f 0100 	mov.w	r1, #0
 800171a:	ea02 0400 	and.w	r4, r2, r0
 800171e:	ea03 0501 	and.w	r5, r3, r1
 8001722:	4620      	mov	r0, r4
 8001724:	4629      	mov	r1, r5
 8001726:	f04f 0200 	mov.w	r2, #0
 800172a:	f04f 0300 	mov.w	r3, #0
 800172e:	014b      	lsls	r3, r1, #5
 8001730:	ea43 63d0 	orr.w	r3, r3, r0, lsr #27
 8001734:	0142      	lsls	r2, r0, #5
 8001736:	4610      	mov	r0, r2
 8001738:	4619      	mov	r1, r3
 800173a:	1b00      	subs	r0, r0, r4
 800173c:	eb61 0105 	sbc.w	r1, r1, r5
 8001740:	f04f 0200 	mov.w	r2, #0
 8001744:	f04f 0300 	mov.w	r3, #0
 8001748:	018b      	lsls	r3, r1, #6
 800174a:	ea43 6390 	orr.w	r3, r3, r0, lsr #26
 800174e:	0182      	lsls	r2, r0, #6
 8001750:	1a12      	subs	r2, r2, r0
 8001752:	eb63 0301 	sbc.w	r3, r3, r1
 8001756:	f04f 0000 	mov.w	r0, #0
 800175a:	f04f 0100 	mov.w	r1, #0
 800175e:	00d9      	lsls	r1, r3, #3
 8001760:	ea41 7152 	orr.w	r1, r1, r2, lsr #29
 8001764:	00d0      	lsls	r0, r2, #3
 8001766:	4602      	mov	r2, r0
 8001768:	460b      	mov	r3, r1
 800176a:	1912      	adds	r2, r2, r4
 800176c:	eb45 0303 	adc.w	r3, r5, r3
 8001770:	f04f 0000 	mov.w	r0, #0
 8001774:	f04f 0100 	mov.w	r1, #0
 8001778:	0299      	lsls	r1, r3, #10
 800177a:	ea41 5192 	orr.w	r1, r1, r2, lsr #22
 800177e:	0290      	lsls	r0, r2, #10
 8001780:	4602      	mov	r2, r0
 8001782:	460b      	mov	r3, r1
 8001784:	4610      	mov	r0, r2
 8001786:	4619      	mov	r1, r3
 8001788:	687b      	ldr	r3, [r7, #4]
 800178a:	461a      	mov	r2, r3
 800178c:	f04f 0300 	mov.w	r3, #0
 8001790:	f7fe fd1a 	bl	80001c8 <__aeabi_uldivmod>
 8001794:	4602      	mov	r2, r0
 8001796:	460b      	mov	r3, r1
 8001798:	4613      	mov	r3, r2
 800179a:	60fb      	str	r3, [r7, #12]
      }
      pllp = ((((RCC->PLLCFGR & RCC_PLLCFGR_PLLP) >> RCC_PLLCFGR_PLLP_Pos) + 1U) *2U);
 800179c:	4b0b      	ldr	r3, [pc, #44]	; (80017cc <HAL_RCC_GetSysClockFreq+0x1b8>)
 800179e:	685b      	ldr	r3, [r3, #4]
 80017a0:	0c1b      	lsrs	r3, r3, #16
 80017a2:	f003 0303 	and.w	r3, r3, #3
 80017a6:	3301      	adds	r3, #1
 80017a8:	005b      	lsls	r3, r3, #1
 80017aa:	603b      	str	r3, [r7, #0]

      sysclockfreq = pllvco/pllp;
 80017ac:	68fa      	ldr	r2, [r7, #12]
 80017ae:	683b      	ldr	r3, [r7, #0]
 80017b0:	fbb2 f3f3 	udiv	r3, r2, r3
 80017b4:	60bb      	str	r3, [r7, #8]
      break;
 80017b6:	e002      	b.n	80017be <HAL_RCC_GetSysClockFreq+0x1aa>
    }
    default:
    {
      sysclockfreq = HSI_VALUE;
 80017b8:	4b05      	ldr	r3, [pc, #20]	; (80017d0 <HAL_RCC_GetSysClockFreq+0x1bc>)
 80017ba:	60bb      	str	r3, [r7, #8]
      break;
 80017bc:	bf00      	nop
    }
  }
  return sysclockfreq;
 80017be:	68bb      	ldr	r3, [r7, #8]
}
 80017c0:	4618      	mov	r0, r3
 80017c2:	3710      	adds	r7, #16
 80017c4:	46bd      	mov	sp, r7
 80017c6:	e8bd 83b0 	ldmia.w	sp!, {r4, r5, r7, r8, r9, pc}
 80017ca:	bf00      	nop
 80017cc:	40023800 	.word	0x40023800
 80017d0:	00f42400 	.word	0x00f42400
 80017d4:	007a1200 	.word	0x007a1200

080017d8 <HAL_SPI_Init>:
  * @param  hspi pointer to a SPI_HandleTypeDef structure that contains
  *               the configuration information for SPI module.
  * @retval HAL status
  */
HAL_StatusTypeDef HAL_SPI_Init(SPI_HandleTypeDef *hspi)
{
 80017d8:	b580      	push	{r7, lr}
 80017da:	b082      	sub	sp, #8
 80017dc:	af00      	add	r7, sp, #0
 80017de:	6078      	str	r0, [r7, #4]
  /* Check the SPI handle allocation */
  if (hspi == NULL)
 80017e0:	687b      	ldr	r3, [r7, #4]
 80017e2:	2b00      	cmp	r3, #0
 80017e4:	d101      	bne.n	80017ea <HAL_SPI_Init+0x12>
  {
    return HAL_ERROR;
 80017e6:	2301      	movs	r3, #1
 80017e8:	e07b      	b.n	80018e2 <HAL_SPI_Init+0x10a>
  assert_param(IS_SPI_DATASIZE(hspi->Init.DataSize));
  assert_param(IS_SPI_NSS(hspi->Init.NSS));
  assert_param(IS_SPI_BAUDRATE_PRESCALER(hspi->Init.BaudRatePrescaler));
  assert_param(IS_SPI_FIRST_BIT(hspi->Init.FirstBit));
  assert_param(IS_SPI_TIMODE(hspi->Init.TIMode));
  if (hspi->Init.TIMode == SPI_TIMODE_DISABLE)
 80017ea:	687b      	ldr	r3, [r7, #4]
 80017ec:	6a5b      	ldr	r3, [r3, #36]	; 0x24
 80017ee:	2b00      	cmp	r3, #0
 80017f0:	d108      	bne.n	8001804 <HAL_SPI_Init+0x2c>
  {
    assert_param(IS_SPI_CPOL(hspi->Init.CLKPolarity));
    assert_param(IS_SPI_CPHA(hspi->Init.CLKPhase));

    if (hspi->Init.Mode == SPI_MODE_MASTER)
 80017f2:	687b      	ldr	r3, [r7, #4]
 80017f4:	685b      	ldr	r3, [r3, #4]
 80017f6:	f5b3 7f82 	cmp.w	r3, #260	; 0x104
 80017fa:	d009      	beq.n	8001810 <HAL_SPI_Init+0x38>
      assert_param(IS_SPI_BAUDRATE_PRESCALER(hspi->Init.BaudRatePrescaler));
    }
    else
    {
      /* Baudrate prescaler not use in Motoraola Slave mode. force to default value */
      hspi->Init.BaudRatePrescaler = SPI_BAUDRATEPRESCALER_2;
 80017fc:	687b      	ldr	r3, [r7, #4]
 80017fe:	2200      	movs	r2, #0
 8001800:	61da      	str	r2, [r3, #28]
 8001802:	e005      	b.n	8001810 <HAL_SPI_Init+0x38>
  else
  {
    assert_param(IS_SPI_BAUDRATE_PRESCALER(hspi->Init.BaudRatePrescaler));

    /* Force polarity and phase to TI protocaol requirements */
    hspi->Init.CLKPolarity = SPI_POLARITY_LOW;
 8001804:	687b      	ldr	r3, [r7, #4]
 8001806:	2200      	movs	r2, #0
 8001808:	611a      	str	r2, [r3, #16]
    hspi->Init.CLKPhase    = SPI_PHASE_1EDGE;
 800180a:	687b      	ldr	r3, [r7, #4]
 800180c:	2200      	movs	r2, #0
 800180e:	615a      	str	r2, [r3, #20]
  if (hspi->Init.CRCCalculation == SPI_CRCCALCULATION_ENABLE)
  {
    assert_param(IS_SPI_CRC_POLYNOMIAL(hspi->Init.CRCPolynomial));
  }
#else
  hspi->Init.CRCCalculation = SPI_CRCCALCULATION_DISABLE;
 8001810:	687b      	ldr	r3, [r7, #4]
 8001812:	2200      	movs	r2, #0
 8001814:	629a      	str	r2, [r3, #40]	; 0x28
#endif /* USE_SPI_CRC */

  if (hspi->State == HAL_SPI_STATE_RESET)
 8001816:	687b      	ldr	r3, [r7, #4]
 8001818:	f893 3051 	ldrb.w	r3, [r3, #81]	; 0x51
 800181c:	b2db      	uxtb	r3, r3
 800181e:	2b00      	cmp	r3, #0
 8001820:	d106      	bne.n	8001830 <HAL_SPI_Init+0x58>
  {
    /* Allocate lock resource and initialize it */
    hspi->Lock = HAL_UNLOCKED;
 8001822:	687b      	ldr	r3, [r7, #4]
 8001824:	2200      	movs	r2, #0
 8001826:	f883 2050 	strb.w	r2, [r3, #80]	; 0x50

    /* Init the low level hardware : GPIO, CLOCK, NVIC... */
    hspi->MspInitCallback(hspi);
#else
    /* Init the low level hardware : GPIO, CLOCK, NVIC... */
    HAL_SPI_MspInit(hspi);
 800182a:	6878      	ldr	r0, [r7, #4]
 800182c:	f7fe ff9c 	bl	8000768 <HAL_SPI_MspInit>
#endif /* USE_HAL_SPI_REGISTER_CALLBACKS */
  }

  hspi->State = HAL_SPI_STATE_BUSY;
 8001830:	687b      	ldr	r3, [r7, #4]
 8001832:	2202      	movs	r2, #2
 8001834:	f883 2051 	strb.w	r2, [r3, #81]	; 0x51

  /* Disable the selected SPI peripheral */
  __HAL_SPI_DISABLE(hspi);
 8001838:	687b      	ldr	r3, [r7, #4]
 800183a:	681b      	ldr	r3, [r3, #0]
 800183c:	681a      	ldr	r2, [r3, #0]
 800183e:	687b      	ldr	r3, [r7, #4]
 8001840:	681b      	ldr	r3, [r3, #0]
 8001842:	f022 0240 	bic.w	r2, r2, #64	; 0x40
 8001846:	601a      	str	r2, [r3, #0]

  /*----------------------- SPIx CR1 & CR2 Configuration ---------------------*/
  /* Configure : SPI Mode, Communication Mode, Data size, Clock polarity and phase, NSS management,
  Communication speed, First bit and CRC calculation state */
  WRITE_REG(hspi->Instance->CR1, ((hspi->Init.Mode & (SPI_CR1_MSTR | SPI_CR1_SSI)) |
 8001848:	687b      	ldr	r3, [r7, #4]
 800184a:	685b      	ldr	r3, [r3, #4]
 800184c:	f403 7282 	and.w	r2, r3, #260	; 0x104
 8001850:	687b      	ldr	r3, [r7, #4]
 8001852:	689b      	ldr	r3, [r3, #8]
 8001854:	f403 4304 	and.w	r3, r3, #33792	; 0x8400
 8001858:	431a      	orrs	r2, r3
 800185a:	687b      	ldr	r3, [r7, #4]
 800185c:	68db      	ldr	r3, [r3, #12]
 800185e:	f403 6300 	and.w	r3, r3, #2048	; 0x800
 8001862:	431a      	orrs	r2, r3
 8001864:	687b      	ldr	r3, [r7, #4]
 8001866:	691b      	ldr	r3, [r3, #16]
 8001868:	f003 0302 	and.w	r3, r3, #2
 800186c:	431a      	orrs	r2, r3
 800186e:	687b      	ldr	r3, [r7, #4]
 8001870:	695b      	ldr	r3, [r3, #20]
 8001872:	f003 0301 	and.w	r3, r3, #1
 8001876:	431a      	orrs	r2, r3
 8001878:	687b      	ldr	r3, [r7, #4]
 800187a:	699b      	ldr	r3, [r3, #24]
 800187c:	f403 7300 	and.w	r3, r3, #512	; 0x200
 8001880:	431a      	orrs	r2, r3
 8001882:	687b      	ldr	r3, [r7, #4]
 8001884:	69db      	ldr	r3, [r3, #28]
 8001886:	f003 0338 	and.w	r3, r3, #56	; 0x38
 800188a:	431a      	orrs	r2, r3
 800188c:	687b      	ldr	r3, [r7, #4]
 800188e:	6a1b      	ldr	r3, [r3, #32]
 8001890:	f003 0380 	and.w	r3, r3, #128	; 0x80
 8001894:	ea42 0103 	orr.w	r1, r2, r3
 8001898:	687b      	ldr	r3, [r7, #4]
 800189a:	6a9b      	ldr	r3, [r3, #40]	; 0x28
 800189c:	f403 5200 	and.w	r2, r3, #8192	; 0x2000
 80018a0:	687b      	ldr	r3, [r7, #4]
 80018a2:	681b      	ldr	r3, [r3, #0]
 80018a4:	430a      	orrs	r2, r1
 80018a6:	601a      	str	r2, [r3, #0]
                                  (hspi->Init.BaudRatePrescaler & SPI_CR1_BR_Msk) |
                                  (hspi->Init.FirstBit  & SPI_CR1_LSBFIRST) |
                                  (hspi->Init.CRCCalculation & SPI_CR1_CRCEN)));

  /* Configure : NSS management, TI Mode */
  WRITE_REG(hspi->Instance->CR2, (((hspi->Init.NSS >> 16U) & SPI_CR2_SSOE) | (hspi->Init.TIMode & SPI_CR2_FRF)));
 80018a8:	687b      	ldr	r3, [r7, #4]
 80018aa:	699b      	ldr	r3, [r3, #24]
 80018ac:	0c1b      	lsrs	r3, r3, #16
 80018ae:	f003 0104 	and.w	r1, r3, #4
 80018b2:	687b      	ldr	r3, [r7, #4]
 80018b4:	6a5b      	ldr	r3, [r3, #36]	; 0x24
 80018b6:	f003 0210 	and.w	r2, r3, #16
 80018ba:	687b      	ldr	r3, [r7, #4]
 80018bc:	681b      	ldr	r3, [r3, #0]
 80018be:	430a      	orrs	r2, r1
 80018c0:	605a      	str	r2, [r3, #4]
  }
#endif /* USE_SPI_CRC */

#if defined(SPI_I2SCFGR_I2SMOD)
  /* Activate the SPI mode (Make sure that I2SMOD bit in I2SCFGR register is reset) */
  CLEAR_BIT(hspi->Instance->I2SCFGR, SPI_I2SCFGR_I2SMOD);
 80018c2:	687b      	ldr	r3, [r7, #4]
 80018c4:	681b      	ldr	r3, [r3, #0]
 80018c6:	69da      	ldr	r2, [r3, #28]
 80018c8:	687b      	ldr	r3, [r7, #4]
 80018ca:	681b      	ldr	r3, [r3, #0]
 80018cc:	f422 6200 	bic.w	r2, r2, #2048	; 0x800
 80018d0:	61da      	str	r2, [r3, #28]
#endif /* SPI_I2SCFGR_I2SMOD */

  hspi->ErrorCode = HAL_SPI_ERROR_NONE;
 80018d2:	687b      	ldr	r3, [r7, #4]
 80018d4:	2200      	movs	r2, #0
 80018d6:	655a      	str	r2, [r3, #84]	; 0x54
  hspi->State     = HAL_SPI_STATE_READY;
 80018d8:	687b      	ldr	r3, [r7, #4]
 80018da:	2201      	movs	r2, #1
 80018dc:	f883 2051 	strb.w	r2, [r3, #81]	; 0x51

  return HAL_OK;
 80018e0:	2300      	movs	r3, #0
}
 80018e2:	4618      	mov	r0, r3
 80018e4:	3708      	adds	r7, #8
 80018e6:	46bd      	mov	sp, r7
 80018e8:	bd80      	pop	{r7, pc}

080018ea <HAL_SPI_TransmitReceive>:
  * @param  Timeout Timeout duration
  * @retval HAL status
  */
HAL_StatusTypeDef HAL_SPI_TransmitReceive(SPI_HandleTypeDef *hspi, uint8_t *pTxData, uint8_t *pRxData, uint16_t Size,
                                          uint32_t Timeout)
{
 80018ea:	b580      	push	{r7, lr}
 80018ec:	b08c      	sub	sp, #48	; 0x30
 80018ee:	af00      	add	r7, sp, #0
 80018f0:	60f8      	str	r0, [r7, #12]
 80018f2:	60b9      	str	r1, [r7, #8]
 80018f4:	607a      	str	r2, [r7, #4]
 80018f6:	807b      	strh	r3, [r7, #2]
#if (USE_SPI_CRC != 0U)
  __IO uint32_t tmpreg = 0U;
#endif /* USE_SPI_CRC */

  /* Variable used to alternate Rx and Tx during transfer */
  uint32_t             txallowed = 1U;
 80018f8:	2301      	movs	r3, #1
 80018fa:	62fb      	str	r3, [r7, #44]	; 0x2c
  HAL_StatusTypeDef    errorcode = HAL_OK;
 80018fc:	2300      	movs	r3, #0
 80018fe:	f887 302b 	strb.w	r3, [r7, #43]	; 0x2b

  /* Check Direction parameter */
  assert_param(IS_SPI_DIRECTION_2LINES(hspi->Init.Direction));

  /* Process Locked */
  __HAL_LOCK(hspi);
 8001902:	68fb      	ldr	r3, [r7, #12]
 8001904:	f893 3050 	ldrb.w	r3, [r3, #80]	; 0x50
 8001908:	2b01      	cmp	r3, #1
 800190a:	d101      	bne.n	8001910 <HAL_SPI_TransmitReceive+0x26>
 800190c:	2302      	movs	r3, #2
 800190e:	e18a      	b.n	8001c26 <HAL_SPI_TransmitReceive+0x33c>
 8001910:	68fb      	ldr	r3, [r7, #12]
 8001912:	2201      	movs	r2, #1
 8001914:	f883 2050 	strb.w	r2, [r3, #80]	; 0x50

  /* Init tickstart for timeout management*/
  tickstart = HAL_GetTick();
 8001918:	f7ff f890 	bl	8000a3c <HAL_GetTick>
 800191c:	6278      	str	r0, [r7, #36]	; 0x24

  /* Init temporary variables */
  tmp_state           = hspi->State;
 800191e:	68fb      	ldr	r3, [r7, #12]
 8001920:	f893 3051 	ldrb.w	r3, [r3, #81]	; 0x51
 8001924:	f887 3023 	strb.w	r3, [r7, #35]	; 0x23
  tmp_mode            = hspi->Init.Mode;
 8001928:	68fb      	ldr	r3, [r7, #12]
 800192a:	685b      	ldr	r3, [r3, #4]
 800192c:	61fb      	str	r3, [r7, #28]
  initial_TxXferCount = Size;
 800192e:	887b      	ldrh	r3, [r7, #2]
 8001930:	837b      	strh	r3, [r7, #26]

  if (!((tmp_state == HAL_SPI_STATE_READY) || \
 8001932:	f897 3023 	ldrb.w	r3, [r7, #35]	; 0x23
 8001936:	2b01      	cmp	r3, #1
 8001938:	d00f      	beq.n	800195a <HAL_SPI_TransmitReceive+0x70>
 800193a:	69fb      	ldr	r3, [r7, #28]
 800193c:	f5b3 7f82 	cmp.w	r3, #260	; 0x104
 8001940:	d107      	bne.n	8001952 <HAL_SPI_TransmitReceive+0x68>
        ((tmp_mode == SPI_MODE_MASTER) && (hspi->Init.Direction == SPI_DIRECTION_2LINES) && (tmp_state == HAL_SPI_STATE_BUSY_RX))))
 8001942:	68fb      	ldr	r3, [r7, #12]
 8001944:	689b      	ldr	r3, [r3, #8]
 8001946:	2b00      	cmp	r3, #0
 8001948:	d103      	bne.n	8001952 <HAL_SPI_TransmitReceive+0x68>
 800194a:	f897 3023 	ldrb.w	r3, [r7, #35]	; 0x23
 800194e:	2b04      	cmp	r3, #4
 8001950:	d003      	beq.n	800195a <HAL_SPI_TransmitReceive+0x70>
  {
    errorcode = HAL_BUSY;
 8001952:	2302      	movs	r3, #2
 8001954:	f887 302b 	strb.w	r3, [r7, #43]	; 0x2b
    goto error;
 8001958:	e15b      	b.n	8001c12 <HAL_SPI_TransmitReceive+0x328>
  }

  if ((pTxData == NULL) || (pRxData == NULL) || (Size == 0U))
 800195a:	68bb      	ldr	r3, [r7, #8]
 800195c:	2b00      	cmp	r3, #0
 800195e:	d005      	beq.n	800196c <HAL_SPI_TransmitReceive+0x82>
 8001960:	687b      	ldr	r3, [r7, #4]
 8001962:	2b00      	cmp	r3, #0
 8001964:	d002      	beq.n	800196c <HAL_SPI_TransmitReceive+0x82>
 8001966:	887b      	ldrh	r3, [r7, #2]
 8001968:	2b00      	cmp	r3, #0
 800196a:	d103      	bne.n	8001974 <HAL_SPI_TransmitReceive+0x8a>
  {
    errorcode = HAL_ERROR;
 800196c:	2301      	movs	r3, #1
 800196e:	f887 302b 	strb.w	r3, [r7, #43]	; 0x2b
    goto error;
 8001972:	e14e      	b.n	8001c12 <HAL_SPI_TransmitReceive+0x328>
  }

  /* Don't overwrite in case of HAL_SPI_STATE_BUSY_RX */
  if (hspi->State != HAL_SPI_STATE_BUSY_RX)
 8001974:	68fb      	ldr	r3, [r7, #12]
 8001976:	f893 3051 	ldrb.w	r3, [r3, #81]	; 0x51
 800197a:	b2db      	uxtb	r3, r3
 800197c:	2b04      	cmp	r3, #4
 800197e:	d003      	beq.n	8001988 <HAL_SPI_TransmitReceive+0x9e>
  {
    hspi->State = HAL_SPI_STATE_BUSY_TX_RX;
 8001980:	68fb      	ldr	r3, [r7, #12]
 8001982:	2205      	movs	r2, #5
 8001984:	f883 2051 	strb.w	r2, [r3, #81]	; 0x51
  }

  /* Set the transaction information */
  hspi->ErrorCode   = HAL_SPI_ERROR_NONE;
 8001988:	68fb      	ldr	r3, [r7, #12]
 800198a:	2200      	movs	r2, #0
 800198c:	655a      	str	r2, [r3, #84]	; 0x54
  hspi->pRxBuffPtr  = (uint8_t *)pRxData;
 800198e:	68fb      	ldr	r3, [r7, #12]
 8001990:	687a      	ldr	r2, [r7, #4]
 8001992:	639a      	str	r2, [r3, #56]	; 0x38
  hspi->RxXferCount = Size;
 8001994:	68fb      	ldr	r3, [r7, #12]
 8001996:	887a      	ldrh	r2, [r7, #2]
 8001998:	87da      	strh	r2, [r3, #62]	; 0x3e
  hspi->RxXferSize  = Size;
 800199a:	68fb      	ldr	r3, [r7, #12]
 800199c:	887a      	ldrh	r2, [r7, #2]
 800199e:	879a      	strh	r2, [r3, #60]	; 0x3c
  hspi->pTxBuffPtr  = (uint8_t *)pTxData;
 80019a0:	68fb      	ldr	r3, [r7, #12]
 80019a2:	68ba      	ldr	r2, [r7, #8]
 80019a4:	631a      	str	r2, [r3, #48]	; 0x30
  hspi->TxXferCount = Size;
 80019a6:	68fb      	ldr	r3, [r7, #12]
 80019a8:	887a      	ldrh	r2, [r7, #2]
 80019aa:	86da      	strh	r2, [r3, #54]	; 0x36
  hspi->TxXferSize  = Size;
 80019ac:	68fb      	ldr	r3, [r7, #12]
 80019ae:	887a      	ldrh	r2, [r7, #2]
 80019b0:	869a      	strh	r2, [r3, #52]	; 0x34

  /*Init field not used in handle to zero */
  hspi->RxISR       = NULL;
 80019b2:	68fb      	ldr	r3, [r7, #12]
 80019b4:	2200      	movs	r2, #0
 80019b6:	641a      	str	r2, [r3, #64]	; 0x40
  hspi->TxISR       = NULL;
 80019b8:	68fb      	ldr	r3, [r7, #12]
 80019ba:	2200      	movs	r2, #0
 80019bc:	645a      	str	r2, [r3, #68]	; 0x44
    SPI_RESET_CRC(hspi);
  }
#endif /* USE_SPI_CRC */

  /* Check if the SPI is already enabled */
  if ((hspi->Instance->CR1 & SPI_CR1_SPE) != SPI_CR1_SPE)
 80019be:	68fb      	ldr	r3, [r7, #12]
 80019c0:	681b      	ldr	r3, [r3, #0]
 80019c2:	681b      	ldr	r3, [r3, #0]
 80019c4:	f003 0340 	and.w	r3, r3, #64	; 0x40
 80019c8:	2b40      	cmp	r3, #64	; 0x40
 80019ca:	d007      	beq.n	80019dc <HAL_SPI_TransmitReceive+0xf2>
  {
    /* Enable SPI peripheral */
    __HAL_SPI_ENABLE(hspi);
 80019cc:	68fb      	ldr	r3, [r7, #12]
 80019ce:	681b      	ldr	r3, [r3, #0]
 80019d0:	681a      	ldr	r2, [r3, #0]
 80019d2:	68fb      	ldr	r3, [r7, #12]
 80019d4:	681b      	ldr	r3, [r3, #0]
 80019d6:	f042 0240 	orr.w	r2, r2, #64	; 0x40
 80019da:	601a      	str	r2, [r3, #0]
  }

  /* Transmit and Receive data in 16 Bit mode */
  if (hspi->Init.DataSize == SPI_DATASIZE_16BIT)
 80019dc:	68fb      	ldr	r3, [r7, #12]
 80019de:	68db      	ldr	r3, [r3, #12]
 80019e0:	f5b3 6f00 	cmp.w	r3, #2048	; 0x800
 80019e4:	d178      	bne.n	8001ad8 <HAL_SPI_TransmitReceive+0x1ee>
  {
    if ((hspi->Init.Mode == SPI_MODE_SLAVE) || (initial_TxXferCount == 0x01U))
 80019e6:	68fb      	ldr	r3, [r7, #12]
 80019e8:	685b      	ldr	r3, [r3, #4]
 80019ea:	2b00      	cmp	r3, #0
 80019ec:	d002      	beq.n	80019f4 <HAL_SPI_TransmitReceive+0x10a>
 80019ee:	8b7b      	ldrh	r3, [r7, #26]
 80019f0:	2b01      	cmp	r3, #1
 80019f2:	d166      	bne.n	8001ac2 <HAL_SPI_TransmitReceive+0x1d8>
    {
      hspi->Instance->DR = *((uint16_t *)hspi->pTxBuffPtr);
 80019f4:	68fb      	ldr	r3, [r7, #12]
 80019f6:	6b1b      	ldr	r3, [r3, #48]	; 0x30
 80019f8:	881a      	ldrh	r2, [r3, #0]
 80019fa:	68fb      	ldr	r3, [r7, #12]
 80019fc:	681b      	ldr	r3, [r3, #0]
 80019fe:	60da      	str	r2, [r3, #12]
      hspi->pTxBuffPtr += sizeof(uint16_t);
 8001a00:	68fb      	ldr	r3, [r7, #12]
 8001a02:	6b1b      	ldr	r3, [r3, #48]	; 0x30
 8001a04:	1c9a      	adds	r2, r3, #2
 8001a06:	68fb      	ldr	r3, [r7, #12]
 8001a08:	631a      	str	r2, [r3, #48]	; 0x30
      hspi->TxXferCount--;
 8001a0a:	68fb      	ldr	r3, [r7, #12]
 8001a0c:	8edb      	ldrh	r3, [r3, #54]	; 0x36
 8001a0e:	b29b      	uxth	r3, r3
 8001a10:	3b01      	subs	r3, #1
 8001a12:	b29a      	uxth	r2, r3
 8001a14:	68fb      	ldr	r3, [r7, #12]
 8001a16:	86da      	strh	r2, [r3, #54]	; 0x36
    }
    while ((hspi->TxXferCount > 0U) || (hspi->RxXferCount > 0U))
 8001a18:	e053      	b.n	8001ac2 <HAL_SPI_TransmitReceive+0x1d8>
    {
      /* Check TXE flag */
      if ((__HAL_SPI_GET_FLAG(hspi, SPI_FLAG_TXE)) && (hspi->TxXferCount > 0U) && (txallowed == 1U))
 8001a1a:	68fb      	ldr	r3, [r7, #12]
 8001a1c:	681b      	ldr	r3, [r3, #0]
 8001a1e:	689b      	ldr	r3, [r3, #8]
 8001a20:	f003 0302 	and.w	r3, r3, #2
 8001a24:	2b02      	cmp	r3, #2
 8001a26:	d11b      	bne.n	8001a60 <HAL_SPI_TransmitReceive+0x176>
 8001a28:	68fb      	ldr	r3, [r7, #12]
 8001a2a:	8edb      	ldrh	r3, [r3, #54]	; 0x36
 8001a2c:	b29b      	uxth	r3, r3
 8001a2e:	2b00      	cmp	r3, #0
 8001a30:	d016      	beq.n	8001a60 <HAL_SPI_TransmitReceive+0x176>
 8001a32:	6afb      	ldr	r3, [r7, #44]	; 0x2c
 8001a34:	2b01      	cmp	r3, #1
 8001a36:	d113      	bne.n	8001a60 <HAL_SPI_TransmitReceive+0x176>
      {
        hspi->Instance->DR = *((uint16_t *)hspi->pTxBuffPtr);
 8001a38:	68fb      	ldr	r3, [r7, #12]
 8001a3a:	6b1b      	ldr	r3, [r3, #48]	; 0x30
 8001a3c:	881a      	ldrh	r2, [r3, #0]
 8001a3e:	68fb      	ldr	r3, [r7, #12]
 8001a40:	681b      	ldr	r3, [r3, #0]
 8001a42:	60da      	str	r2, [r3, #12]
        hspi->pTxBuffPtr += sizeof(uint16_t);
 8001a44:	68fb      	ldr	r3, [r7, #12]
 8001a46:	6b1b      	ldr	r3, [r3, #48]	; 0x30
 8001a48:	1c9a      	adds	r2, r3, #2
 8001a4a:	68fb      	ldr	r3, [r7, #12]
 8001a4c:	631a      	str	r2, [r3, #48]	; 0x30
        hspi->TxXferCount--;
 8001a4e:	68fb      	ldr	r3, [r7, #12]
 8001a50:	8edb      	ldrh	r3, [r3, #54]	; 0x36
 8001a52:	b29b      	uxth	r3, r3
 8001a54:	3b01      	subs	r3, #1
 8001a56:	b29a      	uxth	r2, r3
 8001a58:	68fb      	ldr	r3, [r7, #12]
 8001a5a:	86da      	strh	r2, [r3, #54]	; 0x36
        /* Next Data is a reception (Rx). Tx not allowed */
        txallowed = 0U;
 8001a5c:	2300      	movs	r3, #0
 8001a5e:	62fb      	str	r3, [r7, #44]	; 0x2c
        }
#endif /* USE_SPI_CRC */
      }

      /* Check RXNE flag */
      if ((__HAL_SPI_GET_FLAG(hspi, SPI_FLAG_RXNE)) && (hspi->RxXferCount > 0U))
 8001a60:	68fb      	ldr	r3, [r7, #12]
 8001a62:	681b      	ldr	r3, [r3, #0]
 8001a64:	689b      	ldr	r3, [r3, #8]
 8001a66:	f003 0301 	and.w	r3, r3, #1
 8001a6a:	2b01      	cmp	r3, #1
 8001a6c:	d119      	bne.n	8001aa2 <HAL_SPI_TransmitReceive+0x1b8>
 8001a6e:	68fb      	ldr	r3, [r7, #12]
 8001a70:	8fdb      	ldrh	r3, [r3, #62]	; 0x3e
 8001a72:	b29b      	uxth	r3, r3
 8001a74:	2b00      	cmp	r3, #0
 8001a76:	d014      	beq.n	8001aa2 <HAL_SPI_TransmitReceive+0x1b8>
      {
        *((uint16_t *)hspi->pRxBuffPtr) = (uint16_t)hspi->Instance->DR;
 8001a78:	68fb      	ldr	r3, [r7, #12]
 8001a7a:	681b      	ldr	r3, [r3, #0]
 8001a7c:	68da      	ldr	r2, [r3, #12]
 8001a7e:	68fb      	ldr	r3, [r7, #12]
 8001a80:	6b9b      	ldr	r3, [r3, #56]	; 0x38
 8001a82:	b292      	uxth	r2, r2
 8001a84:	801a      	strh	r2, [r3, #0]
        hspi->pRxBuffPtr += sizeof(uint16_t);
 8001a86:	68fb      	ldr	r3, [r7, #12]
 8001a88:	6b9b      	ldr	r3, [r3, #56]	; 0x38
 8001a8a:	1c9a      	adds	r2, r3, #2
 8001a8c:	68fb      	ldr	r3, [r7, #12]
 8001a8e:	639a      	str	r2, [r3, #56]	; 0x38
        hspi->RxXferCount--;
 8001a90:	68fb      	ldr	r3, [r7, #12]
 8001a92:	8fdb      	ldrh	r3, [r3, #62]	; 0x3e
 8001a94:	b29b      	uxth	r3, r3
 8001a96:	3b01      	subs	r3, #1
 8001a98:	b29a      	uxth	r2, r3
 8001a9a:	68fb      	ldr	r3, [r7, #12]
 8001a9c:	87da      	strh	r2, [r3, #62]	; 0x3e
        /* Next Data is a Transmission (Tx). Tx is allowed */
        txallowed = 1U;
 8001a9e:	2301      	movs	r3, #1
 8001aa0:	62fb      	str	r3, [r7, #44]	; 0x2c
      }
      if (((HAL_GetTick() - tickstart) >=  Timeout) && (Timeout != HAL_MAX_DELAY))
 8001aa2:	f7fe ffcb 	bl	8000a3c <HAL_GetTick>
 8001aa6:	4602      	mov	r2, r0
 8001aa8:	6a7b      	ldr	r3, [r7, #36]	; 0x24
 8001aaa:	1ad3      	subs	r3, r2, r3
 8001aac:	6bba      	ldr	r2, [r7, #56]	; 0x38
 8001aae:	429a      	cmp	r2, r3
 8001ab0:	d807      	bhi.n	8001ac2 <HAL_SPI_TransmitReceive+0x1d8>
 8001ab2:	6bbb      	ldr	r3, [r7, #56]	; 0x38
 8001ab4:	f1b3 3fff 	cmp.w	r3, #4294967295
 8001ab8:	d003      	beq.n	8001ac2 <HAL_SPI_TransmitReceive+0x1d8>
      {
        errorcode = HAL_TIMEOUT;
 8001aba:	2303      	movs	r3, #3
 8001abc:	f887 302b 	strb.w	r3, [r7, #43]	; 0x2b
        goto error;
 8001ac0:	e0a7      	b.n	8001c12 <HAL_SPI_TransmitReceive+0x328>
    while ((hspi->TxXferCount > 0U) || (hspi->RxXferCount > 0U))
 8001ac2:	68fb      	ldr	r3, [r7, #12]
 8001ac4:	8edb      	ldrh	r3, [r3, #54]	; 0x36
 8001ac6:	b29b      	uxth	r3, r3
 8001ac8:	2b00      	cmp	r3, #0
 8001aca:	d1a6      	bne.n	8001a1a <HAL_SPI_TransmitReceive+0x130>
 8001acc:	68fb      	ldr	r3, [r7, #12]
 8001ace:	8fdb      	ldrh	r3, [r3, #62]	; 0x3e
 8001ad0:	b29b      	uxth	r3, r3
 8001ad2:	2b00      	cmp	r3, #0
 8001ad4:	d1a1      	bne.n	8001a1a <HAL_SPI_TransmitReceive+0x130>
 8001ad6:	e07c      	b.n	8001bd2 <HAL_SPI_TransmitReceive+0x2e8>
    }
  }
  /* Transmit and Receive data in 8 Bit mode */
  else
  {
    if ((hspi->Init.Mode == SPI_MODE_SLAVE) || (initial_TxXferCount == 0x01U))
 8001ad8:	68fb      	ldr	r3, [r7, #12]
 8001ada:	685b      	ldr	r3, [r3, #4]
 8001adc:	2b00      	cmp	r3, #0
 8001ade:	d002      	beq.n	8001ae6 <HAL_SPI_TransmitReceive+0x1fc>
 8001ae0:	8b7b      	ldrh	r3, [r7, #26]
 8001ae2:	2b01      	cmp	r3, #1
 8001ae4:	d16b      	bne.n	8001bbe <HAL_SPI_TransmitReceive+0x2d4>
    {
      *((__IO uint8_t *)&hspi->Instance->DR) = (*hspi->pTxBuffPtr);
 8001ae6:	68fb      	ldr	r3, [r7, #12]
 8001ae8:	6b1a      	ldr	r2, [r3, #48]	; 0x30
 8001aea:	68fb      	ldr	r3, [r7, #12]
 8001aec:	681b      	ldr	r3, [r3, #0]
 8001aee:	330c      	adds	r3, #12
 8001af0:	7812      	ldrb	r2, [r2, #0]
 8001af2:	701a      	strb	r2, [r3, #0]
      hspi->pTxBuffPtr += sizeof(uint8_t);
 8001af4:	68fb      	ldr	r3, [r7, #12]
 8001af6:	6b1b      	ldr	r3, [r3, #48]	; 0x30
 8001af8:	1c5a      	adds	r2, r3, #1
 8001afa:	68fb      	ldr	r3, [r7, #12]
 8001afc:	631a      	str	r2, [r3, #48]	; 0x30
      hspi->TxXferCount--;
 8001afe:	68fb      	ldr	r3, [r7, #12]
 8001b00:	8edb      	ldrh	r3, [r3, #54]	; 0x36
 8001b02:	b29b      	uxth	r3, r3
 8001b04:	3b01      	subs	r3, #1
 8001b06:	b29a      	uxth	r2, r3
 8001b08:	68fb      	ldr	r3, [r7, #12]
 8001b0a:	86da      	strh	r2, [r3, #54]	; 0x36
    }
    while ((hspi->TxXferCount > 0U) || (hspi->RxXferCount > 0U))
 8001b0c:	e057      	b.n	8001bbe <HAL_SPI_TransmitReceive+0x2d4>
    {
      /* Check TXE flag */
      if ((__HAL_SPI_GET_FLAG(hspi, SPI_FLAG_TXE)) && (hspi->TxXferCount > 0U) && (txallowed == 1U))
 8001b0e:	68fb      	ldr	r3, [r7, #12]
 8001b10:	681b      	ldr	r3, [r3, #0]
 8001b12:	689b      	ldr	r3, [r3, #8]
 8001b14:	f003 0302 	and.w	r3, r3, #2
 8001b18:	2b02      	cmp	r3, #2
 8001b1a:	d11c      	bne.n	8001b56 <HAL_SPI_TransmitReceive+0x26c>
 8001b1c:	68fb      	ldr	r3, [r7, #12]
 8001b1e:	8edb      	ldrh	r3, [r3, #54]	; 0x36
 8001b20:	b29b      	uxth	r3, r3
 8001b22:	2b00      	cmp	r3, #0
 8001b24:	d017      	beq.n	8001b56 <HAL_SPI_TransmitReceive+0x26c>
 8001b26:	6afb      	ldr	r3, [r7, #44]	; 0x2c
 8001b28:	2b01      	cmp	r3, #1
 8001b2a:	d114      	bne.n	8001b56 <HAL_SPI_TransmitReceive+0x26c>
      {
        *(__IO uint8_t *)&hspi->Instance->DR = (*hspi->pTxBuffPtr);
 8001b2c:	68fb      	ldr	r3, [r7, #12]
 8001b2e:	6b1a      	ldr	r2, [r3, #48]	; 0x30
 8001b30:	68fb      	ldr	r3, [r7, #12]
 8001b32:	681b      	ldr	r3, [r3, #0]
 8001b34:	330c      	adds	r3, #12
 8001b36:	7812      	ldrb	r2, [r2, #0]
 8001b38:	701a      	strb	r2, [r3, #0]
        hspi->pTxBuffPtr++;
 8001b3a:	68fb      	ldr	r3, [r7, #12]
 8001b3c:	6b1b      	ldr	r3, [r3, #48]	; 0x30
 8001b3e:	1c5a      	adds	r2, r3, #1
 8001b40:	68fb      	ldr	r3, [r7, #12]
 8001b42:	631a      	str	r2, [r3, #48]	; 0x30
        hspi->TxXferCount--;
 8001b44:	68fb      	ldr	r3, [r7, #12]
 8001b46:	8edb      	ldrh	r3, [r3, #54]	; 0x36
 8001b48:	b29b      	uxth	r3, r3
 8001b4a:	3b01      	subs	r3, #1
 8001b4c:	b29a      	uxth	r2, r3
 8001b4e:	68fb      	ldr	r3, [r7, #12]
 8001b50:	86da      	strh	r2, [r3, #54]	; 0x36
        /* Next Data is a reception (Rx). Tx not allowed */
        txallowed = 0U;
 8001b52:	2300      	movs	r3, #0
 8001b54:	62fb      	str	r3, [r7, #44]	; 0x2c
        }
#endif /* USE_SPI_CRC */
      }

      /* Wait until RXNE flag is reset */
      if ((__HAL_SPI_GET_FLAG(hspi, SPI_FLAG_RXNE)) && (hspi->RxXferCount > 0U))
 8001b56:	68fb      	ldr	r3, [r7, #12]
 8001b58:	681b      	ldr	r3, [r3, #0]
 8001b5a:	689b      	ldr	r3, [r3, #8]
 8001b5c:	f003 0301 	and.w	r3, r3, #1
 8001b60:	2b01      	cmp	r3, #1
 8001b62:	d119      	bne.n	8001b98 <HAL_SPI_TransmitReceive+0x2ae>
 8001b64:	68fb      	ldr	r3, [r7, #12]
 8001b66:	8fdb      	ldrh	r3, [r3, #62]	; 0x3e
 8001b68:	b29b      	uxth	r3, r3
 8001b6a:	2b00      	cmp	r3, #0
 8001b6c:	d014      	beq.n	8001b98 <HAL_SPI_TransmitReceive+0x2ae>
      {
        (*(uint8_t *)hspi->pRxBuffPtr) = hspi->Instance->DR;
 8001b6e:	68fb      	ldr	r3, [r7, #12]
 8001b70:	681b      	ldr	r3, [r3, #0]
 8001b72:	68da      	ldr	r2, [r3, #12]
 8001b74:	68fb      	ldr	r3, [r7, #12]
 8001b76:	6b9b      	ldr	r3, [r3, #56]	; 0x38
 8001b78:	b2d2      	uxtb	r2, r2
 8001b7a:	701a      	strb	r2, [r3, #0]
        hspi->pRxBuffPtr++;
 8001b7c:	68fb      	ldr	r3, [r7, #12]
 8001b7e:	6b9b      	ldr	r3, [r3, #56]	; 0x38
 8001b80:	1c5a      	adds	r2, r3, #1
 8001b82:	68fb      	ldr	r3, [r7, #12]
 8001b84:	639a      	str	r2, [r3, #56]	; 0x38
        hspi->RxXferCount--;
 8001b86:	68fb      	ldr	r3, [r7, #12]
 8001b88:	8fdb      	ldrh	r3, [r3, #62]	; 0x3e
 8001b8a:	b29b      	uxth	r3, r3
 8001b8c:	3b01      	subs	r3, #1
 8001b8e:	b29a      	uxth	r2, r3
 8001b90:	68fb      	ldr	r3, [r7, #12]
 8001b92:	87da      	strh	r2, [r3, #62]	; 0x3e
        /* Next Data is a Transmission (Tx). Tx is allowed */
        txallowed = 1U;
 8001b94:	2301      	movs	r3, #1
 8001b96:	62fb      	str	r3, [r7, #44]	; 0x2c
      }
      if ((((HAL_GetTick() - tickstart) >=  Timeout) && ((Timeout != HAL_MAX_DELAY))) || (Timeout == 0U))
 8001b98:	f7fe ff50 	bl	8000a3c <HAL_GetTick>
 8001b9c:	4602      	mov	r2, r0
 8001b9e:	6a7b      	ldr	r3, [r7, #36]	; 0x24
 8001ba0:	1ad3      	subs	r3, r2, r3
 8001ba2:	6bba      	ldr	r2, [r7, #56]	; 0x38
 8001ba4:	429a      	cmp	r2, r3
 8001ba6:	d803      	bhi.n	8001bb0 <HAL_SPI_TransmitReceive+0x2c6>
 8001ba8:	6bbb      	ldr	r3, [r7, #56]	; 0x38
 8001baa:	f1b3 3fff 	cmp.w	r3, #4294967295
 8001bae:	d102      	bne.n	8001bb6 <HAL_SPI_TransmitReceive+0x2cc>
 8001bb0:	6bbb      	ldr	r3, [r7, #56]	; 0x38
 8001bb2:	2b00      	cmp	r3, #0
 8001bb4:	d103      	bne.n	8001bbe <HAL_SPI_TransmitReceive+0x2d4>
      {
        errorcode = HAL_TIMEOUT;
 8001bb6:	2303      	movs	r3, #3
 8001bb8:	f887 302b 	strb.w	r3, [r7, #43]	; 0x2b
        goto error;
 8001bbc:	e029      	b.n	8001c12 <HAL_SPI_TransmitReceive+0x328>
    while ((hspi->TxXferCount > 0U) || (hspi->RxXferCount > 0U))
 8001bbe:	68fb      	ldr	r3, [r7, #12]
 8001bc0:	8edb      	ldrh	r3, [r3, #54]	; 0x36
 8001bc2:	b29b      	uxth	r3, r3
 8001bc4:	2b00      	cmp	r3, #0
 8001bc6:	d1a2      	bne.n	8001b0e <HAL_SPI_TransmitReceive+0x224>
 8001bc8:	68fb      	ldr	r3, [r7, #12]
 8001bca:	8fdb      	ldrh	r3, [r3, #62]	; 0x3e
 8001bcc:	b29b      	uxth	r3, r3
 8001bce:	2b00      	cmp	r3, #0
 8001bd0:	d19d      	bne.n	8001b0e <HAL_SPI_TransmitReceive+0x224>
    errorcode = HAL_ERROR;
  }
#endif /* USE_SPI_CRC */

  /* Check the end of the transaction */
  if (SPI_EndRxTxTransaction(hspi, Timeout, tickstart) != HAL_OK)
 8001bd2:	6a7a      	ldr	r2, [r7, #36]	; 0x24
 8001bd4:	6bb9      	ldr	r1, [r7, #56]	; 0x38
 8001bd6:	68f8      	ldr	r0, [r7, #12]
 8001bd8:	f000 f8b2 	bl	8001d40 <SPI_EndRxTxTransaction>
 8001bdc:	4603      	mov	r3, r0
 8001bde:	2b00      	cmp	r3, #0
 8001be0:	d006      	beq.n	8001bf0 <HAL_SPI_TransmitReceive+0x306>
  {
    errorcode = HAL_ERROR;
 8001be2:	2301      	movs	r3, #1
 8001be4:	f887 302b 	strb.w	r3, [r7, #43]	; 0x2b
    hspi->ErrorCode = HAL_SPI_ERROR_FLAG;
 8001be8:	68fb      	ldr	r3, [r7, #12]
 8001bea:	2220      	movs	r2, #32
 8001bec:	655a      	str	r2, [r3, #84]	; 0x54
    goto error;
 8001bee:	e010      	b.n	8001c12 <HAL_SPI_TransmitReceive+0x328>
  }

  /* Clear overrun flag in 2 Lines communication mode because received is not read */
  if (hspi->Init.Direction == SPI_DIRECTION_2LINES)
 8001bf0:	68fb      	ldr	r3, [r7, #12]
 8001bf2:	689b      	ldr	r3, [r3, #8]
 8001bf4:	2b00      	cmp	r3, #0
 8001bf6:	d10b      	bne.n	8001c10 <HAL_SPI_TransmitReceive+0x326>
  {
    __HAL_SPI_CLEAR_OVRFLAG(hspi);
 8001bf8:	2300      	movs	r3, #0
 8001bfa:	617b      	str	r3, [r7, #20]
 8001bfc:	68fb      	ldr	r3, [r7, #12]
 8001bfe:	681b      	ldr	r3, [r3, #0]
 8001c00:	68db      	ldr	r3, [r3, #12]
 8001c02:	617b      	str	r3, [r7, #20]
 8001c04:	68fb      	ldr	r3, [r7, #12]
 8001c06:	681b      	ldr	r3, [r3, #0]
 8001c08:	689b      	ldr	r3, [r3, #8]
 8001c0a:	617b      	str	r3, [r7, #20]
 8001c0c:	697b      	ldr	r3, [r7, #20]
 8001c0e:	e000      	b.n	8001c12 <HAL_SPI_TransmitReceive+0x328>
  }

error :
 8001c10:	bf00      	nop
  hspi->State = HAL_SPI_STATE_READY;
 8001c12:	68fb      	ldr	r3, [r7, #12]
 8001c14:	2201      	movs	r2, #1
 8001c16:	f883 2051 	strb.w	r2, [r3, #81]	; 0x51
  __HAL_UNLOCK(hspi);
 8001c1a:	68fb      	ldr	r3, [r7, #12]
 8001c1c:	2200      	movs	r2, #0
 8001c1e:	f883 2050 	strb.w	r2, [r3, #80]	; 0x50
  return errorcode;
 8001c22:	f897 302b 	ldrb.w	r3, [r7, #43]	; 0x2b
}
 8001c26:	4618      	mov	r0, r3
 8001c28:	3730      	adds	r7, #48	; 0x30
 8001c2a:	46bd      	mov	sp, r7
 8001c2c:	bd80      	pop	{r7, pc}
	...

08001c30 <SPI_WaitFlagStateUntilTimeout>:
  * @param  Tickstart tick start value
  * @retval HAL status
  */
static HAL_StatusTypeDef SPI_WaitFlagStateUntilTimeout(SPI_HandleTypeDef *hspi, uint32_t Flag, FlagStatus State,
                                                       uint32_t Timeout, uint32_t Tickstart)
{
 8001c30:	b580      	push	{r7, lr}
 8001c32:	b088      	sub	sp, #32
 8001c34:	af00      	add	r7, sp, #0
 8001c36:	60f8      	str	r0, [r7, #12]
 8001c38:	60b9      	str	r1, [r7, #8]
 8001c3a:	603b      	str	r3, [r7, #0]
 8001c3c:	4613      	mov	r3, r2
 8001c3e:	71fb      	strb	r3, [r7, #7]
  __IO uint32_t count;
  uint32_t tmp_timeout;
  uint32_t tmp_tickstart;

  /* Adjust Timeout value  in case of end of transfer */
  tmp_timeout   = Timeout - (HAL_GetTick() - Tickstart);
 8001c40:	f7fe fefc 	bl	8000a3c <HAL_GetTick>
 8001c44:	4602      	mov	r2, r0
 8001c46:	6abb      	ldr	r3, [r7, #40]	; 0x28
 8001c48:	1a9b      	subs	r3, r3, r2
 8001c4a:	683a      	ldr	r2, [r7, #0]
 8001c4c:	4413      	add	r3, r2
 8001c4e:	61fb      	str	r3, [r7, #28]
  tmp_tickstart = HAL_GetTick();
 8001c50:	f7fe fef4 	bl	8000a3c <HAL_GetTick>
 8001c54:	61b8      	str	r0, [r7, #24]

  /* Calculate Timeout based on a software loop to avoid blocking issue if Systick is disabled */
  count = tmp_timeout * ((SystemCoreClock * 32U) >> 20U);
 8001c56:	4b39      	ldr	r3, [pc, #228]	; (8001d3c <SPI_WaitFlagStateUntilTimeout+0x10c>)
 8001c58:	681b      	ldr	r3, [r3, #0]
 8001c5a:	015b      	lsls	r3, r3, #5
 8001c5c:	0d1b      	lsrs	r3, r3, #20
 8001c5e:	69fa      	ldr	r2, [r7, #28]
 8001c60:	fb02 f303 	mul.w	r3, r2, r3
 8001c64:	617b      	str	r3, [r7, #20]

  while ((__HAL_SPI_GET_FLAG(hspi, Flag) ? SET : RESET) != State)
 8001c66:	e054      	b.n	8001d12 <SPI_WaitFlagStateUntilTimeout+0xe2>
  {
    if (Timeout != HAL_MAX_DELAY)
 8001c68:	683b      	ldr	r3, [r7, #0]
 8001c6a:	f1b3 3fff 	cmp.w	r3, #4294967295
 8001c6e:	d050      	beq.n	8001d12 <SPI_WaitFlagStateUntilTimeout+0xe2>
    {
      if (((HAL_GetTick() - tmp_tickstart) >= tmp_timeout) || (tmp_timeout == 0U))
 8001c70:	f7fe fee4 	bl	8000a3c <HAL_GetTick>
 8001c74:	4602      	mov	r2, r0
 8001c76:	69bb      	ldr	r3, [r7, #24]
 8001c78:	1ad3      	subs	r3, r2, r3
 8001c7a:	69fa      	ldr	r2, [r7, #28]
 8001c7c:	429a      	cmp	r2, r3
 8001c7e:	d902      	bls.n	8001c86 <SPI_WaitFlagStateUntilTimeout+0x56>
 8001c80:	69fb      	ldr	r3, [r7, #28]
 8001c82:	2b00      	cmp	r3, #0
 8001c84:	d13d      	bne.n	8001d02 <SPI_WaitFlagStateUntilTimeout+0xd2>
        /* Disable the SPI and reset the CRC: the CRC value should be cleared
           on both master and slave sides in order to resynchronize the master
           and slave for their respective CRC calculation */

        /* Disable TXE, RXNE and ERR interrupts for the interrupt process */
        __HAL_SPI_DISABLE_IT(hspi, (SPI_IT_TXE | SPI_IT_RXNE | SPI_IT_ERR));
 8001c86:	68fb      	ldr	r3, [r7, #12]
 8001c88:	681b      	ldr	r3, [r3, #0]
 8001c8a:	685a      	ldr	r2, [r3, #4]
 8001c8c:	68fb      	ldr	r3, [r7, #12]
 8001c8e:	681b      	ldr	r3, [r3, #0]
 8001c90:	f022 02e0 	bic.w	r2, r2, #224	; 0xe0
 8001c94:	605a      	str	r2, [r3, #4]

        if ((hspi->Init.Mode == SPI_MODE_MASTER) && ((hspi->Init.Direction == SPI_DIRECTION_1LINE)
 8001c96:	68fb      	ldr	r3, [r7, #12]
 8001c98:	685b      	ldr	r3, [r3, #4]
 8001c9a:	f5b3 7f82 	cmp.w	r3, #260	; 0x104
 8001c9e:	d111      	bne.n	8001cc4 <SPI_WaitFlagStateUntilTimeout+0x94>
 8001ca0:	68fb      	ldr	r3, [r7, #12]
 8001ca2:	689b      	ldr	r3, [r3, #8]
 8001ca4:	f5b3 4f00 	cmp.w	r3, #32768	; 0x8000
 8001ca8:	d004      	beq.n	8001cb4 <SPI_WaitFlagStateUntilTimeout+0x84>
                                                     || (hspi->Init.Direction == SPI_DIRECTION_2LINES_RXONLY)))
 8001caa:	68fb      	ldr	r3, [r7, #12]
 8001cac:	689b      	ldr	r3, [r3, #8]
 8001cae:	f5b3 6f80 	cmp.w	r3, #1024	; 0x400
 8001cb2:	d107      	bne.n	8001cc4 <SPI_WaitFlagStateUntilTimeout+0x94>
        {
          /* Disable SPI peripheral */
          __HAL_SPI_DISABLE(hspi);
 8001cb4:	68fb      	ldr	r3, [r7, #12]
 8001cb6:	681b      	ldr	r3, [r3, #0]
 8001cb8:	681a      	ldr	r2, [r3, #0]
 8001cba:	68fb      	ldr	r3, [r7, #12]
 8001cbc:	681b      	ldr	r3, [r3, #0]
 8001cbe:	f022 0240 	bic.w	r2, r2, #64	; 0x40
 8001cc2:	601a      	str	r2, [r3, #0]
        }

        /* Reset CRC Calculation */
        if (hspi->Init.CRCCalculation == SPI_CRCCALCULATION_ENABLE)
 8001cc4:	68fb      	ldr	r3, [r7, #12]
 8001cc6:	6a9b      	ldr	r3, [r3, #40]	; 0x28
 8001cc8:	f5b3 5f00 	cmp.w	r3, #8192	; 0x2000
 8001ccc:	d10f      	bne.n	8001cee <SPI_WaitFlagStateUntilTimeout+0xbe>
        {
          SPI_RESET_CRC(hspi);
 8001cce:	68fb      	ldr	r3, [r7, #12]
 8001cd0:	681b      	ldr	r3, [r3, #0]
 8001cd2:	681a      	ldr	r2, [r3, #0]
 8001cd4:	68fb      	ldr	r3, [r7, #12]
 8001cd6:	681b      	ldr	r3, [r3, #0]
 8001cd8:	f422 5200 	bic.w	r2, r2, #8192	; 0x2000
 8001cdc:	601a      	str	r2, [r3, #0]
 8001cde:	68fb      	ldr	r3, [r7, #12]
 8001ce0:	681b      	ldr	r3, [r3, #0]
 8001ce2:	681a      	ldr	r2, [r3, #0]
 8001ce4:	68fb      	ldr	r3, [r7, #12]
 8001ce6:	681b      	ldr	r3, [r3, #0]
 8001ce8:	f442 5200 	orr.w	r2, r2, #8192	; 0x2000
 8001cec:	601a      	str	r2, [r3, #0]
        }

        hspi->State = HAL_SPI_STATE_READY;
 8001cee:	68fb      	ldr	r3, [r7, #12]
 8001cf0:	2201      	movs	r2, #1
 8001cf2:	f883 2051 	strb.w	r2, [r3, #81]	; 0x51

        /* Process Unlocked */
        __HAL_UNLOCK(hspi);
 8001cf6:	68fb      	ldr	r3, [r7, #12]
 8001cf8:	2200      	movs	r2, #0
 8001cfa:	f883 2050 	strb.w	r2, [r3, #80]	; 0x50

        return HAL_TIMEOUT;
 8001cfe:	2303      	movs	r3, #3
 8001d00:	e017      	b.n	8001d32 <SPI_WaitFlagStateUntilTimeout+0x102>
      }
      /* If Systick is disabled or not incremented, deactivate timeout to go in disable loop procedure */
      if(count == 0U)
 8001d02:	697b      	ldr	r3, [r7, #20]
 8001d04:	2b00      	cmp	r3, #0
 8001d06:	d101      	bne.n	8001d0c <SPI_WaitFlagStateUntilTimeout+0xdc>
      {
        tmp_timeout = 0U;
 8001d08:	2300      	movs	r3, #0
 8001d0a:	61fb      	str	r3, [r7, #28]
      }
      count--;
 8001d0c:	697b      	ldr	r3, [r7, #20]
 8001d0e:	3b01      	subs	r3, #1
 8001d10:	617b      	str	r3, [r7, #20]
  while ((__HAL_SPI_GET_FLAG(hspi, Flag) ? SET : RESET) != State)
 8001d12:	68fb      	ldr	r3, [r7, #12]
 8001d14:	681b      	ldr	r3, [r3, #0]
 8001d16:	689a      	ldr	r2, [r3, #8]
 8001d18:	68bb      	ldr	r3, [r7, #8]
 8001d1a:	4013      	ands	r3, r2
 8001d1c:	68ba      	ldr	r2, [r7, #8]
 8001d1e:	429a      	cmp	r2, r3
 8001d20:	bf0c      	ite	eq
 8001d22:	2301      	moveq	r3, #1
 8001d24:	2300      	movne	r3, #0
 8001d26:	b2db      	uxtb	r3, r3
 8001d28:	461a      	mov	r2, r3
 8001d2a:	79fb      	ldrb	r3, [r7, #7]
 8001d2c:	429a      	cmp	r2, r3
 8001d2e:	d19b      	bne.n	8001c68 <SPI_WaitFlagStateUntilTimeout+0x38>
    }
  }

  return HAL_OK;
 8001d30:	2300      	movs	r3, #0
}
 8001d32:	4618      	mov	r0, r3
 8001d34:	3720      	adds	r7, #32
 8001d36:	46bd      	mov	sp, r7
 8001d38:	bd80      	pop	{r7, pc}
 8001d3a:	bf00      	nop
 8001d3c:	20000000 	.word	0x20000000

08001d40 <SPI_EndRxTxTransaction>:
  * @param  Timeout Timeout duration
  * @param  Tickstart tick start value
  * @retval HAL status
  */
static HAL_StatusTypeDef SPI_EndRxTxTransaction(SPI_HandleTypeDef *hspi, uint32_t Timeout, uint32_t Tickstart)
{
 8001d40:	b580      	push	{r7, lr}
 8001d42:	b088      	sub	sp, #32
 8001d44:	af02      	add	r7, sp, #8
 8001d46:	60f8      	str	r0, [r7, #12]
 8001d48:	60b9      	str	r1, [r7, #8]
 8001d4a:	607a      	str	r2, [r7, #4]
  /* Timeout in µs */
  __IO uint32_t count = SPI_BSY_FLAG_WORKAROUND_TIMEOUT * (SystemCoreClock / 24U / 1000000U);
 8001d4c:	4b1b      	ldr	r3, [pc, #108]	; (8001dbc <SPI_EndRxTxTransaction+0x7c>)
 8001d4e:	681b      	ldr	r3, [r3, #0]
 8001d50:	4a1b      	ldr	r2, [pc, #108]	; (8001dc0 <SPI_EndRxTxTransaction+0x80>)
 8001d52:	fba2 2303 	umull	r2, r3, r2, r3
 8001d56:	0d5b      	lsrs	r3, r3, #21
 8001d58:	f44f 727a 	mov.w	r2, #1000	; 0x3e8
 8001d5c:	fb02 f303 	mul.w	r3, r2, r3
 8001d60:	617b      	str	r3, [r7, #20]
  /* Erratasheet: BSY bit may stay high at the end of a data transfer in Slave mode */
  if (hspi->Init.Mode == SPI_MODE_MASTER)
 8001d62:	68fb      	ldr	r3, [r7, #12]
 8001d64:	685b      	ldr	r3, [r3, #4]
 8001d66:	f5b3 7f82 	cmp.w	r3, #260	; 0x104
 8001d6a:	d112      	bne.n	8001d92 <SPI_EndRxTxTransaction+0x52>
  {
    /* Control the BSY flag */
    if (SPI_WaitFlagStateUntilTimeout(hspi, SPI_FLAG_BSY, RESET, Timeout, Tickstart) != HAL_OK)
 8001d6c:	687b      	ldr	r3, [r7, #4]
 8001d6e:	9300      	str	r3, [sp, #0]
 8001d70:	68bb      	ldr	r3, [r7, #8]
 8001d72:	2200      	movs	r2, #0
 8001d74:	2180      	movs	r1, #128	; 0x80
 8001d76:	68f8      	ldr	r0, [r7, #12]
 8001d78:	f7ff ff5a 	bl	8001c30 <SPI_WaitFlagStateUntilTimeout>
 8001d7c:	4603      	mov	r3, r0
 8001d7e:	2b00      	cmp	r3, #0
 8001d80:	d016      	beq.n	8001db0 <SPI_EndRxTxTransaction+0x70>
    {
      SET_BIT(hspi->ErrorCode, HAL_SPI_ERROR_FLAG);
 8001d82:	68fb      	ldr	r3, [r7, #12]
 8001d84:	6d5b      	ldr	r3, [r3, #84]	; 0x54
 8001d86:	f043 0220 	orr.w	r2, r3, #32
 8001d8a:	68fb      	ldr	r3, [r7, #12]
 8001d8c:	655a      	str	r2, [r3, #84]	; 0x54
      return HAL_TIMEOUT;
 8001d8e:	2303      	movs	r3, #3
 8001d90:	e00f      	b.n	8001db2 <SPI_EndRxTxTransaction+0x72>
    * User have to calculate the timeout value to fit with the time of 1 byte transfer.
    * This time is directly link with the SPI clock from Master device.
    */
    do
    {
      if (count == 0U)
 8001d92:	697b      	ldr	r3, [r7, #20]
 8001d94:	2b00      	cmp	r3, #0
 8001d96:	d00a      	beq.n	8001dae <SPI_EndRxTxTransaction+0x6e>
      {
        break;
      }
      count--;
 8001d98:	697b      	ldr	r3, [r7, #20]
 8001d9a:	3b01      	subs	r3, #1
 8001d9c:	617b      	str	r3, [r7, #20]
    } while (__HAL_SPI_GET_FLAG(hspi, SPI_FLAG_BSY) != RESET);
 8001d9e:	68fb      	ldr	r3, [r7, #12]
 8001da0:	681b      	ldr	r3, [r3, #0]
 8001da2:	689b      	ldr	r3, [r3, #8]
 8001da4:	f003 0380 	and.w	r3, r3, #128	; 0x80
 8001da8:	2b80      	cmp	r3, #128	; 0x80
 8001daa:	d0f2      	beq.n	8001d92 <SPI_EndRxTxTransaction+0x52>
 8001dac:	e000      	b.n	8001db0 <SPI_EndRxTxTransaction+0x70>
        break;
 8001dae:	bf00      	nop
  }

  return HAL_OK;
 8001db0:	2300      	movs	r3, #0
}
 8001db2:	4618      	mov	r0, r3
 8001db4:	3718      	adds	r7, #24
 8001db6:	46bd      	mov	sp, r7
 8001db8:	bd80      	pop	{r7, pc}
 8001dba:	bf00      	nop
 8001dbc:	20000000 	.word	0x20000000
 8001dc0:	165e9f81 	.word	0x165e9f81

08001dc4 <__libc_init_array>:
 8001dc4:	b570      	push	{r4, r5, r6, lr}
 8001dc6:	4d0d      	ldr	r5, [pc, #52]	; (8001dfc <__libc_init_array+0x38>)
 8001dc8:	4c0d      	ldr	r4, [pc, #52]	; (8001e00 <__libc_init_array+0x3c>)
 8001dca:	1b64      	subs	r4, r4, r5
 8001dcc:	10a4      	asrs	r4, r4, #2
 8001dce:	2600      	movs	r6, #0
 8001dd0:	42a6      	cmp	r6, r4
 8001dd2:	d109      	bne.n	8001de8 <__libc_init_array+0x24>
 8001dd4:	4d0b      	ldr	r5, [pc, #44]	; (8001e04 <__libc_init_array+0x40>)
 8001dd6:	4c0c      	ldr	r4, [pc, #48]	; (8001e08 <__libc_init_array+0x44>)
 8001dd8:	f000 f820 	bl	8001e1c <_init>
 8001ddc:	1b64      	subs	r4, r4, r5
 8001dde:	10a4      	asrs	r4, r4, #2
 8001de0:	2600      	movs	r6, #0
 8001de2:	42a6      	cmp	r6, r4
 8001de4:	d105      	bne.n	8001df2 <__libc_init_array+0x2e>
 8001de6:	bd70      	pop	{r4, r5, r6, pc}
 8001de8:	f855 3b04 	ldr.w	r3, [r5], #4
 8001dec:	4798      	blx	r3
 8001dee:	3601      	adds	r6, #1
 8001df0:	e7ee      	b.n	8001dd0 <__libc_init_array+0xc>
 8001df2:	f855 3b04 	ldr.w	r3, [r5], #4
 8001df6:	4798      	blx	r3
 8001df8:	3601      	adds	r6, #1
 8001dfa:	e7f2      	b.n	8001de2 <__libc_init_array+0x1e>
 8001dfc:	08001e4c 	.word	0x08001e4c
 8001e00:	08001e4c 	.word	0x08001e4c
 8001e04:	08001e4c 	.word	0x08001e4c
 8001e08:	08001e50 	.word	0x08001e50

08001e0c <memset>:
 8001e0c:	4402      	add	r2, r0
 8001e0e:	4603      	mov	r3, r0
 8001e10:	4293      	cmp	r3, r2
 8001e12:	d100      	bne.n	8001e16 <memset+0xa>
 8001e14:	4770      	bx	lr
 8001e16:	f803 1b01 	strb.w	r1, [r3], #1
 8001e1a:	e7f9      	b.n	8001e10 <memset+0x4>

08001e1c <_init>:
 8001e1c:	b5f8      	push	{r3, r4, r5, r6, r7, lr}
 8001e1e:	bf00      	nop
 8001e20:	bcf8      	pop	{r3, r4, r5, r6, r7}
 8001e22:	bc08      	pop	{r3}
 8001e24:	469e      	mov	lr, r3
 8001e26:	4770      	bx	lr

08001e28 <_fini>:
 8001e28:	b5f8      	push	{r3, r4, r5, r6, r7, lr}
 8001e2a:	bf00      	nop
 8001e2c:	bcf8      	pop	{r3, r4, r5, r6, r7}
 8001e2e:	bc08      	pop	{r3}
 8001e30:	469e      	mov	lr, r3
 8001e32:	4770      	bx	lr
